:0400000085EF00F098
:10000800A84FA84FA84FA84FA84FA84F9E46A84F43
:10001800A84FA84FE14CEF4CA84FA84FA84FA84FA6
:10002800FD4CA84FA84FA84FA84FA84FA84FA84FBE
:10003800A84FA84FA84F0B4DA84FA84FA84FD34C77
:10004800A84FA84FA84FA84FA84FA84FA84FA84FF0
:10005800A84FA84FA84FA84FA84FA84FA84FA84FE0
:10006800A84FA84FA84FA84FA84FA84FA84FA84FD0
:10007800A84FA84FA84FA84F4200A84FA84FA84F75
:10008800434D354DA84FA84FDA4BA84FA84FA84F5E
:10009800A84FA84FA84FA84F4200A84FA84FA84F55
:1000A800A84FA84FA84FA84FA84FA84FA84FA84F90
:1000B800A84FA84FA84F194DA84FA84FA84FA84F11
:1000C800A84FA84FA84FA84FA84FA84FA84FA84F70
:1000D8005F4D514DA84FA84FA84FA84FA84FA84F04
:1000E8004200A84FA84FA84FA84FA84FA84FA84F05
:1000F800A84FA84FA84F274DA84FA84FA84FA84FC3
:06010800FF0039EF8EF04C
:10F89C000000C0C101C30302C2C60607C705C5C428
:10F8AC0004CC0C0DCD0FCFCE0E0ACACB0BC9090858
:10F8BC00C8D81819D91BDBDA1A1EDEDF1FDD1D1C98
:10F8CC00DC14D4D515D71716D6D21213D311D1D028
:10F8DC0010F03031F133F3F23236F6F737F53534C8
:10F8EC00F43CFCFD3DFF3F3EFEFA3A3BFB39F9F898
:10F8FC003828E8E929EB2B2AEAEE2E2FEF2DEDEC38
:10F90C002CE42425E527E7E62622E2E323E1212067
:10F91C00E0A06061A163A3A26266A6A767A5656467
:10F92C00A46CACAD6DAF6F6EAEAA6A6BAB69A9A8D7
:10F93C006878B8B979BB7B7ABABE7E7FBF7DBDBC17
:10F94C007CB47475B577B7B67672B2B373B17170A7
:10F95C00B050909151935352929656579755959407
:10F96C00549C5C5D9D5F9F9E5E5A9A9B5B99595817
:10F97C0098884849894B8B8A4A4E8E8F4F8D4D4CB7
:10F98C008C448485458747468682424383418180E7
:10F99C004000C1814001C0804101C0804100C18153
:10F9AC004001C0804100C1814000C1814001C08044
:10F9BC004101C0804100C1814000C1814001C08033
:10F9CC004100C1814001C0804101C0804100C18122
:10F9DC004001C0804100C1814000C1814001C08014
:10F9EC004100C1814001C0804101C0804100C18102
:10F9FC004000C1814001C0804101C0804100C181F3
:10FA0C004001C0804100C1814000C1814001C080E3
:10FA1C004101C0804100C1814000C1814001C080D2
:10FA2C004100C1814001C0804101C0804100C181C1
:10FA3C004000C1814001C0804101C0804100C181B2
:10FA4C004001C0804100C1814000C1814001C080A3
:10FA5C004100C1814001C0804101C0804100C18191
:10FA6C004001C0804100C1814000C1814001C08083
:10FA7C004101C0804100C1814000C1814001C08072
:10FA8C004100C1814001C0804101C0804100C18161
:10FA9C004000C0C101C30302C2C60607C705C5C4E6
:10FAAC0004CC0C0DCD0FCFCE0E0ACACB0BC9090856
:10FABC00C8D81819D91BDBDA1A1EDEDF1FDD1D1C96
:10FACC00DC14D4D515D71716D6D21213D311D1D026
:10FADC0010F03031F133F3F23236F6F737F53534C6
:10FAEC00F43CFCFD3DFF3F3EFEFA3A3BFB39F9F896
:10FAFC003828E8E929EB2B2AEAEE2E2FEF2DEDEC36
:10FB0C002CE42425E527E7E62622E2E323E1212065
:10FB1C00E0A06061A163A3A26266A6A767A5656465
:10FB2C00A46CACAD6DAF6F6EAEAA6A6BAB69A9A8D5
:10FB3C006878B8B979BB7B7ABABE7E7FBF7DBDBC15
:10FB4C007CB47475B577B7B67672B2B373B17170A5
:10FB5C00B050909151935352929656579755959405
:10FB6C00549C5C5D9D5F9F9E5E5A9A9B5B99595815
:10FB7C0098884849894B8B8A4A4E8E8F4F8D4D4CB5
:10FB8C008C448485458747468682424383418180E5
:10FB9C004000C1814001C0804101C0804100C18151
:10FBAC004001C0804100C1814000C1814001C08042
:10FBBC004101C0804100C1814000C1814001C08031
:10FBCC004100C1814001C0804101C0804100C18120
:10FBDC004001C0804100C1814000C1814001C08012
:10FBEC004100C1814001C0804101C0804100C18100
:10FBFC004000C1814001C0804101C0804100C181F1
:10FC0C004001C0804100C1814000C1814001C080E1
:10FC1C004101C0804100C1814000C1814001C080D0
:10FC2C004100C1814001C0804101C0804100C181BF
:10FC3C004000C1814001C0804101C0804100C181B0
:10FC4C004001C0804100C1814000C1814001C080A1
:10FC5C004100C1814001C0804101C0804100C1818F
:10FC6C004001C0804100C1814000C1814001C08081
:10FC7C004101C0804100C1814000C1814001C08070
:10FC8C004100C1814001C0804101C0804100C1815F
:10FC9C004001030000000000000000000000000014
:10FCAC000000000000000000000000000000000048
:10FCBC000000000000000000000000000000000038
:10FCCC000000000000000001020304050607080CF8
:10FCDC00101418203040010600000000000001063E
:10FCEC000000000000000103000000000001030000
:10FCFC0000000000010303020001024000020002A8
:10FD0C004000C70050017C7C2F2F2D2D00000000DF
:10FD1C00000000000000000000007C7C2F2F2D2D27
:10FD2C005C5C0000000000000000000000004F4F71
:10FD3C004F4F4F4F2D2D5F5F2D0000000000000036
:10FD4C00000076763C3C5E5E3E3E0000000000000B
:10FD5C000000000000002E2E2A2A78237823585801
:10FD6C007C7C2D2D0000000000002E2E6F6F4F4F5D
:10FD7C006F6F000000000000000000000000536CDA
:10FD8C00656570696E6700000000466C6F61746990
:10FD9C006E670000000042756C6B000000000000F4
:10FDAC0000004162736F7262000000000000457138
:10FDBC0075616C697A65000000004C617374000019
:10FDCC000000000000000001020000000000000024
:10FDDC000000000002000001020001006A000000A7
:10FDEC00000000006D00000102000100C7000000CF
:10FDFC0000000000CA000001020000000800000022
:10FE0C00000000000A00000102000100C600000012
:10FE1C0000000000C9000001040000000100000007
:10FE2C00000000000500000102000100C8000000F5
:10FE3C0000000000CB0000010200000000000000E8
:10FE4C000000000002000106100000000106100274
:10FE5C0000010103000000180103000B00010D0A52
:10FE6C000D0A253564202533782025337820253359
:10FE7C00782025337820253378202020494E49548A
:10FE8C003A204D583830204E6F7420466F756E6492
:10FE9C00206F6E6C696E650D0A000D0A0D0A253512
:10FEAC00642025337820253378202533782025339A
:10FEBC007820253378202020494E49543A20466F2B
:10FECC00756E64204D583830206F6E6C696E650D00
:10FEDC000A005E5E5E2C25642E253031642C256470
:10FEEC002E253031642C25642C25642E253031646C
:10FEFC002C25642C25642C25640D0A0025642E25E4
:10FF0C0030316420416D70732025642E25303164AE
:10FF1C0020566F6C74732020200025642057617468
:10FF2C0074732025642E2530316420566F6C7473E5
:10FF3C0020202000456E65726779204D6F6E6974C4
:10FF4C006F722020256325632020202000466F75CA
:10FF5C006E64204D583830206F6E6C696E652020B1
:10FF6C0020202020004D583830204E6F7420466FD2
:10FF7C00756E64206F6E6C696E65202000202020E9
:10FF8C002020202020202020202020202020202065
:10FF9C002000537461727420557020202020202082
:10FFAC0020202020202000506F6C6C696E67204D43
:10FFBC00583830202020202020202000257320427B
:10FFCC003A2558202558202558202020004A756EA7
:10FFDC0020313320323032330031353A32373A3334
:10FFEC00380025732020202563006C6C730025736A
:03FFFC00200000E2
:020000040001F9
:1000000032C685F533C686F534C687F535C688F51C
:100010000601322B000E332334233523050188518A
:100020008711861108E1320E855DD8B004D0070132
:10003000E251D8B41200000E0601326F000E336F89
:10004000000E346F000E356F050120EE05F0835170
:10005000D9268451DA22010EDF6E44EF85F020EEBE
:1000600005F08351D9268451DA22020EDF6EE7ECC7
:100070009DF0F1EC9DF0050120EE01F08351D926B1
:100080008451DA22010EDF6E83C5D9F484C5DAF417
:1000900010EE02F08351E1268451E222DFC4E7F43E
:1000A00083C5D9F484C5DAF4DF2A20EE02F0835147
:1000B000D9268451DA22020EDE18D8A41AD020EEF6
:1000C00008F08351D9268451DA22DF50D8B411D0F8
:1000D00083C5D9F484C5DAF410EE02F08351E12629
:1000E0008451E222DFC4E7F483C5D9F484C5DAF48D
:1000F000DF2A20EE02F08351D9268451DA22030E42
:10010000DE18D8A41AD020EE07F08351D9268451E6
:10011000DA22DF50D8B411D083C5D9F484C5DAF41B
:1001200010EE02F08351E1268451E222DFC4E7F4AD
:1001300083C5D9F484C5DAF4DF2A83C5D9F484C52C
:10014000DAF4040EDF649BD083C5D9F484C5DAF4F5
:10015000DF6A95D020EE05F08351D9268451DA224A
:10016000030EDF6E400E7D6F090E7E6F520E7F6FA5
:10017000FE0E806F000E826F060E816F18EC99F0F4
:10018000050120EE03F08351D9268451DA227DC582
:10019000DEF47EC5DDF4120020EE05F08351D92691
:1001A0008451DA22040EDF6E400E7D6F090E7E6FE1
:1001B000580E7F6FFE0E806F000E826F060E816FED
:1001C00018EC99F0050120EE03F08351D9268451F3
:1001D000DA227DC5DEF47EC5DDF4120020EE05F0E6
:1001E0008351D9268451DA22050EDF6E400E7D6FD1
:1001F000090E7E6F5E0E7F6FFE0E806F000E826FA7
:10020000060E816F18EC99F0050120EE03F0835182
:10021000D9268451DA227DC5DEF47EC5DDF41200D4
:1002200020EE01F08351D9268451DA22DF6A83C59A
:10023000D9F484C5DAF4DF6A120020EE05F08351A8
:10024000D9268451DA22060EDF6E400E7D6F090E2C
:100250007E6F640E7F6FFE0E806F000E826F060E43
:10026000816F18EC99F0050120EE03F08351D92637
:100270008451DA227DC5DEF47EC5DDF4120020EE65
:1002800002F08351D9268451DA22DF50856F866BC4
:100290008651000AD8A4D9D78551000AD8B4CDD741
:1002A000010AD8B49BD7030AD8B476D7010AD8B4C8
:1002B00051D7070AD8B4B4D7C8D720EE05F0835178
:1002C000D9268451DA22070EDF6E000E9BEC98F0DF
:1002D00005016F516E116D1104E1280E6C5DD8A0FF
:1002E0001200000E3EEC9DF0000E0501D06F20EED6
:1002F00001F08351D9268451DA22020EDF6EDDEC43
:100300009DF0050120EE05F08351D9268451DA22B3
:10031000080EDF6E120020EE05F08351D9268451BD
:10032000DA22090EDF6E000E7BEC98F005016F51AA
:100330006E116D1104E1020E6C5DD8A01200000E6A
:10034000896F0BD0400E8925D96EDA6A090EDA2240
:10035000DF506EEC99F00501892B20EE03F08351FC
:10036000D9268451DA2289C587F5886B87BF88072B
:10037000DE50875DDE508859D8A0E4D720EE01F02A
:100380008351D9268451DA22030EDF6EDDEC9DF015
:10039000050120EE05F08351D9268451DA220A0E98
:1003A000DF6E010EE027000EE123E223E323000EBF
:1003B0000701E26F120020EE05F08351D926845127
:1003C000DA220B0EDF6E41EC9FF00009D8A4DDECC1
:1003D0009DF0000E7BEC98F005016F516E116D11D0
:1003E00004E1020E6C5DD8A0120020EE05F08351EE
:1003F000D9268451DA220C0EDF6E000E4EEC9DF0F1
:1004000027D320EE03F08351D9268451DA22080E37
:10041000DE6E000EDD6E20EE03F08351D92684518E
:10042000DA22D051876F886BDE50875DDE508859A5
:10043000D8A05ED008012005D8A45AD0060E2119F4
:10044000D8A456D0200E05016C6F080E6D6F20EEFB
:1004500003F08351D9268451DA22DEC485F5DDC448
:1004600086F5FE0E85256E6FFF0E86216F6FF8EC08
:1004700093F06CC58AF56DC58BF583C56CF584C5A5
:100480006DF5FBEC94F06CC58CF56DC58DF5050133
:100490008C518A190DE18D518B19D8A409D020EE09
:1004A00007F08351D9268451DA22010EDF6E11D074
:1004B00020EE07F08351D9268451DA22DF6A8AC5FB
:1004C0006CF58BC56DF58CC56EF58DC56FF509ECBA
:1004D0009DF0050120EE01F08351D9268451DA22E6
:1004E000DF6A83C5D9F484C5DAF4040EDF6E120026
:1004F000000E7BEC98F005016F516E1106E12C0E99
:100500006C5D010E6D59D8A0120020EE01F08351F0
:10051000D9268451DA22DF6ABF9483C5D9F484C511
:10052000DAF4DF6A010EDC27000EDD23DE23DF2391
:10053000D24BD32B120020EE03F08351D9268451E5
:10054000DA22080EDE6E000EDD6E20EE03F083511F
:10055000D9268451DA22D051876F886BDE50875DAF
:10056000DE508859D8A058D008012005D8A454D00E
:10057000060E2119D8A450D0200E05016C6F080E6C
:100580006D6F20EE03F08351D9268451DA22DEC448
:1005900085F5DDC486F5FE0E85256E6FFF0E86217E
:1005A0006F6FF8EC93F06CC58AF56DC58BF583C55C
:1005B0006CF584C56DF5FBEC94F06CC58CF56DC5E0
:1005C0008DF505018C518A190DE18D518B19D8A437
:1005D00009D020EE08F08351D9268451DA22010E89
:1005E000DF6E11D020EE08F08351D9268451DA2233
:1005F000DF6A8AC56CF58BC56DF58CC56EF58DC54A
:100600006FF509EC9DF0050120EE01F08351D9262C
:100610008451DA22DF6A1200000E7BEC98F00501AB
:100620006F516E1106E12C0E6C5D010E6D59D8A054
:1006300012006BD720EE03F08351D9268451DA22C1
:10064000350EDE6E000EDD6E20EE03F08351D926EE
:100650008451DA22D051876F886BDE50875DDE507F
:100660008859D8A028D108012005D8A424D1030E88
:100670002119D8A420D1200E05016C6F080E6D6FD2
:1006800020EE03F08351D9268451DA22DEC485F5A9
:10069000DDC486F5FE0E85256E6FFF0E86216F6F19
:1006A000F8EC93F06CC58AF56DC58BF583C56CF5D8
:1006B00084C56DF5FBEC94F06CC58CF56DC58DF5BE
:1006C00005018C518A1903E18D518B19D8A4D9D019
:1006D00020EE09F08351D9268451DA22010EDF6E13
:1006E000870E6C6F060E6D6F230E6E6F080E6F6FA8
:1006F000000E716F300E706F9CEC94F093C66CF529
:1007000094C66DF595C66EF596C66FF535EC99F005
:100710006CC593F66DC594F66EC595F66FC596F6E5
:1007200097C66CF598C66DF599C66EF59AC66FF5C5
:1007300035EC99F06CC597F66DC598F66EC599F6CF
:100740006FC59AF69BC66CF59CC66DF59DC66EF599
:100750009EC66FF535EC99F06CC59BF66DC59CF6A1
:100760006EC59DF66FC59EF69FC66CF5A0C66DF56D
:10077000A1C66EF5A2C66FF535EC99F06CC59FF673
:100780006DC5A0F66EC5A1F66FC5A2F6A3C66CF541
:10079000A4C66DF5A5C66EF5A6C66FF535EC99F045
:1007A0006CC5A3F66DC5A4F66EC5A5F66FC5A6F615
:1007B000A7C66CF5A8C66DF5A9C66EF5AAC66FF5F5
:1007C00035EC99F06CC5A7F66DC5A8F66EC5A9F60F
:1007D0006FC5AAF6ABC66CF5ACC66DF5ADC66EF5C9
:1007E000AEC66FF535EC99F06CC5ABF66DC5ACF6E1
:1007F0006EC5ADF66FC5AEF6AFC66CF5B0C66DF59D
:10080000B1C66EF5B2C66FF535EC99F06CC5AFF6B2
:100810006DC5B0F66EC5B1F66FC5B2F6B3C66CF570
:10082000B4C66DF5B5C66EF5B6C66FF535EC99F084
:100830006CC5B3F66DC5B4F66EC5B5F66FC5B6F644
:10084000050120EE0AF08351D9268451DA2210EEF8
:100850000EF08351E1268451E222DEC4E6F4DEC4C8
:10086000E6F4DEC4E6F4DEC4E6F420EE0AF08351DA
:10087000D9268451DA22DE2A000EDE22DE22DE2292
:1008800011D020EE09F08351D9268451DA22DF6A93
:100890008AC56CF58BC56DF58CC56EF58DC56FF58C
:1008A00009EC9DF0050120EE01F08351D926845119
:1008B000DA22DF6A1200000E7BEC98F005016F511E
:1008C0006E1101E1B0D621D620EE03F08351D92676
:1008D0008451DA22070EDE6E000EDD6E20EE03F08C
:1008E0008351D9268451DA22D051876F886BDE502C
:1008F000875DDE508859D8A06DD008012005D8A4A6
:1009000069D0030E2119D8A465D0200E05016C6FA3
:10091000080E6D6F20EE03F08351D9268451DA2240
:10092000DEC485F5DDC486F5FE0E85256E6FFF0EEF
:1009300086216F6FF8EC93F06CC58AF56DC58BF569
:1009400083C56CF584C56DF5FBEC94F06CC58CF536
:100950006DC58DF505018C518A190DE18D518B19ED
:10096000D8A409D020EE06F08351D9268451DA228A
:10097000010EDF6E26D020EE06F08351D926845179
:10098000DA22DF6A20EE08F08351D9268451DA2278
:10099000DF6A20EE07F08351D9268451DA22DF6A1C
:1009A00020EE09F08351D9268451DA22DF6A8AC504
:1009B0006CF58BC56DF58CC56EF58DC56FF509ECC5
:1009C0009DF0050120EE01F08351D9268451DA22F1
:1009D000DF6A1200000E7BEC98F005016F516E117A
:1009E00006E12C0E6C5D010E6D59D8A0120020EEB0
:1009F00001F08351D9268451DA22DF6A83C5D9F404
:100A000084C5DAF4DF6A010EDC27000EDD23DE2365
:100A1000DF23D24BD32B20EE06F08351D92684510D
:100A2000DA22DF6A20EE08F08351D9268451DA22D7
:100A3000DF6A20EE07F08351D9268451DA22DF6A7B
:100A400020EE09F08351D9268451DA22DF6A1200A0
:100A5000050120EE02F08351D9268451DA22DF50BD
:100A6000856F866B8651000AD8A42ED78551000A5F
:100A7000D8B42AD7010AD8B4DDD5030AD8B45BD5D7
:100A8000010AD8B4BED420D720EE01F08351D92674
:100A90008451DA22DF50856F866B8651000AD8A414
:100AA00012008551000AD8B42FEF80F0010AD8B4A3
:100AB00004D4030AD8B42FD4010AD8A412007BD4DA
:100AC0006EEC97F0D68ED68C640E05016C6F190E05
:100AD0006D6F010E6E6FA5EC9EF02CEC9FF0360E44
:100AE00005016C6F3A0E6D6F010E6E6FB3EC9EF0E8
:100AF00038EC9FF0760E05016C6F310E6D6F010EB4
:100B00006E6FACEC9EF032EC9FF09EEC9BF01A0EF8
:100B100005016C6F380E6D6F010E6E6F43EC9EF029
:100B2000000E05016D6F140E6C6F020E87EC9BF0CA
:100B3000000E05016D6FC80E6C6F030E87EC9BF005
:100B4000CBEC91F0400E0801E06F070EE16FFA0E5A
:100B5000E26FFF0EE36F890EE46FFF0EE56F7EEC30
:100B600095F0000E0501806F400E816F070E826FB9
:100B7000000E69EC94F0400E0801E06F070EE16F83
:100B8000FA0EE26FFF0EE36FEA0EE46F070EE56FF9
:100B90007EEC95F0000E0501806F400E816F070E10
:100BA000826F000E69EC94F0400E0801E06F070EB2
:100BB000E16FFA0EE26FFF0EE36FD90EE46FFF0EE6
:100BC000E56F7EEC95F0000E0501806F400E816FA1
:100BD000070E826F010E69EC94F0400E0801E06F81
:100BE000070EE16FC80EE26FFF0EE36FE50EE46FD4
:100BF000FF0EE56FD8C4E6F8E76BF0C4E8F8E96BE0
:100C0000F1C4EAF8EB6B7EEC95F0000E0501806F05
:100C1000400E816F070E826F020E69EC94F0400E59
:100C20000801E06F070EE16FFA0EE26FFF0EE36F4F
:100C30009E0EE46FFF0EE56F7EEC95F0000E050151
:100C4000806F400E816F070E826F030E69EC94F087
:100C5000400E05016C6F420E6D6F0F0E6E6F000E31
:100C60006F6F8AEC99F0400E0801E06F070EE16F9C
:100C7000FA0EE26FFF0EE36FB30EE46FFF0EE56F47
:100C80007EEC95F0000E0501806F400E816F070E1F
:100C9000826F020E69EC94F098D0420E05017C6FD1
:100CA000FE0E7D6FDBEC98F07E0E0701F96F1B0ED8
:100CB000FA6F010EFB6F050EFC6FF7EC97F0A7D0F3
:100CC000320E05017C6FFE0E7D6FDBEC98F01C0E82
:100CD0000701F96F3B0EFA6F010EFB6F050EFC6FFB
:100CE000F7EC97F094D0120E05017C6FFE0E7D6F2D
:100CF000DBEC98F03A0E0701F96F3E0EFA6F010E29
:100D0000FB6F050EFC6FF7EC97F081D0020E05012A
:100D10007C6FFE0E7D6FDBEC98F06C0E0701F96FB7
:100D2000380EFA6F010EFB6F050EFC6FF7EC97F0B3
:100D30006ED0F20E05017C6FFD0E7D6FDBEC98F03E
:100D4000440E0701F96F380EFA6F010EFB6F050EA6
:100D5000FC6FF7EC97F05BD0E20E05017C6FFD0EA7
:100D60007D6FDBEC98F0EE0E0701F96F390EFA6F2C
:100D7000010EFB6F050EFC6FF7EC97F048D0220ECA
:100D800005017C6FFE0E7D6FDBEC98F01E0E0701F7
:100D9000F96F120EFA6F010EFB6F100EFC6FF7EC7D
:100DA00097F035D0D20E05017C6FFD0E7D6FDBEC28
:100DB00098F0B20E0701F96F360EFA6F010EFB6F55
:100DC000050EFC6FF7EC97F022D01A500701FE6F6A
:100DD000FF6BFF51000AD8A460D7FE51000AD8B4B7
:100DE0005CD7010AD8B46CD7030AD8B47CD7010AFF
:100DF000D8B48CD7070AD8B49CD7010AD8B4ACD7DA
:100E0000030AD8B4CFD7010AD8B4B9D746D702500D
:100E1000D8B402D0000E026E030EACEC9CF00009B8
:100E2000D8B437D0000E05016D6FC80E6C6F030E7D
:100E300087EC9BF0400E0801E06F070EE16F400E5B
:100E4000E26FFF0EE36F000E0501706F1150050891
:100E5000D7EC90F00701FE6FFE510801E46FE56BDF
:100E6000000E0501706F11500508D7EC90F00701D6
:100E7000FF6FFF510801E66FE76B7EEC95F0000E07
:100E80000501806F400E816F070E826F010E69ECC5
:100E900094F0A00E0501836F070E846F00EC80F0C4
:100EA00094D79DC5D9F49EC5DAF4DEC4F6F4DDC44A
:100EB000F7F4000EF86E0800F550250AD8A499D171
:100EC0009DC5D9F49EC5DAF4DE2A000EDD22000E9F
:100ED0000501E86F000EE76FE7C5F1F5E969EA691A
:100EE000000EA56F000E0CD0F1839DC5D9F49EC5F0
:100EF000DAF4DE2A000EDD221CD0000EA56F010EF2
:100F0000A46F17D09DC5D9F49EC5DAF4DEC4F6F4FB
:100F1000DDC4F7F4000EF86E0800F550A16FA26B67
:100F2000A251000AD8A4E9D7A151300AD8B4DCD71D
:100F3000E4D7A451A511D8B4E5D79DC572F59EC5D7
:100F400073F59FC574F5A0C575F56BEC8FF072C590
:100F5000E7F573C5E8F50501E8AF05D0F181E76D68
:100F6000E81FD8B0E82B9DC5D9F49EC5DAF4DEC4DD
:100F7000F6F4DDC4F7F4000EF86E0800F550630ACD
:100F8000D8A422D09DC5D9F49EC5DAF4DE2A000E7D
:100F9000DD229FC5D9F4A0C5DAF4DFC4A1F5020EA5
:100FA000DE26DFC4A2F5000EDD22A1C5D9F4A2C55C
:100FB000DAF4DF50A36F9BC577F59CC578F5A3C520
:100FC00079F5B3EC92F012009DC5D9F49EC5DAF420
:100FD000DEC4ACF5DDC4ADF5ACC5F6F4ADC5F7F4D3
:100FE000000EF86E0800F550640AD8B40BD0ACC5FA
:100FF000F6F4ADC5F7F4000EF86E0800F550690A76
:10100000D8A42DD09FC5D9F4A0C5DAF4DFC4A1F5CA
:10101000020EDE26DFC4A2F5000EDD22A1C5D9F442
:10102000A2C5DAF4DEC4A8F5DDC4A9F5010EAC252D
:10103000A16F000EAD21A26F9DC5D9F49EC5DAF453
:10104000A1C5DEF4A2C5DDF49BC589F59CC58AF572
:10105000A8C58BF5A9C58CF52CEC8AF01200ACC59F
:10106000F6F4ADC5F7F4000EF86E0800F550780AF6
:10107000D8B40BD0ACC5F6F4ADC5F7F4000EF86EDD
:101080000800F550580AD8A44CD09FC5D9F4A0C583
:10109000DAF4DFC4A1F5020EDE26DFC4A2F5000EED
:1010A000DD22A1C5D9F4A2C5DAF4DEC4A8F5DDC4F9
:1010B000A9F5010EAC25A16F000EAD21A26F9DC553
:1010C000D9F49EC5DAF4A1C5DEF4A2C5DDF414D0CE
:1010D0009BC589F59CC58AF5A8C58BF5A9C58CF576
:1010E000ACC5F6F4ADC5F7F4000EF86E0800F5C413
:1010F0008DF574EC8BF01200ACC5F6F4ADC5F7F4C9
:10110000000EF86E0800F550A16FA26BA251000A04
:10111000D8A407D0A151580AD8B4DAD7200AD8B435
:10112000D7D79DC5D9F49EC5DAF4DEC4F6F4DDC484
:10113000F7F4000EF86E0800F550730AD8B417D013
:101140009DC5D9F49EC5DAF4DEC46CF5DDC46DF539
:10115000F60E6E6FFF0E6F6F000E716F030E706FE5
:10116000A9EC8EF005016C516D11D8A43AD09DC543
:10117000D9F49EC5DAF4DEC4F6F4DDC4F7F4000E4B
:10118000F86E0800F550730AD8B404D0000EA76FAB
:10119000030E03D0000EA76F010EA66F9DC5D9F4F4
:1011A0009EC5DAF4A651DE26A751DD229BC577F550
:1011B0009CC578F59FC5D9F4A0C5DAF4DFC4A1F5C4
:1011C000020EDE26DFC4A2F5000EDD22A1C5D9F491
:1011D000A2C5DAF4DEC479F5DDC47AF5D2EC8AF082
:1011E00012009DC5D9F49EC5DAF4DE2A000EDD2278
:1011F00012009DC5D9F49EC5DAF4DEC4F6F4DDC450
:10120000F7F4000EF86E0800F55005016E6F6F6B75
:101210009BC570F59CC571F52AEC91F0E2D70601EB
:101220005B510501B96FB86B06015D510501B82529
:10123000766F06015E510501B921776FB9EC96F022
:10124000EDC5BEF5EEC5BFF5EFC5BCF5F0C5BDF506
:1012500006015F510501B96FB86B060161510501C7
:10126000B825766F060162510501B921776FB9EC97
:1012700096F00F0E060149150501B86F000E060124
:101280004A150501B96FB95104E10A0EB85DD8A03D
:1012900015D006014B4B4C2B0F0E49150501B86FAD
:1012A000000E06014A150501B96FF60EB8250601B4
:1012B000496FFF0E0501B92106014A6F0150D8B4EC
:1012C000C8D0000E016E0950D8B4C3D0DE0E08019C
:1012D000E06FFE0EE16F800E06014D250801E26F02
:1012E000FF0E06014E210801E36F0F0E060149159E
:1012F0000801E46FE56BBEC5E6F8BFC5E7F8BCC5FD
:10130000E8F8BDC5E9F8800E06014B250801EA6F33
:10131000FF0E06014C210801EB6FEDC5ECF8EEC5A0
:10132000EDF8EFC5EEF8F0C5EFF8EBC5F0F8ECC559
:10133000F1F811C5F2F812C5F3F805C5F4F806C5C1
:10134000F5F84AEC9CF0054A062A400E0801E06FC9
:10135000070EE16F260EE26FFF0EE36FEBC5E4F8B8
:10136000ECC5E5F8EDC5E6F8EEC5E7F8EFC5E8F839
:10137000F0C5E9F87EEC95F0000E0501806F400E97
:10138000816F070E826F020E69EC94F0400E080127
:10139000E06F070EE16F080EE26FFF0EE36F800E45
:1013A00006014D250801E46FFF0E06014E210801DC
:1013B000E56F0F0E060149150801E66FE76BBEC524
:1013C000E8F8BFC5E9F8BCC5EAF8BDC5EBF87EECA6
:1013D00095F0000E0501806F400E816F070E826F41
:1013E000030E69EC94F011C56CF512C56DF5000E95
:1013F00005016F6F0C0E6E6F5EEC9CF08A0E05019E
:101400006C25F66EFD0E6D21F76EF86A000EF8225F
:101410000800F550BA6FBB6B400E0801E06F070E75
:10142000E16FEE0EE26FFF0EE36FEA0EE46F070E60
:10143000E56FBAC5E6F8BBC5E7F87EEC95F0000E9F
:101440000501806F400E816F070E826F000E69EC00
:1014500094F0060E1A6E120005018CAF02D0010E38
:1014600001D0000E936F9351D8B404D08B6D8C1FB4
:10147000D8B08C2BEAAFF193EAAF05D0000E906F95
:10148000010E8F6F04D0E9C58FF5EAC590F5E7C569
:1014900091F5E8C592F59351D8B410D09107D8A032
:1014A00092079351D8A404D0000E8E6F2B0E03D058
:1014B000000E8E6F2D0E8D6F8DC593F5000E956FFE
:1014C0001F0E946F000E07019F6F31D09407D8A0B4
:1014D0009507800E9425D96E070E9521DA6E8BC57F
:1014E0006CF58CC56DF5000E6F6F0A0E6E6FBFEC5C
:1014F00093F06CC572F56DC573F5D9EC9AF00501E2
:101500007251300FDF6E8F07D8A090079107D8A0D7
:1015100092078BC56CF58CC56DF5000E6F6F0A0ECA
:101520006E6FFDEC92F06CC58BF56DC58CF5050109
:1015300095BF19D0955103E19405D8A014D08B51D3
:101540008C11D8A4C3D790BF05D09051BFE18F05AF
:10155000D8B0BCD792BF07D0925103E19105D8A073
:1015600002D0F1B3B3D79351D8B40BD09407D8A01D
:101570009507800E9425D96E070E9521DA6E93C5D6
:10158000DFF489C57EF58AC57FF5800E9425806FCE
:10159000070E9521816F91C582F592C583F540ECC8
:1015A00093F0120021EEE3F311EE7CF1060EDBC4A2
:1015B000E3F4E806FCE279C587F57AC588F505010C
:1015C00087518811D8A404D07C0E876F050E886FD0
:1015D00087C56CF588C56DF503EC97F06CC58BF588
:1015E0006DC58CF5E9C589F5EAC58AF505018ABF9F
:1015F0000ED08B51895D8A51800A7B6F8C51800A95
:101600007B59D8B004D089C58BF58AC58CF58BC5BC
:1016100089F58CC58AF5E7C585F5E8C586F5F1A19C
:101620000ED017D0000E6F6F200E6E6F77C570F55D
:1016300078C571F52AEC91F005018B4B8C2B855107
:101640008B5D8C51800A7B6F8651800A7B59D8A0B4
:10165000E9D7000E846F000E836F21D087C5F6F4A2
:1016600088C5F7F4000EF86E3F0EF76403D008004B
:10167000F55005D0F6C4E9F4F7C4EAF4EF500501DB
:101680007B6F7B516E6F6F6B77C570F578C571F5A9
:101690002AEC91F00501874B882B834B842B8951D1
:1016A000835D8451800A7B6F8A51800A7B59D8A060
:1016B000D5D7F1A112000DD0000E6F6F200E6E6F06
:1016C00077C570F578C571F52AEC91F005018B4B63
:1016D0008C2B85518B5D8C51800A7B6F8651800AE3
:1016E0007B59D8B01200E8D70501EAAFF193EAAF11
:1016F00005D0000E956F010E946F04D0E9C594F5E6
:10170000EAC595F5E7C596F5E8C597F5000E996F1A
:101710001F0E986F000E07019F6F57D09807D8A033
:1017200099078B510F0B9A6F090E9A6502D0570ECD
:1017300001D0300E9A25926F936B000E932392C5C1
:101740009AF5BF0E8D258E6F8F6BFF0E8F238F51F5
:101750001FE11A0E8E5DD8B01BD09A518E6F8F6B21
:10176000200E8E13000E8F139F0E8E25906FFF0E8E
:101770008F21916F91510CE11A0E905DD8B008D075
:101780009AC570F5716B70EC9BF0050170519A6F02
:10179000800E9825D96E070E9921DA6E9AC5DFF46E
:1017A0009407D8A095079607D8A097078BC58EF504
:1017B0008CC58FF5040E906FD8908F338E33902F99
:1017C000FBD78EC58BF58FC58CF5050199BF1AD057
:1017D000995104E1020E985DD8A014D08B518C1160
:1017E000D8A49CD795BF05D0955198E19405D8B061
:1017F00095D797BF07D0975103E19605D8A002D09F
:10180000F1B38CD789C57EF58AC57FF5800E982502
:10181000806F070E9921816F96C582F597C583F574
:1018200040EC93F012006CC576F56DC577F50501B7
:1018300070517111D8A405D06CC56CF56DC56DF5EE
:10184000120076C5D9F477C5DAF46EC5DFF47051AD
:101850007625726F71517721736FFF0E7225D96EE5
:10186000FF0E7321DA6E6EC5DFF4715104E1030ED1
:10187000705DD8A0E1D720EE01F07651D9267751DE
:10188000DA226EC5DFF420EE02F07651D9267751C8
:10189000DA226EC5DFF470517625726F71517721AF
:1018A000736FFE0E7225D96EFF0E7321DA6E6EC550
:1018B000DFF470517625726F71517721736FFD0ED1
:1018C0007225D96EFF0E7321DA6E6EC5DFF4715189
:1018D00004E1070E705DD8A0AFD720EE03F076517B
:1018E000D9267751DA226EC5DFF470517625726FF2
:1018F00071517721736FFC0E7225D96EFF0E732123
:10190000DA6E6EC5DFF4715104E1090E705DD8A086
:1019100093D776C572F577C573F5721F731F724B37
:10192000732B030E7215746F756B74517627755196
:1019300077237451705F7551715BFC0E7017FF0E49
:1019400071170BD076C5D9F477C5DAF46EC5DFF41C
:101950007007D8A07107764B772B70517111D8B4EE
:101960006BD7F0D7C282172A1704496E020E49645A
:1019700033D00501F307F329D8B428D0F251020D72
:10198000000EF324D96E070EF420DA6E000EDE5C32
:10199000010EDE58D8A00CD0F251020D000EF32437
:1019A000D96E070EF420DA6EDF500201A56F0BD05E
:1019B000F251020D000EF324D96E070EF420DA6EF8
:1019C000DF500DEC9FF00501F22B04D0000EF26FFA
:1019D000000EF36F000E176E0201B2A308D0A1C271
:1019E000A0F80801A16B0201B293000E186EB2A01C
:1019F0002FD0B2511F0E186403D0000E186EBF8294
:101A0000B2AD0FD0000E186E1850020DA00EF324C8
:101A1000D96E080EF420DA6E000EDE6E010EDD6E59
:101A20000AD01850020DA00EF324D96E080EF4202F
:101A3000DA6EDE6ADD6A1850020DA00EF324D96E4C
:101A4000080EF420DA6EA151DE26000EDD22182ADF
:101A5000000E3D6E000E3E6E000E3F6E000E406E9C
:101A6000000E416E000E426E000E436E000E446E7C
:101A700047EC96F0C2921200FAC42BF5FBC42CF589
:101A800001011DAF0ED001D80AD00500FA6E0E502C
:101A9000FD6E0F50FE6E1050FF6EFA5012000101E5
:101AA0001D9F1DAD0FD001D80BD00500FA6E0501AA
:101AB000E451FD6EE551FE6EE651FF6EFA501200E4
:101AC00001011D9D1DAB0FD001D80BD00500FA6E92
:101AD00006014251FD6E4351FE6E4451FF6EFA50B5
:101AE000120001011D9B1CA70FD001D80BD00500CF
:101AF000FA6E06013F51FD6E4051FE6E4151FF6E80
:101B0000FA50120001011C971DA90FD001D80BD06B
:101B10000500FA6E06013C51FD6E3D51FE6E3E51D0
:101B2000FF6EFA50120001011D991DA510D001D8B9
:101B30000BD00500FA6E06013951FD6E3A51FE6E6A
:101B40003B51FF6EFA501200010160B960991DA768
:101B500010D001D80BD00500FA6E06013651FD6E8B
:101B60003751FE6E3851FF6EFA50120001016CB70A
:101B70006C97AE9C2CC5FBF42BC5FAF41100030E38
:101B800006014B194C11D8A439D0A60E0801E06FFC
:101B9000FE0EE16F0550E26F0650E36F054A062A1C
:101BA00047C6E4F848C6E5F849C6E6F84AC6E7F885
:101BB0004BC6E8F84CC6E9F84DC6EAF84EC6EBF855
:101BC0004FC6ECF850C6EDF84AEC9CF0010E096ED9
:101BD000400E0801E06F070EE16F590EE26FFF0E35
:101BE000E36F7EEC95F0000E0501806F400E816F73
:101BF000070E826F030E69EC94F038D06A0E08016C
:101C0000E06FFE0EE16F0550E26F0650E36F054A8C
:101C1000062A47C6E4F848C6E5F849C6E6F84AC6C3
:101C2000E7F84BC6E8F84CC6E9F84DC6EAF84EC6E8
:101C3000EBF84FC6ECF850C6EDF84AEC9CF0400EBD
:101C40000801E06F070EE16F710EE26FFF0EE36FA8
:101C50007EEC95F0000E0501806F400E816F070E3F
:101C6000826F030E69EC94F0000E096E010E1A6E7D
:101C700012004E0EF66E2E0EF76E010EF86E01EE8D
:101C8000B2F310EE47F00900F5C4EEF4E550E15070
:101C9000FAE1260EF66E3E0EF76E010EF86E01EEBC
:101CA000F6F210EE0AF00900F5C4EEF4E550E1504A
:101CB000FAE1CA0EF66E390EF76E010EF86E01EEFD
:101CC000C0F110EE24F00900F5C4EEF4E550E15047
:101CD000FAE1860EF66E3E0EF76E010EF86E090002
:101CE000F5C44BF50900F5C44CF502EE00F2C00E48
:101CF000EE6AE806FDE102EE00F1E30EEE6AE806A8
:101D0000FDE102EE00F0E00EEE6AE806FDE101EE14
:101D100000F3B20EEE6AE806FDE101EE00F2B70E46
:101D2000EE6AE806FDE101EEE4F1100EEE6AE80667
:101D3000FDE101EE01F12A0EEE6AE806FDE1040183
:101D4000080E5D6F000E5E6F000E5F6F000160EFAA
:101D500085F06CC573F56DC574F56EC575F56FC509
:101D600076F505017007D8A0710770290FE1712978
:101D7000D8A40CD0000E6D6F000E6C6F1200734B68
:101D8000742B754B762B7007D8A0710773C5F6F4CA
:101D900074C5F7F4000EF86E0800F5500009D8B4C9
:101DA00023D075C5F6F476C5F7F4000EF86E08007A
:101DB000F5500009D8B418D070517111D8B414D0AE
:101DC00073C5F6F474C5F7F4000EF86E0800F5C498
:101DD00072F575C5F6F476C5F7F4000EF86E0800D6
:101DE000F5507219D8B4CBD773C5F6F474C5F7F4AF
:101DF000000EF86E0800F5C472F575C5F6F476C5E8
:101E0000F7F4000EF86E0800F550725D6C6F6D6BA4
:101E1000D8A06D071200000E0301F96F010EFA6FD2
:101E2000000ED86F000EFB6F000ED96F000EDA6F38
:101E3000000EDB6F000EDC6F000EDF6F000EE06F38
:101E4000000EE36F000EE46F000EE56F000EE66F0C
:101E5000000EE76F000EEA6F000EEB6F000EEC6FE6
:101E60000A0EEE6F000EEF6F000EF06F000EF16FB6
:101E7000000EF26F000EF36F000EF46F100EF56F90
:101E8000000EF66F000EF76F020EF86F000EFC6F7B
:101E9000AF94AF96B0909F84A60E05016C6F3E0E76
:101EA0006D6F010E6E6F00EC9FF0AA0E05016C6F56
:101EB0003E0E6D6F010E6E6FF2EC9EF0A80E0501E6
:101EC0006C6F3E0E6D6F010E6E6FF9EC9EF0840E1E
:101ED0000301F36F1200000E05017A6F000E796F97
:101EE00072C5D9F473C5DAF4DEC4F6F4DDC4F7F4D0
:101EF000000EF86E0800F5502A0AD8A434D072C536
:101F0000D9F473C5DAF4DE2A000EDD2274C5D9F4E3
:101F100075C5DAF4DFC476F5020EDE26DFC477F588
:101F2000000EDD2276C5D9F477C5DAF4DEC479F582
:101F3000DDC47AF529D079C56CF57AC56DF5000E4A
:101F40006F6F0A0E6E6F5EEC9CF0050178516C2588
:101F5000796F000E6D217A6F72C5D9F473C5DAF40A
:101F6000DE2A000EDD2272C5D9F473C5DAF4DEC4B0
:101F7000F6F4DDC4F7F4000EF86E0800F550D00F4B
:101F8000786F090E7865D7D779C572F57AC573F57C
:101F90001200A690F60E05016C6F220E6D6F010EF9
:101FA0006E6F66EC9EF0A692C20E05016C6F370E46
:101FB0006D6F010E6E6F5FEC9EF0000E0201B86F48
:101FC000000EB96F000EBA6F000EBB6F000EBC6F33
:101FD000000EBD6FB00EBE6F800EBF6F000EC06FE3
:101FE000560EC16F000EC26F000EC36F000EC46F9D
:101FF000000EC56F000EC66FA40E05016C6F3E0E7D
:102000006D6F010E6E6F74EC9EF0A20E05016C6F89
:102010003E0E6D6F010E6E6F6DEC9EF0760E05013B
:102020006C6F3E0E6D6F010E6E6F7BEC9EF0000EBE
:10203000236E000E296E000E286E400E276E000ED5
:10204000266E000E256E000E246EA6801200AB9048
:10205000340E05016C6F240E6D6F010E6E6F43EC34
:102060009EF0AB92EE0E05016C6F370E6D6F010E98
:102070006E6F3CEC9EF0000E0201F16F000EF36FEC
:10208000000EF56FB00EF76F800EF86F000EF96F4F
:10209000110EFA6F040EFB6F000EFC6F000EFD6F49
:1020A000000EFE6F000EFF6FB20E05016C6F3E0E4C
:1020B0006D6F010E6E6F51EC9EF0B00E05016C6FEE
:1020C0003E0E6D6F010E6E6F4AEC9EF07C0E0501A8
:1020D0006C6F3E0E6D6F010E6E6F58EC9EF0000E31
:1020E0001B6E000E216E000E206E200E1F6E000E65
:1020F0001E6E000E1D6E000E1C6EAB801200000ED8
:10210000C26E9E0EC16E000EBE6E0E0EBF6E040E2F
:10211000C06E000ECA6EEF0EC66EE90EC76E910E4F
:10212000C86EA10EC96E200E0401186F000E106F4C
:10213000C00E086F000E206F0069000E196F000EB0
:10214000216F010E096F000E016F000E116F000E5E
:10215000226F000E026F000E0A6F000E126F000E4B
:102160001A6F03690B6913691B69070E236F0469F2
:102170000C6914691C690F0E246F180E0201746F2C
:10218000100E7A6F130E6A6F310E146F2C0E126FD1
:10219000080E3D6F460E0D6F320E166F200E176F34
:1021A000170E726F230E1F6F140E6B6F1200050156
:1021B000756F050E0501756502D0000E756F7051C3
:1021C000D8B407D0240E7525D96EDA6A060EDA2245
:1021D000DF6A7551140D120EF324716FFD0EF42099
:1021E000726F240E7525D96EDA6A060EDA22DF5078
:1021F000736F73517127000E722371C5F6F472C5A7
:10220000F7F4000EF86E0800F5C474F57551140D5E
:10221000120EF3246C6FFD0EF4206D6F03EC97F03B
:10222000240E05017525D96EDA6A060EDA22DF2A38
:10223000DF50716F726B6C51715D6D517259D8A026
:1022400007D0240E7525D96EDA6A060EDA22DF6A07
:1022500074511200050170517111D8B404D070513D
:102260007111D8A404D06E5120EC9EF0120020EE23
:102270000AF07051D9267151DA22DE50DE10D8B43E
:1022800016D020EE0AF07051D9267151DA2210EEE4
:1022900003F07051E1267151E222DE50E65CE65017
:1022A000800A766FDE50800A7659D8B0120020EE90
:1022B00003F07051D9267151DA22DEC472F5DDC403
:1022C00073F570C5D9F471C5DAF4DEC474F5DDC4F4
:1022D00075F572517425D96E73517521DA6E6EC51C
:1022E000DFF420EE03F07051D9267151DA22DE2A94
:1022F000000EDD221200000E2624D96EDA6A090EC5
:10230000DA22DF6A0201C5A715D0000E2624D96E95
:10231000DA6A090EDA220901DF8201D80BD0050042
:10232000FA6E0601E451FD6EE551FE6EE651FF6E58
:10233000FA5012000201C5A315D0000E2624D96E52
:10234000DA6A090EDA220901DF8401D80BD0050010
:10235000FA6E0601E151FD6EE251FE6EE351FF6E31
:10236000FA501200000E2624D96EDA6A090EDA221B
:10237000DF50D8B40DD001D812000500FA6E060166
:10238000DE51FD6EDF51FE6EE051FF6EFA5012001D
:102390006EEC9DF01200C00E0601066F090E076F6D
:1023A00006C678F507C679F55EEC9DF00001849FBE
:1023B000200E856F030E866F040E896F020E8C6FE0
:1023C000830E846F848F300E05016C6F570E6D6F16
:1023D000050E6E6F000E6F6F8AEC99F0460E39ECA9
:1023E00098F0410E5AEC98F0500E05016C6F000EFB
:1023F0006D6F000E6E6F000E6F6F8AEC99F0530ECA
:102400005AEC98F0020EBFEC9CF0500E05016C6F78
:10241000000E6D6F000E6E6F000E6F6F8AEC99F0FC
:10242000510E39EC98F000018A9307EC9FF00001FF
:102430008A831200140E1E24D96EDA6A060EDA227E
:10244000DF6A0201FEA714D0140E1E24D96EDA6AC8
:10245000060EDA220601DF8201D80AD00500FA6EE4
:10246000C351FD6EC451FE6EC551FF6EFA5012008D
:102470000201FEA314D0140E1E24D96EDA6A060ED1
:10248000DA220601DF8401D80AD00500FA6EC051B5
:10249000FD6EC151FE6EC251FF6EFA501200140E55
:1024A0001E24D96EDA6A060EDA22DF50D8B40DD0B7
:1024B00001D812000500FA6E0601BD51FD6EBE5135
:1024C000FE6EBF51FF6EFA5012007EEC9DF01200BE
:1024D000960E05016C6F3E0E6D6F010E6E6FDDEC9A
:1024E0009EF0980E05016C6F3E0E6D6F010E6E6FC3
:1024F000E4EC9EF09A0E05016C6F3E0E6D6F010EBE
:102500006E6FEBEC9EF0940E05016C6F3E0E6D6FDE
:10251000010E6E6FD6EC9EF0900E05016C6F3E0EB4
:102520006D6F010E6E6FC8EC9EF08E0E05016C6F24
:102530003E0E6D6F010E6E6FC1EC9EF0920E0501A6
:102540006C6F3E0E6D6F010E6E6FCFEC9EF0AE9C09
:10255000000E01011C6F000E1D6F080E1E6FFC0E99
:102560001F6F9E8C12000501E751E811D8A405D019
:10257000E7C57DF5E8C57EF506D0FF0EE7257D6F42
:10258000FF0EE8217E6FF1A109D079C56EF56F6B62
:1025900077C570F578C571F52AEC91F005017EAF2D
:1025A00004D0000E7E6F000E7D6F000E7C6F000E5B
:1025B0007B6F0DD0000E6F6F200E6E6F77C570F5BC
:1025C00078C571F52AEC91F005017B4B7C2B7D5190
:1025D0007B5D7C51800A7A6F7E51800A7A59D8A03F
:1025E000E9D7F1B1120079C56EF56F6B77C570F55B
:1025F00078C571F52AEC91F01200000E0501716F9B
:102600006FAF06D06E6D6F1FD8B06F2B010E716F5C
:102610006DAF06D06C6D6D1FD8B06D2B010E711BA8
:10262000000E736F000E726F6E516F11D8B41CD014
:10263000010E706F04D0D8906E376F37702B6FAF6C
:10264000FAD7D890723773376E516C5D6F516D59F0
:10265000D8A005D06E516C5F6F516D5B7281D890C0
:102660006F336E33702FEDD77151D8B404D0726DC3
:10267000731FD8B0732B72C56CF573C56DF512005E
:102680000501F1A10AD080C577F581C578F57EC531
:1026900079F57FC57AF5FAEC98F0050183BF05D08E
:1026A00082C587F583C588F504D0000E886F000EBB
:1026B000876F000E866F000E856F0DD0000E6F6F56
:1026C000200E6E6F7EC570F57FC571F52AEC91F016
:1026D0000501854B862B8751855D8651800A846F65
:1026E0008851800A8459D8A0E9D7F1B1120080C579
:1026F00077F581C578F57EC579F57FC57AF5FAEC71
:1027000098F01200000E0201A56F000EA66F000ED9
:10271000A76F000EA86F000EA96F000EAA6FB40E6F
:10272000AB6F800EAC6F000EAD6F110EAE6F040E6E
:10273000AF6F000EB06F000EB16F000EB26F000EE3
:10274000B36F000E05016C6F000E6D6F000E6E6FA3
:1027500089EC9EF0000E05016C6F000E6D6F000E8F
:102760006E6F82EC9EF0000E05016C6F000E6D6FB7
:10277000000E6E6F90EC9EF0000E226E1200000EA6
:102780000501716F6DAF06D06C6D6D1FD8B06D2BEC
:10279000010E716F6FAF04D06E6D6F1FD8B06F2BCD
:1027A0006E516F11D8B418D0010E706F04D0D8904C
:1027B0006E376F37702B6FAFFAD76E516C5D6F51FC
:1027C0006D59D8A004D06E516C5F6F516D5BD8907D
:1027D0006F336E33702FF1D77151D8B404D06C6D54
:1027E0006D1FD8B06D2B6CC56CF56DC56DF5120005
:1027F00005017569766922D06CC5D9F46DC5DAF426
:10280000DF507519746F6C4B6D2B9D0E7425F66E31
:10281000F76AF90EF722F86A000EF8220800F55060
:102820007619756F9D0E7425F66EF76AF80EF7220D
:10283000F86A000EF8220800F5C476F56E07D8A0F5
:102840006F076E29D9E16F29D8A4D6D77551706F5B
:102850007651726F70C573F572C56CF573C56DF501
:1028600012007DC56CF57EC56DF503EC97F0050192
:102870006C517F6F44EC9FF020EC9FF006C678F51A
:1028800007C679F5000E05017A6FD0EC95F0C19678
:10289000140E05017F6502D0140E7F6F06C677F512
:1028A00007C678F57DC579F57EC57AF57FC57BF5D8
:1028B000A7EC95F006C66CF507C66DF57FC56EF5FD
:1028C00005016F6B4BEC97F045EC9FF044EC9FF0EB
:1028D00012000501856F09D0400E05D0140E03D0FB
:1028E000540E01D0000E866F16D005018551836FFE
:1028F000846B8451000AD8A4F5D78351000AD8B458
:10290000F1D7010AD8B4E8D7030AD8B4E7D7010A47
:10291000D8B4E6D7E7D7450E5AEC98F005018651B2
:102920008025BFEC9CF044EC9FF081C57DF582C50D
:102930007EF531EC94F012006EC575F56FC576F535
:102940006CC573F56DC574F51DD075C5F6F476C507
:10295000F7F4000EF86E3F0EF76403D00800F55050
:1029600005D0F6C4E9F4F7C4EAF4EF500501726F3C
:10297000754B762B73C5D9F474C5DAF472C5DFF4E0
:10298000734B742B05017007D8A071077029DDE126
:102990007129D8B41200D9D705016E6F000E050158
:1029A0006D6F18EC9FF005016C6F040E6C19D8B4B4
:1029B00007D06E05D8B404D0040E6E19D8A417D071
:1029C0000101035105016E19F80B6E190101036F26
:1029D00006D001011DA903D0020E050109D002395C
:1029E000E832070B05016E19D8B403D0F2D7010EF7
:1029F0006D6F6D511200050120EE03F06C51D92668
:102A00006D51DA22DEC46EF5DDC46FF51F0E6E2542
:102A1000D96E080E6F21DA6EDF50706F20EE03F072
:102A20006C51D9266D51DA22DEC471F5DDC472F520
:102A30001E0E7125D96E080E7221DA6EDF50736F8B
:102A40007051756F73C576F575C56CF576C56DF506
:102A50001200D68A000ED6BE010E05016C6FD69EFE
:102A6000550E0401596FAA0E596F5991000E5F6FF0
:102A7000000E5E6F080E5D6F550E596FAA0E596FEE
:102A8000598105016CB102D0D69E01D0D68E0301CA
:102A90006385628D6A836A816F836F81658F7187B9
:102AA0006A896D8765871200000E0501726F000E3E
:102AB000716F6E516F11D8B41CD0010E706F04D0BD
:102AC000D8906E376F37702B6FAFFAD7D8907137B9
:102AD00072376E516C5D6F516D59D8A005D06E5133
:102AE0006C5F6F516D5B7181D8906F336E33702F57
:102AF000EDD771C56CF572C56DF51200E40E0801D5
:102B0000EC6F080EED6FE0C8EEF8E1C8EFF8000ECC
:102B1000F26F000EF16F000EF96F000EF86FEE0EFF
:102B20000501AE6F080EAF6FE2C8B0F5E3C8B1F5AE
:102B3000EC0EB26F080EB36F94EC96F00801F151F1
:102B4000E025D96EF251E121DA6EDF6A120005014B
:102B500020EE22F07751D9267851DA22200EDF605C
:102B6000120077C56CF578C56DF579C56EF57AC537
:102B70006FF57BC570F5716B9CEC94F0050120EE50
:102B800020F07751D9267851DA227BC5DFF420EE88
:102B900022F07751D9267851DA227BC5DFF4120072
:102BA000050120EE22F07851D9267951DA22DF6A28
:102BB00020EE20F07851D9267951DA22DF6A20EE12
:102BC00021F07851D9267951DA22DF6A7A51D8B4C6
:102BD000120078C56CF579C56DF5000E6F6F000EAB
:102BE0006E6F000E716F200E706F13EC8CF0120080
:102BF00077C56CF578C56DF579C56EF57AC56FF555
:102C0000F8EC93F06CC57BF56DC57CF50501795149
:102C10007725D96E7A517821DA6E7C51DF6E794B47
:102C20007A2B79517725D96E7A517821DA6E7BC566
:102C3000DFF4794B7A2B79C577F57AC578F51200F0
:102C40000101018F040ECCEC94F00009D8A412000D
:102C5000000E01014C6F380E4D6F000E4E6F000ECE
:102C60004F6F600E006F870E016F000E026FCBEC8E
:102C70009BF0FBEC9DF005EC9EF046EC9FF02DECFC
:102C80009DF068EC92F0000ECCEC94F01200000E77
:102C9000486E000E476ED8904734D96E4834DA6ECD
:102CA0000C0ED926060EDA22DE50DE10D8B40CD077
:102CB000D8904734D96E4834DA6E0C0ED926060EF9
:102CC000DA22DE06000EDD5A474A482A485005E15E
:102CD000040E475CD8B01200DED71200000E0001CF
:102CE000E86F2A0EF96F050EFA6F000EFB6F000EEB
:102CF000F16F810EF06F020EFD6F000EF86F010E86
:102D0000F76F000EEF6F010EEE6F190EFF6F000EE2
:102D1000FE6FB09AB098B09EB09CA09AA098A09E6A
:102D2000A09CC00EFC6F1200B0C5B4F5B1C5B5F5DE
:102D30000FD0AEC59BF5AFC59CF5B40E05019D6FD8
:102D4000050E9E6FB2C59FF5B3C5A0F551EC87F097
:102D5000B4C5F6F4B5C5F7F4000EF86E0800F550EA
:102D60000009D8A4E6D7000E0501AF6F000EAE6FC4
:102D7000120076C56CF577C56DF5000E05016F6F15
:102D80000A0E6E6F91EC97F06CC572F56DC573F518
:102D9000D9EC9AF072C5EFF573C5F0F576C56CF510
:102DA00077C56DF5000E05016F6F0A0E6E6F54EC5E
:102DB00095F06CC5EDF56DC5EEF51200000E030142
:102DC000376F000E386F040E396FC00E356F000E6E
:102DD000346FB698345135C36FF50501706B6FC50C
:102DE00070F56F6B6F11136E7051146EA688B60E6E
:102DF0006C6F3E0E6D6F010E6E6F9EEC9EF0010EBD
:102E00000301366F12006CC56EF56DC56FF503D00A
:102E100005016C4B6D2B6CC5F6F46DC5F7F4000E17
:102E2000F86E3F0EF76403D00800F55005D0F6C4E5
:102E3000E9F4F7C4EAF4EF500009D8A4E9D7050192
:102E40006E516C5D6C6F6F516D596D6F12000100AA
:102E5000000001000000010000000100000001006E
:102E60000000000000000000000000000000000062
:102E7000000000000000000000000000000000282A
:102E80006E756C6C290056312E303520464D383029
:052E9000205138340060
:102E96006CC570F56DC571F514D0010E0001826F19
:102EA60070C5D9F471C5DAF4DF50816FB1A0FED7D1
:102EB60070C5D9F471C5DAF480C0DFF40501704B32
:102EC600712B05016E07D8A06F076E29E6E16F2901
:102ED600D8B41200E2D729EC95F072EC9CF00BEC1A
:102EE6008FF07FEC90F0D1EC9DF06EEC96F00DEC4F
:102EF6009BF040EC9BF0B5EC9BF0F3EC9AF0DEEC2B
:102F060096F082EC93F0C9EC8FF027EC90F0B8ECD9
:102F16009DF020EC96F0BAEC9EF0120005016E5181
:102F26006F11D8B418D0010E706F04D0D8906E37D8
:102F36006F37702B6FAFFAD76E516C5D6F516D594D
:102F4600D8A004D06E516C5F6F516D5BD8906F3313
:102F56006E33702FF1D76CC56CF56DC56DF512002B
:102F6800FAC46AF5FBC46BF5B69813C568F514C5C1
:102F780069F5D2EC9CF00601B751B811B911D8B473
:102F88000CD001D80AD00500FA6EB751FD6EB851C1
:102F9800FE6EB951FF6EFA5012006BC5FBF46AC59C
:102FA800FAF411000501F351D8A41200000E6C6F59
:102FB800070E6D6F77C56EF578C56FF579517A6F25
:102FC8007B6BD8907A377B37D8907A377B377AC53E
:102FD80070F57BC571F59CEC94F0000E0501F26F5D
:102FE80079C5F3F5120027EC9EF00009D8B4120059
:102FF8002EEC9EF00701FD6FFC51FD5DD8A012007C
:10300800470E0501776F060E786F18EC98F001D817
:1030180012000500FA6E0701F951FD6EFA51FE6EB5
:10302800FB51FF6EFA501200C280D69E18C57BF580
:1030380077C56CF578C56DF5A00E05016E6F080EA5
:103048006F6F7B51796F7A6BD89079377A37D890D0
:1030580079377A3779C570F57AC571F59CEC94F0B3
:10306800000E186ED68EC29012000501746FC196BC
:10307800FE0EC5EC9DF0080E05016C6F000E6D6F1D
:10308800000E6E6F000E6F6F8AEC99F00501745197
:10309800C5EC9DF0200E05016C6F030E6D6F000EE0
:1030A8006E6F000E6F6F8AEC99F012000501746F55
:1030B800C196FE0EC5EC9DF0080E05016C6F000E62
:1030C8006D6F000E6E6F000E6F6F8AEC99F0050140
:1030D8007451C5EC9DF0080E05016C6F000E6D6F04
:1030E800000E6E6F000E6F6F8AEC99F012000501EA
:1030F800706F05017051D8B409D02AC66CF52BC67B
:103108006DF52CC66EF52DC66FF51200C0C52AF6F2
:10311800C1C52BF6C2C52CF6C3C52DF62AC66CF55B
:103128002BC66DF52CC66EF52DC66FF51200050180
:10313800706F05017051D8B409D00AC56CF50BC57C
:103148006DF50CC56EF50DC56FF51200C4C50AF511
:10315800C5C50BF5C6C50CF5C7C50DF50AC56CF593
:103168000BC56DF50CC56EF50DC56FF51200BFA644
:1031780002D0010E01D0000EFF0A3A6E3A463A46D6
:103188003A46BF503A18F70B3A18BF6EC1A802D09A
:10319800010E01D0000EFF0A3A6E3A3AC1503A18B1
:1031A800EF0B3A18C16EBF92010E016E120018ECB7
:1031B8009EF00009D8B41200035005017E6F045038
:1031C8007F6F034A042A190E7E5D790E7F59D8A0B5
:1031D80012007CC577F57DC578F5080E796FD6ECB9
:1031E80097F0000E046E000E036E1200000E05012B
:1031F8007D6F000E7C6F0CD07BC56EF56F6B79C54B
:1032080070F57AC571F52AEC91F005017C4B7D2BA0
:103218007C517725D96E7D517821DA6EDF507B6F2E
:103228007B51D8B41200E8D77DC56CF57EC56DF525
:103238007FC56EF580C56FF581C570F582C571F5DE
:103248009CEC94F07DC577F57EC578F581C579F558
:1032580082C57AF5F8EC95F077C57DF578C57EF5E9
:1032680012006CC571F56DC572F56EC573F56FC545
:1032780074F571C570F572C571F570C572F573C5D1
:1032880070F574C573F570C574F571C56CF572C5C4
:103298006DF573C56EF574C56FF5120005016C6F99
:1032A8002750D8B4FDD7A6B203D06CC5B6F210D05B
:1032B800A692400E2924D96EDA6A0A0EDA226CC563
:1032C800DFF4292A3F0E296402D0000E296E270652
:1032D800A682120005016C6F1F50D8B4FDD7ABB29F
:1032E80003D06CC5EFF210D0AB92000E2124D96E3A
:1032F800DA6A080EDA226CC5DFF4212A1F0E21646F
:1033080002D0000E216E1F06AB821200000E0501CE
:10331800706F000E716F000E726F000E736F0400F5
:10332800010E05017027000E71237223732370515B
:103338006C5D71516D5972516E5973516F59D8A0A6
:103348001200EDD7FAC42EF5FBC42FF5B19E060185
:10335800E751E811E911D8B40CD001D80AD005001A
:10336800FA6EE751FD6EE851FE6EE951FF6EFA50B4
:1033780012002FC5FBF42EC5FAF41100FAC434F577
:10338800FBC435F5AF940601D251D311D411D8B48A
:103398000CD001D80AD00500FA6ED251FD6ED35177
:1033A800FE6ED451FF6EFA50120035C5FBF434C5D9
:1033B800FAF41100FAC436F5FBC437F5AF960601E6
:1033C800CC51CD11CE11D8B40CD001D80AD00500FB
:1033D800FA6ECC51FD6ECD51FE6ECE51FF6EFA5095
:1033E800120037C5FBF436C5FAF41100FAC438F5F3
:1033F800FBC439F5B0900601CF51D011D111D8B422
:103408000CD001D80AD00500FA6ECF51FD6ED0510C
:10341800FE6ED151FF6EFA50120039C5FBF438C563
:10342800FAF41100FAC43BF5FBC43CF5B196060169
:10343800C951CA11CB11D8B40CD001D80AD0050093
:10344800FA6EC951FD6ECA51FE6ECB51FF6EFA502D
:1034580012003CC5FBF43BC5FAF41100FAC460F550
:10346800FBC461F5B9960601C651C711C811D8B495
:103478000CD001D80AD00500FA6EC651FD6EC751AE
:10348800FE6EC851FF6EFA50120061C5FBF460C5AC
:10349800FAF41100FAC466F5FBC467F5BD96060197
:1034A800BA51BB11BC11D8B40CD001D80AD0050050
:1034B800FA6EBA51FD6EBB51FE6EBC51FF6EFA50EA
:1034C800120067C5FBF466C5FAF41100FAC430F5BA
:1034D800FBC431F50601F051F111F211D8B40CD04A
:1034E80001D80AD00500FA6EF051FD6EF151FE6E5A
:1034F800F251FF6EFA50120031C5FBF430C5FAF4F0
:023508001100B0
:10350C00FAC432F5FBC433F50601F351F411F5118D
:10351C00D8B40CD001D80AD00500FA6EF351FD6E68
:10352C00F451FE6EF551FF6EFA50120033C5FBF4E8
:06353C0032C5FAF4110093
:10354400FAC462F5FBC463F50601EA51EB11EC1110
:10355400D8B40CD001D80AD00500FA6EEA51FD6E39
:10356400EB51FE6EEC51FF6EFA50120063C5FBF492
:0635740062C5FAF411002B
:10357C00FAC464F5FBC465F50601ED51EE11EF11CB
:10358C00D8B40CD001D80AD00500FA6EED51FD6EFE
:10359C00EE51FE6EEF51FF6EFA50120065C5FBF452
:1035AC0064C5FAF41100050173BF05D0735110E125
:1035BC007205D8B00DD072C574F573C575F5741F4E
:1035CC00751F744B752B74C572F575C573F51200A8
:1035DC0072C572F573C573F51200040E03013E6FCC
:1035EC00000E3D6F000E3F6F3D0E3B6F000E3A6FAD
:1035FC00BD96AD86B40E05016C6F3E0E6D6F010E5F
:10360C006E6F97EC9EF0800E03013C6F1200020E61
:10361C000301326F000E316F000E336F7C0E2F6F73
:10362C00000E2E6FB996A986AE0E05016C6F3E0E7C
:10363C006D6F010E6E6FA5EC9EF0C90E0301306F1D
:10364C001200200E05016C116E6F000E6D116F6F64
:10365C009F0E6E25706FFF0E6F21716F715106E119
:10366C001A0E705DD8B002D0010E01D0000E6C6F36
:10367C006D6B1200040E0301266F000E256F000EF9
:10368C00276F960E236F000E226FB196A186AC0E9B
:10369C0005016C6F3E0E6D6F010E6E6FACEC9EF003
:1036AC00030124691200030E06014B194C11D8A416
:1036BC0003D0010E096E05D0000E096E000E1A6EB5
:1036CC0012000150D8A403D0060E1A6E1200010E7F
:1036DC001A6E12009F0E05017025726FFF0E71217C
:1036EC00736F735109E11A0E725DD8B005D05F0E7D
:1036FC007015706F716B120070C570F571C571F536
:10370C0012000501706F6CC56EF56DC56FF5D89024
:10371C0005016E376F377051020D0C0EF324D96E04
:10372C00060EF420DA6E6EC5DEF46FC5DDF4120001
:10373C001E0E05016C6F3C0E6D6F010E6E6F9EECD4
:10374C009EF029EC9FF0540E05016C6F3B0E6D6FD3
:10375C00010E6E6F97EC9EF023EC9FF012004F0E53
:10376C0003011B6F980E196F000E186FB19EA18E7E
:10377C009C0E05016C6F3E0E6D6F010E6E6FB3ECFF
:10378C009EF0810E03011A6F1200070E0101046FE7
:10379C00070E056F1E0E066F000E076F030E086FE7
:1037AC00030E096F0E0E0A6F000E0B6F0F0E0D6FCE
:1037BC00020E0E6F1200400E276011D0400E28240E
:1037CC00D96EDA6A0A0EDA22DF500201B66F282AA5
:1037DC003F0E286402D0000E286E272A1200A692F3
:1037EC001200200E1F6011D0000E2024D96EDA6A50
:1037FC00080EDA22DF500201EF6F202A1F0E206420
:10380C0002D0000E206E1F2A1200AB921200010E85
:10381C000701E26FEDC215F5200E0501D025D96E1A
:10382C00DA6A080EDA2215C5DFF4D02B7F0ED065CC
:10383C001200000ED06F1200060149510501796F7C
:10384C00786B06014B5105017825766F06014C51BA
:10385C0005017921776FB9EC96F0050E1A6E1200FE
:10386C00060149510501796F786B06014B51050131
:10387C007825766F06014C5105017921776FB9ECEB
:10388C0096F0040E1A6E1200E20E0501B66F080EC9
:10389C00B76F000EAE6F000EAF6FE0C8B0F5E1C8A9
:1038AC00B1F5B60EB26F050EB36F94EC96F0120034
:1038BC0005016C516E03F3C470F5F4C471F56C51D1
:1038CC006F03F35071276D516E03F350712770C560
:1038DC006CF571C56DF51200000E0001606F000EE5
:1038EC00616F000E626F000E636F000E646F000E4E
:1038FC00656F650E666F000E676F000E686F1200C5
:10390C009F0E05016C256E6FFF0E6D216F6F6F5151
:10391C0006E11A0E6E5DD8B002D0010E01D0000E79
:10392C006C6F6D6B1200BF0E05016C256E6FFF0E78
:10393C006D216F6F6F5106E11A0E6E5DD8B002D01B
:10394C00010E01D0000E6C6F6D6B120005016E6FD5
:10395C0005016E51020D0C0EF324D96E060EF420E7
:10396C00DA6EDE50DE10D8A402D0010E1200000E6A
:10397C0012000501746FC19605017451C5EC9DF0E0
:10398C00080E05016C6F000E6D6F000E6E6F000E51
:10399C006F6F8AEC99F01200030136A509D03691AD
:1039AC00050169510301356F68C534F33681120086
:1039BC00050169510301356F68C534F3120000002D
:1039CC0000000000000000000000000010000000DB
:1039DC0000000000000000000000000000000000DB
:1039EC0000000601495105016D6F6C6B06014B51CE
:1039FC0005016C25EB6F06014C5105016D21EC6F37
:103A0C00070E1A6E12006CC5D6F56DC5D7F56EC5CE
:103A1C00D4F56FC5D5F5010E0501D827000ED923B5
:103A2C00DA23DB23D24BD32B1200BFA402D0010E1E
:103A3C0001D0000EFF0A2D6E2D462D46BF502D18BD
:103A4C00FB0B2D18BF6EBF92010E026E1200000E02
:103A5C0005016C6F6C51020D4C0EF324D96E050EE2
:103A6C00F420DA6EDF6A6C2B6C51D8A41200F2D7FA
:103A7C000501756FD0B41200C08405017551D8B41E
:103A8C001200000E746F020E736F35EC9EF0120074
:103A9C000501756FD0A4120005017551D8B406D07C
:103AAC00000E746F020E736F35EC9EF0C094120012
:103ABC0078C56CF579C56DF5000E05016F6F000EBC
:103ACC006E6F000E716F230E706F13EC8CF0120082
:103ADC00000E2624D96EDA6A0A0EDA22B4C2DFF49A
:103AEC00262A3F0E266402D0000E266E242A1200CF
:103AFC001C0E1E24D96EDA6A060EDA22EDC2DFF431
:103B0C001E2A070E1E6402D0000E1E6E1C2A120006
:103B1C0006014B514C11D8B402D0050E01D0070E42
:103B2C001A6E4BC611F54CC612F5120071C56CF528
:103B3C0072C56DF5000E87EC9BF0000EACEC9CF0A2
:103B4C000009D8A41200F9D7010E0501C027000EF8
:103B5C00C123C223C323010EC427000EC523C623D1
:103B6C00C7231200020E0001846F400E856F000EF9
:103B7C00866F000E8C6FC70E896FC89612000501F8
:103B8C006C6F010E0001826F6CC581F0B1A0FED785
:103B9C00000180511200200E0001AD6F000EAF6FBE
:103BAC00110EB36F050EB16F000EB06F1200000E48
:103BBC000501C06F000EC16F000EC26F000EC36F07
:103BCC001200000E0501C86F000EC96F000ECA6FFF
:103BDC00000ECB6F1200000E0501C46F000EC56FF6
:103BEC00000EC66F000EC76F1200900E01015C6FC5
:103BFC00040E5D6F600E5E6FE70E5F6F1200080EB5
:103C0C000101686F040E696F600E6A6FE70E6B6FCF
:103C1C001200010E0501C827000EC923CA23CB23AD
:103C2C00CC2B12000501F351D8A402D0010E1200C6
:103C3C00000E120005016D6F05016D5152EC99F0EB
:103C4C0012001850D8A402D0000E1200010E12005F
:103C5C00D69E18C56CF5D68E05016C51120073C535
:103C6C0071F574C572F59CEC9DF012006CC5EAF60A
:103C7C006DC5EBF66EC5ECF612006CC5EDF66DC5B8
:103C8C00EEF66EC5EFF612006CC5C0F66DC5C1F64A
:103C9C006EC5C2F612006CC5C3F66DC5C4F66EC512
:103CAC00C5F612006CC5BDF66DC5BEF66EC5BFF689
:103CBC0012006CC5F0F66DC5F1F66EC5F2F6120089
:103CCC006CC5F3F66DC5F4F66EC5F5F612006CC551
:103CDC00E1F66DC5E2F66EC5E3F612006CC5E4F6CE
:103CEC006DC5E5F66EC5E6F612006CC5DEF66DC563
:103CFC00DFF66EC5E0F612006CC5D8F66DC5D9F6C8
:103D0C006EC5DAF612006CC5DBF66DC5DCF66EC559
:103D1C00DDF612006CC5D5F66DC5D6F66EC5D7F6B8
:103D2C0012006CC5BAF66DC5BBF66EC5BCF61200BA
:103D3C006CC5B7F66DC5B8F66EC5B9F612006CC594
:103D4C00C6F66DC5C7F66EC5C8F612006CC5C9F6C9
:103D5C006DC5CAF66EC5CBF612006CC5E7F66DC51F
:103D6C00E8F66EC5E9F61200550E0001B46FAA0E06
:103D7C00B46FB48112006CC539F66DC53AF66EC5D8
:103D8C003BF612006CC53CF66DC53DF66EC53EF6B5
:103D9C0012006CC536F66DC537F66EC538F61200D6
:103DAC006CC53FF66DC540F66EC541F612006CC58C
:103DBC000EF56DC50FF56EC510F512006CC5E4F56A
:103DCC006DC5E5F56EC5E6F512006CC542F66DC520
:103DDC0043F66EC544F612006CC5CFF66DC5D0F631
:103DEC006EC5D1F612006CC5CCF66DC5CDF66EC5A0
:103DFC00CEF612006CC5D2F66DC5D3F66EC5D4F6F0
:103E0C001200000E0001E86FFC9DFC9B12003D6E41
:103E1C00B2A2FED73DC5A3F21200A00800074706C8
:103E2C00E5FFD9FF01010239E832070B1200030E3E
:103E3C001A6E120006010087120026EC9FF0120089
:103E4C0003013C8F12000301368112002FEC9FF00E
:103E5C0012000301308F120035EC9FF012000301A9
:103E6C00248F120003011A8F12006EEC9DF01200C9
:103E7C007EEC9DF01200000E1200020012001200E7
:103E8C001200120012001200120012001200120096
:023E9C00120012
:103EA0001100120012001200120012001200120083
:083EB0001200120012001200C2
:020000040020DA
:10000000FFFFFFFFFFFFFFFFFFFFFFFFFFFFFFFF00
:10001000FFFFFFFFFFFFFFFFFFFFFFFFFFFFFFFFF0
:10002000FFFFFFFFFFFFFFFFFFFFFFFFFFFFFFFFE0
:10003000FFFFFFFFFFFFFFFFFFFFFFFFFFFFFFFFD0
:020000040030CA
:10000000AFECFFDF9FFFFFFFFFFFFFFFFFFFFFFFE3
:10001000FFFFFFFFFFFFFFFFFFFFFFFFFFFFFFFFF0
:03002000FFFFFFE0
:00000001FF
