:0400000044EF00F0D9
:100008005282FACF0AF0FBCF0BF0D9CF0CF0DACF3F
:100018000DF0F2B8F2A203D0C3EC15F027D09DB8CA
:100028009EA809D001D822D005000001FA6EEF5130
:10003800FD6EF0510BD09DBA9EAA0DD001D816D0F6
:1000480005000001FA6EED51FD6EEE51FE6EF8509E
:10005800FF6EFA5012007DB27EA203D038EC14F085
:1000680005D09DB29EA202D0E2EC14F00DC0DAFFDA
:100078000CC0D9FF0BC0FBFF0AC0FAFF5292110057
:0400880014EF13F06E
:100600000041444320252E32662000286E756C6C14
:100610002900696E66006E616E0025730000000E91
:10062000836F41C084F042C085F043C086F044C06F
:1006300087F087AF14D0010E836F84C00EF085C0A1
:100640000FF086C010F087C011F050EC14F00EC00F
:1006500084F00FC085F010C086F011C087F0000E46
:10066000896F000E886FDBC073F0DCC074F08351BB
:10067000D8B40DD08351D8A404D0000E696F2B0ECE
:1006800003D0000E696F2D0E686F68C083F084C0C0
:100690000EF085C00FF086C010F087C011F0F9ECA5
:1006A0000FF00E040F10D8A42ED000018351D8B43F
:1006B00009D083C080F17307D8A07407000E896F3A
:1006C000010E886F800E88250E6E010E89210F6E37
:1006D000120E106E20EC14F0FD0E7327FF0E742323
:1006E0003FC020F040C021F0800E226E010E236E2C
:1006F00073C024F074C025F0DCEC12F020C03FF091
:1007000021C040F0120084C00EF085C00FF086C0FA
:1007100010F087C011F0F9EC0FF00E500F10D8A4B4
:1007200018D000018351D8B409D083C080F1730779
:10073000D8A07407000E896F010E886F800E88257F
:100740000E6E010E89210F6E160E106E20EC14F045
:10075000C3D7000E00018A6F000E8B6F800E8C6F66
:100760003F0E8D6F000E726F000E716F84C00EF021
:1007700085C00FF086C010F087C011F0000E126E19
:10078000000E136E000E146E000E156E5DEC12F06E
:10079000D8A00CD0BED075C08AF076C08BF077C0E0
:1007A0008CF078C08DF00001714B722B8AC00EF076
:1007B0008BC00FF08CC010F08DC011F0000E126EC7
:1007C000000E136E200E146E410E156E57EC07F0DE
:1007D0000EC075F00FC076F010C077F011C078F041
:1007E00000017551845D0E6E765185590F6E7751FB
:1007F0008659106E78518759116E3DEC13F011BE79
:10080000CAD7115010100F1004E1020E0E5CD8A0D0
:10081000C2D775C027F076C028F077C029F078C01D
:100820002AF084C02BF085C02CF086C02DF087C044
:100830002EF091EC0FF0D8A0AED700018A51845D64
:100840000E6E8B5185590F6E8C518659106E8D51DD
:100850008759116E3DEC13F011BE08D011501010E5
:100860000F1043E1020E0E5CD8B03FD08AC084F076
:100870008BC085F08CC086F08DC087F04AD08AC0CE
:100880000EF08BC00FF08CC010F08DC011F0000E78
:10089000126E000E136E200E146E410E156E73EC68
:1008A0000AF00EC08AF00FC08BF010C08CF011C09F
:1008B0008DF000017107D8A072078A51845D0E6E19
:1008C0008B5185590F6E8C518659106E8D518759F9
:1008D000116E3DEC13F011BEC9D7115010100F105E
:1008E00004E1020E0E5CD8A0C1D784C027F085C0F9
:1008F00028F086C029F087C02AF08AC02BF08BC070
:100900002CF08CC02DF08DC02EF091EC0FF0D8A003
:10091000B6D745C06BF06BC06CF047BE05D046C083
:1009200064F047C065F005D0000E0001656F060E4B
:10093000646F64C06FF065C070F000016F4B702B86
:10094000660E6C19D8A416D072AF0CD0000E8A6F48
:10095000000E8B6F800E8C6F3F0E8D6F000E726FCE
:10096000000E716F670E6B19D8B404D071516F27E8
:1009700072517023000E7A6F000E796F84C07BF085
:1009800085C07CF086C07DF087C07EF08AC075F09F
:100990008BC076F08CC077F08DC078F07BD07BC0B8
:1009A0000EF07CC00FF07DC010F07EC011F08AC048
:1009B00012F08BC013F08CC014F08DC015F073ECE6
:1009C0000AF00EC027F00FC028F010C029F011C0A7
:1009D0002AF0F0EC0CF027C07FF028C080F029C08E
:1009E00081F02AC082F07FC00EF080C00FF081C07D
:1009F00010F082C011F01AEC11F00EC06DF00FC0B3
:100A00006EF07BC037F07CC038F07DC039F07EC01E
:100A10003AF07FC012F080C013F081C014F082C0A1
:100A200015F08AC00EF08BC00FF08CC010F08DC096
:100A300011F057EC07F00EC03BF00FC03CF010C0B7
:100A40003DF011C03EF086EC13F037C07BF038C0AB
:100A50007CF039C07DF03AC07EF08AC00EF08BC0C9
:100A60000FF08CC010F08DC011F0000E126E000E51
:100A7000136E200E146E410E156E73EC0AF00EC04C
:100A80008AF00FC08BF010C08CF011C08DF0000107
:100A9000794B7A2B6F51795D7A51800A606F705172
:100AA000800A6059D8A07BD78AC00EF08BC00FF0A7
:100AB0008CC010F08DC011F0000E126E000E136E7F
:100AC000A00E146E400E156E57EC07F00EC07FF0AE
:100AD0000FC080F010C081F011C082F07BC027F001
:100AE0007CC028F07DC029F07EC02AF07FC02BF0AA
:100AF00080C02CF081C02DF082C02EF091EC0FF060
:100B0000D8B003D0000E000118D07BC00EF07CC01E
:100B10000FF07DC010F07EC011F07FC012F080C0D9
:100B200013F081C014F082C015F05DEC12F0D8A073
:100B30000BD000016DB108D0000E7F6F000E806FEA
:100B4000000E816F000E826F84C027F085C028F0F0
:100B500086C029F087C02AF07FC02BF080C02CF01F
:100B600081C02DF082C02EF0EDEC08F027C07BF0A4
:100B700028C07CF029C07DF02AC07EF07BC027F021
:100B80007CC028F07DC029F07EC02AF0000E126ED5
:100B9000000E136E200E146E410E156E75C00EF011
:100BA00076C00FF077C010F078C011F057EC07F066
:100BB0000EC02BF00FC02CF010C02DF011C02EF085
:100BC00091EC0FF0D8A024D00001714B722B75C0AE
:100BD0000EF076C00FF077C010F078C011F0000E64
:100BE000126E000E136E200E146E410E156E57EC31
:100BF00007F00EC075F00FC076F010C077F011C08E
:100C000078F0660E00016C19D8A402D06F4B702BDF
:100C100075C08AF076C08BF077C08CF078C08DF00C
:100C200071C062F072C063F0000E00016A6F000EC6
:100C3000676F000E666F000E7A6F000E796FCDD071
:100C40007BC00EF07CC00FF07DC010F07EC011F0B4
:100C50008AC012F08BC013F08CC014F08DC015F058
:100C600073EC0AF00EC027F00FC028F010C029F076
:100C700011C02AF0F0EC0CF027C07FF028C080F003
:100C800029C081F02AC082F07FC00EF080C00FF032
:100C900081C010F082C011F01AEC11F00FBE06D026
:100CA0000F5013E10A0E0E5CD8B00FD07FC00EF0CB
:100CB00080C00FF081C010F082C011F01AEC11F06A
:100CC0000EC06DF00FC06EF005D0000E00016E6F0B
:100CD000090E6D6F00016A51D8B463AF20D0800E49
:100CE0008825D96E010E8921DA6E2E0EDF6E884BB3
:100CF000892B7307D8A07407010E6A6F10D0800E7D
:100D00008825D96E010E8921DA6E300EDF6E884B90
:100D1000892B7307D8A074076607D8A067076651A8
:100D20006711D8A4ECD7800E8825D96E010E8921D1
:100D3000DA6E6D51300FDF6E884B892B7307D8A0A8
:100D400074077BC037F07CC038F07DC039F07EC0BE
:100D50003AF07FC012F080C013F081C014F082C05E
:100D600015F08AC00EF08BC00FF08CC010F08DC053
:100D700011F057EC07F00EC03BF00FC03CF010C074
:100D80003DF011C03EF086EC13F037C07BF038C068
:100D90007CF039C07DF03AC07EF08AC00EF08BC086
:100DA0000FF08CC010F08DC011F0000E126E000E0E
:100DB000136E200E146E410E156E73EC0AF00EC009
:100DC0008AF00FC08BF010C08CF011C08DF00001C4
:100DD0006207D8A06307794B7A2B6F51795D7A51FE
:100DE000800A606F7051800A6059D8B008D089BFFE
:100DF00027D7895104E14B0E885DD8A021D7000E7A
:100E00007A6F4F0E796F800E7925D96E010E7A2197
:100E1000DA6EDF6A800E606F010E616F8851605F6D
:100E20008951615B795160250E6E7A5161210F6E97
:100E3000800E106E010E116E88C012F089C013F082
:100E4000A9EC13F08851795D886F89517A59896FBF
:100E50008351D8B402D0010E01D0000E796F7A6BA5
:100E60008351D8B40BD08807D8A08907800E882575
:100E7000D96E010E8921DA6E83C0DFFF7951735F6D
:100E80007A51745B3FC020F040C021F0800E88256D
:100E9000226E010E8921236E73C024F074C025F0E8
:100EA000DCEC12F020C03FF021C040F012001150E5
:100EB000800B1A6E115011241C6E10BE1C801C5029
:100EC000D8B40DD01C28D8A408D0000E0E6E000E89
:100ED0000F6E000E106E000E116E108E08D0000EF8
:100EE0000E6E000E0F6E000E106E000E116E15507D
:100EF000800B1A1A155015241B6E14BE1B801B5034
:100F0000D8B40DD01B28D8A408D0000E126E000E45
:100F1000136E000E146E000E156E148E08D0000EA7
:100F2000126E000E136E000E146E000E156E1B5026
:100F3000D8B403D01C50D8A409D0000E0E6E000EF9
:100F40000F6E000E106E000E116E120014500E0285
:100F5000F3CF25F0F4CF26F025501D6E1E6A1F6AD0
:100F6000206A2650216E226A236A246A13500F02D7
:100F7000F3CF25F0F4CF26F025501D26000E1E22BB
:100F80001F22202226502126000E22222322242244
:100F900012501002F3CF25F0F4CF26F025501D2675
:100FA000000E1E221F22202226502126000E222261
:100FB000232224221FC020F01EC01FF01DC01EF0DF
:100FC0001D6A12500F02F3CF25F0F4CF26F0255002
:100FD0001D2626501E22000E1F22000E2022135016
:100FE0000E02F3CF25F0F4CF26F025501D26265013
:100FF0001E22000E1F22000E20221FC020F01EC045
:101000001FF01DC01EF01D6A12500E02F3CF25F016
:10101000F4CF26F025501D2626501E22000E1F223A
:10102000000E202214500F02F3CF25F0F4CF26F04B
:101030002550212626502222000E2322000E242293
:1010400013501002F3CF25F0F4CF26F025502126BF
:1010500026502222000E2322000E242214501002B9
:10106000F3CF25F0F4CF26F02550166E2650176EDC
:10107000186A196A18C019F017C018F016C017F0CE
:10108000166A165021261750222218502322195072
:10109000242220502126000E2222232224221FC097
:1010A00020F01EC01FF01DC01EF01D6A1B501CC08A
:1010B00016F0176A1626000E1722820E1624256EC9
:1010C000FF0E1720266E0FD0D890213622362336F9
:1010D000243620BE2180D8901D361E361F3620367D
:1010E0002506D8A0260623AEEFD7000E1B6E20AE35
:1010F00017D0FF0E1D14166EFF0E1E14176EFF0E76
:101100001F14186E7F0E2014196E16501710181029
:101110001910D8B403D0010E1B6E02D021B0FBD73A
:101120001B50D8B41FD0010E2126000E22222322EC
:10113000242224A017D021C016F022C017F023C00B
:1011400018F024C019F01934193218321732163237
:1011500016C021F017C022F018C023F019C024F0E7
:10116000254A262A26BE0DD0265003E12528D8A0E0
:1011700008D0000E216E000E226E800E236E7F0EB0
:1011800020D026BE05D026500EE12504D8B00BD0C5
:10119000000E216E000E226E000E236E000E246ED5
:1011A000000E1A6E0FD025C01CF0FF0E2116FF0E88
:1011B00022167F0E2316000E24161CB0238ED89004
:1011C0001C30246E1A50241221C00EF022C00FF0E1
:1011D00023C010F024C011F012002A50800B336E8F
:1011E0002A502A24356E29BE35803550D8B40DD00A
:1011F0003528D8A408D0000E276E000E286E000EE9
:10120000296E000E2A6E298E06D0000E276E000E63
:10121000286E000E296E000E2A6E2E50800B346E42
:1012200033503418D8A4338C2E502E24346E2DBE57
:1012300034803450D8B40DD03428D8A408D0000E4F
:101240002B6E000E2C6E000E2D6E000E2E6E2D8E4F
:1012500006D0000E2B6E000E2C6E000E2D6E000EB2
:101260002E6E3550345CD8B022D033AC02D0800E14
:10127000331A35C036F034C035F036C034F027C0EC
:1012800036F02BC027F036C02BF028C036F02CC02B
:1012900028F036C02CF029C036F02DC029F036C019
:1012A0002DF02AC036F02EC02AF036C02EF0000EE7
:1012B000366E355034C02FF0306A2F5E000E305A33
:1012C00030BE2CD0305004E11A0E2F5CD8A026D0AE
:1012D0002750281029102A10D8B402D0010E01D0AE
:1012E000000E366E000E276E000E286E000E296E60
:1012F000000E2A6E34C035F015D036A005D0D89037
:1013000036300109366E02D0D890363227B0368E8C
:101310002A342A32293228322732352A3450355C91
:10132000D8A0EBD733BC28D03550D8A409D0000EB4
:10133000276E000E286E000E296E000E2A6E120017
:101340002B5027262C5028222D5029222E502A227D
:101350002AA071D036A005D0D89036300109366E5B
:1013600002D0D890363227B0368E2A342A3229322B
:1013700028322732352A5FD02B50275C2C50285832
:101380002D5029582A50800A2F6E2E50800A2F582F
:10139000D8B025D027502B5C2F6E28502C58306E9B
:1013A00029502D58316E2A502E58326EFF0E2F24A0
:1013B000276EFF0E3020286EFF0E3120296EFF0EA3
:1013C00032202A6E800E331A366C3650D8A40FD0D5
:1013D000010E2726000E282229222A2208D02B506F
:1013E000275E2C50285A2D50295A2E502A5A275001
:1013F000281029102A10D8A41CD03650D8A419D0EF
:10140000000E276E000E286E000E296E000E2A6E4A
:101410001200D8902736283629362A3636BE27803D
:1014200036A002D0D88001D0D89036363550D8A416
:10143000350629AEEED7000E346E36AE0BD036C070
:101440002FF07F0E2F16D8B403D0010E346E02D0C9
:1014500027B0FBD73450D8B420D0010E2726000E79
:10146000282229222A222AA018D027C02FF028C0FB
:1014700030F029C031F02AC032F032343232313209
:1014800030322F322FC027F030C028F031C029F081
:1014900032C02AF03528D8A4352A3528D8B403D04C
:1014A0003550D8A40DD0000E276E000E286E000E09
:1014B000296E000E2A6E3550D8A402D0000E336E6D
:1014C00035A002D0298E01D0299ED89035302A6EC1
:1014D00033BE2A8E27C027F028C028F029C029F063
:1014E0002AC02AF012001150800B1E6E11501124D8
:1014F000256E10BE25802550D8B40DD02528D8A43F
:1015000008D0000E0E6E000E0F6E000E106E000E54
:10151000116E108E06D0000E0E6E000E0F6E000EB5
:10152000106E000E116E1550800B1E1A15501524EA
:10153000266E14BE26802650D8B40DD02628D8A4F6
:1015400008D0000E126E000E136E000E146E000E08
:10155000156E148E06D0000E126E000E136E000E65
:10156000146E000E156E1250131014101510D8A41E
:1015700017D0000E0E6E000E0F6E000E106E000ED5
:10158000116E800E10127F0E11121E5011120EC01D
:101590000EF00FC00FF010C010F011C011F01200CB
:1015A0002550D8A409D0000E0E6E000E0F6E000E4E
:1015B000106E000E116E1200265025C016F0176A2C
:1015C000165E000E175A7F0E16241F6E000E17208F
:1015D000206E0EC01AF00FC01BF010C01CF011C01E
:1015E0001DF0000E0E6E000E0F6E000E106E000E3F
:1015F000116E000E216E000E226E000E236E000E84
:10160000246E000E266E28D02650D8B411D0D89063
:101610001A361B361C361D36D8900E360F3610364D
:10162000113624BE0E80D890213622362336243639
:1016300012501A5C13501B5814501C5815501D584A
:10164000D8A009D0248C12501A5E13501B5A145083
:101650001C5A15501D5A262A190E2664D5D71A5021
:101660001B101C101D10D8B411D021800FD0D890A1
:101670000E360F361036113624BE0E80D890213625
:101680002236233624361F06D8A0200610AEEFD708
:10169000000E266E24AE17D0FF0E2114166EFF0E1C
:1016A0002214176EFF0E2314186E7F0E2414196E69
:1016B0001650171018101910D8B403D0010E266E4A
:1016C00002D00EB0FBD72650D8B41FD0010E0E2684
:1016D000000E0F221022112211A017D00EC016F0FA
:1016E0000FC017F010C018F011C019F019341932DA
:1016F00018321732163216C00EF017C00FF018C08D
:1017000010F019C011F01F4A202A20BE10D020501E
:1017100003E11F28D8A00BD0000E206E1F68000E1A
:101720000E6E000E0F6E000E106E000E116E20BEBB
:1017300005D0205011E11F04D8B00ED0000E206E4D
:10174000000E1F6E000E0E6E000E0F6E000E106E5D
:10175000000E116E000E1E6E1FC025F025A002D0D7
:10176000108E01D0109ED8902530116E0ED790515A
:10177000D96EDA6ADFCFF6FF060EF76E0800F55075
:10178000250AD8A412D19051D96EDA6ADF2A000E48
:10179000DC6F000EDB6FDBC04AF046684768905193
:1017A000D96EDA6ADFCFF6FF060EF76E0800F55045
:1017B0002E0AD8A40ED09051D96EDA6ADF2A90C0D2
:1017C00014F091C015F015EC12F014C046F015C0DD
:1017D00047F0000E0001986F9051D96EDA6ADFCFA2
:1017E000F6FF060EF76E0800F550730AD8A407D06E
:1017F0009051D96EDA6ADF2A010E986F32D090517B
:10180000D96EDA6ADFCFF6FF060EF76E0800F550E4
:101810006C0AD8A426D09051D96EDA6ADF50926F44
:10182000010E922792C0F6FF060EF76E0800F550E3
:101830006C0AD8A416D09051D96EDA6ADF50926F34
:10184000020E922792C0F6FF060EF76E0800F550C2
:10185000730AD8A406D09051D96EDA6A030EDF2637
:10186000CBD79851D8B417D08EC019F08FC01AF0CA
:101870009151D96EDA6A020EDF26DF5CD96EDA6A20
:10188000DECF1BF0DECF1CF025EC0FF019C08EF080
:101890001AC08FF012009051D96EDA6ADF509A6F39
:1018A0009AC0F6FF060EF76E0800F5CF99F007D044
:1018B0009A2B17D06C0E01D0000E996F12D099514F
:1018C000926F936B9351000AD8A4F6D792514C0AA9
:1018D000D8B4EED72A0AD8B4EDD70A0AD8B4E8D7D4
:1018E000EBD79AC0F6FF060EF76E0800F550660AB1
:1018F000D8B414D051D09151D96EDA6ADFCF92F0BA
:10190000040EDF269251D96EDA6ADECF94F0DECF74
:1019100095F0DECF96F0DECF97F00ED09951926F12
:10192000936B9351000AD8A407D092514C0AD8B4B3
:10193000E2D7200AD8B4DFD79051D96EDA6A9A2953
:10194000DF6E1AD08EC03FF08FC040F094C041F0DF
:1019500095C042F096C043F097C044F09AC0F6FF9D
:10196000060EF76E0800F5CF45F00FEC03F03FC010
:101970008EF040C08FF012009AC0F6FF060EF76E90
:101980000800F550926F936B9351000AD8A404D0CD
:101990009251660AD8B4D6D79051D96EDA6ADF2A46
:1019A000000E8F6F000E8E6F12009051D96EDA6AA2
:1019B000DFCFF6FF060EF76E0800F550106E116AC5
:1019C0008EC012F08FC013F077EC11F0000190512F
:1019D000D96EDA6ADF2A000E8F6F010E8E6F120049
:1019E000CDC037F0CEC038F0CFC039F0D0C03AF01B
:1019F00027C037F028C038F029C039F02AC03AF0A3
:101A0000810E2B6EFF0E2C6E37C02DF038C02EF0DD
:101A100039C02FF03AC030F0180E05D0D8903032CF
:101A20002F322E322D32E82EF9D72D502B24356E41
:101A3000000E2C20366E36BE0FD0365004E1170E45
:101A4000355CD8A009D027C027F028C028F029C0CD
:101A500029F02AC02AF0120036BE5BD035C02BF028
:101A6000FF0E2C6EFF0E2D6E7F0E2E6E000E2F6E53
:101A70002B6601D007D02F342F322E322D322C324C
:101A80002B2EF6D72CC031F02DC032F02EC033F003
:101A90002FC034F0315037142B6E325038142C6E66
:101AA000335039142D6E34503A142E6E2B502C10A6
:101AB0002D102E10D8B4C7D737C02BF038C02CF05B
:101AC00039C02DF03AC02EF0200E05D0D8902E321D
:101AD0002D322C322B32E82EF9D72B50D8B408D027
:101AE00031503726325038223350392234503A227E
:101AF000311C2B6E321C2C6E331C2D6E341C2E6E42
:101B00002B5037162C5038162D5039162E503A16A9
:101B100032D037C02BF038C02CF039C02DF03AC08D
:101B20002EF0200E05D0D8902E322D322C322B32B2
:101B3000E82EF9D72B6608D0000E376E000E386EEF
:101B4000000E396E000E16D0D89037342B6E383414
:101B50002C6E39342D6E3A342E6E2B502C102D10E5
:101B60002E10D8B408D0000E376E000E386E800EDE
:101B7000396EBF0E3A6E37C027F038C028F039C032
:101B800029F03AC02AF01200000E0001C56F000EC5
:101B9000C66F000EC76F000EC86FCFEC14F0F28E48
:101BA000F28CF28CBE0E0E6E200E0F6E9BEC15F0BA
:101BB000C7EC15F093849386040E456F030E436FB4
:101BC0000C0E441344519F0B4009446F4489448FC9
:101BD0004585458F45834591000E4FEC15F000017A
:101BE000F551D8B4FCD7DFC00EF0E0C00FF0106A9A
:101BF000116A000E85EC0EF00EC0C9F00FC0CAF0DD
:101C000010C0CBF011C0CCF0000E0001F56FC9C0C0
:101C100027F0CAC028F0CBC029F0CCC02AF0000EB3
:101C20002B6E000E2C6E2C0E2D6EC50E2E6EEDEC56
:101C300008F027C0C5F028C0C6F029C0C7F02AC0E8
:101C4000C8F0000E0001BD6F000EBE6F000EBF6F2A
:101C5000440EC06FBDC00EF0BEC00FF0BFC010F08C
:101C6000C0C011F0000E126E000E136E800E146EC6
:101C7000400E156E73EC0AF00EC0C1F00FC0C2F03A
:101C800010C0C3F011C0C4F0C1C012F0C2C013F044
:101C9000C3C014F0C4C015F0C5C00EF0C6C00FF02C
:101CA000C7C010F0C8C011F073EC0AF00EC027F0E6
:101CB0000FC028F010C029F011C02AF0000E2B6EC2
:101CC000000E2C6E800E2D6E3F0E2E6EEDEC08F089
:101CD000000E0001A06F030EA16F000EA36FA2699A
:101CE000010EA46FC9C0A5F0CAC0A6F0CBC0A7F072
:101CF000CCC0A8F0BDEC10F01A0EA06F000EA16FC2
:101D0000030EA26F42EC15F06AD7166E1650D8A4D7
:101D100011AE1AD00EC012F00FC013F010C014F0A4
:101D200011C015F0121E131E141E151E122A000ECD
:101D300013221422152212C018F013C019F014C077
:101D40001AF015C01BF008D00EC018F00FC019F023
:101D500010C01AF011C01BF00E500F10101011100F
:101D6000D8A409D0000E0E6E000E0F6E000E106E7D
:101D7000000E116E1200960E176E06D0172AD8901C
:101D80001B321A3219321832000E1814126E000E5D
:101D90001914136E000E1A14146EFE0E1B14156E19
:101DA0001250131014101510D8B40DD0E7D7172AFD
:101DB000010E1826000E19221A221B22D8901B325F
:101DC0001A3219321832000E1814126E000E19143D
:101DD000136E000E1A14146EFF0E1B14156E1250A3
:101DE000131014101510D8B407D0E1D71706D890E7
:101DF000183619361A361B361ABE03D0020E176073
:101E0000F5D717A01A9ED890173217C012F0136A90
:101E1000146A156A12C015F0146A136A126A125015
:101E200018121350191214501A1215501B12165072
:101E3000D8A411AE01D01B8E18C00EF019C00FF03F
:101E40001AC010F01BC011F012001BC021F01CC002
:101E500022F021502210D8A406D00B0E216E215062
:101E6000D8A4060E226E000E246E000E236E02D041
:101E7000234A242A235021241D6E245022201E6E22
:101E80001DC0F6FF1EC0F7FFF86A050EF76403D009
:101E90000800F55005D0F6CFE1FFF7CFE2FFE7509D
:101EA0000009D8A4E5D747BE0ED02350465C475062
:101EB000800A1D6E2450800A1D58D8B004D046C038
:101EC00023F047C024F023C01FF024C020F01CD012
:101ED00021C0F6FF22C0F7FFF86A050EF76403D0B1
:101EE0000800F55005D0F6CFE1FFF7CFE2FFE7504D
:101EF0001D6E1D50106E116A19C012F01AC013F039
:101F000077EC11F0214A222A1F06D8A020061F28AC
:101F1000DFE12028D8A4DCD723C019F024C01AF0B0
:101F20001200000E27142F6E000E2814306E800E43
:101F30002914316E7F0E2A14326E2F50301031105A
:101F40003210D8A408D0000E276E000E286E000EA6
:101F5000296E000E2A6E000E2B142F6E000E2C140C
:101F6000306E800E2D14316E7F0E2E14326E2F5077
:101F7000301031103210D8A408D0000E2B6E000E95
:101F80002C6E000E2D6E000E2E6E2AAE09D0276C20
:101F9000281ED8B0282A291ED8B0292A800E2A56F1
:101FA0002EAE09D02B6C2C1ED8B02C2A2D1ED8B0EA
:101FB0002D2A800E2E56000E271A000E281A000E0B
:101FC000291A800E2A1A000E2B1A000E2C1A000E47
:101FD0002D1A800E2E1A2B50275C2C5028582D506D
:101FE00029582E502A58D8B002D0D8901200D88044
:101FF0001200D1C018F0D2C019F0D3C01AF0D4C06A
:102000001BF00EC018F00FC019F010C01AF011C06C
:102010001BF018C012F019C013F01AC014F01BC046
:1020200015F0180E05D0D890153214321332123232
:10203000E82EF9D71250166E176A16501710D8A44A
:1020400019D0D8901834126E1934136E1A34146ED5
:102050001B34156E1250131014101510D8A405D08F
:10206000000E0F6E020E0E6E1200000E0F6E030EAB
:102070000E6E120016281710D8A41CD018C012F02B
:1020800019C013F01AC014F01BC015F0090ED89037
:102090001236133614361536E82EF9D712501310AF
:1020A00014101510D8A402D0010E01D0000E0E6E2F
:1020B0000F6A1200000E0F6E040E0E6E1200000E5C
:1020C000066E000E076E000E086E000E096E8B94F1
:1020D0000F01459F030E436F458F4583640E016ECC
:1020E000000E026E000E036E000E046ECBEC13F0B9
:1020F0000F0145934491449345878B8411D0010E81
:102100000626000E0722082209220950081006E1BF
:10211000E90E065C030E0758D8A002D08B9412007B
:10212000A4A6EDD78B94A496D0EC15F00F01459F93
:10213000000E436FA39645974491449390EC15F09D
:102140000009D8B4FBD70001F551D8A406D070EC33
:1021500015F001C0DFF002C0E0F08BA202D0010E4A
:1021600001D0000EFF0A056E05468B500518FD0BC9
:1021700005188B6E010EF56F1200800EA35DD8A0BE
:1021800005D0000EDE6F4B0EDD6F1200A50EB06F96
:10219000A0C0B1F0A1C0B2F0A35104E1020EA25D53
:1021A000D8A00AD0FF0EA225BB6FFF0EA321BC6FE3
:1021B000000EB56F000E07D0000EBC6F010EBB6F96
:1021C000000EB56F010EB46FB10E9B6F9C6BA4C077
:1021D0009DF0B00E9E6F62EC13F09BC0AEF09CC001
:1021E000AFF0A251A311D8B41200AFBF1200FF0E7E
:1021F000A225A96FFF0EA321AA6FA951AE5DAF5111
:10220000800AAB6FAA51800AAB59D8A007D0FF0E45
:10221000A225AC6FFF0EA321AD6F04D0AEC0ACF011
:10222000AFC0ADF0AC51A025D96EAD51A121DA6E91
:10223000DF6A120010341134176E1750D8A409D079
:10224000000E0E6E000E0F6E000E106E000E116E60
:1022500012000EC012F00FC013F010C014F011C025
:1022600015F0200E05D0D8901532143213321232E8
:10227000E82EF9D71250166E108EFF0E0E16FF0EB6
:102280000F16FF0E1016000E1116960E175E17AEE3
:102290000DD01750800A970FD8A0D2D7D8901132FE
:1022A00010320F320E32173EF9D70DD01F0E1764C1
:1022B00007D0C6D7D8900E360F361036113617060F
:1022C0001750D8A4F7D71650D8B408D0111E101E36
:1022D0000F1E0E6C000E0F22102211220EC00EF0E7
:1022E0000FC00FF010C010F011C011F0120012500A
:1022F0001310D8B404D012501310D8A404D0105026
:1023000096EC15F0120020EE0AF01250D926135068
:10231000DA22DE50DE10D8B416D020EE0AF01250C9
:10232000D9261350DA2210EE03F01250E126135092
:10233000E222DE50E65CE650800A186EDE50800A2B
:102340001858D8B0120020EE03F01250D9261350BE
:10235000DA22DECF14F0DDCF15F012C0D9FF13C0A2
:10236000DAFFDECF16F0DDCF17F014501624D96E49
:1023700015501720DA6E10C0DFFF20EE03F0125068
:10238000D9261350DA22DE2A000EDD221200000EBA
:102390004E24D96EDA6A010EDA22DF6AABA415D0B8
:1023A000000E4E24D96EDA6A010EDA220101DF82B4
:1023B00001D80BD005000001FA6EEB51FD6EEC5117
:1023C000FE6EF850FF6EFA501200ABA215D0000E50
:1023D0004E24D96EDA6A010EDA220101DF8401D8B7
:1023E0000BD005000001FA6EE951FD6EEA51FE6E58
:1023F000F850FF6EFA501200000E4E24D96EDA6AC1
:10240000010EDA22DF50D8B40DD001D81200050039
:102410000001FA6EE751FD6EE851FE6EF850FF6E56
:10242000FA50120014EC15F01200000E186E000E97
:10243000176E1450D96EDA6ADFCFF6FF060EF76E0C
:102440000800F5502A0AD8A425D01450D96EDA6AAB
:10245000DF2A1550D96EDA6A020EDF26DF5CD96EEC
:10246000DA6ADECF17F0DECF18F022D017C00EF0F8
:1024700018C00FF0000E116E0A0E106EBCEC14F0B6
:1024800016500E24176E000E0F20186E1450D96EC1
:10249000DA6ADF2A1450D96EDA6ADFCFF6FF060E49
:1024A000F76E0800F550D00F166E090E1664DED7D1
:1024B00017C014F018C015F01200000E0E14166E9E
:1024C000000E0F14176E800E1014186E7F0E11146C
:1024D000196E1650171018101910D8A408D0000E35
:1024E0000E6E000E0F6E000E106E000E116E000EBE
:1024F0001214166E000E1314176E800E1414186E3C
:102500007F0E1514196E1650171018101910D8A434
:1025100008D0000E126E000E136E000E146E000E28
:10252000156E12500E180AE113500F1807E11450DF
:10253000101804E115501118D8B402D0D890120028
:10254000D88012009D9A8E0E0E6E230E0F6EAFEC89
:1025500015F09D984E0E0E6E290E0F6EAAEC15F01A
:10256000080EB86E900EAB6E240EAC6E8A0EAF6E77
:10257000000EB06EAA0E0E6E2B0E0F6EB9EC15F09B
:10258000940E0E6E2B0E0F6EB4EC15F09A0E0E6EAE
:102590002B0E0F6EBEEC15F0000E4B6E000E516E42
:1025A000000E506E400E4F6E000E4E6E000E4D6EC1
:1025B000000E4C6E9D8A120025AE04D0000E256ED2
:1025C000000E246E000E286E000E276E0CD0000E3A
:1025D000116E200E106E20C012F021C013F077ECA7
:1025E00011F0274A282A2450275C2850800A266E9A
:1025F0002550800A2658D8A0EAD722C019F023C057
:102600001AF020C01BF021C01CF0E9EC13F022C02E
:102610000EF023C00FF07DEC14F024500E24206E39
:1026200025500F20216E120003EE00F010EEFFF097
:10263000EE6AE550E150FCE1E250FAE102EE00F012
:10264000400EEE6AE806FDE101EE00F0D00EEE6A03
:10265000E806FDE100EECDF0290EEE6AE806FDE1A8
:1026600000EE46F00C0EEE6AE806FDE15290529242
:10267000000EF86E0001C4EF0DF011BE09D00EC0BF
:102680000EF00FC00FF010C010F011C011F01200CA
:102690000EC012F00FC013F010C014F011C015F0EE
:1026A000121E131E141E151E122A000E13221422AF
:1026B000152212C00EF013C00FF014C010F015C098
:1026C00011F012009DC09FF0000EDA6F000ED96F5E
:1026D0000FD09BC08EF09CC08FF09F0E906F9EC05D
:1026E00091F0B7EC0BF000018E51D9278F51DA230E
:1026F0009FC0F6FF060EF76E0800F5500009D8A43B
:10270000E8D7D9C09BF0DAC09CF01200000E3B1A4B
:10271000000E3C1A000E3D1A800E3E1A37C027F0FC
:1027200038C028F039C029F03AC02AF03BC02BF05D
:102730003CC02CF03DC02DF03EC02EF0EDEC08F07A
:1027400027C037F028C038F029C039F02AC03AF045
:10275000120010C017F011C018F00EC015F00FC015
:1027600016F010D017C0D9FF18C0DAFFDF50146E72
:10277000174A182A15C0D9FF16C0DAFF14C0DFFFA8
:10278000154A162A1206D8A013061228EBE11328C0
:10279000D8B41200E7D7000E0001D56F000ED66F37
:1027A000000ED76F000ED86F09D000000400010E94
:1027B0000001D527000ED623D723D823D551015C9D
:1027C000D6510258D7510358D8510458D8A01200F6
:1027D000ECD7000E1F6E000E1E6E0BD01DC010F049
:1027E000116A1BC012F01CC013F077EC11F01E4AE6
:1027F0001F2A1E501924D96E1F501A20DA6EDF507E
:102800001D6E1D50D8B41200E9D70E6E4F50D8B4CB
:10281000FDD79DB803D00EC0ADFF10D09D98400EDF
:102820005124D96EDA6A010EDA220EC0DFFF512A76
:102830003F0E516402D0000E516E4F069D8812006B
:102840000EC012F00FC013F0102A1004116E11C048
:10285000F6FF060EF76E12C0D9FF13C0DAFF124A58
:10286000132A0800F5CFDFFFDF50D8B41200ECD7F1
:102870007E92E5C001F0E6C002F033EC15F00001F5
:10288000E14BE22BE25104E1140EE15DD8A012000D
:1028900004EC15F0000E0001E26F000EE16F120073
:1028A0000E500F1010101110D8B408D0000E0E1AD0
:1028B000000E0F1A000E101A800E111A0EC00EF024
:1028C0000FC00FF010C010F011C011F01200000E78
:1028D0004D6F3C0E506FB00E4F6F4FCFE5F050CFA5
:1028E000E6F07E927D82A40E0E6E2B0E0F6E9BEC98
:1028F00015F0310E0F014E6F12000EC010F00FC018
:1029000011F002D00E4A0F2A0EC0D9FF0FC0DAFF15
:10291000DF50D8A4F7D710500E5C0E6E11500F5830
:102920000F6E1200000E896E000E8A6E000E8B6E06
:1029300092689368B10E946E300E0F013A6F320EAA
:10294000396F2F0E386F000E616EF18E1200400E3F
:102950004F6010D0400E5024D96EDA6A010EDA2290
:10296000DF50AD6E502A3F0E506402D0000E506E04
:102970004F2A12009D9812000E501002F3CF12F051
:10298000F4CF13F00E501102F35013260F50100223
:10299000F350132612C00EF013C00FF012008AEC91
:1029A00015F092EC14F07AEC15F05BEC15F083EC7A
:1029B00015F024EC15F067EC14F066EC15F0A2ECC1
:1029C00012F012009E9248504910D8B4120001D85B
:1029D00012000500FA6E4850FD6E4950FE6EF85028
:1029E000FF6EFA5012000001F151F211D8B412003A
:1029F00001D812000500FA6EF151FD6EF251FE6E23
:102A0000F850FF6EFA501200E351E411D8B41200EE
:102A100001D812000500FA6EE351FD6EE451FE6E1E
:102A2000F850FF6EFA501200000E4E24D96EDA6A8A
:102A3000020EDA22AECFDFFF4E2A3F0E4E6402D0E6
:102A4000000E4E6E4C2A12003E0EBB6E000EBC6E87
:102A50009E929D82A60E0E6E2B0E0F6EA0EC15F0B0
:102A60007E0EBA6E12000F014EA507D04E9102C025
:102A700050FF01C04FFF4E81120002C050FF01C045
:102A80004FFF1200A10EA36F000E9B6F000E9C6FF4
:102A9000A0C09DF0A30E9E6F62EC13F012000F6EAB
:102AA0000FC00EF00E460E46C2500E18830B0E18C5
:102AB000C26EC2801200000EC16E360EC06E000ED5
:102AC000C36E000EC46E010EC26E1200F292F19C33
:102AD000A80E0E6E2B0E0F6EA5EC15F0F2881200EC
:102AE000C450046E036AC3500324016E000E042018
:102AF000026E1200700ED36E040ED26E400E9B6EEC
:102B0000D2BE1200FDD7000E546F000E556F000E9E
:102B1000566F1200D08E9F889F8A7F829F821200FC
:102B2000C2B202D0010E1200000E12000F6E0F5042
:102B300005EC14F012000EC0E3F00FC0E4F0120038
:102B40000EC048F00FC049F012000EC0F1F00FC0E7
:102B5000F2F012000EC0EFF00FC0F0F012000EC045
:102B6000EDF00FC0EEF012000EC0E9F00FC0EAF079
:102B700012000EC0EBF00FC0ECF012000EC0E7F038
:102B80000FC0E8F01200F292F3EC14F012000F0103
:102B90004E811200AB98AB88120014EC15F01200B5
:0C2BA000C282120012001200120012008B
:020000040030CA
:0E000000FF281F3CFFBF85FF0FC00FE00F4021
:00000001FF
