:0400000044EF00F0D9
:100008005282FACF0AF0FBCF0BF0D9CF0CF0DACF3F
:100018000DF0F2B8F2A203D05CEC15F027D09DB831
:100028009EA809D001D822D005000001FA6EED5132
:10003800FD6EEE510BD09DBA9EAA0DD001D816D0F8
:1000480005000001FA6EEB51FD6EEC51FE6EF850A2
:10005800FF6EFA5012007DB27EA203D0F5EC13F0C9
:1000680005D09DB29EA202D086EC14F00DC0DAFF36
:100078000CC0D9FF0BC0FBFF0AC0FAFF5292110057
:04008800D5EF12F0AE
:100600000041444320252E32662000286E756C6C14
:100610002900696E66006E616E0025730000836BB1
:1006200040C084F041C085F042C086F043C087F0EE
:1006300087AF14D0010E836F84C00EF085C00FF019
:1006400086C010F087C011F00DEC14F00EC084F0DD
:100650000FC085F010C086F011C087F0000E896FC2
:10066000000E886FD7C073F0D8C074F08351D8B42F
:100670000DD08351D8A404D0000E696F2B0E03D087
:10068000000E696F2D0E686F68C083F084C00EF095
:1006900085C00FF086C010F087C011F0D0EC0FF0CD
:1006A0000E040F10D8A42CD000018351D8B409D067
:1006B00083C080F17307D8A07407000E896F010E04
:1006C000886F800E88250E6E010E89210F6E120E26
:1006D000106EDDEC13F0FD0E7327FF0E74233FC088
:1006E0001EF0800E1F6E010E206E73C021F074C0CC
:1006F00022F06EEC12F01EC03FF01FC040F012005E
:1007000084C00EF085C00FF086C010F087C011F0D5
:10071000D0EC0FF00E500F10D8A418D00001835168
:10072000D8B409D083C080F17307D8A07407000E35
:10073000896F010E886F800E88250E6E010E89214B
:100740000F6E160E106EDDEC13F0C5D7000E000113
:100750008A6F000E8B6F800E8C6F3F0E8D6F000EB8
:10076000726F000E716F84C00EF085C00FF086C0EE
:1007700010F087C011F0000E126E000E136E000E06
:10078000146E000E156E29EC12F0D8A00CD0BED05D
:1007900075C08AF076C08BF077C08CF078C08DF091
:1007A0000001714B722B8AC00EF08BC00FF08CC011
:1007B00010F08DC011F0000E126E000E136E200EA0
:1007C000146E410E156E50EC07F00EC075F00FC0A0
:1007D00076F010C077F011C078F000017551845D9B
:1007E0000E6E765185590F6E77518659106E78517D
:1007F0008759116EFEEC12F011BECAD711501010BD
:100800000F1004E1020E0E5CD8A0C2D775C027F00D
:1008100076C028F077C029F078C02AF084C02BF089
:1008200085C02CF086C02DF087C02EF068EC0FF04C
:10083000D8A0AED700018A51845D0E6E8B518559C8
:100840000F6E8C518659106E8D518759116EFEECCA
:1008500012F011BE08D0115010100F1043E1020E1B
:100860000E5CD8B03FD08AC084F08BC085F08CC0BD
:1008700086F08DC087F04AD08AC00EF08BC00FF092
:100880008CC010F08DC011F0000E126E000E136EB1
:10089000200E146E410E156E68EC0AF00EC08AF040
:1008A0000FC08BF010C08CF011C08DF000017107EB
:1008B000D8A072078A51845D0E6E8B5185590F6ED8
:1008C0008C518659106E8D518759116EFEEC12F0C5
:1008D00011BEC9D7115010100F1004E1020E0E5CAA
:1008E000D8A0C1D784C027F085C028F086C029F0E1
:1008F00087C02AF08AC02BF08BC02CF08CC02DF062
:100900008DC02EF068EC0FF0D8A0B6D744C06BF0C5
:100910006BC06CF00001DABF05D0D9C064F0DAC05A
:1009200065F004D0000E656F060E646F64C06FF052
:1009300065C070F06F4B702B660E6C19D8A416D082
:1009400072AF0CD0000E8A6F000E8B6F800E8C6F12
:100950003F0E8D6F000E726F000E716F670E6B1978
:10096000D8B404D071516F2772517023000E7A6F82
:10097000000E796F84C07BF085C07CF086C07DF06E
:1009800087C07EF08AC075F08BC076F08CC077F09F
:100990008DC078F07BD07BC00EF07CC00FF07DC0A6
:1009A00010F07EC011F08AC012F08BC013F08CC022
:1009B00014F08DC015F068EC0AF00EC027F00FC0DF
:1009C00028F010C029F011C02AF0C9EC0CF027C0A3
:1009D0007FF028C080F029C081F02AC082F07FC05B
:1009E0000EF080C00FF081C010F082C011F036EC24
:1009F00010F00EC06DF00FC06EF07BC037F07CC001
:100A000038F07DC039F07EC03AF07FC012F080C06F
:100A100013F081C014F082C015F08AC00EF08BC0B4
:100A20000FF08CC010F08DC011F050EC07F00EC02C
:100A30003BF00FC03CF010C03DF011C03EF046EC62
:100A400013F037C07BF038C07CF039C07DF03AC07D
:100A50007EF08AC00EF08BC00FF08CC010F08DC0FD
:100A600011F0000E126E000E136E200E146E410E69
:100A7000156E68EC0AF00EC08AF00FC08BF010C043
:100A80008CF011C08DF00001794B7A2B6F51795D9C
:100A90007A51800A606F7051800A6059D8A07BD764
:100AA0008AC00EF08BC00FF08CC010F08DC011F01A
:100AB000000E126E000E136EA00E146E400E156E18
:100AC00050EC07F00EC07FF00FC080F010C081F036
:100AD00011C082F07BC027F07CC028F07DC029F0D7
:100AE0007EC02AF07FC02BF080C02CF081C02DF09A
:100AF00082C02EF068EC0FF0D8B003D0000E0001D9
:100B000018D07BC00EF07CC00FF07DC010F07EC00E
:100B100011F07FC012F080C013F081C014F082C0C9
:100B200015F029EC12F0D8A00BD000016DB108D05F
:100B3000000E7F6F000E806F000E816F000E826FBF
:100B400084C027F085C028F086C029F087C02AF02D
:100B50007FC02BF080C02CF081C02DF082C02EF021
:100B6000E4EC08F027C07BF028C07CF029C07DF0C1
:100B70002AC07EF07BC027F07CC028F07DC029F021
:100B80007EC02AF0000E126E000E136E200E146E40
:100B9000410E156E75C00EF076C00FF077C010F0E4
:100BA00078C011F050EC07F00EC02BF00FC02CF005
:100BB00010C02DF011C02EF068EC0FF0D8A024D09A
:100BC0000001714B722B75C00EF076C00FF077C02C
:100BD00010F078C011F0000E126E000E136E200E91
:100BE000146E410E156E50EC07F00EC075F00FC07C
:100BF00076F010C077F011C078F0660E00016C1925
:100C0000D8A402D06F4B702B75C08AF076C08BF0E1
:100C100077C08CF078C08DF071C062F072C063F064
:100C200000016A6B000E676F000E666F000E7A6F30
:100C3000000E796FCDD07BC00EF07CC00FF07DC070
:100C400010F07EC011F08AC012F08BC013F08CC07F
:100C500014F08DC015F068EC0AF00EC027F00FC03C
:100C600028F010C029F011C02AF0C9EC0CF027C000
:100C70007FF028C080F029C081F02AC082F07FC0B8
:100C80000EF080C00FF081C010F082C011F036EC81
:100C900010F00FBE06D00F5013E10A0E0E5CD8B054
:100CA0000FD07FC00EF080C00FF081C010F082C066
:100CB00011F036EC10F00EC06DF00FC06EF005D0E4
:100CC000000E00016E6F090E6D6F00016A51D8B4FD
:100CD00063AF20D0800E8825D96E010E8921DA6E8F
:100CE0002E0EDF6E884B892B7307D8A07407010E78
:100CF0006A6F10D0800E8825D96E010E8921DA6EB8
:100D0000300EDF6E884B892B7307D8A074076607F7
:100D1000D8A0670766516711D8A4ECD7800E882544
:100D2000D96E010E8921DA6E6D51300FDF6E884B5E
:100D3000892B7307D8A074077BC037F07CC038F0CC
:100D40007DC039F07EC03AF07FC012F080C013F051
:100D500081C014F082C015F08AC00EF08BC00FF075
:100D60008CC010F08DC011F050EC07F00EC03BF0BD
:100D70000FC03CF010C03DF011C03EF046EC13F047
:100D800037C07BF038C07CF039C07DF03AC07EF0CF
:100D90008AC00EF08BC00FF08CC010F08DC011F027
:100DA000000E126E000E136E200E146E410E156EA4
:100DB00068EC0AF00EC08AF00FC08BF010C08CF007
:100DC00011C08DF000016207D8A06307794B7A2B20
:100DD0006F51795D7A51800A606F7051800A605955
:100DE000D8B008D089BF27D7895104E14B0E885D60
:100DF000D8A021D7000E7A6F4F0E796F800E79251B
:100E0000D96E010E7A21DA6EDF6A800E606F010EF4
:100E1000616F8851605F8951615B795160250E6E09
:100E20007A5161210F6E800E106E010E116E88C016
:100E300012F089C013F069EC13F08851795D886F66
:100E400089517A59896F8351D8B402D0010E01D0EB
:100E5000000E796F7A6B8351D8B40BD08807D8A075
:100E60008907800E8825D96E010E8921DA6E83C02C
:100E7000DFFF7951735F7A51745B3FC01EF0800EC3
:100E800088251F6E010E8921206E73C021F074C069
:100E900022F06EEC12F01EC03FF01FC040F01200B6
:100EA0001150800B1A6E115011241C6E10BE1C8044
:100EB0001C50D8B40DD01C28D8A408D0000E0E6E3B
:100EC000000E0F6E000E106E000E116E108E08D008
:100ED000000E0E6E000E0F6E000E106E000E116EE4
:100EE0001550800B1A1A155015241B6E14BE1B804A
:100EF0001B50D8B40DD01B28D8A408D0000E126EF9
:100F0000000E136E000E146E000E156E148E08D0B7
:100F1000000E126E000E136E000E146E000E156E93
:100F20001B50D8B403D01C50D8A409D0000E0E6EAC
:100F3000000E0F6E000E106E000E116E1200145097
:100F40000E02F3CF25F0F4CF26F025501D6E1E6A59
:100F50001F6A206A2650216E226A236A246A13506F
:100F60000F02F3CF25F0F4CF26F025501D26000EFA
:100F70001E221F22202226502126000E222223225A
:100F8000242212501002F3CF25F0F4CF26F0255082
:100F90001D26000E1E221F22202226502126000E72
:100FA0002222232224221FC020F01EC01FF01DC0B9
:100FB0001EF01D6A12500F02F3CF25F0F4CF26F079
:100FC00025501D2626501E22000E1F22000E202214
:100FD00013500E02F3CF25F0F4CF26F025501D2636
:100FE00026501E22000E1F22000E20221FC020F0BD
:100FF0001EC01FF01DC01EF01D6A12500E02F3CF5E
:1010000025F0F4CF26F025501D2626501E22000E76
:101010001F22000E202214500F02F3CF25F0F4CF30
:1010200026F02550212626502222000E2322000ED3
:10103000242213501002F3CF25F0F4CF26F02550D0
:10104000212626502222000E2322000E2422145094
:101050001002F3CF25F0F4CF26F02550166E26505F
:10106000176E186A196A18C019F017C018F016C060
:1010700017F0166A165021261750222218502322E4
:101080001950242220502126000E2222232224221D
:101090001FC020F01EC01FF01DC01EF01D6A1B5097
:1010A0001CC016F0176A1626000E1722820E162490
:1010B000256EFF0E1720266E0FD0D89021362236CF
:1010C0002336243620BE2180D8901D361E361F368A
:1010D00020362506D8A0260623AEEFD71B6A20AE01
:1010E00017D0FF0E1D14166EFF0E1E14176EFF0E86
:1010F0001F14186E7F0E2014196E1650171018103A
:101100001910D8B403D0010E1B6E02D021B0FBD74A
:101110001B50D8B41FD0010E2126000E22222322FC
:10112000242224A017D021C016F022C017F023C01B
:1011300018F024C019F01934193218321732163247
:1011400016C021F017C022F018C023F019C024F0F7
:10115000254A262A26BE0DD0265003E12528D8A0F0
:1011600008D0000E216E000E226E800E236E7F0EC0
:101170001FD026BE05D026500DE12504D8B00AD0D8
:10118000000E216E000E226E000E236E000E246EE5
:101190001A6A0FD025C01CF0FF0E2116FF0E221672
:1011A0007F0E2316000E24161CB0238ED8901C3000
:1011B000246E1A50241221C00EF022C00FF023C05A
:1011C00010F024C011F012002A50800B336E2A5008
:1011D0002A24356E29BE35803550D8B40ED0352836
:1011E000D8A408D0000E276E000E286E000E296EBF
:1011F000000E2A6E298E2A6A08D0000E276E000E75
:10120000286E000E296E000E2A6E2E50800B346E52
:1012100033503418D8A4338C2E502E24346E2DBE67
:1012200034803450D8B40ED03428D8A408D0000E5E
:101230002B6E000E2C6E000E2D6E000E2E6E2D8E5F
:101240002E6A08D0000E2B6E000E2C6E000E2D6E36
:10125000000E2E6E3550345CD8B022D033AC02D0A4
:10126000800E331A35C036F034C035F036C034F055
:1012700027C036F02BC027F036C02BF028C036F040
:101280002CC028F036C02CF029C036F02DC029F033
:1012900036C02DF02AC036F02EC02AF036C02EF00F
:1012A000366A355034C02FF0306A2F5E000E305A47
:1012B00030BE2CD0305004E11A0E2F5CD8A026D0BE
:1012C0002750281029102A10D8B402D0010E01D0BE
:1012D000000E366E000E276E000E286E000E296E70
:1012E000000E2A6E34C035F015D036A005D0D89047
:1012F00036300109366E02D0D890363227B0368E9D
:101300002A342A32293228322732352A3450355CA1
:10131000D8A0EBD733BC28D03550D8A409D0000EC4
:10132000276E000E286E000E296E000E2A6E120027
:101330002B5027262C5028222D5029222E502A228D
:101340002AA071D036A005D0D89036300109366E6B
:1013500002D0D890363227B0368E2A342A3229323B
:1013600028322732352A5FD02B50275C2C50285842
:101370002D5029582A50800A2F6E2E50800A2F583F
:10138000D8B025D027502B5C2F6E28502C58306EAB
:1013900029502D58316E2A502E58326EFF0E2F24B0
:1013A000276EFF0E3020286EFF0E3120296EFF0EB3
:1013B00032202A6E800E331A366C3650D8A40FD0E5
:1013C000010E2726000E282229222A2208D02B507F
:1013D000275E2C50285A2D50295A2E502A5A275011
:1013E000281029102A10D8A41CD03650D8A419D0FF
:1013F000000E276E000E286E000E296E000E2A6E5B
:101400001200D8902736283629362A3636BE27804D
:1014100036A002D0D88001D0D89036363550D8A426
:10142000350629AEEED7346A36AE0BD036C02FF073
:101430007F0E2F16D8B403D0010E346E02D027B021
:10144000FBD73450D8B420D0010E2726000E282216
:1014500029222A222AA018D027C02FF028C030F035
:1014600029C031F02AC032F03234323231323032D7
:101470002F322FC027F030C028F031C029F032C001
:101480002AF03528D8A4352A3528D8B403D03550C9
:10149000D8A40BD0000E276E000E286E000E296E09
:1014A000000E2A6E3550D8B4336A35A002D0298E8A
:1014B00001D0299ED89035302A6E33BE2A8E27C09F
:1014C00027F028C028F029C029F02AC02AF01200ED
:1014D0001150800B1E6E11501124256E10BE2580F8
:1014E0002550D8B40ED02528D8A408D0000E0E6EF2
:1014F000000E0F6E000E106E000E116E108E116A2F
:1015000008D0000E0E6E000E0F6E000E106E000E54
:10151000116E1550800B1E1A15501524266E14BE20
:1015200026802650D8B40ED02628D8A408D0000E85
:10153000126E000E136E000E146E000E156E148ED9
:10154000156A08D0000E126E000E136E000E146E97
:10155000000E156E1250131014101510D8A417D0C9
:10156000000E0E6E000E0F6E000E106E000E116E4D
:10157000800E10127F0E11121E5011120EC00EF0AE
:101580000FC00FF010C010F011C011F01200255064
:10159000D8A409D0000E0E6E000E0F6E000E106E55
:1015A000000E116E1200265025C016F0176A165E46
:1015B000000E175A7F0E16241F6E000E1720206E85
:1015C0000EC01AF00FC01BF010C01CF011C01DF0AF
:1015D000000E0E6E000E0F6E000E106E000E116EDD
:1015E000000E216E000E226E000E236E000E246E81
:1015F000266A28D02650D8B411D0D8901A361B3677
:101600001C361D36D8900E360F361036113624BED5
:101610000E80D890213622362336243612501A5C9A
:1016200013501B5814501C5815501D58D8A009D0E1
:10163000248C12501A5E13501B5A14501C5A155009
:101640001D5A262A190E2664D5D71A501B101C10B5
:101650001D10D8B411D021800FD0D8900E360F367F
:101660001036113624BE0E80D8902136223623360D
:1016700024361F06D8A0200610AEEFD7266A24AE67
:1016800017D0FF0E2114166EFF0E2214176EFF0ED8
:101690002314186E7F0E2414196E1650171018108C
:1016A0001910D8B403D0010E266E02D00EB0FBD7AD
:1016B0002650D8B41FD0010E0E26000E0F22102285
:1016C000112211A017D00EC016F00FC017F010C0D5
:1016D00018F011C019F019341932183217321632B5
:1016E00016C00EF017C00FF018C010F019C011F09E
:1016F0001F4A202A20BE10D0205003E11F28D8A066
:101700000BD0000E206E1F68000E0E6E000E0F6EC6
:10171000000E106E000E116E20BE05D0205010E19C
:101720001F04D8B00DD0000E206E000E1F6E000EEC
:101730000E6E000E0F6E000E106E000E116E1E6A01
:101740001FC025F025A002D0108E01D0109ED89089
:101750002530116E11D78F51D96EDA6ADFCFF6FFBF
:10176000060EF76E0800F550250AD8A4F9D08F515F
:10177000D96EDA6ADF2A000ED86F000ED76FD7C095
:101780004AF0D969DA698F51D96EDA6ADFCFF6FF8C
:10179000060EF76E0800F5502E0AD8A40ED08F5111
:1017A000D96EDA6ADF2A8FC00EF090C00FF0E2EC3B
:1017B00011F00EC0D9F00FC0DAF0966B8F51D96ED0
:1017C000DA6ADFCFF6FF060EF76E0800F550730AEF
:1017D000D8A407D08F51D96EDA6ADF2A010E966F2E
:1017E00032D08F51D96EDA6ADFCFF6FF060EF76E70
:1017F0000800F5506C0AD8A426D08F51D96EDA6A49
:10180000DF50456E010E452645C0F6FF060EF76E09
:101810000800F5506C0AD8A416D08F51D96EDA6A38
:10182000DF50456E020E452645C0F6FF060EF76EE8
:101830000800F550730AD8A406D08F51D96EDA6A21
:10184000030EDF26CBD79651D8B416D08EC018F031
:1018500090C0D9FF91C0DAFF020EDF26DF5CD96E9F
:10186000DA6ADECF19F0DECF1AF0FDEC0EF018C008
:101870008EF019C08FF012008F51D96EDA6ADF50E6
:10188000986F98C0F6FF060EF76E0800F5CF97F038
:1018900007D0982B10D06C0E976F0DD0976B0BD094
:1018A00097514C0AD8B4F5D72A0AD8B4F4D70A0A03
:1018B000D8B4EFD7F3D798C0F6FF060EF76E08003E
:1018C000F550660AD8B415D042D090C0D9FF91C067
:1018D000DAFFDFCF45F0040EDF264550D96EDA6A15
:1018E000DECF92F0DECF93F0DECF94F0DECF95F036
:1018F00007D097514C0AD8B4E8D7200AD8B4E5D716
:101900008F51D96EDA6A9829DF6E18D08EC03FF0F9
:1019100092C040F093C041F094C042F095C043F0B3
:1019200098C0F6FF060EF76E0800F5CF44F00FECF6
:1019300003F03FC08EF040C08FF0120098C0F6FF59
:10194000060EF76E0800F550660AD8B4DFD78F513F
:10195000D96EDA6ADF2A000E8F6F000E8E6F1200CA
:101960008F51D96EDA6ADFCFF6FF060EF76E0800E8
:10197000F550106E116A8EC012F09AEC11F0000151
:101980008F51D96EDA6ADF2A000E8F6F010E8E6FCB
:101990001200C9C037F0CAC038F0CBC039F0CCC093
:1019A0003AF027C037F028C038F029C039F02AC0F3
:1019B0003AF0810E2B6EFF0E2C6E37C02DF038C022
:1019C0002EF039C02FF03AC030F0180E05D0D89064
:1019D00030322F322E322D32E82EF9D72D502B24D3
:1019E000356E000E2C20366E36BE0FD0365004E118
:1019F000170E355CD8A009D027C027F028C028F0E2
:101A000029C029F02AC02AF0120036BE5BD035C0AA
:101A10002BF0FF0E2C6EFF0E2D6E7F0E2E6E000E25
:101A20002F6E2B6601D007D02F342F322E322D325D
:101A30002C322B2EF6D72CC031F02DC032F02EC018
:101A400033F02FC034F0315037142B6E325038142D
:101A50002C6E335039142D6E34503A142E6E2B5098
:101A60002C102D102E10D8B4C7D737C02BF038C08B
:101A70002CF039C02DF03AC02EF0200E05D0D890B1
:101A80002E322D322C322B32E82EF9D72B50D8B4EF
:101A900008D0315037263250382233503922345052
:101AA0003A22311C2B6E321C2C6E331C2D6E341CD2
:101AB0002E6E2B5037162C5038162D5039162E50AE
:101AC0003A1632D037C02BF038C02CF039C02DF088
:101AD0003AC02EF0200E05D0D8902E322D322C3266
:101AE0002B32E82EF9D72B6608D0000E376E000E89
:101AF000386E000E396E000E16D0D89037342B6E2B
:101B000038342C6E39342D6E3A342E6E2B502C1006
:101B10002D102E10D8B408D0000E376E000E386E7F
:101B2000800E396EBF0E3A6E37C027F038C028F0ED
:101B300039C029F03AC02AF01200000E0001C16F2E
:101B4000000EC26F000EC36F000EC46F62EC14F083
:101B5000F28EF28CF28C260E0E6E210E0F6E30EC91
:101B600015F060EC15F093849386040E456F030E18
:101B7000436F0C0E441344519F0B4009446F44893A
:101B8000448F4585458F45834591000EE3EC14F065
:101B90000001F151D8B4FCD7DDC00EF0DEC00FF06B
:101BA000106A116A000E5DEC0EF00EC0C5F00FC099
:101BB000C6F010C0C7F011C0C8F00001F16BC5C07D
:101BC00027F0C6C028F0C7C029F0C8C02AF0000E10
:101BD0002B6E000E2C6E2C0E2D6EC50E2E6EE4ECB0
:101BE00008F027C0C1F028C0C2F029C0C3F02AC045
:101BF000C4F0000E0001B96F000EBA6F000EBB6F8B
:101C0000440EBC6FB9C00EF0BAC00FF0BBC010F0EC
:101C1000BCC011F0000E126E000E136E800E146E1A
:101C2000400E156E68EC0AF00EC0BDF00FC0BEF09D
:101C300010C0BFF011C0C0F0BDC012F0BEC013F0A4
:101C4000BFC014F0C0C015F0C1C00EF0C2C00FF08C
:101C5000C3C010F0C4C011F068EC0AF00EC027F049
:101C60000FC028F010C029F011C02AF0000E2B6E12
:101C7000000E2C6E800E2D6E3F0E2E6EE4EC08F0E2
:101C8000000E00019D6F030E9E6F000EA06F9F69F6
:101C9000010EA16FC5C0A2F0C6C0A3F0C7C0A4F0DA
:101CA000C8C0A5F0F0EC10F01A0E9D6F000E9E6FEC
:101CB000030E9F6FEFEC14F06BD7166E1650D8A47E
:101CC00011AE1AD00EC012F00FC013F010C014F0F5
:101CD00011C015F0121E131E141E151E122A000E1E
:101CE00013221422152212C018F013C019F014C0C8
:101CF0001AF015C01BF008D00EC018F00FC019F074
:101D000010C01AF011C01BF00E500F10101011105F
:101D1000D8A409D0000E0E6E000E0F6E000E106ECD
:101D2000000E116E1200960E176E06D0172AD8906C
:101D30001B321A3219321832000E1814126E000EAD
:101D40001914136E000E1A14146EFE0E1B14156E69
:101D50001250131014101510D8B40DD0E7D7172A4D
:101D6000010E1826000E19221A221B22D8901B32AF
:101D70001A3219321832000E1814126E000E19148D
:101D8000136E000E1A14146EFF0E1B14156E1250F3
:101D9000131014101510D8B407D0E1D71706D89037
:101DA000183619361A361B361ABE03D0020E1760C3
:101DB000F5D717A01A9ED890173217C012F0136AE1
:101DC000146A156A12C015F0146A136A126A125066
:101DD00018121350191214501A1215501B121650C3
:101DE000D8A411AE01D01B8E18C00EF019C00FF090
:101DF0001AC010F01BC011F0120019C01FF01AC059
:101E000020F01F502010D8A406D00B0E1F6E1F50BC
:101E1000D8A4060E206E000E226E000E216E02D097
:101E2000214A222A21501F241B6E225020201C6E82
:101E30001BC0F6FF1CC0F7FFF86A050EF76403D05D
:101E40000800F55005D0F6CFE1FFF7CFE2FFE750ED
:101E50000009D8A4E5D70001DABF0ED02150D95D22
:101E6000DA51800A1B6E2250800A1B58D8B004D069
:101E7000D9C021F0DAC022F021C01DF022C01EF02E
:101E80001AD01FC0F6FF20C0F7FFF86A050EF764EE
:101E900003D00800F55005D0F6CFE1FFF7CFE2FF01
:101EA000E7501B6E1B50106E116A18C012F09AECAE
:101EB00011F01F4A202A1D06D8A01E061D28E1E1A8
:101EC0001E28D8A4DED721C018F022C019F01200B5
:101ED000000E27142F6E000E2814306E800E291469
:101EE000316E7F0E2A14326E2F50301031103210A6
:101EF000D8A408D0000E276E000E286E000E296EA2
:101F0000000E2A6E000E2B142F6E000E2C14306E55
:101F1000800E2D14316E7F0E2E14326E2F50301025
:101F200031103210D8A408D0000E2B6E000E2C6E8B
:101F3000000E2D6E000E2E6E2AAE09D0276C281EC4
:101F4000D8B0282A291ED8B0292A800E2A562EAEAB
:101F500009D02B6C2C1ED8B02C2A2D1ED8B02D2ABF
:101F6000800E2E56000E271A000E281A000E291A6F
:101F7000800E2A1A000E2B1A000E2C1A000E2D1A93
:101F8000800E2E1A2B50275C2C5028582D50295883
:101F90002E502A58D8B002D0D8901200D880120003
:101FA000CDC018F0CEC019F0CFC01AF0D0C01BF0D1
:101FB0000EC018F00FC019F010C01AF011C01BF0BD
:101FC00018C012F019C013F01AC014F01BC015F09D
:101FD000180E05D0D8901532143213321232E82E72
:101FE000F9D71250166E176A16501710D8A419D0C8
:101FF000D8901834126E1934136E1A34146E1B34C0
:10200000156E1250131014101510D8A405D0000E20
:102010000F6E020E0E6E1200000E0F6E030E0E6E8D
:10202000120016281710D8A41CD018C012F019C01E
:1020300013F01AC014F01BC015F0090ED890123618
:10204000133614361536E82EF9D712501310141023
:102050001510D8A402D0010E01D0000E0E6E0F6A2A
:102060001200000E0F6E040E0E6E120010341134AA
:10207000176E1750D8A409D0000E0E6E000E0F6E0A
:10208000000E106E000E116E12000EC012F00FC086
:1020900013F010C014F011C015F0200E05D0D89028
:1020A0001532143213321232E82EF9D71250166E4E
:1020B000108EFF0E0E16FF0E0F16FF0E1016000EDE
:1020C0001116960E175E17AE0DD01750800A970F97
:1020D000D8A0D2D7D890113210320F320E32173E1C
:1020E000F9D70DD01F0E176407D0C6D7D8900E367B
:1020F0000F361036113617061750D8A4F7D71650DA
:10210000D8B408D0111E101E0F1E0E6C000E0F2228
:10211000102211220EC00EF00FC00FF010C010F0F0
:1021200011C011F01200000E066E000E076E000EB8
:10213000086E000E096E8B940F01459F030E436FCE
:10214000458F4583640E016E000E026E000E036E15
:10215000000E046E8BEC13F00F01459344914493F1
:1021600045878B8411D0010E0626000E0722082217
:1021700009220950081006E1E90E065C030E075813
:10218000D8A002D08B941200A4A6EDD78B94A4966D
:1021900069EC15F00F01459F436BA3964597449159
:1021A000449325EC15F00009D8B4FBD70001F15198
:1021B000D8A406D004EC15F001C0DDF002C0DEF0BA
:1021C0008BA202D0010E01D0000EFF0A056E05465B
:1021D0008B500518FD0B05188B6E010EF16F120068
:1021E000800EA05DD8A005D0000EDC6F4B0EDB6F1B
:1021F0001200A20EAD6F9DC0AEF09EC0AFF0A05118
:1022000004E1020E9F5DD8A00AD0FF0E9F25B76F94
:10221000FF0EA021B86F000EB16F000E07D0000EA8
:10222000B86F010EB76F000EB16F010EB06FAE0E3A
:10223000996FA1C09AF0AD0E9B6F23EC13F099C07B
:10224000ABF09AC0ACF09F51A011D8B41200ACBF53
:102250001200FF0E9F25A66FFF0EA021A76FA651AB
:10226000AB5DAC51800AA86FA751800AA859D8A0CD
:1022700007D0FF0E9F25A96FFF0EA021AA6F04D0E3
:10228000ABC0A9F0ACC0AAF0A9519D25D96EAA5146
:102290009E21DA6EDF6A1200000E4E24D96EDA6AD1
:1022A000010EDA22DF6AABA415D0000E4E24D96EDF
:1022B000DA6A010EDA220101DF8201D80BD00500B3
:1022C0000001FA6EE951FD6EEA51FE6EF850FF6EA4
:1022D000FA501200ABA215D0000E4E24D96EDA6A65
:1022E000010EDA220101DF8401D80BD005000001C4
:1022F000FA6EE751FD6EE851FE6EF850FF6EFA502F
:102300001200000E4E24D96EDA6A010EDA22DF5076
:10231000D8B40DD001D8120005000001FA6EE551C5
:10232000FD6EE651FE6EF850FF6EFA501200C6ECDC
:1023300014F012001250D8B403D01250D8A404D014
:1023400010502BEC15F012001250D96EDA6A090EFB
:10235000D926DE50DE10D8B414D01250D96EDA6A05
:10236000090ED9261250E16EE26A020EE126DE5015
:10237000E65CE650800A176EDE50800A1758D8B027
:1023800012001250D96EDA6A020ED926DECF13F08F
:10239000DDCF14F01250D96EDA6ADECF15F0DDCF42
:1023A00016F013501524D96E14501620DA6E10C092
:1023B000DFFF1250D96EDA6A020ED926DE2A000E2D
:1023C000DD221200000E146E000E136E0E50D96E38
:1023D000DA6ADFCFF6FF060EF76E0800F5502A0A1C
:1023E000D8A424D00E50D96EDA6ADF2A0F50D96EE5
:1023F000DA6A020EDF26DF5CD96EDA6ADECF13F00E
:10240000DECF14F021D00A0E1302F3CF10F0F4CF78
:1024100011F01402F350112612501024136E000E06
:102420001120146E0E50D96EDA6ADF2A0E50D96E62
:10243000DA6ADFCFF6FF060EF76E0800F550D00F10
:10244000126E090E1264DFD713C00EF014C00FF025
:102450001200000E0E14166E000E0F14176E800E72
:102460001014186E7F0E1114196E165017101810D4
:102470001910D8A408D0000E0E6E000E0F6E000EBC
:10248000106E000E116E000E1214166E000E131454
:10249000176E800E1414186E7F0E1514196E1650D8
:1024A000171018101910D8A408D0000E126E000EC4
:1024B000136E000E146E000E156E12500E180AE107
:1024C00013500F1807E11450101804E1155011189B
:1024D000D8B402D0D8901200D880120022AE04D016
:1024E000000E226E000E216E000E256E000E246E70
:1024F0000AD0000E116E200E106E1EC012F09AEC63
:1025000011F0244A252A2150245C2550800A236E8C
:102510002250800A2358D8A0ECD71FC018F020C042
:1025200019F01EC01AF0A9EC13F01FC00EF020C065
:102530000FF024EC14F021500E241E6E22500F20B8
:102540001F6E12009D9A980E0E6E220E0F6E44ECB6
:1025500015F09D989C0E0E6E280E0F6E3FEC15F038
:10256000080EB86E900EAB6E240EAC6E8A0EAF6E77
:10257000B06ADC0E0E6E2A0E0F6E4EEC15F0C60E13
:102580000E6E2A0E0F6E49EC15F0CC0E0E6E2A0E52
:102590000F6E53EC15F04B6A516A506A400E4F6E45
:1025A0004E6A4D6A4C6A9D8A120003EE00F010EEEE
:1025B000FFF0EE6AE550E150FCE1E250FAE102EE94
:1025C00000F0400EEE6AE806FDE101EE00F0D00EEC
:1025D000EE6AE806FDE100EEC9F0290EEE6AE806B3
:1025E000FDE100EE46F00C0EEE6AE806FDE15290C9
:1025F0005292000EF86E00019DEF0DF011BE09D051
:102600000EC00EF00FC00FF010C010F011C011F08E
:1026100012000EC012F00FC013F010C014F011C061
:1026200015F0121E131E141E151E122A000E132260
:102630001422152212C00EF013C00FF014C010F0B7
:1026400015C011F012009AC09CF0000ED66F000E5B
:10265000D56F0ED099C08EF09C0E8F6F9BC090F0FE
:10266000916BABEC0BF000018E51D5278F51D62327
:102670009CC0F6FF060EF76E0800F5500009D8A4BE
:10268000E9D7D5C099F0D6C09AF01200000E3B1AD7
:10269000000E3C1A000E3D1A800E3E1A37C027F07D
:1026A00038C028F039C029F03AC02AF03BC02BF0DE
:1026B0003CC02CF03DC02DF03EC02EF0E4EC08F004
:1026C00027C037F028C038F029C039F02AC03AF0C6
:1026D000120010C017F011C018F00EC015F00FC096
:1026E00016F010D017C0D9FF18C0DAFFDF50146EF3
:1026F000174A182A15C0D9FF16C0DAFF14C0DFFF29
:10270000154A162A1206D8A013061228EBE1132840
:10271000D8B41200E7D7000E0001D16F000ED26FBF
:10272000000ED36F000ED46F09D000000400010E1C
:102730000001D127000ED223D323D423D151015C31
:10274000D2510258D3510358D4510458D8A0120082
:10275000ECD7000E1D6E000E1C6E09D01BC010F0D1
:10276000116A1AC012F09AEC11F01C4A1D2A1C5072
:102770001824D96E1D501920DA6EDF501B6E1B50C5
:10278000D8B41200EBD70E6E4F50D8B4FDD79DB819
:1027900003D00EC0ADFF0FD09D98400E5124D96ECE
:1027A000DA6A010EDA220EC0DFFF512A3F0E5164B1
:1027B00001D0516A4F069D8812000EC012F00FC062
:1027C00013F0102A1004116E11C0F6FF060EF76EFA
:1027D00012C0D9FF13C0DAFF124A132A0800F5CF3E
:1027E000DFFFDF50D8B41200ECD77E92E3C001F0D7
:1027F000E4C002F0B7EC14F00001DF4BE02BE05135
:1028000004E1140EDF5DD8A0120097EC14F0000E66
:102810000001E06F000EDF6F12000E500F1010105D
:102820001110D8B408D0000E0E1A000E0F1A000EA8
:10283000101A800E111A0EC00EF00FC00FF010C04B
:1028400010F011C011F012000EC010F00FC011F006
:1028500002D00E4A0F2A0EC0D9FF0FC0DAFFDF5098
:10286000D8A4F7D710500E5C0E6E11500F580F6E93
:1028700012004D6B3C0E506FB00E4F6F4FCFE3F018
:1028800050CFE4F07E927D82D60E0E6E2A0E0F6E31
:1028900030EC15F0310E0F014E6F1200400E4F60FC
:1028A0000FD0400E5024D96EDA6A010EDA22DF50C2
:1028B000AD6E502A3F0E506401D0506A4F2A12006C
:1028C0009D9812001FEC15F075EC14F00EEC15F04D
:1028D00017EC15F058EC15F0D5EC14F039EC14F0B9
:1028E000FAEC14F0A2EC12F01200896A8A6A8B6A80
:1028F00092689368B10E946E300E0F013A6F320EEB
:10290000396F2F0E386F616AF18E12009E92485017
:102910004910D8B4120001D812000500FA6E4850D0
:10292000FD6E4950FE6EF850FF6EFA501200E151F4
:10293000E211D8B4120001D812000500FA6EE1517C
:10294000FD6EE251FE6EF850FF6EFA5012004650D6
:102950004710D8B4120001D812000500FA6E465094
:10296000FD6E4750FE6EF850FF6EFA5012000F01D8
:102970004EA507D04E9102C050FF01C04FFF4E81BF
:10298000120002C050FF01C04FFF1200000E4E2483
:10299000D96EDA6A020EDA22AECFDFFF4E2A3F0E80
:1029A0004E6401D04E6A4C2A12003E0EBB6EBC6AC9
:1029B0009E929D82D80E0E6E2A0E0F6E35EC15F08B
:1029C0007E0EBA6E12000F6E0FC00EF00E460E464F
:1029D000C2500E18830B0E18C26EC28012009E0EDB
:1029E000A06F000E996F9DC09AF0A00E9B6F23EC14
:1029F00013F01200F292F19CDA0E0E6E2A0E0F6E98
:102A00003AEC15F0F2881200C450046E036AC35009
:102A10000324016E000E0420026E1200700ED36EAD
:102A2000040ED26E400E9B6ED2BE1200FDD7C16A5C
:102A3000360EC06EC36AC46A010EC26E1200D08E1A
:102A40009F889F8A7F829F821200C2B202D0010EAD
:102A50001200000E12000F6E0F50C3EC13F01200A4
:102A60000EC0E1F00FC0E2F012000EC048F00FC03F
:102A700049F012000EC046F00FC047F012000EC021
:102A8000EDF00FC0EEF012000EC0EBF00FC0ECF056
:102A900012000EC0E7F00FC0E8F012000EC0E9F01F
:102AA0000FC0EAF012000EC0E5F00FC0E6F0120011
:102AB000546B556B566B1200F292A7EC14F0120097
:102AC0000F014E811200AB98AB881200C6EC14F0D7
:0E2AD0001200C2821200120012001200120048
:020000040030CA
:0E000000FF281F3CFFBF85FF0FC00FE00F4021
:00000001FF
