:0400000085EF00F098
:10000800F760F760F760F760F760F760854F265E86
:10001800F760F760605D6F5DF760F760F760F76045
:100028007E5DF760F760F760DD5CF760EE5C8D5D24
:10003800F760F760F760955CF760F760F760825CDF
:10004800F760F760F760F760DE57415DF760F760CB
:10005800F760F760F760F760F760F760F760F760E0
:10006800F760F760F760F760F760F760F760F760D0
:10007800F760F760F760F7604200F760F760F760D5
:10008800F35BDC5BF760F7600A5CF760F760F760CA
:10009800F760F760F760F7604200F760F760F760B5
:1000A800F760F760F760F760F760F760F760F76090
:1000B800F760F760F760645BF760F760F760F76018
:1000C800F760F760F760F760F760F760F760F76070
:1000D800215DB95DF760F760F760F760F760F7607A
:1000E8004200F760F760F760F760F760F760F76065
:1000F800F760F760F760A85CF760F760F760F76093
:0A010800FF0015EEF0F153EF9DF03B
:10FDE400000001020304050607080C101418203053
:10FDF400401F1E1F1E1F1F1E1F1E1F1F1D00000150
:10FE04007C7C2F2F2D2D000000000000000000003E
:10FE1400000000007C7C2F2F2D2D5C5C0000000076
:10FE240000000000000000004F4F4F4F4F4F2D2D9A
:10FE34005F5F2D00000000000000000076763C3C6F
:10FE44005E5E3E3E00000000000000000000000076
:10FE54002E2E2A2A7823782358587C7C2D2D0000B6
:10FE6400000000002E2E6F6F4F4F6F6F00000000D8
:10FE7400000000000000000056312E3032204443C0
:10FE840055202051383420202020004D4472762003
:10FE94002533642E2530326456202532642E2530D5
:10FEA40032644120202020202020202020004325CF
:10FEB4007520435243256C752052432575204543D4
:10FEC400257520202020202020202020004D49536B
:10FED4004320427574746F6E205072657373656449
:10FEE4002020202020202020004C6F6720427574A1
:10FEF400746F6E2050726573736564202020202017
:10FF0400202020002558255825582558255825589F
:10FF14002558255820202020202020202000436F11
:10FF24006E7420257320257320202020202020207B
:10FF340020202000537065656420257320487A20B2
:10FF440020202020202020202000416C7420427595
:10FF540074746F6E20DFF4202020202020200053B2
:10FF640074617274205570202020202020202020CD
:10FF740020202000416363656C20257320257320B5
:10FF8400202020202020202000506F6C6C696E6798
:10FF94002050756D70202020202020202000206516
:10FFA40072726F72206C6F67676564200D0A00259A
:10FFB4007320423A25582025582025582020200017
:10FFC4004E6F7620323120323032340031313A34BF
:10FFD400303A353400286E756C6C29002573202066
:10FFE400200044435520310025642025730025302A
:0CFFF400336400474D54002573200000CA
:020000040001F9
:100000002D0EE126000EE222CF0EE350800F096E86
:10001000D00EE3C40AF5A20E0A22D10EE3C40BF5FA
:10002000430E0B22D20EE3C40CF5C70E0C22E80ED1
:1000300009C5E3F4E90E0AC5E3F4EA0E0BC5E3F4DF
:10004000EB0E0CC5E3F4CF0EE3C401F5810E015EA7
:10005000D00EE3C401F55D0E015AD10EE3C401F5E3
:10006000BC0E015AD20EE3C401F5380E015AD8A0D5
:1000700033D0800EE66E510EE66E010EE66E000E77
:10008000E66EE40EE3C4E6F4E3C4E6F4E3C4E6F4A7
:10009000E3C4E6F460ECA7F0EC0E01C5E3F4ED0E6A
:1000A00002C5E3F4EE0E03C5E3F4EF0E04C5E3F47A
:1000B000800EE66E510EE66E010EE66E000EE66EE6
:1000C000E40EE3C4E6F4E3C4E6F4E3C4E6F4E3C414
:1000D000E6F4A6ECAAF032D0800EE66E510EE66E83
:1000E000010EE66E000EE66EE40EE3C4E6F4E3C431
:1000F000E6F4E3C4E6F4E3C4E6F4D4EC9FF0EC0EDB
:1001000001C5E3F4ED0E02C5E3F4EE0E03C5E3F41E
:10011000EF0E04C5E3F4800EE66E510EE66E010E9E
:10012000E66E000EE66EE40EE3C4E6F4E3C4E6F425
:10013000E3C4E6F4E3C4E6F4CCECA2F0D80E01C5C7
:10014000E3F4D90E02C5E3F4DA0E03C5E3F4DB0EE3
:1001500004C5E3F4DB0EE3AE1BD0E150D80FD96E3B
:10016000E250DA6EFF0EDA22800EDE26510EDE221B
:10017000010EDE22000EDE22E150EC0FD96EE250BD
:10018000DA6EFF0EDA22DE06000EDE5ADE5ADE5A84
:10019000070EE66E000EE66E000EE66E000EE66ED0
:1001A000E80EE350030F096EE90EE3C40AF5000EF2
:1001B0000A22EA0EE3C40BF5000E0B22EB0EE3C499
:1001C0000CF5000E0C2209C5E6F40AC5E6F40BC5D1
:1001D000E6F40CC5E6F4CCECA2F001C50BF502C5C3
:1001E0000CF5FE0E0BC5E3F4FF0E0CC5E3F4FF0E99
:1001F000E3AE0FD0FE0EE350070F016EFE0E01C5F9
:10020000E3F4016AFF0EE3500120016EFF0E01C509
:10021000E3F4B10EE66E3A0EE66E020EE66E000EE6
:10022000E66EE80EE3C4E6F4E3C4E6F4E3C4E6F401
:10023000E3C4E6F4D4EC9FF0F00E01C5E3F4F10E54
:1002400002C5E3F4F20E03C5E3F4F30E04C5E3F4D0
:10025000B10EE66E3A0EE66E020EE66E000EE66E29
:10026000E80EE3C4E6F4E3C4E6F4E3C4E6F4E3C46E
:10027000E6F4CCECA2F0D40E01C5E3F4D50E02C531
:10028000E3F4D60E03C5E3F4D70E04C5E3F4D70EAA
:10029000E3AE1BD0E150D40FD96EE250DA6EFF0E00
:1002A000DA22B10EDE263A0EDE22020EDE22000E29
:1002B000DE22E150F00FD96EE250DA6EFF0EDA2244
:1002C000DE06000EDE5ADE5ADE5AAC0EE66E8E0EEA
:1002D000E66E000EE66E000EE66ED00EE3C4E6F4A7
:1002E000E3C4E6F4E3C4E6F4E3C4E6F4D4EC9FF03C
:1002F000E00E01C5E3F4E10E02C5E3F4E20E03C52E
:10030000E3F4E30E04C5E3F4E00EE3C401F5040EE8
:10031000011816E1E10EE35013E1E20EE35010E1A3
:10032000E30EE350D8A40CD0E150E00FD96EE250B8
:10033000DA6EFF0EDA22DE06000EDE5ADE5ADE5AD2
:10034000AC0EE66E8E0EE66E000EE66E000EE66EEB
:10035000DC0EE3C4E6F4E3C4E6F4E3C4E6F4E3C489
:10036000E6F480ECADF0E150D40FD96EE250DA6ED5
:10037000FF0EDA220150DE5E0250DE5A0350DE5AD2
:100380000450DE5AB50EE66E050EE66E000EE66E01
:10039000000EE66ED00EE3C4E6F4E3C4E6F4E3C474
:1003A000E6F4E3C4E6F4D4EC9FF0DC0E01C5E3F41C
:1003B000DD0E02C5E3F4DE0E03C5E3F4DF0E04C573
:1003C000E3F4DC0EE3C401F5190E011816E1DD0EAD
:1003D000E35013E1DE0EE35010E1DF0EE350D8A44A
:1003E0000CD0E150DC0FD96EE250DA6EFF0EDA224B
:1003F000DE06000EDE5ADE5ADE5AB50EE66E050E39
:10040000E66E000EE66E000EE66ED80EE3C4E6F46D
:10041000E3C4E6F4E3C4E6F4E3C4E6F480ECADF050
:10042000E150D40FD96EE250DA6EFF0EDA2201509D
:10043000DE5E0250DE5A0350DE5A0450DE5A6D0E64
:10044000E66E010EE66E000EE66E000EE66ED00E53
:10045000E3C4E6F4E3C4E6F4E3C4E6F4E3C4E6F498
:10046000D4EC9FF0E40E01C5E3F4E50E02C5E3F41D
:10047000E60E03C5E3F4E70E04C5E3F4E40EE3C4BB
:1004800001F5040E011816E1E50EE35013E1E60E46
:10049000E35010E1E70EE350D8A40CD0E150E40F94
:1004A000D96EE250DA6EFF0EDA22DE06000EDE5A58
:1004B000DE5ADE5A6D0EE66E010EE66E000EE66E38
:1004C000000EE66EE00EE3C4E6F4E3C4E6F4E3C433
:1004D000E6F4E3C4E6F480ECADF0E150D40FD96E5D
:1004E000E250DA6EFF0EDA220150DE5E0250DE5A72
:1004F0000350DE5A0450DE5AD30EE36AE40EE35092
:1005000027E1E50EE35024E1E60EE35021E1E70E9A
:10051000E350D8A41DD0DC0EE35017E1DD0EE3500C
:1005200014E1DE0EE35011E1DF0EE350D8A40DD04C
:10053000E00EE3500DE1E10EE3500AE1E20EE3507C
:1005400007E1E30EE350D8A403D0D30EE36AE32A15
:10055000D30EE3500B6E0C6AFA0E0BC5E3F4FB0EE0
:100560000CC5E3F4FA0EE3C40BF5FB0EE3C40CF583
:10057000D40EE3500B26D50EE3500C223B0E0B2677
:10058000000E0C22FC0E0BC5E3F4FD0E0CC5E3F4CB
:10059000FA0EE3506D0F0B6EFB0EE3C40CF5010E6B
:1005A0000C22FC0EE3C401F50B50015CFD0EE35080
:1005B000800A016E0C50800A0158D8A019D0FA0E9A
:1005C000E3506D0F0B6EFB0EE3C40CF5010E0C2215
:1005D000FC0EE3C401F50B50015EFC0E01C5E3F413
:1005E000FD0EE3C401F50C50015AFD0E01C5E3F404
:1005F000DC0EE3C409F5DD0EE3C40AF5DE0EE3C448
:100600000BF5DF0EE3C40CF5020ED89009360A365E
:100610000B360C36E82EF9D7900EE66E010EE66E1C
:10062000000EE66E000EE66EEC0EE3C4E6F4E3C4E4
:10063000E6F4E3C4E6F4E3C4E6F480ECADF001C50F
:1006400005F502C506F503C507F504C508F5640EF2
:10065000E66E000EE66E000EE66E000EE66EDC0E36
:10066000E3C4E6F4E3C4E6F4E3C4E6F4E3C4E6F486
:1006700080ECADF0015005260250062203500722FF
:100680000450082209500524016E0A500620026E0B
:100690000B500720036E0C500820046EE40EE3504C
:1006A0000126E50EE3500222E60EE3500322E70E98
:1006B000E3500422F40E01C5E3F4F50E02C5E3F4A1
:1006C000F60E03C5E3F4F70E04C5E3F4F80EE36A8F
:1006D000F90EE36A2CD0E150D40FD96EE250DA6EF5
:1006E000FF0EDA22F80EE3C40BF5F90EE3C40CF5A5
:1006F000F50E0B24F66EFD0E0C20F76EF86A000E58
:10070000F8220800F550DE5E000EDE5ADE5ADE5A90
:10071000F80EE350010F016EF80E01C5E3F4016A13
:10072000F90EE3500120016EF90E01C5E3F4F80E55
:10073000E3C40BF5F90EE3C40CF5F50E0B24F66ECD
:10074000FD0E0C20F76EF86A000EF8220800F5C4C2
:100750000CF50CC505F5066A076A086AD40EE3C4F1
:1007600001F50550015CD50EE3C401F506500158B2
:10077000D60EE3C401F507500158D70EE350800AA6
:10078000016E0850800A0158D8B0A5D7F90EE3BE13
:1007900021D0F90EE35007E1F80EE3C401F50A0E8B
:1007A000015ED8A017D0E150F80FD96EE250DA6E92
:1007B000FF0EDA22F40EDE26FF0EDD22E150F40FEA
:1007C000D96EE250DA6EFF0EDA22DE2A000EDE2249
:1007D000DE22DE22F40EE350640F0B6EF50EE3C44E
:1007E0000CF5000E0C22CD0EE3C409F5CE0EE3C4C9
:1007F0000AF50A0E0924D96E000E0A20DA6E0BC51E
:10080000DEF40CC5DDF4F80EE350020F0B6EF90EAA
:10081000E3C40CF5000E0C22CD0EE3C409F5CE0E98
:10082000E3C40AF5080E0924D96E000E0A20DA6E18
:100830000BC5DEF40CC5DDF4D40EE350010F0B6ED6
:10084000D50EE3C40CF5000E0C22CD0EE3C409F561
:10085000CE0EE3C40AF5060E0924D96E000E0A2056
:10086000DA6E0BC5DEF40CC5DDF4E150FE0FD96E77
:10087000E250DA6EFF0EDA22CD0EE3C40BF5CE0E97
:10088000E3C40CF50C0E0B24E96E000E0C20EA6E8E
:10089000DEC4EEF4DDC4EDF4E150FC0FD96EE2509D
:1008A000DA6EFF0EDA22CD0EE3C40BF5CE0EE3C4F2
:1008B0000CF50E0E0B24E96E000E0C20EA6EDEC461
:1008C000EEF4DDC4EDF4100EE66E0E0EE66E000ED4
:1008D000E66E000EE66ED40EE3C4E6F4E3C4E6F47E
:1008E000E3C4E6F4E3C4E6F4D4EC9FF001C50BF5F1
:1008F00002C50CF5CD0EE3C409F5CE0EE3C40AF52E
:10090000040E0924D96E000E0A20DA6E0BC5DEF43F
:100910000CC5DDF43C0EE66E000EE66E000EE66ED3
:10092000000EE66E3C0EE66E000EE66E000EE66E03
:10093000000EE66ED00EE3C4E6F4E3C4E6F4E3C4CE
:10094000E6F4E3C4E6F4D4EC9FF001C5E6F402C596
:10095000E6F403C5E6F404C5E6F4CCECA2F001C568
:100960000BF502C50CF5CD0EE3C409F5CE0EE3C4BC
:100970000AF5020E0924D96E000E0A20DA6E0BC5A4
:10098000DEF40CC5DDF43C0EE66E000EE66E000EE5
:10099000E66E000EE66ED40EE3C4E6F4E3C4E6F4BD
:1009A000E3C4E6F4E3C4E6F4CCECA2F001C50BF535
:1009B00002C50CF5CD0EE3C4D9F4CE0EE3C4DAF4CF
:1009C0000BC5DEF40CC5DDF4000E016E000E026EE8
:1009D000CD0EE126FF0EE2221200230EE126000ECC
:1009E000E222B7ECB8F0FBECB4F0D68ED68C800ED9
:1009F000E66E490EE66E010EE66E1EECBFF0DFEC11
:100A0000C1F0300EE66E730EE66E010EE66E40EC3F
:100A1000BFF0EBECC1F0B40EE66E6E0EE66E010EAA
:100A2000E66E2FECBFF0E5ECC1F0B6ECACF04AECB2
:100A3000BDF0FC0EE66E730EE66E010EE66E63EC24
:100A4000BEF0140EE66E000EE66E020EE66EABEC25
:100A5000BBF019ECBCF0C80EE66E000EE66E030E9D
:100A6000E66EABECBBF055ECA9F07C0EE66EFE0E2C
:100A7000E66EE00EE66EFF0EE66E000EE66E020E0D
:100A8000E66EF00EE66E130EE66E080EE66E31ECC4
:100A90009EF0F00EE66E130EE66E000EE66E000E91
:100AA000E66E02ECAFF0C40EE66EFF0EE66EE00EF0
:100AB000E66EFF0EE66E000EE66E020EE66EF00EBD
:100AC000E66E130EE66E080EE66E31EC9EF0F00E4A
:100AD000E66E130EE66E000EE66E010EE66E02EC9A
:100AE000AFF0F150E66E000EE66EF050E66E000ECE
:100AF000E66ED850E66E000EE66ED00EE66EFF0E85
:100B0000E66EB30EE66EFF0EE66E000EE66E020EA9
:100B1000E66EF00EE66E130EE66E0E0EE66E31EC2D
:100B20009EF0F00EE66E130EE66E000EE66E020EFE
:100B3000E66E02ECAFF0630EE66EFF0EE66EFB0EA5
:100B4000E66EFF0EE66E000EE66E020EE66EF00E2C
:100B5000E66E130EE66E080EE66E31EC9EF0F00EB9
:100B6000E66E130EE66E000EE66E030EE66E02EC07
:100B7000AFF0400EE66E420EE66E0F0EE66E000E11
:100B8000E66E61ECB6F08D0EE66EFF0EE66EFB0EC5
:100B9000E66EFF0EE66E000EE66E020EE66EF00EDC
:100BA000E66E130EE66E080EE66E31EC9EF0F00E69
:100BB000E66E130EE66E000EE66E020EE66E02ECB8
:100BC000AFF00601196B1A6BFF0EE36AFF0EE350DC
:100BD000020DF3C409F5F4C40AF5000E0ABEFF0EB7
:100BE0000B6E0C6E000E0924046E000E0A20056EBA
:100BF0002C0E0B20066E04C5E6F405C5E6F406C50A
:100C0000E6F44CECA5F0FF0EE350020D300EF32499
:100C1000D96E060EF420DA6E01C5DEF402C5DDF4ED
:100C2000FF0EE350020D300EF324D96E060EF420B1
:100C3000DA6EDE5006011927DD501A23FF0EE32A73
:100C4000FF0EE3C401F5080E0164C0D7196B1A6BDF
:100C50003EC6E6F43FC6E6F43CC6E6F43DC6E6F41E
:100C60003AC6E6F43BC6E6F438C6E6F439C6E6F41E
:100C700036C6E6F437C6E6F434C6E6F435C6E6F41E
:100C800032C6E6F433C6E6F430C6E6F431C6E6F41E
:100C9000080EE66EFF0EE66E150EE66E000EE66EB0
:100CA000D50EE124016EFF0EE220026E01C5E6F4CE
:100CB00002C5E6F4160EE66E31EC9EF0E90EE12474
:100CC000016EFF0EE220026E01C5E6F402C5E6F4F5
:100CD0005EECB1F0E10EE66E050EE66EFEECC0F0E5
:100CE00001C5E4F602C5E5F6C18A000EE66E070E00
:100CF000E66E59EC8DF006010151D8B414D020EC09
:100D0000BAF00601016B010151B302D0010E01D00E
:100D1000000E010B0601226F2251D8A402D0070158
:100D20000D6B09C723F6030EE66E2DECBEF00150E5
:100D3000D8B444D20501AA2BAA050C6E040E0C648B
:100D400001D0AA6BC80EE66E000EE66E030EE66ECC
:100D5000ABECBBF007010951D8B486D00501CE51E8
:100D6000096ECF510A6E0B6A0C6A09500601725D5A
:100D70000A5073590B5074590C507559D8B074D02F
:100D8000E60EE66EFF0EE66E000EE66E020EE66EF4
:100D9000F00EE66E130EE66E060EE66E31EC9EF079
:100DA000F00EE66E130EE66E000EE66E010EE66EB7
:100DB00002ECAFF0A20EE66EFF0EE66E000EE66EDF
:100DC000020EE66EF00EE66E110EE66E060EE66E92
:100DD00031EC9EF00501A951D8A42FD003C7E6F449
:100DE00004C7E6F4CC51E66E000EE66ED4C5E6F418
:100DF000D5C5E6F4D6C5E6F4D7C5E6F40701025139
:100E0000E66E000EE66EB20EE66EFE0EE66E000EAA
:100E1000E66E020EE66EF00EE66E130EE66E100E35
:100E2000E66E31EC9EF0F00EE66E130EE66E000EEE
:100E3000E66E000EE66E02ECAFF00501A92BA905E7
:100E40000C6E090E0C64BAD1030ECE250B6E000E8B
:100E5000CF210C6E0BC572F60CC573F60601746BD0
:100E6000756B0501A96BAAD106012451D8A4D1D074
:100E70000501CE6BCF6B810EE66E070EE66E510E4E
:100E8000E66E070EE66E780EE66EFF0EE66E000E5C
:100E9000E66E020EE66EF00EE66E130EE66E0A0EBB
:100EA000E66E31EC9EF0F00EE66E130EE66E000E6E
:100EB000E66E000EE66E02ECAFF0750EE66E070E03
:100EC000E66E7AECA3F0E30E01C5E3F4E40E02C58E
:100ED000E3F4E30EE3C4E6F4E3C4E6F490ECB8F024
:100EE000E70EA2C5E3F4E80EA3C5E3F4E50EA0C542
:100EF000E3F4E60EA1C5E3F4450EE66E070EE66EDA
:100F00007AECA3F0E30E01C5E3F4E40E02C5E3F4CA
:100F1000E30EE3C4E6F4E3C4E6F490ECB8F0A0C555
:100F2000E6F4A1C5E6F4A2C5E6F4A3C5E6F4E10E35
:100F3000E3C4E6F4E3C4E6F4E10EE3C4E6F4E3C498
:100F4000E6F48F0EE66EFE0EE66E000EE66E020E04
:100F5000E66EF00EE66E130EE66E0E0EE66E31ECE9
:100F60009EF0F00EE66E130EE66E000EE66E010EBB
:100F7000E66E02ECAFF0690EE66E070EE66E5D0EF1
:100F8000E66E070EE66E220EE66EFF0EE66E000EB1
:100F9000E66E020EE66EF00EE66E130EE66E0A0EBA
:100FA000E66E31EC9EF007018D51D8B40AD08D6BFE
:100FB000000EE66E040EE66E38ECAAF0610005F451
:100FC00003F4F00EE66E130EE66E000EE66E020EF1
:100FD000E66E02ECAFF02D0EE66E070EE66E380EF2
:100FE000E66EFF0EE66E000EE66E020EE66EF00E88
:100FF000E66E130EE66E080EE66E31EC9EF0F00E15
:10100000E66E130EE66E000EE66E030EE66E02EC62
:10101000AFF006012451D8B4D1D00501CE6BCF6B0F
:10102000810EE66E070EE66E510EE66E070EE66E58
:10103000780EE66EFF0EE66E000EE66E020EE66EAF
:10104000F00EE66E130EE66E0A0EE66E31EC9EF0C2
:10105000F00EE66E130EE66E000EE66E000EE66E05
:1010600002ECAFF0750EE66E070EE66E7AECA3F0BA
:10107000DD0E01C5E3F4DE0E02C5E3F4DD0EE3C4CC
:10108000E6F4E3C4E6F490ECB8F0E10EA2C5E3F4B4
:10109000E20EA3C5E3F4DF0EA0C5E3F4E00EA1C5A4
:1010A000E3F4450EE66E070EE66E7AECA3F0DD0E75
:1010B00001C5E3F4DE0E02C5E3F4DD0EE3C4E6F49D
:1010C000E3C4E6F490ECB8F0A0C5E6F4A1C5E6F4FC
:1010D000A2C5E6F4A3C5E6F4DB0EE3C4E6F4E3C47C
:1010E000E6F4DB0EE3C4E6F4E3C4E6F48F0EE66E4A
:1010F000FE0EE66E000EE66E020EE66EF00EE66E78
:10110000130EE66E0E0EE66E31EC9EF0F00EE66EFD
:10111000130EE66E000EE66E010EE66E02ECAFF008
:10112000690EE66E070EE66E5D0EE66E070EE66E63
:10113000220EE66EFF0EE66E000EE66E020EE66E04
:10114000F00EE66E130EE66E0A0EE66E31EC9EF0C1
:1011500007018D51D8B40AD08D6B000EE66E040ED7
:10116000E66E38ECAAF0610005F403F4F00EE66ECA
:10117000130EE66E000EE66E020EE66E02ECAFF0A7
:101180002D0EE66E070EE66E380EE66EFF0EE66E6C
:10119000000EE66E020EE66EF00EE66E130EE66EC2
:1011A000080EE66E31EC9EF0F00EE66E130EE66E63
:1011B000000EE66E030EE66E02ECAFF0060106517D
:1011C000D8B42CD0BF82066B242B030E246501D02B
:1011D000246B4E0EE66EFF0EE66E2451E66E000E98
:1011E000E66EEC0EE66EFF0EE66E000EE66E020E8A
:1011F000E66EF00EE66E130EE66E0A0EE66E31EC4B
:101200009EF0F00EE66E130EE66E000EE66E020E17
:10121000E66E02ECAFF0010E0601216F0751D8B463
:1012200025D0BF82076BED0EE66EFE0EE66EEF0E6A
:10123000E66EFF0EE66E000EE66E020EE66EF00E35
:10124000E66E130EE66E080EE66E31EC9EF0F00EC2
:10125000E66E130EE66E000EE66E020EE66E02EC11
:10126000AFF0010E06011F6F010E216F0851D8B4B7
:1012700023D0BF82086BD10EE66EFE0EE66EEF0E37
:10128000E66EFF0EE66E000EE66E020EE66EF00EE5
:10129000E66E130EE66E080EE66E31EC9EF0F00E72
:1012A000E66E130EE66E000EE66E020EE66E02ECC1
:1012B000AFF0010E0601216FC19A16D50D0EE12681
:1012C000000EE222FD0EE36AFE0EE36A010E0B6ED3
:1012D000000E0C6EFB0E0BC5E3F4FC0E0CC5E3F424
:1012E000E150ED0FD96EE250DA6EFF0EDA22F10E08
:1012F000E3C40BF5F20EE3C40CF5030E0B24E96E08
:10130000000E0C20EA6EDEC4EEF4DDC4EDF4F10E46
:10131000E3C40BF5F20EE3C40CF5030E0B24D96EF7
:10132000000E0C20DA6E0501CC510B6E0C6ADE50FB
:101330000B5CDE500C58D8A02CD3000EE66E0A0EC3
:10134000E66EFAECB1F0FF0E01C5E3F4FF0EE3C464
:1013500001F5060E0118D8A421D0ED0EE350E66E7B
:10136000000EE66E0A0EE66E7CECABF001500B6EE2
:101370000C6AFD0E0BC5E3F4FE0E0CC5E3F4000E83
:10138000E66E0A0EE66E2AECB7F001500B6E0C6AA0
:10139000FB0E0BC5E3F4FC0E0CC5E3F4E150FD0FAE
:1013A000D96EE250DA6EFF0EDA22FB0EE350DE1841
:1013B00004E1FC0EE350DE18D8A474D2000EE66EF1
:1013C0000A0EE66E1CECADF02F0E011841E102048E
:1013D000D8A43ED0FA0EE36A1ED0FA0EE3500B6E8C
:1013E0000C6A0A0E0B24D96E0A0E0C20DA6EFA0E65
:1013F000E3500B6E0C6AF10EE3500B26F20EE35035
:101400000C22810E0B24E96E000E0C20EA6EDFC464
:10141000EFF4FA0EE32AE150FA0FD96EE250DA6ED9
:10142000FF0EDA22FF0EE350DE5CD8A0D6D7FF0E07
:10143000E3500B6E0C6AF10EE3500B26F20EE350F4
:101440000C22810E0B24D96E000E0C20DA6EDF6A9E
:10145000000EE66E0A0EE66E1CECADF0350E0118BD
:1014600041E10204D8A43ED0F90EE36A1ED0F90E81
:10147000E3500B6E0C6A0A0E0B24D96E0A0E0C2078
:10148000DA6EF90EE3500B6E0C6AF10EE3500B2688
:10149000F20EE3500C222D0E0B24E96E000E0C20F0
:1014A000EA6EDFC4EFF4F90EE32AE150F90FD96ECA
:1014B000E250DA6EFF0EDA22FF0EE350DE5CD8A0B7
:1014C000D6D7FF0EE3500B6E0C6AF10EE3500B26DD
:1014D000F20EE3500C222D0E0B24D96E000E0C20C0
:1014E000DA6EDF6A000EE66E0A0EE66E1CECADF0F8
:1014F000170E01180210D8A43ED0F80EE36A1ED0D1
:10150000F80EE3500B6E0C6A0A0E0B24D96E0A0E0D
:101510000C20DA6EF80EE3500B6E0C6AF10EE350FD
:101520000B26F20EE3500C22390E0B24E96E000E4E
:101530000C20EA6EDFC4EFF4F80EE32AE150F80F56
:10154000D96EE250DA6EFF0EDA22FF0EE350DE5C57
:10155000D8A0D6D7FF0EE3500B6E0C6AF10EE35005
:101560000B26F20EE3500C22390E0B24D96E000E1E
:101570000C20DA6EDF6A000EE66E0A0EE66E1CECD8
:10158000ADF0360E011841E10204D8A43ED0F70EAA
:10159000E36A1ED0F70EE3500B6E0C6A0A0E0B24A2
:1015A000D96E0A0E0C20DA6EF70EE3500B6E0C6A41
:1015B000F10EE3500B26F20EE3500C22450E0B24E5
:1015C000E96E000E0C20EA6EDFC4EFF4F70EE32A9A
:1015D000E150F70FD96EE250DA6EFF0EDA22FF0EFD
:1015E000E350DE5CD8A0D6D7FF0EE3500B6E0C6A3A
:1015F000F10EE3500B26F20EE3500C22450E0B24A5
:10160000D96E000E0C20DA6EDF6A000EE66E0A0E4E
:10161000E66E1CECADF0390E011841E10204D8A4CD
:101620003ED0F60EE36A1ED0F60EE3500B6E0C6A47
:101630000A0E0B24D96E0A0E0C20DA6EF60EE35059
:101640000B6E0C6AF10EE3500B26F20EE3500C22E7
:10165000750E0B24E96E000E0C20EA6EDFC4EFF469
:10166000F60EE32AE150F60FD96EE250DA6EFF0E65
:10167000DA22FF0EE350DE5CD8A0D6D7FF0EE3508F
:101680000B6E0C6AF10EE3500B26F20EE3500C22A7
:10169000750E0B24D96E000E0C20DA6EDF6A000E78
:1016A000E66E0A0EE66E1CECADF0330E01184EE14C
:1016B0000204D8A44BD0F50EE36A1ED0F50EE35019
:1016C0000B6E0C6A0A0E0B24D96E0A0E0C20DA6E11
:1016D000F50EE3500B6E0C6AF10EE3500B26F20E82
:1016E000E3500C22510E0B24E96E000E0C20EA6E22
:1016F000DFC4EFF4F50EE32AE150F50FD96EE250A6
:10170000DA6EFF0EDA22FF0EE350DE5CD8A0D6D7E9
:10171000FF0EE3500B6E0C6AF10EE3500B26F20E37
:10172000E3500C22510E0B24D96E000E0C20DA6E01
:10173000DF6AF10EE3C40BF5F20EE3C40CF5520EB2
:101740000B24D96E000E0C20DA6EDF6A000EE66EF6
:101750000A0EE66E1CECADF05D0E011841E10204CC
:10176000D8A43ED0F40EE36A1ED0F40EE3500B6E04
:101770000C6A0A0E0B24D96E0A0E0C20DA6EF40ED7
:10178000E3500B6E0C6AF10EE3500B26F20EE350A1
:101790000C225D0E0B24E96E000E0C20EA6EDFC4F5
:1017A000EFF4F40EE32AE150F40FD96EE250DA6E52
:1017B000FF0EDA22FF0EE350DE5CD8A0D6D7FF0E74
:1017C000E3500B6E0C6AF10EE3500B26F20EE35061
:1017D0000C225D0E0B24D96E000E0C20DA6EDF6A2F
:1017E000000EE66E0A0EE66E1CECADF0380E011827
:1017F00041E10204D8A43ED0F30EE36A1ED0F30EFA
:10180000E3500B6E0C6A0A0E0B24D96E0A0E0C20E4
:10181000DA6EF30EE3500B6E0C6AF10EE3500B26FA
:10182000F20EE3500C22690E0B24E96E000E0C2020
:10183000EA6EDFC4EFF4F30EE32AE150F30FD96E42
:10184000E250DA6EFF0EDA22FF0EE350DE5CD8A023
:10185000D6D7FF0EE3500B6E0C6AF10EE3500B2649
:10186000F20EE3500C22690E0B24D96E000E0C20F0
:10187000DA6EDF6ABF92EF0EE3C4D9F4F00EE3C470
:10188000DAF4010EDF6EF10EE3C40BF5F20EE3C4E1
:101890000CF58D0E0B24D96E000E0C20DA6E010EA5
:1018A000DF6E6FD0BF82EF0EE3C4D9F4F00EE3C455
:1018B000DAF4DF6AF10EE3C40BF5F20EE3C40CF5C3
:1018C000060E0B24D96E000E0C20DA6EDF6AF10EC4
:1018D000E3C40BF5F20EE3C40CF5080E0B24D96E2D
:1018E000000E0C20DA6EDF6AF10EE3C40BF5F20E87
:1018F000E3C40CF5070E0B24D96E000E0C20DA6E33
:10190000DF6AF10EE3C40BF5F20EE3C40CF5090E29
:101910000B24D96E000E0C20DA6EDF6AF10EE3C4E0
:101920000BF5F20EE3C40CF50A0E0B24D96E000E73
:101930000C20DA6EDF6AF10EE3C40BF5F20EE3C49D
:101940000CF50C0E0B24D96E000E0C20DA6EDF6A3B
:10195000F10EE3C40BF5F20EE3C40CF50B0E0B24F1
:10196000D96E000E0C20DA6EDF6AFB0EE3C4E6F4DB
:10197000E3C4E6F4FB0EE3C4E6F4E3C4E6F4FFECF0
:10198000BBF0F10EE3C40BF5F20EE3C40CF5010E4F
:1019900085D0000EE66E65ECBCF00450031002101A
:1019A00004E1C80E015CD8A07FD0F10EE3C40BF5B2
:1019B000F20EE3C40CF5010E0B24D96E000E0C20C0
:1019C000DA6EDF6AF10EE3C4D9F4F20EE3C4DAF49E
:1019D000DF6A010E0501D827000ED923DA23DB23A5
:1019E000CE4BCF2BF10EE3C40BF5F20EE3C40CF596
:1019F000060E0B24D96E000E0C20DA6EDF6AEF0E95
:101A0000E3C4D9F4F00EE3C4DAF4DF6AF10EE3C400
:101A10000BF5F20EE3C40CF5080E0B24D96E000E84
:101A20000C20DA6EDF6AF10EE3C40BF5F20EE3C4AC
:101A30000CF5070E0B24D96E000E0C20DA6EDF6A4F
:101A4000F10EE3C40BF5F20EE3C40CF5090E0B2402
:101A5000D96E000E0C20DA6EDF6AF10EE3C40BF5CE
:101A6000F20EE3C40CF50A0E0B24D96E000E0C2006
:101A7000DA6EDF6AF10EE3C40BF5F20EE3C40CF587
:101A80000C0E0B24D96E000E0C20DA6EDF6AF10EFC
:101A9000E3C40BF5F20EE3C40CF50B0E0B24D96E68
:101AA000000E0C20DA6EDF6AED0EE126FF0EE22258
:101AB0001200E652DDC609F5DEC60AF5DFC60BF5F3
:101AC000E0C60CF50601DD2B000EDE23DF23E0234C
:101AD0000C500B100A1008E1280E095CD8B004D095
:101AE0000501E051D8B49CD30601DD6BDE6BDF6BE2
:101AF000E06BFD0EE3C40BF5FE0EE3C40CF5050E22
:101B00000B24D96E000E0C20DA6E010EDF6E5CD352
:101B1000FD0EE3C40BF5FE0EE3C40CF5050E0B241D
:101B2000D96E000E0C20DA6E020EDF6EACECC1F046
:101B3000A6ECC1F0FD0EE3C40BF5FE0EE3C40CF5FC
:101B4000010E0B24D96E000E0C20DA6E010EDF6E32
:101B5000FD0EE3C4D9F4FE0EE3C4DAF4FD0EE3C4D3
:101B60000BF5FE0EE3C40CF5020E0B24E96E000E1D
:101B70000C20EA6EDFC4EFF4FD0EE3C4D9F4FE0ED0
:101B8000E3C4DAF4DF2AFD0EE3C4D9F4FE0EE3C4A5
:101B9000DAF4080EDF64F8D0FD0EE3C4D9F4FE0ECB
:101BA000E3C4DAF4DF6AF0D0FD0EE3C40BF5FE0EF9
:101BB000E3C40CF5050E0B24D96E000E0C20DA6E72
:101BC000040EDF6E100EE66E000EE66EBC0EE66EC4
:101BD000080EE66E000EE66E0D0EE66E57EC9CF0FB
:101BE000C2D0FD0EE3C40BF5FE0EE3C40CF5050EEA
:101BF0000B24D96E000E0C20DA6E050EDF6E100E6F
:101C0000E66E000EE66E8E0EE66E070EE66E000EB7
:101C1000E66E0D0EE66E57EC9CF0A5D0FD0EE3C40B
:101C20000BF5FE0EE3C40CF5050E0B24D96E000E69
:101C30000C20DA6E050EDF6E100EE66E000EE66EFC
:101C4000DC0EE66E080EE66E000EE66E0D0EE66E1B
:101C500057EC9CF088D0FD0EE3C40BF5FE0EE3C4F8
:101C60000CF5050E0B24D96E000E0C20DA6E130E47
:101C7000DF6E100EE66E000EE66ECC0EE66E080EFF
:101C8000E66E000EE66E0D0EE66E57EC9CF06BD025
:101C9000FD0EE3C40BF5FE0EE3C40CF5050E0B249C
:101CA000D96E000E0C20DA6E080EDF6E100EE66E96
:101CB000000EE66EAC0EE66E080EE66E000EE66EE8
:101CC0000D0EE66E57EC9CF04ED0FD0EE3C40BF506
:101CD000FE0EE3C40CF5050E0B24D96E000E0C208D
:101CE000DA6E080EDF6E100EE66E000EE66E9C0ECB
:101CF000E66E080EE66E000EE66E0D0EE66E57EC12
:101D00009CF031D0FD0EE3C40BF5FE0EE3C40CF5E0
:101D1000010E0B24D96E000E0C20DA6EDF6AFD0E68
:101D2000E3C4D9F4FE0EE3C4DAF4DF6A6DD2FD0E2B
:101D3000E3C40BF5FE0EE3C40CF5050E0B24D96EBF
:101D4000000E0C20DA6E060EDF6E100EE66E000E30
:101D5000E66E9E0EE66E070EE66E000EE66E0D0E49
:101D6000E66E57EC9CF0FD0EE3C40BF5FE0EE3C4EB
:101D70000CF5030E0B24D96E000E0C20DA6E01C593
:101D8000DEF402C5DDF440D2FD0EE3C40BF5FE0E19
:101D9000E3C40CF5020E0B24D96E000E0C20DA6E93
:101DA000DF500B6E0C6A0C50000AD8A4CED70B5033
:101DB000000AD8B4BCD7010AD8B413D7030AD8B4E0
:101DC0002DD7010AD8B4F0D6070AD8B47ED7010AB5
:101DD000D8B441D7030AD8B45BD70E0AD8B492D787
:101DE000B4D7FD0EE3C40BF5FE0EE3C40CF5050EEF
:101DF0000B24D96E000E0C20DA6E090EDF6E000E79
:101E0000E66E95ECBCF004500310021004E1280EBD
:101E1000015CD8A0F9D1000EE66EA4ECC0F005017B
:101E2000CC6BFD0EE3C40BF5FE0EE3C40CF5010E06
:101E30000B24D96E000E0C20DA6E020EDF6EA0ECC1
:101E4000C1F0FD0EE3C40BF5FE0EE3C40CF5050E68
:101E50000B24D96E000E0C20DA6E0A0EDF6ED4D180
:101E6000FD0EE3C40BF5FE0EE3C40CF5050E0B24CA
:101E7000D96E000E0C20DA6E0B0EDF6E000E096EAE
:101E80000A6A0B6A0C6A000EE66E65ECBCF001C5CE
:101E900005F502C506F503C507F504C508F50C50A0
:101EA000081808E10B50071805E10A50061802E16E
:101EB00009500518D8B4A8D1FF0EE36A10D0FF0E60
:101EC000E3500B6E0C6A000E0B24D96E0D0E0C2025
:101ED000DA6EDF50E66EC7ECBBF0FF0EE32AFD0EB4
:101EE000E3C40BF5FE0EE3C40CF5030E0B24D96E10
:101EF000000E0C20DA6EFF0EE3500B6E0C6ADE5003
:101F00000B5CDE500C58D8A0DAD7FD0EE3C40BF5FD
:101F1000FE0EE3C40CF5010E0B24D96E000E0C204E
:101F2000DA6E030EDF6EA0ECC1F0FD0EE3C40BF51C
:101F3000FE0EE3C40CF5050E0B24D96E000E0C202A
:101F4000DA6E0C0EDF6E010EDC27000EDD23DE23C1
:101F5000DF23E06BCDECC1F00150D8A4A0ECC1F0C0
:101F6000FD0EE3C40BF5FE0EE3C40CF5030E0B24CB
:101F7000D96E000E0C20DA6EDEC40BF5DDC40CF554
:101F8000030E0B26000E0C220BC5E6F40CC5E6F47E
:101F900062ECC1F0C09438D1FD0EE3C40BF5FE0E27
:101FA000E3C40CF5050E0B24D96E000E0C20DA6E7E
:101FB0000D0EDF6E000E096E0A6A0B6A0C6A000EC7
:101FC000E66E65ECBCF001C505F502C506F503C576
:101FD00007F504C508F50C50081808E10B50071860
:101FE00005E10A50061802E109500518D8B40CD1D1
:101FF000FD0EE3C40BF5FE0EE3C40CF5050E0B2439
:10200000D96E000E0C20DA6E0E0EDF6E000EE66E3C
:10201000B3ECC0F0AFD0140EE66E000EE66EFB0E11
:10202000E3500C0F0B6EFC0EE3C40CF5000E0C22FB
:102030000BC5E6F40CC5E6F4F90EE3C4E6F4E3C41C
:10204000E6F45EEC89F0E0D0140EE66E000EE66E6B
:10205000FB0EE350070F0B6EFC0EE3C40CF5000EF5
:102060000C220BC5E6F40CC5E6F4F90EE3C4E6F465
:10207000E3C4E6F45EEC89F0C7D0140EE66E000E01
:10208000E66EFB0EE3500A0F0B6EFC0EE3C40CF57C
:10209000000E0C220BC5E6F40CC5E6F4F90EE3C401
:1020A000E6F4E3C4E6F45EEC89F0AED0140EE66E1E
:1020B000000EE66EFB0EE350080F0B6EFC0EE3C441
:1020C0000CF5000E0C220BC5E6F40CC5E6F4F90E77
:1020D000E3C4E6F4E3C4E6F45EEC89F095D0140EB4
:1020E000E66E000EE66EFB0EE350090F0B6EFC0E63
:1020F000E3C40CF5000E0C220BC5E6F40CC5E6F4A7
:10210000F90EE3C4E6F4E3C4E6F45EEC89F07CD0B7
:10211000140EE66E000EE66EFB0EE350090F0B6E1A
:10212000FC0EE3C40CF5000E0C220BC5E6F40CC546
:10213000E6F4F90EE3C4E6F4E3C4E6F45EEC89F0F9
:1021400063D0140EE66E000EE66EFB0EE350060F33
:102150000B6EFC0EE3C40CF5000E0C220BC5E6F46E
:102160000CC5E6F4F90EE3C4E6F4E3C4E6F45EEC71
:1021700089F04AD0FD0EE3C40BF5FE0EE3C40CF566
:10218000020E0B24D96E000E0C20DA6EDF500B6E9F
:102190000C6A0C50000AD8A4D4D70B50000AD8B44B
:1021A000D0D7010AD8B49BD7030AD8B4B1D7010A53
:1021B000D8B47CD7070AD8B447D7010AD8B45DD7BA
:1021C000030AD8B428D7BDD7FD0EE3C40BF5FE0E25
:1021D000E3C40CF5010E0B24D96E000E0C20DA6E50
:1021E000DF500B6E0C6A0C50000AD8A40DD00B50B7
:1021F000000AD8B48DD4010AD8B4F3D5030AD8B4F0
:102200002FD6010AD8B4C8D6FD0EE3C40BF5FE0ED6
:10221000E3C40CF5050E0B24D96E000E0C20DA6E0B
:10222000E552E552E5521200080EE126000EE222C8
:10223000F40EE3C4D9F4F50EE3C4DAF4DEC4F6F424
:10224000DDC4F7F4000EF86E0800F550250AD8A496
:102250009ED2F40EE3C4D9F4F50EE3C4DAF4DE2A18
:10226000000EDD22000E226E000E216E21C523F528
:10227000FF0EE36A21D02382F40EE3C4D9F4F50EF5
:10228000E3C4DAF4DE2A000EDD2216D0FF0EE36A84
:10229000E32A12D0F40EE3C4D9F4F50EE3C4DAF461
:1022A000DEC4F6F4DDC4F7F4000EF86E0800F55055
:1022B000300AD8B4E0D7EAD7FF0EE350D8B4EAD753
:1022C000F20EE3C4E6F4E3C4E6F4F20EE3C4E6F48B
:1022D000E3C4E6F4D3ECA5F001C521F502C522F56F
:1022E00022AE05D02380216C221ED8B0222AF40E03
:1022F000E3C4D9F4F50EE3C4DAF4DEC40BF5DDC4AF
:102300000CF5FD0E0CC5E3F4FC0E0BC5E3F4E15037
:10231000FC0FD96EE250DA6EFF0EDA22DEC4F6F45C
:10232000DDC4F7F4000EF86E0800FE0EF5C4E3F409
:1023300019D0FC0EE350010F016EFC0E01C5E3F451
:10234000016AFD0EE3500120016EFD0E01C5E3F4AC
:102350001BD0690E0C6EFE0E0CC5E3F415D0FE0EFC
:10236000E36A12D0FE0EE350580AD8B4F2D73C0A02
:10237000D8B4EFD70D0AD8B4ECD7050AD8B4D9D75A
:10238000190AD8B4E6D7EBD7E150FC0FD96EE2506A
:10239000DA6EFF0EDA22DEC4F6F4DDC4F7F4000EC6
:1023A000F86E0800F550640AD8B460D0E150FC0F14
:1023B000D96EE250DA6EFF0EDA22DEC4F6F4DDC426
:1023C000F7F4000EF86E0800F550690AD8B44ED044
:1023D00079D0F20EE3C4D9F4F30EE3C4DAF4020EBA
:1023E000DE5E000EDD5ADEC40BF5DDC40CF50BC558
:1023F000D9F40CC5DAF4DEC40BF5DDC40CF5F80E27
:102400000BC5E3F4F90E0CC5E3F4016AE3BE016801
:10241000FA0E01C5E3F4FB0E01C5E3F42FD0F20E72
:10242000E3C4D9F4F30EE3C4DAF4040EDE5E000E66
:10243000DD5ADEC40BF5DDC40CF50BC5D9F40CC5B3
:10244000DAF4DEC409F5DEC40AF5DEC40BF5DEC439
:102450000CF5F80E09C5E3F4F90E0AC5E3F4FA0E1B
:102460000BC5E3F4FB0E0CC5E3F408D0FE0EE350FD
:10247000690AD8B4AED7050AD8B4D1D7FC0EE35058
:10248000010F0B6EFD0EE3C40CF5000E0C22F40ED2
:10249000E3C4D9F4F50EE3C4DAF40BC5DEF40CC5DD
:1024A000DDF4F80EE3C4E6F4E3C4E6F4E3C4E6F4D2
:1024B000E3C4E6F4F20EE3C4E6F4E3C4E6F44AEC63
:1024C0009AF08AD1E150FC0FD96EE250DA6EFF0E1D
:1024D000DA22DEC4F6F4DDC4F7F4000EF86E08006C
:1024E000F550580AD8B463D0E150FC0FD96EE250D1
:1024F000DA6EFF0EDA22DEC4F6F4DDC4F7F4000E65
:10250000F86E0800F550750AD8B451D0A3D0F20E79
:10251000E3C4D9F4F30EE3C4DAF4020EDE5E000E77
:10252000DD5ADEC40BF5DDC40CF50BC5D9F40CC5C2
:10253000DAF4DEC40BF5DDC40CF50B50056E0C505F
:10254000066E076A086AF80E05C5E3F4F90E06C5BB
:10255000E3F4FA0E07C5E3F4FB0E08C5E3F42FD04D
:10256000F20EE3C4D9F4F30EE3C4DAF4040EDE5E33
:10257000000EDD5ADEC40BF5DDC40CF50BC5D9F435
:102580000CC5DAF4DEC409F5DEC40AF5DEC40BF5C9
:10259000DEC40CF5F80E09C5E3F4F90E0AC5E3F440
:1025A000FA0E0BC5E3F4FB0E0CC5E3F408D0FE0EE7
:1025B000E350690AD8B4ABD7050AD8B4D1D7FC0E1A
:1025C000E350010F0B6EFD0EE3C40CF5000E0C2260
:1025D000F40EE3C4D9F4F50EE3C4DAF40BC5DEF46B
:1025E0000CC5DDF422D0F80EE3C4E6F4E3C4E6F44F
:1025F000E3C4E6F4E3C4E6F4F20EE3C4E6F4E3C4B1
:10260000E6F414ECA2F0E8D0F80EE3C4E6F4E3C478
:10261000E6F4E3C4E6F4E3C4E6F4F20EE3C4E6F45D
:10262000E3C4E6F45CECA1F0D7D0E150FC0FD96E26
:10263000E250DA6EFF0EDA22DEC4F6F4DDC4F7F4FF
:10264000000EF86E0800F550580AD8B4DDD72D0AF0
:10265000D8B4C9D7FF0EE36AF40EE3C4D9F4F50E7B
:10266000E3C4DAF4DEC4F6F4DDC4F7F4000EF86E69
:102670000800F550730AD8A40DD0F40EE3C4D9F4C1
:10268000F50EE3C4DAF4DE2A000EDD22FF0EE36A63
:10269000E32A4CD0F40EE3C4D9F4F50EE3C4DAF423
:1026A000DEC4F6F4DDC4F7F4000EF86E0800F55051
:1026B0006C0AD8A43BD0F40EE3C4D9F4F50EE3C4FD
:1026C000DAF4DEC40BF5DDC40CF5010E0B26000EAA
:1026D0000C220BC5F6F40CC5F7F4000EF86E0800DA
:1026E000F5506C0AD8A422D0F40EE3C4D9F4F50E48
:1026F000E3C4DAF4DEC40BF5DDC40CF5020E0B26E0
:10270000000E0C220BC5F6F40CC5F7F4000EF86EA3
:102710000800F550730AD8A409D0F40EE3C4D9F424
:10272000F50EE3C4DAF4030EDE26AED7FF0EE35057
:10273000D8B422D0F20EE3C4D9F4F30EE3C4DAF431
:10274000020EDE5E000EDD5ADEC40BF5DDC40CF5B4
:102750000BC5D9F40CC5DAF4DEC40BF5DDC40CF5F9
:102760000BC5E6F40CC5E6F4F40EE3C4E6F4E3C4EA
:10277000E6F43BEC99F030D0F40EE3C4D9F4F50E56
:10278000E3C4DAF4DE2A000EDD22000E22D0F60EBB
:10279000E3C4E6F4E3C4E6F4F20EE3C4D9F4F30EC2
:1027A000E3C4DAF4DEC4F6F4DDC4F7F4000EF86E28
:1027B0000800F550E66E000EE66E61ECA8F0F40E2F
:1027C000E3C4D9F4F50EE3C4DAF4DE2A000EDD2208
:1027D000010E016E000E026EF20EE126FF0EE222E5
:1027E0001200050EE126000EE222F70EE3C4D9F432
:1027F000F80EE3C4DAF4DEC409F5DEC40AF5DEC47B
:102800000BF5DEC40CF5FB0E09C5E3F4FC0E0AC59E
:10281000E3F4FD0E0BC5E3F4FE0E0CC5E3F4F70E76
:10282000E3C40BF5F80EE3C40CF5040E0B24D96ECB
:10283000000E0C20DA6EDFA080D0F90EE3C40BF599
:10284000FA0EE3C40CF5010E0B24D96E000E0C2019
:10285000DA6EFB0EE3C40CF5D8900C36D8900C362B
:10286000D8900C34F80BDF6E050E0C6EE150FB0FA8
:10287000D96EE250DA6EFF0EDA220C28DE5207D053
:10288000DE52DE52D890DD32DD32DD32DE32E82E2D
:10289000F7D7F90EE3C40BF5FA0EE3C40CF5020EFC
:1028A0000B24D96E000E0C20DA6EFB0EE3C4DFF4AD
:1028B000FC0EE124D96EFF0EE220DA6EDEC40AF5CA
:1028C000DEC40BF5DEC40CF50A50056E0B50066E27
:1028D0000C50076E086AFB0E05C5E3F4FC0E06C536
:1028E000E3F4FD0E07C5E3F4FE0E08C5E3F4F90EAC
:1028F000E3C40BF5FA0EE3C40CF5030E0B24D96EFA
:10290000000E0C20DA6EFB0EE3501F0BDF6E050E7F
:102910000C6EE150FB0FD96EE250DA6EFF0EDA2238
:102920000C28DE5207D0DE52DE52D890DD32DD3286
:10293000DD32DE32E82EF7D729D0F90EE3C40BF5ED
:10294000FA0EE3C40CF5030E0B24D96E000E0C2016
:10295000DA6EDF6AF90EE3C40BF5FA0EE3C40CF588
:10296000020E0B24E96E000E0C20EA6EDFC4EFF4B9
:10297000F90EE3C40BF5FA0EE3C40CF5010E0B24BB
:10298000D96E000E0C20DA6EEFC4DFF4F90EE3C44A
:10299000D9F4FA0EE3C4DAF4FB0EE3C4DFF4FC0E60
:1029A000E124D96EFF0EE220DA6EDEC40AF5DEC441
:1029B0000BF5DEC40CF50A50056E0B50066E0C507C
:1029C000076E086AFB0E05C5E3F4FC0E06C5E3F4CA
:1029D000FD0E07C5E3F4FE0E08C5E3F4FB0EE3C4E9
:1029E0000CF5070E0C16F90EE3C409F5FA0EE3C454
:1029F0000AF5010E0924D96E000E0A20DA6E0C5079
:102A0000DF12F70EE3C40BF5F80EE3C40CF5040E69
:102A10000B24D96E000E0C20DA6EDF30E8320F0B7B
:102A20000C6EFF0E0CC5E3F4F70EE3C40BF5F80EC5
:102A3000E3C40CF5040E0B24D96E000E0C20DA6EE4
:102A4000DFA003D0100E0C6E01D00C6AE150FF0F16
:102A5000D96EE250DA6EFF0EDA220C50DF12F70E5A
:102A6000E3C40BF5F80EE3C40CF5040E0B24D96E89
:102A7000000E0C20DA6EDFA203D0200E0C6E01D007
:102A80000C6AE150FF0FD96EE250DA6EFF0EDA22C7
:102A90000C50DF12F70EE3C40BF5F80EE3C40CF58F
:102AA000040E0B24D96E000E0C20DA6EDFAE03D0BC
:102AB000400E0C6E01D00C6AE150FF0FD96EE2504F
:102AC000DA6EFF0EDA220C50DF12F70EE3C40BF5BC
:102AD000F80EE3C40CF5040E0B24D96E000E0C2086
:102AE000DA6EDFAC03D0800E0C6E01D00C6AE150C0
:102AF000FF0FD96EE250DA6EFF0EDA220C50DF12B1
:102B0000F90EE3C40BF5FA0EE3C40CF5040E0B2426
:102B1000D96E000E0C20DA6EFF0EE3C4DFF4F70E60
:102B2000E3C40BF5F80EE3C40CF5040E0B24D96EC8
:102B3000000E0C20DA6EDFB242D0F70EE3C40BF5C4
:102B4000F80EE3C40CF5040E0B24D96E000E0C2015
:102B5000DA6EDF30E8320F0B0B6E0C6AE50E0B24D9
:102B6000F66EFD0E0C20F76EF86A000EF8220800D3
:102B7000F550E66E000EE66EF50EE3C40BF5F60EAC
:102B8000E3C40CF5050E0B24D96E000E0C20DA6E92
:102B9000DEC40BF5DDC40CF50BC5E6F40CC5E6F49C
:102BA000F50EE350080F0B6EF60EE3C40CF5000EA5
:102BB0000C220BC5E6F40CC5E6F411ECABF0F70EF5
:102BC000E126FF0EE2221200050EE126000EE222AF
:102BD000F90EE3C40BF5FA0EE3C40CF5040E0B2456
:102BE000D96E000E0C20DA6EDF500C6EFF0E0CC595
:102BF000E3F4FF0EE3C40CF5F70EE3C409F5F80E99
:102C0000E3C40AF5040E0924D96E000E0A20DA6E18
:102C10000C460C46DF500C18C30B0C18DF6EFF0E71
:102C2000E3A803D00C6A0C2A01D00C6AF70EE3C4A7
:102C300009F5F80EE3C40AF5040E0924D96E000E56
:102C40000A20DA6EDF500C18FE0B0C18DF6EFF0E38
:102C5000E3AA03D00C6A0C2A01D00C6AF70EE3C475
:102C600009F5F80EE3C40AF5040E0924D96E000E26
:102C70000A20DA6E0C46DF500C18FD0B0C18DF6EC4
:102C8000FF0EE3AC03D00C6A0C2A01D00C6AF70EDD
:102C9000E3C409F5F80EE3C40AF5040E0924D96E5D
:102CA000000E0A20DA6E0C320C32DF500C187F0B4B
:102CB0000C18DF6EFF0EE3AE03D00C6A0C2A01D0B5
:102CC0000C6AF70EE3C409F5F80EE3C40AF5040E26
:102CD0000924D96E000E0A20DA6E0C3A0C460C4616
:102CE000DF500C18BF0B0C18DF6EF90EE3C40BF5A8
:102CF000FA0EE3C40CF5010E0B24D96E000E0C2065
:102D0000DA6EDF500C6E070E0C160CC505F5066A60
:102D1000076A086AFB0E05C5E3F4FC0E06C5E3F47A
:102D2000FD0E07C5E3F4FE0E08C5E3F4E150FB0F0A
:102D3000D96EE250DA6EFF0EDA22080ED890DE3637
:102D4000DE36DE36DD36DD52DD52E82EF7D7E150D5
:102D5000FB0FD96EE250DA6EFF0EDA22F90EE3C4F1
:102D6000E9F4FA0EE3C4EAF4EF50DE12000EDE12CC
:102D7000DE12DE12F70EE3C40BF5F80EE3C40CF519
:102D8000040E0B24D96E000E0C20DA6EDFA087D063
:102D9000E150FB0FD96EE250DA6EFF0EDA22050E1B
:102DA000D890DE36DE36DE36DD36DD52DD52E82EF8
:102DB000F7D7E150FB0FD96EE250DA6EFF0EDA2240
:102DC000F90EE3C40BF5FA0EE3C40CF5030E0B2465
:102DD000E96E000E0C20EA6EEF501F0BDE12000EA3
:102DE000DE12DE12DE12E150FB0FD96EE250DA6E17
:102DF000FF0EDA22080ED890DE36DE36DE36DD36FD
:102E0000DD52DD52E82EF7D7E150FB0FD96EE250CC
:102E1000DA6EFF0EDA22F90EE3C40BF5FA0EE3C404
:102E20000CF5020E0B24E96E000E0C20EA6EEF503A
:102E3000DE12000EDE12DE12DE12E150FB0FD96E42
:102E4000E250DA6EFF0EDA22050ED890DE36DE365C
:102E5000DE36DD36DD52DD52E82EF7D7E150FB0FCE
:102E6000D96EE250DA6EFF0EDA22F90EE3C40BF5EA
:102E7000FA0EE3C40CF5010E0B24E96E000E0C20D3
:102E8000EA6EEF500C6ED8900C32D8900C32D8907D
:102E90000C301F0BDE12000EDE12DE12DE12E150CD
:102EA000FB0FD96EE250DA6EFF0EDA22F70EE3C4A2
:102EB000E9F4F80EE3C4EAF4DEC4EEF4DEC4EEF4A2
:102EC000DEC4EEF4DEC4EEF4F70EE3C40BF5F80E48
:102ED000E3C40CF5040E0B24D96E000E0C20DA6E40
:102EE000DF30E8320F0B0B6E0C6AE50E0B24F66E2A
:102EF000FD0E0C20F76EF86A000EF8220800F5505F
:102F0000E66E000EE66EF70EE3C40BF5F80EE3C4B2
:102F10000CF5080E0B24096E000E0C200A6E09C574
:102F2000E6F40AC5E6F4C00EE66E0B0EE66E11EC92
:102F3000ABF0F70EE3C40BF5F80EE3C40CF5050E89
:102F40000B24D96E000E0C20DA6EC00EDE6E0B0E56
:102F5000DD6EF70EE126FF0EE2221200E652FF0EB2
:102F6000E36ABFAC02D0010E01D0000EFF0A0C6E66
:102F70000C3A0C460C46BF500C18BF0B0C18BF6E19
:102F8000010E0601D827000ED923DA23DB23050121
:102F9000A651070DE80EF3240B6E060EF4200C6EFE
:102FA0000BC5E6F40CC5E6F4010EE66E94ECB6F043
:102FB0000150D8B456D1070EE66E000EE66E05013C
:102FC000A651070DE80EF3240B6E060EF4200C6ECE
:102FD0000BC5E6F40CC5E6F4F60EE66E060EE66EDC
:102FE00011ECABF00501A651070DE80EF324D96EE4
:102FF000060EF420DA6EDF500F0B020AD8B40DD0A3
:10300000A651070DE80EF324D96E060EF420DA6EF1
:10301000DF500F0B030AD8A445D0400EE66E000E19
:10302000E66EA651070DED0EF324D96E060EF420C0
:10303000DA6EDEC40BF5DDC40CF50BC5E6F40CC589
:10304000E6F4A651400D000EF3240B6E0E0EF42094
:103050000C6E0BC5E6F40CC5E6F411ECABF0050103
:10306000A651070DE80EF324D96E060EF420DA6E91
:10307000DF500F0B020AD8A403D0010EA66FF9D0BF
:10308000A651070DE80EF324D96E060EF420DA6E71
:10309000DF500F0B030AD8A405D0A66B010E060162
:1030A000DC6FE7D0A651070DE80EF324D96E060EAB
:1030B000F420DA6EDF500F0B0C0AD8A41BD0400EA0
:1030C000E66E000EE66EA651070DED0EF324D96EE6
:1030D000060EF420DA6EDEC40BF5DDC40CF50BC56C
:1030E000E6F40CC5E6F4800EE66E0E0EE66E11EC0C
:1030F000ABF0BFD0A651070DE80EF324D96E060E33
:10310000F420DA6EDF500F0B0F0AD8A41BD0400E4C
:10311000E66E000EE66EA651070DED0EF324D96E95
:10312000060EF420DA6EDEC40BF5DDC40CF50BC51B
:10313000E6F40CC5E6F4C00EE66E0E0EE66E11EC7B
:10314000ABF097D0A651070DE80EF324D96E060E0A
:10315000F420DA6EDF500F0B0D0AD8A41ED0400EFB
:10316000E66E000EE66EA651070DED0EF324D96E45
:10317000060EF420DA6EDEC40BF5DDC40CF50BC5CB
:10318000E6F40CC5E6F4000EE66E0C0EE66E11ECED
:10319000ABF0010E0C01416F6CD00601F6510F0B24
:1031A0000A0AD8A456D0040EE66E000EE66EFBC6E0
:1031B000E6F4FCC6E6F4E10EE66E050EE66E11ECF2
:1031C000ABF0E10EE66E050EE66EFEECC0F001C55A
:1031D000E4F602C5E5F69EC5C8F70701C96B9FC5B1
:1031E000C6F7C76B0A0EE66EC00EE66E070EE66EF9
:1031F000A4ECAEF001C59EF502C59FF59EC5CCF7C7
:103200000701CD6B9FC5CAF7CB6B9EC5B8F7B96BED
:103210009FC5B6F7B76B0A0EE66EB00EE66E070EE8
:10322000E66EA4ECAEF001C59EF502C59FF59EC505
:10323000BCF70701BD6B9FC5BAF7BB6B06012251F6
:10324000D8B417D01D51D8B414D0010E07010D6F9A
:1032500010D0F6510F0B0E0AD8A403D0010E246F24
:1032600008D0FF0EE32AFF0EE3C401F5070E016448
:1032700087D6E5521200080EE126000EE222F40E77
:10328000E3C40BF5F50EE3C40CF5FB0E0CC5E3F43B
:10329000FA0E0BC5E3F4FA0EE3C401F5FB0EE3509E
:1032A0000110D8A40AD0FF0E016EFB0E01C5E3F495
:1032B000D90E016EFA0E01C5E3F4F80EE36AF90EB9
:1032C000E36A0FD0F80EE350010F016EF80E01C54E
:1032D000E3F4016AF90EE3500120016EF90E01C515
:1032E000E3F4FA0EE3C40BF5FB0EE3C40CF5F80EA1
:1032F000E3500B26F90EE3500C220BC5F6F40CC577
:10330000F7F4000EF86E3F0EF76403D00800F55096
:1033100005D0F6C4E9F4F7C4EAF4EF500009D8A4E4
:10332000D1D7F80EE3C401F5FE0E01C5E3F4F90EA2
:10333000E3C401F5FF0E01C5E3F4FC0E21C5E3F47F
:10334000FD0E22C5E3F423A01BD05AD0F60EE3C431
:10335000E6F4E3C4E6F4200EE66E000EE66E61ECE1
:10336000A8F0F80EE350010F016EF80E01C5E3F46A
:10337000016AF90EE3500120016EF90E01C5E3F474
:10338000E150F80FD96EE250DA6EFF0EDA22FC0E31
:10339000E350DE5CDE50800A016EFD0EE350800AD1
:1033A0000158D8B02DD0D2D7F60EE3C4E6F4E3C46A
:1033B000E6F4F80EE3C4F6F4F90EE3C4F7F4000EF5
:1033C000F86E3F0EF76403D00800F55005D0F6C440
:1033D000E9F4F7C4EAF4EF50E66E000EE66E61EC35
:1033E000A8F0FA0EE350010F016EFA0E01C5E3F4E6
:1033F000016AFB0EE3500120016EFB0E01C5E3F4F0
:10340000E150FE0FD96EE250DA6EFF0EDA22DE06D0
:10341000000EDD5ADE28C8E1DE28D8A4C5D723B0C7
:103420001BD02DD0F60EE3C4E6F4E3C4E6F4200E80
:10343000E66E000EE66E61ECA8F0F80EE350010FA8
:10344000016EF80E01C5E3F4016AF90EE3500120A4
:10345000016EF90E01C5E3F4E150F80FD96EE250A8
:10346000DA6EFF0EDA22FC0EE350DE5CDE50800ADC
:10347000016EFD0EE350800A0158D8A0D3D7F80E94
:10348000E3C401F5F90EE3C402F5F40EE126FF0EE4
:10349000E2221200080EE126000EE222FF0EE36A8D
:1034A000E32AF50EE3AE03D00C6A0C2A01D00C6AB5
:1034B000FE0E0CC5E3F4FC0E21C5E3F4FD0E22C59F
:1034C000E3F4FE0EE350D8B420D0E150FC0FD96EE7
:1034D000E250DA6EFF0EDA22DE06000EDD5AFE0E34
:1034E000E350D8A402D02B0E01D02D0E0B6E000E8F
:1034F0000C6EF80E0BC5E3F4F90E0CC5E3F4F80EF0
:10350000E3C401F5FE0E01C5E3F41F0E0B6E000EC1
:103510000C6EFA0E0BC5E3F4FB0E0CC5E3F40701C9
:10352000F56B62D0E150FA0FD96EE250DA6EFF0E01
:10353000DA22DE06000EDD5A0A0EE66E000EE66E98
:10354000000EE66E000EE66EEE0EE3C4E6F4E3C493
:10355000E6F4E3C4E6F4E3C4E6F4CCECA2F001C57F
:103560000BF502C50CF50BC5E6F40CC5E6F47DECD5
:10357000BCF0300E0126FA0EE3C40BF5FB0EE3C4DB
:103580000CF5D60E0B24D96E070E0C20DA6E01C591
:10359000DFF4FF0EE36AE150FC0FD96EE250DA6E01
:1035A000FF0EDA22DE06000EDD5A0A0EE66E000E6F
:1035B000E66E000EE66E000EE66EEE0EE3C4E6F476
:1035C000E3C4E6F4E3C4E6F4E3C4E6F4D4EC9FF029
:1035D000F20E01C5E3F4F30E02C5E3F4F40E03C5E5
:1035E000E3F4F50E04C5E3F4FB0EE3BE24D0FB0EBA
:1035F000E35004E1FA0EE304D8A01DD0F20EE3502C
:1036000091E1F30EE3508EE1F40EE3508BE1F50E01
:10361000E350D8A487D7FF0EE350D8A483D7FD0E7C
:10362000E3BE09D0FD0EE35004E1FC0EE304D8A094
:1036300002D023B277D7FE0EE350D8B419D0E150B0
:10364000FA0FD96EE250DA6EFF0EDA22DE06000EB5
:10365000DD5AFA0EE3C40BF5FB0EE3C40CF5D60EEF
:103660000B24D96E070E0C20DA6EFE0EE3C4DFF4D5
:10367000FC0EE3C4E6F4E3C4E6F4D60E0B6E070ECC
:103680000C6EF80EE3500B26F90EE3500C220BC51E
:10369000E6F40CC5E6F4F20EE3C4E6F4E3C4E6F4A3
:1036A000E6ECABF0F20EE126FF0EE2221200426FD2
:1036B0006F7420496E697420446973706C6179205D
:1036C00020200000000000000000000000000000BA
:1036D00000000000000000000000000000000000EA
:1036E00000000000000000000000000000000000DA
:1036F00000000000000000000000000000000000CA
:1037000000000000000000000000000000000000B9
:1037100000000000000000000000000000000000A9
:103720000000000000000000000000000000000099
:103730000000000000000000000000000000000089
:103740000000000000000000000000000000000079
:103750000000000000000000000000000000000069
:103760000000000000000000000000000000000059
:103770000000000000000000000000000000000049
:103780000000000000000000000000000000000039
:103790000000000000000000000000000000000029
:1037A0000000000000000000000000000000000019
:1037B0000000000000000000000000000000000009
:1037C00000000000000000000000000000000000F9
:1037D00000000000000000000000000000000000E9
:1037E00000000000000000000000000000000000D9
:1037F00000000000000000000000000000000000C9
:1038000000000000000000000000000000000000B8
:1038100000000000000000000000000000000000A8
:103820000000000000000000000000000000000098
:103830000000000000000000000000000000000088
:103840000000000000000000000000000000000078
:103850000000000000000000000000000000000068
:103860000000000000000000000000000000000058
:103870000000000000000000000000000000000048
:103880000000000000000000000000000000000038
:103890000000000000000000000000000000000028
:1038A00000000000000000000000000000000A0E00
:1038B000E126000EE222F00EE3C4E6F4E3C4E6F4EF
:1038C000F00EE3C4E6F4E3C4E6F4F00EE3C4E6F479
:1038D000E3C4E6F411ECABF0F00EE3C401F5100E16
:1038E000011868E1F10EE350D8A464D0F40EE3C4EB
:1038F0000BF5F50EE3C40CF5FF0E0CC5E3F4FE0E5C
:103900000BC5E3F4F40EE3C4E6F4E3C4E6F4FAEC26
:10391000B6F00150E66E000EE66EF20EE66EFF0E99
:10392000E66E040EE66E000EE66EF00EE124016E09
:10393000FF0EE220026E01C5E6F402C5E6F4080EB1
:10394000E66E31EC9EF0FE0EE3C40BF5FF0EE3C411
:103950000CF50C0E0B24D96E000E0C20DA6EF60E50
:10396000E3C4DFF4F70EE124D96EFF0EE220DA6E35
:10397000FE0EE3C40BF5FF0EE3C40CF50D0E0B2495
:10398000E96E000E0C20EA6EDFC4EFF4F80EE124BD
:10399000D96EFF0EE220DA6EFE0EE3C40BF5FF0EC9
:1039A000E3C40CF50E0E0B24E96E000E0C20EA6E3B
:1039B000DFC4EFF4F00EE3C401F5140E011868E162
:1039C000F10EE350D8A464D0F40EE3C40BF5F50E69
:1039D000E3C40CF5FD0E0CC5E3F4FC0E0BC5E3F4DB
:1039E000F40EE3C4E6F4E3C4E6F42AECB7F00150C5
:1039F000E66E000EE66EF20EE66EFF0EE66E040E4A
:103A0000E66E000EE66EF00EE124016EFF0EE2207F
:103A1000026E01C5E6F402C5E6F4080EE66E31EC6E
:103A20009EF0FC0EE3C40BF5FD0EE3C40CF5100E86
:103A30000B24D96E000E0C20DA6EF60EE3C4DFF410
:103A4000F70EE124D96EFF0EE220DA6EFC0EE3C41D
:103A50000BF5FD0EE3C40CF5110E0B24E96E000E00
:103A60000C20EA6EDFC4EFF4F80EE124D96EFF0EED
:103A7000E220DA6EFC0EE3C40BF5FD0EE3C40CF598
:103A8000120E0B24E96E000E0C20EA6EDFC4EFF478
:103A9000F00EE3C401F5F10EE3C402F5F00EE126E9
:103AA000FF0EE2221200AE0EF66E360EF76E010E1B
:103AB000F86E04EEF0F320EE00F20900F5C4EEF427
:103AC000DD50D950FAE1DA50F8E1C20EF66E4F0E31
:103AD000F76E010EF86E03EE00F220EE00F1090021
:103AE000F5C4EEF4DD50D950FAE1DA50F8E15A0E9F
:103AF000F66E790EF76E010EF86E02EEC9F120EE49
:103B00002EF00900F5C4EEF4DD50D950FAE1800E34
:103B1000F66E700EF76E010EF86E02EE9CF020EE5F
:103B200050F00900F5C4EEF4DD50D950FAE19E0ED4
:103B3000F66E580EF76E010EF86E01EE00F320EEF1
:103B4000CEF00900F5C4EEF4DD50D950FAE1E20EF2
:103B5000F66E6B0EF76E010EF86E01EE00F220EEBF
:103B600078F00900F5C4EEF4DD50D950FAE1340ED6
:103B7000F66E820EF76E010EF86E01EECAF120EEBF
:103B80001BF00900F5C4EEF4DD50D950FAE1EE0E59
:103B9000F66E830EF76E010EF86E01EE4AF120EE1E
:103BA00004F00900F5C4EEF4DD50D950FAE103EE5B
:103BB000F0F321EE00F0EE6ADD50D950FCE1DA506E
:103BC000FAE103EE00F3F00EEE6AE806FDE103EE23
:103BD00000F1F00EEE6AE806FDE103EE00F0840E5F
:103BE000EE6AE806FDE102EE00F320EE00F1EE6A77
:103BF000DD50D950FCE1DA50FAE102EE00F2F00EAD
:103C0000EE6AE806FDE102EE00F1C90EEE6AE80692
:103C1000FDE102EE00F09C0EEE6AE806FDE101EE29
:103C2000CEF3280EEE6AE806FDE101EEC0F23D0E8D
:103C3000EE6AE806FDE101EE60F14D0EEE6AE8067F
:103C4000FDE101EE21F1170EEE6AE806FDE1040147
:103C5000080E5D6F000E5E6F000E5F6F0001EDEFEE
:103C600084F0110EE126000EE222EB0EE3C401F512
:103C7000800E015ED8B0C4D0E80EE1240B6EFF0EBA
:103C8000E2200C6EFD0E0CC5E3F4FC0E0BC5E3F454
:103C9000EC0EE3C40BF5ED0EE3C40CF5F20E0CC50F
:103CA000E3F4F10E0BC5E3F4EB0EE35007E1EA0E8B
:103CB000E3C401F5020E015ED8A01CD0EA0EE35069
:103CC000FF0F0B6EEB0EE3C40CF5FF0E0C22FA0E89
:103CD000E124D96EFF0EE220DA6E0BC5DEF40CC5CE
:103CE000DDF4F30EE124D96EFF0EE220DA6EDE6A17
:103CF000DD6A14D0FA0EE124D96EFF0EE220DA6EEE
:103D0000010EDE6E000EDD6EF30EE124D96EFF0EA5
:103D1000E220DA6E010EDE6E000EDD6EFC0EE12496
:103D2000016EFF0EE220026E01C5E6F402C5E6F464
:103D3000E60EE3C4E6F4E3C4E6F4ED0EE124016E1E
:103D4000FF0EE220026E01C5E6F402C5E6F4D7ECF0
:103D5000B2F0FE0E01C5E3F4FF0E02C5E3F4EA0E75
:103D6000E3C401F5EB0EE3500110D8B449D0FF0EC7
:103D7000E3BE46D0EA0EE350FF0F0B6EEB0EE3C43A
:103D80000CF5FF0E0C22FE0EE3C401F50B50015C96
:103D9000FF0EE350800A016E0C50800A0158D8A033
:103DA00010D0EA0EE350FF0F0B6EEB0EE3C40CF5E0
:103DB000FF0E0C22EF0E0BC5E3F4F00E0CC5E3F47E
:103DC0000CD0FE0EE3C401F5EF0E01C5E3F4FF0EC7
:103DD000E3C401F5F00E01C5E3F4EF0EE3C40BF507
:103DE000F00EE3C40CF5EC0EE3C409F5ED0EE3C4EC
:103DF0000AF50B500924D96E0C500A20DA6EDF6ADE
:103E0000EF0EE126FF0EE222E552E750E15E000EE2
:103E1000E25A1200FAC438F5FBC439F5F6C43AF593
:103E2000F7C43BF5F8C43CF5F5C43DF501C53EF5D6
:103E300002C53FF503C540F504C541F505C542F58A
:103E400006C543F507C544F508C545F509C546F55A
:103E50000AC547F50BC548F50CC549F518EEF6F04F
:103E600001011DAF0FD001D80BD00500FA6E05017E
:103E70009351FD6E9451FE6E9551FF6EFA501200F3
:103E800001011D9F1DAD0FD001D80BD00500FA6EAA
:103E900005019051FD6E9151FE6E9251FF6EFA50E8
:103EA000120001011D9D1DAB0FD001D80BD00500E4
:103EB000FA6E05018D51FD6E8E51FE6E8F51FF6EB3
:103EC000FA50120001011D9B1CA70FD001D80BD086
:103ED0000500FA6E05018A51FD6E8B51FE6E8C5104
:103EE000FF6EFA50120001011C971DA90FD001D8D6
:103EF0000BD00500FA6E05018751FD6E8851FE6EEC
:103F00008951FF6EFA50120001011D991DA514D0B0
:103F100001D80BD00500FA6E05018451FD6E855164
:103F2000FE6E8651FF6EFA501200010154B9549989
:103F30006CB96C9978B978991DA710D001D80BD0BD
:103F40000500FA6E0601E151FD6EE251FE6EE3518D
:103F5000FF6EFA501200010160B76097AE9C49C530
:103F60000CF548C50BF547C50AF546C509F545C525
:103F700008F544C507F543C506F542C505F541C535
:103F800004F540C503F53FC502F53EC501F53DC545
:103F9000F5F43CC5F8F43BC5F7F43AC5F6F439C579
:103FA000FBF438C5FAF41100060EE126000EE222F9
:103FB000FE0EE36AF50EE3AE14D0F20EE36CF30EE0
:103FC000E31EF40EE31EF50EE31E08E3F30EE32AF0
:103FD00005E3F40EE32A02E3F50EE32AFE0EE36A9C
:103FE000E32AF90EE3AE13D0F60EE36CF70EE31EF0
:103FF000F80EE31EF90EE31E08E3F70EE32A05E3CD
:10400000F80EE32A02E3F90EE32AFE0EE370FA0E3D
:10401000E36AFB0EE36AFC0EE36AFD0EE36AF20E4E
:10402000E3500AE1F30EE35007E1F40EE35004E13C
:10403000F50EE350D8B457D0FF0EE36A0AD0D890FB
:10404000F20EE336F30EE336F40EE336F50EE33606
:10405000FF0EE32AF50EE3AEF2D7D890FA0EE33660
:10406000FB0EE336FC0EE336FD0EE336E150F60FB1
:10407000D96EE250DA6EFF0EDA22F20EE350DE5C09
:10408000F30EE350DE58F40EE350DE58F50EE35025
:10409000DE58D8A015D0E150F60FD96EE250DA6E96
:1040A000FF0EDA22F20EE350DE5EF30EE350DE5A2C
:1040B000F40EE350DE5AF50EE350DE5AFA0EE380BA
:1040C000D890F50EE332F40EE332F30EE332F20E43
:1040D000E332FF0EE350016E010E015EFF0E01C5DB
:1040E000E3F4D8A4BAD7FE0EE350D8B411D0FA0E38
:1040F000E36CFB0EE31EFC0EE31EFD0EE31E08E365
:10410000FB0EE32A05E3FC0EE32A02E3FD0EE32A9D
:10411000FA0EE3C401F5FB0EE3C402F5FC0EE3C4A2
:1041200003F5FD0EE3C404F5F20EE126FF0EE222D4
:104130001200070EE126000EE22206011E51D8A44D
:10414000B6D0FD0EE124D96EFF0EE220DA6EDF8ECE
:10415000FD0EE124D96EFF0EE220DA6E3C0EDF1276
:10416000FD0EE124D96EFF0EE220DA6EDF8CFD0E2B
:10417000E124D96EFF0EE220DA6EDF92FD0EE1241B
:10418000D96EFF0EE220DA6EDF8021EE19F2DEC476
:104190000BF5DDC40CF50B3A0C3AF00E0C160B5077
:1041A0000F0B0C12F00E0B16F80EE3500B24096ED9
:1041B000000E0C200A6E040E0924056E000E0A2063
:1041C000066E076A086AF90E05C5E3F4FA0E06C51D
:1041D000E3F4FB0E07C5E3F4FC0E08C5E3F4E1507D
:1041E000F60FD96EE250DA6EFF0EDA22FE0EE124EF
:1041F000E96EFF0EE220EA6EDEC4EEF4DDC4EDF4FB
:10420000000EE66E32ECBCF001A00ED0F90EE124F7
:10421000016EFF0EE220026E01C5E6F402C5E6F46F
:10422000000EE66E6CECB0F021EE19F2DEC40BF578
:10423000DDC40CF50B3A0C3AF00E0C160B500F0BBC
:104240000C12F00E0B160D0E0B24056E000E0C203A
:10425000066E076A086AF90E05C5E3F4FA0E06C58C
:10426000E3F4FB0E07C5E3F4FC0E08C5E3F4FE0E11
:10427000E124D96EFF0EE220DA6E420EDE6E0C0EE5
:10428000DD6E030EE66E32ECBCF001A00ED0F90E2E
:10429000E124016EFF0EE220026E01C5E6F402C5C4
:1042A000E6F4030EE66E6CECB0F00C01826BF60ED9
:1042B000E126FF0EE2221200060EE126000EE222A7
:1042C000FF0EE36AE32AFC0E21C5E3F4FD0E22C5CE
:1042D000E3F41F0E0B6E000E0C6EFA0E0BC5E3F42A
:1042E000FB0E0CC5E3F40701F56B55D0E150FA0F56
:1042F000D96EE250DA6EFF0EDA22DE06000EDD5ACB
:10430000F40EE3C40CF50F0E0C16FE0E0CC5E3F410
:10431000FE0EE3C401F50A0E016005D0FE0EE3C4F3
:1043200001F5300E04D0FE0EE3C401F5370E012670
:10433000FE0E01C5E3F4FA0EE3C40BF5FB0EE3C475
:104340000CF5D60E0B24D96E070E0C20DA6EFE0E7D
:10435000E3C4DFF4FF0EE36AE150FC0FD96EE250D4
:10436000DA6EFF0EDA22DE06000EDD5A040E0C6E47
:10437000E150F40FD96EE250DA6EFF0EDA220C280B
:10438000DE5207D0DE52DE52D890DD32DD32DD3231
:10439000DE32E82EF7D7FB0EE3BE27D0FB0EE3504C
:1043A00007E1FA0EE3C401F5020E015ED8A01DD0AC
:1043B000F40EE3509BE1F50EE35098E1F60EE35066
:1043C00095E1F70EE350D8A491D7FF0EE350D8A49F
:1043D0008DD7FD0EE3BE09D0FD0EE35004E1FC0EC7
:1043E000E304D8A002D023B281D7FC0EE3C4E6F4E4
:1043F000E3C4E6F4D60E0B6E070E0C6EF80EE35017
:104400000B26F90EE3500C220BC5E6F40CC5E6F4BE
:10441000F40EE3C4E6F4E3C4E6F4E6ECABF0F40E29
:10442000E126FF0EE2221200050EE126000EE22236
:10443000FF0EE36AE32AFD0E21C5E3F4FE0E22C55A
:10444000E3F41F0E0B6E000E0C6EFB0E0BC5E3F4B7
:10445000FC0E0CC5E3F40701F56B5AD0E150FB0FDD
:10446000D96EE250DA6EFF0EDA22DE06000EDD5A59
:104470000A0EE66E000EE66E000EE66E000EE66EAA
:10448000F10EE3C4E6F4E3C4E6F4E3C4E6F4E3C403
:10449000E6F4A6ECAAF001C50CF5300E0C26FB0ED6
:1044A000E3C409F5FC0EE3C40AF5D60E0924D96E5F
:1044B000070E0A20DA6E0CC5DFF4FF0EE36AE15046
:1044C000FD0FD96EE250DA6EFF0EDA22DE06000E24
:1044D000DD5A0A0EE66E000EE66E000EE66E000E67
:1044E000E66EF10EE3C4E6F4E3C4E6F4E3C4E6F4F6
:1044F000E3C4E6F460ECA7F0F50E01C5E3F4F60EB4
:1045000002C5E3F4F70E03C5E3F4F80E04C5E3F4C3
:10451000FB0EE3C401F5FC0EE3500110D8B41DD02E
:10452000F50EE3509BE1F60EE35098E1F70EE350F1
:1045300095E1F80EE350D8A491D7FF0EE350D8A42C
:104540008DD7FE0EE3BE09D0FE0EE35004E1FD0E52
:10455000E304D8A002D023B281D7FD0EE3C4E6F471
:10456000E3C4E6F4D60E0B6E070E0C6EF90EE350A4
:104570000B26FA0EE3500C220BC5E6F40CC5E6F44C
:10458000F50EE3C4E6F4E3C4E6F4E6ECABF0F50EB6
:10459000E126FF0EE2221200E652E652FE0EE36A28
:1045A000FD0EE3AE14D0FA0EE36CFB0EE31EFC0E20
:1045B000E31EFD0EE31E08E3FB0EE32A05E3FC0EFB
:1045C000E32A02E3FD0EE32AFE0EE36AE32AF90E74
:1045D000E3AE11D0F60EE36CF70EE31EF80EE31E09
:1045E000F90EE31E08E3F70EE32A05E3F80EE32ACB
:1045F00002E3F90EE32AF60EE3500AE1F70EE35068
:1046000007E1F80EE35004E1F90EE350D8B44CD0C2
:10461000FF0EE36A0AD0D890F60EE336F70EE336C3
:10462000F80EE336F90EE336FF0EE32AF90EE3AE99
:10463000F2D7E150FA0FD96EE250DA6EFF0EDA22AD
:10464000F60EE350DE5CF70EE350DE58F80EE35052
:10465000DE58F90EE350DE58D8A013D0E150FA0F1F
:10466000D96EE250DA6EFF0EDA22F60EE350DE5E0D
:10467000F70EE350DE5AF80EE350DE5AF90EE3501F
:10468000DE5AD890F90EE332F80EE332F70EE33239
:10469000F60EE332FF0EE350016E010E015EFF0ED7
:1046A00001C5E3F4D8A4C5D7FE0EE350D8B411D0A9
:1046B000FA0EE36CFB0EE31EFC0EE31EFD0EE31E82
:1046C00008E3FB0EE32A05E3FC0EE32A02E3FD0EFA
:1046D000E32AFA0EE3C401F5FB0EE3C402F5FC0E77
:1046E000E3C403F5FD0EE3C404F5F60EE126FF0E68
:1046F000E2221200E652E652E652FD0EE36AFE0E98
:10470000E36AFF0EE36A0FD0FB0EE350010F016E68
:10471000FB0E01C5E3F4016AFC0EE3500120016EBB
:10472000FC0E01C5E3F4FB0EE3C4D9F4FC0EE3C4B4
:10473000DAF4DF50200AD8B4E7D7FB0EE3C4D9F48B
:10474000FC0EE3C4DAF4DF500C6EF70E0C26040EF8
:104750000C64DAD7FB0EE3C4D9F4FC0EE3C4DAF43C
:10476000DF502D0AD8A413D0FF0EE36AE32AFB0E14
:10477000E350010F016EFB0E01C5E3F4016AFC0E6C
:10478000E3500120016EFC0E01C5E3F42FD0FB0EB7
:10479000E3C4D9F4FC0EE3C4DAF4DF502B0AD8B436
:1047A000E6D724D0FD0EE3C40BF5FE0EE3C40CF5F2
:1047B0000A0E0B02F3C409F5F4C40AF50C02F35017
:1047C0000A26FB0EE3C4D9F4FC0EE3C4DAF4DF508E
:1047D000095E000E0A5A300E0926000E0A22FD0E4E
:1047E00009C5E3F4FE0E0AC5E3F4C1D7FB0EE3C42A
:1047F000D9F4FC0EE3C4DAF4DF500C6ED00E0C26B4
:10480000090E0C64CFD7FF0EE350D8A40CD0FD0ED8
:10481000E3C401F5011EFE0EE3C402F5021E012AE7
:10482000D8B4022A06D0FD0EE3C401F5FE0EE3C49F
:1048300002F5FB0EE126FF0EE2221200E652E652DE
:10484000E652FE0EE36AFA0EE3C40BF5FB0EE3C478
:104850000CF5040E0B24D96E000E0C20DA6EDF501E
:104860000C6EFD0E0CC5E3F4FC0EE3500C0D530E64
:10487000F324D96E010EF420DA6EDF500C6E050EB3
:10488000016ED8900C32012EFCD7070E0C16FF0ECD
:104890000CC5E3F4E150FD0FD96EE250DA6EFF0E65
:1048A000DA22DFAE0BD0010101B906D0B2ECC1F0C3
:1048B000060E0118D8A402D0FE0EE382E150FD0FCF
:1048C000D96EE250DA6EFF0EDA22DF30E8320F0BDB
:1048D0000C6E080E0C6411D0E150FD0FD96EE25041
:1048E000DA6EFF0EDA22DFAC06D0B2ECC1F0060EB3
:1048F0000118D8A402D0FE0EE380FF0EE3500B6E29
:104900000C6A080E0B26000E0C22E50E0B24F66E28
:10491000FD0E0C20F76EF86A000EF8220800F5C4B0
:104920000CF5E150FD0FD96EE250DA6EFF0EDA227F
:10493000DF30E8320F0B096E0A6AE50E0924F66EC5
:10494000FD0E0A20F76EF86A000EF8220800F550F6
:104950000C5CD8B002D0FE0EE380FC0EE350E66E95
:10496000C2ECC0F00150D8A403D0FE0EE380E38275
:10497000FE0EE3C401F5FA0EE126FF0EE22212005C
:10498000BFAC02D0010E01D0000EFF0A0C6E0C3A33
:104990000C460C46BF500C18BF0B0C18BF6E262AD5
:1049A00026040C6E040E0C642FD029062928D8B4D6
:1049B00028D02850020D420EF324D96E080EF420A0
:1049C000DA6E000EDE5C010EDE58D8A00CD0285046
:1049D000020D420EF324D96E080EF420DA6EDF5079
:1049E0000201A56F0CD02850020D420EF324D96E9F
:1049F000080EF420DA6EDF50E66E99ECC1F0282A3A
:104A000002D0286A296A266A0201B2A307D0A1C28D
:104A100000F80801016B0201B293276AB2A02DD001
:104A2000B2511F0E276402D0276ABF82B2AD0ED0EA
:104A3000276A2750020D000EF324D96E080EF420C9
:104A4000DA6E000EDE6E010EDD6E0AD02750020D0A
:104A5000000EF324D96E080EF420DA6EDE6ADD6AE9
:104A60002750020D000EF324D96E080EF420DA6EE2
:104A7000A151DE26000EDD22272A000EE66EE66E2C
:104A8000E66E000EE66E000EE66E000EE66E000E9E
:104A9000E66E0FECB1F01200060EE126000EE222E7
:104AA000F7C409F50A6A0B6A0C6A0BC50CF50AC54E
:104AB0000BF509C50AF5096AF8C405F5066A076A1F
:104AC000086A06C508F505C507F5066A056A0950AE
:104AD00005120A5006120B5007120C500812F6501D
:104AE0000510096E06500A6E07500B6E08500C6ECA
:104AF000FA0E09C5E3F4FB0E0AC5E3F4FC0E0BC580
:104B0000E3F4FD0E0CC5E3F4F90EE124D96EFF0EBB
:104B1000E220DA6EDF50F86EF80EE124D96EFF0E57
:104B2000E220DA6EDF50F76EF70EE3C4F6F4090008
:104B3000F5500B6E0C6AFE0E0BC5E3F4FF0E0CC5B0
:104B4000E3F40800F5500C6E0B6AFE0EE3C401F5A9
:104B50000B500112FE0E01C5E3F4FF0EE3C401F594
:104B60000C500112FF0E01C5E3F4FC0EE124D96ED6
:104B7000FF0EE220DA6EDF50F86EFB0EE124D96EF4
:104B8000FF0EE220DA6EDF50F76EFA0EE3C4F6F4A1
:104B9000FE0EE3C401F5FF0EE3C402F5F70EE126B5
:104BA000FF0EE2221200E652E652E652FE0EE36AE1
:104BB000FF0EE36AFB0EE3C4D9F4FC0EE3C4DAF49F
:104BC000DEC4F6F4DDC4F7F4000EF86E0800F5500C
:104BD0002A0AD8A449D0FB0EE3C4D9F4FC0EE3C4DE
:104BE000DAF4DE2A000EDD22F90EE3C4D9F4FA0E5F
:104BF000E3C4DAF4020EDE5E000EDD5ADEC40BF50D
:104C0000DDC40CF50BC5D9F40CC5DAF4DEC40BF524
:104C1000DDC40CF5FE0E0BC5E3F4FF0E0CC5E3F48A
:104C20003DD0FE0EE3C40BF5FF0EE3C40CF50A0EF7
:104C30000B02F3C409F5F4C40AF50C02F3500A267A
:104C4000FD0EE3500926000E0A22FE0E09C5E3F40C
:104C5000FF0E0AC5E3F4FB0EE3C4D9F4FC0EE3C473
:104C6000DAF4DE2A000EDD22FB0EE3C4D9F4FC0EDA
:104C7000E3C4DAF4DEC4F6F4DDC4F7F4000EF86E33
:104C80000800F5C40CF5D00E0C26FD0E0CC5E3F49F
:104C9000FD0EE3C401F5090E0164C3D7FE0EE3C4A3
:104CA00001F5FF0EE3C402F5F90EE126FF0EE22244
:104CB0001200E652C18EFF0EE36AFF0EE3500B6E48
:104CC0000C6A250E0B24D96E060E0C20DA6EFF0E30
:104CD000E350E66EE3ECBBF00150DF6EFF0EE350F5
:104CE0000B6E0C6A090E0B24D96E060E0C20DA6EC0
:104CF000DF50D8B44DD0FF0EE350020D760EF324F2
:104D0000D96E050EF420DA6EDE2A000EDD222D0E9D
:104D1000DE5C010EDE58D8A046D0FF0EE3500B6ECD
:104D20000C6A0C0E0B24D96E060E0C20DA6EFF0EE8
:104D3000E3500B6E0C6A250E0B24E96E060E0C2058
:104D4000EA6EDE50EE18D8A42ED0FF0EE350020D0E
:104D5000760EF324D96E050EF420DA6EDE6ADD6A73
:104D6000FF0EE3500B6E0C6A090E0B24D96E060E73
:104D70000C20DA6EDF6AFF0EE3500B6E0C6A060E33
:104D80000B24D96E060E0C20DA6E010EDF6E0BD0EE
:104D9000FF0EE350020D760EF324D96E050EF420BB
:104DA000DA6EDE6ADD6AFF0EE32AFF0EE3C401F568
:104DB000020E016482D7C19EE5521200E652E6520D
:104DC000E652E652FF0EE36AFA0EE350E66ED1ECCD
:104DD000C0F0FE0E01C5E3F4FE0EE3A069D0FA0EAA
:104DE000E3500C0D580EF324D96E010EF420DA6E48
:104DF000DEC40BF5DDC40CF5FD0E0CC5E3F4FC0EB2
:104E00000BC5E3F4FC0EE3C401F5FD0EE350011005
:104E1000D8B44ED0F80EE3C4E6F4E3C4E6F4FA0ED8
:104E2000E3C4E6F4E3C4E6F4E4EC95F0FA0EE350F0
:104E30000C0D510EF324D96E010EF420DA6E000E23
:104E4000DB80FB0EE350020D4B0EF324D96E050EF2
:104E5000F420DA6EDF2AFA0EE350E66E83ECC0F03F
:104E6000FB0EE350020D4B0EF324D96E050EF42019
:104E7000DA6E0150DE5CD8A00AD0FB0EE350020DC2
:104E80004B0EF324D96E050EF420DA6EDF6AFE0EA7
:104E9000E3A60BD0FA0EE3500C0D540EF324D96E9A
:104EA000010EF420DA6EF70EDF16FF0EE36AE32A36
:104EB000FF0EE3C401F5F80EE126FF0EE222120018
:104EC000050EE126000EE222FB0EE36AFC0EE36A09
:104ED000FD0EE36AFE0EE36AF30EE3500AE1F40E00
:104EE000E35007E1F50EE35004E1F60EE350D8B4C9
:104EF00057D0FF0EE36A0AD0D890F30EE336F40ED3
:104F0000E336F50EE336F60EE336FF0EE32AF60E31
:104F1000E3AEF2D7D890FB0EE336FC0EE336FD0E7F
:104F2000E336FE0EE336E150F70FD96EE250DA6E4B
:104F3000FF0EDA22F30EE350DE5CF40EE350DE588F
:104F4000F50EE350DE58F60EE350DE58D8A015D02B
:104F5000E150F70FD96EE250DA6EFF0EDA22F30E4F
:104F6000E350DE5EF40EE350DE5AF50EE350DE5AF7
:104F7000F60EE350DE5AFB0EE380D890F60EE332D5
:104F8000F50EE332F40EE332F30EE332FF0EE3509C
:104F9000016E010E015EFF0E01C5E3F4D8A4BAD77D
:104FA000FB0EE3C401F5FC0EE3C402F5FD0EE3C401
:104FB00003F5FE0EE3C404F5F30EE126FF0EE22234
:104FC0001200206E6F206461746120202020202058
:104FD0002020202020200000000000000000000011
:104FE00000000000000000000000000000000000C1
:104FF00000000000000000000000000000000000B1
:105000000000206E6F5F64617461302020202020DA
:1050100020202020202000000000000000000000D0
:105020000000000000000000000000000000000080
:105030000000000000000000000000000000000070
:105040000000206E6F20696E666F312020202020C6
:105050002020202020200000000000000000000090
:105060000000000000000000000000000000000040
:105070000000000000000000000000000000000030
:105080000000206E6F20696E666F32202020202085
:105090002020202020200000000000000000000050
:1050A0000000000000000000000000000000000000
:1050B00000000000000000000000000000000000F0
:1050C0000000FC0EE3C401F5FD0EE3500110D8B45E
:1050D00008D0FC0EE3C401F5FD0EE3500110D8A486
:1050E00006D0FE0EE350E66E76ECC1F064D0FC0E06
:1050F000E3C40BF5FD0EE3C40CF5090E0B24D96EC9
:10510000000E0C20DA6EDE50DE10D8B422D0FC0E79
:10511000E3C40BF5FD0EE3C40CF5090E0B24D96EA8
:10512000000E0C20DA6EFC0EE3C40BF5FD0EE3C49A
:105130000CF5020E0B24E96E000E0C20EA6EDE5018
:10514000EE5CEE50800A016EDE50800A0158D8B045
:1051500032D0FC0EE3C40BF5FD0EE3C40CF5020ED9
:105160000B24D96E000E0C20DA6EDEC40BF5DDC404
:105170000CF5FC0EE3C4D9F4FD0EE3C4DAF4DEC48E
:1051800009F5DDC40AF50B500924D96E0C500A202C
:10519000DA6EFE0EE3C4DFF4FC0EE3C40BF5FD0E85
:1051A000E3C40CF5020E0B24D96E000E0C20DA6E4F
:1051B000DE2A000EDD22E552E552E552E5521200EC
:1051C000E652E652E652FD0EE36AFE0EE36AF90E7F
:1051D000E3C401F5FA0EE3500110D8B45BD0FF0E22
:1051E000E36A10D0F90EE350D890E834016EF90E5E
:1051F00001C5E3F4FA0EE350E834016EFA0E01C57E
:10520000E3F4FF0EE32AFA0EE3AEECD7FD0EE35013
:10521000D890E834016EFD0E01C5E3F4FE0EE350B4
:10522000E834016EFE0E01C5E3F4F90EE3C40BF59C
:10523000FA0EE3C40CF5FB0EE3C409F5FC0EE3C45F
:105240000AF50B50095C0C500A58D8A014D0FB0E7C
:10525000E350016EF90EE350015EFB0E01C5E3F46D
:10526000FC0EE350016EFA0EE350015AFC0E01C52C
:10527000E3F4FD0EE380D890FA0EE332F90EE33248
:10528000FF0EE350016E010E015EFF0E01C5E3F457
:10529000D8A4BCD7FD0EE3C401F5FE0EE3C402F5AD
:1052A000F90EE126FF0EE2221200A90E0501706F31
:1052B000090E716F690EE66E000EE66E200EE66E48
:1052C000000EE66E400EE66E090EE66E34ECB4F0AB
:1052D000880EE66E640EE66E010EE66E84ECBFF09C
:1052E000AA0EE66E760EE66E010EE66E95ECBFF047
:1052F000020EE66E94ECC0F04D50D8B40AD0300ED9
:10530000E66E570EE66E050EE66E000EE66E61EC7A
:10531000B6F000018A93E86BFC9F849F020E866FB3
:10532000848F3F0EFD17FD9BFD51F90B0209FD6FA8
:10533000E70EFD17FD8170C5F9F071C5FAF0FB6B42
:10534000FC9BFC8F8A83530EE66E41ECC1F0050E88
:10535000E66E8EECB2F0520EE66E41ECC1F0230E1A
:10536000E66E8EECB2F0410EE66E41ECC1F0510EED
:10537000E66E41ECC1F0200EE66E030EE66E000E06
:10538000E66E000EE66E61ECB6F0B8ECC1F04D6A68
:105390001200C26A1E0EC16EBE6A0E0EBF6E040EF1
:1053A000C06ECA6AEF0EC66E090EC76E910EC86E49
:1053B000010EC96E0401186B106B086B206BD90EBF
:1053C000006F010E196F216B096B260E016F810EA4
:1053D000116F226B026B0A6B126B1A6B03690B69FC
:1053E00013691B69070E236F04690C6914691C6932
:1053F0000F0E246F07930795079B06830685068B80
:1054000005830585058BF60EE66E830EE66E010EAE
:10541000E66E73ECBFF0F40EE66E830EE66E010EE0
:10542000E66E62ECBFF0F20EE66E830EE66E010EE3
:10543000E66E51ECBFF09E8E180E0201746F100ED6
:105440007A6F310E146F070E106F2C0E126F460E0E
:105450000D6F170E726F230E1F6F130E6A6F080EFB
:105460003D6F320E166F200E176F140E6B6F120009
:10547000E652FE0EE3C401F5050E016402D0FE0EF5
:10548000E36AFD0EE350D8B40BD0FE0EE3500B6E72
:105490000C6AD20E0B24D96E060E0C20DA6EDF6A6F
:1054A000FE0EE350140D040EF3240B6EFE0EF420DA
:1054B0000C6EFE0EE350096E0A6AD20E0924D96EF4
:1054C000060E0A20DA6EDF500B26000E0C220BC5EA
:1054D000F6F40CC5F7F4000EF86E0800FF0EF5C4E4
:1054E000E3F4FE0EE350140D040EF3240B6EFE0ED7
:1054F000F4200C6E0BC5E6F40CC5E6F4ACECB3F08E
:10550000FE0EE3500B6E0C6AD20E0B24D96E060E03
:105510000C20DA6EDF2ADF500B6E0C6A01500B5C38
:1055200002500C58D8A00BD0FE0EE3500B6E0C6A44
:10553000D20E0B24D96E060E0C20DA6EDF6AFF0E37
:10554000E3C401F5E552E552E5521200E652F70ECA
:10555000E3500AE1F80EE35007E1F90EE35004E1ED
:10556000FA0EE350D8B44CD0FF0EE36A0AD0D890BC
:10557000F70EE336F80EE336F90EE336FA0EE336AD
:10558000FF0EE32AFA0EE3AEF2D7E150FB0FD96E1D
:10559000E250DA6EFF0EDA22F70EE350DE5CF80E10
:1055A000E350DE58F90EE350DE58FA0EE350DE58B1
:1055B000D8A013D0E150FB0FD96EE250DA6EFF0E87
:1055C000DA22F70EE350DE5EF80EE350DE5AF90EF3
:1055D000E350DE5AFA0EE350DE5AD890FA0EE33268
:1055E000F90EE332F80EE332F70EE332FF0EE3502A
:1055F000016E010E015EFF0E01C5E3F4D8A4C5D70C
:10560000FB0EE3C401F5FC0EE3C402F5FD0EE3C49A
:1056100003F5FE0EE3C404F5F70EE126FF0EE222C9
:105620001200050EE126000EE222F70EE3C40BF590
:10563000F80EE3C40CF5FC0E0CC5E3F4FB0E0BC531
:10564000E3F4F90EE3C40BF5FA0EE3C40CF5FE0E19
:105650000CC5E3F4FD0E0BC5E3F432D0FB0EE3C43E
:10566000D9F4FC0EE3C4DAF4DF500C6EFF0E0CC567
:10567000E3F4FB0EE350010F016EFB0E01C5E3F4F2
:10568000016AFC0EE3500120016EFC0E01C5E3F43B
:10569000FD0EE3C4D9F4FE0EE3C4DAF4FF0EE3C456
:1056A000DFF4FD0EE350010F016EFD0E01C5E3F4C2
:1056B000016AFE0EE3500120016EFE0E01C5E3F407
:1056C000F50EE3C401F5010E015EF50E01C5E3F42C
:1056D000F60EE3C401F5000E015AF60E01C5E3F41F
:1056E000F50EE328BBE1F60EE328D8A4B7D7F50EF4
:1056F000E126FF0EE2221200070EE126000EE22252
:1057000021EE6CF2060E016EF90EDEC4E3F4E82819
:10571000012EFBD7F60EE3500B6E0C6AF70EE3502A
:105720000B26F80EE3500C22FC0E0B24D96EFF0E54
:105730000C20DA6EDF500C6EF90E0CC5E3F4F60E99
:10574000E3500B6E0C6AF70EE3500B26F80EE35095
:105750000C22FD0E0B24D96EFF0E0C20DA6EFA0E11
:10576000E124E96EFF0EE220EA6EDFC4EFF4F60EEC
:10577000E3500B6E0C6AF70EE3500B26F80EE35065
:105780000C22FE0E0B24D96EFF0E0C20DA6EFB0EDF
:10579000E124E96EFF0EE220EA6EDFC4EFF4F90EB9
:1057A000E124016EFF0EE220026E01C5E6F402C59F
