:0400000085EF00F098
:10000800E661E661E661E661E661E6614A50145F31
:10001800E661E6614E5E5D5EE661E661E661E661C7
:100028006C5EE661E661E661CB5DE661DC5D7B5EA8
:10003800E661E661E661835DE661E661E661705D61
:10004800E661E661E661E661A3582F5EE661E66176
:10005800E661E661E661E661E661E661E661E66160
:10006800E661E661E661E661E661E661E661E66150
:10007800E661E661E661E6614200E661E661E66145
:10008800E15CCA5CE661E661F85CE661E661E6614E
:10009800E661E661E661E6614200E661E661E66125
:1000A800E661E661E661E661E661E661E661E66110
:1000B800E661E661E661515CE661E661E661E6619A
:1000C800E661E661E661E661E661E661E661E661F0
:1000D8000F5EA75EE661E661E661E661E661E661FC
:1000E8004200E661E661E661E661E661E661E661D5
:1000F800E661E661E661965DE661E661E661E66114
:0A010800FF0015EEF0F2CAEF9EF0C2
:10FD8800000001020304050607080C1014182030AF
:10FD9800401F1E1F1E1F1F1E1F1E1F1F1D000001AC
:10FDA80050017C7C2F2F2D2D00000000000000004A
:10FDB8000000000000007C7C2F2F2D2D5C5C0000D3
:10FDC800000000000000000000004F4F4F4F4F4F51
:10FDD8002D2D5F5F2D0000000000000000007676EA
:10FDE8003C3C5E5E3E3E000000000000000000005B
:10FDF80000002E2E2A2A7823782358587C7C2D2D13
:10FE08000000000000002E2E6F6F4F4F6F6F000034
:10FE18000000000000000000000056312E303320A2
:10FE2800444355202051383420202020004D44726E
:10FE380076202533642E2530326456202532642EF0
:10FE4800253032644120202020202020202020003E
:10FE580043257520435243256C7520524325752050
:10FE68004543257520202020202020202020004DDB
:10FE780049534320427574746F6E205072657373D2
:10FE880065642020202020202020004C6F6720421D
:10FE98007574746F6E2050726573736564202020CA
:10FEA8002020202020002558255825582558255839
:10FEB80025582558255820202020202020202000A3
:10FEC80053706420257320257320487A2020202031
:10FED800202020202020003020202020202020202A
:10FEE8002020202020202020202020200031202019
:10FEF80020202020202020202020202020202020FA
:10FF080020200032202020202020202020202020F7
:10FF180020202020202020200033202020202020E6
:10FF280020202020202020202020202020200043C6
:10FF38006F6E742025732025732020202020202018
:10FF48002020202000416C7420427574746F6E204C
:10FF5800DFF42020202020202000537461727420B8
:10FF68005570202020202020202020202020004103
:10FF78006363656C202573202573202020202020B2
:10FF880020202000506F6C6C696E672050756D7072
:10FF9800202020202020202000206572726F7220EF
:10FFA8006C6F67676564200D0A00257320423A2547
:10FFB80058202558202558202020004E6F762032C2
:10FFC8003320323032340031323A32333A35370066
:10FFD800286E756C6C290025732020200044435539
:10FFE8002031002564202573002530336400474DF7
:07FFF80054002573200000F6
:020000040001F9
:10000000E652DDC609F5DEC60AF5DFC60BF5E0C629
:100010000CF50601DD2B000EDE23DF23E0230C5060
:100020000B100A1009E1280E095CD8B005D00501B3
:10003000E051D8B435EF85F00601DD6BDE6BDF6B88
:10004000E06BFD0EE3C40BF5FE0EE3C40CF5050EEC
:100050000B24D96E000E0C20DA6E010EDF6E08EF55
:1000600085F0FD0EE3C40BF5FE0EE3C40CF5050EA2
:100070000B24D96E000E0C20DA6E020EDF6E8AECB5
:10008000C3F084ECC3F0FD0EE3C40BF5FE0EE3C435
:100090000CF5010E0B24D96E000E0C20DA6E010E49
:1000A000DF6EFD0EE3C4D9F4FE0EE3C4DAF4FD0EF8
:1000B000E3C40BF5FE0EE3C40CF5020E0B24E96E4F
:1000C000000E0C20EA6EDFC4EFF4FD0EE3C4D9F499
:1000D000FE0EE3C4DAF4DF2AFD0EE3C4D9F4FE0E0B
:1000E000E3C4DAF40F0EDF6443D2FD0EE3C4D9F4A7
:1000F000FE0EE3C4DAF4DF6A3BD2FD0EE3C40BF577
:10010000FE0EE3C40CF5050E0B24D96E000E0C2078
:10011000DA6E040EDF6E100EE66E000EE66E4E0E08
:10012000E66E070EE66E000EE66E0C0EE66ECEEC88
:100130009DF00DD2FD0EE3C40BF5FE0EE3C40CF5ED
:10014000050E0B24D96E000E0C20DA6E050EDF6E44
:10015000100EE66E000EE66E7E0EE66E070EE66E82
:10016000000EE66E0C0EE66ECEEC9DF0F0D1FD0EAC
:10017000E3C40BF5FE0EE3C40CF5050E0B24D96E9B
:10018000000E0C20DA6E050EDF6E100EE66E000E0D
:10019000E66E6E0EE66E070EE66E000EE66E0C0E56
:1001A000E66ECEEC9DF0D3D1FD0EE3C40BF5FE0E52
:1001B000E3C40CF5050E0B24D96E000E0C20DA6E8C
:1001C000150EDF6E100EE66E000EE66E5E0EE66E2B
:1001D000070EE66E000EE66E0C0EE66ECEEC9DF09F
:1001E000B6D1FD0EE3C40BF5FE0EE3C40CF5050E0F
:1001F0000B24D96E000E0C20DA6E090EDF6E100E85
:10020000E66E000EE66E3E0EE66E070EE66E000E21
:10021000E66E0C0EE66ECEEC9DF099D1FD0EE3C4B9
:100220000BF5FE0EE3C40CF5050E0B24D96E000E83
:100230000C20DA6E090EDF6E100EE66E000EE66E12
:100240002E0EE66E070EE66E000EE66E0C0EE66EE5
:10025000CEEC9DF07CD1FD0EE3C40BF5FE0EE3C4A5
:100260000CF5050E0B24D96E000E0C20DA6E080E6C
:10027000DF6E100EE66E000EE66E8E0EE66E070E58
:10028000E66E000EE66E0C0EE66ECEEC9DF05FD1D3
:10029000FD0EE3C40BF5FE0EE3C40CF59B0E0B2420
:1002A000D96E000E0C20DA6EDF50D8B411D1FD0EDD
:1002B000E3C40BF5FE0EE3C40CF5050E0B24D96E5A
:1002C000000E0C20DA6E140EDF6E140EE66E000EB9
:1002D000E66E1A0EE66E070EE66E000EE66E0C0E69
:1002E000E66ECEEC9DF033D1FD0EE3C4D9F4FE0EE4
:1002F000E3C4DAF40F0EDF6EACD3FD0EE3C40BF5EE
:10030000FE0EE3C40CF59B0E0B24D96E000E0C20E0
:10031000DA6EDF50D8B4DCD0FD0EE3C40BF5FE0E70
:10032000E3C40CF5050E0B24D96E000E0C20DA6E1A
:10033000140EDF6E140EE66E000EE66E060EE66E0E
:10034000070EE66E000EE66E0C0EE66ECEEC9DF02D
:10035000FED0FD0EE3C40BF5FE0EE3C40CF59B0EC0
:100360000B24D96E000E0C20DA6EDF50D8B4B0D05A
:10037000FD0EE3C40BF5FE0EE3C40CF5050E0B24D5
:10038000D96E000E0C20DA6E140EDF6E140EE66EBF
:10039000000EE66ED80EE66E080EE66E000EE66EF5
:1003A0000C0EE66ECEEC9DF0D2D0FD0EE3C40BF544
:1003B000FE0EE3C40CF59B0E0B24D96E000E0C2030
:1003C000DA6EDF50D8B484D0FD0EE3C40BF5FE0E18
:1003D000E3C40CF5050E0B24D96E000E0C20DA6E6A
:1003E000140EDF6E140EE66E000EE66EC40EE66EA0
:1003F000080EE66E000EE66E0C0EE66ECEEC9DF07C
:10040000A6D0FD0EE3C40BF5FE0EE3C40CF59B0E67
:100410000B24D96E000E0C20DA6EDF50D8B458D001
:10042000FD0EE3C40BF5FE0EE3C40CF5050E0B2424
:10043000D96E000E0C20DA6E140EDF6E140EE66E0E
:10044000000EE66EB00EE66E080EE66E000EE66E6C
:100450000C0EE66ECEEC9DF07AD0FD0EE3C40BF5EB
:10046000FE0EE3C40CF59B0E0B24D96E000E0C207F
:10047000DA6EDF50D8B42CD0FD0EE3C40BF5FE0EBF
:10048000E3C40CF59C0E0B24D96E000E0C20DA6E22
:10049000DF50D8B41DD0FD0EE3C40BF5FE0EE3C44F
:1004A0000CF5050E0B24D96E000E0C20DA6E140E1E
:1004B000DF6E140EE66E000EE66E9C0EE66E080E03
:1004C000E66E000EE66E0C0EE66ECEEC9DF03FD0B2
:1004D000FD0EE3C40BF5FE0EE3C40CF5010E0B2478
:1004E000D96E000E0C20DA6EDF6AFED6FD0EE3C474
:1004F0000BF5FE0EE3C40CF5010E0B24D96E000EB5
:100500000C20DA6EDF6AFD0EE3C4D9F4FE0EE3C4FC
:10051000DAF4DF6A9ED2FD0EE3C40BF5FE0EE3C4EF
:100520000CF5050E0B24D96E000E0C20DA6E060EAB
:10053000DF6E100EE66E000EE66E9E0EE66E070E85
:10054000E66E000EE66E0C0EE66ECEEC9DF0FD0E35
:10055000E3C40BF5FE0EE3C40CF5030E0B24D96EB9
:10056000000E0C20DA6E01C5DEF402C5DDF471D296
:10057000FD0EE3C40BF5FE0EE3C40CF5020E0B24D6
:10058000D96E000E0C20DA6EDF500B6E0C6A0C5028
:10059000000AD8A4C0D70B50000AD8B4BCD7010AAF
:1005A000D8B4C8D5030AD8B4E2D5010AD8B4A5D5C1
:1005B000070AD8B433D6010AD8B4F6D5030AD8B49A
:1005C00010D60E0AD8B447D6010AD8B461D6030AA9
:1005D000D8B493D6010AD8B4BCD6070AD8B4E5D6A5
:1005E000010AD8B40ED7030AD8B437D7010AD8B451
:1005F0007DD791D7FD0EE3C40BF5FE0EE3C40CF5D9
:10060000050E0B24D96E000E0C20DA6E0A0EDF6E7A
:10061000000EE66E71ECBEF004500310021004E10F
:10062000280E015CD8A015D2000EE66EA0ECC2F038
:100630000501CC6BFD0EE3C40BF5FE0EE3C40CF517
:10064000010E0B24D96E000E0C20DA6E020EDF6E46
:100650007EECC3F0FD0EE3C40BF5FE0EE3C40CF517
:10066000050E0B24D96E000E0C20DA6E0B0E43D64D
:10067000FD0EE3C40BF5FE0EE3C40CF5050E0B24D2
:10068000D96E000E0C20DA6E0C0EDF6E000E096EB5
:100690000A6A0B6A0C6A000EE66E41ECBEF001C5F8
:1006A00005F502C506F503C507F504C508F50C50A8
:1006B000081808E10B50071805E10A50061802E176
:1006C00009500518D8B4C5D1FF0EE36A10D0FF0E4B
:1006D000E3500B6E0C6A000E0B24D96E0C0E0C202E
:1006E000DA6EDF50E66EA3ECBDF0FF0EE32AFD0EDE
:1006F000E3C40BF5FE0EE3C40CF5030E0B24D96E18
:10070000000E0C20DA6EFF0EE3500B6E0C6ADE500A
:100710000B5CDE500C58D8A0DAD7FD0EE3C40BF505
:10072000FE0EE3C40CF5010E0B24D96E000E0C2056
:10073000DA6E030EDF6E7EECC3F0FD0EE3C40BF544
:10074000FE0EE3C40CF5050E0B24D96E000E0C2032
:10075000DA6E0D0EDF6E010EDC27000EDD23DE23C8
:10076000DF23E06BABECC3F00150D8A47EECC3F008
:10077000FD0EE3C40BF5FE0EE3C40CF5030E0B24D3
:10078000D96E000E0C20DA6EDEC40BF5DDC40CF55C
:10079000030E0B26000E0C220BC5E6F40CC5E6F486
:1007A00040ECC3F0C09455D1FD0EE3C40BF5FE0E32
:1007B000E3C40CF5050E0B24D96E000E0C20DA6E86
:1007C0000E0EDF6E000E096E0A6A0B6A0C6A000ECE
:1007D000E66E41ECBEF001C505F502C506F503C5A0
:1007E00007F504C508F50C50081808E10B50071868
:1007F00005E10A50061802E109500518D8B429D1BC
:10080000FD0EE3C40BF5FE0EE3C40CF5050E0B2440
:10081000D96E000E0C20DA6E0F0EDF6E000EE66E43
:10082000AFECC2F0C8D0140EE66E000EE66EFB0E02
:10083000E3500C0F0B6EFC0EE3C40CF5000E0C2203
:100840000BC5E6F40CC5E6F4F90EE3C4E6F4E3C424
:10085000E6F426EC8AF0FDD0140EE66E000EE66E8D
:10086000FB0EE350070F0B6EFC0EE3C40CF5000EFD
:100870000C220BC5E6F40CC5E6F4F90EE3C4E6F46D
:10088000E3C4E6F426EC8AF0E4D0140EE66E000E23
:10089000E66EFB0EE3500A0F0B6EFC0EE3C40CF584
:1008A000000E0C220BC5E6F40CC5E6F4F90EE3C409
:1008B000E6F4E3C4E6F426EC8AF0CBD0140EE66E40
:1008C000000EE66EFB0EE350080F0B6EFC0EE3C449
:1008D0000CF5000E0C220BC5E6F40CC5E6F4F90E7F
:1008E000E3C4E6F4E3C4E6F426EC8AF0B2D0140ED6
:1008F000E66E000EE66EFB0EE350090F0B6EFC0E6B
:10090000E3C40CF5000E0C220BC5E6F40CC5E6F4AE
:10091000F90EE3C4E6F4E3C4E6F426EC8AF099D0D9
:10092000140EE66E000EE66EFB0EE350090F0B6E22
:10093000FC0EE3C40CF5000E0C220BC5E6F40CC54E
:10094000E6F4F90EE3C4E6F4E3C4E6F426EC8AF038
:1009500080D0140EE66E000EE66EFB0EE3500E0F16
:100960000B6EFC0EE3C40CF5000E0C220BC5E6F476
:100970000CC5E6F4F90EE3C4E6F4E3C4E6F426ECB1
:100980008AF067D0140EE66E000EE66EFB0EE350A2
:10099000060F0B6EFC0EE3C40CF5000E0C220BC50B
:1009A000E6F40CC5E6F4F90EE3C4E6F4E3C4E6F4B9
:1009B00026EC8AF04ED0FD0EE3C40BF5FE0EE3C428
:1009C0000CF5020E0B24D96E000E0C20DA6EDF50EF
:1009D0000B6E0C6A0C50000AD8A4D4D70B50000A36
:1009E000D8B4D0D7010AD8B482D7030AD8B498D7DC
:1009F000010AD8B463D7070AD8B42ED7010AD8B4ED
:100A000044D7030AD8B40FD70E0AD8B4A2D7BAD79E
:100A1000FD0EE3C40BF5FE0EE3C40CF5010E0B2432
:100A2000D96E000E0C20DA6EDF500B6E0C6A0C5083
:100A3000000AD8A40ED00B50000AD8B431EF80F0D1
:100A4000010AD8B4D7D5030AD8B412D6010AD8B44B
:100A5000ABD6FD0EE3C40BF5FE0EE3C40CF5050E9C
:100A60000B24D96E000E0C20DA6EE552E552E552E9
:100A700012002D0EE126000EE222CF0EE350800F71
:100A8000096ED00EE3C40AF5A20E0A22D10EE3C409
:100A90000BF5430E0B22D20EE3C40CF5C70E0C224D
:100AA000E80E09C5E3F4E90E0AC5E3F4EA0E0BC546
:100AB000E3F4EB0E0CC5E3F4CF0EE3C401F5810EB5
:100AC000015ED00EE3C401F55D0E015AD10EE3C400
:100AD00001F5BC0E015AD20EE3C401F5380E015ADD
:100AE000D8A033D0800EE66E510EE66E010EE66E93
:100AF000000EE66EE40EE3C4E6F4E3C4E6F4E3C4F9
:100B0000E6F4E3C4E6F4EAECA8F0EC0E01C5E3F485
:100B1000ED0E02C5E3F4EE0E03C5E3F4EF0E04C5DB
:100B2000E3F4800EE66E510EE66E010EE66E000EE8
:100B3000E66EE40EE3C4E6F4E3C4E6F4E3C4E6F4EC
:100B4000E3C4E6F430ECACF032D0800EE66E510E29
:100B5000E66E010EE66E000EE66EE40EE3C4E6F409
:100B6000E3C4E6F4E3C4E6F4E3C4E6F45EECA1F027
:100B7000EC0E01C5E3F4ED0E02C5E3F4EE0E03C581
:100B8000E3F4EF0E04C5E3F4800EE66E510EE66E5C
:100B9000010EE66E000EE66EE40EE3C4E6F4E3C476
:100BA000E6F4E3C4E6F4E3C4E6F456ECA4F0D80EAD
:100BB00001C5E3F4D90E02C5E3F4DA0E03C5E3F48C
:100BC000DB0E04C5E3F4DB0EE3AE1BD0E150D80F1F
:100BD000D96EE250DA6EFF0EDA22800EDE26510E5A
:100BE000DE22010EDE22000EDE22E150EC0FD96E75
:100BF000E250DA6EFF0EDA22DE06000EDE5ADE5A10
:100C0000DE5A070EE66E000EE66E000EE66E000E71
:100C1000E66EE80EE350030F096EE90EE3C40AF531
:100C2000000E0A22EA0EE3C40BF5000E0B22EB0EB7
:100C3000E3C40CF5000E0C2209C5E6F40AC5E6F47F
:100C40000BC5E6F40CC5E6F456ECA4F001C50BF5B3
:100C500002C50CF5FE0E0BC5E3F4FF0E0CC5E3F464
:100C6000FF0EE3AE0FD0FE0EE350070F016EFE0E37
:100C700001C5E3F4016AFF0EE3500120016EFF0E8F
:100C800001C5E3F4B10EE66E3A0EE66E020EE66EB4
:100C9000000EE66EE80EE3C4E6F4E3C4E6F4E3C453
:100CA000E6F4E3C4E6F45EECA1F0F00E01C5E3F473
:100CB000F10E02C5E3F4F20E03C5E3F4F30E04C52E
:100CC000E3F4B10EE66E3A0EE66E020EE66E000E2C
:100CD000E66EE80EE3C4E6F4E3C4E6F4E3C4E6F447
:100CE000E3C4E6F456ECA4F0D40E01C5E3F4D50E4B
:100CF00002C5E3F4D60E03C5E3F4D70E04C5E3F44E
:100D0000D70EE3AE1BD0E150D40FD96EE250DA6EAD
:100D1000FF0EDA22B10EDE263A0EDE22020EDE22AF
:100D2000000EDE22E150F00FD96EE250DA6EFF0EB7
:100D3000DA22DE06000EDE5ADE5ADE5AAC0EE66E0F
:100D40008E0EE66E000EE66E000EE66ED00EE3C46A
:100D5000E6F4E3C4E6F4E3C4E6F4E3C4E6F45EECEC
:100D6000A1F0E00E01C5E3F4E10E02C5E3F4E20EEA
:100D700003C5E3F4E30E04C5E3F4E00EE3C401F5B8
:100D8000040E011816E1E10EE35013E1E20EE35008
:100D900010E1E30EE350D8A40CD0E150E00FD96E7F
:100DA000E250DA6EFF0EDA22DE06000EDE5ADE5A5E
:100DB000DE5AAC0EE66E8E0EE66E000EE66E000E8D
:100DC000E66EDC0EE3C4E6F4E3C4E6F4E3C4E6F462
:100DD000E3C4E6F40AECAFF0E150D40FD96EE25070
:100DE000DA6EFF0EDA220150DE5E0250DE5A035048
:100DF000DE5A0450DE5AB50EE66E050EE66E000EA3
:100E0000E66E000EE66ED00EE3C4E6F4E3C4E6F44C
:100E1000E3C4E6F4E3C4E6F45EECA1F0DC0E01C545
:100E2000E3F4DD0E02C5E3F4DE0E03C5E3F4DF0EEA
:100E300004C5E3F4DC0EE3C401F5190E011816E154
:100E4000DD0EE35013E1DE0EE35010E1DF0EE35060
:100E5000D8A40CD0E150DC0FD96EE250DA6EFF0E50
:100E6000DA22DE06000EDE5ADE5ADE5AB50EE66ED5
:100E7000050EE66E000EE66E000EE66ED80EE3C4BA
:100E8000E6F4E3C4E6F4E3C4E6F4E3C4E6F40AEC0F
:100E9000AFF0E150D40FD96EE250DA6EFF0EDA22D5
:100EA0000150DE5E0250DE5A0350DE5A0450DE5A14
:100EB0006D0EE66E010EE66E000EE66E000EE66E3C
:100EC000D00EE3C4E6F4E3C4E6F4E3C4E6F4E3C41A
:100ED000E6F45EECA1F0E40E01C5E3F4E50E02C514
:100EE000E3F4E60E03C5E3F4E70E04C5E3F4E40E11
:100EF000E3C401F5040E011816E1E50EE35013E119
:100F0000E60EE35010E1E70EE350D8A40CD0E15018
:100F1000E40FD96EE250DA6EFF0EDA22DE06000E22
:100F2000DE5ADE5ADE5A6D0EE66E010EE66E000ED9
:100F3000E66E000EE66EE00EE3C4E6F4E3C4E6F40B
:100F4000E3C4E6F4E3C4E6F40AECAFF0E150D40FF6
:100F5000D96EE250DA6EFF0EDA220150DE5E0250E8
:100F6000DE5A0350DE5A0450DE5AD30EE36AE40E12
:100F7000E35027E1E50EE35024E1E60EE35021E1E2
:100F8000E70EE350D8A41DD0DC0EE35017E1DD0ED0
:100F9000E35014E1DE0EE35011E1DF0EE350D8A47C
:100FA0000DD0E00EE3500DE1E10EE3500AE1E20E58
:100FB000E35007E1E30EE350D8A403D0D30EE36A75
:100FC000E32AD30EE3500B6E0C6AFA0E0BC5E3F462
:100FD000FB0E0CC5E3F4FA0EE3C40BF5FB0EE3C401
:100FE0000CF5D40EE3500B26D50EE3500C223B0E2D
:100FF0000B26000E0C22FC0E0BC5E3F4FD0E0CC5F7
:10100000E3F4FA0EE3506D0F0B6EFB0EE3C40CF528
:10101000010E0C22FC0EE3C401F50B50015CFD0E29
:10102000E350800A016E0C50800A0158D8A019D0F4
:10103000FA0EE3506D0F0B6EFB0EE3C40CF5010EC0
:101040000C22FC0EE3C401F50B50015EFC0E01C541
:10105000E3F4FD0EE3C401F50C50015AFD0E01C589
:10106000E3F4DC0EE3C409F5DD0EE3C40AF5DE0E9D
:10107000E3C40BF5DF0EE3C40CF5020ED89009367D
:101080000A360B360C36E82EF9D7900EE66E010EB6
:10109000E66E000EE66E000EE66EEC0EE3C4E6F4BD
:1010A000E3C4E6F4E3C4E6F4E3C4E6F40AECAFF028
:1010B00001C505F502C506F503C507F504C508F524
:1010C000640EE66E000EE66E000EE66E000EE66E34
:1010D000DC0EE3C4E6F4E3C4E6F4E3C4E6F4E3C4FC
:1010E000E6F40AECAFF00150052602500622035048
:1010F00007220450082209500524016E0A500620D8
:10110000026E0B500720036E0C500820046EE40E94
:10111000E3500126E50EE3500222E60EE3500322DF
:10112000E70EE3500422F40E01C5E3F4F50E02C508
:10113000E3F4F60E03C5E3F4F70E04C5E3F4F80E8A
:10114000E36AF90EE36A2CD0E150D40FD96EE25075
:10115000DA6EFF0EDA22F80EE3C40BF5F90EE3C4E3
:101160000CF5990E0B24F66EFD0E0C20F76EF86A46
:10117000000EF8220800F550DE5E000EDE5ADE5A40
:10118000DE5AF80EE350010F016EF80E01C5E3F4CC
:10119000016AF90EE3500120016EF90E01C5E3F476
:1011A000F80EE3C40BF5F90EE3C40CF5990E0B240D
:1011B000F66EFD0E0C20F76EF86A000EF82208009D
:1011C000F5C40CF50CC505F5066A076A086AD40E65
:1011D000E3C401F50550015CD50EE3C401F50650EA
:1011E0000158D60EE3C401F507500158D70EE3505D
:1011F000800A016E0850800A0158D8B0A5D7F90EB0
:10120000E3BE21D0F90EE35007E1F80EE3C401F587
:101210000A0E015ED8A017D0E150F80FD96EE25047
:10122000DA6EFF0EDA22F40EDE26FF0EDD22E1502A
:10123000F40FD96EE250DA6EFF0EDA22DE2A000ECB
:10124000DE22DE22DE22F40EE350640F0B6EF50E7A
:10125000E3C40CF5000E0C22CD0EE3C409F5CE0E4E
:10126000E3C40AF50A0E0924D96E000E0A20DA6ECC
:101270000BC5DEF40CC5DDF4F80EE350020F0B6E67
:10128000F90EE3C40CF5000E0C22CD0EE3C409F5F3
:10129000CE0EE3C40AF5080E0924D96E000E0A200A
:1012A000DA6E0BC5DEF40CC5DDF4D40EE350010F8D
:1012B0000B6ED50EE3C40CF5000E0C22CD0EE3C46C
:1012C00009F5CE0EE3C40AF5060E0924D96E000E08
:1012D0000A20DA6E0BC5DEF40CC5DDF4E150FE0F1A
:1012E000D96EE250DA6EFF0EDA22CD0EE3C40BF5B2
:1012F000CE0EE3C40CF50C0E0B24E96E000E0C2090
:10130000EA6EDEC4EEF4DDC4EDF4E150FC0FD96EFC
:10131000E250DA6EFF0EDA22CD0EE3C40BF5CE0EEC
:10132000E3C40CF50E0E0B24E96E000E0C20EA6EE1
:10133000DEC4EEF4DDC4EDF4100EE66E0E0EE66EC5
:10134000000EE66E000EE66ED40EE3C4E6F4E3C4CF
:10135000E6F4E3C4E6F4E3C4E6F45EECA1F001C510
:101360000BF502C50CF5CD0EE3C409F5CE0EE3C4B2
:101370000AF5040E0924D96E000E0A20DA6E0BC598
:10138000DEF40CC5DDF43C0EE66E000EE66E000EDB
:10139000E66E000EE66E3C0EE66E000EE66E000E89
:1013A000E66E000EE66ED00EE3C4E6F4E3C4E6F4A7
:1013B000E3C4E6F4E3C4E6F45EECA1F001C5E6F4B0
:1013C00002C5E6F403C5E6F404C5E6F456ECA4F061
:1013D00001C50BF502C50CF5CD0EE3C409F5CE0E23
:1013E000E3C40AF5020E0924D96E000E0A20DA6E53
:1013F0000BC5DEF40CC5DDF43C0EE66E000EE66EA9
:10140000000EE66E000EE66ED40EE3C4E6F4E3C40E
:10141000E6F4E3C4E6F4E3C4E6F456ECA4F001C554
:101420000BF502C50CF5CD0EE3C4D9F4CE0EE3C422
:10143000DAF40BC5DEF40CC5DDF4000E016E000E0F
:10144000026ECD0EE126FF0EE22212000E0EE12604
:10145000000EE222FD0EE36AFE0EE36A010E0B6E41
:10146000000E0C6EFB0E0BC5E3F4FC0E0CC5E3F492
:10147000E150EC0FD96EE250DA6EFF0EDA22F00E78
:10148000E3C40BF5F10EE3C40CF5030E0B24E96E77
:10149000000E0C20EA6EDEC4EEF4DDC4EDF4F00EB6
:1014A000E3C40BF5F10EE3C40CF5030E0B24D96E67
:1014B000000E0C20DA6E0501CC510B6E0C6ADE506A
:1014C0000B5CDE500C58D8A07ED3000EE66E0A0EE0
:1014D000E66ED3ECB3F0FF0E01C5E3F4FF0EE3C4F8
:1014E00001F5060E0118D8A421D0EC0EE350E66EEB
:1014F000000EE66E0A0EE66E06ECADF001500B6EC5
:101500000C6AFD0E0BC5E3F4FE0E0CC5E3F4000EF1
:10151000E66E0A0EE66E04ECB9F001500B6E0C6A32
:10152000FB0E0BC5E3F4FC0E0CC5E3F4E150FD0F1C
:10153000D96EE250DA6EFF0EDA22FB0EE350DE18AF
:1015400004E1FC0EE350DE18D8A4BFD2000EE66E14
:101550000A0EE66EA6ECAEF02F0E011841E1020471
:10156000D8A43ED0FA0EE36A1ED0FA0EE3500B6EFA
:101570000C6A0A0E0B24D96E0A0E0C20DA6EFA0ED3
:10158000E3500B6E0C6AF00EE3500B26F10EE350A5
:101590000C22820E0B24E96E000E0C20EA6EDFC4D2
:1015A000EFF4FA0EE32AE150FA0FD96EE250DA6E48
:1015B000FF0EDA22FF0EE350DE5CD8A0D6D7FF0E76
:1015C000E3500B6E0C6AF00EE3500B26F10EE35065
:1015D0000C22820E0B24D96E000E0C20DA6EDF6A0C
:1015E000000EE66E0A0EE66EA6ECAEF0350E0118A1
:1015F00041E10204D8A43ED0F90EE36A1ED0F90EF0
:10160000E3500B6E0C6A0A0E0B24D96E0A0E0C20E6
:10161000DA6EF90EE3500B6E0C6AF00EE3500B26F7
:10162000F10EE3500C222E0E0B24E96E000E0C205E
:10163000EA6EDFC4EFF4F90EE32AE150F90FD96E38
:10164000E250DA6EFF0EDA22FF0EE350DE5CD8A025
:10165000D6D7FF0EE3500B6E0C6AF00EE3500B264C
:10166000F10EE3500C222E0E0B24D96E000E0C202E
:10167000DA6EDF6A000EE66E0A0EE66EA6ECAEF0DB
:10168000340E011841E10204D8A43ED0F80EE36AFA
:101690001ED0F80EE3500B6E0C6A0A0E0B24D96EA6
:1016A0000A0E0C20DA6EF80EE3500B6E0C6AF00E88
:1016B000E3500B26F10EE3500C228E0E0B24E96E44
:1016C000000E0C20EA6EDFC4EFF4F80EE32AE150BE
:1016D000F80FD96EE250DA6EFF0EDA22FF0EE350F9
:1016E000DE5CD8A0D6D7FF0EE3500B6E0C6AF00E6E
:1016F000E3500B26F10EE3500C228E0E0B24D96E14
:10170000000E0C20DA6EDF6A000EE66E0A0EE66E40
:10171000A6ECAEF0170E01180210D8A43ED0F70EBA
:10172000E36A1ED0F70EE3500B6E0C6A0A0E0B2410
:10173000D96E0A0E0C20DA6EF70EE3500B6E0C6AAF
:10174000F00EE3500B26F10EE3500C223A0E0B2460
:10175000E96E000E0C20EA6EDFC4EFF4F70EE32A08
:10176000E150F70FD96EE250DA6EFF0EDA22FF0E6B
:10177000E350DE5CD8A0D6D7FF0EE3500B6E0C6AA8
:10178000F00EE3500B26F10EE3500C223A0E0B2420
:10179000D96E000E0C20DA6EDF6A000EE66E0A0EBD
:1017A000E66EA6ECAEF0360E011841E10204D8A4B4
:1017B0003ED0F60EE36A1ED0F60EE3500B6E0C6AB6
:1017C0000A0E0B24D96E0A0E0C20DA6EF60EE350C8
:1017D0000B6E0C6AF00EE3500B26F10EE3500C2258
:1017E000460E0B24E96E000E0C20EA6EDFC4EFF407
:1017F000F60EE32AE150F60FD96EE250DA6EFF0ED4
:10180000DA22FF0EE350DE5CD8A0D6D7FF0EE350FD
:101810000B6E0C6AF00EE3500B26F10EE3500C2217
:10182000460E0B24D96E000E0C20DA6EDF6A000E15
:10183000E66E0A0EE66EA6ECAEF0390E011841E136
:101840000204D8A43ED0F50EE36A1ED0F50EE35094
:101850000B6E0C6A0A0E0B24D96E0A0E0C20DA6E7F
:10186000F50EE3500B6E0C6AF00EE3500B26F10EF2
:10187000E3500C22760E0B24E96E000E0C20EA6E6B
:10188000DFC4EFF4F50EE32AE150F50FD96EE25014
:10189000DA6EFF0EDA22FF0EE350DE5CD8A0D6D758
:1018A000FF0EE3500B6E0C6AF00EE3500B26F10EA8
:1018B000E3500C22760E0B24D96E000E0C20DA6E4B
:1018C000DF6A000EE66E0A0EE66EA6ECAEF0330E90
:1018D00001184EE10204D8A44BD0F40EE36A1ED0E6
:1018E000F40EE3500B6E0C6A0A0E0B24D96E0A0E2E
:1018F0000C20DA6EF40EE3500B6E0C6AF00EE3501F
:101900000B26F10EE3500C22520E0B24E96E000E52
:101910000C20EA6EDFC4EFF4F40EE32AE150F40F7A
:10192000D96EE250DA6EFF0EDA22FF0EE350DE5C73
:10193000D8A0D6D7FF0EE3500B6E0C6AF00EE35022
:101940000B26F10EE3500C22520E0B24D96E000E22
:101950000C20DA6EDF6AF00EE3C40BF5F10EE3C47F
:101960000CF5530E0B24D96E000E0C20DA6EDF6AD4
:10197000000EE66E0A0EE66EA6ECAEF05D0E0118E5
:1019800041E10204D8A43ED0F30EE36A1ED0F30E68
:10199000E3500B6E0C6A0A0E0B24D96E0A0E0C2053
:1019A000DA6EF30EE3500B6E0C6AF00EE3500B266A
:1019B000F10EE3500C225E0E0B24E96E000E0C209B
:1019C000EA6EDFC4EFF4F30EE32AE150F30FD96EB1
:1019D000E250DA6EFF0EDA22FF0EE350DE5CD8A092
:1019E000D6D7FF0EE3500B6E0C6AF00EE3500B26B9
:1019F000F10EE3500C225E0E0B24D96E000E0C206B
:101A0000DA6EDF6A000EE66E0A0EE66EA6ECAEF047
:101A1000380E011841E10204D8A43ED0F20EE36A68
:101A20001ED0F20EE3500B6E0C6A0A0E0B24D96E18
:101A30000A0E0C20DA6EF20EE3500B6E0C6AF00EFA
:101A4000E3500B26F10EE3500C226A0E0B24E96ED4
:101A5000000E0C20EA6EDFC4EFF4F20EE32AE15030
:101A6000F20FD96EE250DA6EFF0EDA22FF0EE3506B
:101A7000DE5CD8A0D6D7FF0EE3500B6E0C6AF00EDA
:101A8000E3500B26F10EE3500C226A0E0B24D96EA4
:101A9000000E0C20DA6EDF6ABF92EE0EE3C4D9F4BA
:101AA000EF0EE3C4DAF4010EDF6EF00EE3C40BF5C3
:101AB000F10EE3C40CF59A0E0B24D96E000E0C2027
:101AC000DA6E010EDF6EBF9270D0BF82EE0EE3C4FD
:101AD000D9F4EF0EE3C4DAF4DF6AF00EE3C40BF5D9
:101AE000F10EE3C40CF5060E0B24D96E000E0C208B
:101AF000DA6EDF6AF00EE3C40BF5F10EE3C40CF509
:101B0000080E0B24D96E000E0C20DA6EDF6AF00E80
:101B1000E3C40BF5F10EE3C40CF5070E0B24D96EEC
:101B2000000E0C20DA6EDF6AF00EE3C40BF5F10E46
:101B3000E3C40CF5090E0B24D96E000E0C20DA6EEE
:101B4000DF6AF00EE3C40BF5F10EE3C40CF50A0EE8
:101B50000B24D96E000E0C20DA6EDF6AF00EE3C49F
:101B60000BF5F10EE3C40CF50C0E0B24D96E000E30
:101B70000C20DA6EDF6AF00EE3C40BF5F10EE3C45D
:101B80000CF50B0E0B24D96E000E0C20DA6EDF6AFA
:101B9000FB0EE3C4E6F4E3C4E6F4FB0EE3C4E6F4B0
:101BA000E3C4E6F4DBECBDF0BF82F00EE3C40BF55A
:101BB000F10EE3C40CF5010E0B24D96E000E0C20BF
:101BC000DA6EDF6A8CD0000EE66E41ECBEF0045097
:101BD0000310021004E1C80E015CD8A080D0F00E02
:101BE000E3C40BF5F10EE3C40CF5010E0B24D96E22
:101BF000000E0C20DA6EDF6AF00EE3C4D9F4F10EA9
:101C0000E3C4DAF4DF6A010E0501D827000ED923F8
:101C1000DA23DB23CE4BCF2BF00EE3C40BF5F10E12
:101C2000E3C40CF5060E0B24D96E000E0C20DA6E00
:101C3000DF6AEE0EE3C4D9F4EF0EE3C4DAF4DF6A30
:101C4000F00EE3C40BF5F10EE3C40CF5080E0B2403
:101C5000D96E000E0C20DA6EDF6AF00EE3C40BF5CD
:101C6000F10EE3C40CF5070E0B24D96E000E0C2008
:101C7000DA6EDF6AF00EE3C40BF5F10EE3C40CF587
:101C8000090E0B24D96E000E0C20DA6EDF6AF00EFE
:101C9000E3C40BF5F10EE3C40CF50A0E0B24D96E68
:101CA000000E0C20DA6EDF6AF00EE3C40BF5F10EC5
:101CB000E3C40CF50C0E0B24D96E000E0C20DA6E6A
:101CC000DF6AF00EE3C40BF5F10EE3C40CF50B0E66
:101CD0000B24D96E000E0C20DA6EDF6ABF82EC0E88
:101CE000E126FF0EE22212001D0EE126000EE22286
:101CF00093ECBAF0D5ECB6F0D68ED68C940EE66E98
:101D00004C0EE66E010EE66EFAECC0F0BDECC3F0D0
:101D1000E80EE66E760EE66E010EE66E1CECC1F085
:101D2000C9ECC3F0680EE66E720EE66E010EE66E4A
:101D30000BECC1F0C3ECC3F040ECAEF026ECBFF00E
:101D4000B40EE66E770EE66E010EE66E3FECC0F066
:101D5000140EE66E000EE66E020EE66E87ECBDF027
:101D6000F5ECBDF0C80EE66E000EE66E030EE66EF4
:101D700087ECBDF0DFECAAF0220EE66EFE0EE66EFA
:101D8000DF0EE66EFF0EE66E000EE66E020EE66EEB
:101D9000F00EE66E140EE66E080EE66EBAEC9FF0DC
:101DA000F00EE66E140EE66E000EE66E000EE66EA7
:101DB0008CECB0F0C30EE66EFF0EE66EDF0EE66E44
:101DC000FF0EE66E000EE66E020EE66EF00EE66E9A
:101DD000140EE66E080EE66EBAEC9FF0F00EE66E9C
:101DE000140EE66E000EE66E010EE66E8CECB0F0A0
:101DF000F150E66E000EE66EF050E66E000EE66EF6
:101E0000D850E66E000EE66ECF0EE66EFF0EE66E62
:101E1000B20EE66EFF0EE66E000EE66E020EE66E87
:101E2000F00EE66E140EE66E0E0EE66EBAEC9FF045
:101E3000F00EE66E140EE66E000EE66E020EE66E14
:101E40008CECB0F0620EE66EFF0EE66EFA0EE66EF9
:101E5000FF0EE66E000EE66E020EE66EF00EE66E09
:101E6000140EE66E080EE66EBAEC9FF0F00EE66E0B
:101E7000140EE66E000EE66E030EE66E8CECB0F00D
:101E8000400EE66E420EE66E0F0EE66E000EE66E39
:101E90003BECB8F08C0EE66EFF0EE66EFA0EE66EC8
:101EA000FF0EE66E000EE66E020EE66EF00EE66EB9
:101EB000140EE66E080EE66EBAEC9FF0F00EE66EBB
:101EC000140EE66E000EE66E020EE66E8CECB0F0BE
:101ED0000601316B326BFF0EE36AFF0EE350020D19
:101EE000F3C409F5F4C40AF5000E0ABEFF0E0B6E2A
:101EF0000C6E000E0924046E000E0A20056E2C0ED6
:101F00000B20066E04C5E6F405C5E6F406C5E6F446
:101F1000D6ECA6F0FF0EE350020D480EF324D96E66
:101F2000060EF420DA6E01C5DEF402C5DDF4FF0E04
:101F3000E350020D480EF324D96E060EF420DA6E3B
:101F4000DE5006013127DD503223FF0EE32AFF0E5B
:101F5000E3C401F5080E0164C0D7316B326B56C67D
:101F6000E6F457C6E6F454C6E6F455C6E6F452C69F
:101F7000E6F453C6E6F450C6E6F451C6E6F44EC69F
:101F8000E6F44FC6E6F44CC6E6F44DC6E6F44AC69F
:101F9000E6F44BC6E6F448C6E6F449C6E6F4AE0EEF
:101FA000E66EFE0EE66E150EE66E000EE66ED50EC1
:101FB000E124016EFF0EE220026E01C5E6F402C5C7
:101FC000E6F4160EE66EBAEC9FF0E90EE124016E1F
:101FD000FF0EE220026E01C5E6F402C5E6F437EC1E
:101FE000B3F0E10EE66E050EE66EDCECC2F001C564
:101FF000E4F602C5E5F6C18A000EE66E090EE66E4D
:1020000000EC80F006011951D8B414D0FCECBBF000
:102010000601196B010151B302D0010E01D0000E6F
:10202000010B06013A6F3A51D8A402D009010D6B99
:1020300009C93BF6030EE66E09ECC0F00150D8B4B6
:10204000EED12E2A2E040C6E040E0C6401D02E6AE2
:10205000C80EE66E000EE66E030EE66E87ECBDF06F
:1020600009010951D8B485D00501CE51096ECF516F
:102070000A6E0B6A0C6A095006010C5D0A500D5974
:102080000B500E590C500F59D8B073D0E50EE66EB8
:10209000FF0EE66E000EE66E020EE66EF00EE66EC7
:1020A000140EE66E060EE66EBAEC9FF0F00EE66ECB
:1020B000140EE66E000EE66E010EE66E8CECB0F0CD
:1020C000A10EE66EFF0EE66E000EE66E020EE66EE6
:1020D000F00EE66E120EE66E060EE66EBAEC9FF09D
:1020E0002D50D8A430D003C9E6F404C9E6F40501A4
:1020F000CC51E66E000EE66ED4C5E6F4D5C5E6F426
:10210000D6C5E6F4D7C5E6F409010251E66E000E25
:10211000E66E580EE66EFE0EE66E000EE66E020EDF
:10212000E66EF00EE66E140EE66E100EE66EBAEC7B
:102130009FF0F00EE66E140EE66E000EE66E000ED8
:10214000E66E8CECB0F02D2A2D040C6E090E0C649A
:1021500066D1030E0501CE250B6E000ECF210C6E4D
:102160000BC50CF60CC50DF606010E6B0F6B2D6A38
:1021700056D106013C51D8A4D5D00501CE6BCF6B0A
:10218000820EE66E090EE66E520EE66E090EE66EE1
:10219000770EE66EFF0EE66E000EE66E020EE66E3F
:1021A000F00EE66E140EE66E0A0EE66EBAEC9FF0C6
:1021B000F00EE66E140EE66E000EE66E000EE66E93
:1021C0008CECB0F0760EE66E090EE66E04ECA5F02F
:1021D000E30E01C5E3F4E40E02C5E3F4E30EE3C449
:1021E000E6F4E3C4E6F46CECBAF0E70EA0C5E3F461
:1021F000E80EA1C5E3F4E50E9EC5E3F4E60E9FC527
:10220000E3F4460EE66E090EE66E04ECA5F0E30E6E
:1022100001C5E3F4E40E02C5E3F4E30EE3C4E6F41F
:10222000E3C4E6F46CECBAF09EC5E6F49FC5E6F4B0
:10223000A0C5E6F4A1C5E6F4E10EE3C4E6F4E3C408
:10224000E6F4E10EE3C4E6F4E3C4E6F4350EE66E2C
:10225000FE0EE66E000EE66E020EE66EF00EE66E06
:10226000140EE66E0E0EE66EBAEC9FF0F00EE66E01
:10227000140EE66E000EE66E010EE66E8CECB0F00B
:102280006A0EE66E090EE66E5E0EE66E090EE66EEC
:10229000370EE66EFF0EE66E000EE66E020EE66E7E
:1022A000F00EE66E140EE66E0A0EE66EBAEC9FF0C5
:1022B00009019A51D8B40AD09A6B000EE66E040E4A
:1022C000E66EC2ECABF0610005F403F5F00EE66ECD
:1022D000140EE66E000EE66E020EE66E8CECB0F0AA
:1022E0008E0EE66E090EE66E2E0EE66E090EE66E98
:1022F000C80EE66EFE0EE66E000EE66E020EE66E8E
:10230000F00EE66E140EE66E0A0EE66EBAEC9FF064
:10231000F00EE66E140EE66E000EE66E030EE66E2E
:102320008CECB0F006013C51D8B479D00501CE6BED
:10233000CF6BDF0EE66EFE0EE66E000EE66E020E50
:10234000E66EF00EE66E140EE66E060EE66EBAEC63
:102350009FF0F00EE66E140EE66E000EE66E000EB6
:10236000E66E8CECB0F0F50EE66EFE0EE66E000E3C
:10237000E66E020EE66EF00EE66E140EE66E060EC9
:10238000E66EBAEC9FF0F00EE66E140EE66E000EEE
:10239000E66E010EE66E8CECB0F00B0EE66EFF0EF4
:1023A000E66E000EE66E020EE66EF00EE66E140E9F
:1023B000E66E060EE66EBAEC9FF009019A51D8B4AB
:1023C0000AD09A6B000EE66E040EE66EC2ECABF01D
:1023D000610005F403F5F00EE66E140EE66E000ED5
:1023E000E66E020EE66E8CECB0F0210EE66EFF0E8D
:1023F000E66E000EE66E020EE66EF00EE66E140E4F
:10240000E66E060EE66EBAEC9FF0F00EE66E140E67
:10241000E66E000EE66E030EE66E8CECB0F0060182
:102420001E51D8B42CD0BF821E6B3C2B030E3C65D2
:1024300001D03C6B4D0EE66EFF0EE66E3C51E66E33
:10244000000EE66EEB0EE66EFF0EE66E000EE66E1A
:10245000020EE66EF00EE66E140EE66E0A0EE66EE4
:10246000BAEC9FF0F00EE66E140EE66E000EE66E0D
:10247000020EE66E8CECB0F0010E0601396F1F51B2
:10248000D8B425D0BF821F6B930EE66EFE0EE66EAB
:10249000EE0EE66EFF0EE66E000EE66E020EE66EC5
:1024A000F00EE66E140EE66E080EE66EBAEC9FF0C5
:1024B000F00EE66E140EE66E000EE66E020EE66E8E
:1024C0008CECB0F0010E0601376F010E396F205110
:1024D000D8B423D0BF82206B770EE66EFE0EE66E78
:1024E000EE0EE66EFF0EE66E000EE66E020EE66E75
:1024F000F00EE66E140EE66E080EE66EBAEC9FF075
:10250000F00EE66E140EE66E000EE66E020EE66E3D
:102510008CECB0F0010E0601396FC19A6CD5080E33
:10252000E126000EE222F40EE3C4D9F4F50EE3C472
:10253000DAF4DEC4F6F4DDC4F7F4000EF86E080039
:10254000F550250AD8A49ED2F40EE3C4D9F4F50EB2
:10255000E3C4DAF4DE2A000EDD22000E226E000E45
:10256000216E21C525F5FF0EE36A21D02582F40EE8
:10257000E3C4D9F4F50EE3C4DAF4DE2A000EDD225A
:1025800016D0FF0EE36AE32A12D0F40EE3C4D9F4A6
:10259000F50EE3C4DAF4DEC4F6F4DDC4F7F4000E9D
:1025A000F86E0800F550300AD8B4E0D7EAD7FF0E2D
:1025B000E350D8B4EAD7F20EE3C4E6F4E3C4E6F499
:1025C000F20EE3C4E6F4E3C4E6F45DECA7F001C563
:1025D00021F502C522F522AE05D02580216C221EF0
:1025E000D8B0222AF40EE3C4D9F4F50EE3C4DAF429
:1025F000DEC40BF5DDC40CF5FD0E0CC5E3F4FC0EDA
:102600000BC5E3F4E150FC0FD96EE250DA6EFF0E19
:10261000DA22DEC4F6F4DDC4F7F4000EF86E08002A
:10262000FE0EF5C4E3F419D0FC0EE350010F016E69
:10263000FC0E01C5E3F4016AFD0EE3500120016EBA
:10264000FD0E01C5E3F41BD0690E0C6EFE0E0CC529
:10265000E3F415D0FE0EE36A12D0FE0EE350580AE2
:10266000D8B4F2D73C0AD8B4EFD70D0AD8B4ECD717
:10267000050AD8B4D9D7190AD8B4E6D7EBD7E150B0
:10268000FC0FD96EE250DA6EFF0EDA22DEC4F6F4E9
:10269000DDC4F7F4000EF86E0800F550640AD8B4F3
:1026A00060D0E150FC0FD96EE250DA6EFF0EDA22F4
:1026B000DEC4F6F4DDC4F7F4000EF86E0800F55041
:1026C000690AD8B44ED079D0F20EE3C4D9F4F30E2F
:1026D000E3C4DAF4020EDE5E000EDD5ADEC40BF552
:1026E000DDC40CF50BC5D9F40CC5DAF4DEC40BF56A
:1026F000DDC40CF5F80E0BC5E3F4F90E0CC5E3F4DC
:10270000016AE3BE0168FA0E01C5E3F4FB0E01C5E0
:10271000E3F42FD0F20EE3C4D9F4F30EE3C4DAF4F9
:10272000040EDE5E000EDD5ADEC40BF5DDC40CF5D2
:102730000BC5D9F40CC5DAF4DEC409F5DEC40AF51C
:10274000DEC40BF5DEC40CF5F80E09C5E3F4F90E92
:102750000AC5E3F4FA0E0BC5E3F4FB0E0CC5E3F473
:1027600008D0FE0EE350690AD8B4AED7050AD8B433
:10277000D1D7FC0EE350010F0B6EFD0EE3C40CF538
:10278000000E0C22F40EE3C4D9F4F50EE3C4DAF41F
:102790000BC5DEF40CC5DDF4F80EE3C4E6F4E3C4C7
:1027A000E6F4E3C4E6F4E3C4E6F4F20EE3C4E6F4CC
:1027B000E3C4E6F4C1EC9BF08AD1E150FC0FD96E82
:1027C000E250DA6EFF0EDA22DEC4F6F4DDC4F7F46E
:1027D000000EF86E0800F550580AD8B463D0E150E6
:1027E000FC0FD96EE250DA6EFF0EDA22DEC4F6F488
:1027F000DDC4F7F4000EF86E0800F550750AD8B481
:1028000051D0A3D0F20EE3C4D9F4F30EE3C4DAF44A
:10281000020EDE5E000EDD5ADEC40BF5DDC40CF5E3
:102820000BC5D9F40CC5DAF4DEC40BF5DDC40CF528
:102830000B50056E0C50066E076A086AF80E05C547
:10284000E3F4F90E06C5E3F4FA0E07C5E3F4FB0E54
:1028500008C5E3F42FD0F20EE3C4D9F4F30EE3C4B9
:10286000DAF4040EDE5E000EDD5ADEC40BF5DDC4C4
:102870000CF50BC5D9F40CC5DAF4DEC409F5DEC4D9
:102880000AF5DEC40BF5DEC40CF5F80E09C5E3F459
:10289000F90E0AC5E3F4FA0E0BC5E3F4FB0E0CC502
:1028A000E3F408D0FE0EE350690AD8B4ABD7050AAA
:1028B000D8B4D1D7FC0EE350010F0B6EFD0EE3C46C
:1028C0000CF5000E0C22F40EE3C4D9F4F50EE3C4AB
:1028D000DAF40BC5DEF40CC5DDF422D0F80EE3C447
:1028E000E6F4E3C4E6F4E3C4E6F4E3C4E6F4F20E8B
:1028F000E3C4E6F4E3C4E6F49EECA3F0E8D0F80EFB
:10290000E3C4E6F4E3C4E6F4E3C4E6F4E3C4E6F4C3
:10291000F20EE3C4E6F4E3C4E6F4E6ECA2F0D7D0AA
:10292000E150FC0FD96EE250DA6EFF0EDA22DEC4FF
:10293000F6F4DDC4F7F4000EF86E0800F550580AFE
:10294000D8B4DDD72D0AD8B4C9D7FF0EE36AF40E88
:10295000E3C4D9F4F50EE3C4DAF4DEC4F6F4DDC45E
:10296000F7F4000EF86E0800F550730AD8A40DD0E5
:10297000F40EE3C4D9F4F50EE3C4DAF4DE2A000E53
:10298000DD22FF0EE36AE32A4CD0F40EE3C4D9F44F
:10299000F50EE3C4DAF4DEC4F6F4DDC4F7F4000E99
:1029A000F86E0800F5506C0AD8A43BD0F40EE3C4CE
:1029B000D9F4F50EE3C4DAF4DEC40BF5DDC40CF58E
:1029C000010E0B26000E0C220BC5F6F40CC5F7F415
:1029D000000EF86E0800F5506C0AD8A422D0F40E50
:1029E000E3C4D9F4F50EE3C4DAF4DEC40BF5DDC4B8
:1029F0000CF5020E0B26000E0C220BC5F6F40CC5CE
:102A0000F7F4000EF86E0800F550730AD8A409D048
:102A1000F40EE3C4D9F4F50EE3C4DAF4030EDE26B3
:102A2000AED7FF0EE350D8B422D0F20EE3C4D9F4EF
:102A3000F30EE3C4DAF4020EDE5E000EDD5ADEC4ED
:102A40000BF5DDC40CF50BC5D9F40CC5DAF4DEC406
:102A50000BF5DDC40CF50BC5E6F40CC5E6F4F40E7D
:102A6000E3C4E6F4E3C4E6F4B2EC9AF030D0F40E3A
:102A7000E3C4D9F4F50EE3C4DAF4DE2A000EDD2255
:102A8000000E22D0F60EE3C4E6F4E3C4E6F4F20E40
:102A9000E3C4D9F4F30EE3C4DAF4DEC4F6F4DDC41F
:102AA000F7F4000EF86E0800F550E66E000EE66EC4
:102AB000EBECA9F0F40EE3C4D9F4F50EE3C4DAF4B8
:102AC000DE2A000EDD22010E016E000E026EF20EF5
:102AD000E126FF0EE2221200050EE126000EE222A0
:102AE000F70EE3C4D9F4F80EE3C4DAF4DEC409F552
:102AF000DEC40AF5DEC40BF5DEC40CF5FB0E09C519
:102B0000E3F4FC0E0AC5E3F4FD0E0BC5E3F4FE0E80
:102B10000CC5E3F4F70EE3C40BF5F80EE3C40CF5B3
:102B2000040E0B24D96E000E0C20DA6EDFA080D0CC
:102B3000F90EE3C40BF5FA0EE3C40CF5010E0B24F9
:102B4000D96E000E0C20DA6EFB0EE3C40CF5D890A3
:102B50000C36D8900C36D8900C34F80BDF6E050E7E
:102B60000C6EE150FB0FD96EE250DA6EFF0EDA22E6
:102B70000C28DE5207D0DE52DE52D890DD32DD3234
:102B8000DD32DE32E82EF7D7F90EE3C40BF5FA0E8C
:102B9000E3C40CF5020E0B24D96E000E0C20DA6E85
:102BA000FB0EE3C4DFF4FC0EE124D96EFF0EE2203D
:102BB000DA6EDEC40AF5DEC40BF5DEC40CF50A508D
:102BC000056E0B50066E0C50076E086AFB0E05C5AD
:102BD000E3F4FC0E06C5E3F4FD0E07C5E3F4FE0EB8
:102BE00008C5E3F4F90EE3C40BF5FA0EE3C40CF5E3
:102BF000030E0B24D96E000E0C20DA6EFB0EE35090
:102C00001F0BDF6E050E0C6EE150FB0FD96EE2500C
:102C1000DA6EFF0EDA220C28DE5207D0DE52DE52C8
:102C2000D890DD32DD32DD32DE32E82EF7D729D022
:102C3000F90EE3C40BF5FA0EE3C40CF5030E0B24F6
:102C4000D96E000E0C20DA6EDF6AF90EE3C40BF5C4
:102C5000FA0EE3C40CF5020E0B24E96E000E0C20F4
:102C6000EA6EDFC4EFF4F90EE3C40BF5FA0EE3C429
:102C70000CF5010E0B24D96E000E0C20DA6EEFC499
:102C8000DFF4F90EE3C4D9F4FA0EE3C4DAF4FB0E70
:102C9000E3C4DFF4FC0EE124D96EFF0EE220DA6E0D
:102CA000DEC40AF5DEC40BF5DEC40CF50A50056E71
:102CB0000B50066E0C50076E086AFB0E05C5E3F458
:102CC000FC0E06C5E3F4FD0E07C5E3F4FE0E08C5D1
:102CD000E3F4FB0EE3C40CF5070E0C16F90EE3C487
:102CE00009F5FA0EE3C40AF5010E0924D96E000EA7
:102CF0000A20DA6E0C50DF12F70EE3C40BF5F80E63
:102D0000E3C40CF5040E0B24D96E000E0C20DA6E11
:102D1000DF30E8320F0B0C6EFF0E0CC5E3F4F70E3C
:102D2000E3C40BF5F80EE3C40CF5040E0B24D96EC6
:102D3000000E0C20DA6EDFA003D0100E0C6E01D056
:102D40000C6AE150FF0FD96EE250DA6EFF0EDA2204
:102D50000C50DF12F70EE3C40BF5F80EE3C40CF5CC
:102D6000040E0B24D96E000E0C20DA6EDFA203D005
:102D7000200E0C6E01D00C6AE150FF0FD96EE250AC
:102D8000DA6EFF0EDA220C50DF12F70EE3C40BF5F9
:102D9000F80EE3C40CF5040E0B24D96E000E0C20C3
:102DA000DA6EDFAE03D0400E0C6E01D00C6AE1503B
:102DB000FF0FD96EE250DA6EFF0EDA220C50DF12EE
:102DC000F70EE3C40BF5F80EE3C40CF5040E0B2468
:102DD000D96E000E0C20DA6EDFAC03D0800E0C6EC4
:102DE00001D00C6AE150FF0FD96EE250DA6EFF0E8F
:102DF000DA220C50DF12F90EE3C40BF5FA0EE3C42D
:102E00000CF5040E0B24D96E000E0C20DA6EFF0EAA
:102E1000E3C4DFF4F70EE3C40BF5F80EE3C40CF5DE
:102E2000040E0B24D96E000E0C20DA6EDFB242D0F5
:102E3000F70EE3C40BF5F80EE3C40CF5040E0B24F7
:102E4000D96E000E0C20DA6EDF30E8320F0B0B6EFD
:102E50000C6A890E0B24F66EFD0E0C20F76EF86AD4
:102E6000000EF8220800F550E66E000EE66EF50E34
:102E7000E3C40BF5F60EE3C40CF5050E0B24D96E76
:102E8000000E0C20DA6EDEC40BF5DDC40CF50BC5AC
:102E9000E6F40CC5E6F4F50EE350080F0B6EF60EE3
:102EA000E3C40CF5000E0C220BC5E6F40CC5E6F4E9
:102EB0009BECACF0F70EE126FF0EE2221200050EAD
:102EC000E126000EE222F90EE3C40BF5FA0EE3C48C
:102ED0000CF5040E0B24D96E000E0C20DA6EDF50B8
:102EE0000C6EFF0E0CC5E3F4FF0EE3C40CF5F70EF9
:102EF000E3C409F5F80EE3C40AF5040E0924D96EFB
:102F0000000E0A20DA6E0C460C46DF500C18C30B7C
:102F10000C18DF6EFF0EE3A803D00C6A0C2A01D058
:102F20000C6AF70EE3C409F5F80EE3C40AF5040EC3
:102F30000924D96E000E0A20DA6EDF500C18FE0B41
:102F40000C18DF6EFF0EE3AA03D00C6A0C2A01D026
:102F50000C6AF70EE3C409F5F80EE3C40AF5040E93
:102F60000924D96E000E0A20DA6E0C46DF500C18C8
:102F7000FD0B0C18DF6EFF0EE3AC03D00C6A0C2ABD
:102F800001D00C6AF70EE3C409F5F80EE3C40AF5A4
:102F9000040E0924D96E000E0A20DA6E0C320C32AF
:102FA000DF500C187F0B0C18DF6EFF0EE3AE03D062
:102FB0000C6A0C2A01D00C6AF70EE3C409F5F80E6E
:102FC000E3C40AF5040E0924D96E000E0A20DA6E55
:102FD0000C3A0C460C46DF500C18BF0B0C18DF6E79
:102FE000F90EE3C40BF5FA0EE3C40CF5010E0B2445
:102FF000D96E000E0C20DA6EDF500C6E070E0C1628
:103000000CC505F5066A076A086AFB0E05C5E3F4F8
:10301000FC0E06C5E3F4FD0E07C5E3F4FE0E08C57D
:10302000E3F4E150FB0FD96EE250DA6EFF0EDA22C4
:10303000080ED890DE36DE36DE36DD36DD52DD5265
:10304000E82EF7D7E150FB0FD96EE250DA6EFF0E93
:10305000DA22F90EE3C4E9F4FA0EE3C4EAF4EF501D
:10306000DE12000EDE12DE12DE12F70EE3C40BF5E6
:10307000F80EE3C40CF5040E0B24D96E000E0C20E0
:10308000DA6EDFA087D0E150FB0FD96EE250DA6E26
:10309000FF0EDA22050ED890DE36DE36DE36DD365D
:1030A000DD52DD52E82EF7D7E150FB0FD96EE2502A
:1030B000DA6EFF0EDA22F90EE3C40BF5FA0EE3C462
:1030C0000CF5030E0B24E96E000E0C20EA6EEF5097
:1030D0001F0BDE12000EDE12DE12DE12E150FB0FBD
:1030E000D96EE250DA6EFF0EDA22080ED890DE3684
:1030F000DE36DE36DD36DD52DD52E82EF7D7E15022
:10310000FB0FD96EE250DA6EFF0EDA22F90EE3C43D
:103110000BF5FA0EE3C40CF5020E0B24E96E000E5B
:103120000C20EA6EEF50DE12000EDE12DE12DE120E
:10313000E150FB0FD96EE250DA6EFF0EDA22050E77
:10314000D890DE36DE36DE36DD36DD52DD52E82E54
:10315000F7D7E150FB0FD96EE250DA6EFF0EDA229C
:10316000F90EE3C40BF5FA0EE3C40CF5010E0B24C3
:10317000E96E000E0C20EA6EEF500C6ED8900C3207
:10318000D8900C32D8900C301F0BDE12000EDE12DD
:10319000DE12DE12E150FB0FD96EE250DA6EFF0E46
:1031A000DA22F70EE3C4E9F4F80EE3C4EAF4DEC46D
:1031B000EEF4DEC4EEF4DEC4EEF4DEC4EEF4F70E9C
:1031C000E3C40BF5F80EE3C40CF5040E0B24D96E22
:1031D000000E0C20DA6EDF30E8320F0B0B6E0C6A3B
:1031E000890E0B24F66EFD0E0C20F76EF86A000EA9
:1031F000F8220800F550E66E000EE66EF70EE3C406
:103200000BF5F80EE3C40CF5080E0B24096E000E46
:103210000C200A6E09C5E6F40AC5E6F4A90EE66EAE
:103220000B0EE66E9BECACF0F70EE3C40BF5F80E5C
:10323000E3C40CF5050E0B24D96E000E0C20DA6EDB
:10324000A90EDE6E0B0EDD6EF70EE126FF0EE222FA
:103250001200E652FF0EE36ABFAC02D0010E01D0AD
:10326000000EFF0A0C6E0C3A0C460C46BF500C18B0
:10327000BF0B0C18BF6E010E0601D827000ED92314
:10328000DA23DB232650070DE80EF3240B6E060E1F
:10329000F4200C6E0BC5E6F40CC5E6F4010EE66EE8
:1032A0006EECB8F00150D8B453D1070EE66E000EA4
:1032B000E66E2650070DE80EF3240B6E060EF42082
:1032C0000C6E0BC5E6F40CC5E6F4F60EE66E060EC3
:1032D000E66E9BECACF02650070DE80EF324D96E99
:1032E000060EF420DA6EDF500F0B020AD8B40DD0B0
:1032F0002650070DE80EF324D96E060EF420DA6E80
:10330000DF500F0B030AD8A444D0400EE66E000E27
:10331000E66E2650070DED0EF324D96E060EF4204E
:10332000DA6EDEC40BF5DDC40CF50BC5E6F40CC596
:10333000E6F42650400D000EF3240B6E0F0EF42021
:103340000C6E0BC5E6F40CC5E6F49BECACF0265015
:10335000070DE80EF324D96E060EF420DA6EDF5066
:103360000F0B020AD8A403D0010E266EF9D0265006
:10337000070DE80EF324D96E060EF420DA6EDF5046
:103380000F0B030AD8A405D0266A010E0601DC6FD4
:10339000E7D02650070DE80EF324D96E060EF42070
:1033A000DA6EDF500F0B0C0AD8A41BD0400EE66E6D
:1033B000000EE66E2650070DED0EF324D96E060EB4
:1033C000F420DA6EDEC40BF5DDC40CF50BC5E6F4B3
:1033D0000CC5E6F4800EE66E0F0EE66E9BECACF0CC
:1033E000BFD02650070DE80EF324D96E060EF42048
:1033F000DA6EDF500F0B0F0AD8A41BD0400EE66E1A
:10340000000EE66E2650070DED0EF324D96E060E63
:10341000F420DA6EDEC40BF5DDC40CF50BC5E6F462
:103420000CC5E6F4C00EE66E0F0EE66E9BECACF03B
:1034300097D02650070DE80EF324D96E060EF4201F
:10344000DA6EDF500F0B0D0AD8A41ED0400EE66EC8
:10345000000EE66E2650070DED0EF324D96E060E13
:10346000F420DA6EDEC40BF5DDC40CF50BC5E6F412
:103470000CC5E6F4400EE66E0D0EE66E9BECACF06D
:10348000010E0D01816F6CD00601F6510F0B0A0A77
:10349000D8A456D0040EE66E000EE66EFBC6E6F427
:1034A000FCC6E6F4E10EE66E050EE66E9BECACF0B3
:1034B000E10EE66E050EE66EDCECC2F001C5E4F648
:1034C00002C5E5F623C5C8F70701C96B24C5C6F7D1
:1034D000C76B0A0EE66EC00EE66E070EE66E2EECA9
:1034E000B0F001C523F502C524F523C5CCF70701CB
:1034F000CD6B24C5CAF7CB6B23C5B8F7B96B24C510
:10350000B6F7B76B0A0EE66EB00EE66E070EE66E05
:103510002EECB0F001C523F502C524F523C5BCF798
:103520000701BD6B24C5BAF7BB6B06013A51D8B48D
:1035300017D03551D8B414D0010E09010D6F10D039
:10354000F6510F0B0E0AD8A403D0010E3C6F08D021
:10355000FF0EE32AFF0EE3C401F5070E01648BD6CC
:10356000E5521200080EE126000EE222F40EE3C43A
:103570000BF5F50EE3C40CF5FB0E0CC5E3F4FA0EE7
:103580000BC5E3F4FA0EE3C401F5FB0EE3500110A2
:10359000D8A40AD0FF0E016EFB0E01C5E3F4D80ECD
:1035A000016EFA0E01C5E3F4F80EE36AF90EE36A60
:1035B0000FD0F80EE350010F016EF80E01C5E3F4D1
:1035C000016AF90EE3500120016EF90E01C5E3F422
:1035D000FA0EE3C40BF5FB0EE3C40CF5F80EE35052
:1035E0000B26F90EE3500C220BC5F6F40CC5F7F4CC
:1035F000000EF86E360EF76403D00800F55005D0C3
:10360000F6C4E9F4F7C4EAF4EF500009D8A4D1D71E
:10361000F80EE3C401F5FE0E01C5E3F4F90EE3C4B0
:1036200001F5FF0E01C5E3F4FC0E21C5E3F4FD0E28
:1036300022C5E3F425A01BD05AD0F60EE3C4E6F46D
:10364000E3C4E6F4200EE66E000EE66EEBECA9F0A5
:10365000F80EE350010F016EF80E01C5E3F4016AA4
:10366000F90EE3500120016EF90E01C5E3F4E150BB
:10367000F80FD96EE250DA6EFF0EDA22FC0EE3503C
:10368000DE5CDE50800A016EFD0EE350800A0158B8
:10369000D8B02DD0D2D7F60EE3C4E6F4E3C4E6F4F6
:1036A000F80EE3C4F6F4F90EE3C4F7F4000EF86E76
:1036B000360EF76403D00800F55005D0F6C4E9F4DF
:1036C000F7C4EAF4EF50E66E000EE66EEBECA9F0FC
:1036D000FA0EE350010F016EFA0E01C5E3F4016A20
:1036E000FB0EE3500120016EFB0E01C5E3F4E15037
:1036F000FE0FD96EE250DA6EFF0EDA22DE06000E01
:10370000DD5ADE28C8E1DE28D8A4C5D725B01BD0F5
:103710002DD0F60EE3C4E6F4E3C4E6F4200EE66E24
:10372000000EE66EEBECA9F0F80EE350010F016E0F
:10373000F80E01C5E3F4016AF90EE3500120016EB1
:10374000F90E01C5E3F4E150F80FD96EE250DA6EDC
:10375000FF0EDA22FC0EE350DE5CDE50800A016EC2
:10376000FD0EE350800A0158D8A0D3D7F80EE3C469
:1037700001F5F90EE3C402F5F40EE126FF0EE22294
:103780001200080EE126000EE222FF0EE36AE32A91
:10379000F50EE3AE03D00C6A0C2A01D00C6AFE0EC3
:1037A0000CC5E3F4FC0E21C5E3F4FD0E22C5E3F4E1
:1037B000FE0EE350D8B420D0E150FC0FD96EE25099
:1037C000DA6EFF0EDA22DE06000EDD5AFE0EE35040
:1037D000D8A402D02B0E01D02D0E0B6E000E0C6E55
:1037E000F80E0BC5E3F4F90E0CC5E3F4F80EE3C4D0
:1037F00001F5FE0E01C5E3F41F0E0B6E000E0C6EFC
:10380000FA0E0BC5E3F4FB0E0CC5E3F40701F56BF0
:1038100062D0E150FA0FD96EE250DA6EFF0EDA2272
:10382000DE06000EDD5A0A0EE66E000EE66E000E93
:10383000E66E000EE66EEE0EE3C4E6F4E3C4E6F4D4
:10384000E3C4E6F4E3C4E6F456ECA4F001C50BF5DA
:1038500002C50CF50BC5E6F40CC5E6F459ECBEF058
:10386000300E0126FA0EE3C40BF5FB0EE3C40CF593
:10387000D60E0B24D96E070E0C20DA6E01C5DFF4CC
:10388000FF0EE36AE150FC0FD96EE250DA6EFF0ED4
:10389000DA22DE06000EDD5A0A0EE66E000EE66E35
:1038A000000EE66E000EE66EEE0EE3C4E6F4E3C430
:1038B000E6F4E3C4E6F4E3C4E6F45EECA1F0F20E51
:1038C00001C5E3F4F30E02C5E3F4F40E03C5E3F41B
:1038D000F50E04C5E3F4FB0EE3BE24D0FB0EE3506B
:1038E00004E1FA0EE304D8A01DD0F20EE35091E1FA
:1038F000F30EE3508EE1F40EE3508BE1F50EE3504E
:10390000D8A487D7FF0EE350D8A483D7FD0EE3BE1B
:1039100009D0FD0EE35004E1FC0EE304D8A002D070
:1039200025B277D7FE0EE350D8B419D0E150FA0F84
:10393000D96EE250DA6EFF0EDA22DE06000EDD5A94
:10394000FA0EE3C40BF5FB0EE3C40CF5D60E0B2404
:10395000D96E070E0C20DA6EFE0EE3C4DFF4FC0E07
:10396000E3C4E6F4E3C4E6F4D60E0B6E070E0C6E69
:10397000F80EE3500B26F90EE3500C220BC5E6F4CB
:103980000CC5E6F4F20EE3C4E6F4E3C4E6F470EC2E
:10399000ADF0F20EE126FF0EE2221200426F6F74CC
:1039A00020496E697420446973706C61792020200D
:1039B0000000000000000000000000000000000007
:1039C00000000000000000000000000000000000F7
:1039D00000000000000000000000000000000000E7
:1039E00000000000000000000000000000000000D7
:1039F00000000000000000000000000000000000C7
:103A000000000000000000000000000000000000B6
:103A100000000000000000000000000000000000A6
:103A20000000000000000000000000000000000096
:103A30000000000000000000000000000000000086
:103A40000000000000000000000000000000000076
:103A50000000000000000000000000000000000066
:103A60000000000000000000000000000000000056
:103A70000000000000000000000000000000000046
:103A80000000000000000000000000000000000036
:103A90000000000000000000000000000000000026
:103AA0000000000000000000000000000000000016
:103AB0000000000000000000000000000000000006
:103AC00000000000000000000000000000000000F6
:103AD00000000000000000000000000000000000E6
:103AE00000000000000000000000000000000000D6
:103AF00000000000000000000000000000000000C6
:103B000000000000000000000000000000000000B5
:103B100000000000000000000000000000000000A5
:103B20000000000000000000000000000000000095
:103B30000000000000000000000000000000000085
:103B40000000000000000000000000000000000075
:103B50000000000000000000000000000000000065
:103B60000000000000000000000000000000000055
:103B70000000000000000000000000000000000045
:103B80000000000000000000000000000000000035
:103B90000000000000000000000000000A0EE12606
:103BA000000EE222F00EE3C4E6F4E3C4E6F4F00E05
:103BB000E3C4E6F4E3C4E6F4F00EE3C4E6F4E3C4DD
:103BC000E6F49BECACF0F00EE3C401F5100E011826
:103BD00068E1F10EE350D8A464D0F40EE3C40BF511
:103BE000F50EE3C40CF5FF0E0CC5E3F4FE0E0BC599
:103BF000E3F4F40EE3C4E6F4E3C4E6F4D4ECB8F082
:103C00000150E66E000EE66EF10EE66EFF0EE66EF9
:103C1000040EE66E000EE66EF00EE124016EFF0E5D
:103C2000E220026E01C5E6F402C5E6F4080EE66E77
:103C3000BAEC9FF0FE0EE3C40BF5FF0EE3C40CF5E7
:103C40000C0E0B24D96E000E0C20DA6EF60EE3C4B7
:103C5000DFF4F70EE124D96EFF0EE220DA6EFE0EDD
:103C6000E3C40BF5FF0EE3C40CF50D0E0B24E96E57
:103C7000000E0C20EA6EDFC4EFF4F80EE124D96EDA
:103C8000FF0EE220DA6EFE0EE3C40BF5FF0EE3C476
:103C90000CF50E0E0B24E96E000E0C20EA6EDFC44C
:103CA000EFF4F00EE3C401F5140E011868E1F10E13
:103CB000E350D8A464D0F40EE3C40BF5F50EE3C4CE
:103CC0000CF5FD0E0CC5E3F4FC0E0BC5E3F4F40E8D
:103CD000E3C4E6F4E3C4E6F404ECB9F00150E66EA4
:103CE000000EE66EF10EE66EFF0EE66E040EE66E58
:103CF000000EE66EF00EE124016EFF0EE220026E71
:103D000001C5E6F402C5E6F4080EE66EBAEC9FF0D3
:103D1000FC0EE3C40BF5FD0EE3C40CF5100E0B24F2
:103D2000D96E000E0C20DA6EF60EE3C4DFF4F70E47
:103D3000E124D96EFF0EE220DA6EFC0EE3C40BF52F
:103D4000FD0EE3C40CF5110E0B24E96E000E0C20E1
:103D5000EA6EDFC4EFF4F80EE124D96EFF0EE22024
:103D6000DA6EFC0EE3C40BF5FD0EE3C40CF5120E87
:103D70000B24E96E000E0C20EA6EDFC4EFF4F00EA7
:103D8000E3C401F5F10EE3C402F5F00EE126FF0EE7
:103D9000E22212009C0EF66E390EF76E010EF86EDE
:103DA00005EEF0F020EE00F20900F5C4EEF4DD506F
:103DB000D950FAE1DA50F8E1D60EF66E520EF76EEF
:103DC000010EF86E03EE00F320EE00F10900F5C4D9
:103DD000EEF4DD50D950FAE1DA50F8E1120EF66E49
:103DE0007D0EF76E010EF86E03EEC4F120EE2EF09C
:103DF0000900F5C4EEF4DD50D950FAE1D00EF66EAC
:103E0000650EF76E010EF86E02EE00F120EE9DF0E9
:103E10000900F5C4EEF4DD50D950FAE1380EF66E23
:103E2000740EF76E010EF86E02EE9CF020EE50F06C
:103E30000900F5C4EEF4DD50D950FAE1B20EF66E89
:103E40005B0EF76E010EF86E01EE00F320EECEF081
:103E50000900F5C4EEF4DD50D950FAE1960EF66E85
:103E60006F0EF76E010EF86E01EE00F220EE78F0A4
:103E70000900F5C4EEF4DD50D950FAE1F00EF66E0B
:103E8000850EF76E010EF86E01EECAF120EE1BF002
:103E90000900F5C4EEF4DD50D950FAE1AA0EF66E31
:103EA000870EF76E010EF86E01EE4AF120EE04F077
:103EB0000900F5C4EEF4DD50D950FAE104EEF0F05B
:103EC00021EE00F0EE6ADD50D950FCE1DA50FAE163
:103ED00004EE00F0F00EEE6AE806FDE103EE00F2FB
:103EE000400EEE6AE806FDE103EE00F1C40EEE6A54
:103EF000E806FDE103EE00F0F00EEE6AE806FDE1F3
:103F000002EE00F3E90EEE6AE806FDE102EE00F2D1
:103F1000F00EEE6AE806FDE102EE9DF1600EEE6A3B
:103F2000E806FDE102EE00F09C0EEE6AE806FDE117
:103F300001EECEF3280EEE6AE806FDE101EEC0F2D6
:103F40003D0EEE6AE806FDE101EE60F14D0EEE6A0F
:103F5000E806FDE101EE21F1170EEE6AE806FDE14B
:103F60000401080E5D6F000E5E6F000E5F6F0001B2
:103F700074EF8EF0120EE126000EE222EA0EE3C488
:103F800001F5800E015ED8B0C4D0E70EE1240B6EBF
:103F9000FF0EE2200C6EFD0E0CC5E3F4FC0E0BC50B
:103FA000E3F4EB0EE3C40BF5EC0EE3C40CF5F10EF9
:103FB0000CC5E3F4F00E0BC5E3F4EA0EE35007E1A1
:103FC000E90EE3C401F5020E015ED8A01CD0E90E93
:103FD000E350FF0F0B6EEA0EE3C40CF5FF0E0C224C
:103FE000FA0EE124D96EFF0EE220DA6E0BC5DEF484
:103FF0000CC5DDF4F30EE124D96EFF0EE220DA6E7B
:10400000DE6ADD6A14D0FA0EE124D96EFF0EE220DA
:10401000DA6E010EDE6E000EDD6EF30EE124D96E57
:10402000FF0EE220DA6E010EDE6E000EDD6EFC0E7B
:10403000E124016EFF0EE220026E01C5E6F402C526
:10404000E6F4E50EE3C4E6F4E3C4E6F4EC0EE124A2
:10405000016EFF0EE220026E01C5E6F402C5E6F431
:10406000B0ECB4F0FE0E01C5E3F4FF0E02C5E3F4BC
:10407000E90EE3C401F5EA0EE3500110D8B449D0CB
:10408000FF0EE3BE46D0E90EE350FF0F0B6EEA0EC3
:10409000E3C40CF5FF0E0C22FE0EE3C401F50B5039
:1040A000015CFF0EE350800A016E0C50800A01583B
:1040B000D8A010D0E90EE350FF0F0B6EEA0EE3C458
:1040C0000CF5FF0E0C22EE0E0BC5E3F4EF0E0CC543
:1040D000E3F40CD0FE0EE3C401F5EE0E01C5E3F4EB
:1040E000FF0EE3C401F5EF0E01C5E3F4EE0EE3C4E9
:1040F0000BF5EF0EE3C40CF5EB0EE3C409F5EC0E83
:10410000E3C40AF50B500924D96E0C500A20DA6E6C
:10411000DF6AEE0EE126FF0EE222E552E750E15E95
:06412000000EE25A12003D
:10412800FAC438F5FBC439F5F6C43AF5F7C43BF5DB
:10413800F8C43CF5F5C43DF501C53EF502C53FF5AB
:1041480003C540F504C541F505C542F506C543F567
:1041580007C544F508C545F509C546F50AC547F537
:104168000BC548F50CC549F518EEA0F101011DAFC6
:104178000FD001D80BD00500FA6E05019351FD6EE2
:104188009451FE6E9551FF6EFA50120001011D9F69
:104198001DAD0FD001D80BD00500FA6E0501905166
:1041A800FD6E9151FE6E9251FF6EFA5012000101A0
:1041B8001D9D1DAB0FD001D80BD00500FA6E05016F
:1041C8008D51FD6E8E51FE6E8F51FF6EFA501200AA
:1041D80001011D9B1CA70FD001D80BD00500FA6E5A
:1041E80005018A51FD6E8B51FE6E8C51FF6EFA509F
:1041F800120001011C971DA90FD001D80BD0050092
:10420800FA6E05018751FD6E8851FE6E8951FF6E69
:10421800FA50120001011D991DA514D001D80BD028
:104228000500FA6E05018451FD6E8551FE6E8651BA
:10423800FF6EFA501200010154B954996CB96C9987
:1042480078B978991DA710D001D80BD00500FA6E5F
:104258000601E151FD6EE251FE6EE351FF6EFA5028
:104268001200010160B76097AE9C49C50CF548C5BE
:104278000BF547C50AF546C509F545C508F544C512
:1042880007F543C506F542C505F541C504F540C522
:1042980003F53FC502F53EC501F53DC5F5F43CC53E
:1042A800F8F43BC5F7F43AC5F6F439C5FBF438C55C
:1042B800FAF41100060EE126000EE222FE0EE36A71
:1042C800F50EE3AE14D0F20EE36CF30EE31EF40E1B
:1042D800E31EF50EE31E08E3F30EE32A05E3F40EEE
:1042E800E32A02E3F50EE32AFE0EE36AE32AF90E57
:1042F800E3AE13D0F60EE36CF70EE31EF80EE31EE2
:10430800F90EE31E08E3F70EE32A05E3F80EE32AA5
:1043180002E3F90EE32AFE0EE370FA0EE36AFB0EDF
:10432800E36AFC0EE36AFD0EE36AF20EE3500AE16B
:10433800F30EE35007E1F40EE35004E1F50EE35009
:10434800D8B457D0FF0EE36A0AD0D890F20EE336FD
:10435800F30EE336F40EE336F50EE336FF0EE32AEA
:10436800F50EE3AEF2D7D890FA0EE336FB0EE3363D
:10437800FC0EE336FD0EE336E150F60FD96EE2503F
:10438800DA6EFF0EDA22F20EE350DE5CF30EE35033
:10439800DE58F40EE350DE58F50EE350DE58D8A090
:1043A80015D0E150F60FD96EE250DA6EFF0EDA2220
:1043B800F20EE350DE5EF30EE350DE5AF40EE350E5
:1043C800DE5AF50EE350DE5AFA0EE380D890F50E69
:1043D800E332F40EE332F30EE332F20EE332FF0E71
:1043E800E350016E010E015EFF0E01C5E3F4D8A48F
:1043F800BAD7FE0EE350D8B411D0FA0EE36CFB0E18
:10440800E31EFC0EE31EFD0EE31E08E3FB0EE32A8B
:1044180005E3FC0EE32A02E3FD0EE32AFA0EE3C4E9
:1044280001F5FB0EE3C402F5FC0EE3C403F5FD0E33
:10443800E3C404F5F20EE126FF0EE2221200070E95
:10444800E126000EE22206013651D8A4B6D0FD0EB0
:10445800E124D96EFF0EE220DA6EDF8EFD0EE12434
:10446800D96EFF0EE220DA6E3C0EDF12FD0EE1245B
:10447800D96EFF0EE220DA6EDF8CFD0EE124D96ED4
:10448800FF0EE220DA6EDF92FD0EE124D96EFF0EF8
:10449800E220DA6EDF8021EE31F2DEC40BF5DDC4F6
:1044A8000CF50B3A0C3AF00E0C160B500F0B0C12C5
:1044B800F00E0B16F80EE3500B24096E000E0C20BC
:1044C8000A6E040E0924056E000E0A20066E076A9D
:1044D800086AF90E05C5E3F4FA0E06C5E3F4FB0E07
:1044E80007C5E3F4FC0E08C5E3F4E150F60FD96EF6
:1044F800E250DA6EFF0EDA22FE0EE124E96EFF0EBC
:10450800E220EA6EDEC4EEF4DDC4EDF4000EE66EE1
:104518000EECBEF001A00ED0F90EE124016EFF0EE4
:10452800E220026E01C5E6F402C5E6F4000EE66E6E
:10453800F6ECB1F021EE31F2DEC40BF5DDC40CF57A
:104548000B3A0C3AF00E0C160B500F0B0C12F00E27
:104558000B160D0E0B24056E000E0C20066E076A56
:10456800086AF90E05C5E3F4FA0E06C5E3F4FB0E76
:1045780007C5E3F4FC0E08C5E3F4FE0EE124D96E8A
:10458800FF0EE220DA6E820EDE6E0D0EDD6E030E79
:10459800E66E0EECBEF001A00ED0F90EE124016E1D
:1045A800FF0EE220026E01C5E6F402C5E6F4030E32
:1045B800E66EF6ECB1F00D01C26BF60EE126FF0EC9
:1045C800E2221200060EE126000EE222FF0EE36A46
:1045D800E32AFC0E21C5E3F4FD0E22C5E3F41F0E09
:1045E8000B6E000E0C6EFA0E0BC5E3F4FB0E0CC539
:1045F800E3F40701F56B55D0E150FA0FD96EE2509C
:10460800DA6EFF0EDA22DE06000EDD5AF40EE3C47F
:104618000CF50F0E0C16FE0E0CC5E3F4FE0EE3C4EB
:1046280001F50A0E016005D0FE0EE3C401F5300E57
:1046380004D0FE0EE3C401F5370E0126FE0E01C5B7
:10464800E3F4FA0EE3C40BF5FB0EE3C40CF5D60E47
:104658000B24D96E070E0C20DA6EFE0EE3C4DFF4CD
:10466800FF0EE36AE150FC0FD96EE250DA6EFF0EDE
:10467800DA22DE06000EDD5A040E0C6EE150F40F4D
:10468800D96EE250DA6EFF0EDA220C28DE5207D01D
:10469800DE52DE52D890DD32DD32DD32DE32E82EF7
:1046A800F7D7FB0EE3BE27D0FB0EE35007E1FA0E67
:1046B800E3C401F5020E015ED8A01DD0F40EE3504C
:1046C8009BE1F50EE35098E1F60EE35095E1F70E05
:1046D800E350D8A491D7FF0EE350D8A48DD7FD0E90
:1046E800E3BE09D0FD0EE35004E1FC0EE304D8A0BC
:1046F80002D025B281D7FC0EE3C4E6F4E3C4E6F4A5
:10470800D60E0B6E070E0C6EF80EE3500B26F90E44
:10471800E3500C220BC5E6F40CC5E6F4F40EE3C432
:10472800E6F4E3C4E6F470ECADF0F40EE126FF0E17
:10473800E2221200050EE126000EE222FF0EE36AD5
:10474800E32AFD0E21C5E3F4FE0E22C5E3F41F0E95
:104758000B6E000E0C6EFB0E0BC5E3F4FC0E0CC5C5
:10476800E3F40701F56B5AD0E150FB0FD96EE25024
:10477800DA6EFF0EDA22DE06000EDD5A0A0EE66E4B
:10478800000EE66E000EE66E000EE66EF10EE3C455
:10479800E6F4E3C4E6F4E3C4E6F4E3C4E6F430EC98
:1047A800ACF001C50CF5300E0C26FB0EE3C409F580
:1047B800FC0EE3C40AF5D60E0924D96E070E0A20AA
:1047C800DA6E0CC5DFF4FF0EE36AE150FD0FD96E17
:1047D800E250DA6EFF0EDA22DE06000EDD5A0A0E0D
:1047E800E66E000EE66E000EE66E000EE66EF10E48
:1047F800E3C4E6F4E3C4E6F4E3C4E6F4E3C4E6F4AD
:10480800EAECA8F0F50E01C5E3F4F60E02C5E3F4F0
:10481800F70E03C5E3F4F80E04C5E3F4FB0EE3C496
:1048280001F5FC0EE3500110D8B41DD0F50EE3508D
:104838009BE1F60EE35098E1F70EE35095E1F80E90
:10484800E350D8A491D7FF0EE350D8A48DD7FE0E1D
:10485800E3BE09D0FE0EE35004E1FD0EE304D8A048
:1048680002D025B281D7FD0EE3C4E6F4E3C4E6F432
:10487800D60E0B6E070E0C6EF90EE3500B26FA0ED1
:10488800E3500C220BC5E6F40CC5E6F4F50EE3C4C0
:10489800E6F4E3C4E6F470ECADF0F50EE126FF0EA5
:1048A800E2221200E652E652FE0EE36AFD0EE3AE85
:1048B80014D0FA0EE36CFB0EE31EFC0EE31EFD0E95
:1048C800E31E08E3FB0EE32A05E3FC0EE32A02E3FA
:1048D800FD0EE32AFE0EE36AE32AF90EE3AE11D0D9
:1048E800F60EE36CF70EE31EF80EE31EF90EE31E58
:1048F80008E3F70EE32A05E3F80EE32A02E3F90ECC
:10490800E32AF60EE3500AE1F70EE35007E1F80E4A
:10491800E35004E1F90EE350D8B44CD0FF0EE36A3B
:104928000AD0D890F60EE336F70EE336F80EE336E3
:10493800F90EE336FF0EE32AF90EE3AEF2D7E150A3
:10494800FA0FD96EE250DA6EFF0EDA22F60EE35055
:10495800DE5CF70EE350DE58F80EE350DE58F90E31
:10496800E350DE58D8A013D0E150FA0FD96EE250C8
:10497800DA6EFF0EDA22F60EE350DE5EF70EE35033
:10498800DE5AF80EE350DE5AF90EE350DE5AD8909C
:10499800F90EE332F80EE332F70EE332F60EE332A5
:1049A800FF0EE350016E010E015EFF0E01C5E3F438
:1049B800D8A4C5D7FE0EE350D8B411D0FA0EE36CD4
:1049C800FB0EE31EFC0EE31EFD0EE31E08E3FB0ECA
:1049D800E32A05E3FC0EE32A02E3FD0EE32AFA0EBE
:1049E800E3C401F5FB0EE3C402F5FC0EE3C403F5D2
:1049F800FD0EE3C404F5F60EE126FF0EE2221200D6
:104A0800E652E652E652FD0EE36AFE0EE36AFF0E38
:104A1800E36A0FD0FB0EE350010F016EFB0E01C5D8
:104A2800E3F4016AFC0EE3500120016EFC0E01C59F
:104A3800E3F4FB0EE3C4D9F4FC0EE3C4DAF4DF506C
:104A4800200AD8B4E7D7FB0EE3C4D9F4FC0EE3C4BC
:104A5800DAF4DF500C6EF70E0C26040E0C64DAD76D
:104A6800FB0EE3C4D9F4FC0EE3C4DAF4DF502D0ADC
:104A7800D8A413D0FF0EE36AE32AFB0EE350010F1C
:104A8800016EFB0E01C5E3F4016AFC0EE350012040
:104A9800016EFC0E01C5E3F42FD0FB0EE3C4D9F47C
:104AA800FC0EE3C4DAF4DF502B0AD8B4E6D724D0DE
:104AB800FD0EE3C40BF5FE0EE3C40CF50A0E0B0263
:104AC800F3C409F5F4C40AF50C02F3500A26FB0EE8
:104AD800E3C4D9F4FC0EE3C4DAF4DF50095E000E37
:104AE8000A5A300E0926000E0A22FD0E09C5E3F403
:104AF800FE0E0AC5E3F4C1D7FB0EE3C4D9F4FC0EDD
:104B0800E3C4DAF4DF500C6ED00E0C26090E0C64E8
:104B1800CFD7FF0EE350D8A40CD0FD0EE3C401F5A7
:104B2800011EFE0EE3C402F5021E012AD8B4022AB1
:104B380006D0FD0EE3C401F5FE0EE3C402F5FB0E3C
:104B4800E126FF0EE2221200E652E652E652FE0E7F
:104B5800E36AFA0EE3C40BF5FB0EE3C40CF5040E8E
:104B68000B24D96E000E0C20DA6EDF500C6EFD0E91
:104B78000CC5E3F4FC0EE3500C0D530EF324D96E70
:104B8800010EF420DA6EDF500C6E050E016ED8901F
:104B98000C32012EFCD7070E0C16FF0E0CC5E3F4E1
:104BA800E150FD0FD96EE250DA6EFF0EDA22DFAE69
:104BB8000BD0010101B906D090ECC3F0060E011824
:104BC800D8A402D0FE0EE382E150FD0FD96EE25068
:104BD800DA6EFF0EDA22DF30E8320F0B0C6E080EA9
:104BE8000C6411D0E150FD0FD96EE250DA6EFF0E61
:104BF800DA22DFAC06D090ECC3F0060E0118D8A478
:104C080002D0FE0EE380FF0EE3500B6E0C6A080E16
:104C18000B26000E0C22890E0B24F66EFD0E0C20BE
:104C2800F76EF86A000EF8220800F5C40CF5E1509A
:104C3800FD0FD96EE250DA6EFF0EDA22DF30E8326D
:104C48000F0B096E0A6A890E0924F66EFD0E0A20FA
:104C5800F76EF86A000EF8220800F5500C5CD8B020
:104C680002D0FE0EE380FC0EE350E66EBEECC2F00E
:104C78000150D8A403D0FE0EE380E382FE0EE3C405
:104C880001F5FA0EE126FF0EE2221200BFAC02D0B7
:104C9800010E01D0000EFF0A0C6E0C3A0C460C46B1
:104CA800BF500C18BF0B0C18BF6E292A29040C6EB4
:104CB800040E0C642FD02C062C28D8B428D02B50E6
:104CC800020D420EF324D96E080EF420DA6E000E9F
:104CD800DE5C010EDE58D8A00CD02B50020D420E1F
:104CE800F324D96E080EF420DA6EDF500201A56FA6
:104CF8000CD02B50020D420EF324D96E080EF4206E
:104D0800DA6EDF50E66E77ECC3F02B2A02D02B6AFE
:104D18002C6A296A0201B2A307D0A1C200F80801CF
:104D2800016B0201B2932A6AB2A02DD0B2511F0EB4
:104D38002A6402D02A6ABF82B2AD0ED02A6A2A50EB
:104D4800020D000EF324D96E080EF420DA6E000E60
:104D5800DE6E010EDD6E0AD02A50020D000EF3241D
:104D6800D96E080EF420DA6EDE6ADD6A2A50020D6A
:104D7800000EF324D96E080EF420DA6EA151DE2657
:104D8800000EDD222A2A000EE66EE66EE66E000EA2
:104D9800E66E000EE66E000EE66E000EE66E99EC0C
:104DA800B2F01200060EE126000EE222F7C409F561
:104DB8000A6A0B6A0C6A0BC50CF50AC50BF509C51E
:104DC8000AF5096AF8C405F5066A076A086A06C595
:104DD80008F505C507F5066A056A095005120A505F
:104DE80006120B5007120C500812F6500510096EE7
:104DF80006500A6E07500B6E08500C6EFA0E09C565
:104E0800E3F4FB0E0AC5E3F4FC0E0BC5E3F4FD0E58
:104E18000CC5E3F4F90EE124D96EFF0EE220DA6E38
:104E2800DF50F86EF80EE124D96EFF0EE220DA6E3C
:104E3800DF50F76EF70EE3C4F6F40900F5500B6E79
:104E48000C6AFE0E0BC5E3F4FF0E0CC5E3F4080074
:104E5800F5500C6E0B6AFE0EE3C401F50B500112FF
:104E6800FE0E01C5E3F4FF0EE3C401F50C50011278
:104E7800FF0E01C5E3F4FC0EE124D96EFF0EE2201B
:104E8800DA6EDF50F86EFB0EE124D96EFF0EE220D9
:104E9800DA6EDF50F76EFA0EE3C4F6F4FE0EE3C4E2
:104EA80001F5FF0EE3C402F5F70EE126FF0EE2223C
:104EB8001200E652E652E652FE0EE36AFF0EE36A7D
:104EC800FB0EE3C4D9F4FC0EE3C4DAF4DEC4F6F452
:104ED800DDC4F7F4000EF86E0800F5502A0AD8A4CD
:104EE80049D0FB0EE3C4D9F4FC0EE3C4DAF4DE2A9D
:104EF800000EDD22F90EE3C4D9F4FA0EE3C4DAF4A5
:104F0800020EDE5E000EDD5ADEC40BF5DDC40CF5C4
:104F18000BC5D9F40CC5DAF4DEC40BF5DDC40CF509
:104F2800FE0E0BC5E3F4FF0E0CC5E3F43DD0FE0EF8
:104F3800E3C40BF5FF0EE3C40CF50A0E0B02F3C431
:104F480009F5F4C40AF50C02F3500A26FD0EE350E5
:104F58000926000E0A22FE0E09C5E3F4FF0E0AC553
:104F6800E3F4FB0EE3C4D9F4FC0EE3C4DAF4DE2A5E
:104F7800000EDD22FB0EE3C4D9F4FC0EE3C4DAF420
:104F8800DEC4F6F4DDC4F7F4000EF86E0800F5C4CC
:104F98000CF5D00E0C26FD0E0CC5E3F4FD0EE3C493
:104FA80001F5090E0164C3D7FE0EE3C401F5FF0E37
:104FB800E3C402F5F90EE126FF0EE2221200E652E2
:104FC800C18EFF0EE36AFF0EE3500B6E0C6A3D0EB6
:104FD8000B24D96E060E0C20DA6EFF0EE350E66E37
:104FE800BFECBDF00150DF6EFF0EE3500B6E0C6A94
:104FF800210E0B24D96E060E0C20DA6EDF50D8B4C1
:105008004DD0FF0EE350020D760EF324D96E050E37
:10501800F420DA6EDE2A000EDD222D0EDE5C010E93
:10502800DE58D8A046D0FF0EE3500B6E0C6A240E53
:105038000B24D96E060E0C20DA6EFF0EE3500B6EB1
:105048000C6A3D0E0B24E96E060E0C20EA6EDE504B
:10505800EE18D8A42ED0FF0EE350020D760EF324DE
:10506800D96E050EF420DA6EDE6ADD6AFF0EE350B3
:105078000B6E0C6A210E0B24D96E060E0C20DA6E0C
:10508800DF6AFF0EE3500B6E0C6A1E0E0B24D96EFE
:10509800060E0C20DA6E010EDF6E0BD0FF0EE35009
:1050A800020D760EF324D96E050EF420DA6EDE6A50
:1050B800DD6AFF0EE32AFF0EE3C401F5020E016468
:1050C80082D7C19EE5521200E652E652E652E652F7
:1050D800FF0EE36AFA0EE350E66ECDECC2F0FE0E68
:1050E80001C5E3F4FE0EE3A069D0FA0EE3500C0DFF
:1050F800580EF324D96E010EF420DA6EDEC40BF5D7
:10510800DDC40CF5FD0E0CC5E3F4FC0E0BC5E3F491
:10511800FC0EE3C401F5FD0EE3500110D8B44ED0E7
:10512800F80EE3C4E6F4E3C4E6F4FA0EE3C4E6F4E6
:10513800E3C4E6F45FEC97F0FA0EE3500C0D510E61
:10514800F324D96E010EF420DA6E000EDB80FB0E1C
:10515800E350020D4B0EF324D96E050EF420DA6EDF
:10516800DF2AFA0EE350E66E5FECC2F0FB0EE35066
:10517800020D4B0EF324D96E050EF420DA6E0150A1
:10518800DE5CD8A00AD0FB0EE350020D4B0EF324D0
:10519800D96E050EF420DA6EDF6AFE0EE3A60BD098
:1051A800FA0EE3500C0D540EF324D96E010EF420C0
:1051B800DA6EF70EDF16FF0EE36AE32AFF0EE3C48A
:1051C80001F5F80EE126FF0EE2221200050EE12697
:1051D800000EE222FB0EE36AFC0EE36AFD0EE36AB0
:1051E800FE0EE36AF30EE3500AE1F40EE35007E122
:1051F800F50EE35004E1F60EE350D8B457D0FF0E95
:10520800E36A0AD0D890F30EE336F40EE336F50ECF
:10521800E336F60EE336FF0EE32AF60EE3AEF2D7D8
:10522800D890FB0EE336FC0EE336FD0EE336FE0E99
:10523800E336E150F70FD96EE250DA6EFF0EDA224C
:10524800F30EE350DE5CF40EE350DE58F50EE35047
:10525800DE58F60EE350DE58D8A015D0E150F70F0F
:10526800D96EE250DA6EFF0EDA22F30EE350DE5EFC
:10527800F40EE350DE5AF50EE350DE5AF60EE35014
:10528800DE5AFB0EE380D890F60EE332F50EE332D9
:10529800F40EE332F30EE332FF0EE350016E010E1B
:1052A800015EFF0E01C5E3F4D8A4BAD7FB0EE3C430
:1052B80001F5FC0EE3C402F5FD0EE3C403F5FE0E92
:1052C800E3C404F5F30EE126FF0EE2221200206E7D
:1052D8006F2064617461202020202020202020205D
:1052E8002020000000000000000000000000000076
:1052F80000000000000000000000000000000000A6
:105308000000000000000000000000000000206E07
:105318006F5F6461746130202020202020202020CD
:105328002020000000000000000000000000000035
:105338000000000000000000000000000000000065
:105348000000000000000000000000000000206EC7
:105358006F20696E666F31202020202020202020B9
:1053680020200000000000000000000000000000F5
:105378000000000000000000000000000000000025
:105388000000000000000000000000000000206E87
:105398006F20696E666F3220202020202020202078
:1053A80020200000000000000000000000000000B5
:1053B80000000000000000000000000000000000E5
:1053C8000000000000000000000000000000FC0ECB
:1053D800E3C401F5FD0EE3500110D8B408D0FC0E6B
:1053E800E3C401F5FD0EE3500110D8A406D0FE0E6B
:1053F800E350E66E54ECC3F064D0FC0EE3C40BF546
:10540800FD0EE3C40CF50A0E0B24D96E000E0C2019
:10541800DA6EDE50DE10D8B422D0FC0EE3C40BF5F1
:10542800FD0EE3C40CF50A0E0B24D96E000E0C20F9
:10543800DA6EFC0EE3C40BF5FD0EE3C40CF5030EA7
:105448000B24E96E000E0C20EA6EDE50EE5CEE5086
:10545800800A016EDE50800A0158D8B032D0FC0EA6
:10546800E3C40BF5FD0EE3C40CF5030E0B24D96E53
:10547800000E0C20DA6EDEC40BF5DDC40CF5FC0E54
:10548800E3C4D9F4FD0EE3C4DAF4DEC409F5DDC4DF
:105498000AF50B500924D96E0C500A20DA6EFE0E5C
:1054A800E3C4DFF4FC0EE3C40BF5FD0EE3C40CF516
:1054B800030E0B24D96E000E0C20DA6EDE2A000EC5
:1054C800DD22E552E552E552E5521200E652E65277
:1054D800E652FD0EE36AFE0EE36AF90EE3C401F537
:1054E800FA0EE3500110D8B45BD0FF0EE36A10D077
:1054F800F90EE350D890E834016EF90E01C5E3F4D3
:10550800FA0EE350E834016EFA0E01C5E3F4FF0E1B
:10551800E32AFA0EE3AEECD7FD0EE350D890E83458
:10552800016EFD0E01C5E3F4FE0EE350E834016E92
:10553800FE0E01C5E3F4F90EE3C40BF5FA0EE3C45D
:105548000CF5FB0EE3C409F5FC0EE3C40AF50B5099
:10555800095C0C500A58D8A014D0FB0EE350016E19
:10556800F90EE350015EFB0E01C5E3F4FC0EE350B7
:10557800016EFA0EE350015AFC0E01C5E3F4FD0E6C
:10558800E380D890FA0EE332F90EE332FF0EE350CF
:10559800016E010E015EFF0E01C5E3F4D8A4BCD76D
:1055A800FD0EE3C401F5FE0EE3C402F5F90EE12693
:1055B800FF0EE2221200DD0E0501706F090E716FF9
:1055C800690EE66E000EE66E200EE66E000EE66EC2
:1055D800400EE66E0B0EE66E0EECB6F03A0EE66E78
:1055E800680EE66E010EE66E60ECC1F0620EE66EC5
:1055F8007A0EE66E010EE66E71ECC1F0020EE66EF2
:1056080070ECC2F04D50D8B40AD0300EE66E570E8A
:10561800E66E050EE66E000EE66E3BECB8F0000195
:105628008A93E86BFC9F849F020E866F848F3F0EDF
:10563800FD17FD9BFD51F90B0209FD6FE70EFD17E4
:10564800FD8170C5F9F071C5FAF0FB6BFC9BFC8F0E
:105658008A83530EE66E1FECC3F0050EE66E67EC08
:10566800B4F0520EE66E1FECC3F0230EE66E67EC44
:10567800B4F0410EE66E1FECC3F0510EE66E1FEC5F
:10568800C3F0200EE66E030EE66E000EE66E000E08
:10569800E66E3BECB8F096ECC3F04D6A1200C26AB5
:1056A8001E0EC16EBE6A0E0EBF6E040EC06ECA6AB2
:1056B800EF0EC66E090EC76E910EC86E010EC96E4A
:1056C8000401186B106B086B206BD90E006F010E6C
:1056D800196F216B096B260E016F810E116F226BFA
:1056E800026B0A6B126B1A6B03690B6913691B69EE
:1056F800070E236F04690C6914691C690F0E246F67
:1057080007930795079B06830685068B0583058502
:10571800058BB20EE66E870EE66E010EE66E4FEC56
:10572800C1F0B00EE66E870EE66E010EE66E3EEC38
:10573800C1F0AE0EE66E870EE66E010EE66E2DEC3B
