:0400000085EF00F098
:10000800626D626D626D626D626D626D415B846A84
:10001800626D626D9769A669626D626D626D626DEF
:10002800B569626D626D626DF468626D0569C46977
:10003800626D626D626D8A68626D626D626D77680D
:10004800626D626D626D626DCC637869626D626DBE
:10005800626D626D626D626D626D626D626D626D20
:10006800626D626D626D626D626D626D626D626D10
:10007800626D626D626D626D4200626D626D626D8D
:10008800E767D067626D626DFE67626D626D626D73
:10009800626D626D626D626D4200626D626D626D6D
:1000A800626D626D626D626D626D626D626D626DD0
:1000B800626D626D626D8767626D626D626D626DA1
:1000C800626D626D626D626D626D626D626D626DB0
:1000D8004869F069626D626D626D626D626D626D34
:1000E8004200626D626D626D626D626D626D626D1D
:1000F800626D626D626D9D68626D626D626D626D4A
:0A010800FF0015EE00F363EFB2F004
:10FA46000000C0C101C30302C2C60607C705C5C47C
:10FA560004CC0C0DCD0FCFCE0E0ACACB0BC90908AC
:10FA6600C8D81819D91BDBDA1A1EDEDF1FDD1D1CEC
:10FA7600DC14D4D515D71716D6D21213D311D1D07C
:10FA860010F03031F133F3F23236F6F737F535341C
:10FA9600F43CFCFD3DFF3F3EFEFA3A3BFB39F9F8EC
:10FAA6003828E8E929EB2B2AEAEE2E2FEF2DEDEC8C
:10FAB6002CE42425E527E7E62622E2E323E12120BC
:10FAC600E0A06061A163A3A26266A6A767A56564BC
:10FAD600A46CACAD6DAF6F6EAEAA6A6BAB69A9A82C
:10FAE6006878B8B979BB7B7ABABE7E7FBF7DBDBC6C
:10FAF6007CB47475B577B7B67672B2B373B17170FC
:10FB0600B05090915193535292965657975595945B
:10FB1600549C5C5D9D5F9F9E5E5A9A9B5B9959586B
:10FB260098884849894B8B8A4A4E8E8F4F8D4D4C0B
:10FB36008C4484854587474686824243834181803B
:10FB46004000C1814001C0804101C0804100C181A7
:10FB56004001C0804100C1814000C1814001C08098
:10FB66004101C0804100C1814000C1814001C08087
:10FB76004100C1814001C0804101C0804100C18176
:10FB86004001C0804100C1814000C1814001C08068
:10FB96004100C1814001C0804101C0804100C18156
:10FBA6004000C1814001C0804101C0804100C18147
:10FBB6004001C0804100C1814000C1814001C08038
:10FBC6004101C0804100C1814000C1814001C08027
:10FBD6004100C1814001C0804101C0804100C18116
:10FBE6004000C1814001C0804101C0804100C18107
:10FBF6004001C0804100C1814000C1814001C080F8
:10FC06004100C1814001C0804101C0804100C181E5
:10FC16004001C0804100C1814000C1814001C080D7
:10FC26004101C0804100C1814000C1814001C080C6
:10FC36004100C1814001C0804101C0804100C181B5
:10FC4600400001020304050607080C1014182030B2
:10FC5600401F1E1F1E1F1F1E1F1E1F1F1D000001EF
:10FC660050017C7C2F2F2D2D00000000000000008D
:10FC76000000000000007C7C2F2F2D2D5C5C000016
:10FC8600000000000000000000004F4F4F4F4F4F94
:10FC96002D2D5F5F2D00000000000000000076762D
:10FCA6003C3C5E5E3E3E000000000000000000009E
:10FCB60000002E2E2A2A7823782358587C7C2D2D56
:10FCC6000000000000002E2E6F6F4F4F6F6F000078
:10FCD6000000000000000000000056312E303020E9
:10FCE6004443552020513834202020200001061698
:10FCF60004000101061000000001061002000201C6
:10FD06000350000008010305000040010300000045
:10FD1600340103030200010103000B00014A616E76
:10FD26004665624D61724170724D61794A756E4ADF
:10FD3600756C4175675365704F63744E6F76446595
:10FD460063005077722025352E32666B57706B2014
:10FD560025352E32666B5768202020202020202053
:10FD660020202020202000436867204625696D69F1
:10FD76006E204125696D696E2020202020202020DC
:10FD8600202020202020202000464D3830204657B5
:10FD96002025582E25582E2558202020202020208A
:10FDA600202020202020202020004325752043529B
:10FDB60043256C7520524325752045432575202023
:10FDC60020202020202020200025342E3166562099
:10FDD60025342E316656203A446179202569202043
:10FDE60020202020200030582558255825582558F1
:10FDF6002558255825582558202020202020202009
:10FE060020004D49534320427574746F6E20507222
:10FE1600657373656420202020202020200025693A
:10FE260056706B2025342E316641706B2025694152
:10FE36006820202020202020004C6F672042757407
:10FE4600746F6E20507265737365642020202020C5
:10FE56002020200030582558202020202020202037
:10FE6600202020202020202020202000257320254F
:10FE76007520202020202020202020202020202027
:10FE86002020200042617474657279206461746177
:10FE9600206C6F616465642020200053756E4D6F81
:10FEA6006E54756557656454687546726953617416
:10FEB60000534E3A2025732025752046573A2030A8
:10FEC6005825582C255800416C7420427574746F5F
:10FED6006E20DFF420202020202020005374617241
:10FEE6007420557020202020202020202020202033
:10FEF600004E4420252E316657682041432020209D
:10FF0600202020202000444E20252E3166576820D0
:10FF160041432020202020202020004E4420252E52
:10FF260031665768205056202020202020202000AF
:10FF3600444E20252E31665768205056202020201A
:10FF46002020202000506F6C6C696E672050756D04
:10FF560070202020202020202000206572726F72E1
:10FF6600206C6F67676564200D0A00257320423A8E
:10FF760025582025582025582020200025342E31AC
:10FF8600662C25342E31662C25692C00232C25352C
:10FF96002E32662C25352E32662C0025692C25340A
:10FFA6002E31662C25692C004E6F76203137203293
:10FFB6003032340030323A34373A343600286E75EF
:10FFC6006C6C290025692C25692C0025735E0D0AA9
:10FFD600002573202020004443552030004443551B
:10FFE600203100256420257300696E66006E616EFF
:0AFFF60000474D5400257320000061
:020000040001F9
:100000002C0EE126000EE222FC0EE36ACE0EE3C4C3
:1000100009F5CF0EE3C40AF5D00EE3C40BF5D10EFB
:10002000E3C40CF5DA0E09C5E3F4DB0E0AC5E3F40C
:10003000DC0E0BC5E3F4DD0E0CC5E3F4DD0EE3AE20
:100040001AD0FC0EE36AE32ADA0EE3C4E6F4E3C452
:10005000E6F4E3C4E6F4E3C4E6F4B1ECD2F0DA0E7D
:1000600001C5E3F4DB0E02C5E3F4DC0E03C5E3F4E3
:10007000DD0E04C5E3F4EA0EE36AEB0EE36AEE0E6E
:1000800021C5E3F4EF0E22C5E3F4FC0EE350D8B42F
:1000900016D0FC0EE350D8A402D02B0E01D02D0EAA
:1000A0000B6E000E0C6ED40E0BC5E3F4D50E0CC512
:1000B000E3F4D40EE3C401F5FC0E01C5E3F4DA0E5B
:1000C000E3C4E6F4E3C4E6F4E3C4E6F4E3C4E6F42C
:1000D00037ECBAF001040210D8A44CD0FC0EE35067
:1000E000D8B417D0FC0EE3C480F8E150EE0FD96EFF
:1000F000E250DA6EFF0EDA22DE06000EDD5A010E45
:100100000B6E000E0C6EEA0E0BC5E3F4EB0E0CC585
:10011000E3F4EF0EE66EFF0EE66E800E0B6E080E39
:100120000C6EE80EE3500B26E90EE3500C220BC5D3
:10013000E6F40CC5E6F4D4ECCCF0E150EE0FD96E49
:10014000E250DA6EFF0EDA22FD0EDE26FF0EDD2211
:10015000EE0EE3C4E6F4E3C4E6F4800EE66E080EA9
:10016000E66ECE0EE3C4E6F4E3C4E6F421ECC4F09C
:10017000F1EF86F0DA0EE3C4E6F4E3C4E6F4E3C498
:10018000E6F4E3C4E6F437ECBAF001500210D8A468
:1001900030D0FC0EE350D8B417D0FC0EE3C480F886
:1001A000E150EE0FD96EE250DA6EFF0EDA22DE0673
:1001B000000EDD5A010E0B6E000E0C6EEA0E0BC522
:1001C000E3F4EB0E0CC5E3F4F30EE66EFF0EE66E01
:1001D000800E0B6E080E0C6EE80EE3500B26E90E37
:1001E000E3500C220BC5E6F40CC5E6F4D4ECCCF0DD
:1001F000A4D7000E096E000E0A6E800E0B6E3F0E25
:100200000C6ED60E09C5E3F4D70E0AC5E3F4D80E7A
:100210000BC5E3F4D90E0CC5E3F4F00EE36AF10E5E
:10022000E36A000EE66E000EE66E000EE66E000E4D
:10023000E66ED60EE3C4E6F4E3C4E6F4E3C4E6F403
:10024000E3C4E6F41FECC6F001A028D038D1E60ED6
:10025000E3C409F5E70EE3C40AF5E80EE3C40BF5C1
:10026000E90EE3C40CF5D60E09C5E3F4D70E0AC5B2
:10027000E3F4D80E0BC5E3F4D90E0CC5E3F4F00E8D
:10028000E350010F016EF00E01C5E3F4016AF10EB7
:10029000E3500120016EF10E01C5E3F4000EE66E9D
:1002A000000EE66E200EE66E410EE66ED20EE3C440
:1002B000E6F4E3C4E6F4E3C4E6F4E3C4E6F403ECF2
:1002C00091F0E60E01C5E3F4E70E02C5E3F4E80E93
:1002D00003C5E3F4E90E04C5E3F4DA0EE3C409F55B
:1002E000DB0EE3C40AF5DC0EE3C40BF5DD0EE3C45C
:1002F0000CF5E60EE350095EE70EE3500A5AE80EED
:10030000E3500B5AE90EE3500C5A09C5E6F40AC54E
:10031000E6F40BC5E6F40CC5E6F428ECD0F004BE18
:1003200096D704500310021004E1020E015CD8A01D
:100330008ED7DA0EE3C4E6F4E3C4E6F4E3C4E6F4ED
:10034000E3C4E6F4E20EE3C4E6F4E3C4E6F4E3C493
:10035000E6F4E3C4E6F4E1ECBAF001A078D7DA0EF3
:10036000E3C409F5DB0EE3C40AF5DC0EE3C40BF5C8
:10037000DD0EE3C40CF5D60EE350095ED70EE35054
:100380000A5AD80EE3500B5AD90EE3500C5A09C53D
:10039000E6F40AC5E6F40BC5E6F40CC5E6F428EC71
:1003A000D0F004BE08D004500310021072E1020E17
:1003B000015CD8B06ED0D60EE3C409F5D70EE3C405
:1003C0000AF5D80EE3C40BF5D90EE3C40CF5DA0E2A
:1003D00009C5E3F4DB0E0AC5E3F4DC0E0BC5E3F458
:1003E000DD0E0CC5E3F46BD0000EE66E000EE66E7B
:1003F000200EE66E410EE66ED20EE3C4E6F4E3C4D0
:10040000E6F4E3C4E6F4E3C4E6F4AAEC9FF0D60E07
:1004100001C5E3F4D70E02C5E3F4D80E03C5E3F437
:10042000D90E04C5E3F4E150F00FD96EE250DA6E54
:10043000FF0EDA22DE06000EDD5ADA0EE3C409F5FD
:10044000DB0EE3C40AF5DC0EE3C40BF5DD0EE3C4FA
:100450000CF5D60EE350095ED70EE3500A5AD80EBB
:10046000E3500B5AD90EE3500C5A09C5E6F40AC5FD
:10047000E6F40BC5E6F40CC5E6F428ECD0F004BEB7
:100480009AD704500310021004E1020E015CD8A0B8
:1004900092D7D60EE3C4E6F4E3C4E6F4E3C4E6F48C
:1004A000E3C4E6F4D60EE3C4E6F4E3C4E6F4E3C43E
:1004B000E6F4E3C4E6F4E1ECBAF001A095D7CD0E82
:1004C000E3C401F5FE0E01C5E3F4FE0EE3C401F53D
:1004D000FD0E01C5E3F424BE07D0F80E23C5E3F4F6
:1004E000F90E24C5E3F40AD0060E0B6E000E0C6E56
:1004F000F80E0BC5E3F4F90E0CC5E3F4F80EE3C4F3
:1005000001F5F20E01C5E3F4F90EE3C401F5F30EB3
:1005100001C5E3F4F20EE350010F016EF20E01C5C6
:10052000E3F4016AF30EE3500120016EF30E01C5FE
:10053000E3F4FD0EE3C401F5660E0118D8A434D02F
:10054000F10EE3AE18D0000E096E000E0A6E800E9A
:100550000B6E3F0E0C6ED60E09C5E3F4D70E0AC51E
:10056000E3F4D80E0BC5E3F4D90E0CC5E3F4F00E9A
:10057000E36AF10EE36AFE0EE3C401F5670E0118AB
:10058000D8B412D0F20EE350016EF00EE350012603
:10059000F20E01C5E3F4F30EE350016EF10EE350E9
:1005A0000122F30E01C5E3F4EC0EE36AED0EE36AFB
:1005B000DA0EE3C409F5DB0EE3C40AF5DC0EE3C48E
:1005C0000BF5DD0EE3C40CF5E20E09C5E3F4E30E12
:1005D0000AC5E3F4E40E0BC5E3F4E50E0CC5E3F441
:1005E000D60EE3C409F5D70EE3C40AF5D80EE3C46A
:1005F0000BF5D90EE3C40CF5E60E09C5E3F4E70EDE
:100600000AC5E3F4E80E0BC5E3F4E90E0CC5E3F408
:10061000A0D0D60EE3C4E6F4E3C4E6F4E3C4E6F403
:10062000E3C4E6F4DE0EE3C4E6F4E3C4E6F4E3C4B4
:10063000E6F4E3C4E6F4AAEC9FF001C5E6F402C5D3
:10064000E6F403C5E6F404C5E6F456ECA9F0DE0EC4
:1006500001C5E3F4DF0E02C5E3F4E00E03C5E3F4E5
:10066000E10E04C5E3F4DE0EE3C4E6F4E3C4E6F40D
:10067000E3C4E6F4E3C4E6F48AECBBF001C50BF591
:1006800002C50CF5F40E0BC5E3F4F50E0CC5E3F44E
:10069000DE0EE3C4E6F4E3C4E6F4E3C4E6F4E3C444
:1006A000E6F4D20EE3C4E6F4E3C4E6F4E3C4E6F40D
:1006B000E3C4E6F403EC91F001C5E6F402C5E6F408
:1006C00003C5E6F404C5E6F4DE0EE3C4E6F4E3C4D1
:1006D000E6F4E3C4E6F4E3C4E6F488ECD4F0E20E16
:1006E00001C5E3F4E30E02C5E3F4E40E03C5E3F44D
:1006F000E50E04C5E3F4000EE66E000EE66E200E75
:10070000E66E410EE66ED20EE3C4E6F4E3C4E6F410
:10071000E3C4E6F4E3C4E6F4AAEC9FF0D60E01C508
:10072000E3F4D70E02C5E3F4D80E03C5E3F4D90E03
:1007300004C5E3F4EC0EE350010F016EEC0E01C5AD
:10074000E3F4016AED0EE3500120016EED0E01C5E8
:10075000E3F4E150EC0FD96EE250DA6EFF0EDA22CC
:10076000F20EE350DE5CDE50800A016EF30EE350C1
:10077000800A0158D8A04DD7000EE66E000EE66E36
:10078000A00EE66E400EE66ED20EE3C4E6F4E3C4BD
:10079000E6F4E3C4E6F4E3C4E6F403EC91F0DE0E21
:1007A00001C5E3F4DF0E02C5E3F4E00E03C5E3F494
:1007B000E10E04C5E3F4DE0EE3C4E6F4E3C4E6F4BC
:1007C000E3C4E6F4E3C4E6F4DE0EE3C4E6F4E3C413
:1007D000E6F4E3C4E6F4E3C4E6F4E1ECBAF001A025
:1007E00019D0DE0EE3C4E6F4E3C4E6F4E3C4E6F4B1
:1007F000E3C4E6F4DE0EE3C4E6F4E3C4E6F4E3C4E3
:10080000E6F4E3C4E6F41FECC6F001A017D0F40E42
:10081000E3B014D0000E096E000E0A6E000E0B6ECF
:10082000000E0C6EDE0E09C5E3F4DF0E0AC5E3F41C
:10083000E00E0BC5E3F4E10E0CC5E3F4DE0EE3C4F9
:10084000E6F4E3C4E6F4E3C4E6F4E3C4E6F4D60E67
:10085000E3C4E6F4E3C4E6F4E3C4E6F4E3C4E6F494
:1008600013EC9CF0E20E01C5E3F4E30E02C5E3F4E1
:10087000E40E03C5E3F4E50E04C5E3F4000EE66EF2
:10088000000EE66E200EE66E410EE66EE20EE3C44A
:10089000E6F4E3C4E6F4E3C4E6F4E3C4E6F403EC0C
:1008A00091F001C5E6F402C5E6F403C5E6F404C51B
:1008B000E6F4DE0EE3C4E6F4E3C4E6F4E3C4E6F4EF
:1008C000E3C4E6F4E1ECBAF001A044D0F00EE3504A
:1008D000010F016EF00E01C5E3F4016AF10EE35061
:1008E0000120016EF10E01C5E3F4000EE66E000E6C
:1008F000E66E200EE66E410EE66EE20EE3C4E6F40E
:10090000E3C4E6F4E3C4E6F4E3C4E6F403EC91F0F4
:10091000E60E01C5E3F4E70E02C5E3F4E80E03C5F5
:10092000E3F4E90E04C5E3F4FD0EE3C401F5660E3D
:100930000118D8A40FD0F20EE350010F016EF20E91
:1009400001C5E3F4016AF30EE3500120016EF30EDA
:1009500001C5E3F4E60EE3C409F5E70EE3C40AF5C6
:10096000E80EE3C40BF5E90EE3C40CF5D60E09C599
:10097000E3F4D70E0AC5E3F4D80E0BC5E3F4D90EA1
:100980000CC5E3F4F00EE3C401F5FA0E01C5E3F47F
:10099000F10EE3C401F5FB0E01C5E3F4FF0EE36ABB
:1009A000F60EE36AF70EE36AEC0EE36AED0EE36A15
:1009B0005AD1D60EE3C4E6F4E3C4E6F4E3C4E6F4A5
:1009C000E3C4E6F4DE0EE3C4E6F4E3C4E6F4E3C411
:1009D000E6F4E3C4E6F4AAEC9FF001C5E6F402C530
:1009E000E6F403C5E6F404C5E6F456ECA9F0DE0E21
:1009F00001C5E3F4DF0E02C5E3F4E00E03C5E3F442
:100A0000E10E04C5E3F4DE0EE3C4E6F4E3C4E6F469
:100A1000E3C4E6F4E3C4E6F48AECBBF001C50BF5ED
:100A200002C50CF50CBE06D00C5014E10A0E0B5C8E
:100A3000D8B010D0DE0EE3C4E6F4E3C4E6F4E3C4B9
:100A4000E6F4E3C4E6F48AECBBF001C50BF502C59D
:100A50000CF504D0090E0B6E000E0C6EF40E0BC5D7
:100A6000E3F4F50E0CC5E3F4FF0EE350D8A45FD019
:100A7000FB0EE3AE5CD0EA0EE3C40BF5EB0EE3C471
:100A80000CF5800E0B24D96E080E0C20DA6E2E0E9B
:100A9000DF6EEA0EE350010F016EEA0E01C5E3F4CA
:100AA000016AEB0EE3500120016EEB0E01C5E3F489
:100AB000E150EE0FD96EE250DA6EFF0EDA22DE065A
:100AC000000EDD5AFF0EE36AE32A31D0EA0EE3C4DA
:100AD0000BF5EB0EE3C40CF5800E0B24D96E080E5B
:100AE0000C20DA6E300EDF6EEA0EE350010F016E5D
:100AF000EA0E01C5E3F4016AEB0EE3500120016E3A
:100B0000EB0E01C5E3F4E150EE0FD96EE250DA6E60
:100B1000FF0EDA22DE06000EDD5AE150F60FD96E26
:100B2000E250DA6EFF0EDA22DE06000EDD5AF60E15
:100B3000E3C401F5F70EE3500110D8A4C7D7EA0EBD
:100B4000E3C40BF5EB0EE3C40CF5800E0B24D96E59
:100B5000080E0C20DA6EF40EE350300FDF6EEA0E52
:100B6000E350010F016EEA0E01C5E3F4016AEB0EDA
:100B7000E3500120016EEB0E01C5E3F4E150EE0FEE
:100B8000D96EE250DA6EFF0EDA22DE06000EDD5A72
:100B9000DE0EE3C4E6F4E3C4E6F4E3C4E6F4E3C43F
:100BA000E6F4D20EE3C4E6F4E3C4E6F4E3C4E6F408
:100BB000E3C4E6F403EC91F001C5E6F402C5E6F403
:100BC00003C5E6F404C5E6F4DE0EE3C4E6F4E3C4CC
:100BD000E6F4E3C4E6F4E3C4E6F488ECD4F0E20E11
:100BE00001C5E3F4E30E02C5E3F4E40E03C5E3F448
:100BF000E50E04C5E3F4000EE66E000EE66E200E70
:100C0000E66E410EE66ED20EE3C4E6F4E3C4E6F40B
:100C1000E3C4E6F4E3C4E6F4AAEC9FF0D60E01C503
:100C2000E3F4D70E02C5E3F4D80E03C5E3F4D90EFE
:100C300004C5E3F4E150FA0FD96EE250DA6EFF0E0C
:100C4000DA22DE06000EDD5AEC0EE350010F016ED3
:100C5000EC0E01C5E3F4016AED0EE3500120016ED4
:100C6000ED0E01C5E3F4E150EC0FD96EE250DA6EFF
:100C7000FF0EDA22F20EE350DE5CDE50800A016ED7
:100C8000F30EE350800A0158D8B00DD0EB0EE3BE4E
:100C900090D6EB0EE35007E1EA0EE3C401F54B0EEC
:100CA000015ED8A086D64F0E0B6E000E0C6EEC0EB9
:100CB0000BC5E3F4ED0E0CC5E3F4EC0EE3C40BF549
:100CC000ED0EE3C40CF5800E0B24D96E080E0C203B
:100CD000DA6EDF6AEA0EE3C4E6F4E3C4E6F4800EFB
:100CE000E66E080EE66E800E0B6E080E0C6EE60EBB
:100CF000E3500B5EE70EE3500C5AE80EE3500B2670
:100D0000E90EE3500C220BC5E6F40CC5E6F47AECD0
:100D1000C1F0EC0EE3C40BF5ED0EE3C40CF5EA0EE6
:100D2000E3500B5EEB0EE3500C5AEA0E0BC5E3F4F6
:100D3000EB0E0CC5E3F4FC0EE350D8B402D0010E68
:100D400001D0000E0B6E0C6AEC0E0BC5E3F4ED0E39
:100D50000CC5E3F4FC0EE350D8B417D0E150EA0F11
:100D6000D96EE250DA6EFF0EDA22DE06000EDD5A90
:100D7000DEC40BF5DDC40CF5800E0B24D96E080E15
:100D80000C20DA6EFC0EE3C4DFF4EE0EE350016ECD
:100D9000EC0EE350015EEE0E01C5E3F4EF0EE350FE
:100DA000016EED0EE350015AEF0E01C5E3F4EE0EB5
:100DB000E3C4E6F4E3C4E6F4800E0B6E080E0C6E9A
:100DC000E80EE3500B26E90EE3500C220BC5E6F4C7
:100DD0000CC5E6F4CE0EE3C4E6F4E3C4E6F421EC7D
:100DE000C4F0CD0EE126FF0EE2221200E65217C635
:100DF00009F518C60AF519C60BF51AC60CF5060151
:100E0000172B000E182319231A230C500B100A104D
:100E100009E1280E095CD8B005D00501BF51D8B44E
:100E200012EF8CF00601176B186B196B1A6BFD0E25
:100E3000E3C40BF5FE0EE3C40CF5050E0B24D96ECE
:100E4000000E0C20DA6E010EDF6EE5EF8BF0FD0E6A
:100E5000E3C40BF5FE0EE3C40CF5050E0B24D96EAE
:100E6000000E0C20DA6E020EDF6E82ECDAF07CEC03
:100E7000DAF0FD0EE3C40BF5FE0EE3C40CF5010E33
:100E80000B24D96E000E0C20DA6E010EDF6EFD0E03
:100E9000E3C4D9F4FE0EE3C4DAF4FD0EE3C40BF5AB
:100EA000FE0EE3C40CF5020E0B24E96E000E0C20BE
:100EB000EA6EDFC4EFF4FD0EE3C4D9F4FE0EE3C422
:100EC000DAF4DF2AFD0EE3C40BF5FE0EE3C40CF5E5
:100ED000020E0B24D96E000E0C20DA6E030EDE1803
:100EE000D8A42AD0FD0EE3C40BF5FE0EE3C40CF526
:100EF000080E0B24D96E000E0C20DA6EDF50D8B429
:100F00001BD0FD0EE3C4D9F4FE0EE3C4DAF4FD0EEB
:100F1000E3C40BF5FE0EE3C40CF5020E0B24E96EE0
:100F2000000E0C20EA6EDFC4EFF4FD0EE3C4D9F42A
:100F3000FE0EE3C4DAF4DF2AFD0EE3C40BF5FE0E69
:100F4000E3C40CF5020E0B24D96E000E0C20DA6EF1
:100F5000040EDE18D8A42AD0FD0EE3C40BF5FE0E55
:100F6000E3C40CF5070E0B24D96E000E0C20DA6ECC
:100F7000DF50D8B41BD0FD0EE3C4D9F4FE0EE3C499
:100F8000DAF4FD0EE3C40BF5FE0EE3C40CF5020E1D
:100F90000B24E96E000E0C20EA6EDFC4EFF4FD0EA8
:100FA000E3C4D9F4FE0EE3C4DAF4DF2AFD0EE3C491
:100FB0000BF5FE0EE3C40CF5020E0B24D96E000EE9
:100FC0000C20DA6E050EDE18D8A42AD0FD0EE3C47C
:100FD0000BF5FE0EE3C40CF50A0E0B24D96E000EC1
:100FE0000C20DA6EDF50D8B41BD0FD0EE3C4D9F468
:100FF000FE0EE3C4DAF4FD0EE3C40BF5FE0EE3C40B
:101000000CF5020E0B24E96E000E0C20EA6EDFC414
:10101000EFF4FD0EE3C4D9F4FE0EE3C4DAF4DF2AE4
:10102000FD0EE3C40BF5FE0EE3C40CF5020E0B241B
:10103000D96E000E0C20DA6E060EDE18D8A42AD067
:10104000FD0EE3C40BF5FE0EE3C40CF50C0E0B24F1
:10105000D96E000E0C20DA6EDF50D8B41BD0FD0E16
:10106000E3C4D9F4FE0EE3C4DAF4FD0EE3C40BF5D9
:10107000FE0EE3C40CF5020E0B24E96E000E0C20EC
:10108000EA6EDFC4EFF4FD0EE3C4D9F4FE0EE3C450
:10109000DAF4DF2AFD0EE3C40BF5FE0EE3C40CF513
:1010A000020E0B24D96E000E0C20DA6E070EDE182D
:1010B000D8A42AD0FD0EE3C40BF5FE0EE3C40CF554
:1010C0000B0E0B24D96E000E0C20DA6EDF50D8B454
:1010D0001BD0FD0EE3C4D9F4FE0EE3C4DAF4FD0E1A
:1010E000E3C40BF5FE0EE3C40CF5020E0B24E96E0F
:1010F000000E0C20EA6EDFC4EFF4FD0EE3C4D9F459
:10110000FE0EE3C4DAF4DF2AFD0EE3C4D9F4FE0ECA
:10111000E3C4DAF4080EDF6415D1FD0EE3C4D9F49C
:10112000FE0EE3C4DAF4DF6A0DD1FD0EE3C40BF565
:10113000FE0EE3C40CF5050E0B24D96E000E0C2038
:10114000DA6E080EDF6E060EE66E000EE66E170E05
:10115000E66EFD0EE66E000EE66E0E0EE66E82EC9C
:10116000D1F0DFD0FD0EE3C40BF5FE0EE3C40CF5A9
:10117000050E0B24D96E000E0C20DA6E070EDF6E02
:10118000060EE66E000EE66E050EE66EFD0EE66ECF
:10119000000EE66E0E0EE66E82ECD1F0C2D0FD0EB1
:1011A000E3C40BF5FE0EE3C40CF5050E0B24D96E5B
:1011B000000E0C20DA6E130EDF6E060EE66E000EC9
:1011C000E66EF30EE66EFC0EE66E000EE66E0E0E9A
:1011D000E66E82ECD1F0A5D0FD0EE3C40BF5FE0E59
:1011E000E3C40CF5050E0B24D96E000E0C20DA6E4C
:1011F000030EDF6E060EE66E000EE66EF90EE66E6C
:10120000FC0EE66E000EE66E0E0EE66E82ECD1F07F
:1012100088D0FD0EE3C40BF5FE0EE3C40CF5050EFD
:101220000B24D96E000E0C20DA6E040EDF6E060E53
:10123000E66E000EE66EFF0EE66EFC0EE66E000E2B
:10124000E66E0E0EE66E82ECD1F06BD0FD0EE3C4BE
:101250000BF5FE0EE3C40CF5050E0B24D96E000E43
:101260000C20DA6E050EDF6E060EE66E000EE66EE0
:10127000110EE66EFD0EE66E000EE66E0E0EE66ECA
:1012800082ECD1F04ED0FD0EE3C40BF5FE0EE3C4AC
:101290000CF5050E0B24D96E000E0C20DA6E050E2F
:1012A000DF6E060EE66E000EE66E0B0EE66EFD0EAF
:1012B000E66E000EE66E0E0EE66E82ECD1F031D0D8
:1012C000FD0EE3C40BF5FE0EE3C40CF5010E0B247A
:1012D000D96E000E0C20DA6EDF6AFD0EE3C4D9F47D
:1012E000FE0EE3C4DAF4DF6A91D2FD0EE3C40BF51F
:1012F000FE0EE3C40CF5050E0B24D96E000E0C2077
:10130000DA6E060EDF6E060EE66E000EE66E1D0E3F
:10131000E66EFD0EE66E000EE66E0E0EE66E82ECDA
:10132000D1F0FD0EE3C40BF5FE0EE3C40CF5030E85
:101330000B24D96E000E0C20DA6E01C5DEF402C556
:10134000DDF464D2FD0EE3C40BF5FE0EE3C40CF530
:10135000020E0B24D96E000E0C20DA6EDF500B6EDD
:101360000C6A0C50000AD8A4CED70B50000AD8B48F
:10137000BCD7010AD8B46AD7030AD8B484D7010A03
:10138000D8B447D7070AD8B427D7010AD8B407D7A3
:10139000030AD8B4CAD6010AD8B4E4D60F0AD8B41E
:1013A0008FD7B1D7FD0EE3C40BF5FE0EE3C40CF5E9
:1013B000050E0B24D96E000E0C20DA6E090EDF6EBE
:1013C000000EE66E51ECD5F004500310021004E15B
:1013D000280E015CD8A01AD2000EE66EA6ECD9F059
:1013E0000501AB6BFD0EE3C40BF5FE0EE3C40CF57B
:1013F000010E0B24D96E000E0C20DA6E020EDF6E89
:1014000076ECDAF0FD0EE3C40BF5FE0EE3C40CF54A
:10141000050E0B24D96E000E0C20DA6E0A0EDF6E5C
:10142000F5D1FD0EE3C40BF5FE0EE3C40CF5050E7D
:101430000B24D96E000E0C20DA6E0B0EDF6E000E40
:10144000096E0A6A0B6A0C6A000EE66E39ECD5F07A
:1014500001C505F502C506F503C507F504C508F580
:101460000C50081808E10B50071805E10A5006183F
:1014700002E109500518D8B4C9D1FF0EE36A10D0B3
:10148000FF0EE3500B6E0C6A000E0B24D96E0E0E8D
:101490000C20DA6EDF50E66E35ECD4F0FF0EE32A56
:1014A000FD0EE3C40BF5FE0EE3C40CF5030E0B2496
:1014B000D96E000E0C20DA6EFF0EE3500B6E0C6A34
:1014C000DE500B5CDE500C58D8A0DAD7FD0EE3C41A
:1014D0000BF5FE0EE3C40CF5010E0B24D96E000EC5
:1014E0000C20DA6E030EDF6E76ECDAF0FD0EE3C44C
:1014F0000BF5FE0EE3C40CF5050E0B24D96E000EA1
:101500000C20DA6E0C0EDF6E010EBB27000EBC2322
:10151000BD23BE23BF6BA3ECDAF00150D8A476EC58
:10152000DAF0020EE66E000EE66E38ECDAF0C094E9
:101530006DD1FD0EE3C40BF5FE0EE3C40CF5050EF4
:101540000B24D96E000E0C20DA6E0D0EDF6E000E2D
:10155000096E0A6A0B6A0C6A000EE66E39ECD5F069
:1015600001C505F502C506F503C507F504C508F56F
:101570000C50081808E10B50071805E10A5006182E
:1015800002E109500518D8B441D1FD0EE3C40BF5B2
:10159000FE0EE3C40CF5050E0B24D96E000E0C20D4
:1015A000DA6E0E0EDF6E000EE66EB5ECD9F0E0D00E
:1015B000080EE66E000EE66EFB0EE3500A0F0B6E91
:1015C000FC0EE3C40CF5000E0C220BC5E6F40CC5B2
:1015D000E6F4F90EE3C4E6F4E3C4E6F477ECB1F024
:1015E00015D1080EE66E000EE66EFB0EE350070FF7
:1015F0000B6EFC0EE3C40CF5000E0C220BC5E6F4DA
:101600000CC5E6F4F90EE3C4E6F4E3C4E6F477ECC3
:10161000B1F0FCD0080EE66E000EE66EFB0EE35055
:10162000080F0B6EFC0EE3C40CF5000E0C220BC56C
:10163000E6F40CC5E6F4F90EE3C4E6F4E3C4E6F41C
:1016400077ECB1F0E3D02E0EE66E580EE66E010E8A
:10165000E66E6D0EE66E000EE66EF80EE350090FB4
:101660000B6EF90EE3C40CF5000E0C220BC5E6F46C
:101670000CC5E6F4F60EE3C4E6F4E3C4E6F4C9EC04
:10168000AAF0C4D09C0EE66EA40EE66E010EE66EC5
:10169000850EE66E000EE66EF80EE350090F0B6E37
:1016A000F90EE3C40CF5000E0C220BC5E6F40CC5D4
:1016B000E6F4F60EE3C4E6F4E3C4E6F4C9ECAAF0FB
:1016C000A5D0AC0EE66EA90EE66E010EE66E070E14
:1016D000E66E000EE66EF80EE3500C0F0B6EF90E80
:1016E000E3C40CF5000E0C220BC5E6F40CC5E6F4C1
:1016F000F60EE3C4E6F4E3C4E6F4C9ECAAF086D03F
:10170000DA0EE66EA80EE66E010EE66E150EE66EB9
:10171000000EE66EF80EE3500B0F0B6EF90EE3C4ED
:101720000CF5000E0C220BC5E6F40CC5E6F4F60E23
:10173000E3C4E6F4E3C4E6F4C9ECAAF067D0070E0C
:10174000E66E000EE66EFB0EE350060F0B6EFC0E0F
:10175000E3C40CF5000E0C220BC5E6F40CC5E6F450
:10176000F90EE3C4E6F4E3C4E6F4B2ECA7F04ED01D
:10177000FD0EE3C40BF5FE0EE3C40CF5020E0B24C4
:10178000D96E000E0C20DA6EDF500B6E0C6A0C5016
:10179000000AD8A4D4D70B50000AD8B4D0D7010A75
:1017A000D8B451D7030AD8B46DD7010AD8B432D708
:1017B000070AD8B416D7010AD8B4FAD6030AD8B49F
:1017C00080D7010AD8B49CD7BAD7FD0EE3C40BF575
:1017D000FE0EE3C40CF5010E0B24D96E000E0C2096
:1017E000DA6EDF500B6E0C6A0C50000AD8A40ED0D3
:1017F0000B50000AD8B427EF87F0010AD8B4D2D52D
:10180000030AD8B40ED6010AD8B493D6FD0EE3C4A9
:101810000BF5FE0EE3C40CF5050E0B24D96E000E7D
:101820000C20DA6EE552E552E55212002D0EE1264B
:10183000000EE222CF0EE350800F096ED00EE3C4FB
:101840000AF5A20E0A22D10EE3C40BF5430E0B22B9
:10185000D20EE3C40CF5C70E0C22E80E09C5E3F462
:10186000E90E0AC5E3F4EA0E0BC5E3F4EB0E0CC572
:10187000E3F4CF0EE3C401F5810E015ED00EE3C4A4
:1018800001F55D0E015AD10EE3C401F5BC0E015AFB
:10189000D20EE3C401F5380E015AD8A033D0800E21
:1018A000E66E510EE66E010EE66E000EE66EE40E7A
:1018B000E3C4E6F4E3C4E6F4E3C4E6F4E3C4E6F424
:1018C000FAECBFF0EC0E01C5E3F4ED0E02C5E3F453
:1018D000EE0E03C5E3F4EF0E04C5E3F4800EE66EEE
:1018E000510EE66E010EE66E000EE66EE40EE3C4E7
:1018F000E6F4E3C4E6F4E3C4E6F4E3C4E6F4B6ECE9
:10190000C3F032D0800EE66E510EE66E010EE66E2A
:10191000000EE66EE40EE3C4E6F4E3C4E6F4E3C4CA
:10192000E6F4E3C4E6F44CECB7F0EC0E01C5E3F4E6
:10193000ED0E02C5E3F4EE0E03C5E3F4EF0E04C5AD
:10194000E3F4800EE66E510EE66E010EE66E000EBA
:10195000E66EE40EE3C4E6F4E3C4E6F4E3C4E6F4BE
:10196000E3C4E6F489ECB9F0D80E01C5E3F4D90E6E
:1019700002C5E3F4DA0E03C5E3F4DB0E04C5E3F4B9
:10198000DB0EE3AE1BD0E150D80FD96EE250DA6E19
:10199000FF0EDA22800EDE26510EDE22010EDE223E
:1019A000000EDE22E150EC0FD96EE250DA6EFF0E2F
:1019B000DA22DE06000EDE5ADE5ADE5A070EE66E28
:1019C000000EE66E000EE66E000EE66EE80EE350C8
:1019D000030F096EE90EE3C40AF5000E0A22EA0EAF
:1019E000E3C40BF5000E0B22EB0EE3C40CF5000E66
:1019F0000C2209C5E6F40AC5E6F40BC5E6F40CC5ED
:101A0000E6F489ECB9F001C50BF502C50CF5FE0E44
:101A10000BC5E3F4FF0E0CC5E3F4FF0EE3AE0FD0ED
:101A2000FE0EE350070F016EFE0E01C5E3F4016ADE
:101A3000FF0EE3500120016EFF0E01C5E3F4B10E6D
:101A4000E66E3A0EE66E020EE66E000EE66EE80EEA
:101A5000E3C4E6F4E3C4E6F4E3C4E6F4E3C4E6F482
:101A60004CECB7F0F00E01C5E3F4F10E02C5E3F45F
:101A7000F20E03C5E3F4F30E04C5E3F4B10EE66E13
:101A80003A0EE66E020EE66E000EE66EE80EE3C457
:101A9000E6F4E3C4E6F4E3C4E6F4E3C4E6F489EC74
:101AA000B9F0D40E01C5E3F4D50E02C5E3F4D60EA9
:101AB00003C5E3F4D70E04C5E3F4D70EE3AE1BD0A1
:101AC000E150D40FD96EE250DA6EFF0EDA22B10E79
:101AD000DE263A0EDE22020EDE22000EDE22E1506B
:101AE000F00FD96EE250DA6EFF0EDA22DE06000E3B
:101AF000DE5ADE5ADE5AAC0EE66E8E0EE66E000E32
:101B0000E66E000EE66ED00EE3C4E6F4E3C4E6F43F
:101B1000E3C4E6F4E3C4E6F44CECB7F0E00E01C530
:101B2000E3F4E10E02C5E3F4E20E03C5E3F4E30ED1
:101B300004C5E3F4E00EE3C401F5040E011816E158
:101B4000E10EE35013E1E20EE35010E1E30EE35047
:101B5000D8A40CD0E150E00FD96EE250DA6EFF0E3F
:101B6000DA22DE06000EDE5ADE5ADE5AAC0EE66ED1
:101B70008E0EE66E000EE66E000EE66EDC0EE3C420
:101B8000E6F4E3C4E6F4E3C4E6F4E3C4E6F459ECB3
:101B9000C5F0E150D40FD96EE250DA6EFF0EDA22B2
:101BA0000150DE5E0250DE5A0350DE5A0450DE5A07
:101BB000B50EE66E050EE66E000EE66E000EE66EE3
:101BC000D00EE3C4E6F4E3C4E6F4E3C4E6F4E3C40D
:101BD000E6F44CECB7F0DC0E01C5E3F4DD0E02C513
:101BE000E3F4DE0E03C5E3F4DF0E04C5E3F4DC0E1C
:101BF000E3C401F5190E011816E1DD0EE35013E1FF
:101C0000DE0EE35010E1DF0EE350D8A40CD0E1501B
:101C1000DC0FD96EE250DA6EFF0EDA22DE06000E1D
:101C2000DE5ADE5ADE5AB50EE66E050EE66E000E80
:101C3000E66E000EE66ED80EE3C4E6F4E3C4E6F406
:101C4000E3C4E6F4E3C4E6F459ECC5F0E150D40F84
:101C5000D96EE250DA6EFF0EDA220150DE5E0250DB
:101C6000DE5A0350DE5A0450DE5A6D0EE66E010E47
:101C7000E66E000EE66E000EE66ED00EE3C4E6F4ED
:101C8000E3C4E6F4E3C4E6F4E3C4E6F44CECB7F0F2
:101C9000E40E01C5E3F4E50E02C5E3F4E60E03C568
:101CA000E3F4E70E04C5E3F4E40EE3C401F5040E27
:101CB000011816E1E50EE35013E1E60EE35010E1E2
:101CC000E70EE350D8A40CD0E150E40FD96EE250F7
:101CD000DA6EFF0EDA22DE06000EDE5ADE5ADE5A19
:101CE0006D0EE66E010EE66E000EE66E000EE66EFE
:101CF000E00EE3C4E6F4E3C4E6F4E3C4E6F4E3C4CC
:101D0000E6F459ECC5F0E150D40FD96EE250DA6E2A
:101D1000FF0EDA220150DE5E0250DE5A0350DE5A18
:101D20000450DE5AD30EE36AE40EE35027E1E50ED9
:101D3000E35024E1E60EE35021E1E70EE350D8A49E
:101D40001DD0DC0EE35017E1DD0EE35014E1DE0E92
:101D5000E35011E1DF0EE350D8A40DD0E00EE350C4
:101D60000DE1E10EE3500AE1E20EE35007E1E30E7C
:101D7000E350D8A403D0D30EE36AE32AD30EE35092
:101D80000B6E0C6AFA0E0BC5E3F4FB0E0CC5E3F404
:101D9000FA0EE3C40BF5FB0EE3C40CF5D40EE350CE
:101DA0000B26D50EE3500C223B0E0B26000E0C2208
:101DB000FC0E0BC5E3F4FD0E0CC5E3F4FA0EE35084
:101DC0006D0F0B6EFB0EE3C40CF5010E0C22FC0E26
:101DD000E3C401F50B50015CFD0EE350800A016E77
:101DE0000C50800A0158D8A019D0FA0EE3506D0F9C
:101DF0000B6EFB0EE3C40CF5010E0C22FC0EE3C4CB
:101E000001F50B50015EFC0E01C5E3F4FD0EE3C4C9
:101E100001F50C50015AFD0E01C5E3F4DC0EE3C4DC
:101E200009F5DD0EE3C40AF5DE0EE3C40BF5DF0EA3
:101E3000E3C40CF5020ED89009360A360B360C3680
:101E4000E82EF9D7900EE66E010EE66E000EE66EF5
:101E5000000EE66EEC0EE3C4E6F4E3C4E6F4E3C47D
:101E6000E6F4E3C4E6F459ECC5F001C505F502C596
:101E700006F503C507F504C508F5640EE66E000E09
:101E8000E66E000EE66E000EE66EDC0EE3C4E6F4CF
:101E9000E3C4E6F4E3C4E6F4E3C4E6F459ECC5F0C5
:101EA0000150052602500622035007220450082242
:101EB00009500524016E0A500620026E0B500720BF
:101EC000036E0C500820046EE40EE3500126E50E6C
:101ED000E3500222E60EE3500322E70EE350042211
:101EE000F40E01C5E3F4F50E02C5E3F4F60E03C5E6
:101EF000E3F4F70E04C5E3F4F80EE36AF90EE36ABF
:101F00002CD0E150D40FD96EE250DA6EFF0EDA22F7
:101F1000F80EE3C40BF5F90EE3C40CF5570E0B24D1
:101F2000F66EFC0E0C20F76EF86A000EF822080020
:101F3000F550DE5E000EDE5ADE5ADE5AF80EE35031
:101F4000010F016EF80E01C5E3F4016AF90EE350CA
:101F50000120016EF90E01C5E3F4F80EE3C40BF5A0
:101F6000F90EE3C40CF5570E0B24F66EFC0E0C2094
:101F7000F76EF86A000EF8220800F5C40CF50CC5DF
:101F800005F5066A076A086AD40EE3C401F5055030
:101F9000015CD50EE3C401F506500158D60EE3C42A
:101FA00001F507500158D70EE350800A016E085022
:101FB000800A0158D8B0A5D7F90EE3BE21D0F90E9A
:101FC000E35007E1F80EE3C401F50A0E015ED8A064
:101FD00017D0E150F80FD96EE250DA6EFF0EDA2218
:101FE000F40EDE26FF0EDD22E150F40FD96EE25032
:101FF000DA6EFF0EDA22DE2A000EDE22DE22DE227A
:10200000F40EE350640F0B6EF50EE3C40CF5000EF6
:102010000C22CD0EE3C409F5CE0EE3C40AF50A0E78
:102020000924D96E000E0A20DA6E0BC5DEF40CC549
:10203000DDF4F80EE350020F0B6EF90EE3C40CF55D
:10204000000E0C22CD0EE3C409F5CE0EE3C40AF552
:10205000080E0924D96E000E0A20DA6E0BC5DEF4D4
:102060000CC5DDF4D40EE350010F0B6ED50EE3C4A6
:102070000CF5000E0C22CD0EE3C409F5CE0EE3C420
:102080000AF5060E0924D96E000E0A20DA6E0BC579
:10209000DEF40CC5DDF4E150FE0FD96EE250DA6ECD
:1020A000FF0EDA22CD0EE3C40BF5CE0EE3C40CF521
:1020B0000C0E0B24E96E000E0C20EA6EDEC4EEF46A
:1020C000DDC4EDF4E150FC0FD96EE250DA6EFF0E84
:1020D000DA22CD0EE3C40BF5CE0EE3C40CF50E0EE2
:1020E0000B24E96E000E0C20EA6EDEC4EEF4DDC4B3
:1020F000EDF4100EE66E0E0EE66E000EE66E000EAD
:10210000E66ED40EE3C4E6F4E3C4E6F4E3C4E6F416
:10211000E3C4E6F44CECB7F001C50BF502C50CF5D1
:10212000CD0EE3C409F5CE0EE3C40AF5040E09246E
:10213000D96E000E0A20DA6E0BC5DEF40CC5DDF494
:102140003C0EE66E000EE66E000EE66E000EE66ECB
:102150003C0EE66E000EE66E000EE66E000EE66EBB
:10216000D00EE3C4E6F4E3C4E6F4E3C4E6F4E3C467
:10217000E6F44CECB7F001C5E6F402C5E6F403C59D
:10218000E6F404C5E6F489ECB9F001C50BF502C527
:102190000CF5CD0EE3C409F5CE0EE3C40AF5020E2C
:1021A0000924D96E000E0A20DA6E0BC5DEF40CC5C8
:1021B000DDF43C0EE66E000EE66E000EE66E000EDE
:1021C000E66ED40EE3C4E6F4E3C4E6F4E3C4E6F456
:1021D000E3C4E6F489ECB9F001C50BF502C50CF5D2
:1021E000CD0EE3C4D9F4CE0EE3C4DAF40BC5DEF4AD
:1021F0000CC5DDF4000E016E000E026ECD0EE12660
:10220000FF0EE22212000D0EE126000EE222F20E77
:10221000E124D96EFF0EE220DA6EDF500C6E800EE4
:102220000C16FF0E0CC5E3F4F20EE124D96EFF0E7E
:10223000E220DA6EDF500C6ED8900C340B6EFD0E7F
:102240000BC5E3F4F10EE124D96EFF0EE220DA6E45
:10225000DFAE02D0FD0EE380FD0EE350D8B41BD0FC
:10226000FD0EE328D8A414D0000E096E000E0A6EED
:10227000000E0B6E000E0C6EEF0E09C5E3F4F00EAF
:102280000AC5E3F4F10E0BC5E3F4F20E0CC5E3F45A
:10229000F10EE38E14D0000E096E000E0A6E000ED1
:1022A0000B6E000E0C6EEF0E09C5E3F4F00E0AC5BE
:1022B000E3F4F10E0BC5E3F4F20E0CC5E3F4EE0EFD
:1022C000E124D96EFF0EE220DA6EDF500C6E800E34
:1022D0000C16E150FF0FD96EE250DA6EFF0EDA22D3
:1022E0000C50DF1AEE0EE124D96EFF0EE220DA6EFA
:1022F000DF500C6ED8900C340B6EFE0E0BC5E3F461
:10230000ED0EE124D96EFF0EE220DA6EDFAE02D0D0
:10231000FE0EE380FE0EE350D8B41BD0FE0EE32881
:10232000D8A414D0000E096E000E0A6E000E0B6EBB
:10233000000E0C6EEB0E09C5E3F4EC0E0AC5E3F4D7
:10234000ED0E0BC5E3F4EE0E0CC5E3F4ED0EE38EDB
:1023500014D0000E096E000E0A6E000E0B6E000EF9
:102360000C6EEB0E09C5E3F4EC0E0AC5E3F4ED0EBA
:102370000BC5E3F4EE0E0CC5E3F4FE0EE350D8B447
:1023800004D0FD0EE350D8A409D0000E016E000E5B
:10239000026E000E036E000E046EF1D2EF0EE3C467
:1023A0000CF5ED0EE124D96EFF0EE220DA6EDF505F
:1023B0000C02FB0EF3C4E3F4FC0EF4C4E3F4FB0ED6
:1023C000E3C40CF50CC505F5066A076A086AF70E42
:1023D00005C5E3F4F80E06C5E3F4F90E07C5E3F40A
:1023E000FA0E08C5E3F4FC0EE124D96EFF0EE220DC
:1023F000DA6EDF500C6E0CC505F5066A076A086ACE
:10240000F30E05C5E3F4F40E06C5E3F4F50E07C5B7
:10241000E3F4F60E08C5E3F4F00EE124D96EFF0EE6
:10242000E220DA6EDF500C6EEC0EE124D96EFF0E66
:10243000E220DA6EDF500C02FB0EF3C4E3F4FC0E74
:10244000F4C4E3F4E150F70FD96EE250DA6EFF0EF8
:10245000DA22FB0EE350DE26000EDE22DE22DE2232
:10246000E150F30FD96EE250DA6EFF0EDA22FC0E65
:10247000E124E96EFF0EE220EA6EEF50DE26000E48
:10248000DE22DE22DE22F10EE124D96EFF0EE220F2
:10249000DA6EDF500C6EEB0EE3500C02FB0EF3C451
:1024A000E3F4FC0EF4C4E3F4E150F70FD96EE2500C
:1024B000DA6EFF0EDA22FB0EE350DE26000EDE227D
:1024C000DE22DE22E150F30FD96EE250DA6EFF0E0B
:1024D000DA22FC0EE124E96EFF0EE220EA6EEF50F4
:1024E000DE26000EDE22DE22DE22E150F70FD96E5C
:1024F000E250DA6EFF0EDA22080ED890DE36DE36B3
:10250000DE36DD36DD52DD52E82EF7D7F00EE1245F
:10251000D96EFF0EE220DA6EDF500C6EEB0EE35048
:102520000C02FB0EF3C4E3F4FC0EF4C4E3F4FB0E64
:10253000E3C40BF5FC0EE3C40CF5E150F70FD96EC4
:10254000E250DA6EFF0EDA220B50DE260C50DE224D
:10255000000EDE22DE22EF0EE3C40CF5EC0EE124C9
:10256000D96EFF0EE220DA6EDF500C02FB0EF3C4D0
:10257000E3F4FC0EF4C4E3F4FB0EE3C40BF5FC0E31
:10258000E3C40CF5E150F70FD96EE250DA6EFF0E9E
:10259000DA220B50DE260C50DE22000EDE22DE2276
:1025A000E150F70FD96EE250DA6EFF0EDA22080E14
:1025B000D890DE36DE36DE36DD36DD52DD52E82EF0
:1025C000F7D7EF0EE3C40CF5EB0EE3500C02FB0E55
:1025D000F3C4E3F4FC0EF4C4E3F4FB0EE3C40BF524
:1025E000FC0EE3C40CF5E150F70FD96EE250DA6E41
:1025F000FF0EDA220B50DE260C50DE22000EDE2209
:10260000DE22F00EE124D96EFF0EE220DA6EDF50FA
:102610000C6EED0EE124D96EFF0EE220DA6EDF5073
:102620000C02FB0EF3C4E3F4FC0EF4C4E3F4FB0E63
:10263000E3C40BF5FC0EE3C40CF5E150F30FD96EC7
:10264000E250DA6EFF0EDA220B50DE260C50DE224C
:10265000000EDE22DE22F10EE124D96EFF0EE22012
:10266000DA6EDF500C6EEC0EE124D96EFF0EE22024
:10267000DA6EDF500C02FB0EF3C4E3F4FC0EF4C47C
:10268000E3F4FB0EE3C40BF5FC0EE3C40CF5E150E0
:10269000F30FD96EE250DA6EFF0EDA220B50DE260F
:1026A0000C50DE22000EDE22DE22F10EE124D96E75
:1026B000FF0EE220DA6EDF500C6EED0EE124D96ED3
:1026C000FF0EE220DA6EDF500C02FB0EF3C4E3F4DF
:1026D000FC0EF4C4E3F4FB0EE3C40BF5FC0EE3C400
:1026E0000CF50B50056E0C50066E076A086A07C59C
:1026F00008F506C507F505C506F5056AE150F30FAF
:10270000D96EE250DA6EFF0EDA220550DE26065050
:10271000DE220750DE220850DE22E150F30FD96E90
:10272000E250DA6EFF0EDA22FA0EE124E96EFF0EB5
:10273000E220EA6EEF50DE26000EDE22DE22DE22EE
:10274000E150F70FD96EE250DA6EFF0EDA22080E72
:10275000D890DE36DE36DE36DD36DD52DD52E82E4E
:10276000F7D7FD0EE3500B6E0C6AFE0EE3500B26FE
:10277000000E0C22820E0B24096EFF0E0C200A6E36
:10278000FB0E09C5E3F4FC0E0AC5E3F421D0D89092
:10279000F30EE336F40EE336F50EE336F60EE336CB
:1027A000FA0EE3AE02D0F30EE380D890F70EE336D4
:1027B000F80EE336F90EE336FA0EE336E150FB0F7E
:1027C000D96EE250DA6EFF0EDA22DE06000EDD5A16
:1027D000F50EE3AEDCD7FE0EE36AFA0EE3AE20D0D0
:1027E000E150F70FD96EE250DA6EFF0EDA22FF0EDB
:1027F000DE14096EFF0EDE140A6EFF0EDE140B6E81
:102800007F0EDE140C6E09500A100B100C10D8B499
:1028100004D0FE0EE36AE32A03D0F30EE3B0F9D747
:10282000FE0EE350D8B434D0E150F30FD96EE2502D
:10283000DA6EFF0EDA22DE2A000EDE22DE22DE2231
:10284000F60EE3A025D0010E0C6EE150F30FD96E09
:10285000E250DA6EFF0EDA220C28DE5208D0DE5289
:10286000D890DCBED880DD32DD32DD32DE32E82EBB
:10287000F6D7FB0EE350010F016EFB0E01C5E3F42A
:10288000016AFC0EE3500120016EFC0E01C5E3F469
:10289000FC0EE3BE1CD0FC0EE35004E1FB0EE3286B
:1028A000D8A015D0000E096E000E0A6E800E0B6EB9
:1028B0007F0E0C6EF30E09C5E3F4F40E0AC5E3F4C3
:1028C000F50E0BC5E3F4F60E0CC5E3F441D0FC0E97
:1028D000E3BE07D0FC0EE3500FE1FB0EE304D8B0DB
:1028E0000BD0F30EE36AF40EE36AF50EE36AF60E1C
:1028F000E36AFF0EE36A2CD0FB0EE3C401F5FD0E84
:1029000001C5E3F4E150F30FD96EE250DA6EFF0E29
:10291000DA22FF0EDE16FF0EDE167F0EDE16000E2A
:10292000DE16FD0EE3A008D0F50EE124D96EFF0EF1
:10293000E220DA6E000EDB8EF60EE124D96EFF0E79
:10294000E220DA6EFD0EE3C40CF5D8900C30DF6E99
:10295000FF0EE3C40CF5F60EE124D96EFF0EE22063
:10296000DA6E0C50DF12F30EE3C401F5F40EE3C48B
:1029700002F5F50EE3C403F5F60EE3C404F5EB0E21
:10298000E126FF0EE2221200080EE126000EE222EE
:10299000F40EE3C4D9F4F50EE3C4DAF4DEC4F6F4BD
:1029A000DDC4F7F4000EF86E0800F550250AD8A42F
:1029B00072D3F40EE3C4D9F4F50EE3C4DAF4DE2ADC
:1029C000000EDD22000E226E000E216E21C527F5BD
:1029D00023682468F20EE3C4E6F4E3C4E6F4F20EDE
:1029E000E3C4E6F4E3C4E6F4E7ECBDF001C521F589
:1029F00002C522F522AE05D02780216C221ED8B058
:102A0000222AF40EE3C4D9F4F50EE3C4DAF4DEC4EA
:102A1000F6F4DDC4F7F4000EF86E0800F5502E0A47
:102A2000D8A419D0F40EE3C4D9F4F50EE3C4DAF453
:102A3000DE2A000EDD22F20EE3C4E6F4E3C4E6F47F
:102A4000F20EE3C4E6F4E3C4E6F4E7ECBDF001C53E
:102A500023F502C524F5F40EE3C4D9F4F50EE3C45E
:102A6000DAF4DEC40BF5DDC40CF5FD0E0CC5E3F4A1
:102A7000FC0E0BC5E3F4E150FC0FD96EE250DA6EA8
:102A8000FF0EDA22DEC4F6F4DDC4F7F4000EF86EB1
:102A90000800FE0EF5C4E3F419D0FC0EE350010F5C
:102AA000016EFC0E01C5E3F4016AFD0EE350012046
:102AB000016EFD0E01C5E3F41BD0690E0C6EFE0E17
:102AC0000CC5E3F415D0FE0EE36A12D0FE0EE350FF
:102AD000580AD8B4F2D73C0AD8B4EFD70D0AD8B404
:102AE000ECD7050AD8B4D9D7190AD8B4E6D7EBD7AA
:102AF000E150FC0FD96EE250DA6EFF0EDA22DEC42E
:102B0000F6F4DDC4F7F4000EF86E0800F550640A20
:102B1000D8B460D0E150FC0FD96EE250DA6EFF0EEF
:102B2000DA22DEC4F6F4DDC4F7F4000EF86E080015
:102B3000F550690AD8B44ED079D0F20EE3C4D9F476
:102B4000F30EE3C4DAF4020EDE5E000EDD5ADEC4DC
:102B50000BF5DDC40CF50BC5D9F40CC5DAF4DEC4F5
:102B60000BF5DDC40CF5F80E0BC5E3F4F90E0CC53E
:102B7000E3F4016AE3BE0168FA0E01C5E3F4FB0E5B
:102B800001C5E3F42FD0F20EE3C4D9F4F30EE3C48D
:102B9000DAF4040EDE5E000EDD5ADEC40BF5DDC491
:102BA0000CF50BC5D9F40CC5DAF4DEC409F5DEC4A6
:102BB0000AF5DEC40BF5DEC40CF5F80E09C5E3F426
:102BC000F90E0AC5E3F4FA0E0BC5E3F4FB0E0CC5CF
:102BD000E3F408D0FE0EE350690AD8B4AED7050A74
:102BE000D8B4D1D7FC0EE350010F0B6EFD0EE3C439
:102BF0000CF5000E0C22F40EE3C4D9F4F50EE3C478
:102C0000DAF40BC5DEF40CC5DDF4F80EE3C4E6F42B
:102C1000E3C4E6F4E3C4E6F4E3C4E6F4F20EE3C48A
:102C2000E6F4E3C4E6F46BECAEF05AD2E150FC0FEC
:102C3000D96EE250DA6EFF0EDA22DEC4F6F4DDC49D
:102C4000F7F4000EF86E0800F550580AD8B463D0B7
:102C5000E150FC0FD96EE250DA6EFF0EDA22DEC4CC
:102C6000F6F4DDC4F7F4000EF86E0800F550750AAE
:102C7000D8B451D0A3D0F20EE3C4D9F4F30EE3C418
:102C8000DAF4020EDE5E000EDD5ADEC40BF5DDC4A2
:102C90000CF50BC5D9F40CC5DAF4DEC40BF5DDC4B4
:102CA0000CF50B50056E0C50066E076A086AF80E9C
:102CB00005C5E3F4F90E06C5E3F4FA0E07C5E3F41F
:102CC000FB0E08C5E3F42FD0F20EE3C4D9F4F30EE3
:102CD000E3C4DAF4040EDE5E000EDD5ADEC40BF54A
:102CE000DDC40CF50BC5D9F40CC5DAF4DEC409F566
:102CF000DEC40AF5DEC40BF5DEC40CF5F80E09C51A
:102D0000E3F4F90E0AC5E3F4FA0E0BC5E3F4FB0E87
:102D10000CC5E3F408D0FE0EE350690AD8B4ABD773
:102D2000050AD8B4D1D7FC0EE350010F0B6EFD0E8F
:102D3000E3C40CF5000E0C22F40EE3C4D9F4F50E36
:102D4000E3C4DAF40BC5DEF40CC5DDF422D0F80ED2
:102D5000E3C4E6F4E3C4E6F4E3C4E6F4E3C4E6F46F
:102D6000F20EE3C4E6F4E3C4E6F4B8ECB5F0B8D18F
:102D7000F80EE3C4E6F4E3C4E6F4E3C4E6F4E3C423
:102D8000E6F4F20EE3C4E6F4E3C4E6F4EEECB4F0E9
:102D9000A7D1E150FC0FD96EE250DA6EFF0EDA22B5
:102DA000DEC4F6F4DDC4F7F4000EF86E0800F5504A
:102DB000580AD8B4DDD72D0AD8B4C9D7FF0EE36AB4
:102DC000F40EE3C4D9F4F50EE3C4DAF4DEC4F6F489
:102DD000DDC4F7F4000EF86E0800F550730AD8A4AD
:102DE0000DD0F40EE3C4D9F4F50EE3C4DAF4DE2A10
:102DF000000EDD22FF0EE36AE32A4CD0F40EE3C49A
:102E0000D9F4F50EE3C4DAF4DEC4F6F4DDC4F7F465
:102E1000000EF86E0800F5506C0AD8A43BD0F40EF2
:102E2000E3C4D9F4F50EE3C4DAF4DEC40BF5DDC473
:102E30000CF5010E0B26000E0C220BC5F6F40CC58A
:102E4000F7F4000EF86E0800F5506C0AD8A422D0F2
:102E5000F40EE3C4D9F4F50EE3C4DAF4DEC40BF5E2
:102E6000DDC40CF5020E0B26000E0C220BC5F6F489
:102E70000CC5F7F4000EF86E0800F550730AD8A4DC
:102E800009D0F40EE3C4D9F4F50EE3C4DAF4030E6A
:102E9000DE26AED7FF0EE350D8B422D0F20EE3C444
:102EA000D9F4F30EE3C4DAF4020EDE5E000EDD5A4E
:102EB000DEC40BF5DDC40CF50BC5D9F40CC5DAF492
:102EC000DEC40BF5DDC40CF50BC5E6F40CC5E6F469
:102ED000F40EE3C4E6F4E3C4E6F448ECADF000D14C
:102EE000F40EE3C4D9F4F50EE3C4DAF4DEC40BF552
:102EF000DDC40CF5FD0E0CC5E3F4FC0E0BC5E3F4CC
:102F0000E150FC0FD96EE250DA6EFF0EDA22DEC419
:102F1000F6F4DDC4F7F4000EF86E0800FE0EF5C4FA
:102F2000E3F419D0FC0EE350010F016EFC0E01C555
:102F3000E3F4016AFD0EE3500120016EFD0E01C5B0
:102F4000E3F415D06C0E0C6EFE0E0CC5E3F40FD03E
:102F5000FE0EE36A0CD0FE0EE3504C0AD8B4E2D762
:102F60002A0AD8B4EFD70A0AD8B4DCD7F1D7E1508F
:102F7000FC0FD96EE250DA6EFF0EDA22DEC4F6F4F0
:102F8000DDC4F7F4000EF86E0800F550660AD8B4F8
:102F900028D076D0F20EE3C4D9F4F30EE3C4DAF409
:102FA000040EDE5E000EDD5ADEC40BF5DDC40CF54A
:102FB0000BC5D9F40CC5DAF4DEC409F5DEC40AF594
:102FC000DEC40BF5DEC40CF5F80E09C5E3F4F90E0A
:102FD0000AC5E3F4FA0E0BC5E3F4FB0E0CC5E3F4EB
:102FE00008D0FE0EE3504C0AD8B4D4D7200AD8B487
:102FF000D1D7FC0EE350010F0B6EFD0EE3C40CF5B0
:10300000000E0C22F40EE3C4D9F4F50EE3C4DAF496
:103010000BC5DEF40CC5DDF421D0E150FC0FD96EF8
:10302000E250DA6EFF0EDA22DEC4F6F4DDC4F7F405
:10303000000EF86E0800F550E66EF70EE3C4E6F4F5
:10304000E3C4E6F4E3C4E6F4E3C4E6F4F10EE3C457
:10305000E6F4E3C4E6F400EC80F042D0E150FC0F6B
:10306000D96EE250DA6EFF0EDA22DEC4F6F4DDC469
:10307000F7F4000EF86E0800F550660AD8B4CDD704
:10308000F40EE3C4D9F4F50EE3C4DAF4DE2A000E3C
:10309000DD22000E22D0F60EE3C4E6F4E3C4E6F42B
:1030A000F20EE3C4D9F4F30EE3C4DAF4DEC4F6F4AA
:1030B000DDC4F7F4000EF86E0800F550E66E000E61
:1030C000E66EFBECC0F0F40EE3C4D9F4F50EE3C4F5
:1030D000DAF4DE2A000EDD22010E016E000E026E11
:1030E000F20EE126FF0EE2221200170EE126000E7C
:1030F000E2227AECD0F015ECCDF0D68ED68CA80E6C
:10310000E66E790EE66E010EE66EF0ECD7F0B5ECE9
:10311000DAF08C0EE66EA30EE66E010EE66E12EC91
:10312000D8F0C1ECDAF0800EE66E9E0EE66E010E6F
:10313000E66E01ECD8F0BBECDAF0F3ECC4F01CEC7A
:10314000D6F0580EE66EA40EE66E010EE66E35EC75
:10315000D7F0140EE66E000EE66E020EE66E19EC67
:10316000D4F0BDECD4F0C80EE66E000EE66E030E91
:10317000E66E19ECD4F067ECC2F0E00EE66EFC0EE1
:10318000E66ED70EE66EFF0EE66E000EE66E020EDF
:10319000E66E000EE66E150EE66E080EE66E43EC69
:1031A000B3F0000EE66E150EE66E000EE66E000E33
:1031B000E66EDFECC6F0AE0EE66EFF0EE66ED70EE4
:1031C000E66EFF0EE66E000EE66E020EE66E000E76
:1031D000E66E150EE66E080EE66E43ECB3F0000EDA
:1031E000E66E150EE66E000EE66E010EE66EDFEC84
:1031F000C6F0A90EE66E0A0EE66EF1ECC1F00150C3
:10320000D8B413D0ABCABCF68A0EE66EFE0EE66EDC
:10321000000EE66E020EE66E000EE66E150EE66E0F
:10322000060EE66E43ECB3F020D0F150E66E000ED1
:10323000E66EF050E66E000EE66ED850E66E000EBA
:10324000E66EBA0EE66EFF0EE66E710EE66EFF0ECD
:10325000E66E000EE66E020EE66E000EE66E150ECF
:10326000E66E0E0EE66E43ECB3F0000EE66E150E43
:10327000E66E000EE66E020EE66EDFECC6F0E20EC3
:10328000E66EFE0EE66EFB0EE66EFF0EE66E000EBE
:10329000E66E020EE66E000EE66E150EE66E080E87
:1032A000E66E43ECB3F0000EE66E150EE66E000E11
:1032B000E66E030EE66EDFECC6F0400EE66E420EE2
:1032C000E66E0F0EE66E000EE66EA8ECCEF04B0E2C
:1032D000E66EFF0EE66EFB0EE66EFF0EE66E000E6D
:1032E000E66E020EE66E000EE66E150EE66E080E37
:1032F000E66E43ECB3F0000EE66E150EE66E000EC1
:10330000E66E020EE66EDFECC6F00601B16BB26B44
:10331000FF0EE36AFF0EE350020DF3C409F5F4C497
:103320000AF5000E0ABEFF0E0B6E0C6E000E09248D
:10333000046E000E0A20056E2C0E0B20066E04C5CE
:10334000E6F405C5E6F406C5E6F460ECBDF0FF0E54
:10335000E350020DC80EF324D96E060EF420DA6E87
:1033600001C5DEF402C5DDF4FF0EE350020DC80E08
:10337000F324D96E060EF420DA6EDE500601B12772
:10338000DD50B223FF0EE32AFF0EE3C401F5080E61
:103390000164C0D7B16BB26BD6C6E6F4D7C6E6F40B
:1033A000D4C6E6F4D5C6E6F4D2C6E6F4D3C6E6F44F
:1033B000D0C6E6F4D1C6E6F4CEC6E6F4CFC6E6F44F
:1033C000CCC6E6F4CDC6E6F4CAC6E6F4CBC6E6F44F
:1033D000C8C6E6F4C9C6E6F4EE0EE66EFD0EE66E6D
:1033E000150EE66E000EE66ED50EE124016EFF0EA0
:1033F000E220026E01C5E6F402C5E6F4160EE66EA2
:1034000043ECB3F0E90EE124016EFF0EE220026E00
:1034100001C5E6F402C5E6F43AECC9F0C40EE66E66
:10342000050EE66EE2ECD9F001C598F502C599F5F6
:10343000C18A710EE66E070EE66EF6EC86F00601A6
:103440009951D8B414D06FECD2F00601996B0101F8
:1034500051B302D0010E01D0000E010B0601BA6F6C
:10346000BA51D8A402D007017E6B7AC7BBF6030E0F
:10347000E66EFFECD6F00150D8B453D12F2A2F04BA
:103480000C6E040E0C6485D0000EE66E000EE66E27
:10349000000EE66E000EE66E200EE66E410EE66E43
:1034A00032C6E6F433C6E6F434C6E6F435C6E6F4CE
:1034B000010EE66E8AECB0F001C5E6F402C5E6F452
:1034C00003C5E6F404C5E6F4AAEC9FF001C5E6F4F2
:1034D00002C5E6F403C5E6F404C5E6F4D4ECB8F09E
:1034E000000EE66E010EE66E000EE66E000EE66E53
:1034F000200EE66E410EE66E4AC6E6F44BC6E6F4D2
:103500004CC6E6F44DC6E6F4010EE66E8AECB0F069
:1035100001C5E6F402C5E6F403C5E6F404C5E6F425
:10352000AAEC9FF001C5E6F402C5E6F403C5E6F493
:1035300004C5E6F4D4ECB8F0000EE66E020EE66EBA
:10354000000EE66E000EE66E200EE66E410EE66E92
:1035500056C6E6F457C6E6F458C6E6F459C6E6F48D
:10356000010EE66E8AECB0F001C5E6F402C5E6F4A1
:1035700003C5E6F404C5E6F4AAEC9FF001C5E6F441
:1035800002C5E6F403C5E6F404C5E6F4D4ECB8F0ED
:103590002F6AC80EE66E000EE66E030EE66E19EC9C
:1035A000D4F007017A51D8B485D00501AD51096E28
:1035B000AE510A6E0B6A0C6A095006018E5D0A5004
:1035C0008F590B5090590C509159D8B073D0E30ECD
:1035D000E66EFF0EE66E000EE66E020EE66E000E62
:1035E000E66E150EE66E060EE66E43ECB3F0000EC8
:1035F000E66E150EE66E000EE66E010EE66EDFEC70
:10360000C6F0600EE66EFF0EE66E000EE66E020E6F
:10361000E66E000EE66E130EE66E060EE66E43ECE8
:10362000B3F02E50D8A430D074C7E6F475C7E6F4D2
:103630000501AB51E66E000EE66EB3C5E6F4B4C507
:10364000E6F4B5C5E6F4B6C5E6F407017351E66ED7
:10365000000EE66EB00EE66EFD0EE66E000EE66E35
:10366000020EE66E000EE66E150EE66E100EE66EAB
:1036700043ECB3F0000EE66E150EE66E000EE66E3D
:10368000000EE66EDFECC6F02E2A2E040C6E090E3C
:103690000C6447D0030E0501AD250B6E000EAE2164
:1036A0000C6E0BC58EF60CC58FF60601906B916BF8
:1036B0002E6A37D00501AD6BAE6BE30EE66EFF0EE2
:1036C000E66E000EE66E020EE66E000EE66E150E5B
:1036D000E66E060EE66E43ECB3F0000EE66E150ED7
:1036E000E66E000EE66E010EE66EDFECC6F0DD0E55
:1036F000E66EFF0EE66E000EE66E020EE66E000E41
:10370000E66E150EE66E060EE66E43ECB3F0000EA6
:10371000E66E150EE66E000EE66E000EE66EDFEC4F
:10372000C6F006019E51D8B42ED0BF829E6BBC2B32
:10373000030EBC6501D0BC6BBCC6ABFACD0EE66E09
:10374000FE0EE66EBC51E66E000EE66EE90EE66E0B
:10375000FF0EE66E000EE66E020EE66E000EE66EE0
:10376000150EE66E0A0EE66E43ECB3F0000EE66E42
:10377000150EE66E000EE66E020EE66EDFECC6F08B
:10378000010E0601B96F9F51D8B425D0BF829F6B3F
:103790003F0EE66EFE0EE66EEC0EE66EFF0EE66E79
:1037A000000EE66E020EE66E000EE66E150EE66E7A
:1037B000080EE66E43ECB3F0000EE66E150EE66EF4
:1037C000000EE66E020EE66EDFECC6F0010E06019C
:1037D000B76F010EB96FA051D8B423D0BF82A06BD0
:1037E000080EE66EFE0EE66EEC0EE66EFF0EE66E60
:1037F000000EE66E020EE66E000EE66E150EE66E2A
:10380000080EE66E43ECB3F0000EE66E150EE66EA3
:10381000000EE66E020EE66EDFECC6F0010E06014B
:10382000B96FC19A05D6E652E652E652E652FB0E51
:10383000E124D96EFF0EE220DA6EDF500C6E800EAE
:103840000C16FF0E0CC5E3F4FB0EE124D96EFF0E3F
:10385000E220DA6EDF500C6ED8900C340B6EFD0E49
:103860000BC5E3F4FA0EE124D96EFF0EE220DA6E06
:10387000DFAE02D0FD0EE380FD0EE350D8B422D0BF
:10388000FD0EE328D8A414D0000E096E000E0A6EB7
:10389000000E0B6E000E0C6EF80E09C5E3F4F90E67
:1038A0000AC5E3F4FA0E0BC5E3F4FB0E0CC5E3F412
:1038B000FA0EE38EFB0EE124D96EFF0EE220DA6EE3
:1038C000DF6A14D0000E096E000E0A6E000E0B6E39
:1038D000000E0C6EF80E09C5E3F4F90E0AC5E3F408
:1038E000FA0E0BC5E3F4FB0E0CC5E3F4F70EE1246E
:1038F000D96EFF0EE220DA6EDF500C6E800E0C16D1
:10390000FE0E0CC5E3F4E150FE0FD96EE250DA6E04
:10391000FF0EDA22FF0EE350DE18D8B402D0FF0EFD
:10392000E38CF70EE124D96EFF0EE220DA6EDF5051
:103930000C6ED8900C340B6EFE0E0BC5E3F4F60E35
:10394000E124D96EFF0EE220DA6EDFAE02D0FE0E69
:10395000E380FE0EE350D8B422D0FE0EE328D8A4B4
:1039600014D0000E096E000E0A6E000E0B6E000ED3
:103970000C6EF40E09C5E3F4F50E0AC5E3F4F60E79
:103980000BC5E3F4F70E0CC5E3F4F60EE38EF70E69
:10399000E124D96EFF0EE220DA6EDF6A14D0000E49
:1039A000096E000E0A6E000E0B6E000E0C6EF40E09
:1039B00009C5E3F4F50E0AC5E3F4F60E0BC5E3F40E
:1039C000F70E0CC5E3F4E150FE0FD96EE250DA6E4B
:1039D000FF0EDA22FD0EE350DE5CD8B08FD0FF0E72
:1039E000E3AC02D0FF0EE37EFD0EE3C401F5FC0E56
:1039F00001C5E3F4FE0EE3C401F5FD0E01C5E3F4D9
:103A0000FC0EE3C401F5FE0E01C5E3F4F80EE3C4B9
:103A100001F5FC0E01C5E3F4F40EE3C401F5F80E64
:103A200001C5E3F4FC0EE3C401F5F40E01C5E3F4B3
:103A3000F90EE124D96EFF0EE220DA6EDF500C6E33
:103A4000FC0E0CC5E3F4F50EE124D96EFF0EE22066
:103A5000DA6EF90EE124E96EFF0EE220EA6EDFC4B1
:103A6000EFF4F50EE124D96EFF0EE220DA6EFC0EC3
:103A7000E3C4DFF4FA0EE124D96EFF0EE220DA6E21
:103A8000DF500C6EFC0E0CC5E3F4F60EE124D96E8B
:103A9000FF0EE220DA6EFA0EE124E96EFF0EE2205C
:103AA000EA6EDFC4EFF4F60EE124D96EFF0EE220D9
:103AB000DA6EFC0EE3C4DFF4FB0EE124D96EFF0ED8
:103AC000E220DA6EDF500C6EFC0E0CC5E3F4F70E4C
:103AD000E124D96EFF0EE220DA6EFB0EE124E96EDE
:103AE000FF0EE220EA6EDFC4EFF4F70EE124D96E98
:103AF000FF0EE220DA6EFC0EE3C4DFF4FC0EE36A94
:103B0000FE0EE3500B6E0C6AFD0EE3500B5E000ED2
:103B10000C5A0CBE5DD00C5004E11A0E0B5CD8A000
:103B200057D0F80EE3500AE1F90EE35007E1FA0E20
:103B3000E35004E1FB0EE350D8B403D00C6A0C2A26
:103B400001D00C6AFC0E0CC5E3F4F80EE36AF90E22
:103B5000E36AFA0EE36AFB0EE36AFE0EE3C401F5C4
:103B6000FD0E01C5E3F440D0FC0EE3A00BD0FC0E2B
:103B7000E3C40CF5D8900C32010E0C12FC0E0CC5EF
:103B8000E3F409D0E150FC0FD96EE250DA6EFF0E7B
:103B9000DA22D890DF32F80EE3A002D0FC0EE38EDA
:103BA000010E0C6EE150F80FD96EE250DA6EFF0E86
:103BB000DA220C28DE5208D0DE52D890DCBED88043
:103BC000DD32DD32DD32DE32E82EF6D7FD0EE32ABD
:103BD000E150FD0FD96EE250DA6EFF0EDA22FE0ED2
:103BE000E350DE5CD8A0C0D7FF0EE3BC60D0FD0E72
:103BF000E350D8B4E3D0F80EE350016EF40EE35076
:103C00000126F80E01C5E3F4F90EE350016EF50E3E
:103C1000E3500122F90E01C5E3F4FA0EE350016E00
:103C2000F60EE3500122FA0E01C5E3F4FB0EE35059
:103C3000016EF70EE3500122FB0E01C5E3F4FB0E0B
:103C4000E3A0F4D0FC0EE3A00BD0FC0EE3C40CF513
:103C5000D8900C32010E0C12FC0E0CC5E3F409D006
:103C6000E150FC0FD96EE250DA6EFF0EDA22D890E6
:103C7000DF32F80EE3A002D0FC0EE38E010E0C6ED4
:103C8000E150F80FD96EE250DA6EFF0EDA220C28FE
:103C9000DE5208D0DE52D890DCBED880DD32DD3274
:103CA000DD32DE32E82EF6D7FD0EE32ABFD0E1503A
:103CB000F80FD96EE250DA6EFF0EDA22F40EE350FE
:103CC000DE5CF50EE350DE58F60EE350DE58DE50B3
:103CD000800A016EF70EE350800A0158D8B04AD02E
:103CE000F40EE3C409F5F50EE3C40AF5F60EE3C4D9
:103CF0000BF5F70EE3C40CF5F80EE350095EF90E70
:103D0000E3500A5AFA0EE3500B5AFB0EE3500C5ADA
:103D1000FF0E0924056EFF0E0A20066EFF0E0B2013
:103D2000076EFF0E0C20086EF80E05C5E3F4F90EC1
:103D300006C5E3F4FA0E07C5E3F4FB0E08C5E3F489
:103D4000FF0EE37EFC0EE35000080C6EFC0E0CC56B
:103D5000E3F4FC0EE350D8A420D0E150F80FD96E64
:103D6000E250DA6EFF0EDA22DE2A000EDE22DE22BA
:103D7000DE2213D0E150F80FD96EE250DA6EFF0E5A
:103D8000DA22F40EE350DE5EF50EE350DE5AF60E54
:103D9000E350DE5AF70EE350DE5AF80EE35043E1EB
:103DA000F90EE35040E1FA0EE3503DE1FB0EE35023
:103DB000D8A439D0FC0EE350D8A435D0000E016E43
:103DC000000E026E000E036E000E046EBED0D89080
:103DD000F80EE336F90EE336FA0EE336FB0EE33661
:103DE000FC0EE3AE02D0F80EE380FC0EE3A00CD094
:103DF000FC0EE3C40CF5D8900C340B6E010E0B12C4
:103E0000FC0E0BC5E3F409D0E150FC0FD96EE25073
:103E1000DA6EFF0EDA22D890DF36FD0EE350D8B40A
:103E200002D0FD0EE306FA0EE3AED1D7FE0EE36A32
:103E3000FC0EE3AE0ED0FC0EE3C40CF57F0E0C16A8
:103E4000D8B404D0FE0EE36AE32A03D0F80EE3B040
:103E5000F9D7FE0EE350D8B42BD0E150F80FD96E4D
:103E6000E250DA6EFF0EDA22DE2A000EDE22DE22B9
:103E7000DE22FB0EE3A01CD0010E0C6EE150F80F09
:103E8000D96EE250DA6EFF0EDA220C28DE5208D02C
:103E9000DE52D890DCBED880DD32DD32DD32DE325B
:103EA000E82EF6D7FD0EE328D8B402D0FD0EE32AA3
:103EB000FD0EE328D8B404D0FD0EE350D8A40ED0F4
:103EC000F80EE36AF90EE36AFA0EE36AFB0EE36AA0
:103ED000FD0EE350D8A402D0FF0EE36AFD0EE3A06E
:103EE00009D0FA0EE124D96EFF0EE220DA6E000E40
:103EF000DB8E08D0FA0EE124D96EFF0EE220DA6ED6
:103F00007F0EDF16FB0EE124D96EFF0EE220DA6E83
:103F1000FD0EE3C40CF5D8900C30DF6EFF0EE3AE5F
:103F200008D0FB0EE124D96EFF0EE220DA6E000EFF
:103F3000DB8EF80EE3C401F5F90EE3C402F5FA0EC8
:103F4000E3C403F5FB0EE3C404F5F40EE126FF0E13
:103F5000E22212000D0EE126000EE222F20EE12412
:103F6000D96EFF0EE220DA6EDF500C6E800E0C165A
:103F7000FF0E0CC5E3F4F20EE124D96EFF0EE22031
:103F8000DA6EDF500C6ED8900C340B6EFE0E0BC543
:103F9000E3F4F10EE124D96EFF0EE220DA6EDFAE1B
:103FA00002D0FE0EE380FE0EE350D8B422D0FE0E07
:103FB000E328D8A414D0000E096E000E0A6E000E7D
:103FC0000B6E000E0C6EEF0E09C5E3F4F00E0AC581
:103FD000E3F4F10E0BC5E3F4F20E0CC5E3F4F10EBD
:103FE000E38EF20EE124D96EFF0EE220DA6EDF6A74
:103FF00014D0000E096E000E0A6E000E0B6E000E3D
:104000000C6EEF0E09C5E3F4F00E0AC5E3F4F10EF1
:104010000BC5E3F4F20E0CC5E3F4EE0EE124D96E09
:10402000FF0EE220DA6EDF500C6E800E0C16E150AF
:10403000FF0FD96EE250DA6EFF0EDA220C50DF1A53
:10404000EE0EE124D96EFF0EE220DA6EDF500C6E28
:10405000D8900C340B6EFD0E0BC5E3F4ED0EE1248D
:10406000D96EFF0EE220DA6EDFAE02D0FD0EE380E5
:10407000FD0EE350D8B422D0FD0EE328D8A414D00E
:10408000000E096E000E0A6E000E0B6E000E0C6E16
:10409000EB0E09C5E3F4EC0E0AC5E3F4ED0E0BC517
:1040A000E3F4EE0E0CC5E3F4ED0EE38EEE0EE12428
:1040B000D96EFF0EE220DA6EDF6A14D0000E096EB0
:1040C000000E0A6E000E0B6E000E0C6EEB0E09C594
:1040D000E3F4EC0E0AC5E3F4ED0E0BC5E3F4EE0ECB
:1040E0000CC5E3F4EB0EE35034E1EC0EE35031E1A8
:1040F000ED0EE3502EE1EE0EE350D8A42AD0EF0EE1
:10410000E36AF00EE36AF10EE36AF20EE36AF10E7F
:10411000E124D96EFF0EE220DA6E800EDE127F0EF1
:10412000DD12FF0EE3C40CF5F20EE124D96EFF0E92
:10413000E220DA6E0C50DF12EF0EE3C401F5F00E50
:10414000E3C402F5F10EE3C403F5F20EE3C404F593
:104150008DD1FE0EE350D8A409D0000E016E000EE2
:10416000026E000E036E000E046E80D1FE0EE35050
:104170000B6E0C6AFD0EE3500B5E000E0C5A7F0EA8
:104180000B26000E0C22FB0E0BC5E3F4FC0E0CC537
:10419000E3F4EF0EE3C409F5F00EE3C40AF5F10E03
:1041A000E3C40BF5F20EE3C40CF5F70E09C5E3F416
:1041B000F80E0AC5E3F4F90E0BC5E3F4FA0E0CC5CC
:1041C000E3F4EF0EE36AF00EE36AF10EE36AF20E37
:1041D000E36AF30EE36AF40EE36AF50EE36AF60EA1
:1041E000E36AFD0EE36A50D0FD0EE350D8B420D050
:1041F000D890F70EE336F80EE336F90EE336FA0EF2
:10420000E336D890EF0EE336F00EE336F10EE336E8
:10421000F20EE336F60EE3AE02D0EF0EE380D89056
:10422000F30EE336F40EE336F50EE336F60EE33620
:10423000E150F70FD96EE250DA6EFF0EDA22EB0E84
:10424000E350DE5CEC0EE350DE58ED0EE350DE583A
:10425000EE0EE350DE58D8A015D0F60EE38CE150F8
:10426000F70FD96EE250DA6EFF0EDA22EB0EE35052
:10427000DE5EEC0EE350DE5AED0EE350DE5AEE0E3B
:10428000E350DE5AFD0EE32AFD0EE3C401F5190EDC
:104290000164AAD7F70EE3500AE1F80EE35007E1F4
:1042A000F90EE35004E1FA0EE350D8B424D0F30E33
:1042B000E38021D0D890EF0EE336F00EE336F10E16
:1042C000E336F20EE336F60EE3AE02D0EF0EE380F5
:1042D000D890F30EE336F40EE336F50EE336F60E21
:1042E000E336E150FB0FD96EE250DA6EFF0EDA22B0
:1042F000DE06000EDD5AF10EE3AEDCD7FD0EE36AFA
:10430000F60EE3AE20D0E150F30FD96EE250DA6E34
:10431000FF0EDA22FF0EDE14096EFF0EDE140A6EA7
:10432000FF0EDE140B6E7F0EDE140C6E09500A10A9
:104330000B100C10D8B404D0FD0EE36AE32A03D0AE
:10434000EF0EE3B0F9D7FD0EE350D8B434D0E1500E
:10435000EF0FD96EE250DA6EFF0EDA22DE2A000E7F
:10436000DE22DE22DE22F20EE3A025D0010E0C6E4C
:10437000E150EF0FD96EE250DA6EFF0EDA220C2810
:10438000DE5208D0DE52D890DCBED880DD32DD327D
:10439000DD32DE32E82EF6D7FB0EE350010F016E60
:1043A000FB0E01C5E3F4016AFC0EE3500120016E2F
:1043B000FC0E01C5E3F4FC0EE3BE19D0FC0EE35085
:1043C00004E1FB0EE328D8A012D0FF0E0B6E000E06
:1043D0000C6EFB0E0BC5E3F4FC0E0CC5E3F4EF0E04
:1043E000E36AF00EE36AF10EE36AF20EE36AFC0E92
:1043F000E3BE07D0FC0EE35012E1FB0EE304D8B09D
:104400000ED0FB0EE36AFC0EE36AEF0EE36AF00ED9
:10441000E36AF10EE36AF20EE36AFF0EE36AFB0E53
:10442000E3C401F5FE0E01C5E3F4FE0EE3A009D0DE
:10443000F10EE124D96EFF0EE220DA6E000EDB8E63
:1044400008D0F10EE124D96EFF0EE220DA6E7F0E65
:10445000DF16F20EE124D96EFF0EE220DA6EFE0EB8
:10446000E3C40CF5D8900C30DF6E5BD6EB0EE12682
:10447000FF0EE2221200050EE126000EE222F70EE8
:10448000E3C4D9F4F80EE3C4DAF4DEC409F5DEC4FB
:104490000AF5DEC40BF5DEC40CF5FB0E09C5E3F42A
:1044A000FC0E0AC5E3F4FD0E0BC5E3F4FE0E0CC5CD
:1044B000E3F4F70EE3C40BF5F80EE3C40CF5040EB9
:1044C0000B24D96E000E0C20DA6EDFA080D0F90E1E
:1044D000E3C40BF5FA0EE3C40CF5010E0B24D96E00
:1044E000000E0C20DA6EFB0EE3C40CF5D8900C36EF
:1044F000D8900C36D8900C34F80BDF6E050E0C6E8D
:10450000E150FB0FD96EE250DA6EFF0EDA220C2872
:10451000DE5207D0DE52DE52D890DD32DD32DD329F
:10452000DE32E82EF7D7F90EE3C40BF5FA0EE3C43A
:104530000CF5020E0B24D96E000E0C20DA6EFB0E69
:10454000E3C4DFF4FC0EE124D96EFF0EE220DA6E44
:10455000DEC40AF5DEC40BF5DEC40CF50A50056EA8
:104560000B50066E0C50076E086AFB0E05C5E3F48F
:10457000FC0E06C5E3F4FD0E07C5E3F4FE0E08C508
:10458000E3F4F90EE3C40BF5FA0EE3C40CF5030EE5
:104590000B24D96E000E0C20DA6EFB0EE3501F0BBD
:1045A000DF6E050E0C6EE150FB0FD96EE250DA6E35
:1045B000FF0EDA220C28DE5207D0DE52DE52D890EF
:1045C000DD32DD32DD32DE32E82EF7D729D0F90ECA
:1045D000E3C40BF5FA0EE3C40CF5030E0B24D96EFD
:1045E000000E0C20DA6EDF6AF90EE3C40BF5FA0E4A
:1045F000E3C40CF5020E0B24E96E000E0C20EA6EEB
:10460000DFC4EFF4F90EE3C40BF5FA0EE3C40CF5C6
:10461000010E0B24D96E000E0C20DA6EEFC4DFF40D
:10462000F90EE3C4D9F4FA0EE3C4DAF4FB0EE3C4E2
:10463000DFF4FC0EE124D96EFF0EE220DA6EDEC458
:104640000AF5DEC40BF5DEC40CF50A50056E0B50FE
:10465000066E0C50076E086AFB0E05C5E3F4FC0EEF
:1046600006C5E3F4FD0E07C5E3F4FE0E08C5E3F44A
:10467000FB0EE3C40CF5070E0C16F90EE3C409F5A6
:10468000FA0EE3C40AF5010E0924D96E000E0A20C1
:10469000DA6E0C50DF12F70EE3C40BF5F80EE3C42C
:1046A0000CF5040E0B24D96E000E0C20DA6EDF30F0
:1046B000E8320F0B0C6EFF0E0CC5E3F4F70EE3C4EB
:1046C0000BF5F80EE3C40CF5040E0B24D96E000EA6
:1046D0000C20DA6EDFA003D0100E0C6E01D00C6A35
:1046E000E150FF0FD96EE250DA6EFF0EDA220C5065
:1046F000DF12F70EE3C40BF5F80EE3C40CF5040E5D
:104700000B24D96E000E0C20DA6EDFA203D0200E2F
:104710000C6E01D00C6AE150FF0FD96EE250DA6ED8
:10472000FF0EDA220C50DF12F70EE3C40BF5F80E81
:10473000E3C40CF5040E0B24D96E000E0C20DA6EC7
:10474000DFAE03D0400E0C6E01D00C6AE150FF0FBB
:10475000D96EE250DA6EFF0EDA220C50DF12F70E3D
:10476000E3C40BF5F80EE3C40CF5040E0B24D96E6C
:10477000000E0C20DA6EDFAC03D0800E0C6E01D080
:104780000C6AE150FF0FD96EE250DA6EFF0EDA22AA
:104790000C50DF12F90EE3C40BF5FA0EE3C40CF56E
:1047A000040E0B24D96E000E0C20DA6EFF0EE3C44B
:1047B000DFF4F70EE3C40BF5F80EE3C40CF5040EBA
:1047C0000B24D96E000E0C20DA6EDFB242D0F70E49
:1047D000E3C40BF5F80EE3C40CF5040E0B24D96EFC
:1047E000000E0C20DA6EDF30E8320F0B0B6E0C6A15
:1047F000470E0B24F66EFC0E0C20F76EF86A000EC6
:10480000F8220800F550E66E000EE66EF50EE3C4E1
:104810000BF5F60EE3C40CF5050E0B24D96E000E55
:104820000C20DA6EDEC40BF5DDC40CF50BC5E6F426
:104830000CC5E6F4F50EE350080F0B6EF60EE3C45C
:104840000CF5000E0C220BC5E6F40CC5E6F47AEC70
:10485000C1F0F70EE126FF0EE2221200050EE1265E
:10486000000EE222F90EE3C40BF5FA0EE3C40CF5D8
:10487000040E0B24D96E000E0C20DA6EDF500C6E85
:10488000FF0E0CC5E3F4FF0EE3C40CF5F70EE3C412
:1048900009F5F80EE3C40AF5040E0924D96E000EDA
:1048A0000A20DA6E0C460C46DF500C18C30B0C18AD
:1048B000DF6EFF0EE3A803D00C6A0C2A01D00C6A4D
:1048C000F70EE3C409F5F80EE3C40AF5040E092453
:1048D000D96E000E0A20DA6EDF500C18FE0B0C1891
:1048E000DF6EFF0EE3AA03D00C6A0C2A01D00C6A1B
:1048F000F70EE3C409F5F80EE3C40AF5040E092423
:10490000D96E000E0A20DA6E0C46DF500C18FD0B33
:104910000C18DF6EFF0EE3AC03D00C6A0C2A01D03A
:104920000C6AF70EE3C409F5F80EE3C40AF5040EA9
:104930000924D96E000E0A20DA6E0C320C32DF50D8
:104940000C187F0B0C18DF6EFF0EE3AE03D00C6A61
:104950000C2A01D00C6AF70EE3C409F5F80EE3C483
:104960000AF5040E0924D96E000E0A20DA6E0C3AFC
:104970000C460C46DF500C18BF0B0C18DF6EF90EFE
:10498000E3C40BF5FA0EE3C40CF5010E0B24D96E4B
:10499000000E0C20DA6EDF500C6E070E0C160CC5E4
:1049A00005F5066A076A086AFB0E05C5E3F4FC0E06
:1049B00006C5E3F4FD0E07C5E3F4FE0E08C5E3F4F7
:1049C000E150FB0FD96EE250DA6EFF0EDA22080ECC
:1049D000D890DE36DE36DE36DD36DD52DD52E82EAC
:1049E000F7D7E150FB0FD96EE250DA6EFF0EDA22F4
:1049F000F90EE3C4E9F4FA0EE3C4EAF4EF50DE1270
:104A0000000EDE12DE12DE12F70EE3C40BF5F80E16
:104A1000E3C40CF5040E0B24D96E000E0C20DA6EE4
:104A2000DFA087D0E150FB0FD96EE250DA6EFF0EA7
:104A3000DA22050ED890DE36DE36DE36DD36DD5281
:104A4000DD52E82EF7D7E150FB0FD96EE250DA6E57
:104A5000FF0EDA22F90EE3C40BF5FA0EE3C40CF5EF
:104A6000030E0B24E96E000E0C20EA6EEF501F0BB4
:104A7000DE12000EDE12DE12DE12E150FB0FD96EE6
:104A8000E250DA6EFF0EDA22080ED890DE36DE36FD
:104A9000DE36DD36DD52DD52E82EF7D7E150FB0F72
:104AA000D96EE250DA6EFF0EDA22F90EE3C40BF58E
:104AB000FA0EE3C40CF5020E0B24E96E000E0C2076
:104AC000EA6EEF50DE12000EDE12DE12DE12E15050
:104AD000FB0FD96EE250DA6EFF0EDA22050ED89087
:104AE000DE36DE36DE36DD36DD52DD52E82EF7D735
:104AF000E150FB0FD96EE250DA6EFF0EDA22F90EAA
:104B0000E3C40BF5FA0EE3C40CF5010E0B24E96EB9
:104B1000000E0C20EA6EEF500C6ED8900C32D8903C
:104B20000C32D8900C301F0BDE12000EDE12DE129B
:104B3000DE12E150FB0FD96EE250DA6EFF0EDA2280
:104B4000F70EE3C4E9F4F80EE3C4EAF4DEC4EEF4CD
:104B5000DEC4EEF4DEC4EEF4DEC4EEF4F70EE3C41D
:104B60000BF5F80EE3C40CF5040E0B24D96E000E01
:104B70000C20DA6EDF30E8320F0B0B6E0C6A470E3A
:104B80000B24F66EFC0E0C20F76EF86A000EF8226D
:104B90000800F550E66E000EE66EF70EE3C40BF566
:104BA000F80EE3C40CF5080E0B24096E000E0C2061
:104BB0000A6E09C5E6F40AC5E6F4690EE66E0A0E49
:104BC000E66E7AECC1F0F70EE3C40BF5F80EE3C421
:104BD0000CF5050E0B24D96E000E0C20DA6E690E52
:104BE000DE6E0A0EDD6EF70EE126FF0EE2221200E7
:104BF000E652FF0EE36ABFAC02D0010E01D0000EF8
:104C0000FF0A0C6E0C3A0C460C46BF500C18BF0B3A
:104C10000C18BF6E010E06010A27000E0B230C2391
:104C20000D232850070D4C0EF3240B6E070EF420B5
:104C30000C6E0BC5E6F40CC5E6F4010EE66EDBEC7B
:104C4000CEF00150D8B484D1070EE66E000EE66EA9
:104C50002850070D4C0EF3240B6E070EF4200C6E3B
:104C60000BC5E6F40CC5E6F45A0EE66E070EE66ECA
:104C70007AECC1F02850070D4C0EF324D96E070EC4
:104C8000F420DA6EDF500F0B020AD8B40DD0285092
:104C9000070D4C0EF324D96E070EF420DA6EDF50A8
:104CA0000F0B030AD8A444D0400EE66E000EE66E49
:104CB0002850070D510EF324D96E070EF420DA6E3A
:104CC000DEC40BF5DDC40CF50BC5E6F40CC5E6F44B
:104CD0002850400D000EF3240B6E100EF4200C6EC5
:104CE0000BC5E6F40CC5E6F47AECC1F02850070DCC
:104CF0004C0EF324D96E070EF420DA6EDF500F0B42
:104D0000020AD8A403D0010E286E2AD12850070D1C
:104D10004C0EF324D96E070EF420DA6EDF500F0B21
:104D2000030AD8A405D0286A010E06010E6F18D117
:104D30002850070D4C0EF324D96E070EF420DA6EBE
:104D4000DF500F0B0C0AD8A41BD0400EE66E000EED
:104D5000E66E2850070D510EF324D96E070EF4208D
:104D6000DA6EDEC40BF5DDC40CF50BC5E6F40CC53C
:104D7000E6F4800EE66E100EE66E7AECC1F0F0D02E
:104D80002850070D4C0EF324D96E070EF420DA6E6E
:104D9000DF500F0B0F0AD8A41BD0400EE66E000E9A
:104DA000E66E2850070D510EF324D96E070EF4203D
:104DB000DA6EDEC40BF5DDC40CF50BC5E6F40CC5EC
:104DC000E6F4C00EE66E100EE66E7AECC1F0C8D0C6
:104DD0002850070D4C0EF324D96E070EF420DA6E1E
:104DE000DF500F0B0D0AD8A41ED0400EE66E000E49
:104DF000E66E2850070D510EF324D96E070EF420ED
:104E0000DA6EDEC40BF5DDC40CF50BC5E6F40CC59B
:104E1000E6F4400EE66E0D0EE66E7AECC1F0010E81
:104E20000D01816F9DD007015A510F0B0A0AD8A4BA
:104E300086D0040EE66E000EE66E5FC7E6F460C72D
:104E4000E6F4C40EE66E050EE66E7AECC1F00501DE
:104E500020EE3EF0C051D926C151DA22C4C5DEF49D
:104E6000C5C5DEF4C6C5DEF4C7C5DEF4C40EE66E05
:104E7000050EE66EE2ECD9F001C598F502C599F58C
:104E8000C0C5E6F4C1C5E6F498C5E6F499C5E6F4F4
:104E90001CECB4F0050120EE36F0C051D926C1510A
:104EA000DA22DEC425F5DDC426F525C5B8F70701ED
:104EB000B96B26C5B6F7B76B0A0EE66EB00EE66E96
:104EC000070EE66E81ECC6F001C525F502C526F594
:104ED00025C5BCF70701BD6B26C5BAF7BB6B05013D
:104EE00020EE38F0C051D926C151DA22DEC425F5B2
:104EF000DDC426F525C5A8F70701A96B26C5A6F7C9
:104F0000A76B0A0EE66EA00EE66E070EE66E81EC4B
:104F1000C6F001C525F502C526F525C5ACF7070184
:104F2000AD6B26C5AAF7AB6B0601BA51D8B418D041
:104F3000B551D8B415D0010E07017E6F11D05A516A
:104F40000F0B0E0AD8A404D0010E0601BC6F08D0C6
:104F5000FF0EE32AFF0EE3C401F5070E01645AD6E3
:104F6000E5521200E652E652E652E652E150F60FE2
:104F7000D96EE250DA6EFF0EDA22FA0EE3C40BF5B8
:104F8000FB0EE3C40CF5030E0B24E96E000E0C209F
:104F9000EA6EDEC4EEF4DDC4EDF4FA0EE3C40BF504
:104FA000FB0EE3C40CF5030E0B24D96E000E0C208F
:104FB000DA6E0501AB510B6E0C6ADE500B5CDE50F5
:104FC0000C58D8A0E3D00B010005D8A4DFD0030E05
:104FD0000119D8A4DBD0FA0EE3C40BF5FB0EE3C431
:104FE0000CF5030E0B24D96E000E0C20DA6EDEC415
:104FF0000BF5DDC40CF5FE0E0B24096EFF0E0C2024
:105000000A6E09C5E6F40AC5E6F4000EE66E0B0E5C
:10501000E66E6DECBEF0FE0E01C5E3F4FF0E02C5B8
:10502000E3F4FA0EE3C4E6F4E3C4E6F4F9ECCAF000
:10503000FC0E01C5E3F4FD0E02C5E3F4E150FE0FE2
:10504000D96EE250DA6EFF0EDA22FC0EE350DE1863
:1050500026E1FD0EE350DE18D8A421D0060E0B0188
:105060000319D8A41CD0E00E0419D8A418D0BF92FC
:10507000FA0EE3C40BF5FB0EE3C40CF5060E0B248D
:10508000D96E000E0C20DA6E010EDF6EF80EE3C44E
:10509000D9F4F90EE3C4DAF4010EDF6E6FD0BF82EB
:1050A000F80EE3C4D9F4F90EE3C4DAF4DF6AFA0EB9
:1050B000E3C40BF5FB0EE3C40CF5060E0B24D96E0E
:1050C000000E0C20DA6EDF6AFA0EE3C40BF5FB0E5D
:1050D000E3C40CF5080E0B24D96E000E0C20DA6E1A
:1050E000DF6AFA0EE3C40BF5FB0EE3C40CF5070E02
:1050F0000B24D96E000E0C20DA6EDF6AFA0EE3C4C0
:105100000BF5FB0EE3C40CF5090E0B24D96E000E53
:105110000C20DA6EDF6AFA0EE3C40BF5FB0EE3C473
:105120000CF50A0E0B24D96E000E0C20DA6EDF6A25
:10513000FA0EE3C40BF5FB0EE3C40CF50C0E0B24C6
:10514000D96E000E0C20DA6EDF6AFA0EE3C40BF59E
:10515000FB0EE3C40CF50B0E0B24D96E000E0C20D5
:10516000DA6EDF6AFC0EE3C4E6F4E3C4E6F4FC0E98
:10517000E3C4E6F4E3C4E6F4A3ECD4F0FA0EE3C42B
:105180000BF5FB0EE3C40CF5010E85D0000EE66EA8
:1051900039ECD5F004500310021004E1C80E015C94
:1051A000D8A07FD0FA0EE3C40BF5FB0EE3C40CF5D8
:1051B000010E0B24D96E000E0C20DA6EDF6AFA0E97
:1051C000E3C4D9F4FB0EE3C4DAF4DF6A010E05018F
:1051D000B727000EB823B923BA23AD4BAE2BFA0E76
:1051E000E3C40BF5FB0EE3C40CF5060E0B24D96EDD
:1051F000000E0C20DA6EDF6AF80EE3C4D9F4F90E63
:10520000E3C4DAF4DF6AFA0EE3C40BF5FB0EE3C481
:105210000CF5080E0B24D96E000E0C20DA6EDF6A36
:10522000FA0EE3C40BF5FB0EE3C40CF5070E0B24DA
:10523000D96E000E0C20DA6EDF6AFA0EE3C40BF5AD
:10524000FB0EE3C40CF5090E0B24D96E000E0C20E6
:10525000DA6EDF6AFA0EE3C40BF5FB0EE3C40CF55D
:105260000A0E0B24D96E000E0C20DA6EDF6AFA0EDD
:10527000E3C40BF5FB0EE3C40CF50C0E0B24D96E46
:10528000000E0C20DA6EDF6AFA0EE3C40BF5FB0E9B
:10529000E3C40CF50B0E0B24D96E000E0C20DA6E55
:1052A000DF6AF60EE126FF0EE22212000A0EE12668
:1052B000000EE2220FC609F510C60AF511C60BF55D
:1052C00012C60CF5F60E09C5E3F4F70E0AC5E3F4B1
:1052D000F80E0BC5E3F4F90E0CC5E3F4F20EE3C4CB
:1052E00009F5F30EE3C40AF5F40EE3C40BF5F50E6D
:1052F000E3C40CF5F60E09C5E3F4F70E0AC5E3F4B2
:10530000F80E0BC5E3F4F90E0CC5E3F4810E0B6E39
:10531000FF0E0C6EF60EE3C405F5F70EE3C406F5BA
:10532000F80EE3C407F5F90EE3C408F5180E05D02E
:10533000D8900832073206320532E82EF9D705C573
:1053400009F506C50AF509500B24096E000E0C205C
:105350000A6EFE0E09C5E3F4FF0E0AC5E3F4FF0E64
:10536000E3BE15D0FF0EE35007E1FE0EE3C401F5E6
:10537000170E015ED8A00BD0F20EE3C401F5F30EB8
:10538000E3C402F5F40EE3C403F5F50EFBD0FF0E03
:10539000E3BE9FD0FE0EE3C40CF5FF0E056EFF0EBC
:1053A000066E7F0E076E000E086E0C6601D007D0E9
:1053B000083408320732063205320C2EF6D7FA0EC0
:1053C00005C5E3F4FB0E06C5E3F4FC0E07C5E3F4E4
:1053D000FD0E08C5E3F4F60EE3C409F5F70EE3C4C9
:1053E0000AF5F80EE3C40BF5F90EE3C40CF5FA0E5A
:1053F000E3500916FB0EE3500A16FC0EE3500B16A1
:10540000FD0EE3500C1609500A100B100C10D8B406
