:0400000085EF00F098
:10000800DA6CDA6CDA6CDA6CDA6CDA6CA75A086AD1
:10001800DA6CDA6C35694469DA6CDA6CDA6CDA6CE9
:100028005369DA6CDA6CDA6CA268DA6CB368626904
:10003800DA6CDA6CDA6C4968DA6CDA6CDA6C3668C5
:10004800DA6CDA6CDA6CDA6C38631669DA6CDA6CEA
:10005800DA6CDA6CDA6CDA6CDA6CDA6CDA6CDA6C68
:10006800DA6CDA6CDA6CDA6CDA6CDA6CDA6CDA6C58
:10007800DA6CDA6CDA6CDA6C4200DA6CDA6CDA6C4C
:10008800B967A267DA6CDA6CD067DA6CDA6CDA6CAA
:10009800DA6CDA6CDA6CDA6C4200DA6CDA6CDA6C2C
:1000A800DA6CDA6CDA6CDA6CDA6CDA6CDA6CDA6C18
:1000B800DA6CDA6CDA6C2A67DA6CDA6CDA6CDA6CBD
:1000C800DA6CDA6CDA6CDA6CDA6CDA6CDA6CDA6CF8
:1000D800E6688E69DA6CDA6CDA6CDA6CDA6CDA6C2F
:1000E8004200DA6CDA6CDA6CDA6CDA6CDA6CDA6CDC
:1000F800DA6CDA6CDA6C5C68DA6CDA6CDA6CDA6C4A
:0A010800FF0015EE80F20FEFB1F0DA
:10FC2000000001020304050607080C101418203018
:10FC3000401F1E1F1E1F1F1E1F1E1F1F1D00000115
:10FC40007C7C2F2F2D2D0000000000000000000004
:10FC5000000000007C7C2F2F2D2D5C5C000000003C
:10FC600000000000000000004F4F4F4F4F4F2D2D60
:10FC70005F5F2D00000000000000000076763C3C35
:10FC80005E5E3E3E0000000000000000000000003C
:10FC90002E2E2A2A7823782358587C7C2D2D00007C
:10FCA000000000002E2E6F6F4F4F6F6F000000009E
:10FCB000000000000000000056312E303020444388
:10FCC00055202051383420202020004A616E46659E
:10FCD000624D61724170724D61794A756E4A756C00
:10FCE0004175675365704F63744E6F76446563006A
:10FCF0005077722025352E32666B57706B20253574
:10FD00002E32666B576820202020202020202020C3
:10FD10002020202000436867204625696D696E20F9
:10FD20004125696D696E2020202020202020202080
:10FD300020202020202000464D3830204657202506
:10FD4000582E25582E2558202020202020202020E5
:10FD500020202020202020004325752043524325C9
:10FD60006C752052432575204543257520202020A1
:10FD70002020202020200025342E316656202534D6
:10FD80002E316656203A44617920256920202020B2
:10FD9000202020003058255825582558255825580A
:10FDA00025582558255820202020202020202000BC
:10FDB0004D49534320427574746F6E2050726573C1
:10FDC00073656420202020202020200025695670A3
:10FDD0006B2025342E316641706B202569416820E7
:10FDE000202020202020004C6F6720427574746F03
:10FDF0006E205072657373656420202020202020BF
:10FE0000200030582558202020202020202020208D
:10FE10002020202020202020200025732025752050
:10FE200020202020202020202020202020202020D2
:10FE30002000426174746572792064617461206C81
:10FE40006F616465642020200053756E4D6F6E54A1
:10FE500075655765645468754672695361740053DB
:10FE60004E3A2025732025752046573A20305825D4
:10FE7000582C255800436F6E74202573202573205D
:10FE800020202020202020202020004D4472762099
:10FE900025732025732020202020202020202020B2
:10FEA00000537065656420257320487A2020202047
:10FEB00020202020202000416363656C20257320D2
:10FEC00052504D2F532020202020202000416C74C0
:10FED00020427574746F6E20DFF4202020202020D3
:10FEE000200053746172742055702020202020203F
:10FEF000202020202020004E4420252E31665768E7
:10FF0000204143202020202020202000444E202576
:10FF10002E316657682041432020202020202020B9
:10FF2000004E4420252E3166576820505620202050
:10FF3000202020202000444E20252E3166576820A6
:10FF40005056202020202020202000506F6C6C690B
:10FF50006E672050756D702020202020202020000A
:10FF6000206572726F72206C6F67676564200D0A7E
:10FF700000257320423A2558202558202558202056
:10FF8000200025342E31662C25342E31662C25692F
:10FF90002C00232C25352E32662C25352E32662C4E
:10FFA0000025692C25342E31662C25692C004E6FD6
:10FFB0007620313920323032340031343A33383A15
:10FFC000353100286E756C6C290025692C25692C4B
:10FFD0000025735E0D0A0025732020200044435540
:10FFE0002031002564202573002530336400696EBC
:0FFFF00066006E616E00474D54002573200000BF
:020000040001F9
:100000002C0EE126000EE222FC0EE36ACE0EE3C4C3
:1000100009F5CF0EE3C40AF5D00EE3C40BF5D10EFB
:10002000E3C40CF5DA0E09C5E3F4DB0E0AC5E3F40C
:10003000DC0E0BC5E3F4DD0E0CC5E3F4DD0EE3AE20
:100040001AD0FC0EE36AE32ADA0EE3C4E6F4E3C452
:10005000E6F4E3C4E6F4E3C4E6F4EDECD1F0DA0E42
:1000600001C5E3F4DB0E02C5E3F4DC0E03C5E3F4E3
:10007000DD0E04C5E3F4EA0EE36AEB0EE36AEE0E6E
:1000800021C5E3F4EF0E22C5E3F4FC0EE350D8B42F
:1000900016D0FC0EE350D8A402D02B0E01D02D0EAA
:1000A0000B6E000E0C6ED40E0BC5E3F4D50E0CC512
:1000B000E3F4D40EE3C401F5FC0E01C5E3F4DA0E5B
:1000C000E3C4E6F4E3C4E6F4E3C4E6F4E3C4E6F42C
:1000D00003ECB9F001040210D8A44CD0FC0EE3509C
:1000E000D8B417D0FC0EE3C468F8E150EE0FD96E17
:1000F000E250DA6EFF0EDA22DE06000EDD5A010E45
:100100000B6E000E0C6EEA0E0BC5E3F4EB0E0CC585
:10011000E3F4EE0EE66EFF0EE66E680E0B6E080E52
:100120000C6EE80EE3500B26E90EE3500C220BC5D3
:10013000E6F40CC5E6F44AECCCF0E150EE0FD96ED3
:10014000E250DA6EFF0EDA22FD0EDE26FF0EDD2211
:10015000EE0EE3C4E6F4E3C4E6F4680EE66E080EC1
:10016000E66ECE0EE3C4E6F4E3C4E6F4FDECC2F0C2
:100170003AEF87F0DA0EE3C4E6F4E3C4E6F4E3C44E
:10018000E6F4E3C4E6F403ECB9F001500210D8A49D
:1001900030D0FC0EE350D8B417D0FC0EE3C468F89E
:1001A000E150EE0FD96EE250DA6EFF0EDA22DE0673
:1001B000000EDD5A010E0B6E000E0C6EEA0E0BC522
:1001C000E3F4EB0E0CC5E3F4F20EE66EFF0EE66E02
:1001D000680E0B6E080E0C6EE80EE3500B26E90E4F
:1001E000E3500C220BC5E6F40CC5E6F44AECCCF067
:1001F000A4D7000E096E000E0A6E800E0B6E3F0E25
:100200000C6ED60E09C5E3F4D70E0AC5E3F4D80E7A
:100210000BC5E3F4D90E0CC5E3F4F00EE36AF10E5E
:10022000E36A000EE66E000EE66E000EE66E000E4D
:10023000E66ED60EE3C4E6F4E3C4E6F4E3C4E6F403
:10024000E3C4E6F4F6ECC4F001A028D038D1E60E01
:10025000E3C409F5E70EE3C40AF5E80EE3C40BF5C1
:10026000E90EE3C40CF5D60E09C5E3F4D70E0AC5B2
:10027000E3F4D80E0BC5E3F4D90E0CC5E3F4F00E8D
:10028000E350010F016EF00E01C5E3F4016AF10EB7
:10029000E3500120016EF10E01C5E3F4000EE66E9D
:1002A000000EE66E200EE66E410EE66ED20EE3C440
:1002B000E6F4E3C4E6F4E3C4E6F4E3C4E6F4F2EC03
:1002C00093F0E60E01C5E3F4E70E02C5E3F4E80E91
:1002D00003C5E3F4E90E04C5E3F4DA0EE3C409F55B
:1002E000DB0EE3C40AF5DC0EE3C40BF5DD0EE3C45C
:1002F0000CF5E60EE350095EE70EE3500A5AE80EED
:10030000E3500B5AE90EE3500C5A09C5E6F40AC54E
:10031000E6F40BC5E6F40CC5E6F4CCECCFF004BE75
:1003200096D704500310021004E1020E015CD8A01D
:100330008ED7DA0EE3C4E6F4E3C4E6F4E3C4E6F4ED
:10034000E3C4E6F4E20EE3C4E6F4E3C4E6F4E3C493
:10035000E6F4E3C4E6F4ADECB9F001A078D7DA0E28
:10036000E3C409F5DB0EE3C40AF5DC0EE3C40BF5C8
:10037000DD0EE3C40CF5D60EE350095ED70EE35054
:100380000A5AD80EE3500B5AD90EE3500C5A09C53D
:10039000E6F40AC5E6F40BC5E6F40CC5E6F4CCECCD
:1003A000CFF004BE08D004500310021072E1020E18
:1003B000015CD8B06ED0D60EE3C409F5D70EE3C405
:1003C0000AF5D80EE3C40BF5D90EE3C40CF5DA0E2A
:1003D00009C5E3F4DB0E0AC5E3F4DC0E0BC5E3F458
:1003E000DD0E0CC5E3F46BD0000EE66E000EE66E7B
:1003F000200EE66E410EE66ED20EE3C4E6F4E3C4D0
:10040000E6F4E3C4E6F4E3C4E6F45AECA2F0D60E54
:1004100001C5E3F4D70E02C5E3F4D80E03C5E3F437
:10042000D90E04C5E3F4E150F00FD96EE250DA6E54
:10043000FF0EDA22DE06000EDD5ADA0EE3C409F5FD
:10044000DB0EE3C40AF5DC0EE3C40BF5DD0EE3C4FA
:100450000CF5D60EE350095ED70EE3500A5AD80EBB
:10046000E3500B5AD90EE3500C5A09C5E6F40AC5FD
:10047000E6F40BC5E6F40CC5E6F4CCECCFF004BE14
:100480009AD704500310021004E1020E015CD8A0B8
:1004900092D7D60EE3C4E6F4E3C4E6F4E3C4E6F48C
:1004A000E3C4E6F4D60EE3C4E6F4E3C4E6F4E3C43E
:1004B000E6F4E3C4E6F4ADECB9F001A095D7CD0EB7
:1004C000E3C401F5FE0E01C5E3F4FE0EE3C401F53D
:1004D000FD0E01C5E3F424BE07D0F80E23C5E3F4F6
:1004E000F90E24C5E3F40AD0060E0B6E000E0C6E56
:1004F000F80E0BC5E3F4F90E0CC5E3F4F80EE3C4F3
:1005000001F5F20E01C5E3F4F90EE3C401F5F30EB3
:1005100001C5E3F4F20EE350010F016EF20E01C5C6
:10052000E3F4016AF30EE3500120016EF30E01C5FE
:10053000E3F4FD0EE3C401F5660E0118D8A434D02F
:10054000F10EE3AE18D0000E096E000E0A6E800E9A
:100550000B6E3F0E0C6ED60E09C5E3F4D70E0AC51E
:10056000E3F4D80E0BC5E3F4D90E0CC5E3F4F00E9A
:10057000E36AF10EE36AFE0EE3C401F5670E0118AB
:10058000D8B412D0F20EE350016EF00EE350012603
:10059000F20E01C5E3F4F30EE350016EF10EE350E9
:1005A0000122F30E01C5E3F4EC0EE36AED0EE36AFB
:1005B000DA0EE3C409F5DB0EE3C40AF5DC0EE3C48E
:1005C0000BF5DD0EE3C40CF5E20E09C5E3F4E30E12
:1005D0000AC5E3F4E40E0BC5E3F4E50E0CC5E3F441
:1005E000D60EE3C409F5D70EE3C40AF5D80EE3C46A
:1005F0000BF5D90EE3C40CF5E60E09C5E3F4E70EDE
:100600000AC5E3F4E80E0BC5E3F4E90E0CC5E3F408
:10061000A0D0D60EE3C4E6F4E3C4E6F4E3C4E6F403
:10062000E3C4E6F4DE0EE3C4E6F4E3C4E6F4E3C4B4
:10063000E6F4E3C4E6F45AECA2F001C5E6F402C520
:10064000E6F403C5E6F404C5E6F463ECAAF0DE0EB6
:1006500001C5E3F4DF0E02C5E3F4E00E03C5E3F4E5
:10066000E10E04C5E3F4DE0EE3C4E6F4E3C4E6F40D
:10067000E3C4E6F4E3C4E6F456ECBAF001C50BF5C6
:1006800002C50CF5F40E0BC5E3F4F50E0CC5E3F44E
:10069000DE0EE3C4E6F4E3C4E6F4E3C4E6F4E3C444
:1006A000E6F4D20EE3C4E6F4E3C4E6F4E3C4E6F40D
:1006B000E3C4E6F4F2EC93F001C5E6F402C5E6F417
:1006C00003C5E6F404C5E6F4DE0EE3C4E6F4E3C4D1
:1006D000E6F4E3C4E6F4E3C4E6F4A9ECD3F0E20EF6
:1006E00001C5E3F4E30E02C5E3F4E40E03C5E3F44D
:1006F000E50E04C5E3F4000EE66E000EE66E200E75
:10070000E66E410EE66ED20EE3C4E6F4E3C4E6F410
:10071000E3C4E6F4E3C4E6F45AECA2F0D60E01C555
:10072000E3F4D70E02C5E3F4D80E03C5E3F4D90E03
:1007300004C5E3F4EC0EE350010F016EEC0E01C5AD
:10074000E3F4016AED0EE3500120016EED0E01C5E8
:10075000E3F4E150EC0FD96EE250DA6EFF0EDA22CC
:10076000F20EE350DE5CDE50800A016EF30EE350C1
:10077000800A0158D8A04DD7000EE66E000EE66E36
:10078000A00EE66E400EE66ED20EE3C4E6F4E3C4BD
:10079000E6F4E3C4E6F4E3C4E6F4F2EC93F0DE0E30
:1007A00001C5E3F4DF0E02C5E3F4E00E03C5E3F494
:1007B000E10E04C5E3F4DE0EE3C4E6F4E3C4E6F4BC
:1007C000E3C4E6F4E3C4E6F4DE0EE3C4E6F4E3C413
:1007D000E6F4E3C4E6F4E3C4E6F4ADECB9F001A05A
:1007E00019D0DE0EE3C4E6F4E3C4E6F4E3C4E6F4B1
:1007F000E3C4E6F4DE0EE3C4E6F4E3C4E6F4E3C4E3
:10080000E6F4E3C4E6F4F6ECC4F001A017D0F40E6D
:10081000E3B014D0000E096E000E0A6E000E0B6ECF
:10082000000E0C6EDE0E09C5E3F4DF0E0AC5E3F41C
:10083000E00E0BC5E3F4E10E0CC5E3F4DE0EE3C4F9
:10084000E6F4E3C4E6F4E3C4E6F4E3C4E6F4D60E67
:10085000E3C4E6F4E3C4E6F4E3C4E6F4E3C4E6F494
:1008600047EC9BF0E20E01C5E3F4E30E02C5E3F4AE
:10087000E40E03C5E3F4E50E04C5E3F4000EE66EF2
:10088000000EE66E200EE66E410EE66EE20EE3C44A
:10089000E6F4E3C4E6F4E3C4E6F4E3C4E6F4F2EC1D
:1008A00093F001C5E6F402C5E6F403C5E6F404C519
:1008B000E6F4DE0EE3C4E6F4E3C4E6F4E3C4E6F4EF
:1008C000E3C4E6F4ADECB9F001A044D0F00EE3507F
:1008D000010F016EF00E01C5E3F4016AF10EE35061
:1008E0000120016EF10E01C5E3F4000EE66E000E6C
:1008F000E66E200EE66E410EE66EE20EE3C4E6F40E
:10090000E3C4E6F4E3C4E6F4E3C4E6F4F2EC93F003
:10091000E60E01C5E3F4E70E02C5E3F4E80E03C5F5
:10092000E3F4E90E04C5E3F4FD0EE3C401F5660E3D
:100930000118D8A40FD0F20EE350010F016EF20E91
:1009400001C5E3F4016AF30EE3500120016EF30EDA
:1009500001C5E3F4E60EE3C409F5E70EE3C40AF5C6
:10096000E80EE3C40BF5E90EE3C40CF5D60E09C599
:10097000E3F4D70E0AC5E3F4D80E0BC5E3F4D90EA1
:100980000CC5E3F4F00EE3C401F5FA0E01C5E3F47F
:10099000F10EE3C401F5FB0E01C5E3F4FF0EE36ABB
:1009A000F60EE36AF70EE36AEC0EE36AED0EE36A15
:1009B0005AD1D60EE3C4E6F4E3C4E6F4E3C4E6F4A5
:1009C000E3C4E6F4DE0EE3C4E6F4E3C4E6F4E3C411
:1009D000E6F4E3C4E6F45AECA2F001C5E6F402C57D
:1009E000E6F403C5E6F404C5E6F463ECAAF0DE0E13
:1009F00001C5E3F4DF0E02C5E3F4E00E03C5E3F442
:100A0000E10E04C5E3F4DE0EE3C4E6F4E3C4E6F469
:100A1000E3C4E6F4E3C4E6F456ECBAF001C50BF522
:100A200002C50CF50CBE06D00C5014E10A0E0B5C8E
:100A3000D8B010D0DE0EE3C4E6F4E3C4E6F4E3C4B9
:100A4000E6F4E3C4E6F456ECBAF001C50BF502C5D2
:100A50000CF504D0090E0B6E000E0C6EF40E0BC5D7
:100A6000E3F4F50E0CC5E3F4FF0EE350D8A45FD019
:100A7000FB0EE3AE5CD0EA0EE3C40BF5EB0EE3C471
:100A80000CF5680E0B24D96E080E0C20DA6E2E0EB3
:100A9000DF6EEA0EE350010F016EEA0E01C5E3F4CA
:100AA000016AEB0EE3500120016EEB0E01C5E3F489
:100AB000E150EE0FD96EE250DA6EFF0EDA22DE065A
:100AC000000EDD5AFF0EE36AE32A31D0EA0EE3C4DA
:100AD0000BF5EB0EE3C40CF5680E0B24D96E080E73
:100AE0000C20DA6E300EDF6EEA0EE350010F016E5D
:100AF000EA0E01C5E3F4016AEB0EE3500120016E3A
:100B0000EB0E01C5E3F4E150EE0FD96EE250DA6E60
:100B1000FF0EDA22DE06000EDD5AE150F60FD96E26
:100B2000E250DA6EFF0EDA22DE06000EDD5AF60E15
:100B3000E3C401F5F70EE3500110D8A4C7D7EA0EBD
:100B4000E3C40BF5EB0EE3C40CF5680E0B24D96E71
:100B5000080E0C20DA6EF40EE350300FDF6EEA0E52
:100B6000E350010F016EEA0E01C5E3F4016AEB0EDA
:100B7000E3500120016EEB0E01C5E3F4E150EE0FEE
:100B8000D96EE250DA6EFF0EDA22DE06000EDD5A72
:100B9000DE0EE3C4E6F4E3C4E6F4E3C4E6F4E3C43F
:100BA000E6F4D20EE3C4E6F4E3C4E6F4E3C4E6F408
:100BB000E3C4E6F4F2EC93F001C5E6F402C5E6F412
:100BC00003C5E6F404C5E6F4DE0EE3C4E6F4E3C4CC
:100BD000E6F4E3C4E6F4E3C4E6F4A9ECD3F0E20EF1
:100BE00001C5E3F4E30E02C5E3F4E40E03C5E3F448
:100BF000E50E04C5E3F4000EE66E000EE66E200E70
:100C0000E66E410EE66ED20EE3C4E6F4E3C4E6F40B
:100C1000E3C4E6F4E3C4E6F45AECA2F0D60E01C550
:100C2000E3F4D70E02C5E3F4D80E03C5E3F4D90EFE
:100C300004C5E3F4E150FA0FD96EE250DA6EFF0E0C
:100C4000DA22DE06000EDD5AEC0EE350010F016ED3
:100C5000EC0E01C5E3F4016AED0EE3500120016ED4
:100C6000ED0E01C5E3F4E150EC0FD96EE250DA6EFF
:100C7000FF0EDA22F20EE350DE5CDE50800A016ED7
:100C8000F30EE350800A0158D8B00DD0EB0EE3BE4E
:100C900090D6EB0EE35007E1EA0EE3C401F54B0EEC
:100CA000015ED8A086D64F0E0B6E000E0C6EEC0EB9
:100CB0000BC5E3F4ED0E0CC5E3F4EC0EE3C40BF549
:100CC000ED0EE3C40CF5680E0B24D96E080E0C2053
:100CD000DA6EDF6AEA0EE3C4E6F4E3C4E6F4680E13
:100CE000E66E080EE66E680E0B6E080E0C6EE60ED3
:100CF000E3500B5EE70EE3500C5AE80EE3500B2670
:100D0000E90EE3500C220BC5E6F40CC5E6F428EC22
:100D1000C2F0EC0EE3C40BF5ED0EE3C40CF5EA0EE5
:100D2000E3500B5EEB0EE3500C5AEA0E0BC5E3F4F6
:100D3000EB0E0CC5E3F4FC0EE350D8B402D0010E68
:100D400001D0000E0B6E0C6AEC0E0BC5E3F4ED0E39
:100D50000CC5E3F425B221D046D0E150EA0FD96E9C
:100D6000E250DA6EFF0EDA22DE06000EDD5ADEC435
:100D70000BF5DDC40CF5680E0B24D96E080E0C20A3
:100D8000DA6E300EDF6EE150EE0FD96EE250DA6EA1
:100D9000FF0EDA22DE06000EDD5AE150EC0FD96EAE
:100DA000E250DA6EFF0EDA22EE0EE350DE5CDE5029
:100DB000800A016EEF0EE350800A0158D8B013D0BC
:100DC000E150EC0FD96EE250DA6EFF0EDA22EA0E35
:100DD000E350DE5CDE50800A016EEB0EE350800AC9
:100DE0000158D8A0BAD7FC0EE350D8B417D0E150C0
:100DF000EA0FD96EE250DA6EFF0EDA22DE06000E3E
:100E0000DD5ADEC40BF5DDC40CF5680E0B24D96E7B
:100E1000080E0C20DA6EFC0EE3C4DFF4EE0EE35095
:100E2000016EEC0EE350015EEE0E01C5E3F4EF0E31
:100E3000E350016EED0EE350015AEF0E01C5E3F4ED
:100E4000EE0EE3C4E6F4E3C4E6F4680E0B6E080E9F
:100E50000C6EE80EE3500B26E90EE3500C220BC596
:100E6000E6F40CC5E6F4CE0EE3C4E6F4E3C4E6F41F
:100E7000FDECC2F0CD0EE126FF0EE22212002D0E97
:100E8000E126000EE222CF0EE350800F096ED00E55
:100E9000E3C40AF5A20E0A22D10EE3C40BF5430EF9
:100EA0000B22D20EE3C40CF5C70E0C22E80E09C5C6
:100EB000E3F4E90E0AC5E3F4EA0E0BC5E3F4EB0E26
:100EC0000CC5E3F4CF0EE3C401F5810E015ED00E34
:100ED000E3C401F55D0E015AD10EE3C401F5BC0E69
:100EE000015AD20EE3C401F5380E015AD8A033D00E
:100EF000800EE66E510EE66E010EE66E000EE66E98
:100F0000E40EE3C4E6F4E3C4E6F4E3C4E6F4E3C4C5
:100F1000E6F4E4ECBEF0EC0E01C5E3F4ED0E02C520
:100F2000E3F4EE0E03C5E3F4EF0E04C5E3F4800E24
:100F3000E66E510EE66E010EE66E000EE66EE40EF3
:100F4000E3C4E6F4E3C4E6F4E3C4E6F4E3C4E6F49D
:100F5000BDECC1F032D0800EE66E510EE66E010E91
:100F6000E66E000EE66EE40EE3C4E6F4E3C4E6F4D7
:100F7000E3C4E6F4E3C4E6F418ECB6F0EC0E01C505
:100F8000E3F4ED0E02C5E3F4EE0E03C5E3F4EF0E59
:100F900004C5E3F4800EE66E510EE66E010EE66EB9
:100FA000000EE66EE40EE3C4E6F4E3C4E6F4E3C444
:100FB000E6F4E3C4E6F455ECB8F0D80E01C5E3F46A
:100FC000D90E02C5E3F4DA0E03C5E3F4DB0E04C563
:100FD000E3F4DB0EE3AE1BD0E150D80FD96EE25044
:100FE000DA6EFF0EDA22800EDE26510EDE22010EB0
:100FF000DE22000EDE22E150EC0FD96EE250DA6EF6
:10100000FF0EDA22DE06000EDE5ADE5ADE5A070E28
:10101000E66E000EE66E000EE66E000EE66EE80E60
:10102000E350030F096EE90EE3C40AF5000E0A222D
:10103000EA0EE3C40BF5000E0B22EB0EE3C40CF535
:10104000000E0C2209C5E6F40AC5E6F40BC5E6F469
:101050000CC5E6F455ECB8F001C50BF502C50CF56E
:10106000FE0E0BC5E3F4FF0E0CC5E3F4FF0EE3AE7A
:101070000FD0FE0EE350070F016EFE0E01C5E3F424
:10108000016AFF0EE3500120016EFF0E01C5E3F47B
:10109000B10EE66E3A0EE66E020EE66E000EE66EDB
:1010A000E80EE3C4E6F4E3C4E6F4E3C4E6F4E3C420
:1010B000E6F418ECB6F0F00E01C5E3F4F10E02C54B
:1010C000E3F4F20E03C5E3F4F30E04C5E3F4B10E4A
:1010D000E66E3A0EE66E020EE66E000EE66EE80E64
:1010E000E3C4E6F4E3C4E6F4E3C4E6F4E3C4E6F4FC
:1010F00055ECB8F0D40E01C5E3F4D50E02C5E3F407
:10110000D60E03C5E3F4D70E04C5E3F4D70EE3AE61
:101110001BD0E150D40FD96EE250DA6EFF0EDA2206
:10112000B10EDE263A0EDE22020EDE22000EDE2296
:10113000E150F00FD96EE250DA6EFF0EDA22DE06D1
:10114000000EDE5ADE5ADE5AAC0EE66E8E0EE66EEB
:10115000000EE66E000EE66ED00EE3C4E6F4E3C4C5
:10116000E6F4E3C4E6F4E3C4E6F418ECB6F0E00E0B
:1011700001C5E3F4E10E02C5E3F4E20E03C5E3F4B6
:10118000E30E04C5E3F4E00EE3C401F5040E011818
:1011900016E1E10EE35013E1E20EE35010E1E30E3D
:1011A000E350D8A40CD0E150E00FD96EE250DA6ED3
:1011B000FF0EDA22DE06000EDE5ADE5ADE5AAC0ED2
:1011C000E66E8E0EE66E000EE66E000EE66EDC0E2D
:1011D000E3C4E6F4E3C4E6F4E3C4E6F4E3C4E6F40B
:1011E00030ECC4F0E150D40FD96EE250DA6EFF0E4D
:1011F000DA220150DE5E0250DE5A0350DE5A0450FD
:10120000DE5AB50EE66E050EE66E000EE66E000EB8
:10121000E66ED00EE3C4E6F4E3C4E6F4E3C4E6F419
:10122000E3C4E6F418ECB6F0DC0E01C5E3F4DD0E21
:1012300002C5E3F4DE0E03C5E3F4DF0E04C5E3F4F8
:10124000DC0EE3C401F5190E011816E1DD0EE350C2
:1012500013E1DE0EE35010E1DF0EE350D8A40CD012
:10126000E150DC0FD96EE250DA6EFF0EDA22DE06B4
:10127000000EDE5ADE5ADE5AB50EE66E050EE66E3A
:10128000000EE66E000EE66ED80EE3C4E6F4E3C48C
:10129000E6F4E3C4E6F4E3C4E6F430ECC4F0E15071
:1012A000D40FD96EE250DA6EFF0EDA220150DE5E04
:1012B0000250DE5A0350DE5A0450DE5A6D0EE66EBE
:1012C000010EE66E000EE66E000EE66ED00EE3C472
:1012D000E6F4E3C4E6F4E3C4E6F4E3C4E6F418ECAD
:1012E000B6F0E40E01C5E3F4E50E02C5E3F4E60E44
:1012F00003C5E3F4E70E04C5E3F4E40EE3C401F52B
:10130000040E011816E1E50EE35013E1E60EE3507A
:1013100010E1E70EE350D8A40CD0E150E40FD96EF1
:10132000E250DA6EFF0EDA22DE06000EDE5ADE5AD8
:10133000DE5A6D0EE66E010EE66E000EE66E000ED3
:10134000E66EE00EE3C4E6F4E3C4E6F4E3C4E6F4D8
:10135000E3C4E6F430ECC4F0E150D40FD96EE250AF
:10136000DA6EFF0EDA220150DE5E0250DE5A0350C2
:10137000DE5A0450DE5AD30EE36AE40EE35027E14E
:10138000E50EE35024E1E60EE35021E1E70EE350E1
:10139000D8A41DD0DC0EE35017E1DD0EE35014E1BC
:1013A000DE0EE35011E1DF0EE350D8A40DD0E00EC5
:1013B000E3500DE1E10EE3500AE1E20EE35007E1F4
:1013C000E30EE350D8A403D0D30EE36AE32AD30E8E
:1013D000E3500B6E0C6AFA0E0BC5E3F4FB0E0CC562
:1013E000E3F4FA0EE3C40BF5FB0EE3C40CF5D40EE4
:1013F000E3500B26D50EE3500C223B0E0B26000EBD
:101400000C22FC0E0BC5E3F4FD0E0CC5E3F4FA0E42
:10141000E3506D0F0B6EFB0EE3C40CF5010E0C22B6
:10142000FC0EE3C401F50B50015CFD0EE350800A95
:10143000016E0C50800A0158D8A019D0FA0EE35062
:101440006D0F0B6EFB0EE3C40CF5010E0C22FC0EAF
:10145000E3C401F50B50015EFC0E01C5E3F4FD0E83
:10146000E3C401F50C50015AFD0E01C5E3F4DC0E96
:10147000E3C409F5DD0EE3C40AF5DE0EE3C40BF5A3
:10148000DF0EE3C40CF5020ED89009360A360B368F
:101490000C36E82EF9D7900EE66E010EE66E000EC1
:1014A000E66E000EE66EEC0EE3C4E6F4E3C4E6F48A
:1014B000E3C4E6F4E3C4E6F430ECC4F001C505F59A
:1014C00002C506F503C507F504C508F5640EE66E0A
:1014D000000EE66E000EE66E000EE66EDC0EE3C455
:1014E000E6F4E3C4E6F4E3C4E6F4E3C4E6F430EC83
:1014F000C4F0015005260250062203500722045072
:10150000082209500524016E0A500620026E0B5075
:101510000720036E0C500820046EE40EE3500126F1
:10152000E50EE3500222E60EE3500322E70EE350FD
:101530000422F40E01C5E3F4F50E02C5E3F4F60E41
:1015400003C5E3F4F70E04C5E3F4F80EE36AF90EFD
:10155000E36A2CD0E150D40FD96EE250DA6EFF0E60
:10156000DA22F80EE3C40BF5F90EE3C40CF5310EE4
:101570000B24F66EFC0E0C20F76EF86A000EF822B3
:101580000800F550DE5E000EDE5ADE5ADE5AF80E16
:10159000E350010F016EF80E01C5E3F4016AF90E84
:1015A000E3500120016EF90E01C5E3F4F80EE3C427
:1015B0000BF5F90EE3C40CF5310E0B24F66EFC0EA0
:1015C0000C20F76EF86A000EF8220800F5C40CF53E
:1015D0000CC505F5066A076A086AD40EE3C401F56E
:1015E0000550015CD50EE3C401F506500158D60E36
:1015F000E3C401F507500158D70EE350800A016E8D
:101600000850800A0158D8B0A5D7F90EE3BE21D002
:10161000F90EE35007E1F80EE3C401F50A0E015E8E
:10162000D8A017D0E150F80FD96EE250DA6EFF0E55
:10163000DA22F40EDE26FF0EDD22E150F40FD96E21
:10164000E250DA6EFF0EDA22DE2A000EDE22DE2201
:10165000DE22F40EE350640F0B6EF50EE3C40CF5BE
:10166000000E0C22CD0EE3C409F5CE0EE3C40AF53C
:101670000A0E0924D96E000E0A20DA6E0BC5DEF4BC
:101680000CC5DDF4F80EE350020F0B6EF90EE3C447
:101690000CF5000E0C22CD0EE3C409F5CE0EE3C40A
:1016A0000AF5080E0924D96E000E0A20DA6E0BC561
:1016B000DEF40CC5DDF4D40EE350010F0B6ED50E35
:1016C000E3C40CF5000E0C22CD0EE3C409F5CE0EDA
:1016D000E3C40AF5060E0924D96E000E0A20DA6E5C
:1016E0000BC5DEF40CC5DDF4E150FE0FD96EE250FF
:1016F000DA6EFF0EDA22CD0EE3C40BF5CE0EE3C494
:101700000CF50C0E0B24E96E000E0C20EA6EDEC404
:10171000EEF4DDC4EDF4E150FC0FD96EE250DA6E68
:10172000FF0EDA22CD0EE3C40BF5CE0EE3C40CF5AA
:101730000E0E0B24E96E000E0C20EA6EDEC4EEF4F1
:10174000DDC4EDF4100EE66E0E0EE66E000EE66ED3
:10175000000EE66ED40EE3C4E6F4E3C4E6F4E3C49C
:10176000E6F4E3C4E6F418ECB6F001C50BF502C5E7
:101770000CF5CD0EE3C409F5CE0EE3C40AF5040E54
:101780000924D96E000E0A20DA6E0BC5DEF40CC5F2
:10179000DDF43C0EE66E000EE66E000EE66E000E08
:1017A000E66E3C0EE66E000EE66E000EE66E000E75
:1017B000E66ED00EE3C4E6F4E3C4E6F4E3C4E6F474
:1017C000E3C4E6F418ECB6F001C5E6F402C5E6F4AD
:1017D00003C5E6F404C5E6F455ECB8F001C50BF515
:1017E00002C50CF5CD0EE3C409F5CE0EE3C40AF52F
:1017F000020E0924D96E000E0A20DA6E0BC5DEF443
:101800000CC5DDF43C0EE66E000EE66E000EE66ED4
:10181000000EE66ED40EE3C4E6F4E3C4E6F4E3C4DB
:10182000E6F4E3C4E6F455ECB8F001C50BF502C5E7
:101830000CF5CD0EE3C4D9F4CE0EE3C4DAF40BC537
:10184000DEF40CC5DDF4000E016E000E026ECD0E4E
:10185000E126FF0EE2221200170EE126000EE22220
:101860001EECD0F08BECCCF0D68ED68C880EE66ECB
:10187000780EE66E010EE66EE1ECD6F0A4ECD9F03F
:10188000440EE66EA20EE66E010EE66E03ECD7F095
:10189000B0ECD9F0CC0EE66E9D0EE66E010EE66E53
:1018A000F2ECD6F0AAECD9F066ECC3F00DECD5F072
:1018B000100EE66EA30EE66E010EE66E26ECD6F076
:1018C000140EE66E000EE66E020EE66E55ECD3F0D8
:1018D000DEECD3F0C80EE66E000EE66E030EE66E8A
:1018E00055ECD3F0DAECC0F0B80EE66EFC0EE66E06
:1018F000D70EE66EFF0EE66E000EE66E020EE66E88
:10190000800EE66E140EE66E080EE66EF3ECB1F095
:10191000800EE66E140EE66E000EE66E000EE66EAB
:10192000B6ECC5F0AE0EE66EFF0EE66ED70EE66EB6
:10193000FF0EE66E000EE66E020EE66E800EE66E9E
:10194000140EE66E080EE66EF3ECB1F0800EE66E55
:10195000140EE66E000EE66E010EE66EB6ECC5F0F5
:10196000A90EE66E0A0EE66E64ECC0F00150D8B423
:1019700013D0ABCA24F6320EE66EFE0EE66E000EF3
:10198000E66E020EE66E800EE66E140EE66E060E33
:10199000E66EF3ECB1F020D0F150E66E000EE66E8C
:1019A000F050E66E000EE66ED850E66E000EE66E63
:1019B000BA0EE66EFF0EE66E710EE66EFF0EE66E76
:1019C000000EE66E020EE66E800EE66E140EE66EF9
:1019D0000E0EE66EF3ECB1F0800EE66E140EE66EBF
:1019E000000EE66E020EE66EB6ECC5F0E20EE66E96
:1019F000FE0EE66EFA0EE66EFF0EE66E000EE66E68
:101A0000020EE66E800EE66E140EE66E080EE66EB0
:101A1000F3ECB1F0800EE66E140EE66E000EE66E8C
:101A2000030EE66EB6ECC5F0400EE66E420EE66EB4
:101A30000F0EE66E000EE66EEEECCDF04B0EE66E8F
:101A4000FF0EE66EFA0EE66EFF0EE66E000EE66E16
:101A5000020EE66E800EE66E140EE66E080EE66E60
:101A6000F3ECB1F0800EE66E140EE66E000EE66E3C
:101A7000020EE66EB6ECC5F00601196B1A6BFF0E8E
:101A8000E36AFF0EE350020DF3C409F5F4C40AF54E
:101A9000000E0ABEFF0E0B6E0C6E000E0924046EC3
:101AA000000E0A20056E2C0E0B20066E04C5E6F40F
:101AB00005C5E6F406C5E6F4D0ECBCF0FF0EE35035
:101AC000020D300EF324D96E060EF420DA6E01C535
:101AD000DEF402C5DDF4FF0EE350020D300EF324F8
:101AE000D96E060EF420DA6EDE5006011927DD509D
:101AF0001A23FF0EE32AFF0EE3C401F5080E01646A
:101B0000C0D7196B1A6B3EC6E6F43FC6E6F43CC676
:101B1000E6F43DC6E6F43AC6E6F43BC6E6F438C65B
:101B2000E6F439C6E6F436C6E6F437C6E6F434C65B
:101B3000E6F435C6E6F432C6E6F433C6E6F430C65B
:101B4000E6F431C6E6F4960EE66EFD0EE66E150E70
:101B5000E66E000EE66ED50EE124016EFF0EE22069
:101B6000026E01C5E6F402C5E6F4160EE66EF3EC6D
:101B7000B1F0E90EE124016EFF0EE220026E01C514
:101B8000E6F402C5E6F46AECC8F0C30EE66E050E94
:101B9000E66ED1ECD8F001C59DF502C59EF5C18A6F
:101BA0002E0EE66E090EE66EDBEC9EF0060101518C
:101BB000D8B414D0AAECD1F00601016B010151B3E5
:101BC00002D0010E01D0000E010B0601226F22513E
:101BD000D8A402D009013B6B37C923F6030EE66E89
:101BE000F0ECD5F00150D8B4A2D10501A52BA50584
:101BF0000C6E040E0C6486D0000EE66E000EE66ECF
:101C0000000EE66E000EE66E200EE66E410EE66EEB
:101C10000CC8E6F40DC8E6F40EC8E6F40FC8E6F406
:101C2000010EE66E22ECB0F001C5E6F402C5E6F462
:101C300003C5E6F404C5E6F45AECA2F001C5E6F4E7
:101C400002C5E6F403C5E6F404C5E6F4A0ECB7F07B
:101C5000000EE66E010EE66E000EE66E000EE66EFB
:101C6000200EE66E410EE66E24C8E6F425C8E6F4C2
:101C700026C8E6F427C8E6F4010EE66E22ECB0F0C2
:101C800001C5E6F402C5E6F403C5E6F404C5E6F4CE
:101C90005AECA2F001C5E6F402C5E6F403C5E6F489
:101CA00004C5E6F4A0ECB7F0000EE66E020EE66E98
:101CB000000EE66E000EE66E200EE66E410EE66E3B
:101CC00030C8E6F431C8E6F432C8E6F433C8E6F4C6
:101CD000010EE66E22ECB0F001C5E6F402C5E6F4B2
:101CE00003C5E6F404C5E6F45AECA2F001C5E6F437
:101CF00002C5E6F403C5E6F404C5E6F4A0ECB7F0CB
:101D00000501A56BC80EE66E000EE66E030EE66ECC
:101D100055ECD3F009013751D8B486D00501AE5146
:101D2000096EAF510A6E0B6A0C6A095006016C5DB0
:101D30000A506D590B506E590C506F59D8B074D071
:101D4000DD0EE66EFF0EE66E000EE66E020EE66E2D
:101D5000800EE66E140EE66E060EE66EF3ECB1F043
:101D6000800EE66E140EE66E000EE66E010EE66E56
:101D7000B6ECC5F0600EE66EFF0EE66E000EE66E87
:101D8000020EE66E800EE66E120EE66E060EE66E31
:101D9000F3ECB1F00501A451D8A42FD031C9E6F479
:101DA00032C9E6F4AC51E66E000EE66EB4C5E6F458
:101DB000B5C5E6F4B6C5E6F4B7C5E6F40901305199
:101DC000E66E000EE66E580EE66EFD0EE66E000E36
:101DD000E66E020EE66E800EE66E140EE66E100ED5
:101DE000E66EF3ECB1F0800EE66E140EE66E000EB9
:101DF000E66E000EE66EB6ECC5F00501A42BA40558
:101E00000C6E090E0C6493D0030EAE250B6E000E03
:101E1000AF210C6E0BC56CF60CC56DF606016E6B32
:101E20006F6B0501A46B83D00501AE6BAF6B7F0EAA
:101E3000E66E090EE66EB70EE66EFE0EE66E000E5C
:101E4000E66E020EE66E800EE66E140EE66E080E6C
:101E5000E66EF3ECB1F0800EE66E140EE66E000E48
:101E6000E66E000EE66EB6ECC5F0730EE66E090E79
:101E7000E66EA30EE66E090EE66E8B0EE66EFE0EA5
:101E8000E66E000EE66E020EE66E800EE66E140E34
:101E9000E66E0A0EE66EF3ECB1F0800EE66E140EFE
:101EA000E66E000EE66E010EE66EB6ECC5F0970E1D
:101EB000E66E090EE66E8B0EE66E090EE66E750E88
:101EC000E66EFE0EE66E000EE66E020EE66E800E0A
:101ED000E66E140EE66E0A0EE66EF3ECB1F0800EBE
:101EE000E66E140EE66E000EE66E020EE66EB6ECC0
:101EF000C5F05B0EE66E090EE66EA10EE66EFE0EF6
:101F0000E66E000EE66E020EE66E800EE66E140EB3
:101F1000E66E080EE66EF3ECB1F0800EE66E140E7F
:101F2000E66E000EE66E030EE66EB6ECC5F0060138
:101F30000651D8B42ED0BF82066B242B030E246525
:101F400001D0246B24C6ABFACD0EE66EFE0EE66E13
:101F50002451E66E000EE66EE30EE66EFF0EE66EB0
:101F6000000EE66E020EE66E800EE66E140EE66E53
:101F70000A0EE66EF3ECB1F0800EE66E140EE66E1D
:101F8000000EE66E020EE66EB6ECC5F0010E06011E
:101F9000216F0751D8B425D0BF82076BE70EE66EDC
:101FA000FD0EE66EE60EE66EFF0EE66E000EE66EC7
:101FB000020EE66E800EE66E140EE66E080EE66EFB
:101FC000F3ECB1F0800EE66E140EE66E000EE66ED7
:101FD000020EE66EB6ECC5F0010E06011F6F010E93
:101FE000216F0851D8B423D0BF82086BB00EE66EC3
:101FF000FD0EE66EE60EE66EFF0EE66E000EE66E77
:10200000020EE66E800EE66E140EE66E080EE66EAA
:10201000F3ECB1F0800EE66E140EE66E000EE66E86
:10202000020EE66EB6ECC5F0010E0601216FC19AF4
:10203000B6D5080EE126000EE222F40EE3C4D9F470
:10204000F50EE3C4DAF4DEC4F6F4DDC4F7F4000EF2
:10205000F86E0800F550250AD8A49AD3F40EE3C40C
:10206000D9F4F50EE3C4DAF4DE2A000EDD22000E08
:10207000226E000E216E21C525F523682468FF0E0F
:10208000E36A21D02582F40EE3C4D9F4F50EE3C44B
:10209000DAF4DE2A000EDD2216D0FF0EE36AE32A10
:1020A00012D0F40EE3C4D9F4F50EE3C4DAF4DEC4BE
:1020B000F6F4DDC4F7F4000EF86E0800F550300AAF
:1020C000D8B4E0D7EAD7FF0EE350D8B4EAD7F20E7F
:1020D000E3C4E6F4E3C4E6F4F20EE3C4E6F4E3C4D6
:1020E000E6F457ECBDF001C521F502C522F522AE9C
:1020F00005D02580216C221ED8B0222AF40EE3C41C
:10210000D9F4F50EE3C4DAF4DEC4F6F4DDC4F7F472
:10211000000EF86E0800F5502E0AD8A419D0F40E5F
:10212000E3C4D9F4F50EE3C4DAF4DE2A000EDD22AE
:10213000F20EE3C4E6F4E3C4E6F4F20EE3C4E6F41C
:10214000E3C4E6F457ECBDF001C523F502C524F560
:10215000F40EE3C4D9F4F50EE3C4DAF4DEC40BF5EF
:10216000DDC40CF5FD0E0CC5E3F4FC0E0BC5E3F469
:10217000E150FC0FD96EE250DA6EFF0EDA22DEC4B7
:10218000F6F4DDC4F7F4000EF86E0800FE0EF5C498
:10219000E3F419D0FC0EE350010F016EFC0E01C5F3
:1021A000E3F4016AFD0EE3500120016EFD0E01C54E
:1021B000E3F41BD0690E0C6EFE0E0CC5E3F415D0D3
:1021C000FE0EE36A12D0FE0EE350580AD8B4F2D7DE
:1021D0003C0AD8B4EFD70D0AD8B4ECD7050AD8B466
:1021E000D9D7190AD8B4E6D7EBD7E150FC0FD96E8E
:1021F000E250DA6EFF0EDA22DEC4F6F4DDC4F7F444
:10220000000EF86E0800F550640AD8B460D0E150B2
:10221000FC0FD96EE250DA6EFF0EDA22DEC4F6F45D
:10222000DDC4F7F4000EF86E0800F550690AD8B462
:102230004ED079D0F20EE3C4D9F4F30EE3C4DAF44D
:10224000020EDE5E000EDD5ADEC40BF5DDC40CF5B9
:102250000BC5D9F40CC5DAF4DEC40BF5DDC40CF5FE
:10226000F80E0BC5E3F4F90E0CC5E3F4016AE3BE06
:102270000168FA0E01C5E3F4FB0E01C5E3F42FD0AB
:10228000F20EE3C4D9F4F30EE3C4DAF4040EDE5E16
:10229000000EDD5ADEC40BF5DDC40CF50BC5D9F418
:1022A0000CC5DAF4DEC409F5DEC40AF5DEC40BF5AC
:1022B000DEC40CF5F80E09C5E3F4F90E0AC5E3F423
:1022C000FA0E0BC5E3F4FB0E0CC5E3F408D0FE0ECA
:1022D000E350690AD8B4AED7050AD8B4D1D7FC0EFA
:1022E000E350010F0B6EFD0EE3C40CF5000E0C2243
:1022F000F40EE3C4D9F4F50EE3C4DAF40BC5DEF44E
:102300000CC5DDF4F80EE3C4E6F4E3C4E6F4E3C47C
:10231000E6F4E3C4E6F4F20EE3C4E6F4E3C4E6F460
:10232000D6ECABF05AD2E150FC0FD96EE250DA6E27
:10233000FF0EDA22DEC4F6F4DDC4F7F4000EF86E08
:102340000800F550580AD8B463D0E150FC0FD96E9C
:10235000E250DA6EFF0EDA22DEC4F6F4DDC4F7F4E2
:10236000000EF86E0800F550750AD8B451D0A3D00D
:10237000F20EE3C4D9F4F30EE3C4DAF4020EDE5E27
:10238000000EDD5ADEC40BF5DDC40CF50BC5D9F427
:102390000CC5DAF4DEC40BF5DDC40CF50B50056E8C
:1023A0000C50066E076A086AF80E05C5E3F4F90ECC
:1023B00006C5E3F4FA0E07C5E3F4FB0E08C5E3F423
:1023C0002FD0F20EE3C4D9F4F30EE3C4DAF4040E12
:1023D000DE5E000EDD5ADEC40BF5DDC40CF50BC568
:1023E000D9F40CC5DAF4DEC409F5DEC40AF5DEC49E
:1023F0000BF5DEC40CF5F80E09C5E3F4F90E0AC5B9
:10240000E3F4FA0E0BC5E3F4FB0E0CC5E3F408D0BD
:10241000FE0EE350690AD8B4ABD7050AD8B4D1D7B9
:10242000FC0EE350010F0B6EFD0EE3C40CF5000E25
:102430000C22F40EE3C4D9F4F50EE3C4DAF40BC5B0
:10244000DEF40CC5DDF422D0F80EE3C4E6F4E3C4F8
:10245000E6F4E3C4E6F4E3C4E6F4F20EE3C4E6F41F
:10246000E3C4E6F4A4ECB3F0B8D1F80EE3C4E6F4A8
:10247000E3C4E6F4E3C4E6F4E3C4E6F4F20EE3C432
:10248000E6F4E3C4E6F4CCECB2F0A7D1E150FC0FE3
:10249000D96EE250DA6EFF0EDA22DEC4F6F4DDC445
:1024A000F7F4000EF86E0800F550580AD8B4DDD7DE
:1024B0002D0AD8B4C9D7FF0EE36AF40EE3C4D9F4E9
:1024C000F50EE3C4DAF4DEC4F6F4DDC4F7F4000E6E
:1024D000F86E0800F550730AD8A40DD0F40EE3C4CA
:1024E000D9F4F50EE3C4DAF4DE2A000EDD22FF0E85
:1024F000E36AE32A4CD0F40EE3C4D9F4F50EE3C446
:10250000DAF4DEC4F6F4DDC4F7F4000EF86E080069
:10251000F5506C0AD8A43BD0F40EE3C4D9F4F50E00
:10252000E3C4DAF4DEC40BF5DDC40CF5010E0B26B2
:10253000000E0C220BC5F6F40CC5F7F4000EF86E75
:102540000800F5506C0AD8A422D0F40EE3C4D9F4E4
:10255000F50EE3C4DAF4DEC40BF5DDC40CF5020EAF
:102560000B26000E0C220BC5F6F40CC5F7F4000E7A
:10257000F86E0800F550730AD8A409D0F40EE3C42D
:10258000D9F4F50EE3C4DAF4030EDE26AED7FF0E5F
:10259000E350D8B422D0F20EE3C4D9F4F30EE3C46E
:1025A000DAF4020EDE5E000EDD5ADEC40BF5DDC489
:1025B0000CF50BC5D9F40CC5DAF4DEC40BF5DDC49B
:1025C0000CF50BC5E6F40CC5E6F4F40EE3C4E6F432
:1025D000E3C4E6F403ECADF000D1F40EE3C4D9F4A7
:1025E000F50EE3C4DAF4DEC40BF5DDC40CF5FD0E24
:1025F0000CC5E3F4FC0E0BC5E3F4E150FC0FD96EFF
:10260000E250DA6EFF0EDA22DEC4F6F4DDC4F7F42F
:10261000000EF86E0800FE0EF5C4E3F419D0FC0EAF
:10262000E350010F016EFC0E01C5E3F4016AFD0EDB
:10263000E3500120016EFD0E01C5E3F415D06C0ED0
:102640000C6EFE0E0CC5E3F40FD0FE0EE36A0CD048
:10265000FE0EE3504C0AD8B4E2D72A0AD8B4EFD71A
:102660000A0AD8B4DCD7F1D7E150FC0FD96EE2509A
:10267000DA6EFF0EDA22DEC4F6F4DDC4F7F4000EE3
:10268000F86E0800F550660AD8B428D076D0F20E5D
:10269000E3C4D9F4F30EE3C4DAF4040EDE5E000EF4
:1026A000DD5ADEC40BF5DDC40CF50BC5D9F40CC541
:1026B000DAF4DEC409F5DEC40AF5DEC40BF5DEC4C7
:1026C0000CF5F80E09C5E3F4F90E0AC5E3F4FA0EA9
:1026D0000BC5E3F4FB0E0CC5E3F408D0FE0EE3508B
:1026E0004C0AD8B4D4D7200AD8B4D1D7FC0EE350C2
:1026F000010F0B6EFD0EE3C40CF5000E0C22F40E60
:10270000E3C4D9F4F50EE3C4DAF40BC5DEF40CC56A
:10271000DDF421D0E150FC0FD96EE250DA6EFF0EED
:10272000DA22DEC4F6F4DDC4F7F4000EF86E080019
:10273000F550E66EF70EE3C4E6F4E3C4E6F4E3C452
:10274000E6F4E3C4E6F4F10EE3C4E6F4E3C4E6F42D
:1027500000EC80F042D0E150FC0FD96EE250DA6E0E
:10276000FF0EDA22DEC4F6F4DDC4F7F4000EF86ED4
:102770000800F550660AD8B4CDD7F40EE3C4D9F4F6
:10278000F50EE3C4DAF4DE2A000EDD22000E22D0BC
:10279000F60EE3C4E6F4E3C4E6F4F20EE3C4D9F4BF
:1027A000F30EE3C4DAF4DEC4F6F4DDC4F7F4000E8D
:1027B000F86E0800F550E66E000EE66EE5ECBFF030
:1027C000F40EE3C4D9F4F50EE3C4DAF4DE2A000E05
:1027D000DD22010E016E000E026EF20EE126FF0EEA
:1027E000E22212000D0EE126000EE222F20EE1249A
:1027F000D96EFF0EE220DA6EDF500C6E800E0C16E2
:10280000FF0E0CC5E3F4F20EE124D96EFF0EE220B8
:10281000DA6EDF500C6ED8900C36FD0E0CC5E3F46A
:10282000F10EE124D96EFF0EE220DA6EDFAE02D0A7
:10283000FD0EE380FD0EE350D8B41BD0FD0EE3285F
:10284000D8A414D0000E096E000E0A6E000E0B6E96
:10285000000E0C6EEF0E09C5E3F4F00E0AC5E3F4AA
:10286000F10E0BC5E3F4F20E0CC5E3F4F10EE38EAA
:1028700014D0000E096E000E0A6E000E0B6E000ED4
:102880000C6EEF0E09C5E3F4F00E0AC5E3F4F10E89
:102890000BC5E3F4F20E0CC5E3F4EE0EE124D96EA1
:1028A000FF0EE220DA6EDF500C6E800E0C16E15047
:1028B000FF0FD96EE250DA6EFF0EDA220C50DF1AEB
:1028C000EE0EE124D96EFF0EE220DA6EDF500C6EC0
:1028D000D8900C36FE0E0CC5E3F4ED0EE124D96E53
:1028E000FF0EE220DA6EDFAE02D0FE0EE380FE0EB7
:1028F000E350D8B41BD0FE0EE328D8A414D0000EA9
:10290000096E000E0A6E000E0B6E000E0C6EEB0EC2
:1029100009C5E3F4EC0E0AC5E3F4ED0E0BC5E3F4D0
:10292000EE0E0CC5E3F4ED0EE38E14D0000E096E2E
:10293000000E0A6E000E0B6E000E0C6EEB0E09C53B
:10294000E3F4EC0E0AC5E3F4ED0E0BC5E3F4EE0E72
:102950000CC5E3F4FE0EE350D8B404D0FD0EE350F2
:10296000D8A409D0000E016E000E026E000E036E98
:10297000000E046EF1D2EF0EE3C40CF5ED0EE1246F
:10298000D96EFF0EE220DA6EDF500C02FB0EF3C4AC
:10299000E3F4FC0EF4C4E3F4FB0EE3C40CF50CC545
:1029A00005F5066A076A086AF70E05C5E3F4F80E2E
:1029B00006C5E3F4F90E07C5E3F4FA0E08C5E3F41F
:1029C000FC0EE124D96EFF0EE220DA6EDF500C6EB1
:1029D0000CC505F5066A076A086AF30E05C5E3F437
:1029E000F40E06C5E3F4F50E07C5E3F4F60E08C5CC
:1029F000E3F4F00EE124D96EFF0EE220DA6EDF5030
:102A00000C6EEC0EE124D96EFF0EE220DA6EDF5080
:102A10000C02FB0EF3C4E3F4FC0EF4C4E3F4E15047
:102A2000F70FD96EE250DA6EFF0EDA22FB0EE3509A
:102A3000DE26000EDE22DE22DE22E150F30FD96E0A
:102A4000E250DA6EFF0EDA22FC0EE124E96EFF0E90
:102A5000E220EA6EEF50DE26000EDE22DE22DE22CB
:102A6000F10EE124D96EFF0EE220DA6EDF500C6E1B
:102A7000EB0EE3500C02FB0EF3C4E3F4FC0EF4C4C3
:102A8000E3F4E150F70FD96EE250DA6EFF0EDA226E
:102A9000FB0EE350DE26000EDE22DE22DE22E150B7
:102AA000F30FD96EE250DA6EFF0EDA22FC0EE1244B
:102AB000E96EFF0EE220EA6EEF50DE26000EDE2207
:102AC000DE22DE22E150F70FD96EE250DA6EFF0E01
:102AD000DA22080ED890DE36DE36DE36DD36DD52FE
:102AE000DD52E82EF7D7F00EE124D96EFF0EE2207A
:102AF000DA6EDF500C6EEB0EE3500C02FB0EF3C4EB
:102B0000E3F4FC0EF4C4E3F4FB0EE3C40BF5FC0E9B
:102B1000E3C40CF5E150F70FD96EE250DA6EFF0E08
:102B2000DA220B50DE260C50DE22000EDE22DE22E0
:102B3000EF0EE3C40CF5EC0EE124D96EFF0EE2209B
:102B4000DA6EDF500C02FB0EF3C4E3F4FC0EF4C4A7
:102B5000E3F4FB0EE3C40BF5FC0EE3C40CF5E1500B
:102B6000F70FD96EE250DA6EFF0EDA220B50DE2636
:102B70000C50DE22000EDE22DE22E150F70FD96E6D
:102B8000E250DA6EFF0EDA22080ED890DE36DE361C
:102B9000DE36DD36DD52DD52E82EF7D7EF0EE3C428
:102BA0000CF5EB0EE3500C02FB0EF3C4E3F4FC0E49
:102BB000F4C4E3F4FB0EE3C40BF5FC0EE3C40CF524
:102BC000E150F70FD96EE250DA6EFF0EDA220B50A9
:102BD000DE260C50DE22000EDE22DE22F00EE12484
:102BE000D96EFF0EE220DA6EDF500C6EED0EE1249E
:102BF000D96EFF0EE220DA6EDF500C02FB0EF3C43A
:102C0000E3F4FC0EF4C4E3F4FB0EE3C40BF5FC0E9A
:102C1000E3C40CF5E150F30FD96EE250DA6EFF0E0B
:102C2000DA220B50DE260C50DE22000EDE22DE22DF
:102C3000F10EE124D96EFF0EE220DA6EDF500C6E49
:102C4000EC0EE124D96EFF0EE220DA6EDF500C02AA
:102C5000FB0EF3C4E3F4FC0EF4C4E3F4FB0EE3C494
:102C60000BF5FC0EE3C40CF5E150F30FD96EE25006
:102C7000DA6EFF0EDA220B50DE260C50DE22000E3A
:102C8000DE22DE22F10EE124D96EFF0EE220DA6EA2
:102C9000DF500C6EED0EE124D96EFF0EE220DA6EED
:102CA000DF500C02FB0EF3C4E3F4FC0EF4C4E3F4B7
:102CB000FB0EE3C40BF5FC0EE3C40CF50B50056EE4
:102CC0000C50066E076A086A07C508F506C507F5C1
:102CD00005C506F5056AE150F30FD96EE250DA6ECC
:102CE000FF0EDA220550DE260650DE220750DE22D5
:102CF0000850DE22E150F30FD96EE250DA6EFF0E7B
:102D0000DA22FA0EE124E96EFF0EE220EA6EEF50BD
:102D1000DE26000EDE22DE22DE22E150F70FD96E23
:102D2000E250DA6EFF0EDA22080ED890DE36DE367A
:102D3000DE36DD36DD52DD52E82EF7D7FD0EE350EC
:102D40000B6E0C6AFE0EE3500B26000E0C22820E58
:102D50000B24096EFF0E0C200A6EFB0E09C5E3F46E
:102D6000FC0E0AC5E3F421D0D890F30EE336F40E3E
:102D7000E336F50EE336F60EE336FA0EE3AE02D096
:102D8000F30EE380D890F70EE336F80EE336F90E33
:102D9000E336FA0EE336E150FB0FD96EE250DA6EFD
:102DA000FF0EDA22DE06000EDD5AF50EE3AEDCD7AA
:102DB000FE0EE36AFA0EE3AE20D0E150F70FD96EB3
:102DC000E250DA6EFF0EDA22FF0EDE14096EFF0EFD
:102DD000DE140A6EFF0EDE140B6E7F0EDE140C6E18
:102DE00009500A100B100C10D8B404D0FE0EE36A80
:102DF000E32A03D0F30EE3B0F9D7FE0EE350D8B4C4
:102E000034D0E150F30FD96EE250DA6EFF0EDA22C1
:102E1000DE2A000EDE22DE22DE22F60EE3A025D020
:102E2000010E0C6EE150F30FD96EE250DA6EFF0E18
:102E3000DA220C28DE5208D0DE52D890DCBED880D0
:102E4000DD32DD32DD32DE32E82EF6D7FB0EE35026
:102E5000010F016EFB0E01C5E3F4016AFC0EE350A5
:102E60000120016EFC0E01C5E3F4FC0EE3BE1CD094
:102E7000FC0EE35004E1FB0EE328D8A015D0000EB1
:102E8000096E000E0A6E800E0B6E7F0E0C6EF30E36
:102E900009C5E3F4F40E0AC5E3F4F50E0BC5E3F43B
:102EA000F60E0CC5E3F441D0FC0EE3BE07D0FC0ED9
:102EB000E3500FE1FB0EE304D8B00BD0F30EE36A4E
:102EC000F40EE36AF50EE36AF60EE36AFF0EE36AB8
:102ED0002CD0FB0EE3C401F5FD0E01C5E3F4E15077
:102EE000F30FD96EE250DA6EFF0EDA22FF0EDE1615
:102EF000FF0EDE167F0EDE16000EDE16FD0EE3A0C0
:102F000008D0F50EE124D96EFF0EE220DA6E000E35
:102F1000DB8EF60EE124D96EFF0EE220DA6EFD0E96
:102F2000E3C40CF5D8900C30DF6EFF0EE3C40CF553
:102F3000F60EE124D96EFF0EE220DA6E0C50DF129D
:102F4000F30EE3C401F5F40EE3C402F5F50EE3C499
:102F500003F5F60EE3C404F5EB0EE126FF0EE222C4
:102F600012000C0EE126000EE222FD0EE36AFE0EB8
:102F7000E36A010E0B6E000E0C6EFB0E0BC5E3F444
:102F8000FC0E0CC5E3F4E150EE0FD96EE250DA6EA0
:102F9000FF0EDA22F20EE3C40BF5F30EE3C40CF5D8
:102FA000030E0B24E96E000E0C20EA6EDEC4EEF474
:102FB000DDC4EDF4F20EE3C40BF5F30EE3C40CF53F
:102FC000030E0B24D96E000E0C20DA6E0501AC51F5
:102FD0000B6E0C6ADE500B5CDE500C58D8A0C7D2CA
:102FE000000EE66E0B0EE66E06ECC9F0FF0E01C594
:102FF000E3F4FF0EE3C401F5060E0118D8A421D0B6
:10300000EE0EE350E66E000EE66E0B0EE66E93ECEF
:10301000C2F001500B6E0C6AFD0E0BC5E3F4FE0E00
:103020000CC5E3F4000EE66E0B0EE66EB6ECCEF0C9
:1030300001500B6E0C6AFB0E0BC5E3F4FC0E0CC5C5
:10304000E3F4E150FD0FD96EE250DA6EFF0EDA22A2
:10305000FB0EE350DE1804E1FC0EE350DE18D8A4AA
:103060000FD2000EE66E0B0EE66ECCECC3F0350E02
:10307000011841E10204D8A43ED0FA0EE36A1ED042
:10308000FA0EE3500B6E0C6A0A0E0B24D96E0B0E6F
:103090000C20DA6EFA0EE3500B6E0C6AF20EE3505F
:1030A0000B26F30EE3500C222D0E0B24E96E000EBE
:1030B0000C20EA6EDFC4EFF4FA0EE32AE150FA0FB7
:1030C000D96EE250DA6EFF0EDA22FF0EE350DE5CBC
:1030D000D8A0D6D7FF0EE3500B6E0C6AF20EE35069
:1030E0000B26F30EE3500C222D0E0B24D96E000E8E
:1030F0000C20DA6EDF6A000EE66E0B0EE66ECCEC8C
:10310000C3F0170E01180210D8A43ED0F90EE36ADE
:103110001ED0F90EE3500B6E0C6A0A0E0B24D96E0A
:103120000B0E0C20DA6EF90EE3500B6E0C6AF20EE9
:10313000E3500B26F30EE3500C22390E0B24E96EFC
:10314000000E0C20EA6EDFC4EFF4F90EE32AE15022
:10315000F90FD96EE250DA6EFF0EDA22FF0EE3505D
:10316000DE5CD8A0D6D7FF0EE3500B6E0C6AF20ED1
:10317000E3500B26F30EE3500C22390E0B24D96ECC
:10318000000E0C20DA6EDF6A000EE66E0B0EE66EA5
:10319000CCECC3F0360E011841E10204D8A43ED0B5
:1031A000F80EE36A1ED0F80EE3500B6E0C6A0A0E9E
:1031B0000B24D96E0B0E0C20DA6EF80EE3500B6E5A
:1031C0000C6AF20EE3500B26F30EE3500C22450E70
:1031D0000B24E96E000E0C20EA6EDFC4EFF4F80E4B
:1031E000E32AE150F80FD96EE250DA6EFF0EDA22D0
:1031F000FF0EE350DE5CD8A0D6D7FF0EE3500B6E77
:103200000C6AF20EE3500B26F30EE3500C22450E2F
:103210000B24D96E000E0C20DA6EDF6A000EE66E0B
:103220000B0EE66ECCECC3F0390E011841E102043E
:10323000D8A43ED0F70EE36A1ED0F70EE3500B6E13
:103240000C6A0A0E0B24D96E0B0E0C20DA6EF70EE8
:10325000E3500B6E0C6AF20EE3500B26F30EE350B4
:103260000C22750E0B24E96E000E0C20EA6EDFC4F2
:10327000EFF4F70EE32AE150F70FD96EE250DA6E61
:10328000FF0EDA22FF0EE350DE5CD8A0D6D7FF0E89
:10329000E3500B6E0C6AF20EE3500B26F30EE35074
:1032A0000C22750E0B24D96E000E0C20DA6EDF6A2C
:1032B000000EE66E0B0EE66ECCECC3F0330E01187A
:1032C00041E10204D8A43ED0F60EE36A1ED0F60E09
:1032D000E3500B6E0C6A0A0E0B24D96E0B0E0C20F9
:1032E000DA6EF60EE3500B6E0C6AF20EE3500B260C
:1032F000F30EE3500C22510E0B24E96E000E0C204D
:10330000EA6EDFC4EFF4F60EE32AE150F60FD96E51
:10331000E250DA6EFF0EDA22FF0EE350DE5CD8A038
:10332000D6D7FF0EE3500B6E0C6AF20EE3500B265D
:10333000F30EE3500C22510E0B24D96E000E0C201C
:10334000DA6EDF6A000EE66E0B0EE66ECCECC3F0B2
:103350005D0E011841E10204D8A43ED0F50EE36AE7
:103360001ED0F50EE3500B6E0C6A0A0E0B24D96EBC
:103370000B0E0C20DA6EF50EE3500B6E0C6AF20E9B
:10338000E3500B26F30EE3500C225D0E0B24E96E86
:10339000000E0C20EA6EDFC4EFF4F50EE32AE150D4
:1033A000F50FD96EE250DA6EFF0EDA22FF0EE3500F
:1033B000DE5CD8A0D6D7FF0EE3500B6E0C6AF20E7F
:1033C000E3500B26F30EE3500C225D0E0B24D96E56
:1033D000000E0C20DA6EDF6A000EE66E0B0EE66E53
:1033E000CCECC3F0380E011841E10204D8A43ED061
:1033F000F40EE36A1ED0F40EE3500B6E0C6A0A0E54
:103400000B24D96E0B0E0C20DA6EF40EE3500B6E0B
:103410000C6AF20EE3500B26F30EE3500C22690EF9
:103420000B24E96E000E0C20EA6EDFC4EFF4F40EFC
:10343000E32AE150F40FD96EE250DA6EFF0EDA2281
:10344000FF0EE350DE5CD8A0D6D7FF0EE3500B6E24
:103450000C6AF20EE3500B26F30EE3500C22690EB9
:103460000B24D96E000E0C20DA6EDF6ABF92F00ECC
:10347000E3C4D9F4F10EE3C4DAF4010EDF6E6FD0C9
:10348000BF82F00EE3C4D9F4F10EE3C4DAF4DF6ACC
:10349000F20EE3C40BF5F30EE3C40CF5060E0B2499
:1034A000D96E000E0C20DA6EDF6AF20EE3C40BF563
:1034B000F30EE3C40CF5080E0B24D96E000E0C209D
:1034C000DA6EDF6AF20EE3C40BF5F30EE3C40CF51B
:1034D000070E0B24D96E000E0C20DA6EDF6AF20E96
:1034E000E3C40BF5F30EE3C40CF5090E0B24D96EFF
:1034F000000E0C20DA6EDF6AF20EE3C40BF5F30E59
:10350000E3C40CF50A0E0B24D96E000E0C20DA6E03
:10351000DF6AF20EE3C40BF5F30EE3C40CF50C0EF8
:103520000B24D96E000E0C20DA6EDF6AF20EE3C4B3
:103530000BF5F30EE3C40CF50B0E0B24D96E000E45
:103540000C20DA6EDF6AFB0EE3C4E6F4E3C4E6F4B3
:10355000FB0EE3C4E6F4E3C4E6F4C4ECD3F0F20EED
:10356000E3C40BF5F30EE3C40CF5010E85D0000E99
:10357000E66E29ECD4F004500310021004E1C80EEA
:10358000015CD8A07FD0F20EE3C40BF5F30EE3C4C8
:103590000CF5010E0B24D96E000E0C20DA6EDF6ADA
:1035A000F20EE3C4D9F4F30EE3C4DAF4DF6A010ED9
:1035B0000501B827000EB923BA23BB23AE4BAF2BAE
:1035C000F20EE3C40BF5F30EE3C40CF5060E0B2468
:1035D000D96E000E0C20DA6EDF6AF00EE3C4D9F467
:1035E000F10EE3C4DAF4DF6AF20EE3C40BF5F30E76
:1035F000E3C40CF5080E0B24D96E000E0C20DA6E15
:10360000DF6AF20EE3C40BF5F30EE3C40CF5070E0C
:103610000B24D96E000E0C20DA6EDF6AF20EE3C4C2
:103620000BF5F30EE3C40CF5090E0B24D96E000E56
:103630000C20DA6EDF6AF20EE3C40BF5F30EE3C47E
:103640000CF50A0E0B24D96E000E0C20DA6EDF6A20
:10365000F20EE3C40BF5F30EE3C40CF50C0E0B24D1
:10366000D96E000E0C20DA6EDF6AF20EE3C40BF5A1
:10367000F30EE3C40CF50B0E0B24D96E000E0C20D8
:10368000DA6EDF6AEE0EE126FF0EE2221200E6524B
:10369000E652E652E652FB0EE124D96EFF0EE2201E
:1036A000DA6EDF500C6E800E0C16FF0E0CC5E3F4C4
:1036B000FB0EE124D96EFF0EE220DA6EDF500C6EB5
:1036C000D8900C36FD0E0CC5E3F4FA0EE124D96E49
:1036D000FF0EE220DA6EDFAE02D0FD0EE380FD0EBB
:1036E000E350D8B422D0FD0EE328D8A414D0000EA5
:1036F000096E000E0A6E000E0B6E000E0C6EF80EB8
:1037000009C5E3F4F90E0AC5E3F4FA0E0BC5E3F4B8
:10371000FB0E0CC5E3F4FA0EE38EFB0EE124D96E2A
:10372000FF0EE220DA6EDF6A14D0000E096E000E82
:103730000A6E000E0B6E000E0C6EF80E09C5E3F457
:10374000F90E0AC5E3F4FA0E0BC5E3F4FB0E0CC543
:10375000E3F4F70EE124D96EFF0EE220DA6EDF50BB
:103760000C6E800E0C16FE0E0CC5E3F4E150FE0F3D
:10377000D96EE250DA6EFF0EDA22FF0EE350DE1849
:10378000D8B402D0FF0EE38CF70EE124D96EFF0E01
:10379000E220DA6EDF500C6ED8900C36FE0E0CC5AF
:1037A000E3F4F60EE124D96EFF0EE220DA6EDFAE0E
:1037B00002D0FE0EE380FE0EE350D8B422D0FE0EFF
:1037C000E328D8A414D0000E096E000E0A6E000E75
:1037D0000B6E000E0C6EF40E09C5E3F4F50E0AC56F
:1037E000E3F4F60E0BC5E3F4F70E0CC5E3F4F60EA6
:1037F000E38EF70EE124D96EFF0EE220DA6EDF6A67
:1038000014D0000E096E000E0A6E000E0B6E000E34
:103810000C6EF40E09C5E3F4F50E0AC5E3F4F60EDA
:103820000BC5E3F4F70E0CC5E3F4E150FE0FD96EBF
:10383000E250DA6EFF0EDA22FD0EE350DE5CD8B005
:103840008FD0FF0EE3AC02D0FF0EE37EFD0EE3C48B
:1038500001F5FC0E01C5E3F4FE0EE3C401F5FD0E17
:1038600001C5E3F4FC0EE3C401F5FE0E01C5E3F46B
:10387000F80EE3C401F5FC0E01C5E3F4F40EE3C455
:1038800001F5F80E01C5E3F4FC0EE3C401F5F40EF6
:1038900001C5E3F4F90EE124D96EFF0EE220DA6EE1
:1038A000DF500C6EFC0E0CC5E3F4F50EE124D96E6E
:1038B000FF0EE220DA6EF90EE124E96EFF0EE2203F
:1038C000EA6EDFC4EFF4F50EE124D96EFF0EE220BC
:1038D000DA6EFC0EE3C4DFF4FA0EE124D96EFF0EBB
:1038E000E220DA6EDF500C6EFC0E0CC5E3F4F60E2F
:1038F000E124D96EFF0EE220DA6EFA0EE124E96EC1
:10390000FF0EE220EA6EDFC4EFF4F60EE124D96E7A
:10391000FF0EE220DA6EFC0EE3C4DFF4FB0EE124BE
:10392000D96EFF0EE220DA6EDF500C6EFC0E0CC575
:10393000E3F4F70EE124D96EFF0EE220DA6EFB0EFF
:10394000E124E96EFF0EE220EA6EDFC4EFF4F70E29
:10395000E124D96EFF0EE220DA6EFC0EE3C4DFF440
:10396000FC0EE36AFE0EE3500B6E0C6AFD0EE35094
:103970000B5E000E0C5A0CBE5DD00C5004E11A0E0A
:103980000B5CD8A057D0F80EE3500AE1F90EE350D3
:1039900007E1FA0EE35004E1FB0EE350D8B403D084
:1039A0000C6A0C2A01D00C6AFC0E0CC5E3F4F80E6C
:1039B000E36AF90EE36AFA0EE36AFB0EE36AFE0EAF
:1039C000E3C401F5FD0E01C5E3F440D0FC0EE3A015
:1039D0000BD0FC0EE3C40CF5D8900C32010E0C1287
:1039E000FC0E0CC5E3F409D0E150FC0FD96EE25097
:1039F000DA6EFF0EDA22D890DF32F80EE3A002D0A2
:103A0000FC0EE38E010E0C6EE150F80FD96EE25001
:103A1000DA6EFF0EDA220C28DE5208D0DE52D89081
:103A2000DCBED880DD32DD32DD32DE32E82EF6D784
:103A3000FD0EE32AE150FD0FD96EE250DA6EFF0E63
:103A4000DA22FE0EE350DE5CD8A0C0D7FF0EE3BC46
:103A500060D0FD0EE350D8B4E3D0F80EE350016E11
:103A6000F40EE3500126F80E01C5E3F4F90EE3501D
:103A7000016EF50EE3500122F90E01C5E3F4FA0ED2
:103A8000E350016EF60EE3500122FA0E01C5E3F495
:103A9000FB0EE350016EF70EE3500122FB0E01C551
:103AA000E3F4FB0EE3A0F3D0FC0EE3A00BD0FC0E7E
:103AB000E3C40CF5D8900C32010E0C12FC0E0CC5B0
:103AC000E3F409D0E150FC0FD96EE250DA6EFF0E3C
:103AD000DA22D890DF32F80EE3A002D0FC0EE38E9B
:103AE000010E0C6EE150F80FD96EE250DA6EFF0E47
:103AF000DA220C28DE5208D0DE52D890DCBED88004
:103B0000DD32DD32DD32DE32E82EF6D7FD0EE32A7D
:103B1000BED0E150F80FD96EE250DA6EFF0EDA2215
:103B2000F40EE350DE5CF50EE350DE58F60EE35083
:103B3000DE58DE50800A016EF70EE350800A01580D
:103B4000D8B04AD0F40EE3C409F5F50EE3C40AF583
:103B5000F60EE3C40BF5F70EE3C40CF5F80EE350D4
:103B6000095EF90EE3500A5AFA0EE3500B5AFB0EA7
:103B7000E3500C5AFF0E0924056EFF0E0A20066E54
:103B8000FF0E0B20076EFF0E0C20086EF80E05C509
:103B9000E3F4F90E06C5E3F4FA0E07C5E3F4FB0EF1
:103BA00008C5E3F4FF0EE37EFC0EE35000080C6E44
:103BB000FC0E0CC5E3F4FC0EE350D8A420D0E15079
:103BC000F80FD96EE250DA6EFF0EDA22DE2A000E0E
:103BD000DE22DE22DE2213D0E150F80FD96EE25051
:103BE000DA6EFF0EDA22F40EE350DE5EF50EE350DD
:103BF000DE5AF60EE350DE5AF70EE350DE5AF80EA8
:103C0000E35042E1F90EE3503FE1FA0EE3503CE1AC
:103C1000FB0EE350D8A438D0FC0EE350D8A434D027
:103C2000000E016E000E026E000E036E000E046E9A
:103C3000BDD0D890F80EE336F90EE336FA0EE3362F
:103C4000FB0EE336FC0EE3AE02D0F80EE380FC0E72
:103C5000E3A00BD0FC0EE3C40CF5D8900C36010E9B
:103C60000C12FC0E0CC5E3F409D0E150FC0FD96E28
:103C7000E250DA6EFF0EDA22D890DF36FD0EE35006
:103C8000D8B402D0FD0EE306FA0EE3AED2D7FE0E94
:103C9000E36AFC0EE3AE0ED0FC0EE3C40CF57F0E1F
:103CA0000C16D8B404D0FE0EE36AE32A03D0F80E53
:103CB000E3B0F9D7FE0EE350D8B42BD0E150F80FA3
:103CC000D96EE250DA6EFF0EDA22DE2A000EDE2214
:103CD000DE22DE22FB0EE3A01CD0010E0C6EE150B2
:103CE000F80FD96EE250DA6EFF0EDA220C28DE529F
:103CF00008D0DE52D890DCBED880DD32DD32DD3235
:103D0000DE32E82EF6D7FD0EE328D8B402D0FD0E41
:103D1000E32AFD0EE328D8B404D0FD0EE350D8A466
:103D20000ED0F80EE36AF90EE36AFA0EE36AFB0EB0
:103D3000E36AFD0EE350D8A402D0FF0EE36AFD0E45
:103D4000E3A009D0FA0EE124D96EFF0EE220DA6E6C
:103D5000000EDB8E08D0FA0EE124D96EFF0EE220B1
:103D6000DA6E7F0EDF16FB0EE124D96EFF0EE22025
:103D7000DA6EFD0EE3C40CF5D8900C30DF6EFF0E4A
:103D8000E3AE08D0FB0EE124D96EFF0EE220DA6E1E
:103D9000000EDB8EF80EE3C401F5F90EE3C402F564
:103DA000FA0EE3C403F5FB0EE3C404F5F40EE126BA
:103DB000FF0EE2221200E652D9C609F5DAC60AF56C
:103DC000DBC60BF5DCC60CF50601D92B000EDA2399
:103DD000DB23DC230C500B100A1008E1280E095CD1
:103DE000D8B004D00501C051D8B460D30601D96B56
:103DF000DA6BDB6BDC6BFD0EE3C40BF5FE0EE3C48C
:103E00000CF5050E0B24D96E000E0C20DA6E010E97
:103E1000DF6E20D3FD0EE3C40BF5FE0EE3C40CF5FC
:103E2000050E0B24D96E000E0C20DA6E020EDF6E2A
:103E300071ECD9F06BECD9F0FD0EE3C40BF5FE0E7E
:103E4000E3C40CF5010E0B24D96E000E0C20DA6EC3
:103E5000010EDF6EFD0EE3C4D9F4FE0EE3C4DAF406
:103E6000FD0EE3C40BF5FE0EE3C40CF5020E0B24AD
:103E7000E96E000E0C20EA6EDFC4EFF4FD0EE3C421
:103E8000D9F4FE0EE3C4DAF4DF2AFD0EE3C4D9F45C
:103E9000FE0EE3C4DAF4080EDF64DBD0FD0EE3C4EB
:103EA000D9F4FE0EE3C4DAF4DF6AD3D0FD0EE3C426
:103EB0000BF5FE0EE3C40CF5050E0B24D96E000EB7
:103EC0000C20DA6E040EDF6E100EE66E000EE66E4B
:103ED000160EE66E070EE66E000EE66E0E0EE66E2F
:103EE00026ECAFF0A5D0FD0EE3C40BF5FE0EE3C447
:103EF0000CF5050E0B24D96E000E0C20DA6E050EA3
:103F0000DF6E100EE66E000EE66E460EE66E070ED3
:103F1000E66E000EE66E0E0EE66E26ECAFF088D072
:103F2000FD0EE3C40BF5FE0EE3C40CF5050E0B24E9
:103F3000D96E000E0C20DA6E050EDF6E100EE66EE6
:103F4000000EE66E360EE66E070EE66E000EE66EAC
:103F50000E0EE66E26ECAFF06BD0FD0EE3C40BF553
:103F6000FE0EE3C40CF5050E0B24D96E000E0C20DA
:103F7000DA6E130EDF6E100EE66E000EE66E260E83
:103F8000E66E070EE66E000EE66E0E0EE66E26EC90
:103F9000AFF04ED0FD0EE3C40BF5FE0EE3C40CF5FE
:103FA000050E0B24D96E000E0C20DA6E080EDF6EA3
:103FB000100EE66E000EE66E060EE66E070EE66E5C
:103FC000000EE66E0E0EE66E26ECAFF031D0FD0E62
:103FD000E3C40BF5FE0EE3C40CF5010E0B24D96E01
:103FE000000E0C20DA6EDF6AFD0EE3C4D9F4FE0E7B
:103FF000E3C4DAF4DF6A4ED2FD0EE3C40BF5FE0E25
:10400000E3C40CF5050E0B24D96E000E0C20DA6EFD
:10401000060EDF6E100EE66E000EE66E560EE66EB3
:10402000070EE66E000EE66E0E0EE66E26ECAFF0A4
:10403000FD0EE3C40BF5FE0EE3C40CF5030E0B24DA
:10404000D96E000E0C20DA6E01C5DEF402C5DDF477
:1040500021D2FD0EE3C40BF5FE0EE3C40CF5020EF7
:104060000B24D96E000E0C20DA6EDF500B6E0C6A3A
:104070000C50000AD8A4CED70B50000AD8B4BCD735
:10408000010AD8B430D7030AD8B44AD7010AD8B441
:104090000DD7060AD8B461D7030AD8B47BD70E0A65
:1040A000D8B495D7B7D7FD0EE3C40BF5FE0EE3C425
:1040B0000CF5050E0B24D96E000E0C20DA6E090EDD
:1040C000DF6E000EE66E59ECD4F0045003100210BF
:1040D00004E1280E015CD8A0DDD1000EE66E77EC7D
:1040E000D8F00501AC6BFD0EE3C40BF5FE0EE3C486
:1040F0000CF5010E0B24D96E000E0C20DA6E020EA8
:10410000DF6E65ECD9F0FD0EE3C40BF5FE0EE3C4E3
:104110000CF5050E0B24D96E000E0C20DA6E0A0E7B
:10412000DF6EB8D1FD0EE3C40BF5FE0EE3C40CF553
:10413000050E0B24D96E000E0C20DA6E0B0EDF6E0E
:10414000000E096E0A6A0B6A0C6A000EE66E29EC14
:10415000D4F001C505F502C506F503C507F504C58C
:1041600008F50C50081808E10B50071805E10A5033
:10417000061802E109500518D8B48CD1FF0EE36A85
:1041800010D0FF0EE3500B6E0C6A000E0B24D96E9C
:104190000E0E0C20DA6EDF50E66E71ECD3F0FF0EDF
:1041A000E32AFD0EE3C40BF5FE0EE3C40CF5030E8B
:1041B0000B24D96E000E0C20DA6EFF0EE3500B6E4E
:1041C0000C6ADE500B5CDE500C58D8A0DAD7FD0E1E
:1041D000E3C40BF5FE0EE3C40CF5010E0B24D96EFF
:1041E000000E0C20DA6E030EDF6E65ECD9F0FD0ECA
:1041F000E3C40BF5FE0EE3C40CF5050E0B24D96EDB
:10420000000E0C20DA6E0C0EDF6E010EBC27000EC5
:10421000BD23BE23BF23C06B92ECD9F00150D8A4BC
:1042200065ECD9F0FD0EE3C40BF5FE0EE3C40CF50E
:10423000030E0B24D96E000E0C20DA6EDEC40BF5D3
:10424000DDC40CF5030E0B26000E0C220BC5E6F4A4
:104250000CC5E6F427ECD9F0C0941CD1FD0EE3C4E4
:104260000BF5FE0EE3C40CF5050E0B24D96E000E03
:104270000C20DA6E0D0EDF6E000E096E0A6A0B6AF4
:104280000C6A000EE66E29ECD4F001C505F502C5F6
:1042900006F503C507F504C508F50C50081808E134
:1042A0000B50071805E10A50061802E109500518DD
:1042B000D8B4F0D0FD0EE3C40BF5FE0EE3C40CF54C
:1042C000050E0B24D96E000E0C20DA6E0E0EDF6E7A
:1042D000000EE66E86ECD8F096D0140EE66E000E58
:1042E000E66EFB0EE3500C0F0B6EFC0EE3C40CF5F8
:1042F000000E0C220BC5E6F40CC5E6F4F90EE3C47F
:10430000E6F4E3C4E6F4B1EC97F0C4D0140EE66E24
:10431000000EE66EFB0EE3500C0F0B6EFC0EE3C4BA
:104320000CF5000E0C220BC5E6F40CC5E6F4F90EF4
:10433000E3C4E6F4E3C4E6F4B1EC97F0ABD0140EBA
:10434000E66E000EE66EFB0EE350080F0B6EFC0EE1
:10435000E3C40CF5000E0C220BC5E6F40CC5E6F424
:10436000F90EE3C4E6F4E3C4E6F4B1EC97F092D0BE
:10437000140EE66E000EE66EFB0EE350090F0B6E98
:10438000FC0EE3C40CF5000E0C220BC5E6F40CC5C4
:10439000E6F4F90EE3C4E6F4E3C4E6F4B1EC97F016
:1043A00079D0140EE66E000EE66EFB0EE350090F98
:1043B0000B6EFC0EE3C40CF5000E0C220BC5E6F4EC
:1043C0000CC5E6F4F90EE3C4E6F4E3C4E6F4B1EC9C
:1043D00097F060D0140EE66E000EE66EFB0EE35012
:1043E000060F0B6EFC0EE3C40CF5000E0C220BC581
:1043F000E6F40CC5E6F4F90EE3C4E6F4E3C4E6F42F
:10440000B1EC97F047D0FD0EE3C40BF5FE0EE3C40C
:104410000CF5020E0B24D96E000E0C20DA6EDF5064
:104420000B6E0C6A0C50000AD8A4D4D70B50000AAB
:10443000D8B4D0D7010AD8B49BD7030AD8B4B1D71F
:10444000010AD8B47CD7060AD8B460D7030AD8B416
:1044500044D7C0D7FD0EE3C40BF5FE0EE3C40CF544
:10446000010E0B24D96E000E0C20DA6EDF500B6E9D
:104470000C6A0C50000AD8A40DD00B50000AD8B416
:10448000C9D4010AD8B40FD6030AD8B44BD6010A4E
:10449000D8B4E4D6FD0EE3C40BF5FE0EE3C40CF570
:1044A000050E0B24D96E000E0C20DA6EE552E55293
:1044B000E55212000D0EE126000EE222F20EE1247A
:1044C000D96EFF0EE220DA6EDF500C6E800E0C16F5
:1044D000FF0E0CC5E3F4F20EE124D96EFF0EE220CC
:1044E000DA6EDF500C6ED8900C36FE0E0CC5E3F47D
:1044F000F10EE124D96EFF0EE220DA6EDFAE02D0BB
:10450000FE0EE380FE0EE350D8B422D0FE0EE32868
:10451000D8A414D0000E096E000E0A6E000E0B6EA9
:10452000000E0C6EEF0E09C5E3F4F00E0AC5E3F4BD
:10453000F10E0BC5E3F4F20E0CC5E3F4F10EE38EBD
:10454000F20EE124D96EFF0EE220DA6EDF6A14D09B
:10455000000E096E000E0A6E000E0B6E000E0C6E41
:10456000EF0E09C5E3F4F00E0AC5E3F4F10E0BC536
:10457000E3F4F20E0CC5E3F4EE0EE124D96EFF0E67
:10458000E220DA6EDF500C6E800E0C16E150FF0F49
:10459000D96EE250DA6EFF0EDA220C50DF1AEE0E00
:1045A000E124D96EFF0EE220DA6EDF500C6ED89057
:1045B0000C36FD0E0CC5E3F4ED0EE124D96EFF0EB2
:1045C000E220DA6EDFAE02D0FD0EE380FD0EE35096
:1045D000D8B422D0FD0EE328D8A414D0000E096E62
:1045E000000E0A6E000E0B6E000E0C6EEB0E09C56F
:1045F000E3F4EC0E0AC5E3F4ED0E0BC5E3F4EE0EA6
:104600000CC5E3F4ED0EE38EEE0EE124D96EFF0E41
:10461000E220DA6EDF6A14D0000E096E000E0A6E18
:10462000000E0B6E000E0C6EEB0E09C5E3F4EC0EE3
:104630000AC5E3F4ED0E0BC5E3F4EE0E0CC5E3F48E
:10464000EB0EE35034E1EC0EE35031E1ED0EE350BC
:104650002EE1EE0EE350D8A42AD0EF0EE36AF00E5E
:10466000E36AF10EE36AF20EE36AF10EE124D96E19
:10467000FF0EE220DA6E800EDE127F0EDD12FF0EDC
:10468000E3C40CF5F20EE124D96EFF0EE220DA6EDF
:104690000C50DF12EF0EE3C401F5F00EE3C402F597
:1046A000F10EE3C403F5F20EE3C404F58DD1FE0E62
:1046B000E350D8A409D0000E016E000E026E000E69
:1046C000036E000E046E80D1FE0EE3500B6E0C6A7A
:1046D000FD0EE3500B5E000E0C5A7F0E0B26000EF3
:1046E0000C22FB0E0BC5E3F4FC0E0CC5E3F4EF0E3D
:1046F000E3C409F5F00EE3C40AF5F10EE3C40BF5CB
:10470000F20EE3C40CF5F70E09C5E3F4F80E0AC582
:10471000E3F4F90E0BC5E3F4FA0E0CC5E3F4EF0E67
:10472000E36AF00EE36AF10EE36AF20EE36AF30E57
:10473000E36AF40EE36AF50EE36AF60EE36AFD0E31
:10474000E36A50D0FD0EE350D8B420D0D890F70ED5
:10475000E336F80EE336F90EE336FA0EE336D89078
:10476000EF0EE336F00EE336F10EE336F20EE336EB
:10477000F60EE3AE02D0EF0EE380D890F30EE336F0
:10478000F40EE336F50EE336F60EE336E150F70F9E
:10479000D96EE250DA6EFF0EDA22EB0EE350DE5CE9
:1047A000EC0EE350DE58ED0EE350DE58EE0EE35013
:1047B000DE58D8A015D0F60EE38CE150F70FD96E75
:1047C000E250DA6EFF0EDA22EB0EE350DE5EEC0E04
:1047D000E350DE5AED0EE350DE5AEE0EE350DE5AA1
:1047E000FD0EE32AFD0EE3C401F5190E0164AAD7FC
:1047F000F70EE3500AE1F80EE35007E1F90EE3503B
:1048000004E1FA0EE350D8B424D0F30EE38021D0B3
:10481000D890EF0EE336F00EE336F10EE336F20EEB
:10482000E336F60EE3AE02D0EF0EE380D890F30E3F
:10483000E336F40EE336F50EE336F60EE336E150DA
:10484000FB0FD96EE250DA6EFF0EDA22DE06000EA2
:10485000DD5AF10EE3AEDCD7FD0EE36AF60EE3AEF1
:1048600020D0E150F30FD96EE250DA6EFF0EDA225B
:10487000FF0EDE14096EFF0EDE140A6EFF0EDE144C
:104880000B6E7F0EDE140C6E09500A100B100C100C
:10489000D8B404D0FD0EE36AE32A03D0EF0EE3B0F0
:1048A000F9D7FD0EE350D8B434D0E150EF0FD96EF4
:1048B000E250DA6EFF0EDA22DE2A000EDE22DE225F
:1048C000DE22F20EE3A025D0010E0C6EE150EF0FB8
:1048D000D96EE250DA6EFF0EDA220C28DE5208D0D2
:1048E000DE52D890DCBED880DD32DD32DD32DE3201
:1048F000E82EF6D7FB0EE350010F016EFB0E01C54B
:10490000E3F4016AFC0EE3500120016EFC0E01C5C8
:10491000E3F4FC0EE3BE19D0FC0EE35004E1FB0E01
:10492000E328D8A012D0FF0E0B6E000E0C6EFB0E0B
:104930000BC5E3F4FC0E0CC5E3F4EF0EE36AF00ED6
:10494000E36AF10EE36AF20EE36AFC0EE3BE07D0FF
:10495000FC0EE35012E1FB0EE304D8B00ED0FB0EC8
:10496000E36AFC0EE36AEF0EE36AF00EE36AF10E0F
:10497000E36AF20EE36AFF0EE36AFB0EE3C401F59D
:10498000FE0E01C5E3F4FE0EE3A009D0F10EE12412
:10499000D96EFF0EE220DA6E000EDB8E08D0F10E2B
:1049A000E124D96EFF0EE220DA6E7F0EDF16F20EE2
:1049B000E124D96EFF0EE220DA6EFE0EE3C40CF5A0
:1049C000D8900C30DF6E5BD6EB0EE126FF0EE222B4
:1049D0001200050EE126000EE222F70EE3C4D9F420
:1049E000F80EE3C4DAF4DEC409F5DEC40AF5DEC469
:1049F0000BF5DEC40CF5FB0E09C5E3F4FC0E0AC58D
:104A0000E3F4FD0E0BC5E3F4FE0E0CC5E3F4F70E64
:104A1000E3C40BF5F80EE3C40CF5040E0B24D96EB9
:104A2000000E0C20DA6EDFA080D0F90EE3C40BF587
:104A3000FA0EE3C40CF5010E0B24D96E000E0C2007
:104A4000DA6EFB0EE3C40CF5D8900C36D8900C3619
:104A5000D8900C34F80BDF6E050E0C6EE150FB0F96
:104A6000D96EE250DA6EFF0EDA220C28DE5207D041
:104A7000DE52DE52D890DD32DD32DD32DE32E82E1B
:104A8000F7D7F90EE3C40BF5FA0EE3C40CF5020EEA
:104A90000B24D96E000E0C20DA6EFB0EE3C4DFF49B
:104AA000FC0EE124D96EFF0EE220DA6EDEC40AF5B8
:104AB000DEC40BF5DEC40CF50A50056E0B50066E15
:104AC0000C50076E086AFB0E05C5E3F4FC0E06C524
:104AD000E3F4FD0E07C5E3F4FE0E08C5E3F4F90E9A
:104AE000E3C40BF5FA0EE3C40CF5030E0B24D96EE8
:104AF000000E0C20DA6EFB0EE3501F0BDF6E050E6E
:104B00000C6EE150FB0FD96EE250DA6EFF0EDA2226
:104B10000C28DE5207D0DE52DE52D890DD32DD3274
:104B2000DD32DE32E82EF7D729D0F90EE3C40BF5DB
:104B3000FA0EE3C40CF5030E0B24D96E000E0C2004
:104B4000DA6EDF6AF90EE3C40BF5FA0EE3C40CF576
:104B5000020E0B24E96E000E0C20EA6EDFC4EFF4A7
:104B6000F90EE3C40BF5FA0EE3C40CF5010E0B24A9
:104B7000D96E000E0C20DA6EEFC4DFF4F90EE3C438
:104B8000D9F4FA0EE3C4DAF4FB0EE3C4DFF4FC0E4E
:104B9000E124D96EFF0EE220DA6EDEC40AF5DEC42F
:104BA0000BF5DEC40CF50A50056E0B50066E0C506A
:104BB000076E086AFB0E05C5E3F4FC0E06C5E3F4B8
:104BC000FD0E07C5E3F4FE0E08C5E3F4FB0EE3C4D7
:104BD0000CF5070E0C16F90EE3C409F5FA0EE3C442
:104BE0000AF5010E0924D96E000E0A20DA6E0C5067
:104BF000DF12F70EE3C40BF5F80EE3C40CF5040E58
:104C00000B24D96E000E0C20DA6EDF30E8320F0B69
:104C10000C6EFF0E0CC5E3F4F70EE3C40BF5F80EB3
:104C2000E3C40CF5040E0B24D96E000E0C20DA6ED2
:104C3000DFA003D0100E0C6E01D00C6AE150FF0F04
:104C4000D96EE250DA6EFF0EDA220C50DF12F70E48
:104C5000E3C40BF5F80EE3C40CF5040E0B24D96E77
:104C6000000E0C20DA6EDFA203D0200E0C6E01D0F5
:104C70000C6AE150FF0FD96EE250DA6EFF0EDA22B5
:104C80000C50DF12F70EE3C40BF5F80EE3C40CF57D
:104C9000040E0B24D96E000E0C20DA6EDFAE03D0AA
:104CA000400E0C6E01D00C6AE150FF0FD96EE2503D
:104CB000DA6EFF0EDA220C50DF12F70EE3C40BF5AA
:104CC000F80EE3C40CF5040E0B24D96E000E0C2074
:104CD000DA6EDFAC03D0800E0C6E01D00C6AE150AE
:104CE000FF0FD96EE250DA6EFF0EDA220C50DF129F
:104CF000F90EE3C40BF5FA0EE3C40CF5040E0B2415
:104D0000D96E000E0C20DA6EFF0EE3C4DFF4F70E4E
:104D1000E3C40BF5F80EE3C40CF5040E0B24D96EB6
:104D2000000E0C20DA6EDFB242D0F70EE3C40BF5B2
:104D3000F80EE3C40CF5040E0B24D96E000E0C2003
:104D4000DA6EDF30E8320F0B0B6E0C6A210E0B248B
:104D5000F66EFC0E0C20F76EF86A000EF8220800C2
:104D6000F550E66E000EE66EF50EE3C40BF5F60E9A
:104D7000E3C40CF5050E0B24D96E000E0C20DA6E80
:104D8000DEC40BF5DDC40CF50BC5E6F40CC5E6F48A
:104D9000F50EE350080F0B6EF60EE3C40CF5000E93
:104DA0000C220BC5E6F40CC5E6F428ECC2F0F70EB5
:104DB000E126FF0EE2221200050EE126000EE2229D
:104DC000F90EE3C40BF5FA0EE3C40CF5040E0B2444
:104DD000D96E000E0C20DA6EDF500C6EFF0E0CC583
:104DE000E3F4FF0EE3C40CF5F70EE3C409F5F80E87
:104DF000E3C40AF5040E0924D96E000E0A20DA6E07
:104E00000C460C46DF500C18C30B0C18DF6EFF0E5F
:104E1000E3A803D00C6A0C2A01D00C6AF70EE3C495
:104E200009F5F80EE3C40AF5040E0924D96E000E44
:104E30000A20DA6EDF500C18FE0B0C18DF6EFF0E26
:104E4000E3AA03D00C6A0C2A01D00C6AF70EE3C463
:104E500009F5F80EE3C40AF5040E0924D96E000E14
:104E60000A20DA6E0C46DF500C18FD0B0C18DF6EB2
:104E7000FF0EE3AC03D00C6A0C2A01D00C6AF70ECB
:104E8000E3C409F5F80EE3C40AF5040E0924D96E4B
:104E9000000E0A20DA6E0C320C32DF500C187F0B39
:104EA0000C18DF6EFF0EE3AE03D00C6A0C2A01D0A3
:104EB0000C6AF70EE3C409F5F80EE3C40AF5040E14
:104EC0000924D96E000E0A20DA6E0C3A0C460C4604
:104ED000DF500C18BF0B0C18DF6EF90EE3C40BF596
:104EE000FA0EE3C40CF5010E0B24D96E000E0C2053
:104EF000DA6EDF500C6E070E0C160CC505F5066A4F
:104F0000076A086AFB0E05C5E3F4FC0E06C5E3F468
:104F1000FD0E07C5E3F4FE0E08C5E3F4E150FB0FF8
:104F2000D96EE250DA6EFF0EDA22080ED890DE3625
:104F3000DE36DE36DD36DD52DD52E82EF7D7E150C3
:104F4000FB0FD96EE250DA6EFF0EDA22F90EE3C4DF
:104F5000E9F4FA0EE3C4EAF4EF50DE12000EDE12BA
:104F6000DE12DE12F70EE3C40BF5F80EE3C40CF507
:104F7000040E0B24D96E000E0C20DA6EDFA087D051
:104F8000E150FB0FD96EE250DA6EFF0EDA22050E09
:104F9000D890DE36DE36DE36DD36DD52DD52E82EE6
:104FA000F7D7E150FB0FD96EE250DA6EFF0EDA222E
:104FB000F90EE3C40BF5FA0EE3C40CF5030E0B2453
:104FC000E96E000E0C20EA6EEF501F0BDE12000E91
:104FD000DE12DE12DE12E150FB0FD96EE250DA6E05
:104FE000FF0EDA22080ED890DE36DE36DE36DD36EB
:104FF000DD52DD52E82EF7D7E150FB0FD96EE250BB
:10500000DA6EFF0EDA22F90EE3C40BF5FA0EE3C4F2
:105010000CF5020E0B24E96E000E0C20EA6EEF5028
:10502000DE12000EDE12DE12DE12E150FB0FD96E30
:10503000E250DA6EFF0EDA22050ED890DE36DE364A
:10504000DE36DD36DD52DD52E82EF7D7E150FB0FBC
:10505000D96EE250DA6EFF0EDA22F90EE3C40BF5D8
:10506000FA0EE3C40CF5010E0B24E96E000E0C20C1
:10507000EA6EEF500C6ED8900C32D8900C32D8906B
:105080000C301F0BDE12000EDE12DE12DE12E150BB
:10509000FB0FD96EE250DA6EFF0EDA22F70EE3C490
:1050A000E9F4F80EE3C4EAF4DEC4EEF4DEC4EEF490
:1050B000DEC4EEF4DEC4EEF4F70EE3C40BF5F80E36
:1050C000E3C40CF5040E0B24D96E000E0C20DA6E2E
:1050D000DF30E8320F0B0B6E0C6A210E0B24F66EDC
:1050E000FC0E0C20F76EF86A000EF8220800F5504E
:1050F000E66E000EE66EF70EE3C40BF5F80EE3C4A1
:105100000CF5080E0B24096E000E0C200A6E09C562
:10511000E6F40AC5E6F4C00EE66E0C0EE66E28EC68
:10512000C2F0F70EE3C40BF5F80EE3C40CF5050E60
:105130000B24D96E000E0C20DA6EC00EDE6E0C0E43
:10514000DD6EF70EE126FF0EE2221200E652FF0EA0
:10515000E36ABFAC02D0010E01D0000EFF0A0C6E54
:105160000C3A0C460C46BF500C18BF0B0C18BF6E07
:10517000010E0601CC27000ECD23CE23CF2305013F
:10518000A151070DE70EF3240B6E060EF4200C6EF2
:105190000BC5E6F40CC5E6F4010EE66E21ECCEF08C
:1051A0000150D8B486D1070EE66E000EE66E0501FA
:1051B000A151070DE70EF3240B6E060EF4200C6EC2
:1051C0000BC5E6F40CC5E6F4F50EE66E060EE66ECB
:1051D00028ECC2F00501A151070DE70EF324D96EAA
:1051E000060EF420DA6EDF500F0B020AD8B40DD091
:1051F000A151070DE70EF324D96E060EF420DA6EE6
:10520000DF500F0B030AD8A445D0400EE66E000E07
:10521000E66EA151070DEC0EF324D96E060EF420B4
:10522000DA6EDEC40BF5DDC40CF50BC5E6F40CC577
:10523000E6F4A151400D000EF3240B6E0F0EF42086
:105240000C6E0BC5E6F40CC5E6F428ECC2F00501C3
:10525000A151070DE70EF324D96E060EF420DA6E85
:10526000DF500F0B020AD8A403D0010EA16F29D181
:10527000A151070DE70EF324D96E060EF420DA6E65
:10528000DF500F0B030AD8A405D0A16B010E060155
:10529000D06F17D1A151070DE70EF324D96E060E7A
:1052A000F420DA6EDF500F0B0C0AD8A41BD0400E8E
:1052B000E66E000EE66EA151070DEC0EF324D96EDA
:1052C000060EF420DA6EDEC40BF5DDC40CF50BC55A
:1052D000E6F40CC5E6F4800EE66E0F0EE66E28ECE2
:1052E000C2F0EFD0A151070DE70EF324D96E060EE0
:1052F000F420DA6EDF500F0B0F0AD8A41BD0400E3B
:10530000E66E000EE66EA151070DEC0EF324D96E89
:10531000060EF420DA6EDEC40BF5DDC40CF50BC509
:10532000E6F40CC5E6F4C00EE66E0F0EE66E28EC51
:10533000C2F0C7D0A151070DE70EF324D96E060EB7
:10534000F420DA6EDF500F0B0D0AD8A41ED0400EE9
:10535000E66E000EE66EA151070DEC0EF324D96E39
:10536000060EF420DA6EDEC40BF5DDC40CF50BC5B9
:10537000E6F40CC5E6F4000EE66E0D0EE66E28ECC3
:10538000C2F0010E0D01416F9CD00601F5510F0BCB
:105390000A0AD8A486D0040EE66E000EE66EFAC69F
:1053A000E6F4FBC6E6F4C30EE66E050EE66E28ECE8
:1053B000C2F0050120EE3EF0C151D926C251DA22D9
:1053C000C3C5DEF4C4C5DEF4C5C5DEF4C6C5DEF46F
:1053D000C30EE66E050EE66ED1ECD8F001C59DF564
:1053E00002C59EF5C1C5E6F4C2C5E6F49DC5E6F466
:1053F0009EC5E6F47CECB4F0050120EE36F0C15118
:10540000D926C251DA22DEC49BF5DDC49CF59BC5CA
:1054100080F70701816B9CC57EF77F6B0A0EE66EF5
:10542000780EE66E070EE66E58ECC5F001C59BF5EA
:1054300002C59CF59BC584F70701856B9CC582F767
:10544000836B050120EE38F0C151D926C251DA2212
:10545000DEC49BF5DDC49CF59BC570F70701716B3D
:105460009CC56EF76F6B0A0EE66E680EE66E070E51
:10547000E66E58ECC5F001C59BF502C59CF59BC5D1
:1054800074F70701756B9CC572F7736B06012251A7
:10549000D8B417D01D51D8B414D0010E09013B6FF8
:1054A00010D0F5510F0B0E0AD8A403D0010E246FB3
:1054B00008D0FF0EE32AFF0EE3C401F5070E0164D6
:1054C00057D6E55212000A0EE126000EE222D1C69E
:1054D00009F5D2C60AF5D3C60BF5D4C60CF5F60EFF
:1054E00009C5E3F4F70E0AC5E3F4F80E0BC5E3F4BF
:1054F000F90E0CC5E3F4F20EE3C409F5F30EE3C4B0
:105500000AF5F40EE3C40BF5F50EE3C40CF5F60E44
:1055100009C5E3F4F70E0AC5E3F4F80E0BC5E3F48E
:10552000F90E0CC5E3F4810E0B6EFF0E0C6EF60E39
:10553000E3C405F5F70EE3C406F5F80EE3C407F57A
:10554000F90EE3C408F5180E05D0D89008320732DA
:1055500006320532E82EF9D705C509F506C50AF564
:1055600009500B24096E000E0C200A6EFE0E09C5B0
:10557000E3F4FF0E0AC5E3F4FF0EE3BE15D0FF0E01
:10558000E35007E1FE0EE3C401F5170E015ED8A05B
:105590000BD0F20EE3C401F5F30EE3C402F5F40EF2
:1055A000E3C403F5F50EFBD0FF0EE3BE9FD0FE0E65
:1055B000E3C40CF5FF0E056EFF0E066E7F0E076E40
:1055C000000E086E0C6601D007D00834083207328E
:1055D000063205320C2EF6D7FA0E05C5E3F4FB0EA3
:1055E00006C5E3F4FC0E07C5E3F4FD0E08C5E3F4BD
