:0400000085EF00F098
:10000800F305F305F305F305F305F305FB6DE002CE
:10001800F305F305E601F501F305F305F305F3052B
:100028000402F305F305F3052401F3053501130272
:10003800F305F305F305A600F305F305F3059300AF
:10004800F305F305F305F305C47AB801F305F305E1
:10005800F305F305F305F305F305F305F305F305D8
:10006800F305F305F305F305F305F305F305F305C8
:10007800F305F305F305F3054200F305F305F3056E
:10008800917F7A7FF305F305BF7FF305F305F30549
:10009800F305F305F305F3054200F305F305F3054E
:1000A800F305F305F305F305F305F305F305F30588
:1000B800F305F305F305007FF305F305F305F305F1
:1000C800F305F305F305F305F305F305F305F30568
:1000D800327FA87FF305F305F305F305F305F30570
:1000E8004200F305F305F305F305F305F305F305FE
:1000F800F305F305F305B900F305F305F305F30577
:10010800FF0015EE00F3BDEFD7F00101018F040EDB
:10011800E66E0FECFCF00150D8A41200000E4C6FF4
:10012800380E4D6F000E4E6F000E4F6F600E006F51
:10013800870E016F100E026F90EC07F0FFEC00F0D5
:10014800BEEC06F0DFEC0AF0FEEC06F0CBECFAF0C1
:10015800000EE66E0FECFCF012000A0EE66E000EC2
:10016800E66EFC0EE3C4E6F4E3C4E6F413ECF4F044
:1001780001C5E6F402C5E6F4D9EC05F001C557F669
:1001880002C558F60A0EE66E000EE66EFC0EE3C4D3
:10019800E6F4E3C4E6F457ECEEF001C55DF602C5FB
:1001A8005EF6E552E552120065ECFDF0FAEC0AF055
:1001B8000DECFBF03FECEFF031EC0BF0A8EC06F0A7
:1001C8008AECFCF038EC06F092EC06F07CEC07F0D8
:1001D8007CEC06F0E9EC06F004EC02F0C5ECFEF06D
:1001E800A3ECF8F0BDECF9F0EDEC0AF089EC00F0C6
:1001F80065EC0BF01200110E0101506F040E516FE7
:10020800620E526FE30E536F900E686F040E696FA3
:10021800620E6A6FE30E6B6F900E746F040E756F4B
:10022800620E766FE30E776FF20EE66E170EE66ECD
:10023800000EE66E89EC09F001011E81B29AA28ACD
:020248001200A2
:10024C00D8C4F3FCFAC4F4FCFBC4F5FC0CC5F6FCF6
:10025C001BEE56F0B19E0701C251C311C411D8B4A4
:10026C000CD001D80AD00500FA6EC251FD6EC351F4
:10027C00FE6EC451FF6EFA501200F6CC0CF5F5CCA4
:10028C00FBF4F4CCFAF4F3CCD8F41100D8C4EEFDA2
:10029C00FAC4EFFDFBC4F0FD0CC5F1FD1BEE56F0EE
:1002AC00B1960701B051B111B211D8B40CD001D82C
:1002BC000AD00500FA6EB051FD6EB151FE6EB2510E
:1002CC00FF6EFA501200F1CD0CF5F0CDFBF4EFCD32
:1002DC00FAF4EECDD8F41100D8C4F2FDFAC4F3FD53
:1002EC00FBC4F4FD0CC5F5FD1BEE56F0BD960701E5
:1002FC00A151A211A311D8B40CD001D80AD0050079
:10030C00FA6EA151FD6EA251FE6EA351FF6EFA5012
:10031C001200F5CD0CF5F4CDFBF4F3CDFAF4F2CDDF
:10032C00D8F411002C50D8A41ED0FD0EE3C40CF54B
:10033C00D8900C340B6E0C6A0C360BC5E6F40CC55D
:10034C00E6F4FC0EE3C4E6F4E3C4E6F4820EE66ED7
:10035C000A0EE66E7FECECF02B6AFD0EE3C42CF576
:10036C00010E0501806FE552E552E5521200E6528E
:10037C003150D8B4FDD7000E3224D96EDA6A0A0E89
:10038C00DA22DF500601726F400E3224D96EDA6A1F
:10039C000D0EDA22DF500C6EFF0E0CC5E3F4322A80
:1003AC003F0E326401D0326AA6903106A680FF0E51
:1003BC00E3C401F5E5521200FA0EE3C4E6F4E3C41B
:1003CC00E6F4FA0EE3C4E6F4E3C4E6F4FA0EE3C48E
:1003DC00E6F4E3C4E6F47FECECF0FA0EE3C4E6F4E6
:1003EC00E3C4E6F4FC0EE3C4E6F4E3C4E6F41CEC6C
:1003FC00F0F0FA0EE126FF0EE22212000301376B39
:10040C00386B040E396FC00E356F346BB69834519F
:10041C0035C301F5026A01C502F5016A0110060136
:10042C00636F0250646FA688EA0EE66EB70EE66E36
:10043C00010EE66EDFEC08F0010E0301366F1200C0
:10044C00BFAC02D0010E01D0000EFF0A0C6E0C3AAC
:10045C000C460C46BF500C18BF0B0C18BF6EBFA43B
:10046C0002D0010E01D0000EFF0A0C6E0C460C4699
:10047C00BF500C18FB0B0C18BF6EBF92010E050180
:10048C00636F1200FAC4EDFAFBC4EEFA0CC5EFFA76
:10049C0018EEACF1B0980701AA51AB11AC11D8B45D
:1004AC000CD001D80AD00500FA6EAA51FD6EAB51E2
:1004BC00FE6EAC51FF6EFA501200EFCA0CF5EECA8C
:1004CC00FBF4EDCAFAF41100FAC4EBFBFBC4ECFB31
:1004DC000CC5EDFB18EEACF1B09C0701A451A511B5
:1004EC00A611D8B40CD001D80AD00500FA6EA451CC
:1004FC00FD6EA551FE6EA651FF6EFA501200EDCBAB
:10050C000CF5ECCBFBF4EBCBFAF41100BFAC02D046
:10051C00010E01D0000EFF0A0C6E0C3A0C460C4674
:10052C00BF500C18BF0B0C18BF6E010E0601F16FFB
:10053C00EDC265F6000EDD25D96EDA6A0C0EDA22F4
:10054C0065C6DFF4DD2BEF0EDD651200DD6B1200EE
:10055C003BEC0BF00150D8B419D0050171510B6E66
:10056C0072510C6E714B722B190E0B5C790E0C5870
:10057C00D8A00CD0080EE66EFD0EE3C4E6F4E3C47E
:10058C00E6F498EC01F00501716B726BE552E552E3
:10059C001200800EE66E000EE66E030EE66E0C0E7A
:1005AC00E66E240EE66E090EE66E7FECECF09CC94E
:1005BC00E6F49DC9E6F49EC9E6F49FC9E6F45CEC4A
:1005CC00F1F001C59CF902C59DF903C59EF904C55E
:1005DC009FF912002950D8B412004D50D8A404D061
:1005EC00296A040E4D6E1200296A4D064D50150DE8
:1005FC00000EF3240B6E0B0EF4200C6E0BC5E6F400
:10060C000CC5E6F4000EE66E4D50E66ECFECF4F041
:10061C00010E296E1200FC0EE3500AE1FD0EE350B0
:10062C0007E1FE0EE35004E1FF0EE350D8B402D014
:10063C00FF0EE37EFC0EE3C401F5FD0EE3C402F5F0
:10064C00FE0EE3C403F5FF0EE3C404F5E552E552D8
:10065C00E552E5521200E652FF0E2AC5E3F4FF0EF6
:10066C00E3C40CF5D8900C340B6E0C6A0C360BC52D
:10067C00E6F40CC5E6F4400EE66E0A0EE66EF90ED4
:10068C00E3C4E6F4E3C4E6F47FECECF02A6AE5524A
:10069C00E552E5521200030136A50ED03691FF0E3D
:1006AC00E124D96EFF0EE220DA6EDF50356FFE0EBC
:1006BC00E3C434F336810BD0FF0EE124D96EFF0E68
:1006CC00E220DA6EDF50356FFE0EE3C434F3E552F0
:1006DC00E5521200FAC4D4F5FBC4D5F50CC5D6F519
:1006EC0018EEACF1010154A10DD001D80BD00500CE
:1006FC00FA6E06014C51FD6E4D51FE6E4E51FF6E61
:10070C00FA501200D6C50CF5D5C5FBF4D4C5FAF4D5
:10071C00110005018351D8B418D0836B7D6B7E6BAF
:10072C00FF0EE350D8B409D0530EE66E06EC0BF076
:10073C00010EE66E12ECF8F008D0530EE66E06ECE5
:10074C000BF0080EE66E12ECF8F0E5521200E652D1
:10075C00FF0EE36AFE0EE3C401F5040E01600FD038
:10076C00FE0EE3500C0D500EF324D96E010EF42046
:10077C00DA6E0101DFAE03D0FF0EE36AE32AFF0E4F
:0A078C00E3C401F5E552E552120046
:10079800FAC4DDF5FBC4DEF518EEACF1AF94070141
:1007A800B951BA11BB11D8B40CD001D80AD0050080
:1007B800FA6EB951FD6EBA51FE6EBB51FF6EFA501A
:1007C8001200DEC5FBF4DDC5FAF41100FAC4FEF729
:1007D800FBC4FFF718EEACF1AF960701B351B411A3
:1007E800B511D8B40CD001D80AD00500FA6EB351AF
:1007F800FD6EB451FE6EB551FF6EFA501200FFC780
:10080800FBF4FEC7FAF41100FAC4E4FAFBC4E5FAF3
:1008180018EEACF1B0900701B651B711B811D8B4C1
:100828000CD001D80AD00500FA6EB651FD6EB7514A
:10083800FE6EB851FF6EFA501200E5CAFBF4E4CA26
:10084800FAF41100FAC4F0FAFBC4F1FA18EEACF1AC
:10085800B09E0701A751A811A911D8B40CD001D88E
:100868000AD00500FA6EA751FD6EA851FE6EA95177
:10087800FF6EFA501200F1CAFBF4F0CAFAF4110044
:10088800BFAC02D0010E01D0000EFF0A0C6E0C3A6C
:100898000C460C46BF500C18BF0B0C18BF6E010E4F
:1008A80006010027000E012302230323010E04275B
:1008B800000E0523062307231200BFAC02D0010E49
:1008C80001D0000EFF0A0C6E0C3A0C460C46BF50C5
:1008D8000C18BF0B0C18BF6EBFA202D0010E01D0BE
:1008E800000EFF0A0C6E0C46BF500C18FD0B0C18BE
:1008F800BF6E12003450D8B4FDD7A6B204D0FF0E94
:10090800E3C4B6F210D0A692800E3624D96EDA6A05
:100918000D0EDA22FF0EE3C4DFF4362A3F0E3664EA
:1009280001D0366A3406A682E5521200FD0EE3C4F1
:100938000BF5FE0EE3C40CF5D8900B34096E0C349D
:100948000A6EFF0EE350020D000EF324D96E070E57
:10095800F420DA6E09C5DEF40AC5DDF4E552E55285
:10096800E55212002E50D8B4FDD7ABB204D0FF0E1A
:10097800E3C4EFF210D0AB92000E3024D96EDA6ADD
:100988000D0EDA22FF0EE3C4DFF4302A3F0E306486
:1009980001D0306A2E06AB82E55212000DD0CEA4EB
:1009A80009D005D0CEA206D002D0CEAA03D0016AC3
:1009B800012A0ED0016A0CD0FF0EE350000AD8B409
:1009C800F4D7010AD8B4EBD7030AD8B4EBD7EDD7DC
:1009D800E5521200030E06015F196011D8B409D060
:1009E80005017F6B000E4C6E050E4B6E06016D6B9C
:1009F800120005016251D8A404D00A0E06016D6FD9
:100A08001200010E06016D6F120006016C51020DF5
:100A1800A60EF324D96E050EF420DA6E3DC7DEF477
:100A28003EC7DDF46C2B08015151D8A404D00A0E3E
:100A380006016D6F1200516B070E06016D6F1200F3
:100A4800FB0EE37EF80EE3C4E6F4E3C4E6F4E3C485
:100A5800E6F4E3C4E6F4F80EE3C4E6F4E3C4E6F42B
:100A6800E3C4E6F4E3C4E6F4EDECB6F0F80EE126F0
:100A7800FF0EE2221200100EE66E000EE66E030E66
:100A8800E66E0C0EE66E8E0EE66E070EE66E7FECD8
:100A9800ECF007019B6B9CC7E6F49DC7E6F431ECCC
:100AA800FDF001C59CF702C59DF71200FE0EE3C4D8
:100AB800E3F6FF0EE3C4E4F6FC0EE3C4E1F6FD0E34
:100AC800E3C4E2F6010E0601E527000EE623E7235C
:100AD800E823DF4BE02BE552E552E552E5521200E0
:100AE80007013B510C6E0B6A3D510B240601596FEF
:100AF80007013E510C2006015A6F05017F51D8B4F9
:100B080004D0090E06016D6F12000B0E06016D6F01
:100B18001200020EE66E000EE66E030EE66E0C0E76
:100B2800E66E370EE66E050EE66E7FECECF037C526
:100B3800E6F438C5E6F431ECFDF001C537F502C539
:100B480038F51200E652FF0EE36AFE0EE350E66E39
:100B5800ADEC03F00150D8B408D0FE0EE350E66EB9
:100B6800A4EC0AF0FF0E01C5E3F4FF0EE3C401F59F
:060B7800E552E5521200F7
:100B8000D8C4F0FCFAC4F1FCFBC4F2FC1BEE56F036
:100B9000040107B33DEC07F007B528EC07F007BBED
:100BA00013EC07F0F2CCFBF4F1CCFAF4F0CCD8F46F
:100BB0001100FF0EE3BE07D0FE0EE3C401F5FF0EE9
:100BC000E3C402F50BD0FE0EE3C401F5011EFF0ED7
:100BD000E3C402F5021E012AD8B4022AE552E55206
:100BE0001200FF0EE350D8B409D01CC601F51DC693
:100BF00002F51EC603F51FC604F509D000C61CF693
:100C000001C61DF602C61EF603C61FF6EED7E55254
:100C10001200FF0EE350D8B409D020C601F521C65A
:100C200002F522C603F523C604F509D004C620F652
:100C300005C621F606C622F607C623F6EED7E5520C
:100C4000120001000000010000000100000001008E
:100C50000000010000000000000000000000000093
:100C60000000000000000000000000000000000084
:100C7000020E0301326F200E316F336B7C0E2F6F2B
:100C80002E6BB996A986FE0EE66E170EE66E000E66
:100C9000E66EF0EC08F0C90E0301306F1200BFAC35
:100CA00002D0010E01D0000EFF0A0C6E0C3A0C4669
:100CB0000C46BF500C18BF0B0C18BF6E010E06017E
:100CC0000827000E09230A230B231200380E000107
:100CD000456FFF0EE124D96EFF0EE220DA6EDF5081
:100CE000446FFE0EE3C443F0F80E4117408146C046
:100CF00001F5E552E5521200040E03013E6F3D6B13
:100D00003F6B3D0E3B6F3A6BBD96AD86FE0EE66EB9
:100D1000FB0EE66E010EE66ECEEC08F0800E0301CF
:100D20003C6F1200040E0301266F200E256F276B07
:100D3000960E236F226BB196A186C60EE66EFC0E50
:100D4000E66E010EE66E01EC09F003012469120063
:100D5000060E0001D56FD76B3A0ED86F160ED96FFD
:100D6000170EDA6F180EDB6FA80EDC6FDD6BDE6B13
:100D7000020EDF6FD46B810ED66F1200090E0101D7
:100D80005C6F040E5D6F600E5E6FE30E5F6FE60ECC
:100D9000E66E170EE66E000EE66E9AEC09F00101A3
:100DA0001E83B298A28812009E0EE66E0C0EE66EAE
:100DB000000EE66EDFEC08F0CEEC0BF0880EE66E6F
:100DC000080EE66E000EE66ECEEC08F0C8EC0BF0F6
:100DD0001200070E0001D56FD76B3B0ED86F3C0E8B
:100DE000D96F3F0EDA6F400EDB6F550EDC6FDD6B97
:100DF000DE6BDF6BD46B810ED66F1200E652FF0EF6
:100E0000E36AFF0EE350020D610EF324D96E050E66
:100E1000F420DA6EDF6AFF0EE32AFF0EE350D8B447
:100E2000F0D7E55212000701C551C611C711D8B459
:100E30000CD001D80AD00500FA6EC551FD6EC6511E
:100E4000FE6EC751FF6EFA5012000401079B12009C
:100E50000701C851C911CA11D8B40CD001D80AD0A1
:100E60000500FA6EC851FD6EC951FE6ECA51FF6E83
:100E7000FA5012000401079512000701CB51CC1162
:100E8000CD11D8B40CD001D80AD00500FA6ECB51E0
:100E9000FD6ECC51FE6ECD51FF6EFA501200040172
:100EA00007931200400E346010D0800E3524D96EA6
:100EB000DA6A0D0EDA22DF500201B66F352A3F0ED4
:100EC000356401D0356A342A1200A6921200400E11
:100ED0002E6010D0000E2F24D96EDA6A0D0EDA22A1
:100EE000DF500201EF6F2F2A3F0E2F6401D02F6ACF
:100EF0002E2A1200AB9212004F0E03011B6F980EA8
:100F0000196F186BB19EA18E420EE66EFE0EE66E54
:100F1000010EE66E12EC09F0810E03011A6F120049
:100F2000090E0101046F090E056F1C0E066F076B99
:100F3000010E086F010E096F040E0A6F0B6B050E90
:100F40000D6F020E0E6F1200FE0EE3C4E6F4E3C452
:100F5000E6F4000EE66E9AEC04F0000EE66EB7ECD6
:100F600007F00150D8B4F9D7E552E5521200FF0E50
:100F7000E350020D000EF324D96E070EF420DA6E52
:100F8000DE50DE10D8A402D0010E01D0000E016E9A
:100F9000E5521200100000000000000000000000F8
:100FA00000000000000000000000000008400A826D
:100FB0000AAC05017E62FB6403000000000103002F
:100FC00040000500000000000000000000010300D8
:100FD00040000400000000000000000007013B5139
:100FE0000C6E0B6A3D510B263E510C220BC5E6F4EC
:100FF0000CC5E6F4B1EC00F0050E06016D6F1200B1
:1010000007013B510C6E0B6A3D510B263E510C22E1
:101010000BC5E6F40CC5E6F4B1EC00F0040E0601D5
:101020006D6F1200BFAC02D0010E01D0000EFF0A9E
:101030000C6E0C3A0C460C46BF500C18BF0B0C182B
:10104000BF6E01011E911200E150FD0FD96EE250FA
:10105000DA6EFF0EDA22DEC4CEF7DEC4CFF7DDC4CF
:10106000D0F7E552E552E5521200E150FD0FD96E7E
:10107000E250DA6EFF0EDA22DEC4D1F7DEC4D2F718
:10108000DDC4D3F7E552E552E5521200E150FD0F01
:10109000D96EE250DA6EFF0EDA22DEC4F7F8DEC453
:1010A000F8F8DDC4F9F8E552E552E5521200E150D6
:1010B000FD0FD96EE250DA6EFF0EDA22DEC4FAF8C6
:1010C000DEC4FBF8DDC4FCF8E552E552E55212003F
:1010D000E150FD0FD96EE250DA6EFF0EDA22DEC467
:1010E000F4F8DEC4F5F8DDC4F6F8E552E552E55251
:1010F0001200E150FD0FD96EE250DA6EFF0EDA22D7
:10110000DEC4D4F7DEC4D5F7DDC4D6F7E552E55228
:10111000E5521200E150FD0FD96EE250DA6EFF0E7B
:10112000DA22DEC4D7F7DEC4D8F7DDC4D9F7E5523A
:10113000E552E5521200E150FD0FD96EE250DA6E31
:10114000FF0EDA22DEC4BCF7DEC4BDF7DDC4BEF795
:10115000E552E552E5521200E150FD0FD96EE25022
:10116000DA6EFF0EDA22DEC4BFF7DEC4C0F7DDC4DC
:10117000C1F7E552E552E5521200E150FD0FD96E7C
:10118000E250DA6EFF0EDA22DEC4FDF8DEC4FEF8AD
:10119000DDC4FFF8E552E552E5521200E150FD0FC3
:1011A000D96EE250DA6EFF0EDA22DEC4A1F7DEC499
:1011B000A2F7DDC4A3F7E552E552E5521200E15073
:1011C000FD0FD96EE250DA6EFF0EDA22DEC49EF712
:1011D000DEC49FF7DDC4A0F7E552E552E5521200E8
:1011E000E150FD0FD96EE250DA6EFF0EDA22DEC456
:1011F000ADF7DEC4AEF7DDC4AFF7E552E552E55218
:101200001200E150FD0FD96EE250DA6EFF0EDA22C5
:10121000DEC4B0F7DEC4B1F7DDC4B2F7E552E55283
:10122000E5521200E150FD0FD96EE250DA6EFF0E6A
:10123000DA22DEC4C2F7DEC4C3F7DDC4C4F7E55268
:10124000E552E5521200E150FD0FD96EE250DA6E20
:10125000FF0EDA22DEC4C5F7DEC4C6F7DDC4C7F769
:10126000E552E552E5521200E150FD0FD96EE25011
:10127000DA6EFF0EDA22DEC4C8F7DEC4C9F7DDC4B9
:10128000CAF7E552E552E5521200E150FD0FD96E62
:10129000E250DA6EFF0EDA22DEC4CBF7DEC4CCF702
:1012A000DDC4CDF7E552E552E5521200E150FD0FE5
:1012B000D96EE250DA6EFF0EDA22DEC4AAF7DEC47F
:1012C000ABF7DDC4ACF7E552E552E5521200E15050
:1012D000FD0FD96EE250DA6EFF0EDA22DEC4A4F7FB
:1012E000DEC4A5F7DDC4A6F7E552E552E5521200CB
:1012F000E150FD0FD96EE250DA6EFF0EDA22DEC445
:10130000A7F7DEC4A8F7DDC4A9F7E552E552E55218
:101310001200E150FD0FD96EE250DA6EFF0EDA22B4
:10132000DEC44CF6DEC44DF6DDC44EF6E552E552A1
:10133000E5521200E150FD0FD96EE250DA6EFF0E59
:10134000DA22DEC449F6DEC44AF6DDC44BF6E552C5
:10135000E552E5521200E150FD0FD96EE250DA6E0F
:10136000FF0EDA22DEC437F6DEC438F6DDC439F605
:10137000E552E552E5521200E150FD0FD96EE25000
:10138000DA6EFF0EDA22DEC43AF6DEC43BF6DDC4C6
:101390003CF6E552E552E5521200E150FD0FD96EE0
:1013A000E250DA6EFF0EDA22DEC434F6DEC435F621
:1013B000DDC436F6E552E552E5521200E150FD0F6C
:1013C000D96EE250DA6EFF0EDA22DEC43DF6DEC4DC
:1013D0003EF6DDC43FF6E552E552E5521200E1501B
:1013E000FD0FD96EE250DA6EFF0EDA22DEC446F649
:1013F000DEC447F6DDC448F6E552E552E552120078
:10140000E150FD0FD96EE250DA6EFF0EDA22DEC433
:1014100043F6DEC444F6DDC445F6E552E552E55236
:101420001200E150FD0FD96EE250DA6EFF0EDA22A3
:10143000DEC440F6DEC441F6DDC442F6E552E552B4
:10144000E5521200E150FD0FD96EE250DA6EFF0E48
:10145000DA22DEC4B6F7DEC4B7F7DDC4B8F7E5526A
:10146000E552E5521200E150FD0FD96EE250DA6EFE
:10147000FF0EDA22DEC4B3F7DEC4B4F7DDC4B5F77D
:10148000E552E552E5521200E150FD0FD96EE250EF
:10149000DA6EFF0EDA22DEC4B9F7DEC4BAF7DDC4B5
:1014A000BBF7E552E552E5521200FF0EE3500C0D7A
:1014B000530EF324D96E010EF420DA6EDF50016E64
:1014C0001F0E0116010E0126E5521200550E0001F5
:1014D000B46FAA0EB46FB491FF0EE3C4B6F0550E0C
:1014E000B46FAA0EB46FB481E5521200810E2D24A0
:1014F000D96EDA6A080EDA22EDC2DFF42D2A070E61
:101500002D6401D02D6A06016F2B1200D0B40BD0D0
:10151000C084FF0EE350D8B406D0020EE66E000E73
:10152000E66E27EC0BF0E5521200D0A40BD0FF0EB4
:10153000E350D8B406D0020EE66E000EE66E27EC3D
:101540000BF0C094E5521200FF0EE3500C0D540E48
:10155000F324D96E010EF420DA6EDF50016E010E15
:101560000116E5521200FF0EE3500C0D540EF32449
:10157000D96E010EF420DA6EDF50016E090E0116ED
:10158000E5521200400E3324D96EDA6A0D0EDA22CB
:10159000B4C2DFF4332A3F0E336401D0336A312AF8
:1015A0001200E80EE66E090EE66EFC0EE3C4E6F4E9
:1015B000E3C4E6F4E3ECF5F0E552E5521200010174
:1015C0009469956996695F0E976F986999699A69A8
:1015D0005F0E9B6F810E816F1200830E0001846F7E
:1015E000200E856F030E866F010E8C6FA50E896F1E
:1015F000C89612000001606B616B626B636B646B79
:10160000656B650E666F676B686B1200FE0EE66EAB
:1016100012ECF8F0FF0EE350E66E12ECF8F0E55233
:1016200012000001E86BFE0EE3C4F7F0FF0EE3C406
:10163000F8F0E552E55212000001E86BFE0EE3C43B
:10164000EEF0FF0EE3C4EFF0E552E5521200FE0E9D
:10165000E3C4E6F4E3C4E6F4A4EC07F0E552E55293
:101660001200200E0001AD6FAF6B110EB36F050EAF
:10167000B16FB06B12002C50D8A403D0010E016ED4
:101680001200000E016E12002A50D8A403D0000EE2
:10169000016E1200010E016E1200E652FF0E2AC505
:1016A000E3F4FF0EE3C401F5E55212003150D8B463
:1016B00003D0016A012A1200016A1200FF0EE350F2
:1016C000E66E7EEC04F0E5521200550E0001B46F98
:1016D000AA0EB46FB4811200010E05016B6F0601F2
:1016E000166B176B1200010E05016C6F0601186B6B
:1016F000196B1200010E05016D6F06011A6B1B6B51
:101700001200B2A2FED7FF0EE3C4A3F2E55212000C
:101710000601006B016B026B036B12000601046B88
:10172000056B066B076B12000601086B096B0A6BF1
:101730000B6B120001010239E832070B016E120037
:101740000001E86BFC9DFC9B12000A0E06016D6F08
:101750001200080E06016D6F1200030E06016D6F78
:101760001200C290C292C29412000001E86BFC8D7C
:101770001200E552E552E5521200E552E552E552FB
:101780001200E552E552E5521200000E016E120001
:10179000CBEC0BF0120003013C8F120003013681E9
:1017A000120006010C871200B5EC0BF01200DAEC07
:1017B0000BF012000301308F1200E0EC0BF012006E
:1017C0000301248F120003011A8F120018EEACF1EE
:1017D0001100C2EC0AF0120076EC0AF012000500CB
:0117E0000404
:1017E2001200120012001200120012001200120067
:1017F2001200120012001200120012001200120057
:0418020012001200BE
:10F710000000C0C101C30302C2C60607C705C5C4B5
:10F7200004CC0C0DCD0FCFCE0E0ACACB0BC90908E5
:10F73000C8D81819D91BDBDA1A1EDEDF1FDD1D1C25
:10F74000DC14D4D515D71716D6D21213D311D1D0B5
:10F7500010F03031F133F3F23236F6F737F5353455
:10F76000F43CFCFD3DFF3F3EFEFA3A3BFB39F9F825
:10F770003828E8E929EB2B2AEAEE2E2FEF2DEDECC5
:10F780002CE42425E527E7E62622E2E323E12120F5
:10F79000E0A06061A163A3A26266A6A767A56564F5
:10F7A000A46CACAD6DAF6F6EAEAA6A6BAB69A9A865
:10F7B0006878B8B979BB7B7ABABE7E7FBF7DBDBCA5
:10F7C0007CB47475B577B7B67672B2B373B1717035
:10F7D000B050909151935352929656579755959495
:10F7E000549C5C5D9D5F9F9E5E5A9A9B5B995958A5
:10F7F00098884849894B8B8A4A4E8E8F4F8D4D4C45
:10F800008C44848545874746868242438341818074
:10F810004000C1814001C0804101C0804100C181E0
:10F820004001C0804100C1814000C1814001C080D1
:10F830004101C0804100C1814000C1814001C080C0
:10F840004100C1814001C0804101C0804100C181AF
:10F850004001C0804100C1814000C1814001C080A1
:10F860004100C1814001C0804101C0804100C1818F
:10F870004000C1814001C0804101C0804100C18180
:10F880004001C0804100C1814000C1814001C08071
:10F890004101C0804100C1814000C1814001C08060
:10F8A0004100C1814001C0804101C0804100C1814F
:10F8B0004000C1814001C0804101C0804100C18140
:10F8C0004001C0804100C1814000C1814001C08031
:10F8D0004100C1814001C0804101C0804100C1811F
:10F8E0004001C0804100C1814000C1814001C08011
:10F8F0004101C0804100C1814000C1814001C08000
:10F900004100C1814001C0804101C0804100C181EE
:10F9100040204E000000000000C05D000005000017
:10F9200000A86100000E000000006400001100004B
:10F9300000C864000014000000906500001E000074
:10F940000058660000280000002067000046000004
:10F9500000E86700005A000000B068000063000083
:10F9600000406A00006400000010720000640000A3
:10F9700000536C656570696E6700000000466C6F2F
:10F980006174696E670000000042756C6B000000D6
:10F9900000000000004162736F726200000000000E
:10F9A00000457175616C697A6500000000204C614A
:10F9B000737400000000000000204F66666C696EE2
:10F9C00065000000004D4F444255532020000000C8
:10F9D00000204F66666C696E650000000043414E72
:10F9E00042555320200000000000010203040506D8
:10F9F00007080C1014182030401F1E1F1E1F1F1E4A
:10FA00001F1E1F1F1D00000150017C7C2F2F2D2D5C
:10FA100000000000000000000000000000007C7CEE
:10FA20002F2F2D2D5C5C0000000000000000000066
:10FA300000004F4F4F4F4F4F2D2D5F5F2D000000A7
:10FA400000000000000076763C3C5E5E3E3E00001A
:10FA5000000000000000000000002E2E2A2A78235B
:10FA6000782358587C7C2D2D0000000000002E2E9D
:10FA70006F6F4F4F6F6F000000000000000000002C
:10FA800000005E2C25642E253031642C25642E2543
:10FA90003031642C25642C25642E253031642C25CE
:10FAA000642C252E31662C252E31662C252E3266AF
:10FAB0002C252E32662C25642C252E31662C252EE5
:10FAC00031662C252E31662C25342E31662C252EC0
:10FAD00032662C25752C25352E33662C25352E3394
:10FAE000662C25752C25732C7E0D0A000001020062
:10FAF00000000400000000000000060000010200F9
:10FB000000000300000000000000050000010200EA
:10FB100000000200000000000000040000010200DC
:10FB200000000000000000000000020000010200D0
:10FB300001006A000000000000006D0000010200EA
:10FB40000100C700000000000000CA000001020020
:10FB5000000008000000000000000A000001020090
:10FB60000100C600000000000000C9000001040000
:10FB7000000001000000000000000500000102007C
:10FB80000100C800000000000000CB0000010200DE
:10FB900000000000000000000000020056322E307D
:10FBA0003120464D3830205138340001061604000B
:10FBB00001010610000000010610020002010350BE
:10FBC00000000801030500004001030000003401AB
:10FBD00003030200010103000B00010D0A0D0A25B9
:10FBE0003564202533782025337820253378202567
:10FBF000337820253378202020494E49543A204636
:10FC00004D3830204F6E6C696E650D0A004A616E8A
:10FC10004665624D61724170724D61794A756E4AF6
:10FC2000756C4175675365704F63744E6F764465AC
:10FC300063005077722025352E32666B57706B202B
:10FC400025352E32666B576820202020202020206A
:10FC500020202020202000436867204625696D6908
:10FC60006E204125696D696E2020202020202020F3
:10FC7000202020202020202000464D3830204657CC
:10FC80002025582E25582E255820202020202020A1
:10FC90002020202020202020200025642E25303107
:10FCA0006420416D70732025642E25303164205608
:10FCB0006F6C74732020200025342E316656202569
:10FCC000342E316656203A4461792025692020205F
:10FCD0002020202000305825582558255825582503
:10FCE0005825582558255820202020202020202025
:10FCF000004D49534320427574746F6E20507265F5
:10FD00007373656420202020202020200025695660
:10FD1000706B2025342E316641706B202569416857
:10FD2000202020202020200025342E3266487220FA
:10FD300025342E32664257202020202020202020EB
:10FD40002020004C6F6720427574746F6E205072D3
:10FD50006573736564202020202020202000454DFD
:10FD60006F6E202025342E316656414320202025F9
:10FD7000632563202020200025642057617474735C
:10FD80002025642E2530316420566F6C747320203A
:10FD90002000414C542032202020202020202020F0
:10FDA0002020202020202020202000414C542033DF
:10FDB0002020202020202020202020202020202043
:10FDC0002020200025342E3266486F757273202063
:10FDD0002020202020202020202020200025342E1C
:10FDE000326642452025342E32664C572020202092
:10FDF000202020202000454D6F6E202025362E31FA
:10FE000066576820202025632563202020200025B8
:10FE1000362E3166572025362E3166564120256311
:10FE200025632563202020003058255820202020DD
:10FE300020202020202020202020202020202000E2
:10FE40002573202575202020202020202020202000
:10FE500020202020202020004261747465727920C7
:10FE600064617461206C6F616465642020200053BC
:10FE7000756E4D6F6E54756557656454687546723E
:10FE80006953617400534E3A20257320257520462E
:10FE9000573A20305825582C255800416C74204280
:10FEA0007574746F6E20DFF4202020202020200045
:10FEB000537461727420557020202020202020204F
:10FEC0002020202000464D3830204F6E6C696E6532
:10FED00020202020202020202000506F6C6C696E94
:10FEE0006720464D38302020202020202020004E42
:10FEF0004420252E316657682041432020202020B1
:10FF000020202000444E20252E3166576820414392
:10FF10002020202020202020004E4420252E316645
:10FF20005768205056202020202020202000444EBA
:10FF300020252E3166576820505620202020202072
:10FF4000202000464D3830204F66666C696E652073
:10FF50002020202020202000206572726F72206CEB
:10FF60006F67676564200D0A00257320423A2558A3
:10FF70002025582025582020200025342E31662C9D
:10FF800025342E31662C25692C00232C25352E3264
:10FF9000662C25352E32662C0025692C25342E3111
:10FFA000662C25692C004E6F762031362032303297
:10FFB00034002044617461204F4B0D0A0031313A06
:10FFC00035363A353900286E756C6C290025692C58
:10FFD00025692C0025735E0D0A0025732020200062
:10FFE000256420257300494E46004E414E00696E3F
:0FFFF00066006E616E00474D54002573200000BF
:020000040001F9
:10000000330EE126000EE222FB0EE36AC70EE3C4C4
:1000100009F5C80EE3C40AF5C90EE3C40BF5CA0E10
:10002000E3C40CF5D90E09C5E3F4DA0E0AC5E3F40E
:10003000DB0E0BC5E3F4DC0E0CC5E3F4DC0EE3AE23
:100040001AD0FB0EE36AE32AD90EE3C4E6F4E3C454
:10005000E6F4E3C4E6F4E3C4E6F411EC03F0D90EED
:1000600001C5E3F4DA0E02C5E3F4DB0E03C5E3F4E5
:10007000DC0E04C5E3F4E90EE36AEA0EE36AEF0E70
:1000800021C5E3F4F00E22C5E3F4FB0EE350D8A43F
:1000900002D027A417D0FB0EE350D8A402D02B0E19
:1000A00001D02D0E0B6E000E0C6ED10E0BC5E3F4BD
:1000B000D20E0CC5E3F4D10EE3C401F5FB0E01C56D
:1000C000E3F405D027A603D0FB0EE36AE38AD90E3A
:1000D000E3C4E6F4E3C4E6F4E3C4E6F4E3C4E6F41C
:1000E00071ECE0F001040210D8A46AD0FB0EE350DA
:1000F000D8B417D0FB0EE3C489F8E150EF0FD96EE6
:10010000E250DA6EFF0EDA22DE06000EDD5A010E34
:100110000B6E000E0C6EE90E0BC5E3F4EA0E0CC577
:10012000E3F4BF0E0C6EC60EE3500C240B6E1A0ED9
:100130000B6015D0E60EE66EFF0EE66E890E0B6EB6
:10014000080E0C6EE70EE3500B26E80EE3500C226F
:100150000BC5E6F40CC5E6F44FECFBF014D0EE0E44
:10016000E66EFF0EE66E890E0B6E080E0C6EE70E45
:10017000E3500B26E80EE3500C220BC5E6F40CC549
:10018000E6F44FECFBF0E150EF0FD96EE250DA6E7F
:10019000FF0EDA22FD0EDE26FF0EDD22EF0EE3C497
:1001A000E6F4E3C4E6F4890EE66E080EE66EC70ECA
:1001B000E3C4E6F4E3C4E6F4F3ECF0F02CEF89F0EA
:1001C000D90EE3C4E6F4E3C4E6F4E3C4E6F4E3C41E
:1001D000E6F471ECE0F001500210D8A44ED0FB0E12
:1001E000E350D8B417D0FB0EE3C489F8E150EF0F09
:1001F000D96EE250DA6EFF0EDA22DE06000EDD5A0C
:10020000010E0B6E000E0C6EE90E0BC5E3F4EA0E48
:100210000CC5E3F4BF0E0C6EC60EE3500C240B6E3F
:100220001A0E0B6015D0EA0EE66EFF0EE66E890E12
:100230000B6E080E0C6EE70EE3500B26E80EE35033
:100240000C220BC5E6F40CC5E6F44FECFBF09BD793
:10025000F20EE66EFF0EE66E890E0B6E080E0C6E49
:10026000E70EE3500B26E80EE3500C220BC5E6F434
:100270000CC5E6F44FECFBF086D7000E096E000EBD
:100280000A6E800E0B6E3F0E0C6ED50E09C5E3F4A0
:10029000D60E0AC5E3F4D70E0BC5E3F4D80E0CC591
:1002A000E3F4ED0EE36AEE0EE36A000EE66E000E76
:1002B000E66E000EE66E000EE66ED50EE3C4E6F4C2
:1002C000E3C4E6F4E3C4E6F4E3C4E6F4F1ECF2F0EC
:1002D00001A028D038D1E50EE3C409F5E60EE3C449
:1002E0000AF5E70EE3C40BF5E80EE3C40CF5D50EF2
:1002F00009C5E3F4D60E0AC5E3F4D70E0BC5E3F443
:10030000D80E0CC5E3F4ED0EE350010F016EED0EB7
:1003100001C5E3F4016AEE0EE3500120016EEE0E1A
:1003200001C5E3F4000EE66E000EE66E200EE66EEA
:10033000410EE66ED10EE3C4E6F4E3C4E6F4E3C492
:10034000E6F4E3C4E6F42CECB3F0E50E01C5E3F407
:10035000E60E02C5E3F4E70E03C5E3F4E80E04C5B8
:10036000E3F4D90EE3C409F5DA0EE3C40AF5DB0EB3
:10037000E3C40BF5DC0EE3C40CF5E50EE350095EB7
:10038000E60EE3500A5AE70EE3500B5AE80EE3502C
:100390000C5A09C5E6F40AC5E6F40BC5E6F40CC52B
:1003A000E6F4D5ECFFF004BE96D70450031002101B
:1003B00004E1020E015CD8A08ED7D90EE3C4E6F4A6
:1003C000E3C4E6F4E3C4E6F4E3C4E6F4E10EE3C414
:1003D000E6F4E3C4E6F4E3C4E6F4E3C4E6F41BECB9
:1003E000E1F001A078D7D90EE3C409F5DA0EE3C431
:1003F0000AF5DB0EE3C40BF5DC0EE3C40CF5D50EF9
:10040000E350095ED60EE3500A5AD70EE3500B5A5A
:10041000D80EE3500C5A09C5E6F40AC5E6F40BC53C
:10042000E6F40CC5E6F4D5ECFFF004BE08D00450A9
:100430000310021072E1020E015CD8B06ED0D50E2E
:10044000E3C409F5D60EE3C40AF5D70EE3C40BF5F1
:10045000D80EE3C40CF5D90E09C5E3F4DA0E0AC5CB
:10046000E3F4DB0E0BC5E3F4DC0E0CC5E3F46BD058
:10047000000EE66E000EE66E200EE66E410EE66E93
:10048000D10EE3C4E6F4E3C4E6F4E3C4E6F4E3C463
:10049000E6F418ECBEF0D50E01C5E3F4D60E02C5A5
:1004A000E3F4D70E03C5E3F4D80E04C5E3F4E1503A
:1004B000ED0FD96EE250DA6EFF0EDA22DE06000E84
:1004C000DD5AD90EE3C409F5DA0EE3C40AF5DB0EF2
:1004D000E3C40BF5DC0EE3C40CF5D50EE350095E66
:1004E000D60EE3500A5AD70EE3500B5AD80EE350FB
:1004F0000C5A09C5E6F40AC5E6F40BC5E6F40CC5CA
:10050000E6F4D5ECFFF004BE9AD7045003100210B5
:1005100004E1020E015CD8A092D7D50EE3C4E6F444
:10052000E3C4E6F4E3C4E6F4E3C4E6F4D50EE3C4BE
:10053000E6F4E3C4E6F4E3C4E6F4E3C4E6F41BEC57
:10054000E1F001A095D7BF0E0C6EC60EE3500C244F
:100550000B6E190E0B6405D0C60EE3500B6E0C6AC1
:1005600008D0C60EE3500B6E0C6A200E0B12000E64
:100570000C12D30E0BC5E3F4D40E0CC5E3F4D30E6A
:10058000E3C401F5FC0E01C5E3F4FC0EE3C401F580
:10059000FD0E01C5E3F4FC0EE3C401F5670E01187E
:1005A000D8A421D023502410D8A404D0000E246E47
:1005B000010E236E24BE05D024500EE12304D8B0D2
:1005C0000BD0060E0B6E000E0C6EF10E0BC5E3F495
:1005D000F20E0CC5E3F40AD0F10E23C5E3F4F20EDB
:1005E00024C5E3F403D024AEF7D7EBD7FC0EE3C465
:1005F00001F5670E0118D8A42BD0EE0EE3AE0CD097
:10060000ED0EE3C401F5FC0E015EEE0EE3C401F550
:10061000FF0E015AD8A017D0F10EE350FF0F0B6E5A
:10062000F20EE3C40CF5FF0E0C22ED0EE3500B5C52
:100630000C50800A016EEE0EE350800A0158D8A0DB
:1006400002D0660E01D0650E0C6EFD0E0CC5E3F4F3
:10065000F10EE3C401F5F50E01C5E3F4F20EE3C4B7
:1006600001F5F60E01C5E3F4FC0EE3C401F5670ED7
:100670000118D8A40AD0FD0EE3C401F5660E0118D6
:10068000D8A412D0EE0EE3AE0FD0F50EE350010F5A
:10069000016EF50E01C5E3F4016AF60EE350012088
:1006A000016EF60E01C5E3F4FD0EE3C401F5660E1E
:1006B0000118D8A434D0EE0EE3AE18D0000E096EA7
:1006C000000E0A6E800E0B6E3F0E0C6ED50E09C525
:1006D000E3F4D60E0AC5E3F4D70E0BC5E3F4D80E47
:1006E0000CC5E3F4ED0EE36AEE0EE36AFC0EE3C420
:1006F00001F5670E0118D8B412D0F50EE350016E63
:10070000ED0EE3500126F50E01C5E3F4F60EE350BD
:10071000016EEE0EE3500122F60E01C5E3F4EB0E7E
:10072000E36AEC0EE36AD90EE3C409F5DA0EE3C41A
:100730000AF5DB0EE3C40BF5DC0EE3C40CF5E10EA9
:1007400009C5E3F4E20E0AC5E3F4E30E0BC5E3F4D6
:10075000E40E0CC5E3F4D50EE3C409F5D60EE3C4EC
:100760000AF5D70EE3C40BF5D80EE3C40CF5E50E7D
:1007700009C5E3F4E60E0AC5E3F4E70E0BC5E3F49E
:10078000E80E0CC5E3F4A0D0D50EE3C4E6F4E3C450
:10079000E6F4E3C4E6F4E3C4E6F4DD0EE3C4E6F411
:1007A000E3C4E6F4E3C4E6F4E3C4E6F418ECBEF014
:1007B00001C5E6F402C5E6F403C5E6F404C5E6F4B3
:1007C000F1ECC9F0DD0E01C5E3F4DE0E02C5E3F481
:1007D000DF0E03C5E3F4E00E04C5E3F4DD0EE3C46D
:1007E000E6F4E3C4E6F4E3C4E6F4E3C4E6F46CEC54
:1007F000E2F001C50BF502C50CF5F30E0BC5E3F4F1
:10080000F40E0CC5E3F4DD0EE3C4E6F4E3C4E6F451
:10081000E3C4E6F4E3C4E6F4D10EE3C4E6F4E3C4CF
:10082000E6F4E3C4E6F4E3C4E6F42CECB3F001C56B
:10083000E6F402C5E6F403C5E6F404C5E6F4DD0E0D
:10084000E3C4E6F4E3C4E6F4E3C4E6F4E3C4E6F4A4
:1008500024EC05F0E10E01C5E3F4E20E02C5E3F479
:10086000E30E03C5E3F4E40E04C5E3F4000EE66E04
:10087000000EE66E200EE66E410EE66ED10EE3C46B
:10088000E6F4E3C4E6F4E3C4E6F4E3C4E6F418EC07
:10089000BEF0D50E01C5E3F4D60E02C5E3F4D70EC3
:1008A00003C5E3F4D80E04C5E3F4EB0EE350010FE7
:1008B000016EEB0E01C5E3F4016AEC0EE35001207A
:1008C000016EEC0E01C5E3F4E150EB0FD96EE2507E
:1008D000DA6EFF0EDA22F50EE350DE5CDE50800A9F
:1008E000016EF60EE350800A0158D8A04DD7000ED5
:1008F000E66E000EE66EA00EE66E400EE66ED10EBF
:10090000E3C4E6F4E3C4E6F4E3C4E6F4E3C4E6F4E3
:100910002CECB3F0DD0E01C5E3F4DE0E02C5E3F40A
:10092000DF0E03C5E3F4E00E04C5E3F4DD0EE3C41B
:10093000E6F4E3C4E6F4E3C4E6F4E3C4E6F4DD0E6F
:10094000E3C4E6F4E3C4E6F4E3C4E6F4E3C4E6F4A3
:100950001BECE1F001A019D0DD0EE3C4E6F4E3C422
:10096000E6F4E3C4E6F4E3C4E6F4DD0EE3C4E6F43F
:10097000E3C4E6F4E3C4E6F4E3C4E6F4F1ECF2F035
:1009800001A017D0F30EE3B014D0000E096E000ED4
:100990000A6E000E0B6E000E0C6EDD0E09C5E3F440
:1009A000DE0E0AC5E3F4DF0E0BC5E3F4E00E0CC562
:1009B000E3F4DD0EE3C4E6F4E3C4E6F4E3C4E6F4F2
:1009C000E3C4E6F4D50EE3C4E6F4E3C4E6F4E3C41A
:1009D000E6F4E3C4E6F4EDECB6F0E10E01C5E3F4B1
:1009E000E20E02C5E3F4E30E03C5E3F4E40E04C52E
:1009F000E3F4000EE66E000EE66E200EE66E410E8B
:100A0000E66EE10EE3C4E6F4E3C4E6F4E3C4E6F420
:100A1000E3C4E6F42CECB3F001C5E6F402C5E6F459
:100A200003C5E6F404C5E6F4DD0EE3C4E6F4E3C46E
:100A3000E6F4E3C4E6F4E3C4E6F41BECE1F001A061
:100A400044D0ED0EE350010F016EED0E01C5E3F44D
:100A5000016AEE0EE3500120016EEE0E01C5E3F4D3
:100A6000000EE66E000EE66E200EE66E410EE66E9D
:100A7000E10EE3C4E6F4E3C4E6F4E3C4E6F4E3C45D
:100A8000E6F42CECB3F0E50E01C5E3F4E60E02C586
:100A9000E3F4E70E03C5E3F4E80E04C5E3F4FD0E4A
:100AA000E3C401F5660E0118D8A40FD0F50EE3508B
:100AB000010F016EF50E01C5E3F4016AF60EE35075
:100AC0000120016EF60E01C5E3F4E50EE3C409F55D
:100AD000E60EE3C40AF5E70EE3C40BF5E80EE3C443
:100AE0000CF5D50E09C5E3F4D60E0AC5E3F4D70E0E
:100AF0000BC5E3F4D80E0CC5E3F4FD0EE3C401F519
:100B0000650E0118D8B40DD0ED0EE3C401F5F70E53
:100B100001C5E3F4EE0EE3C401F5F80E01C5E3F4FC
:100B200004D0F70EE36AF80EE36AFE0EE36AF90EEC
:100B3000E36AFA0EE36AEB0EE36AEC0EE36A7DD138
:100B4000D50EE3C4E6F4E3C4E6F4E3C4E6F4E3C498
:100B5000E6F4DD0EE3C4E6F4E3C4E6F4E3C4E6F44D
:100B6000E3C4E6F418ECBEF001C5E6F402C5E6F411
:100B700003C5E6F404C5E6F4F1ECC9F0DD0E01C5E9
:100B8000E3F4DE0E02C5E3F4DF0E03C5E3F4E00E8A
:100B900004C5E3F4DD0EE3C4E6F4E3C4E6F4E3C421
:100BA000E6F4E3C4E6F46CECE2F001C50BF502C533
:100BB0000CF50CBE06D00C5014E10A0E0B5CD8B03C
:100BC00010D0DD0EE3C4E6F4E3C4E6F4E3C4E6F4D7
:100BD000E3C4E6F46CECE2F001C50BF502C50CF5DC
:100BE00004D0090E0B6E000E0C6EF30E0BC5E3F471
:100BF000F40E0CC5E3F4F30EE3C401F5F40EE35078
:100C00000110D8A41BD0FC0EE3C401F5670E011837
:100C1000D8A414D0F80EE3BE27B810D0F90EE350D4
:100C2000010F016EF90E01C5E3F4016AFA0EE350FB
:100C30000120016EFA0E01C5E3F494D0FE0EE350DC
:100C4000D8A45FD0F80EE3AE5CD0E90EE3C40BF598
:100C5000EA0EE3C40CF5890E0B24D96E080E0C20A5
:100C6000DA6E2E0EDF6EE90EE350010F016EE90E13
:100C700001C5E3F4016AEA0EE3500120016EEA0EB9
:100C800001C5E3F4E150EF0FD96EE250DA6EFF0ECA
:100C9000DA22DE06000EDD5AFE0EE36AE32A31D0C8
:100CA000E90EE3C40BF5EA0EE3C40CF5890E0B2440
:100CB000D96E080E0C20DA6E300EDF6EE90EE350AE
:100CC000010F016EE90E01C5E3F4016AEA0EE3507B
:100CD0000120016EEA0E01C5E3F4E150EF0FD96E79
:100CE000E250DA6EFF0EDA22DE06000EDD5AE15027
:100CF000F90FD96EE250DA6EFF0EDA22DE06000E30
:100D0000DD5AF90EE3C401F5FA0EE3500110D8A440
:100D1000C7D7E90EE3C40BF5EA0EE3C40CF5890E60
:100D20000B24D96E080E0C20DA6EF30EE350300F50
:100D3000DF6EE90EE350010F016EE90E01C5E3F429
:100D4000016AEA0EE3500120016EEA0E01C5E3F4E8
:100D5000E150EF0FD96EE250DA6EFF0EDA22DE06B6
:100D6000000EDD5ADD0EE3C4E6F4E3C4E6F4E3C4AA
:100D7000E6F4E3C4E6F4D10EE3C4E6F4E3C4E6F437
:100D8000E3C4E6F4E3C4E6F42CECB3F001C5E6F406
:100D900002C5E6F403C5E6F404C5E6F4DD0EE3C4DB
:100DA000E6F4E3C4E6F4E3C4E6F4E3C4E6F424ECD6
:100DB00005F0E10E01C5E3F4E20E02C5E3F4E30E33
:100DC00003C5E3F4E40E04C5E3F4000EE66E000E82
:100DD000E66E200EE66E410EE66ED10EE3C4E6F43A
:100DE000E3C4E6F4E3C4E6F4E3C4E6F418ECBEF0CE
:100DF000D50E01C5E3F4D60E02C5E3F4D70E03C544
:100E0000E3F4D80E04C5E3F4E150F70FD96EE250D5
:100E1000DA6EFF0EDA22DE06000EDD5AEB0EE3502C
:100E2000010F016EEB0E01C5E3F4016AEC0EE35015
:100E30000120016EEC0E01C5E3F4E150EB0FD96E19
:100E4000E250DA6EFF0EDA22F50EE350DE5CDE5081
:100E5000800A016EF60EE350800A0158D8B00DD01A
:100E6000EA0EE3BE6DD6EA0EE35007E1E90EE3C4F5
:100E700001F54B0E015ED8A063D6FE0EE350D8B448
:100E800027A81DD0E90EE3C40BF5EA0EE3C40CF568
:100E9000890E0B24D96E080E0C20DA6E2E0EDF6E32
:100EA000E90EE350010F016EE90E01C5E3F4016A9A
:100EB000EA0EE3500120016EEA0E01C5E3F44F0E85
:100EC0000B6E000E0C6EEB0E0BC5E3F4EC0E0CC5B6
:100ED000E3F4EB0EE3C40BF5EC0EE3C40CF5890E62
:100EE0000B24D96E080E0C20DA6EDF6AFD0EE3C407
:100EF00001F5650E0118D8A4DFD0FF0EE36AEE0EEF
:100F0000E3AE09D0FF0EE36AE32AED0EE36CEE0ECA
:100F1000E31ED8B0E32A020E0B6E000E0C6EF10E2B
:100F20000BC5E3F4F20E0CC5E3F449D0E150EB0F2E
:100F3000D96EE250DA6EFF0EDA22DE06000EDD5ABE
:100F4000EB0EE3C40BF5EC0EE3C40CF5890E0B2499
:100F5000D96E080E0C20DA6E0A0EE66E000EE66EF2
:100F6000EB0EE3C4E6F4E3C4E6F416ECEAF0015059
:100F7000300FDF6E0A0EE66E000EE66EEB0EE3C477
:100F8000E6F4E3C4E6F4B6ECE3F0ED0E01C5E3F4F9
:100F9000EE0E02C5E3F4E150F10FD96EE250DA6EC5
:100FA000FF0EDA22DE06000EDD5AE150EF0FD96E99
:100FB000E250DA6EFF0EDA22DE06000EDD5AED0E8A
:100FC000E3C401F5EE0EE3500110D8A4AFD7F20E42
:100FD000E3BE07D0F20EE350A9E1F10EE304D8B06E
:100FE000A5D7E150EB0FD96EE250DA6EFF0EDA2290
:100FF000DE06000EDD5AFF0EE350D8A402D02B0E01
:1010000001D02D0E0B6E000E0C6ECF0E0BC5E3F44F
:10101000D00E0CC5E3F4EB0EE3C40BF5EC0EE3C409
:101020000CF5890E0B24D96E080E0C20DA6ECF0E4B
:10103000E3C4DFF4E150EF0FD96EE250DA6EFF0E39
:10104000DA22DE06000EDD5AE150EB0FD96EE250D7
:10105000DA6EFF0EDA22DE06000EDD5ABF0E0C6ECF
:10106000C60EE3500C240B6E190E0B6402D0650EF5
:1010700001D0450E0B6E000E0C6ECD0E0BC5E3F4C9
:10108000CE0E0CC5E3F4EB0EE3C40BF5EC0EE3C49B
:101090000CF5890E0B24D96E080E0C20DA6ECD0EDD
:1010A000E3C4DFF4E150EF0FD96EE250DA6EFF0EC9
:1010B000DA22DE06000EDD5AE90EE3C4E6F4E3C4EC
:1010C000E6F4890EE66E080EE66E890E0B6E080ECB
:1010D0000C6EE50EE3500B5EE60EE3500C5AE70E85
:1010E000E3500B26E80EE3500C220BC5E6F40CC5CA
:1010F000E6F47FECECF0EB0EE3C40BF5EC0EE3C48E
:101100000CF5E90EE3500B5EEA0EE3500C5AE90EC3
:101110000BC5E3F4EA0E0CC5E3F4FB0EE350D8B4C0
:1011200002D0010E01D0000E0B6E0C6AEB0E0BC547
:10113000E3F4EC0E0CC5E3F427B221D046D0E15025
:10114000E90FD96EE250DA6EFF0EDA22DE06000EEB
:10115000DD5ADEC40BF5DDC40CF5890E0B24D96E07
:10116000080E0C20DA6E300EDF6EE150EF0FD96EF4
:10117000E250DA6EFF0EDA22DE06000EDD5AE15092
:10118000EB0FD96EE250DA6EFF0EDA22EF0EE3506B
:10119000DE5CDE50800A016EF00EE350800A0158DA
:1011A000D8B013D0E150EB0FD96EE250DA6EFF0EDB
:1011B000DA22E90EE350DE5CDE50800A016EEA0EB0
:1011C000E350800A0158D8A0BAD7FB0EE350D8B438
:1011D00017D0E150E90FD96EE250DA6EFF0EDA2235
:1011E000DE06000EDD5ADEC40BF5DDC40CF5890EFB
:1011F0000B24D96E080E0C20DA6EFB0EE3C4DFF46C
:10120000EF0EE350016EEB0EE350015EEF0E01C5F1
:10121000E3F4F00EE350016EEC0EE350015AF00ED1
:1012200001C5E3F4EF0EE3C4E6F4E3C4E6F4890E8B
:101230000B6E080E0C6EE70EE3500B26E80EE35023
:101240000C220BC5E6F40CC5E6F4C70EE3C4E6F4C5
:10125000E3C4E6F4F3ECF0F0C60EE126FF0EE22262
:101260001200310EE126000EE222BF0E0C6EC80EF7
:10127000E3500C240B6E190E0B6401D003D00C6AE2
:101280000C2A01D00C6AC80E0CC5E3F4FD0EE36A0B
:10129000C90EE3C409F5CA0EE3C40AF5CB0EE3C4D4
:1012A0000BF5CC0EE3C40CF5DB0E09C5E3F4DC0E44
:1012B0000AC5E3F4DD0E0BC5E3F4DE0E0CC5E3F462
:1012C000DE0EE3AE1AD0FD0EE36AE32ADB0EE3C4C2
:1012D000E6F4E3C4E6F4E3C4E6F4E3C4E6F411ECB4
:1012E00003F0DB0E01C5E3F4DC0E02C5E3F4DD0E12
:1012F00003C5E3F4DE0E04C5E3F4EB0EE36AEC0E83
:10130000E36AEF0E21C5E3F4F00E22C5E3F4FD0E0F
:10131000E350D8A402D027A417D0FD0EE350D8A4E0
:1013200002D02B0E01D02D0E0B6E000E0C6ECF0EC8
:101330000BC5E3F4D00E0CC5E3F4CF0EE3C401F506
:10134000FD0E01C5E3F405D027A603D0FD0EE36A28
:10135000E38ADB0EE3C4E6F4E3C4E6F4E3C4E6F4B4
:10136000E3C4E6F471ECE0F001040210D8A465D007
:10137000FD0EE350D8B417D0FD0EE3C489F8010E7A
:101380000B6E000E0C6EEB0E0BC5E3F4EC0E0CC5F1
:10139000E3F4E150EF0FD96EE250DA6EFF0EDA227D
:1013A000DE06000EDD5AC80EE350D8B415D0E60EA6
:1013B000E66EFF0EE66E890E0B6E080E0C6EE90EE1
:1013C000E3500B26EA0EE3500C220BC5E6F40CC5E5
:1013D000E6F44FECFBF014D0EE0EE66EFF0EE66E78
:1013E000890E0B6E080E0C6EE90EE3500B26EA0E0A
:1013F000E3500C220BC5E6F40CC5E6F44FECFBF011
:10140000E150EF0FD96EE250DA6EFF0EDA22FD0ED8
:10141000DE26FF0EDD22EF0EE3C4E6F4E3C4E6F4BD
:10142000890EE66E080EE66EC90EE3C4E6F4E3C468
:10143000E6F4F3ECF0F07EEF91F0DB0EE3C4E6F4BB
:10144000E3C4E6F4E3C4E6F4E3C4E6F471ECE0F0EC
:1014500001500210D8A449D0FD0EE350D8B417D0E3
:10146000FD0EE3C489F8010E0B6E000E0C6EEB0E40
:101470000BC5E3F4EC0E0CC5E3F4E150EF0FD96EAD
:10148000E250DA6EFF0EDA22DE06000EDD5AC80EDA
:10149000E350D8B415D0EA0EE66EFF0EE66E890E64
:1014A0000B6E080E0C6EE90EE3500B26EA0EE350AD
:1014B0000C220BC5E6F40CC5E6F44FECFBF0A0D70C
:1014C000F20EE66EFF0EE66E890E0B6E080E0C6EC7
:1014D000E90EE3500B26EA0EE3500C220BC5E6F4AE
:1014E0000CC5E6F44FECFBF08BD7000E096E000E36
:1014F0000A6E800E0B6E3F0E0C6ED70E09C5E3F41C
:10150000D80E0AC5E3F4D90E0BC5E3F4DA0E0CC508
:10151000E3F4F30EE36AF40EE36A000EE66E000EE7
:10152000E66E000EE66E000EE66ED70EE3C4E6F43D
:10153000E3C4E6F4E3C4E6F4E3C4E6F4F1ECF2F069
:1015400001A02FD096D0000EE66E000EE66E000EC3
:10155000E66E400EE66ED30EE3C4E6F4E3C4E6F4B2
:10156000E3C4E6F4E3C4E6F42CECB3F0D70E01C513
:10157000E3F4D80E02C5E3F4D90E03C5E3F4DA0EA2
:1015800004C5E3F4F30EE350010F016EF30E01C541
:10159000E3F4016AF40EE3500120016EF40E01C57C
:1015A000E3F4000EE66E000EE66E000EE66E400EF0
:1015B000E66ED30EE3C4E6F4E3C4E6F4E3C4E6F473
:1015C000E3C4E6F42CECB3F001C5E6F402C5E6F49E
:1015D00003C5E6F404C5E6F4D70EE3C4E6F4E3C4B9
:1015E000E6F4E3C4E6F4E3C4E6F41BECE1F001A0A6
:1015F0002AD0A9D7000EE66E000EE66E000EE66E4B
:10160000400EE66ED30EE3C4E6F4E3C4E6F4E3C4AE
:10161000E6F4E3C4E6F418ECBEF0D70E01C5E3F43B
:10162000D80E02C5E3F4D90E03C5E3F4DA0E04C5FF
:10163000E3F4E150F30FD96EE250DA6EFF0EDA22D6
:10164000DE06000EDD5AD70EE3C4E6F4E3C4E6F48A
:10165000E3C4E6F4E3C4E6F4D70EE3C4E6F4E3C47B
:10166000E6F4E3C4E6F4E3C4E6F41BECE1F001A025
:10167000C1D724BE07D0F70E23C5E3F4F80E24C566
:10168000E3F40AD04A0E0B6E000E0C6EF70E0BC57B
:10169000E3F4F80E0CC5E3F4F70EE350010F0B6E04
:1016A000F80EE3C40CF5000E0C22FB0E0BC5E3F4A0
:1016B000FC0E0CC5E3F4ED0EE36AEE0EE36ADB0EFE
:1016C000E3C409F5DC0EE3C40AF5DD0EE3C40BF553
:1016D000DE0EE3C40CF5E30E09C5E3F4E40E0AC51F
:1016E000E3F4E50E0BC5E3F4E60E0CC5E3F4D70E08
:1016F000E3C409F5D80EE3C40AF5D90EE3C40BF52B
:10170000DA0EE3C40CF5E70E09C5E3F4E80E0AC5EA
:10171000E3F4E90E0BC5E3F4EA0E0CC5E3F4A0D044
:10172000D70EE3C4E6F4E3C4E6F4E3C4E6F4E3C4AA
:10173000E6F4DF0EE3C4E6F4E3C4E6F4E3C4E6F45F
:10174000E3C4E6F418ECBEF001C5E6F402C5E6F425
:1017500003C5E6F404C5E6F4F1ECC9F0DF0E01C5FB
:10176000E3F4E00E02C5E3F4E10E03C5E3F4E20E98
:1017700004C5E3F4DF0EE3C4E6F4E3C4E6F4E3C433
:10178000E6F4E3C4E6F46CECE2F001C50BF502C547
:101790000CF5F10E0BC5E3F4F20E0CC5E3F4D70E15
:1017A000E3C4E6F4E3C4E6F4E3C4E6F4E3C4E6F435
:1017B000DB0EE3C4E6F4E3C4E6F4E3C4E6F4E3C416
:1017C000E6F42CECB3F001C5E6F402C5E6F403C57B
:1017D000E6F404C5E6F4DF0EE3C4E6F4E3C4E6F49D
:1017E000E3C4E6F4E3C4E6F424EC05F0E30E01C53B
:1017F000E3F4E40E02C5E3F4E50E03C5E3F4E60EFC
:1018000004C5E3F4000EE66E000EE66E800EE66E92
:10181000410EE66ED30EE3C4E6F4E3C4E6F4E3C49B
:10182000E6F4E3C4E6F418ECBEF0D70E01C5E3F429
:10183000D80E02C5E3F4D90E03C5E3F4DA0E04C5ED
:10184000E3F4ED0EE350010F016EED0E01C5E3F47C
:10185000016AEE0EE3500120016EEE0E01C5E3F4C5
:10186000E150ED0FD96EE250DA6EFF0EDA22FB0E78
:10187000E350DE5CDE50800A016EFC0EE350800A0D
:101880000158D8A04DD7000EE66E000EE66E000E91
:10189000E66E410EE66ED30EE3C4E6F4E3C4E6F46E
:1018A000E3C4E6F4E3C4E6F42CECB3F0DF0E01C5C8
:1018B000E3F4E00E02C5E3F4E10E03C5E3F4E20E47
:1018C00004C5E3F4DF0EE3C4E6F4E3C4E6F4E3C4E2
:1018D000E6F4E3C4E6F4DF0EE3C4E6F4E3C4E6F4BE
:1018E000E3C4E6F4E3C4E6F41BECE1F001A019D094
:1018F000DF0EE3C4E6F4E3C4E6F4E3C4E6F4E3C4D1
:10190000E6F4DF0EE3C4E6F4E3C4E6F4E3C4E6F48D
:10191000E3C4E6F4F1ECF2F001A017D0F10EE3B06D
:1019200014D0000E096E000E0A6E000E0B6E000E33
:101930000C6EDF0E09C5E3F4E00E0AC5E3F4E10E18
:101940000BC5E3F4E20E0CC5E3F4DF0EE3C4E6F4EA
:10195000E3C4E6F4E3C4E6F4E3C4E6F4D70EE3C478
:10196000E6F4E3C4E6F4E3C4E6F4E3C4E6F4EDEC41
:10197000B6F0E30E01C5E3F4E40E02C5E3F4E50EB0
:1019800003C5E3F4E60E04C5E3F4E70EE3C409F58A
:10199000E80EE3C40AF5E90EE3C40BF5EA0EE3C46E
:1019A0000CF5D70E09C5E3F4D80E0AC5E3F4D90E39
:1019B0000BC5E3F4DA0E0CC5E3F4F90EE36AFA0E94
:1019C000E36AFE0EE36AF50EE36AF60EE36AED0ED5
:1019D000E36AEE0EE36ABCD1D70EE3C4E6F4E3C4D7
:1019E000E6F4E3C4E6F4E3C4E6F4DF0EE3C4E6F4AD
:1019F000E3C4E6F4E3C4E6F4E3C4E6F418ECBEF0B2
:101A000001C5E6F402C5E6F403C5E6F404C5E6F450
:101A1000F1ECC9F0DF0E01C5E3F4E00E02C5E3F41A
:101A2000E10E03C5E3F4E20E04C5E3F4DF0EE3C404
:101A3000E6F4E3C4E6F4E3C4E6F4E3C4E6F46CECF1
:101A4000E2F001C50BF502C50CF5F10E0BC5E3F490
:101A5000F20E0CC5E3F4F10EE3C401F5F20EE3500F
:101A60000110D8A414D0FA0EE3BE27B810D0F50E9A
:101A7000E350010F016EF50E01C5E3F4016AF60EA5
:101A8000E3500120016EF60E01C5E3F4DFD0FE0E37
:101A9000E350D8A45FD0FA0EE3AE5CD0EB0EE3C403
:101AA0000BF5EC0EE3C40CF5890E0B24D96E080E71
:101AB0000C20DA6E2E0EDF6EEB0EE350010F016E7E
:101AC000EB0E01C5E3F4016AEC0EE3500120016E58
:101AD000EC0E01C5E3F4E150EF0FD96EE250DA6E7F
:101AE000FF0EDA22DE06000EDD5AFE0EE36AE32A5E
:101AF00031D0EB0EE3C40BF5EC0EE3C40CF5890E0C
:101B00000B24D96E080E0C20DA6E300EDF6EEB0E51
:101B1000E350010F016EEB0E01C5E3F4016AEC0E18
:101B2000E3500120016EEC0E01C5E3F4E150EF0F2C
:101B3000D96EE250DA6EFF0EDA22DE06000EDD5AB2
:101B4000E150F50FD96EE250DA6EFF0EDA22DE06B2
:101B5000000EDD5AF50EE3C401F5F60EE350011058
:101B6000D8A4C7D7F20EE3BE0ED0F20EE35007E1C1
:101B7000F10EE3C401F50A0E015ED8A004D0F10E07
:101B8000E350570F03D0F10EE350300F016EF10E0A
:101B900001C5E3F4016AF20EE3500120016EF20E7A
:101BA00001C5E3F4C80EE350D8B428D0F10EE3C465
:101BB0000CF5200E0C129F0E0C261A0E0C601ED077
:101BC0009F0E0C6EF10EE3500C240B6E190E0B647D
:101BD00001D014D05F0E0B6E000E0C6EF10EE3C43C
:101BE00001F50B500116F10E01C5E3F4F20EE3C44A
:101BF00001F50C500116F20E01C5E3F4EB0EE3C43F
:101C00000BF5EC0EE3C40CF5890E0B24D96E080E0F
:101C10000C20DA6EF10EE3C4DFF4EB0EE350010F9B
:101C2000016EEB0E01C5E3F4016AEC0EE3500120F6
:101C3000016EEC0E01C5E3F4E150EF0FD96EE250F6
:101C4000DA6EFF0EDA22DE06000EDD5AD70EE3C48E
:101C5000E6F4E3C4E6F4E3C4E6F4E3C4E6F4DB0E3E
:101C6000E3C4E6F4E3C4E6F4E3C4E6F4E3C4E6F470
:101C70002CECB3F001C5E6F402C5E6F403C5E6F4C6
:101C800004C5E6F4DF0EE3C4E6F4E3C4E6F4E3C41B
:101C9000E6F4E3C4E6F424EC05F0E30E01C5E3F456
:101CA000E40E02C5E3F4E50E03C5E3F4E60E04C555
:101CB000E3F4000EE66E000EE66E800EE66E410E58
:101CC000E66ED30EE3C4E6F4E3C4E6F4E3C4E6F45C
:101CD000E3C4E6F418ECBEF0D70E01C5E3F4D80E69
:101CE00002C5E3F4D90E03C5E3F4DA0E04C5E3F448
:101CF000E150F90FD96EE250DA6EFF0EDA22DE06FD
:101D0000000EDD5AED0EE350010F016EED0E01C520
:101D1000E3F4016AEE0EE3500120016EEE0E01C500
:101D2000E3F424AE15D0000EE66E000EE66E000E53
:101D3000E66E000EE66EDF0EE3C4E6F4E3C4E6F4FE
:101D4000E3C4E6F4E3C4E6F4F1ECF2F001B020D031
:101D5000E150ED0FD96EE250DA6EFF0EDA22FB0E83
:101D6000E350DE5CDE50800A016EFC0EE350800A18
:101D70000158D8B00DD0EC0EE3BE2ED6EC0EE350D9
:101D800007E1EB0EE3C401F54B0E015ED8A024D6AB
:101D9000FE0EE350D8A46FD0F50EE3C401F5F60EA5
:101DA000E3500110D8A424BE66D0245003E12304DC
:101DB000D8A061D0EC0EE3BE0AD0EC0EE3505BE19C
:101DC000EB0EE3C401F54B0E015ED8B054D0FE0E0D
:101DD000E36AE32AEB0EE3C40BF5EC0EE3C40CF567
:101DE000890E0B24D96E080E0C20DA6E2E0EDF6ED3
:101DF000EB0EE350010F016EEB0E01C5E3F4016A37
:101E0000EC0EE3500120016EEC0E01C5E3F4E1504D
:101E1000EF0F29D0EB0EE3C40BF5EC0EE3C40CF589
:101E2000890E0B24D96E080E0C20DA6E300EDF6E90
:101E3000EB0EE350010F016EEB0E01C5E3F4016AF6
:101E4000EC0EE3500120016EEC0E01C5E3F4E1500D
:101E5000EF0FD96EE250DA6EFF0EDA22DE06000EC8
:101E6000DD5AE150F50FD96EE250DA6EFF0EDA223C
:101E7000DE06000EDD5AF50EE3C401F5F60EE35062
:101E80000110D8B40DD0EC0EE3BEC4D7EC0EE35075
:101E900007E1EB0EE3C401F54B0E015ED8A0BAD703
:101EA000FE0EE350D8B427A81DD0EB0EE3C40BF50B
:101EB000EC0EE3C40CF5890E0B24D96E080E0C2031
:101EC000DA6E2E0EDF6EEB0EE350010F016EEB0E9D
:101ED00001C5E3F4016AEC0EE3500120016EEC0E43
:101EE00001C5E3F4EB0EE3C40BF5EC0EE3C40CF513
:101EF000890E0B24D96E080E0C20DA6EDF6A4F0EA5
:101F00000B6E000E0C6EED0E0BC5E3F4EE0E0CC561
:101F1000E3F4ED0EE3C40BF5EE0EE3C40CF5890E0D
:101F20000B24D96E080E0C20DA6EDF6AFF0EE36A0E
:101F3000F40EE3AE09D0FF0EE36AE32AF30EE36C7E
:101F4000F40EE31ED8B0E32A010E0B6E000E0C6EE9
:101F5000F70E0BC5E3F4F80E0CC5E3F449D0E150DD
:101F6000ED0FD96EE250DA6EFF0EDA22DE06000EB9
:101F7000DD5AED0EE3C40BF5EE0EE3C40CF5890E4D
:101F80000B24D96E080E0C20DA6E0A0EE66E000ED7
:101F9000E66EF10EE3C4E6F4E3C4E6F416ECEAF010
:101FA0000150300FDF6E0A0EE66E000EE66EF10E87
:101FB000E3C4E6F4E3C4E6F4B6ECE3F0F30E01C5E3
:101FC000E3F4F40E02C5E3F4E150F70FD96EE250EA
:101FD000DA6EFF0EDA22DE06000EDD5AE150EF0F58
:101FE000D96EE250DA6EFF0EDA22DE06000EDD5AFE
:101FF000F30EE3C401F5F40EE3500110D8A4AFD7FB
:10200000F80EE3BE07D0F80EE350A9E1F70EE304A3
:10201000D8B0A5D7E150ED0FD96EE250DA6EFF0EC1
:10202000DA22DE06000EDD5AFF0EE350D8A402D0FD
:102030002B0E01D02D0E0B6E000E0C6ED50E0BC5A7
:10204000E3F4D60E0CC5E3F4ED0EE3C40BF5EE0E8F
:10205000E3C40CF5890E0B24D96E080E0C20DA6E41
:10206000D50EE3C4DFF4E150EF0FD96EE250DA6E23
:10207000FF0EDA22DE06000EDD5AE150ED0FD96EBA
:10208000E250DA6EFF0EDA22DE06000EDD5AC80ECE
:10209000E350D8A402D0700E01D0500E0B6E000E8B
:1020A0000C6ED30E0BC5E3F4D40E0CC5E3F4ED0EA9
:1020B000E3C40BF5EE0EE3C40CF5890E0B24D96EC8
:1020C000080E0C20DA6ED30EE3C4DFF4E150EF0FFC
:1020D000D96EE250DA6EFF0EDA22DE06000EDD5A0D
:1020E000EB0EE3C4E6F4E3C4E6F4890EE66E080EF4
:1020F000E66E890E0B6E080E0C6EE70EE3500B5E5B
:10210000E80EE3500C5AE90EE3500B26EA0EE350BA
:102110000C220BC5E6F40CC5E6F47FECECF0ED0EFA
:10212000E3C40BF5EE0EE3C40CF5EB0EE3500B5ECF
:10213000EC0EE3500C5AEB0E0BC5E3F4EC0E0CC5A1
:10214000E3F4FD0EE350D8A402D0020E01D0030E3A
:102150000B6E000E0C6EED0E0BC5E3F4EE0E0CC50F
:10216000E3F427B221D046D0E150EB0FD96EE25014
:10217000DA6EFF0EDA22DE06000EDD5ADEC40BF543
:10218000DDC40CF5890E0B24D96E080E0C20DA6E16
:10219000300EDF6EE150EF0FD96EE250DA6EFF0EB7
:1021A000DA22DE06000EDD5AE150ED0FD96EE25064
:1021B000DA6EFF0EDA22EF0EE350DE5CDE50800AAC
:1021C000016EF00EE350800A0158D8B013D0E150F0
:1021D000ED0FD96EE250DA6EFF0EDA22EB0EE3500D
:1021E000DE5CDE50800A016EEC0EE350800A01587E
:1021F000D8A0BAD7C80EE350D8A402D0780E01D028
:10220000580E0B6E000E0C6ED10E0BC5E3F4D20E01
:102210000CC5E3F4E150EB0FD96EE250DA6EFF0E1D
:10222000DA22DE06000EDD5ADEC40BF5DDC40CF545
:10223000890E0B24D96E080E0C20DA6ED10EE3C481
:10224000DFF4E150EB0FD96EE250DA6EFF0EDA22C6
:10225000DE06000EDD5ADEC40BF5DDC40CF5890E7A
:102260000B24D96E080E0C20DA6E300EDF6EFD0ED8
:10227000E350D8B417D0E150EB0FD96EE250DA6ECC
:10228000FF0EDA22DE06000EDD5ADEC40BF5DDC4D9
:102290000CF5890E0B24D96E080E0C20DA6EFD0E9B
:1022A000E3C4DFF4EF0EE350016EED0EE350015E88
:1022B000EF0E01C5E3F4F00EE350016EEE0EE350B5
:1022C000015AF00E01C5E3F4EF0EE3C4E6F4E3C4F3
:1022D000E6F4890E0B6E080E0C6EE90EE3500B2629
:1022E000EA0EE3500C220BC5E6F40CC5E6F4C90E69
:1022F000E3C4E6F4E3C4E6F4F3ECF0F0C80EE12640
:10230000FF0EE2221200080EE126000EE222F40E79
:10231000E3C4D9F4F50EE3C4DAF4DEC4F6F4DDC4A4
:10232000F7F4000EF86E0800F550250AD8A47FEFE8
:1023300098F0F40EE3C4D9F4F50EE3C4DAF4DE2A1F
:10234000000EDD22000E226E000E216E21C527F543
:1023500023682468FF0EE36A35D02780F40EE3C4B7
:10236000D9F4F50EE3C4DAF4DE2A000EDD222AD019
:102370002782F4D72784F2D72786F0D72788EED78D
:10238000FF0EE36AE32A1ED0F40EE3C4D9F4F50E7F
:10239000E3C4DAF4DEC4F6F4DDC4F7F4000EF86E3C
:1023A0000800F550200AD8B4E7D7030AD8B4E6D716
:1023B000080AD8B4DFD7060AD8B4CFD71D0AD8B4D4
:1023C000D7D7DED7FF0EE350D8B4DED727B0279299
:1023D000F20EE3C4E6F4E3C4E6F4F20EE3C4E6F47A
:1023E000E3C4E6F480ECE6F001C521F502C522F570
:1023F00022AE05D02780216C221ED8B0222AF40EEE
:10240000E3C4D9F4F50EE3C4DAF4DEC4F6F4DDC4B3
:10241000F7F4000EF86E0800F5502E0AD8A419D073
:10242000F40EE3C4D9F4F50EE3C4DAF4DE2A000EA8
:10243000DD22F20EE3C4E6F4E3C4E6F4F20EE3C4F4
:10244000E6F4E3C4E6F480ECE6F001C523F502C54A
:1024500024F5F40EE3C4D9F4F50EE3C4DAF4DEC4D3
:10246000F6F4DDC4F7F4000EF86E0800F550630AC8
:10247000D8A42CD0F40EE3C4D9F4F50EE3C4DAF4F6
:10248000DE2A000EDD22F20EE3C4D9F4F30EE3C41B
:10249000DAF4020EDE5E000EDD5ADEC40BF5DDC49A
:1024A0000CF50BC5D9F40CC5DAF4DF500C6EFE0E3A
:1024B0000CC5E3F4FE0EE350E66EF50EE3C4E6F45D
:1024C000E3C4E6F411ECE8F0A1EF98F0F40EE3C4F5
:1024D000D9F4F50EE3C4DAF4DEC40BF5DDC40CF573
:1024E000FD0E0CC5E3F4FC0E0BC5E3F4E150FC0F4C
:1024F000D96EE250DA6EFF0EDA22DEC4F6F4DDC4E5
:10250000F7F4000EF86E0800FE0EF5C4E3F43ED0BA
:10251000FC0EE350010F016EFC0E01C5E3F4016AED
:10252000FD0EE3500120016EFD0E01C5E3F4E15004
:10253000FC0FD96EE250DA6EFF0EDA22DEC4F6F43A
:10254000DDC4F7F4000EF86E0800F550680AD8A450
:102550003ED0FE0EE36AE386E38CFC0EE350010FEF
:10256000016EFC0E01C5E3F4016AFD0EE35001208B
:10257000016EFD0E01C5E3F42AD0690E0C6EFE0E4D
:102580000CC5E3F424D0FE0EE36A21D0FE0EE35026
:10259000580AD8B4F2D73C0AD8B4EFD70C0AD8B44A
:1025A000B7D7010AD8B4E9D7070AD8B4E6D7010AE1
:1025B000D8B4E3D71B0AD8B4D0D7010AD8B4DDD732
:1025C0000D0AD8B4DAD7020AD8B4C7D7DCD7E1509D
:1025D000FC0FD96EE250DA6EFF0EDA22DEC4F6F49A
:1025E000DDC4F7F4000EF86E0800F550640AD8B4A4
:1025F00079D0E150FC0FD96EE250DA6EFF0EDA228C
:10260000DEC4F6F4DDC4F7F4000EF86E0800F550F1
:10261000690AD8B467D09AD0F20EE3C4D9F4F30EA5
:10262000E3C4DAF4020EDE5E000EDD5ADEC40BF502
:10263000DDC40CF50BC5D9F40CC5DAF4DF500A6E15
:10264000000E0ABEFF0E0B6E0C6EF80E0AC5E3F408
:10265000F90E0BC5E3F4FA0E0CC5E3F454D0F20EF8
:10266000E3C4D9F4F30EE3C4DAF4020EDE5E000E26
:10267000DD5ADEC40BF5DDC40CF50BC5D9F40CC571
:10268000DAF4DEC40BF5DDC40CF50BC507F50CC59B
:1026900008F5096A08BE09681BD0F20EE3C4D9F434
:1026A000F30EE3C4DAF4020EDE5E000EDD5ADEC481
:1026B0000BF5DDC40CF50BC5D9F40CC5DAF4DEC49A
:1026C0000BF5DDC40CF50BC507F50CC508F5096A5B
:1026D000F80E07C5E3F4F90E08C5E3F4FA0E09C5D0
:1026E000E3F411D0FE0EE350480AD8B495D7200A7F
:1026F000D8B4B5D7010AD8B4B2D71D0AD8B4AFD769
:102700000E0AD8B4CAD7FC0EE350010F0B6EFD0EB3
:10271000E3C40CF5000E0C22F40EE3C4D9F4F50E5C
:10272000E3C4DAF40BC5DEF40CC5DDF4F80EE3C443
:10273000E6F4E3C4E6F4E3C4E6F4F30EE3C4E6F43B
:10274000E3C4E6F48AECD0F0A1EF98F0E150FC0F7E
:10275000D96EE250DA6EFF0EDA22DEC4F6F4DDC482
:10276000F7F4000EF86E0800F550780AD8B49AD045
:10277000E150FC0FD96EE250DA6EFF0EDA22DEC4B1
:10278000F6F4DDC4F7F4000EF86E0800F550580AB0
:10279000D8B488D0E150FC0FD96EE250DA6EFF0E4B
:1027A000DA22DEC4F6F4DDC4F7F4000EF86E080099
:1027B000F5506F0AD8B476D0E150FC0FD96EE250D4
:1027C000DA6EFF0EDA22DEC4F6F4DDC4F7F4000E92
:1027D000F86E0800F550750AD8B464D0E2D0F20E55
:1027E000E3C4D9F4F30EE3C4DAF4020EDE5E000EA5
:1027F000DD5ADEC40BF5DDC40CF50BC5D9F40CC5F0
:10280000DAF4DF500A6E0B6A0C6AF80E0AC5E3F4BC
:10281000F90E0BC5E3F4FA0E0CC5E3F454D0F20E36
:10282000E3C4D9F4F30EE3C4DAF4020EDE5E000E64
:10283000DD5ADEC40BF5DDC40CF50BC5D9F40CC5AF
:10284000DAF4DEC40BF5DDC40CF50BC507F50CC5D9
:1028500008F5096A08BE09681BD0F20EE3C4D9F472
:10286000F30EE3C4DAF4020EDE5E000EDD5ADEC4BF
:102870000BF5DDC40CF50BC5D9F40CC5DAF4DEC4D8
:102880000BF5DDC40CF50BC507F50CC508F5096A99
:10289000F80E07C5E3F4F90E08C5E3F4FA0E09C50E
:1028A000E3F411D0FE0EE350480AD8B498D7200ABA
:1028B000D8B4D3D7010AD8B4D0D71D0AD8B4AFD76B
:1028C0000E0AD8B4CAD7FC0EE350010F0B6EFD0EF2
:1028D000E3C40CF5000E0C22F40EE3C4D9F4F50E9B
:1028E000E3C4DAF40BC5DEF40CC5DDF43FD0F80E1A
:1028F000E3C4E6F4E3C4E6F4E3C4E6F4F30EE3C4AD
:10290000E6F4E3C4E6F4E5ECD5F0A1EF98F0F80EB8
:10291000E3C4E6F4E3C4E6F4E3C4E6F4F30EE3C48C
:10292000E6F4E3C4E6F42BECDBF0A1EF98F0E15021
:10293000FC0FD96EE250DA6EFF0EDA22DEC4F6F436
:10294000DDC4F7F4000EF86E0800F550E66EF70EE1
:10295000E3C4E6F4E3C4E6F4E3C4E6F4F20EE3C44D
:10296000E6F4E3C4E6F464ECCBF0EBD3E150FC0F07
:10297000D96EE250DA6EFF0EDA22DEC4F6F4DDC460
:10298000F7F4000EF86E0800F550580AD8B4CFD707
:10299000370AD8B4ACD71A0AD8B4B9D70D0AD8B404
:1029A000C6D7E150FC0FD96EE250DA6EFF0EDA2284
:1029B000DEC4F6F4DDC4F7F4000EF86E0800F5503E
:1029C0006E0AD8B4D2D0F7D0F20EE3C4D9F4F30E25
:1029D000E3C4DAF4020EDE5E000EDD5ADEC40BF54F
:1029E000DDC40CF50BC5D9F40CC5DAF4DEC40BF567
:1029F000DDC40CF50BC5F6F40CC5F7F4000EF86E4B
:102A0000360EF76407D0DFC5F5F40D00E0C5F5F428
:102A10000C0001D0A1D0BAD0F20EE3C4D9F4F30E69
:102A2000E3C4DAF4020EDE5E000EDD5ADEC40BF5FE
:102A3000DDC40CF50BC5D9F40CC5DAF4DEC40BF516
:102A4000DDC40CF50BC5F6F40CC5F7F4000EF86EFA
:102A5000360EF76407D0DFC5F5F40D00E0C5F5F4D8
:102A60000C0001D079D092D0F20EE3C4D9F4F30E69
:102A7000E3C4DAF4020EDE5E000EDD5ADEC40BF5AE
:102A8000DDC40CF50BC5D9F40CC5DAF4DEC40BF5C6
:102A9000DDC40CF50BC5F6F40CC5F7F4000EF86EAA
:102AA000360EF76404D0DFC5F5F40C0006D0F6C48A
:102AB000E9F4F7C4EAF4DFC5EFF468D0F20EE3C43A
:102AC000D9F4F30EE3C4DAF4020EDE5E000EDD5A32
:102AD000DEC40BF5DDC40CF50BC5D9F40CC5DAF476
:102AE000DEC40BF5DDC40CF50BC5F6F40CC5F7F42C
:102AF000000EF86E360EF76407D0DFC5F5F40D0052
:102B0000E0C5F5F40C0001D027D040D0F20EE3C4AC
:102B1000D9F4F30EE3C4DAF4020EDE5E000EDD5AE1
:102B2000DEC40BF5DDC40CF50BC5D9F40CC5DAF425
:102B3000DEC40BF5DDC40CF50BC5F6F40CC5F7F4DB
:102B4000000EF86E360EF76407D0DFC5F5F40D0001
:102B5000E0C5F5F40C0008D0F6C4E9F4F7C4EAF4D3
:102B6000DFC5EEF4E0C5EFF411D0FE0EE350480AE5
:102B7000D8B47AD7200AD8B44FD7010AD8B424D70A
:102B80001D0AD8B49BD70E0AD8B4C0D7FC0EE350A8
:102B9000010F0B6EFD0EE3C40CF5000E0C22F40EBB
:102BA000E3C4D9F4F50EE3C4DAF40BC5DEF40CC5C6
:102BB000DDF4000E96D2F40EE3C4D9F4F50EE3C4AE
:102BC000DAF4DEC4F6F4DDC4F7F4000EF86E0800A3
:102BD000F550700AD8A434D0F40EE3C4D9F4F50E3D
:102BE000E3C4DAF4DE2A000EDD22780EE66EF10E82
:102BF000E3C4D9F4F20EE3C4DAF4020EDE5E000E92
:102C0000DD5ADEC40BF5DDC40CF50BC5D9F40CC5DB
:102C1000DAF4DEC40BF5DDC40CF50BC507F50CC505
:102C200008F5096A07C5E6F408C5E6F409C5E6F43F
:102C3000F20EE3C4E6F4E3C4E6F464ECCBF081D234
:102C4000FF0EE36AF40EE3C4D9F4F50EE3C4DAF43C
:102C5000DEC4F6F4DDC4F7F4000EF86E0800F5509B
:102C6000730AD8A40DD0F40EE3C4D9F4F50EE3C46E
:102C7000DAF4DE2A000EDD22FF0EE36AE32A4CD0EE
:102C8000F40EE3C4D9F4F50EE3C4DAF4DEC4F6F4CA
:102C9000DDC4F7F4000EF86E0800F5506C0AD8A4F5
:102CA0003BD0F40EE3C4D9F4F50EE3C4DAF4DEC489
:102CB0000BF5DDC40CF5010E0B26000E0C220BC526
:102CC000F6F40CC5F7F4000EF86E0800F5506C0A27
:102CD000D8A422D0F40EE3C4D9F4F50EE3C4DAF498
:102CE000DEC40BF5DDC40CF5020E0B26000E0C2223
:102CF0000BC5F6F40CC5F7F4000EF86E0800F5509D
:102D0000730AD8A409D0F40EE3C4D9F4F50EE3C4D1
:102D1000DAF4030EDE26AED7FF0EE350D8B422D08D
:102D2000F20EE3C4D9F4F30EE3C4DAF4020EDE5E6D
:102D3000000EDD5ADEC40BF5DDC40CF50BC5D9F46D
:102D40000CC5DAF4DEC40BF5DDC40CF50BC5E6F4F6
:102D50000CC5E6F4F40EE3C4E6F4E3C4E6F4B7EC21
:102D6000D1F0EFD1F40EE3C4D9F4F50EE3C4DAF4F4
:102D7000DEC40BF5DDC40CF5FD0E0CC5E3F4FC0E52
:102D80000BC5E3F4E150FC0FD96EE250DA6EFF0E92
:102D9000DA22DEC4F6F4DDC4F7F4000EF86E0800A3
:102DA000FE0EF5C4E3F419D0FC0EE350010F016EE2
:102DB000FC0E01C5E3F4016AFD0EE3500120016E33
:102DC000FD0E01C5E3F42AD06C0E0C6EFE0E0CC590
:102DD000E3F424D0FE0EE36A21D0FE0EE350410A54
:102DE000D8B4F2D7040AD8B4EFD7030AD8B4ECD7D2
:102DF000010AD8B4E9D70B0AD8B4D6D72D0AD8B46B
:102E0000E3D7040AD8B4E0D7030AD8B4DDD7010A5F
:102E1000D8B4DAD70B0AD8B4C7D7DCD7E150FC0F47
:102E2000D96EE250DA6EFF0EDA22DEC4F6F4DDC4AB
:102E3000F7F4000EF86E0800F550610AD8B4A6D079
:102E4000E150FC0FD96EE250DA6EFF0EDA22DEC4DA
:102E5000F6F4DDC4F7F4000EF86E0800F550410AF0
:102E6000D8B494D0E150FC0FD96EE250DA6EFF0E68
:102E7000DA22DEC4F6F4DDC4F7F4000EF86E0800C2
:102E8000F550650AD8B482D0E150FC0FD96EE250FB
:102E9000DA6EFF0EDA22DEC4F6F4DDC4F7F4000EBB
:102EA000F86E0800F550450AD8B470D0E150FC0F18
:102EB000D96EE250DA6EFF0EDA22DEC4F6F4DDC41B
:102EC000F7F4000EF86E0800F550660AD8B45ED02C
:102ED000E150FC0FD96EE250DA6EFF0EDA22DEC44A
:102EE000F6F4DDC4F7F4000EF86E0800F550460A5B
:102EF000D8B44CD0E150FC0FD96EE250DA6EFF0E20
:102F0000DA22DEC4F6F4DDC4F7F4000EF86E080031
:102F1000F550670AD8B43AD0E150FC0FD96EE250B0
:102F2000DA6EFF0EDA22DEC4F6F4DDC4F7F4000E2A
:102F3000F86E0800F550470AD8B428D0ACD0F20E8D
:102F4000E3C4D9F4F30EE3C4DAF4040EDE5E000E3B
:102F5000DD5ADEC40BF5DDC40CF50BC5D9F40CC588
:102F6000DAF4DEC409F5DEC40AF5DEC40BF5DEC40E
:102F70000CF5F80E09C5E3F4F90E0AC5E3F4FA0EF0
:102F80000BC5E3F4FB0E0CC5E3F408D0FE0EE350D2
:102F90004C0AD8B4D4D7200AD8B4D1D7FC0EE35009
:102FA000010F0B6EFD0EE3C40CF5000E0C22F40EA7
:102FB000E3C4D9F4F50EE3C4DAF40BC5DEF40CC5B2
:102FC000DDF442D0E150FC0FD96EE250DA6EFF0E14
:102FD000DA22DEC4F6F4DDC4F7F4000EF86E080061
:102FE000F550E66EF70EE3C4E6F4E3C4E6F4E3C49A
:102FF000E6F4E3C4E6F4F10EE3C4E6F4E3C4E6F475
:1030000031EC89F09ED0E150FC0FD96EE250DA6EBF
:10301000FF0EDA22DEC4F6F4DDC4F7F4000EF86E1B
:103020000800F550E66EF70EE3C4E6F4E3C4E6F4F8
:10303000E3C4E6F4E3C4E6F4F10EE3C4E6F4E3C467
:10304000E6F400EC80F07DD0E150FC0FD96EE25048
:10305000DA6EFF0EDA22DEC4F6F4DDC4F7F4000EF9
:10306000F86E0800F550410AD8B4ACD7040AD8B4B9
:10307000CAD7030AD8B4C7D7010AD8B4C4D7260A16
:10308000D8B4A0D7040AD8B4BED7030AD8B4BBD7E3
:10309000010AD8B4B8D7F40EE3C4D9F4F50EE3C4EA
:1030A000DAF4DEC4F6F4DDC4F7F4000EF86E0800BE
:1030B000F550250AD8A419D0F40EE3C4D9F4F50EBE
:1030C000E3C4DAF4DE2A000EDD22F60EE3C4E6F4F1
:1030D000E3C4E6F4250EE66E000EE66E96ECEAF02A
:1030E000010E016E000E026E2CD0F40EE3C4D9F472
:1030F000F50EE3C4DAF4DE2A000EDD225AD5F60E10
:10310000E3C4E6F4E3C4E6F4F20EE3C4D9F4F30E48
:10311000E3C4DAF4DEC4F6F4DDC4F7F4000EF86EAE
:103120000800F550E66E000EE66E96ECEAF0F40E3E
:10313000E3C4D9F4F50EE3C4DAF4DE2A000EDD228E
:10314000CFD7F20EE126FF0EE2221200170EE12683
:10315000000EE222000EE66E000EE66E200EE66E17
:10316000410EE66E7FC6E6F480C6E6F481C6E6F45C
:1031700082C6E6F4010EE66EF8ECD4F001C5E6F482
:1031800002C5E6F403C5E6F404C5E6F418ECBEF0A7
:10319000E70EE3C40BF5E80EE3C40CF5200E0B2498
:1031A000D96E000E0C20DA6E01C5DEF402C5DEF425
:1031B00003C5DEF404C5DEF4000EE66E000EE66E16
:1031C000200EE66E410EE66EA3C6E6F4A4C6E6F453
:1031D000A5C6E6F4A6C6E6F4010EE66EF8ECD4F059
:1031E00001C5E6F402C5E6F403C5E6F404C5E6F459
:1031F00018ECBEF0E70EE3C40BF5E80EE3C40CF5E3
:10320000180E0B24D96E000E0C20DA6E01C5DEF408
:1032100002C5DEF403C5DEF404C5DEF4000EE66E7E
:10322000000EE66E200EE66E410EE66E97C6E6F4E0
:1032300098C6E6F499C6E6F49AC6E6F4010EE66E80
:10324000F8ECD4F001C5E6F402C5E6F403C5E6F4F3
:1032500004C5E6F418ECBEF0E70EE3C40BF5E80E87
:10326000E3C40CF5140E0B24D96E000E0C20DA6E9C
:1032700001C5DEF402C5DEF403C5DEF404C5DEF4E8
:10328000000EE66E000EE66E200EE66E410EE66E55
:10329000AFC6E6F4B0C6E6F4B1C6E6F4B2C6E6F4EC
:1032A000010EE66EF8ECD4F001C5E6F402C5E6F4D2
:1032B00003C5E6F404C5E6F418ECBEF0E70EE3C47B
:1032C0000BF5E80EE3C40CF51C0E0B24D96E000EB2
:1032D0000C20DA6E01C5DEF402C5DEF403C5DEF4AF
:1032E00004C5DEF406015951096E5A510A6E0B6A83
:1032F0000C6A09C5E6F40AC5E6F40BC5E6F40CC58C
:10330000E6F4000EE66EF8ECD4F0E70EE3C40BF53D
:10331000E80EE3C40CF5040E0B24D96E000E0C204D
:10332000DA6E01C5DEF402C5DEF403C5DEF404C5C1
:10333000DEF406015D51096E5E510A6E0B6A0C6A7D
:1033400009C5E6F40AC5E6F40BC5E6F40CC5E6F4D7
:10335000000EE66EF8ECD4F0E70EE3C40BF5E80ED1
:10336000E3C40CF5080E0B24D96E000E0C20DA6EA7
:1033700001C5DEF402C5DEF403C5DEF404C5DEF4E7
:10338000E70EE3C40BF5E80EE3C40CF5300E0B2496
:10339000D96E000E0C20DA6E4BC5DEF44CC5DDF4A0
:1033A00006015B51096E5C510A6E0B6A0C6A09C515
:1033B000E6F40AC5E6F40BC5E6F40CC5E6F4000E27
:1033C000E66EF8ECD4F0E70EE3C40BF5E80EE3C4C8
:1033D0000CF5280E0B24D96E000E0C20DA6E01C5F8
:1033E000DEF402C5DEF403C5DEF404C5DEF4050137
:1033F000E151096EE2510A6E0B6A0C6A09C5E6F4E6
:103400000AC5E6F40BC5E6F40CC5E6F4000EE66E5C
:10341000F8ECD4F0E70EE3C40BF5E80EE3C40CF5CA
:10342000240E0B24D96E000E0C20DA6E01C5DEF4DA
:1034300002C5DEF403C5DEF404C5DEF456EC0BF081
:103440000150D8A405D005018151D8B40CEF9FF0EC
:1034500005018151D8B408D0816B4C0E0C6EFF0E63
:103460000CC5E3F4C7EF9EF0BDEC01F0FF0E01C503
:10347000E3F4C7EF9EF0030E0501866F0501862B6E
:10348000030E866501D0866BE70EE3C40BF5E80EEC
:10349000E3C40CF5020E0B24D96E000E0C20DA6E7C
:1034A00086C5DFF40CEF9FF053C6E6F454C6E6F48D
:1034B000A9ECC0F001C5E6F402C5E6F4E30EE66E41
:1034C000FF0EE66E150EE66E000EE66EE30EE124CC
:1034D000016EFF0EE220026E01C5E6F402C5E6F4BD
:1034E000080EE66E80ECD9F0E90EE124016EFF0EC5
:1034F000E220026E01C5E6F402C5E6F47AECF7F0CC
:103500000CEF9FF0E70EE3C40BF5E80EE3C40CF5F7
:103510002C0E0B24D96E000E0C20DA6E000EDE6E1F
:10352000000EDE6EE10EDE6E490E13D0E70EE3C430
:103530000BF5E80EE3C40CF52C0E0B24D96E000E2F
:103540000C20DA6E000EDE6E000EDE6E800EDE6E79
:103550003F0EDD6EE70EE3C40BF5E80EE3C40CF599
:10356000320E0B24D96E000E0C20DA6EDE2A000E0D
:10357000DD220CEF9FF09CC7E6F49DC7E6F48E0EAB
:10358000E66E070EE66E400EE66EFE0EE66E150E59
:10359000E66E000EE66EE10EE124016EFF0EE22003
:1035A000026E01C5E6F402C5E6F40A0EE66E80EC92
:1035B000D9F0E90EE124016EFF0EE220026E01C592
:1035C000E6F402C5E6F47AECF7F037C5E6F438C560
:1035D000E6F4280EE66EFE0EE66E150EE66E000EA2
:1035E000E66EE30EE124016EFF0EE220026E01C5DD
:1035F000E6F402C5E6F4080EE66E80ECD9F0E90EBA
:10360000E124016EFF0EE220026E01C5E6F402C560
:10361000E6F47AECF7F0A0C5E6F4A1C5E6F49EC5A1
:10362000E6F49FC5E6F49CC5E6F49DC5E6F49AC5AC
:10363000E6F49BC5E6F498C5E6F499C5E6F496C5AC
:10364000E6F497C5E6F494C5E6F495C5E6F492C5AC
:10365000E6F493C5E6F4D50EE66EFC0EE66E150EA6
:10366000E66E000EE66ED50EE124016EFF0EE2203E
:10367000026E01C5E6F402C5E6F4160EE66E80ECB5
:10368000D9F0E90EE124016EFF0EE220026E01C5C1
:10369000E6F402C5E6F47AECF7F0AAC5E6F4ABC5A9
:1036A000E6F4A8C5E6F4A9C5E6F4A6C5E6F4A7C500
:1036B000E6F4790EE66EFC0EE66E150EE66E000E72
:1036C000E66EDF0EE124016EFF0EE220026E01C500
:1036D000E6F402C5E6F40C0EE66E80ECD9F004D7F1
:1036E0000501C16B0501C12B000EE66E000EE66EF2
:1036F000200EE66E410EE66EB1C509F5B2C50AF5BB
:10370000000E0ABEFF0E0B6E0C6E09C5E6F40AC56C
:10371000E6F40BC5E6F40CC5E6F4010EE66EF8EC33
:10372000D4F001C5E6F402C5E6F403C5E6F404C529
:10373000E6F418ECBEF001C5E6F402C5E6F403C5F4
:10374000E6F404C5E6F4000EE66E000EE66E7A0EB0
:10375000E66E440EE66EB7C509F5B8C50AF5000E6B
:103760000ABEFF0E0B6E0C6E09C5E6F40AC5E6F440
:103770000BC5E6F40CC5E6F4010EE66EF8ECD4F0E9
:1037800001C5E6F402C5E6F403C5E6F404C5E6F4B3
:1037900018ECBEF001C5E6F402C5E6F403C5E6F494
:1037A00004C5E6F4320EE66EFC0EE66E150EE66E0D
:1037B000000EE66EDD0EE124016EFF0EE220026EC9
:1037C00001C5E6F402C5E6F40E0EE66E80ECD9F013
:1037D000E90EE124016EFF0EE220026E01C5E6F45F
:1037E00002C5E6F47AECF7F0FF0EE3C401F54C0EE7
:1037F0000118D8A486D0000EE66E000EE66E200EEC
:10380000E66E410EE66EB1C509F5B2C50AF5000EC9
:103810000ABEFF0E0B6E0C6E09C5E6F40AC5E6F48F
:103820000BC5E6F40CC5E6F4010EE66EF8ECD4F038
:1038300001C5E6F402C5E6F403C5E6F404C5E6F402
:1038400018ECBEF001C5E6F402C5E6F403C5E6F4E3
:1038500004C5E6F4000EE66E000EE66E7A0EE66E25
:10386000440EE66EB7C509F5B8C50AF5000E0ABEE6
:10387000FF0E0B6E0C6E09C5E6F40AC5E6F40BC527
:10388000E6F40CC5E6F4010EE66EF8ECD4F001C5E2
:10389000E6F402C5E6F403C5E6F404C5E6F418EC64
:1038A000BEF001C5E6F402C5E6F403C5E6F404C5BE
:1038B000E6F48A0EE66EFF0EE66E150EE66E000E5C
:1038C000E66EDD0EE124016EFF0EE220026E01C500
:1038D000E6F402C5E6F40E0EE66E80ECD9F0E90ED1
:1038E000E124016EFF0EE220026E01C5E6F402C57E
:1038F000E6F4E30EE66EFF0EE66E040EE66EAAEC4C
:10390000FFF0BDC5E6F4BEC5E6F4BFC5E6F4C0C52C
:10391000E6F4570EE66EFC0EE66E150EE66E000E31
:10392000E66EE10EE124016EFF0EE220026E01C59B
:10393000E6F402C5E6F40A0EE66E80ECD9F0E90E74
:10394000E124016EFF0EE220026E01C5E6F402C51D
:10395000E6F47AECF7F0FF0EE3C401F54C0E011823
:10396000D8A430D0BDC5E6F4BEC5E6F4BFC5E6F4C4
:10397000C0C5E6F4CD0EE66EFF0EE66E150EE66EE1
:10398000000EE66EE10EE124016EFF0EE220026EF3
:1039900001C5E6F402C5E6F40A0EE66E80ECD9F045
:1039A000E90EE124016EFF0EE220026E01C5E6F48D
:1039B00002C5E6F4E30EE66EFF0EE66E040EE66E5A
:1039C000AAECFFF0AFC5E6F4B0C5E6F4000EE66E73
:1039D000000EE66E200EE66E410EE66EB5C509F5E8
