:0400000085EF00F098
:100008003C633C633C633C633C633C63B3516A6060
:100018003C633C63A45FB35F3C633C633C633C6309
:10002800C25F3C633C633C63125F3C63235FD15F08
:100038003C633C633C63CA5E3C633C633C63B75EC1
:100048003C633C633C633C630E5A765F3C633C63B1
:100058003C633C633C633C633C633C633C633C63A0
:100068003C633C633C633C633C633C633C633C6390
:100078003C633C633C633C6342003C633C633C63DD
:100088003C5E255E3C633C63535E3C633C633C637F
:100098003C633C633C633C6342003C633C633C63BD
:1000A8003C633C633C633C633C633C633C633C6350
:1000B8003C633C633C63945D3C633C633C633C63EE
:1000C8003C633C633C633C633C633C633C633C6330
:1000D800565FFD5F3C633C633C633C633C633C634D
:1000E80042003C633C633C633C633C633C633C636D
:1000F8003C633C633C63DD5E3C633C633C633C6364
:0A010800FF0015EE84F3B2EFA1F042
:10FD6A00000001020304050607080C1014182030CD
:10FD7A00401F1E1F1E1F1F1E1F1E1F1F1D000001CA
:10FD8A0050017C7C2F2F2D2D000000000000000068
:10FD9A000000000000007C7C2F2F2D2D5C5C0000F1
:10FDAA00000000000000000000004F4F4F4F4F4F6F
:10FDBA002D2D5F5F2D000000000000000000767608
:10FDCA003C3C5E5E3E3E0000000000000000000079
:10FDDA0000002E2E2A2A7823782358587C7C2D2D31
:10FDEA000000000000002E2E6F6F4F4F6F6F000053
:10FDFA000000000000000000000056312E303520BF
:10FE0A00444355202051383420202020004D44728C
:10FE1A0076202533642E2530326456202532642E0E
:10FE2A00253032644120202020202020202020005C
:10FE3A0043257520435243256C752052432575206E
:10FE4A004543257520202020202020202020004303
:10FE5A004B2045522025642025642025642020203B
:10FE6A0020202020202020202020202000536574DC
:10FE7A00204D6F646520256420202020202020202A
:10FE8A0020202020202020202000536574204D733C
:10FE9A0067202573202020202020202020202020B9
:10FEAA0020202020200053657420466C616773204F
:10FEBA0025642025642020202020202020202020A6
:10FECA0020004D49534320427574746F6E2050725E
:10FEDA0065737365642020202020202020004C6F49
:10FEEA006720427574746F6E20507265737365640F
:10FEFA00202020202020202000255825582558255C
:10FF0A0058255825582558255820202020202020BB
:10FF1A002020004163632025732025732025734325
:10FF2A00202020202020202020200053706420251B
:10FF3A007320257320487A2020202020202020208A
:10FF4A002000436F6E742025732025732020202003
:10FF5A002020202020202000416C742042757474D7
:10FF6A006F6E20DFF42020202020202000537461AF
:10FF7A00727420557020202020202020202020204C
:10FF8A002000506F6C6C696E672050756D70202070
:10FF9A0020202020202000206572726F72206C6F52
:10FFAA0067676564200D0A00257320423A255820A8
:10FFBA002558202558202020004E6F7620323620E2
:10FFCA00323032340031373A30303A313200286E2A
:10FFDA00756C6C290025732020200044435520317C
:10FFEA00002564202573002530336400474D5400F2
:05FFFA0025732000004A
:020000040001F9
:10000000E652DDC609F5DEC60AF5DFC60BF5E0C629
:100010000CF50601DD2B000EDE23DF23E0230C5060
:100020000B100A1009E1280E095CD8B005D00501B3
:10003000E051D8B483EF85F00601DD6BDE6BDF6B3A
:10004000E06BFD0EE3C40BF5FE0EE3C40CF5070EEA
:100050000B24D96E000E0C20DA6E010EDF6E56EF07
:1000600085F0FD0EE3C40BF5FE0EE3C40CF5070EA0
:100070000B24D96E000E0C20DA6E020EDF6E36EC09
:10008000C6F030ECC6F0FD0EE3C40BF5FE0EE3C483
:100090000CF5010E0B24D96E000E0C20DA6E010E49
:1000A000DF6EFD0EE3C4D9F4FE0EE3C4DAF4FD0EF8
:1000B000E3C40BF5FE0EE3C40CF5020E0B24E96E4F
:1000C000000E0C20EA6EDFC4EFF4FD0EE3C4D9F499
:1000D000FE0EE3C4DAF4DF2AFD0EE3C4D9F4FE0E0B
:1000E000E3C4DAF40F0EDF6434D2FD0EE3C4D9F4B6
:1000F000FE0EE3C4DAF4DF6A2CD2FD0EE3C40BF586
:10010000FE0EE3C40CF5070E0B24D96E000E0C2076
:10011000DA6E040EDF6E100EE66E000EE66E580EFE
:10012000E66E070EE66E000EE66E0B0EE66E2CEC2B
:100130009EF0FED1FD0EE3C40BF5FE0EE3C40CF5FC
:10014000070E0B24D96E000E0C20DA6E050EDF6E42
:10015000100EE66E000EE66E880EE66E070EE66E78
:10016000000EE66E0B0EE66E2CEC9EF0E1D1FD0E5D
:10017000E3C40BF5FE0EE3C40CF5070E0B24D96E99
:10018000000E0C20DA6E050EDF6E100EE66E000E0D
:10019000E66E780EE66E070EE66E000EE66E0B0E4D
:1001A000E66E2CEC9EF0C4D1FD0EE3C40BF5FE0E02
:1001B000E3C40CF5070E0B24D96E000E0C20DA6E8A
:1001C000150EDF6E100EE66E000EE66E680EE66E21
:1001D000070EE66E000EE66E0B0EE66E2CEC9EF041
:1001E000A7D1FD0EE3C40BF5FE0EE3C40CF5070E1C
:1001F0000B24D96E000E0C20DA6E090EDF6E100E85
:10020000E66E000EE66E480EE66E070EE66E000E17
:10021000E66E0B0EE66E2CEC9EF08AD1FD0EE3C46A
:100220000BF5FE0EE3C40CF5070E0B24D96E000E81
:100230000C20DA6E090EDF6E100EE66E000EE66E12
:10024000380EE66E070EE66E000EE66E0B0EE66EDC
:100250002CEC9EF06DD1FD0EE3C40BF5FE0EE3C455
:100260000CF5070E0B24D96E000E0C20DA6E080E6A
:10027000DF6E100EE66E000EE66E980EE66E070E4E
:10028000E66E000EE66E0B0EE66E2CEC9EF050D184
:10029000FD0EE3C40BF5FE0EE3C40CF5070E0B24B4
:1002A000D96E000E0C20DA6E140EDF6E100EE66EA4
:1002B000000EE66E280EE66E070EE66E000EE66E87
:1002C0000B0EE66E2CEC9EF033D1FD0EE3C40BF565
:1002D000FE0EE3C40CF5920E0B24D96E010E0C2019
:1002E000DA6EDF50D8B4E5D0FD0EE3C40BF5FE0E98
:1002F000E3C40CF5070E0B24D96E000E0C20DA6E49
:10030000140EDF6E110EE66E000EE66E170EE66E30
:10031000070EE66E000EE66E0B0EE66E2CEC9EF0FF
:1003200007D1FD0EE3C4D9F4FE0EE3C4DAF40F0ED8
:10033000DF6EDDD3FD0EE3C40BF5FE0EE3C40CF55A
:10034000920E0B24D96E010E0C20DA6EDF50D8B459
:10035000B0D0FD0EE3C40BF5FE0EE3C40CF5070EA2
:100360000B24D96E000E0C20DA6E140EDF6E110E07
:10037000E66E000EE66E060EE66E070EE66E000EE8
:10038000E66E0B0EE66E2CEC9EF0D2D0FD0EE3C4B2
:100390000BF5FE0EE3C40CF5920E0B24D96E010E84
:1003A0000C20DA6EDF50D8B484D0FD0EE3C40BF518
:1003B000FE0EE3C40CF5070E0B24D96E000E0C20C4
:1003C000DA6E140EDF6E140EE66E000EE66EE40EAC
:1003D000E66E080EE66E000EE66E0B0EE66E2CEC78
:1003E0009EF0A6D0FD0EE3C40BF5FE0EE3C40CF5A3
:1003F000920E0B24D96E010E0C20DA6EDF50D8B4A9
:1004000058D0FD0EE3C40BF5FE0EE3C40CF5070E49
:100410000B24D96E000E0C20DA6E140EDF6E140E53
:10042000E66E000EE66ED00EE66E080EE66E000E6C
:10043000E66E0B0EE66E2CEC9EF07AD0FD0EE3C459
:100440000BF5FE0EE3C40CF5920E0B24D96E010ED3
:100450000C20DA6EDF50D8B42CD0FD0EE3C40BF5BF
:10046000FE0EE3C40CF5930E0B24D96E010E0C2086
:10047000DA6EDF50D8B41DD0FD0EE3C40BF5FE0ECE
:10048000E3C40CF5070E0B24D96E000E0C20DA6EB7
:10049000140EDF6E140EE66E000EE66EBC0EE66EF7
:1004A000080EE66E000EE66E0B0EE66E2CEC9EF06D
:1004B0003FD0FD0EE3C40BF5FE0EE3C40CF5010EB8
:1004C0000B24D96E000E0C20DA6EDF6A2AD7FD0EDF
:1004D000E3C40BF5FE0EE3C40CF5010E0B24D96E3C
:1004E000000E0C20DA6EDF6AFD0EE3C4D9F4FE0EB6
:1004F000E3C4DAF4DF6AFBD2FD0EE3C40BF5FE0EB3
:10050000E3C40CF5070E0B24D96E000E0C20DA6E36
:10051000060EDF6E100EE66E000EE66EA80EE66E9C
:10052000070EE66E000EE66E0B0EE66E2CEC9EF0ED
:10053000FD0EE3C40BF5FE0EE3C40CF5030E0B2415
:10054000D96E000E0C20DA6E01C5DEF402C5DDF4B2
:10055000CED2FD0EE3C40BF5FE0EE3C40CF5020E85
:100560000B24D96E000E0C20DA6EDF500B6E0C6A75
:100570000C50000AD8A4C0D70B50000AD8B4BCD77E
:10058000010AD8B4D7D5030AD8B4F1D5010AD8B432
:10059000B4D5070AD8B442D6010AD8B405D6030A9E
:1005A000D8B41FD60E0AD8B456D6010AD8B470D61D
:1005B000030AD8B48AD6010AD8B4BCD6070AD8B47C
:1005C000E5D6010AD8B40ED7030AD8B437D7010A42
:1005D000D8B47DD791D7FD0EE3C40BF5FE0EE3C46E
:1005E0000CF5070E0B24D96E000E0C20DA6E0A0EE5
:1005F000DF6E000EE66E1DECC1F004500310021019
:1006000004E1280E015CD8A072D2000EE66E4CEC1C
:10061000C5F00501CC6BFD0EE3C40BF5FE0EE3C483
:100620000CF5010E0B24D96E000E0C20DA6E020EB2
:10063000DF6E2AECC6F0FD0EE3C40BF5FE0EE3C43C
:100640000CF5070E0B24D96E000E0C20DA6E0B0E83
:100650006FD6FD0EE3C40BF5FE0EE3C40CF5070EDA
:100660000B24D96E000E0C20DA6E0C0EDF6E000E1D
:10067000096E0A6A0B6A0C6A000EE66EEDECC0F0B9
:1006800001C505F502C506F503C507F504C508F55E
:100690000C50081808E10B50071805E10A5006181D
:1006A00002E109500518D8B422D2FF0EE36A10D037
:1006B000FF0EE3500B6E0C6A000E0B24D96E0B0E6E
:1006C0000C20DA6EDF50E66E4FECC0F0FF0EE32A2E
:1006D000FD0EE3C40BF5FE0EE3C40CF5030E0B2474
:1006E000D96E000E0C20DA6EFF0EE3500B6E0C6A12
:1006F000DE500B5CDE500C58D8A0DAD7FD0EE3C4F8
:100700000BF5FE0EE3C40CF5010E0B24D96E000EA2
:100710000C20DA6E030EDF6E2AECC6F0FD0EE3C489
:100720000BF5FE0EE3C40CF5070E0B24D96E000E7C
:100730000C20DA6E0D0EDF6E010EDC27000EDD23BD
:10074000DE23DF23E06B57ECC6F00150D8A42AEC7F
:10075000C6F0FD0EE3C40BF5FE0EE3C40CF5030E6C
:100760000B24D96E000E0C20DA6EDEC40BF5DDC44E
:100770000CF5030E0B26000E0C220BC5E6F40CC57F
:10078000E6F4ECECC5F0C094B2D1FD0EE3C40BF579
:10079000FE0EE3C40CF5070E0B24D96E000E0C20E0
:1007A000DA6E0E0EDF6E000E096E0A6A0B6A0C6AB4
:1007B000000EE66EEDECC0F001C505F502C506F5CC
:1007C00003C507F504C508F50C50081808E10B50DF
:1007D000071805E10A50061802E109500518D8B4B7
:1007E00086D1FD0EE3C40BF5FE0EE3C40CF5070E37
:1007F0000B24D96E000E0C20DA6E0F0EDF6E000E89
:10080000E66E5BECC5F013D1140EE66E000EE66EDC
:10081000FB0EE3500E0F0B6EFC0EE3C40CF5000E46
:100820000C220BC5E6F40CC5E6F4F90EE3C4E6F4BD
:10083000E3C4E6F487EC85F05AD1140EE66E000EA0
:10084000E66EFB0EE350090F0B6EFC0EE3C40CF5D5
:10085000000E0C220BC5E6F40CC5E6F4F90EE3C459
:10086000E6F4E3C4E6F487EC85F041D1140EE66EBD
:10087000000EE66EFB0EE3500C0F0B6EFC0EE3C495
:100880000CF5000E0C220BC5E6F40CC5E6F4F90ECF
:10089000E3C4E6F4E3C4E6F487EC85F028D1140E53
:1008A000E66E000EE66EFB0EE3500A0F0B6EFC0EBA
:1008B000E3C40CF5000E0C220BC5E6F40CC5E6F4FF
:1008C000F90EE3C4E6F4E3C4E6F487EC85F00FD157
:1008D000140EE66E000EE66EFB0EE3500B0F0B6E71
:1008E000FC0EE3C40CF5000E0C220BC5E6F40CC59F
:1008F000E6F4F90EE3C4E6F4E3C4E6F487EC85F02D
:10090000F6D0140EE66E000EE66EFB0EE3500B0FF3
:100910000B6EFC0EE3C40CF5000E0C220BC5E6F4C6
:100920000CC5E6F4F90EE3C4E6F4E3C4E6F487ECA0
:1009300085F0DDD0140EE66E000EE66EFB0EE35081
:10094000100F0B6EFC0EE3C40CF5000E0C220BC551
:10095000E6F40CC5E6F4F90EE3C4E6F4E3C4E6F409
:1009600087EC85F0C4D0140EE66E000EE66EFB0E2A
:10097000E350110F0B6EFC0EE3C40CF5000E0C22BD
:100980000BC5E6F40CC5E6F4F90EE3C4E6F4E3C4E3
:10099000E6F487EC85F0ABD0100EE66E000EE66E46
:1009A000FB0EE350110F0B6EFC0EE3C40CF5000EB2
:1009B0000C220BC5E6F40CC5E6F4F90EE3C4E6F42C
:1009C000E3C4E6F487EC85F092D0140EE66E000ED8
:1009D000E66EFB0EE350110F0B6EFC0EE3C40CF53C
:1009E000000E0C220BC5E6F40CC5E6F4F90EE3C4C8
:1009F000E6F4E3C4E6F487EC85F079D0140EE66EF5
:100A0000000EE66EFB0EE350080F0B6EFC0EE3C407
:100A10000CF5000E0C220BC5E6F40CC5E6F4F90E3D
:100A2000E3C4E6F4E3C4E6F487EC85F060D0FD0EA1
:100A3000E3C40BF5FE0EE3C40CF5020E0B24D96ED5
:100A4000000E0C20DA6EDF500B6E0C6A0C50000AA0
:100A5000D8A4D4D70B50000AD8B4D0D7010AD8B440
:100A600037D7030AD8B44DD7010AD8B418D7070A24
:100A7000D8B4E3D6010AD8B4F9D6030AD8B4C4D698
:100A80000E0AD8B457D7010AD8B46DD7030AD8B420
:100A900083D7010AD8B480D7070AD8B496D7010AF9
:100AA000D8B493D7030AD8B490D7A8D7FD0EE3C41F
:100AB0000BF5FE0EE3C40CF5010E0B24D96E000EEF
:100AC0000C20DA6EDF500B6E0C6A0C50000AD8A4B2
:100AD0000ED00B50000AD8B431EF80F0010AD8B420
:100AE0007AD5030AD8B4B5D5010AD8B44ED6FD0ECE
:100AF000E3C40BF5FE0EE3C40CF5070E0B24D96E10
:100B0000000E0C20DA6EE552E552E5521200100E8E
:100B1000E126000EE222FB0EE36AFC0EE36A010E00
:100B20000B6E000E0C6EFD0E0BC5E3F4FE0E0CC535
:100B3000E3F4E150EA0FD96EE250DA6EFF0EDA22EA
:100B4000EE0EE3C40BF5EF0EE3C40CF5030E0B241D
:100B5000E96E000E0C20EA6EDEC4EEF4DDC4EDF4A6
:100B6000EE0EE3C40BF5EF0EE3C40CF5030E0B24FD
:100B7000D96E000E0C20DA6E0501CC510B6E0C6A9A
:100B8000DE500B5CDE500C58D8A01BEF8AF0000E34
:100B9000E66E090EE66E5AECB6F0FF0E01C5E3F400
:100BA000FF0EE3C401F5060E0118D8A421D0EA0E09
:100BB000E350E66E000EE66E090EE66E44ECB0F011
:100BC00001500B6E0C6AFB0E0BC5E3F4FC0E0CC55A
:100BD000E3F4000EE66E090EE66EBAECBBF00150CF
:100BE0000B6E0C6AFD0E0BC5E3F4FE0E0CC5E3F4B0
:100BF000FF0EE3C401F5030E0118D8A421D0EA0EBC
:100C0000E350E66E000EE66E090EE66E44ECB0F0C0
:100C100001500B6E0C6AFB0E0BC5E3F4FC0E0CC509
:100C2000E3F4000EE66E090EE66E8AECBBF00150AE
:100C30000B6E0C6AFD0E0BC5E3F4FE0E0CC5E3F45F
:100C4000FF0EE3C401F5030E016410D0FB0EE3C4F4
:100C500001F5FD0E01C5E3F4FC0EE3C401F5FE0E43
:100C600001C5E3F4FF0EE36AE382E384E150FB0F86
:100C7000D96EE250DA6EFF0EDA22FD0EE350DE1876
:100C800004E1FE0EE350DE18D8A441D3000EE66E58
:100C9000090EE66E7DECB1F02F0E011841E1020461
:100CA000D8A43ED0FA0EE36A1ED0FA0EE3500B6EC3
:100CB0000C6A0A0E0B24D96E090E0C20DA6EFA0E9D
:100CC000E3500B6E0C6AEE0EE3500B26EF0EE35072
:100CD0000C22110E0B24E96E010E0C20EA6EDFC40B
:100CE000EFF4FA0EE32AE150FA0FD96EE250DA6E11
:100CF000FF0EDA22FF0EE350DE5CD8A0D6D7FF0E3F
:100D0000E3500B6E0C6AEE0EE3500B26EF0EE35031
:100D10000C22110E0B24D96E010E0C20DA6EDF6A44
:100D2000000EE66E090EE66E7DECB1F04B0E01187A
:100D300041E10204D8A43ED0F90EE36A1ED0F90EB8
:100D4000E3500B6E0C6A0A0E0B24D96E090E0C20B0
:100D5000DA6EF90EE3500B6E0C6AEE0EE3500B26C2
:100D6000EF0EE3500C22710E0B24E96E010E0C20E5
:100D7000EA6EDFC4EFF4F90EE32AE150F90FD96E01
:100D8000E250DA6EFF0EDA22FF0EE350DE5CD8A0EE
:100D9000D6D7FF0EE3500B6E0C6AEE0EE3500B2617
:100DA000EF0EE3500C22710E0B24D96E010E0C20B5
:100DB000DA6EDF6A000EE66E090EE66E7DECB1F0CB
:100DC000350E011841E10204D8A43ED0F80EE36AC2
:100DD0001ED0F80EE3500B6E0C6A0A0E0B24D96E6F
:100DE000090E0C20DA6EF80EE3500B6E0C6AEE0E54
:100DF000E3500B26EF0EE3500C22310E0B24E96E6C
:100E0000000E0C20EA6EDFC4EFF4F80EE32AE15086
:100E1000F80FD96EE250DA6EFF0EDA22FF0EE350C1
:100E2000DE5CD8A0D6D7FF0EE3500B6E0C6AEE0E38
:100E3000E3500B26EF0EE3500C22310E0B24D96E3B
:100E4000000E0C20DA6EDF6A000EE66E090EE66E0A
:100E50007DECB1F0340E011841E10204D8A43ED07B
:100E6000F70EE36A1ED0F70EE3500B6E0C6A0A0E03
:100E70000B24D96E090E0C20DA6EF70EE3500B6EC0
:100E80000C6AEE0EE3500B26EF0EE3500C22310EEF
:100E90000B24E96E010E0C20EA6EDFC4EFF4F70EAE
:100EA000E32AE150F70FD96EE250DA6EFF0EDA2234
:100EB000FF0EE350DE5CD8A0D6D7FF0EE3500B6EDA
:100EC0000C6AEE0EE3500B26EF0EE3500C22310EAF
:100ED0000B24D96E010E0C20DA6EDF6A000EE66E6E
:100EE000090EE66E7DECB1F0170E01180210D8A4C1
:100EF0003ED0F60EE36A1ED0F60EE3500B6E0C6A7F
:100F00000A0E0B24D96E090E0C20DA6EF60EE35091
:100F10000B6E0C6AEE0EE3500B26EF0EE3500C2224
:100F2000510E0B24E96E000E0C20EA6EDFC4EFF4C4
:100F3000F60EE32AE150F60FD96EE250DA6EFF0E9C
:100F4000DA22FF0EE350DE5CD8A0D6D7FF0EE350C6
:100F50000B6E0C6AEE0EE3500B26EF0EE3500C22E4
:100F6000510E0B24D96E000E0C20DA6EDF6A000ED3
:100F7000E66E090EE66E7DECB1F0360E011841E129
:100F80000204D8A43ED0F50EE36A1ED0F50EE3505D
:100F90000B6E0C6A0A0E0B24D96E090E0C20DA6E49
:100FA000F50EE3500B6E0C6AEE0EE3500B26EF0EBF
:100FB000E3500C22710E0B24E96E000E0C20EA6E39
:100FC000DFC4EFF4F50EE32AE150F50FD96EE250DD
:100FD000DA6EFF0EDA22FF0EE350DE5CD8A0D6D721
:100FE000FF0EE3500B6E0C6AEE0EE3500B26EF0E75
:100FF000E3500C22710E0B24D96E000E0C20DA6E19
:10100000DF6A000EE66E090EE66E7DECB1F0390E79
:10101000011841E10204D8A43ED0F40EE36A1ED0C8
:10102000F40EE3500B6E0C6A0A0E0B24D96E090EF7
:101030000C20DA6EF40EE3500B6E0C6AEE0EE350E9
:101040000B26EF0EE3500C22F10E0B24E96E000E7E
:101050000C20EA6EDFC4EFF4F40EE32AE150F40F43
:10106000D96EE250DA6EFF0EDA22FF0EE350DE5C3C
:10107000D8A0D6D7FF0EE3500B6E0C6AEE0EE350ED
:101080000B26EF0EE3500C22F10E0B24D96E000E4E
:101090000C20DA6EDF6A000EE66E090EE66E7DEC5D
:1010A000B1F0330E01183DE10204D8A43AD0F30E9A
:1010B000E36A1ED0F30EE3500B6E0C6A0A0E0B248B
:1010C000D96E090E0C20DA6EF30EE3500B6E0C6A2B
:1010D000EE0EE3500B26EF0EE3500C22910E0B2484
:1010E000E96E000E0C20EA6EDFC4EFF4F30EE32A83
:1010F000E150F30FD96EE250DA6EFF0EDA22FF0EE6
:10110000E350DE5CD8A0D6D7EE0EE3C40BF5EF0EAD
:10111000E3C40CF5920E0B24D96E000E0C20DA6E8F
:10112000DF6A000EE66E090EE66E7DECB1F05D0E34
:10113000011841E10204D8A43ED0F20EE36A1ED0A9
:10114000F20EE3500B6E0C6A0A0E0B24D96E090ED8
:101150000C20DA6EF20EE3500B6E0C6AEE0EE350CA
:101160000B26EF0EE3500C22B10E0B24E96E000E9D
:101170000C20EA6EDFC4EFF4F20EE32AE150F20F26
:10118000D96EE250DA6EFF0EDA22FF0EE350DE5C1B
:10119000D8A0D6D7FF0EE3500B6E0C6AEE0EE350CC
:1011A0000B26EF0EE3500C22B10E0B24D96E000E6D
:1011B0000C20DA6EDF6A000EE66E090EE66E7DEC3C
:1011C000B1F0380E011841E10204D8A43ED0F10E6E
:1011D000E36A1ED0F10EE3500B6E0C6A0A0E0B246C
:1011E000D96E090E0C20DA6EF10EE3500B6E0C6A0C
:1011F000EE0EE3500B26EF0EE3500C22D10E0B2423
:10120000E96E000E0C20EA6EDFC4EFF4F10EE32A63
:10121000E150F10FD96EE250DA6EFF0EDA22FF0EC6
:10122000E350DE5CD8A0D6D7FF0EE3500B6E0C6AFD
:10123000EE0EE3500B26EF0EE3500C22D10E0B24E2
:10124000D96E000E0C20DA6EDF6A000EE66E090E13
:10125000E66E7DECB1F01B0E01180210D8A43ED052
:10126000F00EE36A1ED0F00EE3500B6E0C6A0A0E0D
:101270000B24D96E090E0C20DA6EF00EE3500B6EC3
:101280000C6AEE0EE3500B26EF0EE3500C22510ECB
:101290000B24E96E010E0C20EA6EDFC4EFF4F00EB1
:1012A000E32AE150F00FD96EE250DA6EFF0EDA2237
:1012B000FF0EE350DE5CD8A0D6D7FF0EE3500B6ED6
:1012C0000C6AEE0EE3500B26EF0EE3500C22510E8B
:1012D0000B24D96E010E0C20DA6EDF6ABF92EC0E81
:1012E000E3C4D9F4ED0EE3C4DAF4010EDF6EEE0EC2
:1012F000E3C40BF5EF0EE3C40CF5910E0B24D96E8D
:10130000010E0C20DA6E010EDF6EBF9286D0BF8216
:10131000EC0EE3C4D9F4ED0EE3C4DAF4DF6AEE0EAA
:10132000E3C40BF5EF0EE3C40CF5080E0B24D96EE5
:10133000000E0C20DA6EDF6AEE0EE3C40BF5EF0E42
:10134000E3C40CF50A0E0B24D96E000E0C20DA6EE5
:10135000DF6AEE0EE3C40BF5EF0EE3C40CF5090EE5
:101360000B24D96E000E0C20DA6EDF6AEE0EE3C499
:101370000BF5EF0EE3C40CF50B0E0B24D96E000E2B
:101380000C20DA6EDF6AEE0EE3C40BF5EF0EE3C459
:101390000CF50C0E0B24D96E000E0C20DA6EDF6AF1
:1013A000EE0EE3C40BF5EF0EE3C40CF50E0E0B24AA
:1013B000D96E000E0C20DA6EDF6AEE0EE3C40BF578
:1013C000EF0EE3C40CF50D0E0B24D96E000E0C20AD
:1013D000DA6EDF6AFD0EE3C4E6F4E3C4E6F4F90E68
:1013E000E3C4E6F4E3C4E6F487ECC0F0000EE66E76
:1013F000090EE66E7DECB1F0EE0EE3C40BF5EF0ED8
:10140000E3C40CF5050E0B24D96E000E0C20DA6E29
:1014100001C5DEF402C5DDF4BF82EE0EE3C40BF5B8
:10142000EF0EE3C40CF5010E0B24D96E000E0C2058
:10143000DA6EDF6AA2D0000EE66EEDECC0F004506A
:101440000310021004E1C80E015CD8A096D0EE0E85
:10145000E3C40BF5EF0EE3C40CF5010E0B24D96EBB
:10146000000E0C20DA6EDF6AEE0EE3C4D9F4EF0E44
:10147000E3C4DAF4DF6A010E0501D827000ED92390
:10148000DA23DB23CE4BCF2BEE0EE3C40BF5EF0EAE
:10149000E3C40CF5080E0B24D96E000E0C20DA6E96
:1014A000DF6AEC0EE3C4D9F4ED0EE3C4DAF4DF6ACC
:1014B000EE0EE3C40BF5EF0EE3C40CF50A0E0B249D
:1014C000D96E000E0C20DA6EDF6AEE0EE3C40BF567
:1014D000EF0EE3C40CF5090E0B24D96E000E0C20A0
:1014E000DA6EDF6AEE0EE3C40BF5EF0EE3C40CF523
:1014F0000B0E0B24D96E000E0C20DA6EDF6AEE0E96
:10150000E3C40BF5EF0EE3C40CF50C0E0B24D96EFF
:10151000000E0C20DA6EDF6AEE0EE3C40BF5EF0E60
:10152000E3C40CF50E0E0B24D96E000E0C20DA6EFF
:10153000DF6AEE0EE3C40BF5EF0EE3C40CF50D0EFF
:101540000B24D96E000E0C20DA6EDF6A000EE66EF8
:10155000090EE66E7DECB1F0EE0EE3C40BF5EF0E76
:10156000E3C40CF5050E0B24D96E000E0C20DA6EC8
:1015700001C5DEF402C5DDF4BF82EA0EE126FF0EEE
:10158000E22212002D0EE126000EE222CF0EE350E1
:10159000800F096ED00EE3C40AF5A20E0A22D10E06
:1015A000E3C40BF5430E0B22D20EE3C40CF5C70EB9
:1015B0000C22E80E09C5E3F4E90E0AC5E3F4EA0ECD
:1015C0000BC5E3F4EB0E0CC5E3F4CF0EE3C401F559
:1015D000810E015ED00EE3C401F55D0E015AD10EFD
:1015E000E3C401F5BC0E015AD20EE3C401F5380E76
:1015F000015AD8A033D0800EE66E510EE66E010E71
:10160000E66E000EE66EE40EE3C4E6F4E3C4E6F430
:10161000E3C4E6F4E3C4E6F4BCECABF0EC0E01C5C5
:10162000E3F4ED0E02C5E3F4EE0E03C5E3F4EF0EB2
:1016300004C5E3F4800EE66E510EE66E010EE66E12
:10164000000EE66EE40EE3C4E6F4E3C4E6F4E3C49D
:10165000E6F4E3C4E6F46EECAFF032D0800EE66E52
:10166000510EE66E010EE66E000EE66EE40EE3C469
:10167000E6F4E3C4E6F4E3C4E6F4E3C4E6F430ECF1
:10168000A4F0EC0E01C5E3F4ED0E02C5E3F4EE0E9A
:1016900003C5E3F4EF0E04C5E3F4800EE66E510ECD
:1016A000E66E010EE66E000EE66EE40EE3C4E6F4AE
:1016B000E3C4E6F4E3C4E6F4E3C4E6F428ECA7F0FC
:1016C000D80E01C5E3F4D90E02C5E3F4DA0E03C562
:1016D000E3F4DB0E04C5E3F4DB0EE3AE1BD0E15014
:1016E000D80FD96EE250DA6EFF0EDA22800EDE26B7
:1016F000510EDE22010EDE22000EDE22E150EC0F42
:10170000D96EE250DA6EFF0EDA22DE06000EDE5AE5
:10171000DE5ADE5A070EE66E000EE66E000EE66E2C
:10172000000EE66EE80EE350030F096EE90EE3C407
:101730000AF5000E0A22EA0EE3C40BF5000E0B2296
:10174000EB0EE3C40CF5000E0C2209C5E6F40AC545
:10175000E6F40BC5E6F40CC5E6F428ECA7F001C5E9
:101760000BF502C50CF5FE0E0BC5E3F4FF0E0CC520
:10177000E3F4FF0EE3AE0FD0FE0EE350070F016E51
:10178000FE0E01C5E3F4016AFF0EE3500120016E75
:10179000FF0E01C5E3F4B10EE66E3A0EE66E020EE0
:1017A000E66E000EE66EE80EE3C4E6F4E3C4E6F48B
:1017B000E3C4E6F4E3C4E6F430ECA4F0F00E01C5B3
:1017C000E3F4F10E02C5E3F4F20E03C5E3F4F30E05
:1017D00004C5E3F4B10EE66E3A0EE66E020EE66E56
:1017E000000EE66EE80EE3C4E6F4E3C4E6F4E3C4F8
:1017F000E6F4E3C4E6F428ECA7F0D40E01C5E3F464
:10180000D50E02C5E3F4D60E03C5E3F4D70E04C526
:10181000E3F4D70EE3AE1BD0E150D40FD96EE25003
:10182000DA6EFF0EDA22B10EDE263A0EDE22020E4C
:10183000DE22000EDE22E150F00FD96EE250DA6EA9
:10184000FF0EDA22DE06000EDE5ADE5ADE5AAC0E3B
:10185000E66E8E0EE66E000EE66E000EE66ED00EA2
:10186000E3C4E6F4E3C4E6F4E3C4E6F4E3C4E6F474
:1018700030ECA4F0E00E01C5E3F4E10E02C5E3F4A0
:10188000E20E03C5E3F4E30E04C5E3F4E00EE3C4A3
:1018900001F5040E011816E1E10EE35013E1E20E2A
:1018A000E35010E1E30EE350D8A40CD0E150E00F78
:1018B000D96EE250DA6EFF0EDA22DE06000EDE5A34
:1018C000DE5ADE5AAC0EE66E8E0EE66E000EE66E48
:1018D000000EE66EDC0EE3C4E6F4E3C4E6F4E3C413
:1018E000E6F4E3C4E6F4E1ECB1F0E150D40FD96ED4
:1018F000E250DA6EFF0EDA220150DE5E0250DE5A4E
:101900000350DE5A0450DE5AB50EE66E050EE66E42
:10191000000EE66E000EE66ED00EE3C4E6F4E3C4FD
:10192000E6F4E3C4E6F4E3C4E6F430ECA4F0DC0E41
:1019300001C5E3F4DD0E02C5E3F4DE0E03C5E3F4F6
:10194000DF0E04C5E3F4DC0EE3C401F5190E011843
:1019500016E1DD0EE35013E1DE0EE35010E1DF0E81
:10196000E350D8A40CD0E150DC0FD96EE250DA6E0F
:10197000FF0EDA22DE06000EDE5ADE5ADE5AB50E01
:10198000E66E050EE66E000EE66E000EE66ED80EF2
:10199000E3C4E6F4E3C4E6F4E3C4E6F4E3C4E6F443
:1019A000E1ECB1F0E150D40FD96EE250DA6EFF0EE7
:1019B000DA220150DE5E0250DE5A0350DE5A045035
:1019C000DE5A6D0EE66E010EE66E000EE66E000E3D
:1019D000E66ED00EE3C4E6F4E3C4E6F4E3C4E6F452
:1019E000E3C4E6F430ECA4F0E40E01C5E3F4E50E44
:1019F00002C5E3F4E60E03C5E3F4E70E04C5E3F421
:101A0000E40EE3C401F5040E011816E1E50EE350FF
:101A100013E1E60EE35010E1E70EE350D8A40CD03A
:101A2000E150E40FD96EE250DA6EFF0EDA22DE06E4
:101A3000000EDE5ADE5ADE5A6D0EE66E010EE66EBE
:101A4000000EE66E000EE66EE00EE3C4E6F4E3C4BC
:101A5000E6F4E3C4E6F4E3C4E6F4E1ECB1F0E1500B
:101A6000D40FD96EE250DA6EFF0EDA220150DE5E3C
:101A70000250DE5A0350DE5A0450DE5AD30EE36A97
:101A8000E40EE35027E1E50EE35024E1E60EE350D7
:101A900021E1E70EE350D8A41DD0DC0EE35017E19E
:101AA000DD0EE35014E1DE0EE35011E1DF0EE350F2
:101AB000D8A40DD0E00EE3500DE1E10EE3500AE1B1
:101AC000E20EE35007E1E30EE350D8A403D0D30EB7
:101AD000E36AE32AD30EE3500B6E0C6AFA0E0BC5D1
:101AE000E3F4FB0E0CC5E3F4FA0EE3C40BF5FB0EB6
:101AF000E3C40CF5D40EE3500B26D50EE3500C22B4
:101B00003B0E0B26000E0C22FC0E0BC5E3F4FD0E63
:101B10000CC5E3F4FA0EE3506D0F0B6EFB0EE3C43D
:101B20000CF5010E0C22FC0EE3C401F50B50015C18
:101B3000FD0EE350800A016E0C50800A0158D8A0B7
:101B400019D0FA0EE3506D0F0B6EFB0EE3C40CF5CB
:101B5000010E0C22FC0EE3C401F50B50015EFC0EDD
:101B600001C5E3F4FD0EE3C401F50C50015AFD0E6E
:101B700001C5E3F4DC0EE3C409F5DD0EE3C40AF5A8
:101B8000DE0EE3C40BF5DF0EE3C40CF5020ED890B5
:101B900009360A360B360C36E82EF9D7900EE66E6B
:101BA000010EE66E000EE66E000EE66EEC0EE3C46D
:101BB000E6F4E3C4E6F4E3C4E6F4E3C4E6F4E1ECFB
:101BC000B1F001C505F502C506F503C507F504C565
:101BD00008F5640EE66E000EE66E000EE66E000E70
:101BE000E66EDC0EE3C4E6F4E3C4E6F4E3C4E6F434
:101BF000E3C4E6F4E1ECB1F0015005260250062200
:101C0000035007220450082209500524016E0A508F
:101C10000620026E0B500720036E0C500820046E45
:101C2000E40EE3500126E50EE3500222E60EE350F7
:101C30000322E70EE3500422F40E01C5E3F4F50E8F
:101C400002C5E3F4F60E03C5E3F4F70E04C5E3F4AE
:101C5000F80EE36AF90EE36A2CD0E150D40FD96E86
:101C6000E250DA6EFF0EDA22F80EE3C40BF5F90E3D
:101C7000E3C40CF57B0E0B24F66EFD0E0C20F76E04
:101C8000F86A000EF8220800F550DE5E000EDE5AFB
:101C9000DE5ADE5AF80EE350010F016EF80E01C550
:101CA000E3F4016AF90EE3500120016EF90E01C55B
:101CB000E3F4F80EE3C40BF5F90EE3C40CF57B0E68
:101CC0000B24F66EFD0E0C20F76EF86A000EF8225B
:101CD0000800F5C40CF50CC505F5066A076A086A24
:101CE000D40EE3C401F50550015CD50EE3C401F543
:101CF00006500158D60EE3C401F507500158D70E1F
:101D0000E350800A016E0850800A0158D8B0A5D768
:101D1000F90EE3BE21D0F90EE35007E1F80EE3C45B
:101D200001F50A0E015ED8A017D0E150F80FD96E68
:101D3000E250DA6EFF0EDA22F40EDE26FF0EDD220E
:101D4000E150F40FD96EE250DA6EFF0EDA22DE2A8D
:101D5000000EDE22DE22DE22F40EE350640F0B6E54
:101D6000F50EE3C40CF5000E0C22CD0EE3C409F50C
:101D7000CE0EE3C40AF50A0E0924D96E000E0A201D
:101D8000DA6E0BC5DEF40CC5DDF4F80EE350020F7D
:101D90000B6EF90EE3C40CF5000E0C22CD0EE3C45D
:101DA00009F5CE0EE3C40AF5080E0924D96E000E1B
:101DB0000A20DA6E0BC5DEF40CC5DDF4D40EE35058
:101DC000010F0B6ED50EE3C40CF5000E0C22CD0EE8
:101DD000E3C409F5CE0EE3C40AF5060E0924D96E54
:101DE000000E0A20DA6E0BC5DEF40CC5DDF4E150FE
:101DF000FE0FD96EE250DA6EFF0EDA22CD0EE3C48A
:101E00000BF5CE0EE3C40CF50C0E0B24E96E000EA0
:101E10000C20EA6EDEC4EEF4DDC4EDF4E150FC0FFC
:101E2000D96EE250DA6EFF0EDA22CD0EE3C40BF566
:101E3000CE0EE3C40CF50E0E0B24E96E000E0C2042
:101E4000EA6EDEC4EEF4DDC4EDF4100EE66E0E0EA6
:101E5000E66E000EE66E000EE66ED40EE3C4E6F407
:101E6000E3C4E6F4E3C4E6F4E3C4E6F430ECA4F03F
:101E700001C50BF502C50CF5CD0EE3C409F5CE0E78
:101E8000E3C40AF5040E0924D96E000E0A20DA6EA6
:101E90000BC5DEF40CC5DDF43C0EE66E000EE66EFE
:101EA000000EE66E000EE66E3C0EE66E000EE66E6E
:101EB000000EE66E000EE66ED00EE3C4E6F4E3C458
:101EC000E6F4E3C4E6F4E3C4E6F430ECA4F001C5C0
:101ED000E6F402C5E6F403C5E6F404C5E6F428EC2E
:101EE000A7F001C50BF502C50CF5CD0EE3C409F54D
:101EF000CE0EE3C40AF5020E0924D96E000E0A20A4
:101F0000DA6E0BC5DEF40CC5DDF43C0EE66E000E99
:101F1000E66E000EE66E000EE66ED40EE3C4E6F446
:101F2000E3C4E6F4E3C4E6F4E3C4E6F428ECA7F083
:101F300001C50BF502C50CF5CD0EE3C4D9F4CE0EE8
:101F4000E3C4DAF40BC5DEF40CC5DDF4000E016E5B
:101F5000000E026ECD0EE126FF0EE22212001D0ED3
:101F6000E126000EE22221ECBDF05CECB9F0D68E49
:101F7000D68C380EE66E520EE66E010EE66EA6ECBC
:101F8000C3F069ECC6F0040EE66E7C0EE66E010E40
:101F9000E66EC8ECC3F075ECC6F0D40EE66E770EB4
:101FA000E66E010EE66EB7ECC3F06FECC6F017EC10
:101FB000B1F0D2ECC1F0D00EE66E7C0EE66E010EF2
:101FC000E66EEBECC2F0140EE66E000EE66E020E4C
:101FD000E66E33ECC0F0A1ECC0F0C80EE66E000E69
:101FE000E66E030EE66E33ECC0F0B1ECADF0040E1D
:101FF000E66EFE0EE66EDF0EE66EFF0EE66E000E7D
:10200000E66E020EE66EF00EE66E130EE66E080E3B
:10201000E66E8CECA2F0F00EE66E130EE66E000E8D
:10202000E66E000EE66E63ECB3F0C30EE66EFF0ED6
:10203000E66EDF0EE66EFF0EE66E000EE66E020E38
:10204000E66EF00EE66E130EE66E080EE66E8CEC93
:10205000A2F0F00EE66E130EE66E000EE66E010EB6
:10206000E66E63ECB3F0F150E66E000EE66EF050F3
:10207000E66E000EE66ED850E66E000EE66ECF0EEF
:10208000E66EFF0EE66EB20EE66EFF0EE66E000E18
:10209000E66E020EE66EF00EE66E130EE66E0E0EA5
:1020A000E66E8CECA2F0F00EE66E130EE66E000EFD
:1020B000E66E020EE66E63ECB3F0770EE66EFF0E90
:1020C000E66EFA0EE66EFF0EE66E000EE66E020E8D
:1020D000E66EF00EE66E130EE66E080EE66E8CEC03
:1020E000A2F0F00EE66E130EE66E000EE66E030E24
:1020F000E66E63ECB3F0400EE66E420EE66E0F0E37
:10210000E66E000EE66EC2ECBAF08C0EE66EFF0EC6
:10211000E66EFA0EE66EFF0EE66E000EE66E020E3C
:10212000E66EF00EE66E130EE66E080EE66E8CECB2
:10213000A2F0F00EE66E130EE66E000EE66E020ED4
:10214000E66E63ECB3F00601316B326BFF0EE36AAF
:10215000FF0EE350020DF3C409F5F4C40AF5000EB6
:102160000ABEFF0E0B6E0C6E000E0924046E000EEC
:102170000A20056E2C0E0B20066E04C5E6F405C57C
:10218000E6F406C5E6F4A8ECA9F0FF0EE350020D54
:10219000480EF324D96E060EF420DA6E01C5DEF483
:1021A00002C5DDF4FF0EE350020D480EF324D96E94
:1021B000060EF420DA6EDE5006013127DD503223A0
:1021C000FF0EE32AFF0EE3C401F5080E0164C0D739
:1021D000316B326B56C6E6F457C6E6F454C6E6F4E5
:1021E00055C6E6F452C6E6F453C6E6F450C6E6F425
:1021F00051C6E6F44EC6E6F44FC6E6F44CC6E6F425
:102200004DC6E6F44AC6E6F44BC6E6F448C6E6F424
:1022100049C6E6F4030EE66EFF0EE66E150EE66E98
:10222000000EE66ED50EE124016EFF0EE220026E76
:1022300001C5E6F402C5E6F4160EE66E8CECA2F0DB
:10224000E90EE124016EFF0EE220026E01C5E6F404
:1022500002C5E6F4BEECB5F0E10EE66E050EE66EE4
:1022600088ECC5F001C5E4F602C5E5F6C18AF00EBA
:10227000E66E150EE66E00EC80F006011951D8B43A
:1022800017D08AECBEF00601196B010151B302D0E0
:10229000010E01D0000E010B06013A6F3A51D8A48D
:1022A00004D0000E6100A1F3FFF56500ECF73BF6EA
:1022B000030EE66EB5ECC2F00150D8B43BD22E2A24
:1022C0002E040C6E040E0C6401D02E6AC80EE66E4D
:1022D000000EE66E030EE66E33ECC0F025EEFBF169
:1022E000DF50D8B48CD00501CE51096ECF510A6EA3
:1022F0000B6A0C6A095006010C5D0A500D590B500F
:102300000E590C500F59D8B07AD0E50EE66EFF0E7C
:10231000E66E000EE66E020EE66EF00EE66E130E30
:10232000E66E060EE66E8CECA2F0F00EE66E130E74
:10233000E66E000EE66E010EE66E63ECB3F0A10EE3
:10234000E66EFF0EE66E000EE66E020EE66EF00E14
:10235000E66E110EE66E060EE66E8CECA2F02D50C7
:10236000D8A437D025EEF3F1DEC40BF5DDC40CF5AF
:102370000BC5E6F40CC5E6F40501CC51E66E000E83
:10238000E66ED4C5E6F4D5C5E6F4D6C5E6F4D7C501
:10239000E6F425EEF2F1DF50E66E000EE66E3A0E40
:1023A000E66EFE0EE66E000EE66E020EE66EF00EB5
:1023B000E66E130EE66E100EE66E8CECA2F0F00EDA
:1023C000E66E130EE66E000EE66E000EE66E63EC31
:1023D000B3F02D2A2D040C6E090E0C64ABD1030E44
:1023E0000501CE250B6E000ECF210C6E0BC50CF631
:1023F0000CC50DF606010E6B0F6B2D6A9BD16500A7
:10240000C4F7E8F4030AD8B405D025EEF1F1DF50A3
:10241000D8A490D106013C51D8A4DDD00501CE6BE3
:10242000CF6B610EE66E170EE66E010EE66E170EAE
:10243000E66E810EE66E160EE66E1D0EE66EFF0E61
:10244000E66E000EE66E020EE66EF00EE66E130EFF
:10245000E66E0C0EE66E8CECA2F0F00EE66E130E3D
:10246000E66E000EE66E000EE66E63ECB3F0E10E73
:10247000E66E160EE66ED6ECA7F0E30E01C5E3F4A9
:10248000E40E02C5E3F4E30EE3C4E6F4E3C4E6F4C9
:10249000FAECBCF0E70EA0C5E3F4E80EA1C5E3F446
:1024A000E50E9EC5E3F4E60E9FC5E3F4610EE66E0D
:1024B000160EE66ED6ECA7F0E30E01C5E3F4E40ECB
:1024C00002C5E3F4E30EE3C4E6F4E3C4E6F4FAEC95
:1024D000BCF09EC5E6F49FC5E6F4A0C5E6F4A1C530
:1024E000E6F4E10EE3C4E6F4E3C4E6F4E10EE3C48B
:1024F000E6F4E3C4E6F4170EE66EFE0EE66E000E9A
:10250000E66E020EE66EF00EE66E130EE66E0E0E30
:10251000E66E8CECA2F0F00EE66E130EE66E000E88
:10252000E66E010EE66E63ECB3F0C10EE66E160EBB
:10253000E66EA10EE66E160EE66E4C0EE66EFF0E11
:10254000E66E000EE66E020EE66EF00EE66E130EFE
:10255000E66E0A0EE66E8CECA2F025EE81F3DF50FB
:10256000D8B40DD0000E6100A1F381F7000EE66E25
:10257000040EE66E94ECAEF0610005F403F4F00E88
:10258000E66E130EE66E000EE66E020EE66E63EC6D
:10259000B3F0210EE66E170EE66E210EE66E160EF5
:1025A000E66E350EE66EFF0EE66E000EE66E020E6D
:1025B000E66EF00EE66E130EE66E0A0EE66E8CEC1C
:1025C000A2F0F00EE66E130EE66E000EE66E030E3F
:1025D000E66E63ECB3F006013C51D8B4ABD0050114
:1025E000CE6BCF6B25EE83F3DF50E66E000EE66E0A
:1025F00025EE82F3DF50E66E000EE66EB00EE66E5C
:10260000FE0EE66E000EE66E020EE66EF00EE66E52
:10261000130EE66E0A0EE66E8CECA2F0F00EE66E7D
:10262000130EE66E000EE66E000EE66E63ECB3F07F
:10263000410EE66E170EE66E940EE66EFE0EE66E28
:10264000000EE66E020EE66EF00EE66E130EE66EFD
:10265000080EE66E8CECA2F0F00EE66E130EE66E3F
:10266000000EE66E010EE66E63ECB3F00501CC5190
:10267000E66E000EE66E25EEF3F1DEC40BF5DDC46A
:102680000CF50BC5E6F40CC5E6F425EEF5F1DEC459
:102690000BF5DDC40CF50BC5E6F40CC5E6F4590EDC
:1026A000E66EFE0EE66E000EE66E020EE66EF00EB2
:1026B000E66E130EE66E0C0EE66E8CECA2F025EEC6
:1026C00081F3DF50D8B40DD0000E6100A1F381F783
:1026D000000EE66E040EE66E94ECAEF0610005F4BA
:1026E00003F4F00EE66E130EE66E000EE66E020EBA
:1026F000E66E63ECB3F006013C51E66E000EE66E4A
:10270000770EE66EFE0EE66E000EE66E020EE66ECA
:10271000F00EE66E130EE66E080EE66E8CECA2F07E
:10272000F00EE66E130EE66E000EE66E030EE66E1B
:1027300063ECB3F006011E51D8B450D0BF821E6BBB
:102740003C2B030E3C6501D03C6B620EE66EFF0E27
:10275000E66E3C51E66E000EE66EEB0EE66EFF0E88
:10276000E66E000EE66E020EE66EF00EE66E130EDC
:10277000E66E0A0EE66E8CECA2F0F00EE66E130E1C
:10278000E66E000EE66E020EE66E63ECB3F0010E2E
:102790000601396F15D0010E6100A1F382F71ED03A
:1027A000010E6100A1F382F7010E06D03C6B000E12
:1027B0006100A1F382F7000E6100A1F383F70ED050
:1027C0003C51000AD8B4F3D7010AD8B4E4D7030ABD
:1027D000D8B4E6D7010AD8B4E9D7E9D71F51D8B49D
:1027E00025D0BF821F6BE80EE66EFE0EE66EEE0E83
:1027F000E66EFF0EE66E000EE66E020EE66EF00E60
:10280000E66E130EE66E080EE66E8CECA2F0F00E8D
:10281000E66E130EE66E000EE66E020EE66E63ECDA
:10282000B3F0010E0601376F010E396F2051D8B495
:1028300023D0BF82206BCC0EE66EFE0EE66EEE0E4F
:10284000E66EFF0EE66E000EE66E020EE66EF00E0F
:10285000E66E130EE66E080EE66E8CECA2F0F00E3D
:10286000E66E130EE66E000EE66E020EE66E63EC8A
:10287000B3F0010E0601396FC19AF8D4080EE126B3
:10288000000EE222F40EE3C4D9F4F50EE3C4DAF448
:10289000DEC4F6F4DDC4F7F4000EF86E0800F5505F
:1028A000250AD8A49ED2F40EE3C4D9F4F50EE3C4ED
:1028B000DAF4DE2A000EDD22000E226E000E216EFA
:1028C00021C525F5FF0EE36A21D02582F40EE3C46D
:1028D000D9F4F50EE3C4DAF4DE2A000EDD2216D0B8
:1028E000FF0EE36AE32A12D0F40EE3C4D9F4F50E26
:1028F000E3C4DAF4DEC4F6F4DDC4F7F4000EF86ED7
:102900000800F550300AD8B4E0D7EAD7FF0EE350FC
:10291000D8B4EAD7F20EE3C4E6F4E3C4E6F4F20E68
:10292000E3C4E6F4E3C4E6F42FECAAF001C521F514
:1029300002C522F522AE05D02580216C221ED8B01A
:10294000222AF40EE3C4D9F4F50EE3C4DAF4DEC4AB
:102950000BF5DDC40CF5FD0E0CC5E3F4FC0E0BC548
:10296000E3F4E150FC0FD96EE250DA6EFF0EDA228A
:10297000DEC4F6F4DDC4F7F4000EF86E0800FE0EB7
:10298000F5C4E3F419D0FC0EE350010F016EFC0E08
:1029900001C5E3F4016AFD0EE3500120016EFD0E56
:1029A00001C5E3F41BD0690E0C6EFE0E0CC5E3F4FA
:1029B00015D0FE0EE36A12D0FE0EE350580AD8B4CA
:1029C000F2D73C0AD8B4EFD70D0AD8B4ECD7050A31
:1029D000D8B4D9D7190AD8B4E6D7EBD7E150FC0F51
:1029E000D96EE250DA6EFF0EDA22DEC4F6F4DDC4F0
:1029F000F7F4000EF86E0800F550640AD8B460D001
:102A0000E150FC0FD96EE250DA6EFF0EDA22DEC41E
:102A1000F6F4DDC4F7F4000EF86E0800F550690A0C
:102A2000D8B44ED079D0F20EE3C4D9F4F30EE3C497
:102A3000DAF4020EDE5E000EDD5ADEC40BF5DDC4F4
:102A40000CF50BC5D9F40CC5DAF4DEC40BF5DDC406
:102A50000CF5F80E0BC5E3F4F90E0CC5E3F4016AAE
:102A6000E3BE0168FA0E01C5E3F4FB0E01C5E3F411
:102A70002FD0F20EE3C4D9F4F30EE3C4DAF4040E5B
:102A8000DE5E000EDD5ADEC40BF5DDC40CF50BC5B1
:102A9000D9F40CC5DAF4DEC409F5DEC40AF5DEC4E7
:102AA0000BF5DEC40CF5F80E09C5E3F4F90E0AC502
:102AB000E3F4FA0E0BC5E3F4FB0E0CC5E3F408D007
:102AC000FE0EE350690AD8B4AED7050AD8B4D1D700
:102AD000FC0EE350010F0B6EFD0EE3C40CF5000E6F
:102AE0000C22F40EE3C4D9F4F50EE3C4DAF40BC5FA
:102AF000DEF40CC5DDF4F80EE3C4E6F4E3C4E6F45A
:102B0000E3C4E6F4E3C4E6F4F20EE3C4E6F4E3C49B
:102B1000E6F4A5ECA0F08AD1E150FC0FD96EE250AA
:102B2000DA6EFF0EDA22DEC4F6F4DDC4F7F4000E2E
:102B3000F86E0800F550580AD8B463D0E150FC0F85
:102B4000D96EE250DA6EFF0EDA22DEC4F6F4DDC48E
:102B5000F7F4000EF86E0800F550750AD8B451D09D
:102B6000A3D0F20EE3C4D9F4F30EE3C4DAF4020EF8
:102B7000DE5E000EDD5ADEC40BF5DDC40CF50BC5C0
:102B8000D9F40CC5DAF4DEC40BF5DDC40CF50B503A
:102B9000056E0C50066E076A086AF80E05C5E3F468
:102BA000F90E06C5E3F4FA0E07C5E3F4FB0E08C5FB
:102BB000E3F42FD0F20EE3C4D9F4F30EE3C4DAF455
:102BC000040EDE5E000EDD5ADEC40BF5DDC40CF52E
:102BD0000BC5D9F40CC5DAF4DEC409F5DEC40AF578
:102BE000DEC40BF5DEC40CF5F80E09C5E3F4F90EEE
:102BF0000AC5E3F4FA0E0BC5E3F4FB0E0CC5E3F4CF
:102C000008D0FE0EE350690AD8B4ABD7050AD8B491
:102C1000D1D7FC0EE350010F0B6EFD0EE3C40CF593
:102C2000000E0C22F40EE3C4D9F4F50EE3C4DAF47A
:102C30000BC5DEF40CC5DDF422D0F80EE3C4E6F4D7
:102C4000E3C4E6F4E3C4E6F4E3C4E6F4F20EE3C45A
:102C5000E6F4E3C4E6F470ECA6F0E8D0F80EE3C4C2
:102C6000E6F4E3C4E6F4E3C4E6F4E3C4E6F4F20E07
:102C7000E3C4E6F4E3C4E6F4B8ECA5F0D7D0E15041
:102C8000FC0FD96EE250DA6EFF0EDA22DEC4F6F4E3
:102C9000DDC4F7F4000EF86E0800F550580AD8B4F9
:102CA000DDD72D0AD8B4C9D7FF0EE36AF40EE3C40A
:102CB000D9F4F50EE3C4DAF4DEC4F6F4DDC4F7F4B7
:102CC000000EF86E0800F550730AD8A40DD0F40E6B
:102CD000E3C4D9F4F50EE3C4DAF4DE2A000EDD22F3
:102CE000FF0EE36AE32A4CD0F40EE3C4D9F4F50EE8
:102CF000E3C4DAF4DEC4F6F4DDC4F7F4000EF86ED3
:102D00000800F5506C0AD8A43BD0F40EE3C4D9F403
:102D1000F50EE3C4DAF4DEC40BF5DDC40CF5010EE8
:102D20000B26000E0C220BC5F6F40CC5F7F4000EB2
:102D3000F86E0800F5506C0AD8A422D0F40EE3C453
:102D4000D9F4F50EE3C4DAF4DEC40BF5DDC40CF5FA
:102D5000020E0B26000E0C220BC5F6F40CC5F7F480
:102D6000000EF86E0800F550730AD8A409D0F40ECE
:102D7000E3C4D9F4F50EE3C4DAF4030EDE26AED7CD
:102D8000FF0EE350D8B422D0F20EE3C4D9F4F30E10
:102D9000E3C4DAF4020EDE5E000EDD5ADEC40BF58B
:102DA000DDC40CF50BC5D9F40CC5DAF4DEC40BF5A3
:102DB000DDC40CF50BC5E6F40CC5E6F4F40EE3C473
:102DC000E6F4E3C4E6F496EC9FF030D0F40EE3C4EE
:102DD000D9F4F50EE3C4DAF4DE2A000EDD22000E8B
:102DE00022D0F60EE3C4E6F4E3C4E6F4F20EE3C444
:102DF000D9F4F30EE3C4DAF4DEC4F6F4DDC4F7F478
:102E0000000EF86E0800F550E66E000EE66EBDECA2
:102E1000ACF0F40EE3C4D9F4F50EE3C4DAF4DE2A20
:102E2000000EDD22010E016E000E026EF20EE12692
:102E3000FF0EE2221200050EE126000EE222F70E3E
:102E4000E3C4D9F4F80EE3C4DAF4DEC409F5DEC451
:102E50000AF5DEC40BF5DEC40CF5FB0E09C5E3F480
:102E6000FC0E0AC5E3F4FD0E0BC5E3F4FE0E0CC523
:102E7000E3F4F70EE3C40BF5F80EE3C40CF5040E0F
:102E80000B24D96E000E0C20DA6EDFA080D0F90E74
:102E9000E3C40BF5FA0EE3C40CF5010E0B24D96E56
:102EA000000E0C20DA6EFB0EE3C40CF5D8900C3645
:102EB000D8900C36D8900C34F80BDF6E050E0C6EE3
:102EC000E150FB0FD96EE250DA6EFF0EDA220C28C9
:102ED000DE5207D0DE52DE52D890DD32DD32DD32F6
:102EE000DE32E82EF7D7F90EE3C40BF5FA0EE3C491
:102EF0000CF5020E0B24D96E000E0C20DA6EFB0EC0
:102F0000E3C4DFF4FC0EE124D96EFF0EE220DA6E9A
:102F1000DEC40AF5DEC40BF5DEC40CF50A50056EFE
:102F20000B50066E0C50076E086AFB0E05C5E3F4E5
:102F3000FC0E06C5E3F4FD0E07C5E3F4FE0E08C55E
:102F4000E3F4F90EE3C40BF5FA0EE3C40CF5030E3B
:102F50000B24D96E000E0C20DA6EFB0EE3501F0B13
:102F6000DF6E050E0C6EE150FB0FD96EE250DA6E8B
:102F7000FF0EDA220C28DE5207D0DE52DE52D89045
:102F8000DD32DD32DD32DE32E82EF7D729D0F90E20
:102F9000E3C40BF5FA0EE3C40CF5030E0B24D96E53
:102FA000000E0C20DA6EDF6AF90EE3C40BF5FA0EA0
:102FB000E3C40CF5020E0B24E96E000E0C20EA6E41
:102FC000DFC4EFF4F90EE3C40BF5FA0EE3C40CF51D
:102FD000010E0B24D96E000E0C20DA6EEFC4DFF464
:102FE000F90EE3C4D9F4FA0EE3C4DAF4FB0EE3C439
:102FF000DFF4FC0EE124D96EFF0EE220DA6EDEC4AF
:103000000AF5DEC40BF5DEC40CF50A50056E0B5054
:10301000066E0C50076E086AFB0E05C5E3F4FC0E45
:1030200006C5E3F4FD0E07C5E3F4FE0E08C5E3F4A0
:10303000FB0EE3C40CF5070E0C16F90EE3C409F5FC
:10304000FA0EE3C40AF5010E0924D96E000E0A2017
:10305000DA6E0C50DF12F70EE3C40BF5F80EE3C482
:103060000CF5040E0B24D96E000E0C20DA6EDF3046
:10307000E8320F0B0C6EFF0E0CC5E3F4F70EE3C441
:103080000BF5F80EE3C40CF5040E0B24D96E000EFC
:103090000C20DA6EDFA003D0100E0C6E01D00C6A8B
:1030A000E150FF0FD96EE250DA6EFF0EDA220C50BB
:1030B000DF12F70EE3C40BF5F80EE3C40CF5040EB3
:1030C0000B24D96E000E0C20DA6EDFA203D0200E86
:1030D0000C6E01D00C6AE150FF0FD96EE250DA6E2F
:1030E000FF0EDA220C50DF12F70EE3C40BF5F80ED8
:1030F000E3C40CF5040E0B24D96E000E0C20DA6E1E
:10310000DFAE03D0400E0C6E01D00C6AE150FF0F11
:10311000D96EE250DA6EFF0EDA220C50DF12F70E93
:10312000E3C40BF5F80EE3C40CF5040E0B24D96EC2
:10313000000E0C20DA6EDFAC03D0800E0C6E01D0D6
:103140000C6AE150FF0FD96EE250DA6EFF0EDA2200
:103150000C50DF12F90EE3C40BF5FA0EE3C40CF5C4
:10316000040E0B24D96E000E0C20DA6EFF0EE3C4A1
:10317000DFF4F70EE3C40BF5F80EE3C40CF5040E10
:103180000B24D96E000E0C20DA6EDFB242D0F70E9F
:10319000E3C40BF5F80EE3C40CF5040E0B24D96E52
:1031A000000E0C20DA6EDF30E8320F0B0B6E0C6A6B
:1031B0006B0E0B24F66EFD0E0C20F76EF86A000EF7
:1031C000F8220800F550E66E000EE66EF50EE3C438
:1031D0000BF5F60EE3C40CF5050E0B24D96E000EAC
:1031E0000C20DA6EDEC40BF5DDC40CF50BC5E6F47D
:1031F0000CC5E6F4F50EE350080F0B6EF60EE3C4B3
:103200000CF5000E0C220BC5E6F40CC5E6F4D9EC67
:10321000AFF0F70EE126FF0EE2221200426F6F744C
:1032200020496E697420446973706C617920202094
:10323000000000000000000000000000000000008E
:10324000000000000000000000000000000000007E
:10325000000000000000000000000000000000006E
:10326000000000000000000000000000000000005E
:10327000000000000000000000000000000000004E
:10328000000000000000000000000000000000003E
:10329000000000000000000000000000000000002E
:1032A000000000000000000000000000000000001E
:1032B000000000000000000000000000000000000E
:1032C00000000000000000000000000000000000FE
:1032D00000000000000000000000000000000000EE
:1032E00000000000000000000000000000000000DE
:1032F00000000000000000000000000000000000CE
:1033000000000000000000000000000000000000BD
:1033100000000000000000000000000000000000AD
:10332000000000000000000000000000000000009D
:10333000000000000000000000000000000000008D
:10334000000000000000000000000000000000007D
:10335000000000000000000000000000000000006D
:10336000000000000000000000000000000000005D
:10337000000000000000000000000000000000004D
:10338000000000000000000000000000000000003D
:10339000000000000000000000000000000000002D
:1033A000000000000000000000000000000000001D
:1033B000000000000000000000000000000000000D
:1033C00000000000000000000000000000000000FD
:1033D00000000000000000000000000000000000ED
:1033E00000000000000000000000000000000000DD
:1033F00000000000000000000000000000000000CD
:1034000000000000000000000000000000000000BC
:1034100000000000000000000000000000000000AC
:10342000000000000000000000000000000000009C
:10343000000000000000100000000000000000007C
:10344000000000000000000000000000004F4646A1
:103450004C494E4500000000000000000000000044
:10346000000000000000000000000000004F464681
:103470004C494E4500000000000000000000000024
:10348000000000000000000000000000004F464661
:103490004C494E4500000000000000000000000004
:1034A000000000000000000000000000004F464641
:1034B0004C494E45000000000000000000000000E4
:1034C000000000000000000000000000004F464621
:1034D0004C494E45000000000000000000000000C4
:1034E000000000000000000000000000004F464601
:1034F0004C494E45000000000000000000000000A4
:10350000000000000000000000000000004F4646E0
:103510004C494E4500000000000000000000000083
:10352000000000000000000000000000004F4646C0
:103530004C494E4500000000000000000000000063
:10354000000000000000000000000000004F4646A0
:103550004C494E4500000000000000000000000043
:10356000000000000000000000000000004F464680
:103570004C494E4500000000000000000000000023
:10358000000000000000000000000000004F464660
:103590004C494E4500000000000000000000000003
:1035A000000000000000000000000000000000001B
:1035B000050EE126000EE222F90EE3C40BF5FA0E29
:1035C000E3C40CF5040E0B24D96E000E0C20DA6E49
:1035D000DF500C6EFF0E0CC5E3F4FF0EE3C40CF5D8
:1035E000F70EE3C409F5F80EE3C40AF5040E092446
:1035F000D96E000E0A20DA6E0C460C46DF500C180D
:10360000C30B0C18DF6EFF0EE3A803D00C6A0C2A64
:1036100001D00C6AF70EE3C409F5F80EE3C40AF50D
:10362000040E0924D96E000E0A20DA6EDF500C1841
:10363000FE0B0C18DF6EFF0EE3AA03D00C6A0C2AF7
:1036400001D00C6AF70EE3C409F5F80EE3C40AF5DD
:10365000040E0924D96E000E0A20DA6E0C46DF50E3
:103660000C18FD0B0C18DF6EFF0EE3AC03D00C6AD8
:103670000C2A01D00C6AF70EE3C409F5F80EE3C476
:103680000AF5040E0924D96E000E0A20DA6E0C32F7
:103690000C32DF500C187F0B0C18DF6EFF0EE3AE00
:1036A00003D00C6A0C2A01D00C6AF70EE3C409F5AA
:1036B000F80EE3C40AF5040E0924D96E000E0A20A0
:1036C000DA6E0C3A0C460C46DF500C18BF0B0C1887
:1036D000DF6EF90EE3C40BF5FA0EE3C40CF5010E30
:1036E0000B24D96E000E0C20DA6EDF500C6E070E24
:1036F0000C160CC505F5066A076A086AFB0E05C5B7
:10370000E3F4FC0E06C5E3F4FD0E07C5E3F4FE0E7C
:1037100008C5E3F4E150FB0FD96EE250DA6EFF0EFC
:10372000DA22080ED890DE36DE36DE36DD36DD52A1
:10373000DD52E82EF7D7E150FB0FD96EE250DA6E7A
:10374000FF0EDA22F90EE3C4E9F4FA0EE3C4EAF458
:10375000EF50DE12000EDE12DE12DE12F70EE3C4B0
:103760000BF5F80EE3C40CF5040E0B24D96E000E15
:103770000C20DA6EDFA087D0E150FB0FD96EE2504B
:10378000DA6EFF0EDA22050ED890DE36DE36DE3631
:10379000DD36DD52DD52E82EF7D7E150FB0FD96E52
:1037A000E250DA6EFF0EDA22F90EE3C40BF5FA0EE0
:1037B000E3C40CF5030E0B24E96E000E0C20EA6E38
:1037C000EF501F0BDE12000EDE12DE12DE12E15091
:1037D000FB0FD96EE250DA6EFF0EDA22080ED89097
:1037E000DE36DE36DE36DD36DD52DD52E82EF7D748
:1037F000E150FB0FD96EE250DA6EFF0EDA22F90EBD
:10380000E3C40BF5FA0EE3C40CF5020E0B24E96ECB
:10381000000E0C20EA6EEF50DE12000EDE12DE12F9
:10382000DE12E150FB0FD96EE250DA6EFF0EDA22A3
:10383000050ED890DE36DE36DE36DD36DD52DD5260
:10384000E82EF7D7E150FB0FD96EE250DA6EFF0E8B
:10385000DA22F90EE3C40BF5FA0EE3C40CF5010EFF
:103860000B24E96E000E0C20EA6EEF500C6ED8901F
:103870000C32D8900C32D8900C301F0BDE12000E98
:10388000DE12DE12DE12E150FB0FD96EE250DA6E6C
:10389000FF0EDA22F70EE3C4E9F4F80EE3C4EAF40B
:1038A000DEC4EEF4DEC4EEF4DEC4EEF4DEC4EEF408
:1038B000F70EE3C40BF5F80EE3C40CF5040E0B246D
:1038C000D96E000E0C20DA6EDF30E8320F0B0B6E73
:1038D0000C6A6B0E0B24F66EFD0E0C20F76EF86A68
:1038E000000EF8220800F550E66E000EE66EF70EA8
:1038F000E3C40BF5F80EE3C40CF5080E0B24096EB7
:10390000000E0C200A6E09C5E6F40AC5E6F4A90EFD
:10391000E66E0A0EE66ED9ECAFF0F70EE3C40BF5D7
:10392000F80EE3C40CF5050E0B24D96E000E0C2026
:10393000DA6EA90EDE6E0A0EDD6EF70EE126FF0EC0
:10394000E2221200E652FF0EE36ABFAC02D0010E83
:1039500001D0000EFF0A0C6E0C3A0C460C46BF500C
:103960000C18BF0B0C18BF6E010E0601D827000EF5
:10397000D923DA23DB232650070DE80EF3240B6E40
:10398000060EF4200C6E0BC5E6F40CC5E6F4010E31
:10399000E66EF5ECBAF00150D8B454D1070EE66EDD
:1039A000000EE66E2650070DE80EF3240B6E060E91
:1039B000F4200C6E0BC5E6F40CC5E6F4F60EE66ECC
:1039C000060EE66ED9ECAFF02650070DE80EF32494
:1039D000D96E060EF420DA6EDF500F0B020AD8B44F
:1039E0000DD02650070DE80EF324D96E060EF420F4
:1039F000DA6EDF500F0B030AD8A444D0400EE66EF7
:103A0000000EE66E2650070DED0EF324D96E060E5D
:103A1000F420DA6EDEC40BF5DDC40CF50BC5E6F45C
:103A20000CC5E6F42650400D000EF3240B6E0E0E6E
:103A3000F4200C6E0BC5E6F40CC5E6F4D9ECAFF03F
:103A40002650070DE80EF324D96E060EF420DA6E28
:103A5000DF500F0B020AD8A403D0010E266EFAD055
:103A60002650070DE80EF324D96E060EF420DA6E08
:103A7000DF500F0B030AD8A405D0266A010E0601F9
:103A8000DC6FE8D02650070DE80EF324D96E060E41
:103A9000F420DA6EDF500F0B0C0AD8A41BD0400EB6
:103AA000E66E000EE66E2650070DED0EF324D96E7D
:103AB000060EF420DA6EDEC40BF5DDC40CF50BC582
:103AC000E6F40CC5E6F4800EE66E0E0EE66ED9EC5A
:103AD000AFF0C0D02650070DE80EF324D96E060EC5
:103AE000F420DA6EDF500F0B0F0AD8A41BD0400E63
:103AF000E66E000EE66E2650070DED0EF324D96E2D
:103B0000060EF420DA6EDEC40BF5DDC40CF50BC531
:103B1000E6F40CC5E6F4C00EE66E0E0EE66ED9ECC9
:103B2000AFF098D02650070DE80EF324D96E060E9C
:103B3000F420DA6EDF500F0B0D0AD8A41ED0400E11
:103B4000E66E000EE66E2650070DED0EF324D96EDC
:103B5000060EF420DA6EDEC40BF5DDC40CF50BC5E1
:103B6000E6F40CC5E6F4400EE66E0D0EE66ED9ECFA
:103B7000AFF0010E0D01816F6DD00601F6510F0BF4
:103B80000A0AD8A457D0040EE66E000EE66EFBC6F5
:103B9000E6F4FCC6E6F4E10EE66E050EE66ED9EC40
:103BA000AFF0E10EE66E050EE66E88ECC5F001C5DD
:103BB000E4F602C5E5F623C5D2F70701D36B24C5A9
:103BC000D0F7D16B0A0EE66ECA0EE66E070EE66EF1
:103BD00005ECB3F001C523F502C524F523C5D6F7DE
:103BE0000701D76B24C5D4F7D56B23C5C2F7C36BC8
:103BF00024C5C0F7C16B0A0EE66EBA0EE66E070E5C
:103C0000E66E05ECB3F001C523F502C524F523C526
:103C1000C6F70701C76B24C5C4F7C56B06013A5147
:103C2000D8B418D03551D8B415D0010E6100A1F325
:103C3000FFF510D0F6510F0B0E0AD8A403D0010ED9
:103C40003C6F08D0FF0EE32AFF0EE3C401F5070E18
:103C500001648AD6E55212000C0EE126000EE22223
:103C6000EE0EE3C4E6F4E3C4E6F4EE0EE3C4E6F4D9
:103C7000E3C4E6F4EE0EE3C4E6F4E3C4E6F4D9EC00
:103C8000AFF0EE0EE3C401F5100E011868E1EF0E7F
:103C9000E350D8A464D0F20EE3C40BF5F30EE3C4F2
:103CA0000CF5FF0E0CC5E3F4FE0E0BC5E3F4F20EAB
:103CB000E3C4E6F4E3C4E6F45AECBBF00150E66E6C
:103CC000000EE66EF10EE66EFF0EE66E040EE66E78
:103CD000000EE66EEE0EE124016EFF0EE220026E93
:103CE00001C5E6F402C5E6F4080EE66E8CECA2F01F
:103CF000FE0EE3C40BF5FF0EE3C40CF50C0E0B2413
:103D0000D96E000E0C20DA6EF40EE3C4DFF4F50E6B
:103D1000E124D96EFF0EE220DA6EFE0EE3C40BF54D
:103D2000FF0EE3C40CF50D0E0B24E96E000E0C2003
:103D3000EA6EDFC4EFF4F60EE124D96EFF0EE22046
:103D4000DA6EFE0EE3C40BF5FF0EE3C40CF50E0EA7
:103D50000B24E96E000E0C20EA6EDFC4EFF4EE0EC9
:103D6000E3C401F5140E011868E1EF0EE350D8A486
:103D700064D0F20EE3C40BF5F30EE3C40CF5FD0EB4
:103D80000CC5E3F4FC0E0BC5E3F4F20EE3C4E6F459
:103D9000E3C4E6F4BAECBBF00150E66E000EE66E4A
:103DA000F10EE66EFF0EE66E040EE66E000EE66E97
:103DB000EE0EE124016EFF0EE220026E01C5E6F474
:103DC00002C5E6F4080EE66E8CECA2F0FC0EE3C42D
:103DD0000BF5FD0EE3C40CF5100E0B24D96E000E8E
:103DE0000C20DA6EF40EE3C4DFF4F50EE124D96E94
:103DF000FF0EE220DA6EFC0EE3C40BF5FD0EE3C409
:103E00000CF5110E0B24E96E000E0C20EA6EDFC4D7
:103E1000EFF4F60EE124D96EFF0EE220DA6EFC0E0E
:103E2000E3C40BF5FD0EE3C40CF5120E0B24E96E92
:103E3000000E0C20EA6EDFC4EFF4EE0EE3C401F5D1
:103E4000110E011868E1EF0EE350D8A464D0F20E11
:103E5000E3C40BF5F30EE3C40CF5FB0E0CC5E3F461
:103E6000FA0E0BC5E3F4F20EE3C4E6F4E3C4E6F4A1
:103E70008AECBBF00150E66E000EE66EF10EE66EC7
:103E8000FF0EE66E040EE66E000EE66EEE0EE12408
:103E9000016EFF0EE220026E01C5E6F402C5E6F4F3
:103EA000080EE66E8CECA2F0FA0EE3C40BF5FB0EE6
:103EB000E3C40CF50D0E0B24D96E000E0C20DA6E47
:103EC000F40EE3C4DFF4F50EE124D96EFF0EE22018
:103ED000DA6EFA0EE3C40BF5FB0EE3C40CF50E0E1E
:103EE0000B24E96E000E0C20EA6EDFC4EFF4F60E30
:103EF000E124D96EFF0EE220DA6EFA0EE3C40BF570
:103F0000FB0EE3C40CF50F0E0B24E96E000E0C2023
:103F1000EA6EDFC4EFF4EE0EE3C401F5EF0EE3C486
:103F200002F5EE0EE126FF0EE2221200080EE12657
:103F3000000EE222F40EE3C40BF5F50EE3C40CF51B
:103F4000FB0E0CC5E3F4FA0E0BC5E3F4FA0EE3C462
:103F500001F5FB0EE3500110D8A40AD0FF0E016E4C
:103F6000FB0E01C5E3F4D80E016EFA0E01C5E3F4B1
:103F7000F80EE36AF90EE36A0FD0F80EE350010F72
:103F8000016EF80E01C5E3F4016AF90EE350012059
:103F9000016EF90E01C5E3F4FA0EE3C40BF5FB0E56
:103FA000E3C40CF5F80EE3500B26F90EE3500C2297
:103FB0000BC5F6F40CC5F7F4000EF86E360EF76478
:103FC00003D00800F55005D0F6C4E9F4F7C4EAF4CC
:103FD000EF500009D8A4D1D7F80EE3C401F5FE0EC6
:103FE00001C5E3F4F90EE3C401F5FF0E01C5E3F4E6
:103FF000FC0E21C5E3F4FD0E22C5E3F425A01BD081
:104000005AD0F60EE3C4E6F4E3C4E6F4200EE66EFE
:10401000000EE66EBDECACF0F80EE350010F016E41
:10402000F80E01C5E3F4016AF90EE3500120016EB8
:10403000F90E01C5E3F4E150F80FD96EE250DA6EE3
:10404000FF0EDA22FC0EE350DE5CDE50800A016EC9
:10405000FD0EE350800A0158D8B02DD0D2D7F60E0D
:10406000E3C4E6F4E3C4E6F4F80EE3C4F6F4F90EB0
:10407000E3C4F7F4000EF86E360EF76403D00800C0
:10408000F55005D0F6C4E9F4F7C4EAF4EF50E66E53
:10409000000EE66EBDECACF0FA0EE350010F016EBF
:1040A000FA0E01C5E3F4016AFB0EE3500120016E34
:1040B000FB0E01C5E3F4E150FE0FD96EE250DA6E5B
:1040C000FF0EDA22DE06000EDD5ADE28C8E1DE2809
:1040D000D8A4C5D725B01BD02DD0F60EE3C4E6F486
:1040E000E3C4E6F4200EE66E000EE66EBDECACF026
:1040F000F80EE350010F016EF80E01C5E3F4016AFA
:10410000F90EE3500120016EF90E01C5E3F4E15010
:10411000F80FD96EE250DA6EFF0EDA22FC0EE35091
:10412000DE5CDE50800A016EFD0EE350800A01580D
:10413000D8A0D3D7F80EE3C401F5F90EE3C402F515
:10414000F40EE126FF0EE2221200080EE126000E18
:10415000E222FF0EE36AE32AF50EE3AE03D00C6A17
:104160000C2A01D00C6AFE0E0CC5E3F4FC0E21C52E
:10417000E3F4FD0E22C5E3F4FE0EE350D8B420D0E4
:10418000E150FC0FD96EE250DA6EFF0EDA22DE0645
:10419000000EDD5AFE0EE350D8A402D02B0E01D043
:1041A0002D0E0B6E000E0C6EF80E0BC5E3F4F90E1F
:1041B0000CC5E3F4F80EE3C401F5FE0E01C5E3F40B
:1041C0001F0E0B6E000E0C6EFA0E0BC5E3F4FB0E09
:1041D0000CC5E3F40701FF6B62D0E150FA0FD96E12
:1041E000E250DA6EFF0EDA22DE06000EDD5A0A0E0B
:1041F000E66E000EE66E000EE66E000EE66EEE0E49
:10420000E3C4E6F4E3C4E6F4E3C4E6F4E3C4E6F4AA
:1042100028ECA7F001C50BF502C50CF50BC5E6F4BB
:104220000CC5E6F405ECC1F0300E0126FA0EE3C42D
:104230000BF5FB0EE3C40CF5E00E0B24D96E070E54
:104240000C20DA6E01C5DFF4FF0EE36AE150FC0FCB
:10425000D96EE250DA6EFF0EDA22DE06000EDD5A6B
:104260000A0EE66E000EE66E000EE66E000EE66EBC
:10427000EE0EE3C4E6F4E3C4E6F4E3C4E6F4E3C418
:10428000E6F430ECA4F0F20E01C5E3F4F30E02C53F
:10429000E3F4F40E03C5E3F4F50E04C5E3F4FB0EFA
:1042A000E3BE24D0FB0EE35004E1FA0EE304D8A0F1
:1042B0001DD0F20EE35091E1F30EE3508EE1F40EC7
:1042C000E3508BE1F50EE350D8A487D7FF0EE350FF
:1042D000D8A483D7FD0EE3BE09D0FD0EE35004E160
:1042E000FC0EE304D8A002D025B277D7FE0EE3502F
:1042F000D8B419D0E150FA0FD96EE250DA6EFF0E41
:10430000DA22DE06000EDD5AFA0EE3C40BF5FB0ED0
:10431000E3C40CF5E00E0B24D96E070E0C20DA6E08
:10432000FE0EE3C4DFF4FC0EE3C4E6F4E3C4E6F4FB
:10433000E00E0B6E070E0C6EF80EE3500B26F90E16
:10434000E3500C220BC5E6F40CC5E6F4F20EE3C410
:10435000E6F4E3C4E6F4AEECB0F0F20EE126FF0EB4
:10436000E22212001C0EF66E320EF76E010EF86E8F
:1043700004EEF0F320EE94F30900F5C4EEF4DD5002
:10438000D950FAE1DA50F8E17A0EF66E580EF76E6F
:10439000010EF86E03EE00F220EE00F10900F5C404
:1043A000EEF4DD50D950FAE1DA50F8E16A0EF66E1B
:1043B000820EF76E010EF86E03EEC2F020EE2EF0C4
:1043C0000900F5C4EEF4DD50D950FAE1160EF66E90
:1043D0007E0EF76E010EF86E02EEBCF020EE3CF0A1
:1043E0000900F5C4EEF4DD50D950FAE1040EF66E82
:1043F0005E0EF76E010EF86E01EE00F320EED8F0BF
:104400000900F5C4EEF4DD50D950FAE1A40EF66EC1
:10441000740EF76E010EF86E01EE00F220EE78F0E9
:104420000900F5C4EEF4DD50D950FAE1480EF66EFD
:104430008B0EF76E010EF86E01EECAF120EE1BF046
:104440000900F5C4EEF4DD50D950FAE1020EF66E23
:104450008D0EF76E010EF86E01EE4AF120EE04F0BB
:104460000900F5C4EEF4DD50D950FAE103EEF0F3A3
:1044700021EE00F0EE6ADD50D950FCE1DA50FAE1AD
:1044800003EE00F3F00EEE6AE806FDE103EE00F144
:10449000820EEE6AE806FDE103EE00F0C20EEE6A5F
:1044A000E806FDE102EE00F3F00EEE6AE806FDE13B
:1044B00002EE00F2E90EEE6AE806FDE102EE00F11E
:1044C000F00EEE6AE806FDE102EE00F0BC0EEE6AC8
:1044D000E806FDE101EED8F3280EEE6AE806FDE1FC
:1044E00001EEC0F23D0EEE6AE806FDE101EE60F17C
:1044F0004D0EEE6AE806FDE101EE21F1170EEE6ABF
:10450000E806FDE10401080E5D6F000E5E6F000E0F
:104510005F6F0001AFEF8FF0120EE126000EE22276
:10452000EA0EE3C401F5800E015ED8B0C4D0E70EF8
:10453000E1240B6EFF0EE2200C6EFD0E0CC5E3F4C1
:10454000FC0E0BC5E3F4EB0EE3C40BF5EC0EE3C479
:104550000CF5F10E0CC5E3F4F00E0BC5E3F4EA0E16
:10456000E35007E1E90EE3C401F5020E015ED8A0B5
:104570001CD0E90EE350FF0F0B6EEA0EE3C40CF5FE
:10458000FF0E0C22FA0EE124D96EFF0EE220DA6E45
:104590000BC5DEF40CC5DDF4F30EE124D96EFF0E7D
:1045A000E220DA6EDE6ADD6A14D0FA0EE124D96EFA
:1045B000FF0EE220DA6E010EDE6E000EDD6EF30EEF
:1045C000E124D96EFF0EE220DA6E010EDE6E000EDF
:1045D000DD6EFC0EE124016EFF0EE220026E01C5CD
:1045E000E6F402C5E6F4E50EE3C4E6F4E3C4E6F45B
:1045F000EC0EE124016EFF0EE220026E01C5E6F42E
:1046000002C5E6F437ECB7F0FE0E01C5E3F4FF0E89
:1046100002C5E3F4E90EE3C401F5EA0EE35001102C
:10462000D8B449D0FF0EE3BE46D0E90EE350FF0FE9
:104630000B6EEA0EE3C40CF5FF0E0C22FE0EE3C473
:1046400001F50B50015CFF0EE350800A016E0C5027
:10465000800A0158D8A010D0E90EE350FF0F0B6E6E
:10466000EA0EE3C40CF5FF0E0C22EE0E0BC5E3F4CC
:10467000EF0E0CC5E3F40CD0FE0EE3C401F5EE0E14
:1046800001C5E3F4FF0EE3C401F5EF0E01C5E3F449
:10469000EE0EE3C40BF5EF0EE3C40CF5EB0EE3C432
:1046A00009F5EC0EE3C40AF50B500924D96E0C5041
:1046B0000A20DA6EDF6AEE0EE126FF0EE222E552F4
:0A46C000E750E15E000EE25A12001E
:1046CC00FAC438F5FBC439F5F6C43AF5F7C43BF532
:1046DC00F8C43CF5F5C43DF501C53EF502C53FF502
:1046EC0003C540F504C541F505C542F506C543F5BE
:1046FC0007C544F508C545F509C546F50AC547F58E
:10470C000BC548F50CC549F518EE04F201011DAFB7
:10471C000FD001D80BD00500FA6E05019351FD6E38
:10472C009451FE6E9551FF6EFA50120001011D9FBF
:10473C001DAD0FD001D80BD00500FA6E05019051BC
:10474C00FD6E9151FE6E9251FF6EFA5012000101F6
:10475C001D9D1DAB0FD001D80BD00500FA6E0501C5
:10476C008D51FD6E8E51FE6E8F51FF6EFA50120000
:10477C0001011D9B1CA70FD001D80BD00500FA6EB0
:10478C0005018A51FD6E8B51FE6E8C51FF6EFA50F5
:10479C00120001011C971DA90FD001D80BD00500E8
:1047AC00FA6E05018751FD6E8851FE6E8951FF6EC0
:1047BC00FA50120001011D991DA514D001D80BD07F
:1047CC000500FA6E05018451FD6E8551FE6E865111
:1047DC00FF6EFA501200010154B954996CB96C99DE
:1047EC0078B978991DA710D001D80BD00500FA6EB6
:1047FC000601E151FD6EE251FE6EE351FF6EFA507F
:10480C001200010160B76097AE9C49C50CF548C514
:10481C000BF547C50AF546C509F545C508F544C568
:10482C0007F543C506F542C505F541C504F540C578
:10483C0003F53FC502F53EC501F53DC5F5F43CC594
:10484C00F8F43BC5F7F43AC5F6F439C5FBF438C5B2
:10485C00FAF41100060EE126000EE222FE0EE36AC7
:10486C00F50EE3AE14D0F20EE36CF30EE31EF40E71
:10487C00E31EF50EE31E08E3F30EE32A05E3F40E44
:10488C00E32A02E3F50EE32AFE0EE36AE32AF90EAD
:10489C00E3AE13D0F60EE36CF70EE31EF80EE31E38
:1048AC00F90EE31E08E3F70EE32A05E3F80EE32AFC
:1048BC0002E3F90EE32AFE0EE370FA0EE36AFB0E36
:1048CC00E36AFC0EE36AFD0EE36AF20EE3500AE1C2
:1048DC00F30EE35007E1F40EE35004E1F50EE35060
:1048EC00D8B457D0FF0EE36A0AD0D890F20EE33654
:1048FC00F30EE336F40EE336F50EE336FF0EE32A41
:10490C00F50EE3AEF2D7D890FA0EE336FB0EE33693
:10491C00FC0EE336FD0EE336E150F60FD96EE25095
:10492C00DA6EFF0EDA22F20EE350DE5CF30EE35089
:10493C00DE58F40EE350DE58F50EE350DE58D8A0E6
:10494C0015D0E150F60FD96EE250DA6EFF0EDA2276
:10495C00F20EE350DE5EF30EE350DE5AF40EE3503B
:10496C00DE5AF50EE350DE5AFA0EE380D890F50EBF
:10497C00E332F40EE332F30EE332F20EE332FF0EC7
:10498C00E350016E010E015EFF0E01C5E3F4D8A4E5
:10499C00BAD7FE0EE350D8B411D0FA0EE36CFB0E6E
:1049AC00E31EFC0EE31EFD0EE31E08E3FB0EE32AE2
:1049BC0005E3FC0EE32A02E3FD0EE32AFA0EE3C440
:1049CC0001F5FB0EE3C402F5FC0EE3C403F5FD0E8A
:1049DC00E3C404F5F20EE126FF0EE2221200070EEC
:1049EC00E126000EE22206013651D8A4B6D0FD0E07
:1049FC00E124D96EFF0EE220DA6EDF8EFD0EE1248B
:104A0C00D96EFF0EE220DA6E3C0EDF12FD0EE124B1
:104A1C00D96EFF0EE220DA6EDF8CFD0EE124D96E2A
:104A2C00FF0EE220DA6EDF92FD0EE124D96EFF0E4E
:104A3C00E220DA6EDF8021EE31F2DEC40BF5DDC44C
:104A4C000CF50B3A0C3AF00E0C160B500F0B0C121B
:104A5C00F00E0B16F80EE3500B24096E000E0C2012
:104A6C000A6E040E0924056E000E0A20066E076AF3
:104A7C00086AF90E05C5E3F4FA0E06C5E3F4FB0E5D
:104A8C0007C5E3F4FC0E08C5E3F4E150F60FD96E4C
:104A9C00E250DA6EFF0EDA22FE0EE124E96EFF0E12
:104AAC00E220EA6EDEC4EEF4DDC4EDF4000EE66E38
:104ABC00BAECC0F001A00ED0F90EE124016EFF0E8D
:104ACC00E220026E01C5E6F402C5E6F4000EE66EC5
:104ADC00CCECB4F021EE31F2DEC40BF5DDC40CF5F8
:104AEC000B3A0C3AF00E0C160B500F0B0C12F00E7E
:104AFC000B160D0E0B24056E000E0C20066E076AAD
:104B0C00086AF90E05C5E3F4FA0E06C5E3F4FB0ECC
:104B1C0007C5E3F4FC0E08C5E3F4FE0EE124D96EE0
:104B2C00FF0EE220DA6E800EDE6E0C0EDD6E030ED2
:104B3C00E66EBAECC0F001A00ED0F90EE124016EC5
:104B4C00FF0EE220026E01C5E6F402C5E6F4030E88
:104B5C00E66ECCECB4F00C01C06BF60EE126FF0E49
:104B6C00E2221200060EE126000EE222FF0EE36A9C
:104B7C00E32AFC0E21C5E3F4FD0E22C5E3F41F0E5F
:104B8C000B6E000E0C6EFA0E0BC5E3F4FB0E0CC58F
:104B9C00E3F40701FF6B55D0E150FA0FD96EE250E8
:104BAC00DA6EFF0EDA22DE06000EDD5AF40EE3C4D6
:104BBC000CF50F0E0C16FE0E0CC5E3F4FE0EE3C442
:104BCC0001F50A0E016005D0FE0EE3C401F5300EAE
:104BDC0004D0FE0EE3C401F5370E0126FE0E01C50E
:104BEC00E3F4FA0EE3C40BF5FB0EE3C40CF5E00E94
:104BFC000B24D96E070E0C20DA6EFE0EE3C4DFF424
:104C0C00FF0EE36AE150FC0FD96EE250DA6EFF0E34
:104C1C00DA22DE06000EDD5A040E0C6EE150F40FA3
:104C2C00D96EE250DA6EFF0EDA220C28DE5207D073
:104C3C00DE52DE52D890DD32DD32DD32DE32E82E4D
:104C4C00F7D7FB0EE3BE27D0FB0EE35007E1FA0EBD
:104C5C00E3C401F5020E015ED8A01DD0F40EE350A2
:104C6C009BE1F50EE35098E1F60EE35095E1F70E5B
:104C7C00E350D8A491D7FF0EE350D8A48DD7FD0EE6
:104C8C00E3BE09D0FD0EE35004E1FC0EE304D8A012
:104C9C0002D025B281D7FC0EE3C4E6F4E3C4E6F4FB
:104CAC00E00E0B6E070E0C6EF80EE3500B26F90E91
:104CBC00E3500C220BC5E6F40CC5E6F4F40EE3C489
:104CCC00E6F4E3C4E6F4AEECB0F0F40EE126FF0E2D
:104CDC00E2221200050EE126000EE222FF0EE36A2C
:104CEC00E32AFD0E21C5E3F4FE0E22C5E3F41F0EEC
:104CFC000B6E000E0C6EFB0E0BC5E3F4FC0E0CC51C
:104D0C00E3F40701FF6B5AD0E150FB0FD96EE25070
:104D1C00DA6EFF0EDA22DE06000EDD5A0A0EE66EA1
:104D2C00000EE66E000EE66E000EE66EF10EE3C4AB
:104D3C00E6F4E3C4E6F4E3C4E6F4E3C4E6F46EECB0
:104D4C00AFF001C50CF5300E0C26FB0EE3C409F5D3
:104D5C00FC0EE3C40AF5E00E0924D96E070E0A20F6
:104D6C00DA6E0CC5DFF4FF0EE36AE150FD0FD96E6D
:104D7C00E250DA6EFF0EDA22DE06000EDD5A0A0E63
:104D8C00E66E000EE66E000EE66E000EE66EF10E9E
:104D9C00E3C4E6F4E3C4E6F4E3C4E6F4E3C4E6F403
:104DAC00BCECABF0F50E01C5E3F4F60E02C5E3F472
:104DBC00F70E03C5E3F4F80E04C5E3F4FB0EE3C4ED
:104DCC0001F5FC0EE3500110D8B41DD0F50EE350E4
:104DDC009BE1F60EE35098E1F70EE35095E1F80EE7
:104DEC00E350D8A491D7FF0EE350D8A48DD7FE0E74
:104DFC00E3BE09D0FE0EE35004E1FD0EE304D8A09F
:104E0C0002D025B281D7FD0EE3C4E6F4E3C4E6F488
:104E1C00E00E0B6E070E0C6EF90EE3500B26FA0E1D
:104E2C00E3500C220BC5E6F40CC5E6F4F50EE3C416
:104E3C00E6F4E3C4E6F4AEECB0F0F50EE126FF0EBA
:104E4C00E2221200E652E652FE0EE36AFD0EE3AEDB
:104E5C0014D0FA0EE36CFB0EE31EFC0EE31EFD0EEB
:104E6C00E31E08E3FB0EE32A05E3FC0EE32A02E350
:104E7C00FD0EE32AFE0EE36AE32AF90EE3AE11D02F
:104E8C00F60EE36CF70EE31EF80EE31EF90EE31EAE
:104E9C0008E3F70EE32A05E3F80EE32A02E3F90E22
:104EAC00E32AF60EE3500AE1F70EE35007E1F80EA1
:104EBC00E35004E1F90EE350D8B44CD0FF0EE36A92
:104ECC000AD0D890F60EE336F70EE336F80EE3363A
:104EDC00F90EE336FF0EE32AF90EE3AEF2D7E150FA
:104EEC00FA0FD96EE250DA6EFF0EDA22F60EE350AC
:104EFC00DE5CF70EE350DE58F80EE350DE58F90E88
:104F0C00E350DE58D8A013D0E150FA0FD96EE2501E
:104F1C00DA6EFF0EDA22F60EE350DE5EF70EE35089
:104F2C00DE5AF80EE350DE5AF90EE350DE5AD890F2
:104F3C00F90EE332F80EE332F70EE332F60EE332FB
:104F4C00FF0EE350016E010E015EFF0E01C5E3F48E
:104F5C00D8A4C5D7FE0EE350D8B411D0FA0EE36C2A
:104F6C00FB0EE31EFC0EE31EFD0EE31E08E3FB0E20
:104F7C00E32A05E3FC0EE32A02E3FD0EE32AFA0E14
:104F8C00E3C401F5FB0EE3C402F5FC0EE3C403F528
:104F9C00FD0EE3C404F5F60EE126FF0EE22212002C
:104FAC00E652E652E652FD0EE36AFE0EE36AFF0E8F
:104FBC00E36A0FD0FB0EE350010F016EFB0E01C52F
:104FCC00E3F4016AFC0EE3500120016EFC0E01C5F6
:104FDC00E3F4FB0EE3C4D9F4FC0EE3C4DAF4DF50C3
:104FEC00200AD8B4E7D7FB0EE3C4D9F4FC0EE3C413
:104FFC00DAF4DF500C6EF70E0C26040E0C64DAD7C4
:10500C00FB0EE3C4D9F4FC0EE3C4DAF4DF502D0A32
:10501C00D8A413D0FF0EE36AE32AFB0EE350010F72
:10502C00016EFB0E01C5E3F4016AFC0EE350012096
:10503C00016EFC0E01C5E3F42FD0FB0EE3C4D9F4D2
:10504C00FC0EE3C4DAF4DF502B0AD8B4E6D724D034
:10505C00FD0EE3C40BF5FE0EE3C40CF50A0E0B02B9
:10506C00F3C409F5F4C40AF50C02F3500A26FB0E3E
:10507C00E3C4D9F4FC0EE3C4DAF4DF50095E000E8D
:10508C000A5A300E0926000E0A22FD0E09C5E3F459
:10509C00FE0E0AC5E3F4C1D7FB0EE3C4D9F4FC0E33
:1050AC00E3C4DAF4DF500C6ED00E0C26090E0C643F
:1050BC00CFD7FF0EE350D8A40CD0FD0EE3C401F5FE
:1050CC00011EFE0EE3C402F5021E012AD8B4022A08
:1050DC0006D0FD0EE3C401F5FE0EE3C402F5FB0E93
:1050EC00E126FF0EE2221200E652E652E652FE0ED6
:1050FC00E36AFA0EE3C40BF5FB0EE3C40CF5040EE5
:10510C000B24D96E000E0C20DA6EDF500C6EFD0EE7
:10511C000CC5E3F4FC0EE3500C0D530EF324D96EC6
:10512C00010EF420DA6EDF500C6E050E016ED89075
:10513C000C32012EFCD7070E0C16FF0E0CC5E3F437
:10514C00E150FD0FD96EE250DA6EFF0EDA22DFAEBF
:10515C000BD0010101B906D03CECC6F0060E0118CB
:10516C00D8A402D0FE0EE382E150FD0FD96EE250BE
:10517C00DA6EFF0EDA22DF30E8320F0B0C6E080EFF
:10518C000C6411D0E150FD0FD96EE250DA6EFF0EB7
:10519C00DA22DFAC06D03CECC6F0060E0118D8A41F
:1051AC0002D0FE0EE380FF0EE3500B6E0C6A080E6D
:1051BC000B26000E0C226B0E0B24F66EFD0E0C2033
:1051CC00F76EF86A000EF8220800F5C40CF5E150F1
:1051DC00FD0FD96EE250DA6EFF0EDA22DF30E832C4
:1051EC000F0B096E0A6A6B0E0924F66EFD0E0A206F
:1051FC00F76EF86A000EF8220800F5500C5CD8B077
:10520C0002D0FE0EE380FC0EE350E66E6AECC5F0B5
:10521C000150D8A403D0FE0EE380E382FE0EE3C45B
:10522C0001F5FA0EE126FF0EE2221200BFAC02D00D
:10523C00010E01D0000EFF0A0C6E0C3A0C460C4607
:10524C00BF500C18BF0B0C18BF6E292A29040C6E0A
:10525C00040E0C642FD02C062C28D8B428D02B503C
:10526C00020D420EF324D96E080EF420DA6E000EF5
:10527C00DE5C010EDE58D8A00CD02B50020D420E75
:10528C00F324D96E080EF420DA6EDF500201A56FFC
:10529C000CD02B50020D420EF324D96E080EF420C4
:1052AC00DA6EDF50E66E23ECC6F02B2A02D02B6AA6
:1052BC002C6A296A0201B2A307D0A1C200F8080126
:1052CC00016B0201B2932A6AB2A02DD0B2511F0E0B
:1052DC002A6402D02A6ABF82B2AD0ED02A6A2A5042
:1052EC00020D000EF324D96E080EF420DA6E000EB7
:1052FC00DE6E010EDD6E0AD02A50020D000EF32474
:10530C00D96E080EF420DA6EDE6ADD6A2A50020DC0
:10531C00000EF324D96E080EF420DA6EA151DE26AD
:10532C00000EDD222A2A000EE66EE66EE66E000EF8
:10533C00E66E000EE66E000EE66E000EE66E6FEC8C
:10534C00B5F01200060EE126000EE222F7C409F5B4
:10535C000A6A0B6A0C6A0BC50CF50AC50BF509C574
:10536C000AF5096AF8C405F5066A076A086A06C5EB
:10537C0008F505C507F5066A056A095005120A50B5
:10538C0006120B5007120C500812F6500510096E3D
:10539C0006500A6E07500B6E08500C6EFA0E09C5BB
:1053AC00E3F4FB0E0AC5E3F4FC0E0BC5E3F4FD0EAF
:1053BC000CC5E3F4F90EE124D96EFF0EE220DA6E8F
:1053CC00DF50F86EF80EE124D96EFF0EE220DA6E93
:1053DC00DF50F76EF70EE3C4F6F40900F5500B6ED0
:1053EC000C6AFE0E0BC5E3F4FF0E0CC5E3F40800CB
:1053FC00F5500C6E0B6AFE0EE3C401F50B50011256
:10540C00FE0E01C5E3F4FF0EE3C401F50C500112CE
:10541C00FF0E01C5E3F4FC0EE124D96EFF0EE22071
:10542C00DA6EDF50F86EFB0EE124D96EFF0EE2202F
:10543C00DA6EDF50F76EFA0EE3C4F6F4FE0EE3C438
:10544C0001F5FF0EE3C402F5F70EE126FF0EE22292
:10545C001200E652E652E652FE0EE36AFF0EE36AD3
:10546C00FB0EE3C4D9F4FC0EE3C4DAF4DEC4F6F4A8
:10547C00DDC4F7F4000EF86E0800F5502A0AD8A423
:10548C0049D0FB0EE3C4D9F4FC0EE3C4DAF4DE2AF3
:10549C00000EDD22F90EE3C4D9F4FA0EE3C4DAF4FB
:1054AC00020EDE5E000EDD5ADEC40BF5DDC40CF51B
:1054BC000BC5D9F40CC5DAF4DEC40BF5DDC40CF560
:1054CC00FE0E0BC5E3F4FF0E0CC5E3F43DD0FE0E4F
:1054DC00E3C40BF5FF0EE3C40CF50A0E0B02F3C488
:1054EC0009F5F4C40AF50C02F3500A26FD0EE3503C
:1054FC000926000E0A22FE0E09C5E3F4FF0E0AC5AA
:10550C00E3F4FB0EE3C4D9F4FC0EE3C4DAF4DE2AB4
:10551C00000EDD22FB0EE3C4D9F4FC0EE3C4DAF476
:10552C00DEC4F6F4DDC4F7F4000EF86E0800F5C422
:10553C000CF5D00E0C26FD0E0CC5E3F4FD0EE3C4E9
:10554C0001F5090E0164C3D7FE0EE3C401F5FF0E8D
:10555C00E3C402F5F90EE126FF0EE2221200E65238
:10556C00C18EFF0EE36AFF0EE3500B6E0C6A3D0E0C
:10557C000B24D96E060E0C20DA6EFF0EE350E66E8D
:10558C006BECC0F00150DF6EFF0EE3500B6E0C6A3B
:10559C00210E0B24D96E060E0C20DA6EDF50D8B417
:1055AC004DD0FF0EE350020D760EF324D96E050E8E
:1055BC00F420DA6EDE2A000EDD222D0EDE5C010EEA
:1055CC00DE58D8A046D0FF0EE3500B6E0C6A240EAA
:1055DC000B24D96E060E0C20DA6EFF0EE3500B6E08
:1055EC000C6A3D0E0B24E96E060E0C20EA6EDE50A2
:1055FC00EE18D8A42ED0FF0EE350020D760EF32435
:10560C00D96E050EF420DA6EDE6ADD6AFF0EE35009
:10561C000B6E0C6A210E0B24D96E060E0C20DA6E62
:10562C00DF6AFF0EE3500B6E0C6A1E0E0B24D96E54
:10563C00060E0C20DA6E010EDF6E0BD0FF0EE3505F
:10564C00020D760EF324D96E050EF420DA6EDE6AA6
:10565C00DD6AFF0EE32AFF0EE3C401F5020E0164BE
:10566C0082D7C19EE5521200E652E652E652E6524D
:10567C00FF0EE36AFA0EE350E66E79ECC5F0FE0E0F
:10568C0001C5E3F4FE0EE3A069D0FA0EE3500C0D55
:10569C00580EF324D96E010EF420DA6EDEC40BF52D
:1056AC00DDC40CF5FD0E0CC5E3F4FC0E0BC5E3F4E8
:1056BC00FC0EE3C401F5FD0EE3500110D8B44ED03E
:1056CC00F80EE3C4E6F4E3C4E6F4FA0EE3C4E6F43D
:1056DC00E3C4E6F4D8EC9AF0FA0EE3500C0D510E3C
:1056EC00F324D96E010EF420DA6E000EDB80FB0E73
:1056FC00E350020D4B0EF324D96E050EF420DA6E36
:10570C00DF2AFA0EE350E66E0BECC5F0FB0EE3500D
:10571C00020D4B0EF324D96E050EF420DA6E0150F7
