:0400000085EF00F098
:10000800E16CE16CE16CE16CE16CE16C415A046A11
:10001800E16CE16C31694069E16CE16CE16CE16CC7
:100028004F69E16CE16CE16C9E68E16CAF685E69F8
:10003800E16CE16CE16C4568E16CE16CE16C3268A3
:10004800E16CE16CE16CE16C5D631269E16CE16C9F
:10005800E16CE16CE16CE16CE16CE16CE16CE16C30
:10006800E16CE16CE16CE16CE16CE16CE16CE16C20
:10007800E16CE16CE16CE16C4200E16CE16CE16C1B
:10008800B5679E67E16CE16CCC67E16CE16CE16C93
:10009800E16CE16CE16CE16C4200E16CE16CE16CFB
:1000A800E16CE16CE16CE16CE16CE16CE16CE16CE0
:1000B800E16CE16CE16C2667E16CE16CE16CE16C90
:1000C800E16CE16CE16CE16CE16CE16CE16CE16CC0
:1000D800E2688A69E16CE16CE16CE16CE16CE16C0D
:1000E8004200E16CE16CE16CE16CE16CE16CE16CAB
:1000F800E16CE16CE16C5868E16CE16CE16CE16C1D
:0A010800FF0015EEF0F23CEFB0F03E
:10FC2400000001020304050607080C101418203014
:10FC3400401F1E1F1E1F1F1E1F1E1F1F1D00000111
:10FC44007C7C2F2F2D2D0000000000000000000000
:10FC5400000000007C7C2F2F2D2D5C5C0000000038
:10FC640000000000000000004F4F4F4F4F4F2D2D5C
:10FC74005F5F2D00000000000000000076763C3C31
:10FC84005E5E3E3E00000000000000000000000038
:10FC94002E2E2A2A7823782358587C7C2D2D000078
:10FCA400000000002E2E6F6F4F4F6F6F000000009A
:10FCB400000000000000000056312E303020444384
:10FCC40055202051383420202020004A616E46659A
:10FCD400624D61724170724D61794A756E4A756CFC
:10FCE4004175675365704F63744E6F764465630066
:10FCF4005077722025352E32666B57706B20253570
:10FD04002E32666B576820202020202020202020BF
:10FD14002020202000436867204625696D696E20F5
:10FD24004125696D696E202020202020202020207C
:10FD340020202020202000464D3830204657202502
:10FD4400582E25582E2558202020202020202020E1
:10FD540020202020202020004325752043524325C5
:10FD64006C7520524325752045432575202020209D
:10FD74002020202020200025342E316656202534D2
:10FD84002E316656203A44617920256920202020AE
:10FD94002020200030582558255825582558255806
:10FDA40025582558255820202020202020202000B8
:10FDB4004D49534320427574746F6E2050726573BD
:10FDC400736564202020202020202000256956709F
:10FDD4006B2025342E316641706B202569416820E3
:10FDE400202020202020004C6F6720427574746FFF
:10FDF4006E205072657373656420202020202020BB
:10FE04002000305825582020202020202020202089
:10FE1400202020202020202020002573202575204C
:10FE240020202020202020202020202020202020CE
:10FE34002000426174746572792064617461206C7D
:10FE44006F616465642020200053756E4D6F6E549D
:10FE540075655765645468754672695361740053D7
:10FE64004E3A2025732025752046573A20305825D0
:10FE7400582C255800444355203020202530336425
:10FE84002020202020202020202000444355203101
:10FE940020202530336420202020202020202020F2
:10FEA40000537065656420257320487A2020202043
:10FEB40020202020202000416C7420427574746F2F
:10FEC4006E20DFF420202020202020005374617253
:10FED4007420557020202020202020202020202045
:10FEE400004E4420252E31665768204143202020AF
:10FEF400202020202000444E20252E3166576820E3
:10FF040041432020202020202020004E4420252E64
:10FF140031665768205056202020202020202000C1
:10FF2400444E20252E31665768205056202020202C
:10FF34002020202000506F6C6C696E672050756D16
:10FF4400702020202020202020004D6F746F72200C
:10FF540025732020202020202020202000206572CE
:10FF6400726F72206C6F67676564200D0A002573D9
:10FF740020423A25582025582025582020200025A5
:10FF8400342E31662C25342E31662C25692C002321
:10FF94002C25352E32662C25352E32662C0025690B
:10FFA4002C25342E31662C25692C004E6F76203199
:10FFB4003920323032340031303A31373A33350077
:10FFC400286E756C6C290025692C25692C00257315
:10FFD4005E0D0A0025732020200044435520310083
:10FFE4002564202573002530336400696E66006E35
:0CFFF400616E00474D5400257320000092
:020000040001F9
:100000002C0EE126000EE222FC0EE36ACE0EE3C4C3
:1000100009F5CF0EE3C40AF5D00EE3C40BF5D10EFB
:10002000E3C40CF5DA0E09C5E3F4DB0E0AC5E3F40C
:10003000DC0E0BC5E3F4DD0E0CC5E3F4DD0EE3AE20
:100040001AD0FC0EE36AE32ADA0EE3C4E6F4E3C452
:10005000E6F4E3C4E6F4E3C4E6F4E5ECD1F0DA0E4A
:1000600001C5E3F4DB0E02C5E3F4DC0E03C5E3F4E3
:10007000DD0E04C5E3F4EA0EE36AEB0EE36AEE0E6E
:1000800021C5E3F4EF0E22C5E3F4FC0EE350D8B42F
:1000900016D0FC0EE350D8A402D02B0E01D02D0EAA
:1000A0000B6E000E0C6ED40E0BC5E3F4D50E0CC512
:1000B000E3F4D40EE3C401F5FC0E01C5E3F4DA0E5B
:1000C000E3C4E6F4E3C4E6F4E3C4E6F4E3C4E6F42C
:1000D00037ECB8F001040210D8A44CD0FC0EE35069
:1000E000D8B417D0FC0EE3C468F8E150EE0FD96E17
:1000F000E250DA6EFF0EDA22DE06000EDD5A010E45
:100100000B6E000E0C6EEA0E0BC5E3F4EB0E0CC585
:10011000E3F4EF0EE66EFF0EE66E680E0B6E080E51
:100120000C6EE80EE3500B26E90EE3500C220BC5D3
:10013000E6F40CC5E6F441ECCCF0E150EE0FD96EDC
:10014000E250DA6EFF0EDA22FD0EDE26FF0EDD2211
:10015000EE0EE3C4E6F4E3C4E6F4680EE66E080EC1
:10016000E66ECE0EE3C4E6F4E3C4E6F447ECC3F077
:100170003AEF87F0DA0EE3C4E6F4E3C4E6F4E3C44E
:10018000E6F4E3C4E6F437ECB8F001500210D8A46A
:1001900030D0FC0EE350D8B417D0FC0EE3C468F89E
:1001A000E150EE0FD96EE250DA6EFF0EDA22DE0673
:1001B000000EDD5A010E0B6E000E0C6EEA0E0BC522
:1001C000E3F4EB0E0CC5E3F4F30EE66EFF0EE66E01
:1001D000680E0B6E080E0C6EE80EE3500B26E90E4F
:1001E000E3500C220BC5E6F40CC5E6F441ECCCF070
:1001F000A4D7000E096E000E0A6E800E0B6E3F0E25
:100200000C6ED60E09C5E3F4D70E0AC5E3F4D80E7A
:100210000BC5E3F4D90E0CC5E3F4F00EE36AF10E5E
:10022000E36A000EE66E000EE66E000EE66E000E4D
:10023000E66ED60EE3C4E6F4E3C4E6F4E3C4E6F403
:10024000E3C4E6F440ECC5F001A028D038D1E60EB6
:10025000E3C409F5E70EE3C40AF5E80EE3C40BF5C1
:10026000E90EE3C40CF5D60E09C5E3F4D70E0AC5B2
:10027000E3F4D80E0BC5E3F4D90E0CC5E3F4F00E8D
:10028000E350010F016EF00E01C5E3F4016AF10EB7
:10029000E3500120016EF10E01C5E3F4000EE66E9D
:1002A000000EE66E200EE66E410EE66ED20EE3C440
:1002B000E6F4E3C4E6F4E3C4E6F4E3C4E6F40CECE9
:1002C00099F0E60E01C5E3F4E70E02C5E3F4E80E8B
:1002D00003C5E3F4E90E04C5E3F4DA0EE3C409F55B
:1002E000DB0EE3C40AF5DC0EE3C40BF5DD0EE3C45C
:1002F0000CF5E60EE350095EE70EE3500A5AE80EED
:10030000E3500B5AE90EE3500C5A09C5E6F40AC54E
:10031000E6F40BC5E6F40CC5E6F4C4ECCFF004BE7D
:1003200096D704500310021004E1020E015CD8A01D
:100330008ED7DA0EE3C4E6F4E3C4E6F4E3C4E6F4ED
:10034000E3C4E6F4E20EE3C4E6F4E3C4E6F4E3C493
:10035000E6F4E3C4E6F4E1ECB8F001A078D7DA0EF5
:10036000E3C409F5DB0EE3C40AF5DC0EE3C40BF5C8
:10037000DD0EE3C40CF5D60EE350095ED70EE35054
:100380000A5AD80EE3500B5AD90EE3500C5A09C53D
:10039000E6F40AC5E6F40BC5E6F40CC5E6F4C4ECD5
:1003A000CFF004BE08D004500310021072E1020E18
:1003B000015CD8B06ED0D60EE3C409F5D70EE3C405
:1003C0000AF5D80EE3C40BF5D90EE3C40CF5DA0E2A
:1003D00009C5E3F4DB0E0AC5E3F4DC0E0BC5E3F458
:1003E000DD0E0CC5E3F46BD0000EE66E000EE66E7B
:1003F000200EE66E410EE66ED20EE3C4E6F4E3C4D0
:10040000E6F4E3C4E6F4E3C4E6F45FECA0F0D60E51
:1004100001C5E3F4D70E02C5E3F4D80E03C5E3F437
:10042000D90E04C5E3F4E150F00FD96EE250DA6E54
:10043000FF0EDA22DE06000EDD5ADA0EE3C409F5FD
:10044000DB0EE3C40AF5DC0EE3C40BF5DD0EE3C4FA
:100450000CF5D60EE350095ED70EE3500A5AD80EBB
:10046000E3500B5AD90EE3500C5A09C5E6F40AC5FD
:10047000E6F40BC5E6F40CC5E6F4C4ECCFF004BE1C
:100480009AD704500310021004E1020E015CD8A0B8
:1004900092D7D60EE3C4E6F4E3C4E6F4E3C4E6F48C
:1004A000E3C4E6F4D60EE3C4E6F4E3C4E6F4E3C43E
:1004B000E6F4E3C4E6F4E1ECB8F001A095D7CD0E84
:1004C000E3C401F5FE0E01C5E3F4FE0EE3C401F53D
:1004D000FD0E01C5E3F424BE07D0F80E23C5E3F4F6
:1004E000F90E24C5E3F40AD0060E0B6E000E0C6E56
:1004F000F80E0BC5E3F4F90E0CC5E3F4F80EE3C4F3
:1005000001F5F20E01C5E3F4F90EE3C401F5F30EB3
:1005100001C5E3F4F20EE350010F016EF20E01C5C6
:10052000E3F4016AF30EE3500120016EF30E01C5FE
:10053000E3F4FD0EE3C401F5660E0118D8A434D02F
:10054000F10EE3AE18D0000E096E000E0A6E800E9A
:100550000B6E3F0E0C6ED60E09C5E3F4D70E0AC51E
:10056000E3F4D80E0BC5E3F4D90E0CC5E3F4F00E9A
:10057000E36AF10EE36AFE0EE3C401F5670E0118AB
:10058000D8B412D0F20EE350016EF00EE350012603
:10059000F20E01C5E3F4F30EE350016EF10EE350E9
:1005A0000122F30E01C5E3F4EC0EE36AED0EE36AFB
:1005B000DA0EE3C409F5DB0EE3C40AF5DC0EE3C48E
:1005C0000BF5DD0EE3C40CF5E20E09C5E3F4E30E12
:1005D0000AC5E3F4E40E0BC5E3F4E50E0CC5E3F441
:1005E000D60EE3C409F5D70EE3C40AF5D80EE3C46A
:1005F0000BF5D90EE3C40CF5E60E09C5E3F4E70EDE
:100600000AC5E3F4E80E0BC5E3F4E90E0CC5E3F408
:10061000A0D0D60EE3C4E6F4E3C4E6F4E3C4E6F403
:10062000E3C4E6F4DE0EE3C4E6F4E3C4E6F4E3C4B4
:10063000E6F4E3C4E6F45FECA0F001C5E6F402C51D
:10064000E6F403C5E6F404C5E6F48CECAAF0DE0E8D
:1006500001C5E3F4DF0E02C5E3F4E00E03C5E3F4E5
:10066000E10E04C5E3F4DE0EE3C4E6F4E3C4E6F40D
:10067000E3C4E6F4E3C4E6F48AECB9F001C50BF593
:1006800002C50CF5F40E0BC5E3F4F50E0CC5E3F44E
:10069000DE0EE3C4E6F4E3C4E6F4E3C4E6F4E3C444
:1006A000E6F4D20EE3C4E6F4E3C4E6F4E3C4E6F40D
:1006B000E3C4E6F40CEC99F001C5E6F402C5E6F4F7
:1006C00003C5E6F404C5E6F4DE0EE3C4E6F4E3C4D1
:1006D000E6F4E3C4E6F4E3C4E6F4A1ECD3F0E20EFE
:1006E00001C5E3F4E30E02C5E3F4E40E03C5E3F44D
:1006F000E50E04C5E3F4000EE66E000EE66E200E75
:10070000E66E410EE66ED20EE3C4E6F4E3C4E6F410
:10071000E3C4E6F4E3C4E6F45FECA0F0D60E01C552
:10072000E3F4D70E02C5E3F4D80E03C5E3F4D90E03
:1007300004C5E3F4EC0EE350010F016EEC0E01C5AD
:10074000E3F4016AED0EE3500120016EED0E01C5E8
:10075000E3F4E150EC0FD96EE250DA6EFF0EDA22CC
:10076000F20EE350DE5CDE50800A016EF30EE350C1
:10077000800A0158D8A04DD7000EE66E000EE66E36
:10078000A00EE66E400EE66ED20EE3C4E6F4E3C4BD
:10079000E6F4E3C4E6F4E3C4E6F40CEC99F0DE0E10
:1007A00001C5E3F4DF0E02C5E3F4E00E03C5E3F494
:1007B000E10E04C5E3F4DE0EE3C4E6F4E3C4E6F4BC
:1007C000E3C4E6F4E3C4E6F4DE0EE3C4E6F4E3C413
:1007D000E6F4E3C4E6F4E3C4E6F4E1ECB8F001A027
:1007E00019D0DE0EE3C4E6F4E3C4E6F4E3C4E6F4B1
:1007F000E3C4E6F4DE0EE3C4E6F4E3C4E6F4E3C4E3
:10080000E6F4E3C4E6F440ECC5F001A017D0F40E22
:10081000E3B014D0000E096E000E0A6E000E0B6ECF
:10082000000E0C6EDE0E09C5E3F4DF0E0AC5E3F41C
:10083000E00E0BC5E3F4E10E0CC5E3F4DE0EE3C4F9
:10084000E6F4E3C4E6F4E3C4E6F4E3C4E6F4D60E67
:10085000E3C4E6F4E3C4E6F4E3C4E6F4E3C4E6F494
:10086000CBEC9CF0E20E01C5E3F4E30E02C5E3F429
:10087000E40E03C5E3F4E50E04C5E3F4000EE66EF2
:10088000000EE66E200EE66E410EE66EE20EE3C44A
:10089000E6F4E3C4E6F4E3C4E6F4E3C4E6F40CEC03
:1008A00099F001C5E6F402C5E6F403C5E6F404C513
:1008B000E6F4DE0EE3C4E6F4E3C4E6F4E3C4E6F4EF
:1008C000E3C4E6F4E1ECB8F001A044D0F00EE3504C
:1008D000010F016EF00E01C5E3F4016AF10EE35061
:1008E0000120016EF10E01C5E3F4000EE66E000E6C
:1008F000E66E200EE66E410EE66EE20EE3C4E6F40E
:10090000E3C4E6F4E3C4E6F4E3C4E6F40CEC99F0E3
:10091000E60E01C5E3F4E70E02C5E3F4E80E03C5F5
:10092000E3F4E90E04C5E3F4FD0EE3C401F5660E3D
:100930000118D8A40FD0F20EE350010F016EF20E91
:1009400001C5E3F4016AF30EE3500120016EF30EDA
:1009500001C5E3F4E60EE3C409F5E70EE3C40AF5C6
:10096000E80EE3C40BF5E90EE3C40CF5D60E09C599
:10097000E3F4D70E0AC5E3F4D80E0BC5E3F4D90EA1
:100980000CC5E3F4F00EE3C401F5FA0E01C5E3F47F
:10099000F10EE3C401F5FB0E01C5E3F4FF0EE36ABB
:1009A000F60EE36AF70EE36AEC0EE36AED0EE36A15
:1009B0005AD1D60EE3C4E6F4E3C4E6F4E3C4E6F4A5
:1009C000E3C4E6F4DE0EE3C4E6F4E3C4E6F4E3C411
:1009D000E6F4E3C4E6F45FECA0F001C5E6F402C57A
:1009E000E6F403C5E6F404C5E6F48CECAAF0DE0EEA
:1009F00001C5E3F4DF0E02C5E3F4E00E03C5E3F442
:100A0000E10E04C5E3F4DE0EE3C4E6F4E3C4E6F469
:100A1000E3C4E6F4E3C4E6F48AECB9F001C50BF5EF
:100A200002C50CF50CBE06D00C5014E10A0E0B5C8E
:100A3000D8B010D0DE0EE3C4E6F4E3C4E6F4E3C4B9
:100A4000E6F4E3C4E6F48AECB9F001C50BF502C59F
:100A50000CF504D0090E0B6E000E0C6EF40E0BC5D7
:100A6000E3F4F50E0CC5E3F4FF0EE350D8A45FD019
:100A7000FB0EE3AE5CD0EA0EE3C40BF5EB0EE3C471
:100A80000CF5680E0B24D96E080E0C20DA6E2E0EB3
:100A9000DF6EEA0EE350010F016EEA0E01C5E3F4CA
:100AA000016AEB0EE3500120016EEB0E01C5E3F489
:100AB000E150EE0FD96EE250DA6EFF0EDA22DE065A
:100AC000000EDD5AFF0EE36AE32A31D0EA0EE3C4DA
:100AD0000BF5EB0EE3C40CF5680E0B24D96E080E73
:100AE0000C20DA6E300EDF6EEA0EE350010F016E5D
:100AF000EA0E01C5E3F4016AEB0EE3500120016E3A
:100B0000EB0E01C5E3F4E150EE0FD96EE250DA6E60
:100B1000FF0EDA22DE06000EDD5AE150F60FD96E26
:100B2000E250DA6EFF0EDA22DE06000EDD5AF60E15
:100B3000E3C401F5F70EE3500110D8A4C7D7EA0EBD
:100B4000E3C40BF5EB0EE3C40CF5680E0B24D96E71
:100B5000080E0C20DA6EF40EE350300FDF6EEA0E52
:100B6000E350010F016EEA0E01C5E3F4016AEB0EDA
:100B7000E3500120016EEB0E01C5E3F4E150EE0FEE
:100B8000D96EE250DA6EFF0EDA22DE06000EDD5A72
:100B9000DE0EE3C4E6F4E3C4E6F4E3C4E6F4E3C43F
:100BA000E6F4D20EE3C4E6F4E3C4E6F4E3C4E6F408
:100BB000E3C4E6F40CEC99F001C5E6F402C5E6F4F2
:100BC00003C5E6F404C5E6F4DE0EE3C4E6F4E3C4CC
:100BD000E6F4E3C4E6F4E3C4E6F4A1ECD3F0E20EF9
:100BE00001C5E3F4E30E02C5E3F4E40E03C5E3F448
:100BF000E50E04C5E3F4000EE66E000EE66E200E70
:100C0000E66E410EE66ED20EE3C4E6F4E3C4E6F40B
:100C1000E3C4E6F4E3C4E6F45FECA0F0D60E01C54D
:100C2000E3F4D70E02C5E3F4D80E03C5E3F4D90EFE
:100C300004C5E3F4E150FA0FD96EE250DA6EFF0E0C
:100C4000DA22DE06000EDD5AEC0EE350010F016ED3
:100C5000EC0E01C5E3F4016AED0EE3500120016ED4
:100C6000ED0E01C5E3F4E150EC0FD96EE250DA6EFF
:100C7000FF0EDA22F20EE350DE5CDE50800A016ED7
:100C8000F30EE350800A0158D8B00DD0EB0EE3BE4E
:100C900090D6EB0EE35007E1EA0EE3C401F54B0EEC
:100CA000015ED8A086D64F0E0B6E000E0C6EEC0EB9
:100CB0000BC5E3F4ED0E0CC5E3F4EC0EE3C40BF549
:100CC000ED0EE3C40CF5680E0B24D96E080E0C2053
:100CD000DA6EDF6AEA0EE3C4E6F4E3C4E6F4680E13
:100CE000E66E080EE66E680E0B6E080E0C6EE60ED3
:100CF000E3500B5EE70EE3500C5AE80EE3500B2670
:100D0000E90EE3500C220BC5E6F40CC5E6F472ECD8
:100D1000C2F0EC0EE3C40BF5ED0EE3C40CF5EA0EE5
:100D2000E3500B5EEB0EE3500C5AEA0E0BC5E3F4F6
:100D3000EB0E0CC5E3F4FC0EE350D8B402D0010E68
:100D400001D0000E0B6E0C6AEC0E0BC5E3F4ED0E39
:100D50000CC5E3F425B221D046D0E150EA0FD96E9C
:100D6000E250DA6EFF0EDA22DE06000EDD5ADEC435
:100D70000BF5DDC40CF5680E0B24D96E080E0C20A3
:100D8000DA6E300EDF6EE150EE0FD96EE250DA6EA1
:100D9000FF0EDA22DE06000EDD5AE150EC0FD96EAE
:100DA000E250DA6EFF0EDA22EE0EE350DE5CDE5029
:100DB000800A016EEF0EE350800A0158D8B013D0BC
:100DC000E150EC0FD96EE250DA6EFF0EDA22EA0E35
:100DD000E350DE5CDE50800A016EEB0EE350800AC9
:100DE0000158D8A0BAD7FC0EE350D8B417D0E150C0
:100DF000EA0FD96EE250DA6EFF0EDA22DE06000E3E
:100E0000DD5ADEC40BF5DDC40CF5680E0B24D96E7B
:100E1000080E0C20DA6EFC0EE3C4DFF4EE0EE35095
:100E2000016EEC0EE350015EEE0E01C5E3F4EF0E31
:100E3000E350016EED0EE350015AEF0E01C5E3F4ED
:100E4000EE0EE3C4E6F4E3C4E6F4680E0B6E080E9F
:100E50000C6EE80EE3500B26E90EE3500C220BC596
:100E6000E6F40CC5E6F4CE0EE3C4E6F4E3C4E6F41F
:100E700047ECC3F0CD0EE126FF0EE2221200E6524F
:100E8000D9C609F5DAC60AF5DBC60BF5DCC60CF5E2
:100E90000601D92B000EDA23DB23DC230C500B10C8
:100EA0000A1009E1280E095CD8B005D00501C0512F
:100EB000D8B457EF8CF00601D96BDA6BDB6BDC6BC7
:100EC000FD0EE3C40BF5FE0EE3C40CF5050E0B247A
:100ED000D96E000E0C20DA6E010EDF6E2AEF8CF058
:100EE000FD0EE3C40BF5FE0EE3C40CF5050E0B245A
:100EF000D96E000E0C20DA6E020EDF6E80ECD9F097
:100F00007AECD9F0FD0EE3C40BF5FE0EE3C40CF54C
:100F1000010E0B24D96E000E0C20DA6E010EDF6E6E
:100F2000FD0EE3C4D9F4FE0EE3C4DAF4FD0EE3C40F
:100F30000BF5FE0EE3C40CF5020E0B24E96E000E59
:100F40000C20EA6EDFC4EFF4FD0EE3C4D9F4FE0E0C
:100F5000E3C4DAF4DF2AFD0EE3C40BF5FE0EE3C4AE
:100F60000CF5020E0B24D96E000E0C20DA6E030E67
:100F7000DE18D8A42AD0FD0EE3C40BF5FE0EE3C4A0
:100F80000CF5080E0B24D96E000E0C20DA6EDF5023
:100F9000D8B41BD0FD0EE3C4D9F4FE0EE3C4DAF4DA
:100FA000FD0EE3C40BF5FE0EE3C40CF5020E0B249C
:100FB000E96E000E0C20EA6EDFC4EFF4FD0EE3C410
:100FC000D9F4FE0EE3C4DAF4DF2AFD0EE3C40BF518
:100FD000FE0EE3C40CF5020E0B24D96E000E0C209D
:100FE000DA6E040EDE18D8A42AD0FD0EE3C40BF589
:100FF000FE0EE3C40CF5070E0B24D96E000E0C2078
:10100000DA6EDF50D8B41BD0FD0EE3C4D9F4FE0E67
:10101000E3C4DAF4FD0EE3C40BF5FE0EE3C40CF5F5
:10102000020E0B24E96E000E0C20EA6EDFC4EFF412
:10103000FD0EE3C4D9F4FE0EE3C4DAF4DF2AFD0E9C
:10104000E3C40BF5FE0EE3C40CF5020E0B24D96EBF
:10105000000E0C20DA6E050EDE18D8A42AD0FD0E84
:10106000E3C40BF5FE0EE3C40CF50A0E0B24D96E97
:10107000000E0C20DA6EDF50D8B41BD0FD0EE3C496
:10108000D9F4FE0EE3C4DAF4FD0EE3C40BF5FE0E54
:10109000E3C40CF5020E0B24E96E000E0C20EA6E80
:1010A000DFC4EFF4FD0EE3C4D9F4FE0EE3C4DAF4BA
:1010B000DF2AFD0EE3C40BF5FE0EE3C40CF5020EB1
:1010C0000B24D96E000E0C20DA6E060EDE18D8A4A2
:1010D0002AD0FD0EE3C40BF5FE0EE3C40CF50C0E96
:1010E0000B24D96E000E0C20DA6EDF50D8B41BD062
:1010F000FD0EE3C4D9F4FE0EE3C4DAF4FD0EE3C43E
:101100000BF5FE0EE3C40CF5020E0B24E96E000E87
:101110000C20EA6EDFC4EFF4FD0EE3C4D9F4FE0E3A
:10112000E3C4DAF4DF2AFD0EE3C40BF5FE0EE3C4DC
:101130000CF5020E0B24D96E000E0C20DA6E070E91
:10114000DE18D8A42AD0FD0EE3C40BF5FE0EE3C4CE
:101150000CF50B0E0B24D96E000E0C20DA6EDF504E
:10116000D8B41BD0FD0EE3C4D9F4FE0EE3C4DAF408
:10117000FD0EE3C40BF5FE0EE3C40CF5020E0B24CA
:10118000E96E000E0C20EA6EDFC4EFF4FD0EE3C43E
:10119000D9F4FE0EE3C4DAF4DF2AFD0EE3C4D9F479
:1011A000FE0EE3C4DAF4080EDF6415D1FD0EE3C4CD
:1011B000D9F4FE0EE3C4DAF4DF6A0DD1FD0EE3C408
:1011C0000BF5FE0EE3C40CF5050E0B24D96E000ED4
:1011D0000C20DA6E080EDF6E140EE66E000EE66E60
:1011E0004B0EE66E070EE66E000EE66E0D0EE66E18
:1011F00078ECBBF0DFD0FD0EE3C40BF5FE0EE3C4CC
:101200000CF5050E0B24D96E000E0C20DA6E070EBD
:10121000DF6E140EE66E000EE66E4B0EE66E070EE7
:10122000E66E000EE66E0D0EE66E78ECBBF0C2D0F8
:10123000FD0EE3C40BF5FE0EE3C40CF5050E0B2406
:10124000D96E000E0C20DA6E130EDF6E140EE66EF1
:10125000000EE66E4B0EE66E070EE66E000EE66EB4
:101260000D0EE66E78ECBBF0A5D0FD0EE3C40BF5D9
:10127000FE0EE3C40CF5050E0B24D96E000E0C20F7
:10128000DA6E030EDF6E140EE66E000EE66E4B0E87
:10129000E66E070EE66E000EE66E0D0EE66E78EC5C
:1012A000BBF088D0FD0EE3C40BF5FE0EE3C40CF5D5
:1012B000050E0B24D96E000E0C20DA6E040EDF6EC4
:1012C000140EE66E000EE66E4B0EE66E070EE66E30
:1012D000000EE66E0D0EE66E78ECBBF06BD0FD0EE8
:1012E000E3C40BF5FE0EE3C40CF5050E0B24D96E1A
:1012F000000E0C20DA6E050EDF6E140EE66E000E88
:10130000E66E4B0EE66E070EE66E000EE66E0D0EF6
:10131000E66E78ECBBF04ED0FD0EE3C40BF5FE0E8E
:10132000E3C40CF5050E0B24D96E000E0C20DA6E0A
:10133000050EDF6E140EE66E000EE66E4B0EE66EC8
:10134000070EE66E000EE66E0D0EE66E78ECBBF054
:1013500031D0FD0EE3C40BF5FE0EE3C40CF5010E17
:101360000B24D96E000E0C20DA6EDF6AFD0EE3C48A
:10137000D9F4FE0EE3C4DAF4DF6A8DD2FD0EE3C4C5
:101380000BF5FE0EE3C40CF5050E0B24D96E000E12
:101390000C20DA6E060EDF6E100EE66E000EE66EA4
:1013A0005F0EE66E070EE66E000EE66E0D0EE66E42
:1013B00078ECBBF0FD0EE3C40BF5FE0EE3C40CF5B8
:1013C000030E0B24D96E000E0C20DA6E01C5DEF47C
:1013D00002C5DDF460D2FD0EE3C40BF5FE0EE3C4DE
:1013E0000CF5020E0B24D96E000E0C20DA6EDF50C5
:1013F0000B6E0C6A0C50000AD8A4CED70B50000A12
:10140000D8B4BCD7010AD8B46AD7030AD8B484D7F1
:10141000010AD8B447D7070AD8B427D7010AD8B4E5
:1014200007D7030AD8B4CAD6010AD8B4E4D60F0A3B
:10143000D8B48FD7B1D7FD0EE3C40BF5FE0EE3C4CD
:101440000CF5050E0B24D96E000E0C20DA6E090E79
:10145000DF6E000EE66E51ECD4F004500310021063
:1014600004E1280E015CD8A016D2000EE66E86ECD0
:10147000D8F00501AC6BFD0EE3C40BF5FE0EE3C422
:101480000CF5010E0B24D96E000E0C20DA6E020E44
:10149000DF6E74ECD9F0FD0EE3C40BF5FE0EE3C471
:1014A0000CF5050E0B24D96E000E0C20DA6E0A0E18
:1014B000DF6EF1D1FD0EE3C40BF5FE0EE3C40CF5B7
:1014C000050E0B24D96E000E0C20DA6E0B0EDF6EAB
:1014D000000E096E0A6A0B6A0C6A000EE66E21ECB9
:1014E000D4F001C505F502C506F503C507F504C529
:1014F00008F50C50081808E10B50071805E10A50D0
:10150000061802E109500518D8B4C5D1FF0EE36AE8
:1015100010D0FF0EE3500B6E0C6A000E0B24D96E38
:101520000D0E0C20DA6EDF50E66E69ECD3F0FF0E84
:10153000E32AFD0EE3C40BF5FE0EE3C40CF5030E27
:101540000B24D96E000E0C20DA6EFF0EE3500B6EEA
:101550000C6ADE500B5CDE500C58D8A0DAD7FD0EBA
:10156000E3C40BF5FE0EE3C40CF5010E0B24D96E9B
:10157000000E0C20DA6E030EDF6E74ECD9F0FD0E57
:10158000E3C40BF5FE0EE3C40CF5050E0B24D96E77
:10159000000E0C20DA6E0C0EDF6E010EBC27000E62
:1015A000BD23BE23BF23C06BA1ECD9F00150D8A44A
:1015B00074ECD9F0FD0EE3C40BF5FE0EE3C40CF59C
:1015C000030E0B24D96E000E0C20DA6EDEC40BF570
:1015D000DDC40CF5030E0B26000E0C220BC5E6F441
:1015E0000CC5E6F436ECD9F0C09455D1FD0EE3C439
:1015F0000BF5FE0EE3C40CF5050E0B24D96E000EA0
:101600000C20DA6E0D0EDF6E000E096E0A6A0B6A90
:101610000C6A000EE66E21ECD4F001C505F502C59A
:1016200006F503C507F504C508F50C50081808E1D0
:101630000B50071805E10A50061802E10950051879
:10164000D8B429D1FD0EE3C40BF5FE0EE3C40CF5AE
:10165000050E0B24D96E000E0C20DA6E0E0EDF6E16
:10166000000EE66E95ECD8F0C8D0140EE66E000EB3
:10167000E66EFB0EE3500A0F0B6EFC0EE3C40CF596
:10168000000E0C220BC5E6F40CC5E6F4F90EE3C41B
:10169000E6F4E3C4E6F4EEECA2F0FDD0140EE66E40
:1016A000000EE66EFB0EE350070F0B6EFC0EE3C45C
:1016B0000CF5000E0C220BC5E6F40CC5E6F4F90E91
:1016C000E3C4E6F4E3C4E6F4EEECA2F0E4D0140ED6
:1016D000E66E000EE66EFB0EE350080F0B6EFC0E7E
:1016E000E3C40CF5000E0C220BC5E6F40CC5E6F4C1
:1016F000F90EE3C4E6F4E3C4E6F4EEECA2F0CBD0DA
:10170000140EE66E000EE66EFB0EE350090F0B6E34
:10171000FC0EE3C40CF5000E0C220BC5E6F40CC560
:10172000E6F4F90EE3C4E6F4E3C4E6F4EEECA2F06A
:10173000B2D0140EE66E000EE66EFB0EE350090FFB
:101740000B6EFC0EE3C40CF5000E0C220BC5E6F488
:101750000CC5E6F4F90EE3C4E6F4E3C4E6F4EEECFB
:10176000A2F099D0140EE66E000EE66EFB0EE3506A
:101770000C0F0B6EFC0EE3C40CF5000E0C220BC517
:10178000E6F40CC5E6F4F90EE3C4E6F4E3C4E6F4CB
:10179000EEECA2F080D0140EE66E000EE66EFB0EAC
:1017A000E3500B0F0B6EFC0EE3C40CF5000E0C2285
:1017B0000BC5E6F40CC5E6F4F90EE3C4E6F4E3C4A5
:1017C000E6F4EEECA2F067D0140EE66E000EE66EC4
:1017D000FB0EE350060F0B6EFC0EE3C40CF5000E7F
:1017E0000C220BC5E6F40CC5E6F4F90EE3C4E6F4EE
:1017F000E3C4E6F4EEECA2F04ED0FD0EE3C40BF52C
:10180000FE0EE3C40CF5020E0B24D96E000E0C2064
:10181000DA6EDF500B6E0C6A0C50000AD8A4D4D7D5
:101820000B50000AD8B4D0D7010AD8B469D7030A3C
:10183000D8B47FD7010AD8B44AD7070AD8B42ED76C
:10184000010AD8B412D7030AD8B48CD7010AD8B485
:10185000A2D7BAD7FD0EE3C40BF5FE0EE3C40CF518
:10186000010E0B24D96E000E0C20DA6EDF500B6EC9
:101870000C6A0C50000AD8A40ED00B50000AD8B441
:1018800070EF87F0010AD8B4D6D5030AD8B412D6BF
:10189000010AD8B4ABD6FD0EE3C40BF5FE0EE3C4CB
:1018A0000CF5050E0B24D96E000E0C20DA6EE552F5
:1018B000E552E55212002D0EE126000EE222CF0E77
:1018C000E350800F096ED00EE3C40AF5A20E0A227F
:1018D000D10EE3C40BF5430E0B22D20EE3C40CF57C
:1018E000C70E0C22E80E09C5E3F4E90E0AC5E3F4BD
:1018F000EA0E0BC5E3F4EB0E0CC5E3F4CF0EE3C424
:1019000001F5810E015ED00EE3C401F55D0E015AB2
:10191000D10EE3C401F5BC0E015AD20EE3C401F5A9
:10192000380E015AD8A033D0800EE66E510EE66E06
:10193000010EE66E000EE66EE40EE3C4E6F4E3C4C8
:10194000E6F4E3C4E6F4E3C4E6F4B6ECBEF0EC0E71
:1019500001C5E3F4ED0E02C5E3F4EE0E03C5E3F4B6
:10196000EF0E04C5E3F4800EE66E510EE66E010E36
:10197000E66E000EE66EE40EE3C4E6F4E3C4E6F4BD
:10198000E3C4E6F4E3C4E6F407ECC2F032D0800E20
:10199000E66E510EE66E010EE66E000EE66EE40E89
:1019A000E3C4E6F4E3C4E6F4E3C4E6F4E3C4E6F433
:1019B0004CECB5F0EC0E01C5E3F4ED0E02C5E3F41A
:1019C000EE0E03C5E3F4EF0E04C5E3F4800EE66EFD
:1019D000510EE66E010EE66E000EE66EE40EE3C4F6
:1019E000E6F4E3C4E6F4E3C4E6F4E3C4E6F489EC25
:1019F000B7F0D80E01C5E3F4D90E02C5E3F4DA0E50
:101A000003C5E3F4DB0E04C5E3F4DB0EE3AE1BD049
:101A1000E150D80FD96EE250DA6EFF0EDA22800E56
:101A2000DE26510EDE22010EDE22000EDE22E15005
:101A3000EC0FD96EE250DA6EFF0EDA22DE06000EEF
:101A4000DE5ADE5ADE5A070EE66E000EE66E000E15
:101A5000E66E000EE66EE80EE350030F096EE90E27
:101A6000E3C40AF5000E0A22EA0EE3C40BF5000EE9
:101A70000B22EB0EE3C40CF5000E0C2209C5E6F4B4
:101A80000AC5E6F40BC5E6F40CC5E6F489ECB7F03C
:101A900001C50BF502C50CF5FE0E0BC5E3F4FF0EF8
:101AA0000CC5E3F4FF0EE3AE0FD0FE0EE350070FBC
:101AB000016EFE0E01C5E3F4016AFF0EE350012042
:101AC000016EFF0E01C5E3F4B10EE66E3A0EE66E4E
:101AD000020EE66E000EE66EE80EE3C4E6F4E3C422
:101AE000E6F4E3C4E6F4E3C4E6F44CECB5F0F00E3F
:101AF00001C5E3F4F10E02C5E3F4F20E03C5E3F40D
:101B0000F30E04C5E3F4B10EE66E3A0EE66E020E75
:101B1000E66E000EE66EE80EE3C4E6F4E3C4E6F417
:101B2000E3C4E6F4E3C4E6F489ECB7F0D40E01C5EF
:101B3000E3F4D50E02C5E3F4D60E03C5E3F4D70EE5
:101B400004C5E3F4D70EE3AE1BD0E150D40FD96E39
:101B5000E250DA6EFF0EDA22B10EDE263A0EDE22F7
:101B6000020EDE22000EDE22E150F00FD96EE250AE
:101B7000DA6EFF0EDA22DE06000EDE5ADE5ADE5A7A
:101B8000AC0EE66E8E0EE66E000EE66E000EE66E93
:101B9000D00EE3C4E6F4E3C4E6F4E3C4E6F4E3C43D
:101BA000E6F44CECB5F0E00E01C5E3F4E10E02C53D
:101BB000E3F4E20E03C5E3F4E30E04C5E3F4E00E40
:101BC000E3C401F5040E011816E1E10EE35013E140
:101BD000E20EE35010E1E30EE350D8A40CD0E15044
:101BE000E00FD96EE250DA6EFF0EDA22DE06000E4A
:101BF000DE5ADE5ADE5AAC0EE66E8E0EE66E000E31
:101C0000E66E000EE66EDC0EE3C4E6F4E3C4E6F432
:101C1000E3C4E6F4E3C4E6F47AECC4F0E150D40F94
:101C2000D96EE250DA6EFF0EDA220150DE5E02500B
:101C3000DE5A0350DE5A0450DE5AB50EE66E050E2B
:101C4000E66E000EE66E000EE66ED00EE3C4E6F41D
:101C5000E3C4E6F4E3C4E6F4E3C4E6F44CECB5F024
:101C6000DC0E01C5E3F4DD0E02C5E3F4DE0E03C5B0
:101C7000E3F4DF0E04C5E3F4DC0EE3C401F5190E52
:101C8000011816E1DD0EE35013E1DE0EE35010E122
:101C9000DF0EE350D8A40CD0E150DC0FD96EE25037
:101CA000DA6EFF0EDA22DE06000EDE5ADE5ADE5A49
:101CB000B50EE66E050EE66E000EE66E000EE66EE2
:101CC000D80EE3C4E6F4E3C4E6F4E3C4E6F4E3C404
:101CD000E6F47AECC4F0E150D40FD96EE250DA6E3B
:101CE000FF0EDA220150DE5E0250DE5A0350DE5A49
:101CF0000450DE5A6D0EE66E010EE66E000EE66EC4
:101D0000000EE66ED00EE3C4E6F4E3C4E6F4E3C4EA
:101D1000E6F4E3C4E6F44CECB5F0E40E01C5E3F4FC
:101D2000E50E02C5E3F4E60E03C5E3F4E70E04C5D1
:101D3000E3F4E40EE3C401F5040E011816E1E50E28
:101D4000E35013E1E60EE35010E1E70EE350D8A4B0
:101D50000CD0E150E40FD96EE250DA6EFF0EDA22B9
:101D6000DE06000EDE5ADE5ADE5A6D0EE66E010EFB
:101D7000E66E000EE66E000EE66EE00EE3C4E6F4DC
:101D8000E3C4E6F4E3C4E6F4E3C4E6F47AECC4F0B6
:101D9000E150D40FD96EE250DA6EFF0EDA22015014
:101DA000DE5E0250DE5A0350DE5A0450DE5AD30E75
:101DB000E36AE40EE35027E1E50EE35024E1E60E8A
:101DC000E35021E1E70EE350D8A41DD0DC0EE35030
:101DD00017E1DD0EE35014E1DE0EE35011E1DF0EFA
:101DE000E350D8A40DD0E00EE3500DE1E10EE35036
:101DF0000AE1E20EE35007E1E30EE350D8A403D07A
:101E0000D30EE36AE32AD30EE3500B6E0C6AFA0E8C
:101E10000BC5E3F4FB0E0CC5E3F4FA0EE3C40BF5BB
:101E2000FB0EE3C40CF5D40EE3500B26D50EE350A5
:101E30000C223B0E0B26000E0C22FC0E0BC5E3F40D
:101E4000FD0E0CC5E3F4FA0EE3506D0F0B6EFB0EA6
:101E5000E3C40CF5010E0C22FC0EE3C401F50B509B
:101E6000015CFD0EE350800A016E0C50800A01589F
:101E7000D8A019D0FA0EE3506D0F0B6EFB0EE3C421
:101E80000CF5010E0C22FC0EE3C401F50B50015EB3
:101E9000FC0E01C5E3F4FD0EE3C401F50C50015A3C
:101EA000FD0E01C5E3F4DC0EE3C409F5DD0EE3C469
:101EB0000AF5DE0EE3C40BF5DF0EE3C40CF5020EEB
:101EC000D89009360A360B360C36E82EF9D7900E24
:101ED000E66E010EE66E000EE66E000EE66EEC0E8D
:101EE000E3C4E6F4E3C4E6F4E3C4E6F4E3C4E6F4EE
:101EF0007AECC4F001C505F502C506F503C507F582
:101F000004C508F5640EE66E000EE66E000EE66E81
:101F1000000EE66EDC0EE3C4E6F4E3C4E6F4E3C4CC
:101F2000E6F4E3C4E6F47AECC4F00150052602506E
:101F30000622035007220450082209500524016E8E
:101F40000A500620026E0B500720036E0C5008202A
:101F5000046EE40EE3500126E50EE3500222E60E85
:101F6000E3500322E70EE3500422F40E01C5E3F42C
:101F7000F50E02C5E3F4F60E03C5E3F4F70E04C54F
:101F8000E3F4F80EE36AF90EE36A2CD0E150D40FC3
:101F9000D96EE250DA6EFF0EDA22F80EE3C40BF5CA
:101FA000F90EE3C40CF5350E0B24F66EFC0E0C2076
:101FB000F76EF86A000EF8220800F550DE5E000E9B
:101FC000DE5ADE5ADE5AF80EE350010F016EF80EAB
:101FD00001C5E3F4016AF90EE3500120016EF90E28
:101FE00001C5E3F4F80EE3C40BF5F90EE3C40CF5F8
:101FF000350E0B24F66EFC0E0C20F76EF86A000E00
:10200000F8220800F5C40CF50CC505F5066A076A48
:10201000086AD40EE3C401F50550015CD50EE3C493
:1020200001F506500158D60EE3C401F507500158DA
:10203000D70EE350800A016E0850800A0158D8B0CC
:10204000A5D7F90EE3BE21D0F90EE35007E1F80E53
:10205000E3C401F50A0E015ED8A017D0E150F80FD5
:10206000D96EE250DA6EFF0EDA22F40EDE26FF0E93
:10207000DD22E150F40FD96EE250DA6EFF0EDA2263
:10208000DE2A000EDE22DE22DE22F40EE350640F92
:102090000B6EF50EE3C40CF5000E0C22CD0EE3C45E
:1020A00009F5CE0EE3C40AF50A0E0924D96E000E16
:1020B0000A20DA6E0BC5DEF40CC5DDF4F80EE35031
:1020C000020F0B6EF90EE3C40CF5000E0C22CD0EC0
:1020D000E3C409F5CE0EE3C40AF5080E0924D96E4F
:1020E000000E0A20DA6E0BC5DEF40CC5DDF4D40E4A
:1020F000E350010F0B6ED50EE3C40CF5000E0C225D
:10210000CD0EE3C409F5CE0EE3C40AF5060E09248C
:10211000D96E000E0A20DA6E0BC5DEF40CC5DDF4B4
:10212000E150FE0FD96EE250DA6EFF0EDA22CD0ECC
:10213000E3C40BF5CE0EE3C40CF50C0E0B24E96ED4
:10214000000E0C20EA6EDEC4EEF4DDC4EDF4E150C6
:10215000FC0FD96EE250DA6EFF0EDA22CD0EE3C428
:102160000BF5CE0EE3C40CF50E0E0B24E96E000E3B
:102170000C20EA6EDEC4EEF4DDC4EDF4100EE66E63
:102180000E0EE66E000EE66E000EE66ED40EE3C492
:10219000E6F4E3C4E6F4E3C4E6F4E3C4E6F44CECAA
:1021A000B5F001C50BF502C50CF5CD0EE3C409F57C
:1021B000CE0EE3C40AF5040E0924D96E000E0A20DF
:1021C000DA6E0BC5DEF40CC5DDF43C0EE66E000ED7
:1021D000E66E000EE66E000EE66E3C0EE66E000E3B
:1021E000E66E000EE66E000EE66ED00EE3C4E6F478
:1021F000E3C4E6F4E3C4E6F4E3C4E6F44CECB5F07F
:1022000001C5E6F402C5E6F403C5E6F404C5E6F448
:1022100089ECB7F001C50BF502C50CF5CD0EE3C492
:1022200009F5CE0EE3C40AF5020E0924D96E000E9C
:102230000A20DA6E0BC5DEF40CC5DDF43C0EE66E4A
:10224000000EE66E000EE66E000EE66ED40EE3C4DF
:10225000E6F4E3C4E6F4E3C4E6F4E3C4E6F489ECAC
:10226000B7F001C50BF502C50CF5CD0EE3C4D9F4EA
:10227000CE0EE3C4DAF40BC5DEF40CC5DDF4000EBB
:10228000016E000E026ECD0EE126FF0EE22212005C
:10229000170EE126000EE22216ECD0F082ECCCF014
:1022A000D68ED68C2C0EE66E780EE66E010EE66E9D
:1022B000F0ECD6F0B3ECD9F0340EE66EA20EE66E7A
:1022C000010EE66E12ECD7F0BFECD9F0BC0EE66E54
:1022D0009D0EE66E010EE66E01ECD7F0B9ECD9F07A
:1022E000B0ECC3F01CECD5F0000EE66EA30EE66E6B
:1022F000010EE66E35ECD6F0140EE66E000EE66EBC
:10230000020EE66E4DECD3F0D6ECD3F0C80EE66EBE
:10231000000EE66E030EE66E4DECD3F024ECC1F039
:10232000BC0EE66EFC0EE66ED80EE66EFF0EE66E96
:10233000000EE66E020EE66EF00EE66E140EE66E0F
:10234000080EE66E26ECB1F0F00EE66E140EE66EA8
:10235000000EE66E000EE66E00ECC6F0AF0EE66E06
:10236000FF0EE66ED80EE66EFF0EE66E000EE66E0F
:10237000020EE66EF00EE66E140EE66E080EE66EC7
:1023800026ECB1F0F00EE66E140EE66E000EE66E70
:10239000010EE66E00ECC6F0A20EE66E090EE66EC9
:1023A000AEECC0F00150D8B413D0A4C924F6360E58
:1023B000E66EFE0EE66E000EE66E020EE66EF00EA5
:1023C000E66E140EE66E060EE66E26ECB1F020D038
:1023D000F150E66E000EE66EF050E66E000EE66E10
:1023E000D850E66E000EE66EBB0EE66EFF0EE66E91
:1023F000720EE66EFF0EE66E000EE66E020EE66EE2
:10240000F00EE66E140EE66E0E0EE66E26ECB1F0E1
:10241000F00EE66E140EE66E000EE66E020EE66E2E
:1024200000ECC6F0D00EE66EFE0EE66EFB0EE66E1B
:10243000FF0EE66E000EE66E020EE66EF00EE66E23
:10244000140EE66E080EE66E26ECB1F0F00EE66EA7
:10245000140EE66E000EE66E030EE66E00ECC6F09D
:10246000400EE66E420EE66E0F0EE66E000EE66E53
:10247000E5ECCDF0390EE66EFF0EE66EFB0EE66E75
:10248000FF0EE66E000EE66E020EE66EF00EE66ED3
:10249000140EE66E080EE66E26ECB1F0F00EE66E57
:1024A000140EE66E000EE66E020EE66E00ECC6F04E
:1024B0000601196B1A6BFF0EE36AFF0EE350020D63
:1024C000F3C409F5F4C40AF5000E0ABEFF0E0B6E44
:1024D0000C6E000E0924046E000E0A20056E2C0EF0
:1024E0000B20066E04C5E6F405C5E6F406C5E6F461
:1024F000A2ECBCF0FF0EE350020D300EF324D96EB7
:10250000060EF420DA6E01C5DEF402C5DDF4FF0E1E
:10251000E350020D300EF324D96E060EF420DA6E6D
:10252000DE5006011927DD501A23FF0EE32AFF0EA5
:10253000E3C401F5080E0164C0D7196B1A6B3EC6DF
:10254000E6F43FC6E6F43CC6E6F43DC6E6F43AC619
:10255000E6F43BC6E6F438C6E6F439C6E6F436C619
:10256000E6F437C6E6F434C6E6F435C6E6F432C619
:10257000E6F433C6E6F430C6E6F431C6E6F49A0E65
:10258000E66EFD0EE66E150EE66E000EE66ED50EDC
:10259000E124016EFF0EE220026E01C5E6F402C5E1
:1025A000E6F4160EE66E26ECB1F0E90EE124016EBB
:1025B000FF0EE220026E01C5E6F402C5E6F45CEC13
:1025C000C8F0C30EE66E050EE66EE0ECD8F001C56D
:1025D0009DF502C59EF5C18A060EE66E070EE66EF3
:1025E0003FEC87F006010151D8B414D0A2ECD1F031
:1025F0000601016B010151B302D0010E01D0000EA2
:10260000010B0601226F2251D8A402D00701136BDF
:102610000FC723F6030EE66EFFECD5F00150D8B4D9
:10262000A0D10501A52BA5050C6E040E0C6486D067
:10263000000EE66E000EE66E000EE66E000EE66E12
:10264000200EE66E410EE66E0CC8E6F40DC8E6F408
:102650000EC8E6F40FC8E6F4010EE66E4FECAFF0DC
:1026600001C5E6F402C5E6F403C5E6F404C5E6F4E4
:102670005FECA0F001C5E6F402C5E6F403C5E6F49C
:1026800004C5E6F4D4ECB6F0000EE66E010EE66E7C
:10269000000EE66E000EE66E200EE66E410EE66E51
:1026A00024C8E6F425C8E6F426C8E6F427C8E6F40C
:1026B000010EE66E4FECAFF001C5E6F402C5E6F49C
:1026C00003C5E6F404C5E6F45FECA0F001C5E6F44A
:1026D00002C5E6F403C5E6F404C5E6F4D4ECB6F0AE
:1026E000000EE66E020EE66E000EE66E000EE66E60
:1026F000200EE66E410EE66E30C8E6F431C8E6F410
:1027000032C8E6F433C8E6F4010EE66E4FECAFF0E3
:1027100001C5E6F402C5E6F403C5E6F404C5E6F433
:102720005FECA0F001C5E6F402C5E6F403C5E6F4EB
:1027300004C5E6F4D4ECB6F00501A56BC80EE66E50
:10274000000EE66E030EE66E4DECD3F007010F515E
:10275000D8B486D00501AE51096EAF510A6E0B6A2E
:102760000C6A095006016C5D0A506D590B506E5988
:102770000C506F59D8B074D0DE0EE66EFF0EE66EC8
:10278000000EE66E020EE66EF00EE66E140EE66EBB
:10279000060EE66E26ECB1F0F00EE66E140EE66E56
:1027A000000EE66E010EE66E00ECC6F0610EE66EFF
:1027B000FF0EE66E000EE66E020EE66EF00EE66EA0
:1027C000120EE66E060EE66E26ECB1F00501A4517F
:1027D000D8A42FD009C7E6F40AC7E6F4AC51E66ED8
:1027E000000EE66EB4C5E6F4B5C5E6F4B6C5E6F48B
:1027F000B7C5E6F407010851E66E000EE66E5C0E02
:10280000E66EFD0EE66E000EE66E020EE66EF00E51
:10281000E66E140EE66E100EE66E26ECB1F0F00ECB
:10282000E66E140EE66E000EE66E000EE66E00EC2E
:10283000C6F00501A42BA4050C6E090E0C6491D002
:10284000030EAE250B6E000EAF210C6E0BC56CF6A1
:102850000CC56DF606016E6B6F6B0501A46B81D024
:102860000501AE6BAF6B0BC70BF50C6A0BBE0C060C
:102870000BC5E6F40CC5E6F4790EE66EFE0EE66EC8
:10288000000EE66E020EE66EF00EE66E140EE66EBA
:10289000080EE66E26ECB1F0F00EE66E140EE66E53
:1028A000000EE66E000EE66E00ECC6F00501AC51BF
:1028B000E66E000EE66E8F0EE66EFE0EE66E000E03
:1028C000E66E020EE66EF00EE66E140EE66E080E72
:1028D000E66E26ECB1F0F00EE66E140EE66E000E1B
:1028E000E66E010EE66E00ECC6F03F0EE66E070ED9
:1028F000E66E4E0EE66EFF0EE66E000EE66E020E01
:10290000E66EF00EE66E140EE66E080EE66E26EC2F
:10291000B1F0F00EE66E140EE66E000EE66E020EDC
:10292000E66E00ECC6F0330EE66E070EE66EA50E00
:10293000E66EFE0EE66E000EE66E020EE66EF00E1F
:10294000E66E140EE66E080EE66E26ECB1F0F00EA2
:10295000E66E140EE66E000EE66E030EE66E00ECFA
:10296000C6F006010651D8B42ED0BF82066B242BC8
:10297000030E246501D0246B24C6A4F9BB0EE66EB9
:10298000FE0EE66E2451E66E000EE66EE40EE66E76
:10299000FF0EE66E000EE66E020EE66EF00EE66EBE
:1029A000140EE66E0A0EE66E26ECB1F0F00EE66E40
:1029B000140EE66E000EE66E020EE66E00ECC6F039
:1029C000010E0601216F0751D8B425D0BF82076BD5
:1029D000EB0EE66EFD0EE66EE70EE66EFF0EE66EA1
:1029E000000EE66E020EE66EF00EE66E140EE66E59
:1029F000080EE66E26ECB1F0F00EE66E140EE66EF2
:102A0000000EE66E020EE66E00ECC6F0010E060148
:102A10001F6F010E216F0851D8B423D0BF82086BFD
:102A2000B40EE66EFD0EE66EE70EE66EFF0EE66E87
:102A3000000EE66E020EE66EF00EE66E140EE66E08
:102A4000080EE66E26ECB1F0F00EE66E140EE66EA1
:102A5000000EE66E020EE66E00ECC6F0010E0601F8
:102A6000216FC19AB8D5080EE126000EE222F40EBD
:102A7000E3C4D9F4F50EE3C4DAF4DEC4F6F4DDC43D
:102A8000F7F4000EF86E0800F550250AD8A49AD382
:102A9000F40EE3C4D9F4F50EE3C4DAF4DE2A000E32
:102AA000DD22000E226E000E216E21C525F5236861
:102AB0002468FF0EE36A21D02582F40EE3C4D9F422
:102AC000F50EE3C4DAF4DE2A000EDD2216D0FF0E86
:102AD000E36AE32A12D0F40EE3C4D9F4F50EE3C49A
:102AE000DAF4DEC4F6F4DDC4F7F4000EF86E080084
:102AF000F550300AD8B4E0D7EAD7FF0EE350D8B487
:102B0000EAD7F20EE3C4E6F4E3C4E6F4F20EE3C45B
:102B1000E6F4E3C4E6F429ECBDF001C521F502C5F5
:102B200022F522AE05D02580216C221ED8B0222AA3
:102B3000F40EE3C4D9F4F50EE3C4DAF4DEC4F6F41B
:102B4000DDC4F7F4000EF86E0800F5502E0AD8A484
:102B500019D0F40EE3C4D9F4F50EE3C4DAF4DE2A96
:102B6000000EDD22F20EE3C4E6F4E3C4E6F4F20E56
:102B7000E3C4E6F4E3C4E6F429ECBDF001C523F5B3
:102B800002C524F5F40EE3C4D9F4F50EE3C4DAF477
:102B9000DEC40BF5DDC40CF5FD0E0CC5E3F4FC0E34
:102BA0000BC5E3F4E150FC0FD96EE250DA6EFF0E74
:102BB000DA22DEC4F6F4DDC4F7F4000EF86E080085
:102BC000FE0EF5C4E3F419D0FC0EE350010F016EC4
:102BD000FC0E01C5E3F4016AFD0EE3500120016E15
:102BE000FD0E01C5E3F41BD0690E0C6EFE0E0CC584
:102BF000E3F415D0FE0EE36A12D0FE0EE350580A3D
:102C0000D8B4F2D73C0AD8B4EFD70D0AD8B4ECD771
:102C1000050AD8B4D9D7190AD8B4E6D7EBD7E1500A
:102C2000FC0FD96EE250DA6EFF0EDA22DEC4F6F443
:102C3000DDC4F7F4000EF86E0800F550640AD8B44D
:102C400060D0E150FC0FD96EE250DA6EFF0EDA224E
:102C5000DEC4F6F4DDC4F7F4000EF86E0800F5509B
:102C6000690AD8B44ED079D0F20EE3C4D9F4F30E89
:102C7000E3C4DAF4020EDE5E000EDD5ADEC40BF5AC
:102C8000DDC40CF50BC5D9F40CC5DAF4DEC40BF5C4
:102C9000DDC40CF5F80E0BC5E3F4F90E0CC5E3F436
:102CA000016AE3BE0168FA0E01C5E3F4FB0E01C53B
:102CB000E3F42FD0F20EE3C4D9F4F30EE3C4DAF454
:102CC000040EDE5E000EDD5ADEC40BF5DDC40CF52D
:102CD0000BC5D9F40CC5DAF4DEC409F5DEC40AF577
:102CE000DEC40BF5DEC40CF5F80E09C5E3F4F90EED
:102CF0000AC5E3F4FA0E0BC5E3F4FB0E0CC5E3F4CE
:102D000008D0FE0EE350690AD8B4AED7050AD8B48D
:102D1000D1D7FC0EE350010F0B6EFD0EE3C40CF592
:102D2000000E0C22F40EE3C4D9F4F50EE3C4DAF479
:102D30000BC5DEF40CC5DDF4F80EE3C4E6F4E3C421
:102D4000E6F4E3C4E6F4E3C4E6F4F20EE3C4E6F426
:102D5000E3C4E6F4FFECABF05AD2E150FC0FD96EBD
:102D6000E250DA6EFF0EDA22DEC4F6F4DDC4F7F4C8
:102D7000000EF86E0800F550580AD8B463D0E15040
:102D8000FC0FD96EE250DA6EFF0EDA22DEC4F6F4E2
:102D9000DDC4F7F4000EF86E0800F550750AD8B4DB
:102DA00051D0A3D0F20EE3C4D9F4F30EE3C4DAF4A5
:102DB000020EDE5E000EDD5ADEC40BF5DDC40CF53E
:102DC0000BC5D9F40CC5DAF4DEC40BF5DDC40CF583
:102DD0000B50056E0C50066E076A086AF80E05C5A2
:102DE000E3F4F90E06C5E3F4FA0E07C5E3F4FB0EAF
:102DF00008C5E3F42FD0F20EE3C4D9F4F30EE3C414
:102E0000DAF4040EDE5E000EDD5ADEC40BF5DDC41E
:102E10000CF50BC5D9F40CC5DAF4DEC409F5DEC433
:102E20000AF5DEC40BF5DEC40CF5F80E09C5E3F4B3
:102E3000F90E0AC5E3F4FA0E0BC5E3F4FB0E0CC55C
:102E4000E3F408D0FE0EE350690AD8B4ABD7050A04
:102E5000D8B4D1D7FC0EE350010F0B6EFD0EE3C4C6
:102E60000CF5000E0C22F40EE3C4D9F4F50EE3C405
:102E7000DAF40BC5DEF40CC5DDF422D0F80EE3C4A1
:102E8000E6F4E3C4E6F4E3C4E6F4E3C4E6F4F20EE5
:102E9000E3C4E6F4E3C4E6F4D7ECB2F0B8D1F80E3C
:102EA000E3C4E6F4E3C4E6F4E3C4E6F4E3C4E6F41E
:102EB000F20EE3C4E6F4E3C4E6F4FFECB1F0A7D10C
:102EC000E150FC0FD96EE250DA6EFF0EDA22DEC45A
:102ED000F6F4DDC4F7F4000EF86E0800F550580A59
:102EE000D8B4DDD72D0AD8B4C9D7FF0EE36AF40EE3
:102EF000E3C4D9F4F50EE3C4DAF4DEC4F6F4DDC4B9
:102F0000F7F4000EF86E0800F550730AD8A40DD03F
:102F1000F40EE3C4D9F4F50EE3C4DAF4DE2A000EAD
:102F2000DD22FF0EE36AE32A4CD0F40EE3C4D9F4A9
:102F3000F50EE3C4DAF4DEC4F6F4DDC4F7F4000EF3
:102F4000F86E0800F5506C0AD8A43BD0F40EE3C428
:102F5000D9F4F50EE3C4DAF4DEC40BF5DDC40CF5E8
:102F6000010E0B26000E0C220BC5F6F40CC5F7F46F
:102F7000000EF86E0800F5506C0AD8A422D0F40EAA
:102F8000E3C4D9F4F50EE3C4DAF4DEC40BF5DDC412
:102F90000CF5020E0B26000E0C220BC5F6F40CC528
:102FA000F7F4000EF86E0800F550730AD8A409D0A3
:102FB000F40EE3C4D9F4F50EE3C4DAF4030EDE260E
:102FC000AED7FF0EE350D8B422D0F20EE3C4D9F44A
:102FD000F30EE3C4DAF4020EDE5E000EDD5ADEC448
:102FE0000BF5DDC40CF50BC5D9F40CC5DAF4DEC461
:102FF0000BF5DDC40CF50BC5E6F40CC5E6F4F40ED8
:10300000E3C4E6F4E3C4E6F42CECADF000D1F40E36
:10301000E3C4D9F4F50EE3C4DAF4DEC40BF5DDC481
:103020000CF5FD0E0CC5E3F4FC0E0BC5E3F4E1500A
:10303000FC0FD96EE250DA6EFF0EDA22DEC4F6F42F
:10304000DDC4F7F4000EF86E0800FE0EF5C4E3F4DC
:1030500019D0FC0EE350010F016EFC0E01C5E3F424
:10306000016AFD0EE3500120016EFD0E01C5E3F47F
:1030700015D06C0E0C6EFE0E0CC5E3F40FD0FE0ED8
:10308000E36A0CD0FE0EE3504C0AD8B4E2D72A0A09
:10309000D8B4EFD70A0AD8B4DCD7F1D7E150FC0F87
:1030A000D96EE250DA6EFF0EDA22DEC4F6F4DDC429
:1030B000F7F4000EF86E0800F550660AD8B428D070
:1030C00076D0F20EE3C4D9F4F30EE3C4DAF4040EBE
:1030D000DE5E000EDD5ADEC40BF5DDC40CF50BC55B
:1030E000D9F40CC5DAF4DEC409F5DEC40AF5DEC491
:1030F0000BF5DEC40CF5F80E09C5E3F4F90E0AC5AC
:10310000E3F4FA0E0BC5E3F4FB0E0CC5E3F408D0B0
:10311000FE0EE3504C0AD8B4D4D7200AD8B4D1D785
:10312000FC0EE350010F0B6EFD0EE3C40CF5000E18
:103130000C22F40EE3C4D9F4F50EE3C4DAF40BC5A3
:10314000DEF40CC5DDF421D0E150FC0FD96EE25065
:10315000DA6EFF0EDA22DEC4F6F4DDC4F7F4000EF8
:10316000F86E0800F550E66EF70EE3C4E6F4E3C42B
:10317000E6F4E3C4E6F4E3C4E6F4F10EE3C4E6F4F3
:10318000E3C4E6F400EC80F042D0E150FC0FD96ECD
:10319000E250DA6EFF0EDA22DEC4F6F4DDC4F7F494
:1031A000000EF86E0800F550660AD8B4CDD7F40EBC
:1031B000E3C4D9F4F50EE3C4DAF4DE2A000EDD220E
:1031C000000E22D0F60EE3C4E6F4E3C4E6F4F20EF9
:1031D000E3C4D9F4F30EE3C4DAF4DEC4F6F4DDC4D8
:1031E000F7F4000EF86E0800F550E66E000EE66E7D
:1031F000B7ECBFF0F40EE3C4D9F4F50EE3C4DAF48F
:10320000DE2A000EDD22010E016E000E026EF20EAD
:10321000E126FF0EE22212000D0EE126000EE22250
:10322000F20EE124D96EFF0EE220DA6EDF500C6E52
:10323000800E0C16FF0E0CC5E3F4F20EE124D96EDD
:10324000FF0EE220DA6EDF500C6ED8900C36FD0EC9
:103250000CC5E3F4F10EE124D96EFF0EE220DA6E24
:10326000DFAE02D0FD0EE380FD0EE350D8B41BD0DC
:10327000FD0EE328D8A414D0000E096E000E0A6ECD
:10328000000E0B6E000E0C6EEF0E09C5E3F4F00E8F
:103290000AC5E3F4F10E0BC5E3F4F20E0CC5E3F43A
:1032A000F10EE38E14D0000E096E000E0A6E000EB1
:1032B0000B6E000E0C6EEF0E09C5E3F4F00E0AC59E
:1032C000E3F4F10E0BC5E3F4F20E0CC5E3F4EE0EDD
:1032D000E124D96EFF0EE220DA6EDF500C6E800E14
:1032E0000C16E150FF0FD96EE250DA6EFF0EDA22B3
:1032F0000C50DF1AEE0EE124D96EFF0EE220DA6EDA
:10330000DF500C6ED8900C36FE0E0CC5E3F4ED0EBB
:10331000E124D96EFF0EE220DA6EDFAE02D0FE0E9F
:10332000E380FE0EE350D8B41BD0FE0EE328D8A4F1
:1033300014D0000E096E000E0A6E000E0B6E000E09
:103340000C6EEB0E09C5E3F4EC0E0AC5E3F4ED0ECA
:103350000BC5E3F4EE0E0CC5E3F4ED0EE38E14D0D2
:10336000000E096E000E0A6E000E0B6E000E0C6E43
:10337000EB0E09C5E3F4EC0E0AC5E3F4ED0E0BC544
:10338000E3F4EE0E0CC5E3F4FE0EE350D8B404D023
:10339000FD0EE350D8A409D0000E016E000E026E9F
:1033A000000E036E000E046EF1D2EF0EE3C40CF5B6
:1033B000ED0EE124D96EFF0EE220DA6EDF500C0232
:1033C000FB0EF3C4E3F4FC0EF4C4E3F4FB0EE3C41D
:1033D0000CF50CC505F5066A076A086AF70E05C5FF
:1033E000E3F4F80E06C5E3F4F90E07C5E3F4FA0EAC
:1033F00008C5E3F4FC0EE124D96EFF0EE220DA6E7C
:10340000DF500C6E0CC505F5066A076A086AF30EF4
:1034100005C5E3F4F40E06C5E3F4F50E07C5E3F4C1
:10342000F60E08C5E3F4F00EE124D96EFF0EE2209B
:10343000DA6EDF500C6EEC0EE124D96EFF0EE22046
:10344000DA6EDF500C02FB0EF3C4E3F4FC0EF4C49E
:10345000E3F4E150F70FD96EE250DA6EFF0EDA2294
:10346000FB0EE350DE26000EDE22DE22DE22E150DD
:10347000F30FD96EE250DA6EFF0EDA22FC0EE12471
:10348000E96EFF0EE220EA6EEF50DE26000EDE222D
:10349000DE22DE22F10EE124D96EFF0EE220DA6E8A
:1034A000DF500C6EEB0EE3500C02FB0EF3C4E3F4A2
:1034B000FC0EF4C4E3F4E150F70FD96EE250DA6E7B
:1034C000FF0EDA22FB0EE350DE26000EDE22DE22A5
:1034D000DE22E150F30FD96EE250DA6EFF0EDA22EF
:1034E000FC0EE124E96EFF0EE220EA6EEF50DE26CC
:1034F000000EDE22DE22DE22E150F70FD96EE2500E
:10350000DA6EFF0EDA22080ED890DE36DE36DE36B0
:10351000DD36DD52DD52E82EF7D7F00EE124D96E0C
:10352000FF0EE220DA6EDF500C6EEB0EE3500C0261
:10353000FB0EF3C4E3F4FC0EF4C4E3F4FB0EE3C4AB
:103540000BF5FC0EE3C40CF5E150F70FD96EE25019
:10355000DA6EFF0EDA220B50DE260C50DE22000E51
:10356000DE22DE22EF0EE3C40CF5EC0EE124D96E70
:10357000FF0EE220DA6EDF500C02FB0EF3C4E3F420
:10358000FC0EF4C4E3F4FB0EE3C40BF5FC0EE3C441
:103590000CF5E150F70FD96EE250DA6EFF0EDA2229
:1035A0000B50DE260C50DE22000EDE22DE22E15021
:1035B000F70FD96EE250DA6EFF0EDA22080ED890BD
:1035C000DE36DE36DE36DD36DD52DD52E82EF7D76A
:1035D000EF0EE3C40CF5EB0EE3500C02FB0EF3C44C
:1035E000E3F4FC0EF4C4E3F4FB0EE3C40BF5FC0EB1
:1035F000E3C40CF5E150F70FD96EE250DA6EFF0E1E
:10360000DA220B50DE260C50DE22000EDE22DE22F5
:10361000F00EE124D96EFF0EE220DA6EDF500C6E60
:10362000ED0EE124D96EFF0EE220DA6EDF500C02BF
:10363000FB0EF3C4E3F4FC0EF4C4E3F4FB0EE3C4AA
:103640000BF5FC0EE3C40CF5E150F30FD96EE2501C
:10365000DA6EFF0EDA220B50DE260C50DE22000E50
:10366000DE22DE22F10EE124D96EFF0EE220DA6EB8
:10367000DF500C6EEC0EE124D96EFF0EE220DA6E04
:10368000DF500C02FB0EF3C4E3F4FC0EF4C4E3F4CD
:10369000FB0EE3C40BF5FC0EE3C40CF5E150F30F95
:1036A000D96EE250DA6EFF0EDA220B50DE260C5095
:1036B000DE22000EDE22DE22F10EE124D96EFF0EA4
:1036C000E220DA6EDF500C6EED0EE124D96EFF0EB3
:1036D000E220DA6EDF500C02FB0EF3C4E3F4FC0EC2
:1036E000F4C4E3F4FB0EE3C40BF5FC0EE3C40CF5E9
:1036F0000B50056E0C50066E076A086A07C508F580
:1037000006C507F505C506F5056AE150F30FD96E44
:10371000E250DA6EFF0EDA220550DE260650DE2277
:103720000750DE220850DE22E150F30FD96EE2503E
:10373000DA6EFF0EDA22FA0EE124E96EFF0EE220C5
:10374000EA6EEF50DE26000EDE22DE22DE22E1509F
:10375000F70FD96EE250DA6EFF0EDA22080ED8901B
:10376000DE36DE36DE36DD36DD52DD52E82EF7D7C8
:10377000FD0EE3500B6E0C6AFE0EE3500B26000E9E
:103780000C22820E0B24096EFF0E0C200A6EFB0E1B
:1037900009C5E3F4FC0E0AC5E3F421D0D890F30E7A
:1037A000E336F40EE336F50EE336F60EE336FA0EA4
:1037B000E3AE02D0F30EE380D890F70EE336F80EB6
:1037C000E336F90EE336FA0EE336E150FB0FD96E1D
:1037D000E250DA6EFF0EDA22DE06000EDD5AF50E3A
:1037E000E3AEDCD7FE0EE36AFA0EE3AE20D0E15082
:1037F000F70FD96EE250DA6EFF0EDA22FF0EDE14FA
:10380000096EFF0EDE140A6EFF0EDE140B6E7F0EC5
:10381000DE140C6E09500A100B100C10D8B404D032
:10382000FE0EE36AE32A03D0F30EE3B0F9D7FE0EEF
:10383000E350D8B434D0E150F30FD96EE250DA6ED1
:10384000FF0EDA22DE2A000EDE22DE22DE22F60E55
:10385000E3A025D0010E0C6EE150F30FD96EE250BB
:10386000DA6EFF0EDA220C28DE5208D0DE52D89033
:10387000DCBED880DD32DD32DD32DE32E82EF6D736
:10388000FB0EE350010F016EFB0E01C5E3F4016A6C
:10389000FC0EE3500120016EFC0E01C5E3F4FC0EAA
:1038A000E3BE1CD0FC0EE35004E1FB0EE328D8A0DD
:1038B00015D0000E096E000E0A6E800E0B6E7F0E84
:1038C0000C6EF30E09C5E3F4F40E0AC5E3F4F50E2D
:1038D0000BC5E3F4F60E0CC5E3F441D0FC0EE3BED9
:1038E00007D0FC0EE3500FE1FB0EE304D8B00BD081
:1038F000F30EE36AF40EE36AF50EE36AF60EE36A8A
:10390000FF0EE36A2CD0FB0EE3C401F5FD0E01C5EA
:10391000E3F4E150F30FD96EE250DA6EFF0EDA22D3
:10392000FF0EDE16FF0EDE167F0EDE16000EDE1612
:10393000FD0EE3A008D0F50EE124D96EFF0EE220C3
:10394000DA6E000EDB8EF60EE124D96EFF0EE22059
:10395000DA6EFD0EE3C40CF5D8900C30DF6EFF0E6E
:10396000E3C40CF5F60EE124D96EFF0EE220DA6E08
:103970000C50DF12F30EE3C401F5F40EE3C402F5BC
:10398000F50EE3C403F5F60EE3C404F5EB0EE126F1
:10399000FF0EE2221200E652E652E652E652FB0E1B
:1039A000E124D96EFF0EE220DA6EDF500C6E800E3D
:1039B0000C16FF0E0CC5E3F4FB0EE124D96EFF0ECE
:1039C000E220DA6EDF500C6ED8900C36FD0E0CC57E
:1039D000E3F4FA0EE124D96EFF0EE220DA6EDFAED8
:1039E00002D0FD0EE380FD0EE350D8B422D0FD0ED0
:1039F000E328D8A414D0000E096E000E0A6E000E43
:103A00000B6E000E0C6EF80E09C5E3F4F90E0AC534
:103A1000E3F4FA0E0BC5E3F4FB0E0CC5E3F4FA0E67
:103A2000E38EFB0EE124D96EFF0EE220DA6EDF6A30
:103A300014D0000E096E000E0A6E000E0B6E000E02
:103A40000C6EF80E09C5E3F4F90E0AC5E3F4FA0E9C
:103A50000BC5E3F4FB0E0CC5E3F4F70EE124D96EBD
:103A6000FF0EE220DA6EDF500C6E800E0C16FE0E9A
:103A70000CC5E3F4E150FE0FD96EE250DA6EFF0E92
:103A8000DA22FF0EE350DE18D8B402D0FF0EE38C2A
:103A9000F70EE124D96EFF0EE220DA6EDF500C6ED5
:103AA000D8900C36FE0E0CC5E3F4F60EE124D96E68
:103AB000FF0EE220DA6EDFAE02D0FE0EE380FE0ED5
:103AC000E350D8B422D0FE0EE328D8A414D0000EC0
:103AD000096E000E0A6E000E0B6E000E0C6EF40ED8
:103AE00009C5E3F4F50E0AC5E3F4F60E0BC5E3F4DD
:103AF000F70E0CC5E3F4F60EE38EF70EE124D96E53
:103B0000FF0EE220DA6EDF6A14D0000E096E000E9E
:103B10000A6E000E0B6E000E0C6EF40E09C5E3F477
:103B2000F50E0AC5E3F4F60E0BC5E3F4F70E0CC56B
:103B3000E3F4E150FE0FD96EE250DA6EFF0EDA22A6
:103B4000FD0EE350DE5CD8B08FD0FF0EE3AC02D0A8
:103B5000FF0EE37EFD0EE3C401F5FC0E01C5E3F4A8
:103B6000FE0EE3C401F5FD0E01C5E3F4FC0EE3C453
:103B700001F5FE0E01C5E3F4F80EE3C401F5FC0EF9
:103B800001C5E3F4F40EE3C401F5F80E01C5E3F456
:103B9000FC0EE3C401F5F40E01C5E3F4F90EE124D3
:103BA000D96EFF0EE220DA6EDF500C6EFC0E0CC5F3
:103BB000E3F4F50EE124D96EFF0EE220DA6EF90E81
:103BC000E124E96EFF0EE220EA6EDFC4EFF4F50EA9
:103BD000E124D96EFF0EE220DA6EFC0EE3C4DFF4BE
:103BE000FA0EE124D96EFF0EE220DA6EDF500C6E81
:103BF000FC0E0CC5E3F4F60EE124D96EFF0EE220B4
:103C0000DA6EFA0EE124E96EFF0EE220EA6EDFC4FE
:103C1000EFF4F60EE124D96EFF0EE220DA6EFC0E10
:103C2000E3C4DFF4FB0EE124D96EFF0EE220DA6E6E
:103C3000DF500C6EFC0E0CC5E3F4F70EE124D96ED8
:103C4000FF0EE220DA6EFB0EE124E96EFF0EE220A9
:103C5000EA6EDFC4EFF4F70EE124D96EFF0EE22026
:103C6000DA6EFC0EE3C4DFF4FC0EE36AFE0EE350F2
:103C70000B6E0C6AFD0EE3500B5E000E0C5A0CBE70
:103C80005DD00C5004E11A0E0B5CD8A057D0F80E92
:103C9000E3500AE1F90EE35007E1FA0EE35004E1C4
:103CA000FB0EE350D8B403D00C6A0C2A01D00C6A86
:103CB000FC0E0CC5E3F4F80EE36AF90EE36AFA0EA3
:103CC000E36AFB0EE36AFE0EE3C401F5FD0E01C5D7
:103CD000E3F440D0FC0EE3A00BD0FC0EE3C40CF5E3
:103CE000D8900C32010E0C12FC0E0CC5E3F409D076
:103CF000E150FC0FD96EE250DA6EFF0EDA22D89056
:103D0000DF32F80EE3A002D0FC0EE38E010E0C6E43
:103D1000E150F80FD96EE250DA6EFF0EDA220C286D
:103D2000DE5208D0DE52D890DCBED880DD32DD32E3
:103D3000DD32DE32E82EF6D7FD0EE32AE150FD0F2C
:103D4000D96EE250DA6EFF0EDA22FE0EE350DE5C30
:103D5000D8A0C0D7FF0EE3BC60D0FD0EE350D8B4AE
:103D6000E3D0F80EE350016EF40EE3500126F80E96
:103D700001C5E3F4F90EE350016EF50EE3500122A4
:103D8000F90E01C5E3F4FA0EE350016EF60EE350AE
:103D90000122FA0E01C5E3F4FB0EE350016EF70EAB
:103DA000E3500122FB0E01C5E3F4FB0EE3A0F3D0C8
:103DB000FC0EE3A00BD0FC0EE3C40CF5D8900C3243
:103DC000010E0C12FC0E0CC5E3F409D0E150FC0FFF
:103DD000D96EE250DA6EFF0EDA22D890DF32F80E9A
:103DE000E3A002D0FC0EE38E010E0C6EE150F80F42
:103DF000D96EE250DA6EFF0EDA220C28DE5208D0BD
:103E0000DE52D890DCBED880DD32DD32DD32DE32EB
:103E1000E82EF6D7FD0EE32ABED0E150F80FD96E9A
:103E2000E250DA6EFF0EDA22F40EE350DE5CF50E9D
:103E3000E350DE58F60EE350DE58DE50800A016E85
:103E4000F70EE350800A0158D8B04AD0F40EE3C40C
:103E500009F5F50EE3C40AF5F60EE3C40BF5F70E0B
:103E6000E3C40CF5F80EE350095EF90EE3500A5A6C
:103E7000FA0EE3500B5AFB0EE3500C5AFF0E0924C6
:103E8000056EFF0E0A20066EFF0E0B20076EFF0E5A
:103E90000C20086EF80E05C5E3F4F90E06C5E3F430
:103EA000FA0E07C5E3F4FB0E08C5E3F4FF0EE37E4C
:103EB000FC0EE35000080C6EFC0E0CC5E3F4FC0E87
:103EC000E350D8A420D0E150F80FD96EE250DA6E5A
:103ED000FF0EDA22DE2A000EDE22DE22DE2213D0E0
:103EE000E150F80FD96EE250DA6EFF0EDA22F40ECE
:103EF000E350DE5EF50EE350DE5AF60EE350DE5A76
:103F0000F70EE350DE5AF80EE35042E1F90EE350AB
:103F10003FE1FA0EE3503CE1FB0EE350D8A438D069
:103F2000FC0EE350D8A434D0000E016E000E026ED9
:103F3000000E036E000E046EBDD0D890F80EE3366E
:103F4000F90EE336FA0EE336FB0EE336FC0EE3AE73
:103F500002D0F80EE380FC0EE3A00BD0FC0EE3C40D
:103F60000CF5D8900C36010E0C12FC0E0CC5E3F4C7
:103F700009D0E150FC0FD96EE250DA6EFF0EDA2262
:103F8000D890DF36FD0EE350D8B402D0FD0EE30624
:103F9000FA0EE3AED2D7FE0EE36AFC0EE3AE0ED00D
:103FA000FC0EE3C40CF57F0E0C16D8B404D0FE0E44
:103FB000E36AE32A03D0F80EE3B0F9D7FE0EE3502C
:103FC000D8B42BD0E150F80FD96EE250DA6EFF0E64
:103FD000DA22DE2A000EDE22DE22DE22FB0EE3A043
:103FE0001CD0010E0C6EE150F80FD96EE250DA6E63
:103FF000FF0EDA220C28DE5208D0DE52D890DCBE4A
:10400000D880DD32DD32DD32DE32E82EF6D7FD0E2D
:10401000E328D8B402D0FD0EE32AFD0EE328D8B47D
:1040200004D0FD0EE350D8A40ED0F80EE36AF90ECA
:10403000E36AFA0EE36AFB0EE36AFD0EE350D8A4CE
:1040400002D0FF0EE36AFD0EE3A009D0FA0EE124D0
:10405000D96EFF0EE220DA6E000EDB8E08D0FA0E6B
:10406000E124D96EFF0EE220DA6E7F0EDF16FB0E22
:10407000E124D96EFF0EE220DA6EFD0EE3C40CF5EA
:10408000D8900C30DF6EFF0EE3AE08D0FB0EE124BB
:10409000D96EFF0EE220DA6E000EDB8EF80EE3C45E
:1040A00001F5F90EE3C402F5FA0EE3C403F5FB0EC5
:1040B000E3C404F5F40EE126FF0EE22212000D0E19
:1040C000E126000EE222F20EE124D96EFF0EE2207C
:1040D000DA6EDF500C6E800E0C16FF0E0CC5E3F48A
:1040E000F20EE124D96EFF0EE220DA6EDF500C6E84
:1040F000D8900C36FE0E0CC5E3F4F10EE124D96E17
:10410000FF0EE220DA6EDFAE02D0FE0EE380FE0E7E
:10411000E350D8B422D0FE0EE328D8A414D0000E69
:10412000096E000E0A6E000E0B6E000E0C6EEF0E86
:1041300009C5E3F4F00E0AC5E3F4F10E0BC5E3F490
:10414000F20E0CC5E3F4F10EE38EF20EE124D96E0B
:10415000FF0EE220DA6EDF6A14D0000E096E000E48
:104160000A6E000E0B6E000E0C6EEF0E09C5E3F426
:10417000F00E0AC5E3F4F10E0BC5E3F4F20E0CC524
:10418000E3F4EE0EE124D96EFF0EE220DA6EDF508A
:104190000C6E800E0C16E150FF0FD96EE250DA6EF5
:1041A000FF0EDA220C50DF1AEE0EE124D96EFF0E5C
:1041B000E220DA6EDF500C6ED8900C36FD0E0CC586
:1041C000E3F4ED0EE124D96EFF0EE220DA6EDFAEED
:1041D00002D0FD0EE380FD0EE350D8B422D0FD0ED8
:1041E000E328D8A414D0000E096E000E0A6E000E4B
:1041F0000B6E000E0C6EEB0E09C5E3F4EC0E0AC557
:10420000E3F4ED0E0BC5E3F4EE0E0CC5E3F4ED0E96
:10421000E38EEE0EE124D96EFF0EE220DA6EDF6A45
:1042200014D0000E096E000E0A6E000E0B6E000E0A
:104230000C6EEB0E09C5E3F4EC0E0AC5E3F4ED0ECB
:104240000BC5E3F4EE0E0CC5E3F4EB0EE35034E1E2
:10425000EC0EE35031E1ED0EE3502EE1EE0EE350B3
:10426000D8A42AD0EF0EE36AF00EE36AF10EE36AF7
:10427000F20EE36AF10EE124D96EFF0EE220DA6E4F
:10428000800EDE127F0EDD12FF0EE3C40CF5F20E7F
:10429000E124D96EFF0EE220DA6E0C50DF12EF0E31
:1042A000E3C401F5F00EE3C402F5F10EE3C403F537
:1042B000F20EE3C404F58DD1FE0EE350D8A409D06C
:1042C000000E016E000E026E000E036E000E046EF4
:1042D00080D1FE0EE3500B6E0C6AFD0EE3500B5EB8
:1042E000000E0C5A7F0E0B26000E0C22FB0E0BC587
:1042F000E3F4FC0E0CC5E3F4EF0EE3C409F5F00E95
:10430000E3C40AF5F10EE3C40BF5F20EE3C40CF5B9
:10431000F70E09C5E3F4F80E0AC5E3F4F90E0BC570
:10432000E3F4FA0E0CC5E3F4EF0EE36AF00EE36A71
:10433000F10EE36AF20EE36AF30EE36AF40EE36A47
:10434000F50EE36AF60EE36AFD0EE36A50D0FD0E49
:10435000E350D8B420D0D890F70EE336F80EE33609
:10436000F90EE336FA0EE336D890EF0EE336F00E90
:10437000E336F10EE336F20EE336F60EE3AE02D08C
:10438000EF0EE380D890F30EE336F40EE336F50E2D
:10439000E336F60EE336E150F70FD96EE250DA6EEF
:1043A000FF0EDA22EB0EE350DE5CEC0EE350DE583B
:1043B000ED0EE350DE58EE0EE350DE58D8A015D0D7
:1043C000F60EE38CE150F70FD96EE250DA6EFF0E75
:1043D000DA22EB0EE350DE5EEC0EE350DE5AED0E19
:1043E000E350DE5AEE0EE350DE5AFD0EE32AFD0ED8
:1043F000E3C401F5190E0164AAD7F70EE3500AE1F0
:10440000F80EE35007E1F90EE35004E1FA0EE35031
:10441000D8B424D0F30EE38021D0D890EF0EE33649
:10442000F00EE336F10EE336F20EE336F60EE3AEAF
:1044300002D0EF0EE380D890F30EE336F40EE336AD
:10444000F50EE336F60EE336E150FB0FD96EE2507F
:10445000DA6EFF0EDA22DE06000EDD5AF10EE3AE52
:10446000DCD7FD0EE36AF60EE3AE20D0E150F30F89
:10447000D96EE250DA6EFF0EDA22FF0EDE14096EFC
:10448000FF0EDE140A6EFF0EDE140B6E7F0EDE14BE
:104490000C6E09500A100B100C10D8B404D0FD0E8D
:1044A000E36AE32A03D0EF0EE3B0F9D7FD0EE35041
:1044B000D8B434D0E150EF0FD96EE250DA6EFF0E6F
:1044C000DA22DE2A000EDE22DE22DE22F20EE3A057
:1044D00025D0010E0C6EE150EF0FD96EE250DA6E6E
:1044E000FF0EDA220C28DE5208D0DE52D890DCBE55
:1044F000D880DD32DD32DD32DE32E82EF6D7FB0E3B
:10450000E350010F016EFB0E01C5E3F4016AFC0EDE
:10451000E3500120016EFC0E01C5E3F4FC0EE3BE86
:1045200019D0FC0EE35004E1FB0EE328D8A012D012
:10453000FF0E0B6E000E0C6EFB0E0BC5E3F4FC0EB3
:104540000CC5E3F4EF0EE36AF00EE36AF10EE36AE2
:10455000F20EE36AFC0EE3BE07D0FC0EE35012E15C
:10456000FB0EE304D8B00ED0FB0EE36AFC0EE36A48
:10457000EF0EE36AF00EE36AF10EE36AF20EE36A0D
:10458000FF0EE36AFB0EE3C401F5FE0E01C5E3F482
:10459000FE0EE3A009D0F10EE124D96EFF0EE22059
:1045A000DA6E000EDB8E08D0F10EE124D96EFF0E1C
:1045B000E220DA6E7F0EDF16F20EE124D96EFF0ED6
:1045C000E220DA6EFE0EE3C40CF5D8900C30DF6EFC
:1045D0005BD6EB0EE126FF0EE2221200070EE1266B
:1045E000000EE222FD0EE36AFE0EE36A010E0B6E80
:1045F000000E0C6EFB0E0BC5E3F4FC0E0CC5E3F4D1
:10460000E150F30FD96EE250DA6EFF0EDA22F70EA8
:10461000E3C40BF5F80EE3C40CF5030E0B24E96EAE
:10462000000E0C20EA6EDEC4EEF4DDC4EDF4F70EED
:10463000E3C40BF5F80EE3C40CF5030E0B24D96E9E
:10464000000E0C20DA6E0501AC510B6E0C6ADE50C8
:104650000B5CDE500C58D8A055D1000EE66E0E0E45
:10466000E66EF8ECC8F0FF0E01C5E3F4FF0EE3C4FC
:1046700001F5060E0118D8A421D0F30EE350E66E22
:10468000000EE66E0E0EE66EDDECC2F001500B6E13
:104690000C6AFD0E0BC5E3F4FE0E0CC5E3F4000E30
:1046A000E66E0E0EE66EAEECCEF001500B6E0C6AAE
:1046B000FB0E0BC5E3F4FC0E0CC5E3F4E150FD0F5B
:1046C000D96EE250DA6EFF0EDA22FB0EE350DE18EE
:1046D00004E1FC0EE350DE18D8A49DD0000EE66E77
:1046E0000E0EE66E16ECC4F0350E011841E1020420
:1046F000D8A43ED0FA0EE36A1ED0FA0EE3500B6E39
:104700000C6A0A0E0B24D96E0E0E0C20DA6EFA0E0D
:10471000E3500B6E0C6AF70EE3500B26F80EE350D5
:104720000C222D0E0B24E96E000E0C20EA6EDFC465
:10473000EFF4FA0EE32AE150FA0FD96EE250DA6E86
:10474000FF0EDA22FF0EE350DE5CD8A0D6D7FF0EB4
:10475000E3500B6E0C6AF70EE3500B26F80EE35095
:104760000C222D0E0B24D96E000E0C20DA6EDF6A9F
:10477000000EE66E0E0EE66E16ECC4F0130E011877
:104780000210D8A43ED0F90EE36A1ED0F90EE35011
:104790000B6E0C6A0A0E0B24D96E0E0E0C20DA6E0C
:1047A000F90EE3500B6E0C6AF70EE3500B26F80E71
:1047B000E3500C22390E0B24E96E000E0C20EA6E39
:1047C000DFC4EFF4F90EE32AE150F90FD96EE2509D
:1047D000DA6EFF0EDA22FF0EE350DE5CD8A0D6D7E9
:1047E000FF0EE3500B6E0C6AF70EE3500B26F80E2B
:1047F000E3500C22390E0B24D96E000E0C20DA6E19
:10480000DF6ABF92F50EE3C4D9F4F60EE3C4DAF41E
:10481000010EDF6E6FD0BF82F50EE3C4D9F4F60E41
:10482000E3C4DAF4DF6AF70EE3C40BF5F80EE3C471
:104830000CF5060E0B24D96E000E0C20DA6EDF6A22
:10484000F70EE3C40BF5F80EE3C40CF5080E0B24C9
:10485000D96E000E0C20DA6EDF6AF70EE3C40BF59A
:10486000F80EE3C40CF5070E0B24D96E000E0C20D5
:10487000DA6EDF6AF70EE3C40BF5F80EE3C40CF54D
:10488000090E0B24D96E000E0C20DA6EDF6AF70ECB
:10489000E3C40BF5F80EE3C40CF50A0E0B24D96E35
:1048A000000E0C20DA6EDF6AF70EE3C40BF5F80E8B
:1048B000E3C40CF50C0E0B24D96E000E0C20DA6E3E
:1048C000DF6AF70EE3C40BF5F80EE3C40CF50B0E2C
:1048D0000B24D96E000E0C20DA6EDF6AFB0EE3C4E7
:1048E000E6F4E3C4E6F4FB0EE3C4E6F4E3C4E6F462
:1048F000BCECD3F0F70EE3C40BF5F80EE3C40CF5F3
:10490000010E85D0000EE66E21ECD4F004500310A9
:10491000021004E1C80E015CD8A07FD0F70EE3C4FA
:104920000BF5F80EE3C40CF5010E0B24D96E000E46
:104930000C20DA6EDF6AF70EE3C4D9F4F80EE3C494
:10494000DAF4DF6A010E0501B827000EB923BA2395
:10495000BB23AE4BAF2BF70EE3C40BF5F80EE3C44D
:104960000CF5060E0B24D96E000E0C20DA6EDF6AF1
:10497000F50EE3C4D9F4F60EE3C4DAF4DF6AF70EF9
:10498000E3C40BF5F80EE3C40CF5080E0B24D96E46
:10499000000E0C20DA6EDF6AF70EE3C40BF5F80E9A
:1049A000E3C40CF5070E0B24D96E000E0C20DA6E52
:1049B000DF6AF70EE3C40BF5F80EE3C40CF5090E3D
:1049C0000B24D96E000E0C20DA6EDF6AF70EE3C4FA
:1049D0000BF5F80EE3C40CF50A0E0B24D96E000E8D
:1049E0000C20DA6EDF6AF70EE3C40BF5F80EE3C4B1
:1049F0000CF50C0E0B24D96E000E0C20DA6EDF6A5B
:104A0000F70EE3C40BF5F80EE3C40CF50B0E0B2404
:104A1000D96E000E0C20DA6EDF6AF30EE126FF0E6F
:104A2000E2221200050EE126000EE222F70EE3C498
:104A3000D9F4F80EE3C4DAF4DEC409F5DEC40AF5ED
:104A4000DEC40BF5DEC40CF5FB0E09C5E3F4FC0E69
:104A50000AC5E3F4FD0E0BC5E3F4FE0E0CC5E3F44A
:104A6000F70EE3C40BF5F80EE3C40CF5040E0B24AB
:104A7000D96E000E0C20DA6EDFA080D0F90EE3C4F0
:104A80000BF5FA0EE3C40CF5010E0B24D96E000EE3
:104A90000C20DA6EFB0EE3C40CF5D8900C36D890DF
:104AA0000C36D8900C34F80BDF6E050E0C6EE1500E
:104AB000FB0FD96EE250DA6EFF0EDA220C28DE52BE
:104AC00007D0DE52DE52D890DD32DD32DD32DE320A
:104AD000E82EF7D7F90EE3C40BF5FA0EE3C40CF594
:104AE000020E0B24D96E000E0C20DA6EFB0EE3C40E
:104AF000DFF4FC0EE124D96EFF0EE220DA6EDEC494
:104B00000AF5DEC40BF5DEC40CF50A50056E0B5039
:104B1000066E0C50076E086AFB0E05C5E3F4FC0E2A
:104B200006C5E3F4FD0E07C5E3F4FE0E08C5E3F485
:104B3000F90EE3C40BF5FA0EE3C40CF5030E0B24D7
:104B4000D96E000E0C20DA6EFB0EE3501F0BDF6EE9
:104B5000050E0C6EE150FB0FD96EE250DA6EFF0EBF
:104B6000DA220C28DE5207D0DE52DE52D890DD3237
:104B7000DD32DD32DE32E82EF7D729D0F90EE3C47C
:104B80000BF5FA0EE3C40CF5030E0B24D96E000EE0
:104B90000C20DA6EDF6AF90EE3C40BF5FA0EE3C4FB
:104BA0000CF5020E0B24E96E000E0C20EA6EDFC439
:104BB000EFF4F90EE3C40BF5FA0EE3C40CF5010EA5
:104BC0000B24D96E000E0C20DA6EEFC4DFF4F90E60
:104BD000E3C4D9F4FA0EE3C4DAF4FB0EE3C4DFF461
:104BE000FC0EE124D96EFF0EE220DA6EDEC40AF577
:104BF000DEC40BF5DEC40CF50A50056E0B50066ED4
:104C00000C50076E086AFB0E05C5E3F4FC0E06C5E2
:104C1000E3F4FD0E07C5E3F4FE0E08C5E3F4FB0E56
:104C2000E3C40CF5070E0C16F90EE3C409F5FA0EF1
:104C3000E3C40AF5010E0924D96E000E0A20DA6ECB
:104C40000C50DF12F70EE3C40BF5F80EE3C40CF5BD
:104C5000040E0B24D96E000E0C20DA6EDF30E83221
:104C60000F0B0C6EFF0E0CC5E3F4F70EE3C40BF54F
:104C7000F80EE3C40CF5040E0B24D96E000E0C20C4
:104C8000DA6EDFA003D0100E0C6E01D00C6AE1507A
:104C9000FF0FD96EE250DA6EFF0EDA220C50DF12EF
:104CA000F70EE3C40BF5F80EE3C40CF5040E0B2469
:104CB000D96E000E0C20DA6EDFA203D0200E0C6E2F
:104CC00001D00C6AE150FF0FD96EE250DA6EFF0E90
:104CD000DA220C50DF12F70EE3C40BF5F80EE3C432
:104CE0000CF5040E0B24D96E000E0C20DA6EDFAE2C
:104CF00003D0400E0C6E01D00C6AE150FF0FD96E4C
:104D0000E250DA6EFF0EDA220C50DF12F70EE3C427
:104D10000BF5F80EE3C40CF5040E0B24D96E000E4F
:104D20000C20DA6EDFAC03D0800E0C6E01D00C6A62
:104D3000E150FF0FD96EE250DA6EFF0EDA220C500E
:104D4000DF12F90EE3C40BF5FA0EE3C40CF5040E02
:104D50000B24D96E000E0C20DA6EFF0EE3C4DFF4D4
:104D6000F70EE3C40BF5F80EE3C40CF5040E0B24A8
:104D7000D96E000E0C20DA6EDFB242D0F70EE3C41B
:104D80000BF5F80EE3C40CF5040E0B24D96E000EDF
:104D90000C20DA6EDF30E8320F0B0B6E0C6A250E3A
:104DA0000B24F66EFC0E0C20F76EF86A000EF8224B
:104DB0000800F550E66E000EE66EF50EE3C40BF546
:104DC000F60EE3C40CF5050E0B24D96E000E0C2074
:104DD000DA6EDEC40BF5DDC40CF50BC5E6F40CC5CC
:104DE000E6F4F50EE350080F0B6EF60EE3C40CF577
:104DF000000E0C220BC5E6F40CC5E6F472ECC2F012
:104E0000F70EE126FF0EE2221200050EE126000E4B
:104E1000E222F90EE3C40BF5FA0EE3C40CF5040E1E
:104E20000B24D96E000E0C20DA6EDF500C6EFF0ED4
:104E30000CC5E3F4FF0EE3C40CF5F70EE3C409F56B
:104E4000F80EE3C40AF5040E0924D96E000E0A20F8
:104E5000DA6E0C460C46DF500C18C30B0C18DF6ED4
:104E6000FF0EE3A803D00C6A0C2A01D00C6AF70EDF
:104E7000E3C409F5F80EE3C40AF5040E0924D96E5B
:104E8000000E0A20DA6EDF500C18FE0B0C18DF6ED5
:104E9000FF0EE3AA03D00C6A0C2A01D00C6AF70EAD
:104EA000E3C409F5F80EE3C40AF5040E0924D96E2B
:104EB000000E0A20DA6E0C46DF500C18FD0B0C18A1
:104EC000DF6EFF0EE3AC03D00C6A0C2A01D00C6A33
:104ED000F70EE3C409F5F80EE3C40AF5040E09243D
:104EE000D96E000E0A20DA6E0C320C32DF500C182C
:104EF0007F0B0C18DF6EFF0EE3AE03D00C6A0C2A9A
:104F000001D00C6AF70EE3C409F5F80EE3C40AF504
:104F1000040E0924D96E000E0A20DA6E0C3A0C46F3
:104F20000C46DF500C18BF0B0C18DF6EF90EE3C4F3
:104F30000BF5FA0EE3C40CF5010E0B24D96E000E2E
:104F40000C20DA6EDF500C6E070E0C160CC505F542
:104F5000066A076A086AFB0E05C5E3F4FC0E06C57F
:104F6000E3F4FD0E07C5E3F4FE0E08C5E3F4E150DB
:104F7000FB0FD96EE250DA6EFF0EDA22080ED890DF
:104F8000DE36DE36DE36DD36DD52DD52E82EF7D790
:104F9000E150FB0FD96EE250DA6EFF0EDA22F90E05
:104FA000E3C4E9F4FA0EE3C4EAF4EF50DE12000EB3
:104FB000DE12DE12DE12F70EE3C40BF5F80EE3C4C8
:104FC0000CF5040E0B24D96E000E0C20DA6EDFA057
:104FD00087D0E150FB0FD96EE250DA6EFF0EDA2275
:104FE000050ED890DE36DE36DE36DD36DD52DD5299
:104FF000E82EF7D7E150FB0FD96EE250DA6EFF0EC4
:10500000DA22F90EE3C40BF5FA0EE3C40CF5030E35
:105010000B24E96E000E0C20EA6EEF501F0BDE121F
:10502000000EDE12DE12DE12E150FB0FD96EE250EE
:10503000DA6EFF0EDA22080ED890DE36DE36DE3665
:10504000DD36DD52DD52E82EF7D7E150FB0FD96E89
:10505000E250DA6EFF0EDA22F90EE3C40BF5FA0E17
:10506000E3C40CF5020E0B24E96E000E0C20EA6E70
:10507000EF50DE12000EDE12DE12DE12E150FB0FE8
:10508000D96EE250DA6EFF0EDA22050ED890DE36C7
:10509000DE36DE36DD36DD52DD52E82EF7D7E15062
:1050A000FB0FD96EE250DA6EFF0EDA22F90EE3C47E
:1050B0000BF5FA0EE3C40CF5010E0B24E96E000E9D
:1050C0000C20EA6EEF500C6ED8900C32D8900C3257
:1050D000D8900C301F0BDE12000EDE12DE12DE1234
:1050E000E150FB0FD96EE250DA6EFF0EDA22F70EB6
:1050F000E3C4E9F4F80EE3C4EAF4DEC4EEF4DEC47B
:10510000EEF4DEC4EEF4DEC4EEF4F70EE3C40BF509
:10511000F80EE3C40CF5040E0B24D96E000E0C201F
:10512000DA6EDF30E8320F0B0B6E0C6A250E0B24A3
:10513000F66EFC0E0C20F76EF86A000EF8220800DE
:10514000F550E66E000EE66EF70EE3C40BF5F80EB2
:10515000E3C40CF5080E0B24096E000E0C200A6E39
:1051600009C5E6F40AC5E6F4A90EE66E0A0EE66E77
:1051700072ECC2F0F70EE3C40BF5F80EE3C40CF5C5
:10518000050E0B24D96E000E0C20DA6EA90EDE6E11
:105190000A0EDD6EF70EE126FF0EE2221200E65245
:1051A000FF0EE36ABFAC02D0010E01D0000EFF0A71
:1051B0000C6E0C3A0C460C46BF500C18BF0B0C186A
:1051C000BF6E010E0601CC27000ECD23CE23CF23C8
:1051D0000501A151070DE70EF3240B6E060EF42016
:1051E0000C6E0BC5E6F40CC5E6F4010EE66E18EC89
:1051F000CEF00150D8B486D1070EE66E000EE66EF2
:105200000501A151070DE70EF3240B6E060EF420E5
:105210000C6E0BC5E6F40CC5E6F4F50EE66E060E54
:10522000E66E72ECC2F00501A151070DE70EF32402
:10523000D96E060EF420DA6EDF500F0B020AD8B4D6
:105240000DD0A151070DE70EF324D96E060EF42000
:10525000DA6EDF500F0B030AD8A445D0400EE66E7D
:10526000000EE66EA151070DEC0EF324D96E060E6A
:10527000F420DA6EDEC40BF5DDC40CF50BC5E6F4E4
:105280000CC5E6F4A151400D000EF3240B6E0F0E79
:10529000F4200C6E0BC5E6F40CC5E6F472ECC2F01B
:1052A0000501A151070DE70EF324D96E060EF42077
:1052B000DA6EDF500F0B020AD8A403D0010EA16FE3
:1052C00029D1A151070DE70EF324D96E060EF42063
:1052D000DA6EDF500F0B030AD8A405D0A16B010EC4
:1052E0000601D06F17D1A151070DE70EF324D96E37
:1052F000060EF420DA6EDF500F0B0C0AD8A41BD078
:10530000400EE66E000EE66EA151070DEC0EF32482
:10531000D96E060EF420DA6EDEC40BF5DDC40CF592
:105320000BC5E6F40CC5E6F4800EE66E0F0EE66ED5
:1053300072ECC2F0EFD0A151070DE70EF324D96E45
:10534000060EF420DA6EDF500F0B0F0AD8A41BD024
:10535000400EE66E000EE66EA151070DEC0EF32432
:10536000D96E060EF420DA6EDEC40BF5DDC40CF542
:105370000BC5E6F40CC5E6F4C00EE66E0F0EE66E45
:1053800072ECC2F0C7D0A151070DE70EF324D96E1D
:10539000060EF420DA6EDF500F0B0D0AD8A41ED0D3
:1053A000400EE66E000EE66EA151070DEC0EF324E2
:1053B000D96E060EF420DA6EDEC40BF5DDC40CF5F2
:1053C0000BC5E6F40CC5E6F4400EE66E0B0EE66E79
:1053D00072ECC2F0010E0B01816F9CD00601F551F9
:1053E0000F0B0A0AD8A486D0040EE66E000EE66EF5
:1053F000FAC6E6F4FBC6E6F4C30EE66E050EE66EEC
:1054000072ECC2F0050120EE3EF0C151D926C25126
:10541000DA22C3C5DEF4C4C5DEF4C5C5DEF4C6C5F4
:10542000DEF4C30EE66E050EE66EE0ECD8F001C5C4
:105430009DF502C59EF5C1C5E6F4C2C5E6F49DC55D
:10544000E6F49EC5E6F4AFECB3F0050120EE36F0CD
:10545000C151D926C251DA22DEC49BF5DDC49CF5C8
:105460009BC589F707018A6B9CC587F7886B0A0E75
:10547000E66E810EE66E070EE66EA2ECC5F001C583
:105480009BF502C59CF59BC58DF707018E6B9CC5EE
:105490008BF78C6B050120EE38F0C151D926C25133
:1054A000DA22DEC49BF5DDC49CF59BC579F70701C4
:1054B0007A6B9CC577F7786B0A0EE66E710EE66E16
:1054C000070EE66EA2ECC5F001C59BF502C59CF582
:1054D0009BC57DF707017E6B9CC57BF77C6B060146
:1054E0002251D8B417D01D51D8B414D0010E0701E1
:1054F000136F10D0F5510F0B0E0AD8A403D0010E74
:10550000246F08D0FF0EE32AFF0EE3C401F5070E57
:10551000016457D6E55212000A0EE126000EE2227F
:10552000D1C609F5D2C60AF5D3C60BF5D4C60CF51B
:10553000F60E09C5E3F4F70E0AC5E3F4F80E0BC541
:10554000E3F4F90E0CC5E3F4F20EE3C409F5F30E2F
:10555000E3C40AF5F40EE3C40BF5F50EE3C40CF551
:10556000F60E09C5E3F4F70E0AC5E3F4F80E0BC511
:10557000E3F4F90E0CC5E3F4810E0B6EFF0E0C6E16
:10558000F60EE3C405F5F70EE3C406F5F80EE3C422
:1055900007F5F90EE3C408F5180E05D0D8900832C7
:1055A000073206320532E82EF9D705C509F506C5DA
:1055B0000AF509500B24096E000E0C200A6EFE0E2F
:1055C00009C5E3F4FF0E0AC5E3F4FF0EE3BE15D0F0
:1055D000FF0EE35007E1FE0EE3C401F5170E015E76
:1055E000D8A00BD0F20EE3C401F5F30EE3C402F52C
