:0400000085EF00F098
:1000080031103110311031103110311031103110E0
:1000180031103110311031103110311031103110D0
:1000280031103110311031103110311031103110C0
:100038003110311031103110311031103110130FCF
:100048005C0F4A0F3110311031103110311031105E
:100058003110311031103110311031103110311090
:100068003110311031103110311031103110311080
:10007800311031103110311042003110311031106F
:10008800380F260F31103110311031103110311066
:10009800311031103110311042003110311031104F
:1000A8003110311031103110311031103110311040
:1000B8003110311031103110311031103110311030
:1000C8003110311031103110311031103110311020
:1000D8003110311031103110311031103110311010
:1000E80042003110311031103110311031103110FF
:1000F80031103110311031103110311031103110F0
:06010800FF00C7EF1DF02F
:10370000000001020304050607080C1014182030FD
:1037100040500100A00E3B24D96EDA6A050EDA2271
:10372000000EDF6E0201C5A798EF1BF09AEF1BF0A9
:10373000AFEF1BF0A00E3B24D96EDA6A050EDA2239
:103740000501DF8202D8AFEF1BF00500FA6E1050C2
:10375000FD6E1150FE6E1250FF6EFA501200020103
:10376000C5A3B5EF1BF0B7EF1BF0CCEF1BF0A00E1D
:103770003B24D96EDA6A050EDA220501DF8402D80D
:10378000CCEF1BF00500FA6E0D50FD6E0E50FE6E74
:103790000F50FF6EFA501200A00E3B24D96EDA6A69
:1037A000050EDA22DF50D8B4D8EF1BF0DAEF1BF0A9
:1037B000E9EF1BF002D8E7EF1BF00500FA6E0A50A4
:1037C000FD6E0B50FE6E0C50FF6EFA501200EBEFC8
:1037D0001BF082EC1FF01200600E3524D96EDA6AFD
:1037E000050EDA22000EDF6E0201B2A7FAEF1BF01F
:1037F000FCEF1BF011EF1CF0600E3524D96EDA6A75
:10380000050EDA220501DF8202D811EF1CF0050057
:10381000FA6E0750FD6E0850FE6E0950FF6EFA50AA
:1038200012000201B2A317EF1CF019EF1CF02EEFEB
:103830001CF0600E3524D96EDA6A050EDA22050115
:10384000DF8402D82EEF1CF00500FA6E0450FD6EE6
:103850000550FE6E0650FF6EFA501200600E3524C1
:10386000D96EDA6A050EDA22DF50D8B43AEF1CF0CE
:103870003CEF1CF04BEF1CF002D849EF1CF00500A8
:10388000FA6E0150FD6E0250FE6E0350FF6EFA504C
:1038900012004DEF1CF097EC1FF01200A690140ED2
:1038A0002F6E370E306E000E316E0AEC20F0A692AD
:1038B000FE0E2F6E3D0E306E000E316E03EC20F0CA
:1038C000000E0201B86F000EB96F000EBA6F000E45
:1038D000BB6F000EBC6F000EBD6FB00EBE6F800ED2
:1038E000BF6F000EC06F080EC16F020EC26F000ED8
:1038F000C36F000EC46F000EC56F000EC66FC80EFA
:103900002F6E400E306E000E316E18EC20F0C60E99
:103910002F6E400E306E000E316E11EC20F0B00EA6
:103920002F6E400E306E000E316E1FEC20F0000E38
:10393000386E000E3D6E000E3C6E400E236E000E83
:103940003B6E000E3A6E000E396EA6801200A290F9
:10395000D80E2F6E370E306E000E316E2DEC20F02B
:10396000A292400E2F6E3E0E306E000E316E26EC8F
:1039700020F0000E0201A56F000EA66F000EA76FCB
:10398000000EA86F000EA96F000EAA6FB00EAB6FED
:10399000800EAC6F000EAD6F080EAE6F020EAF6FF3
:1039A000000EB06F000EB16F000EB26F000EB36F5D
:1039B000CC0E2F6E400E306E000E316E3BEC20F0C0
:1039C000CA0E2F6E400E306E000E316E34EC20F0B9
:1039D000B60E2F6E400E306E000E316E42EC20F0AF
:1039E000000E326E000E376E000E366E400E226EE6
:1039F000000E356E000E346E000E336EA280120083
:103A0000000EC26E000EC16E000EBE6E0A0EBF6EBC
:103A1000000EC06E070ECA6EEF0EC66EE10EC76EC8
:103A2000BF0EC86EBF0EC96EBE0E0401186F7F0EAA
:103A3000106FE00E086F070E206F0069000E196FFF
:103A4000000E216F110E096F000E016F000E116F35
:103A5000000E226F000E026F000E0A6F000E126F32
:103A6000000E1A6F03690B6913691B69070E236F38
:103A700004690C6914691C690F0E246F180E020189
:103A8000746F080E3D6F460E0D6F200E176F170EE8
:103A9000726F230E1F6F1200316E000E306E50ECED
:103AA00020F02F6E040E2F18D8B459EF1DF05BEFE5
:103AB0001DF06CEF1DF03104D8B461EF1DF063EF21
:103AC0001DF06CEF1DF0040E3118D8A46AEF1DF044
:103AD0006CEF1DF08CEF1DF0010103513118F80B54
:103AE0003118036F7FEF1DF01DA979EF1DF07BEFFB
:103AF0001DF07FEF1DF0020E306E8EEF1DF00239CB
:103B0000E832070B3118D8A488EF1DF08AEF1DF0BA
:103B100074EF1DF08EEF1DF0010E306E305012006C
:103B2000BFB295EF1DF098EF1DF0010E99EF1DF05B
:103B3000000EFF0A246E2446BF502418FD0B2418E3
:103B4000BF6EBFB4A6EF1DF0A9EF1DF0010EAAEFE6
:103B50001DF0000EFF0A246E24462446BF50241890
:103B6000FB0B2418BF6EBFB6B8EF1DF0BBEF1DF006
:103B7000010EBCEF1DF0000EFF0A246E2446244601
:103B80002446BF502418F70B2418BF6E1200BC0E39
:103B9000F66E400EF76E000EF86E09006100D4F369
:103BA0003EF509006100D4F33FF501EE00F3400E4D
:103BB000EE6AE806FDE101EE00F210EE00F1EE6AB9
:103BC000E550E150FCE1E250FAE101EE60F1800ED7
:103BD000EE6AE806FDE101EE32F10C0EEE6AE8064F
:103BE000FDE10401080E5D6F000E5E6F000E5F6F59
:103BF0000001C0EF1FF00101018F040E4CEC1DF01D
:103C00000009D8A406EF1EF008EF1EF024EF1EF006
:103C1000000E01014C6F380E4D6F000E4E6F000EFE
:103C20004F6F600E006F870E016F000E026F57EC32
:103C30001FF0EFEC1FF0F9EC1FF05FEC20F041EC0F
:0A3C40001FF0000E4CEC1DF0120006
:103C4C006100E8F325F56100ECF326F5B19E135005
:103C5C0014101510D8B435EF1EF037EF1EF044EFEA
:103C6C001EF002D844EF1EF00500FA6E1350FD6EE4
:103C7C001450FE6E1550FF6EFA501200610098F44D
:0A3C8C00FBF4610094F4FAF4110057
:103C98006100E8F327F56100ECF328F51C501D10CE
:103CA8001E10D8B45AEF1EF05CEF1EF069EF1EF03C
:103CB80002D869EF1EF00500FA6E1C50FD6E1D500B
:103CC800FE6E1E50FF6EFA5012006100A0F4FBF465
:103CD80061009CF4FAF411006100E8F329F5610031
:103CE800ECF32AF51F5020102110D8B47EEF1EF0F7
:103CF80080EF1EF08DEF1EF002D88DEF1EF005004C
:103D0800FA6E1F50FD6E2050FE6E2150FF6EFA5065
:103D180012006100A8F4FBF46100A4F4FAF41100A5
:103D28006100E8F32BF56100ECF32CF51650171041
:103D38001810D8B4A2EF1EF0A4EF1EF0B1EF1EF0D9
:103D480002D8B1EF1EF00500FA6E1650FD6E17503E
:103D5800FE6E1850FF6EFA5012006100B0F4FBF4CA
:103D68006100ACF4FAF411006100E8F32DF561008C
:103D7800ECF32EF519501A101B10D8B4C6EF1EF02C
:103D8800C8EF1EF0D5EF1EF002D8D5EF1EF00500E3
:103D9800FA6E1950FD6E1A50FE6E1B50FF6EFA50E7
:103DA80012006100B8F4FBF46100B4F4FAF41100F5
:103DB800D68A000ED6BE010E2F6ED69E550E040171
:103DC800596FAA0E596F5991000E5F6F000E5E6F02
:103DD800080E5D6F550E596FAA0E596F59812FB095
:103DE80002D0D69E01D0D68E03016A836A8166838B
:103DF8006681658F1200400E236005EF1FF007EF04
:103E08001FF01EEF1FF0C00E3C24D96EDA6A060EB2
:103E1800DA22DF500201B66F3C2A3F0E3C6417EFEE
:103E28001FF019EF1FF01BEF1FF0000E3C6E232A46
:103E38001FEF1FF0A6921200400E226026EF1FF01F
:103E480028EF1FF03FEF1FF0400E3624D96EDA6AD4
:103E5800060EDA22DF500201A36F362A3F0E3664BF
:103E680038EF1FF03AEF1FF03CEF1FF0000E366EF0
:103E7800222A40EF1FF0A2921200000E2F6E2F5040
:103E8800020D3F0EF324D96E050EF420DA6E000EF3
:103E9800DF6E2F2A2F50D8B454EF1FF056EF1FF0C3
:103EA80043EF1FF01200040E0101046F040E056FAA
:103EB8000D0E066F000E076F010E086F010E096FD9
:103EC800060E0A6F000E0B6F070E0D6F020E0E6FB7
:103ED80012004F0E03011B6F980E196F000E186F1A
:103EE800B19EA18EC00E2F6E400E306E000E316E48
:103EF80049EC20F0800E03011A6F1200800E3B245B
:103F0800D96EDA6A060EDA22B4C2DFF43B2A3F0E13
:103F18003B6491EF1FF093EF1FF095EF1FF0000E39
:103F28003B6E392A1200000E3524D96EDA6A060E65
:103F3800DA22A1C2DFF4352A3F0E3564A6EF1FF05E
:103F4800A8EF1FF0AAEF1FF0000E356E332A1200FB
:103F5800000E0001606F000E616F000E626F000EB0
:103F6800636F000E646F000E656F000E666F000EC3
:103F7800676F000E686F1200D2EC1FF0200E2F6ED4
:103F88003B0E306E000E316E49EC20F0D68ED68C8A
:103F980055EC20F0CEEF1FF085EF00F0DCEC1EF0C2
:103FA800ACEC1FF000EC1DF0E3EC1FF06DEC1FF023
:103FB8004EEC1CF0A7EC1CF0FBEC1DF01200700E90
:103FC8000001AD6F000EAF6F000EB36F020EB16F40
:103FD800000EB06F1200800E01015C6F040E5D6F61
:103FE800600E5E6FE70E5F6F1200000E0101686FD2
:103FF800040E696F600E6A6FE70E6B6F12002FC5B3
:104008001CF530C51DF531C51EF512002FC51FF56D
:1040180030C520F531C521F512002FC50DF530C585
:104028000EF531C50FF512002FC510F530C511F585
:1040380031C512F512002FC50AF530C50BF531C58B
:104048000CF512002FC516F530C517F531C518F552
:1040580012002FC519F530C51AF531C51BF5120028
:104068002FC504F530C505F531C506F512002FC575
:1040780007F530C508F531C509F512002FC501F55A
:1040880030C502F531C503F512002FC513F530C54B
:1040980014F531C515F5120001010239E832070B94
:1040A800120003011A8F120082EC1FF0120097EC25
:0A40B8001FF01200020012001200B7
:0A40C4001100120012001200120099
:020000040020DA
:10000000FF0FFF0FFF0FFF0FFF0FFF0FFF0FFF0F80
:10001000FF0FFF0FFF0FFF0FFF0FFF0FFF0FFF0F70
:10002000FF0FFF0FFF0FFF0FFF0FFF0FFF0FFF0F60
:10003000FF0FFF0FFF0FFF0FFF0FFF0FFF0FFF0F50
:020000040030CA
:10000000FAFFFFDF9FFFFFFFFFFFFFFFFFFFFFFF85
:10001000FFFFFFFFFFFFFFFFFFFFFFFFFFFFFFFFF0
:03002000FFFFFFE0
:00000001FF
