:020000040000FA
:060000004AEF0AF01200B5
:020006001200E6
:0600080014EF00F01200ED
:02000E000200EE
:10001000B8140000600000009E000000B61400004C
:08002000FE00000002000000D8
:08002800DACFE4FFE2CFDAFFBA
:10003000E9CFE4FFEACFE4FFF6CFE4FFF7CFE4FF38
:10004000F8CFE4FFF5CFE4FFF3CFE4FFF4CFE4FF14
:10005000FACFE4FFFBCFE4FF00EE00F0140EE8045B
:1000600003E3EECFE4FFFBD700EE14F00C0EE80440
:1000700003E3EECFE4FFFBD7E652A350100B21E0E1
:10008000A450100B1EE00201A851AA19E8AE02D03C
:10009000AA3504D0A951A75DAA51A85906E3BAA26E
:1000A00010D0A3980001696B0CD0A5C2E9FFA6C2CD
:1000B000EAFFEF50796E8D70A72B000EA823A52BB9
:1000C000A623F2A425D0F2947AC0E6FF7BC0E6FF17
:1000D000D4EC09F0E552E5528D700001645107E15E
:1000E0006651662B240803E2666B010E676F65514B
:1000F000652B1E080DE260510BE1656B646BACA2D1
:10010000FED70001685102E1370EAD6E8D728D840D
:10011000A4AA06D0A6A202D0A698A6887ACFF6F006
:100120000001685101E182D09EAA9AD1ABA202D00F
:10013000AB98AB88AECFF9F0F9510201A16FA26B79
:100140008D70C00EA115206E216AC00E201801E12D
:10015000215003E0000160510FE00001010E606FCB
:100160006E6B6F6B706B716B3BEC05F0210EE926CB
:10017000020EEA22F9C0EFFF060EFA194DE1FB511B
:100180004BE1FA6BFB6B606B43EC05F0EF50020147
:10019000A16FA26B050E000112EC05F0EF500201F9
:1001A000A36FA46BA351A4111DE10001010E636FA5
:1001B00043EC05F0C00EEF6E010E12EC05F0800E60
:1001C000EF6E020E12EC05F0400EEF6E030E12EC15
:1001D00005F0EF6A040E12EC05F0EF6A050E12EC62
:1001E00005F0EF6A0001625105E0635103E1FA6B2B
:1001F000FB6B0BD06951FEE10201210EA56F020ECF
:100200001CEC05F0FA6BFB6B626F635105E0626BEF
:10021000636B606BFA6BFB6BFB3501E321D1FA5129
:100220000708000EFB5501E31BD115D19EAA18D17A
:10023000ABA202D0AB98AB88AECFF7F0F75102017A
:10024000A16FA26B8D700001605110E10201FE0EE2
:10025000A11901E1A2510AE0FD0EA11901E1A2518B
:1002600005E0F40EA11911E1A2510FE10001010E08
:10027000606F3BEC05F0100EE926020EEA22A1C2E7
:10028000EFFF6E6B6F6B706B716B0001040EFA19F0
:1002900001E0D9D0FB5101E0D6D0FF0E0201135D81
:1002A00001E0D1D00001FA6BFB6B606B100EFA25F8
:1002B000E96E020EFB21EA6EEF500201A36FA46B00
:1002C000FE0EA31963E1A45161E1125100017D5DAD
:1002D0000201126F11C209F0BADB72C00CF073C0D8
:1002E0000DF074C00EF075C00FF067EC05F008EC6F
:1002F00006F009C011F212C209F0A9DB76C00CF0B9
:1003000077C00DF078C00EF079C00FF067EC05F003
:1003100008EC06F009C012F2060E206EC00E0201B3
:10032000111520C0E7FFE75204E0E8427F0BE70623
:10033000FCE1C00FE66E000E0001FA25E96E020E28
:10034000FB21EA6EE552E750EF6E3F0E02011115F8
:10035000800FE66E010E9EDB060E206EC00E0201BF
:10036000121520C0E7FFE75204E0E8427F0BE706E2
:10037000FCE1400FE66E020E8DDB3F0E020112150E
:10038000E66E030E87DB8CDB0F0EEF6E0201FD0EB7
:10039000A3191AE1A45118E10001010E636F000EC8
:1003A000FA25E96E020EFB21EA6EC00EEF6E010E19
:1003B0002FDB800EEF6E020E2BDB400EEF6E030E76
:1003C00027DBEF6A6DDBEF6A000162510EE16351DA
:1003D0000CE10201F40EA31908E1A45106E10001A9
:1003E000010E646F676B666B8D940001625104E0CF
:1003F000635102E1FA6B15D00201FE0EA31901E16F
:10040000A45105E0FD0EA3190DE1A4510BE100017B
:100410006951FDE10201000EA56F020E0DDB060E13
:10042000FA6FFB6B0201FE0EA31905E1A45103E173
:100430000001010E626F0001635105E0626B636BA6
:10044000606BFA6BFB6B0001FB350AE2FA510508A1
:10045000000EFB5505E2FA6BFB6B606B626B636B26
:10046000E55200EE1FF00C0EE80403E3E5CFEDFFCC
:10047000FBD700EE13F0140EE80403E3E5CFEDFF25
:10048000FBD7E5CFFBFFE5CFFAFFE5CFF4FFE5CFE4
:10049000F3FFE5CFF5FFE5CFF8FFE5CFF7FFE5CFB9
:1004A000F6FFE5CFEAFFE5CFE9FFE5CFDAFF110080
:1004B000D9CFE6FFE1CFD9FF040EE126DE6ADE6A7E
:1004C000DE6ADD6ADD52DD52FB0EDBCF14F0FC0E7E
:1004D000DBCF15F0FD0EDBCF16F0FE0EDBCF17F0F5
:1004E000D9CFE9FFDACFEAFFEE50145CEE50155891
:1004F000EE501658EE5017580BE30400D9CFE9FF21
:10050000DACFEAFFEE2A000EEE22EE22EE22DCD750
:10051000040EE15C02E2E16AE552E16EE552E7CFEA
:10052000D9FF1200D9CFE6FFE1CFD9FF020EE126B5
:10053000DE6ADD6ADECF14F0DDCF15F0D8901550FD
:1005400004E60E0E145C000E15581DE2ACA2FED798
:10055000FD0EDBCF14F0FE0EDBCF15F0DE501424C1
:10056000E96EDD501520EA6EEF50E66E23EC0AF0DE
:10057000E5528D70100EE66E270E74DADF2A010E3A
:10058000D9E3DB2AD7D7500EE66EC30E6BDA020E24
:10059000E15C02E2E16AE552E16EE552E7CFD9FFA4
:1005A0001200D9CFE6FFE1CFD9FF040EE126DE68C5
:1005B000DD68FB0EDBCF08F0FC0EDBCF09F0020E8E
:1005C00008C0DBFF030E09C0DBFF0400020EDBCF17
:1005D00014F0DB06030EDBCF15F001E2DB0614504E
:1005E00015104AE0DECF16F0DDCF17F0FF0E16161D
:1005F000000E171616C017F0166AED0E186E0D0EC7
:10060000196E000E1A6EDECF1EF0DDCF1FF01FC078
:100610001EF01F6AFD0EDBCFE9FFDB2AFE0EDBCFEB
:10062000EAFF01E3DB2AEF5000011E181B6E1FC01A
:100630001CF0FF0E1B16000E1C161D6AD8901B36F0
:100640001C361D3618501B24F36E19501C20F46EF6
:100650001A501D20F86EF4CFF7FFF3CFF6FF090014
:10066000F5501618146E0900F5501718156E14C0C1
:10067000DEFF15C0DDFFAAD70400DECF14F0DDCF0A
:1006800015F014C0F3FF15C0F4FF00D0040EE15CB8
:1006900002E2E16AE552E16EE552E7CFD9FF1200CE
:1006A000D9CFE6FFE1CFD9FF020EE1260001FC51D0
:1006B000FD1105E0FCC0F3FFFDC0F4FF75D0DE6A5C
:1006C000DD6ADECF14F0DDCF15F0000E145C010EF4
:1006D000155818E2DECFE9FFDDCFEAFF000EE9266C
:1006E000010EEA22EF500001FC250001FC6F000E14
:1006F0000001FD210001FD6F0400DF2A010E01E36E
:10070000DB2ADFD7DE6ADD6ADECF14F0DDCF15F03D
:10071000470E145C000E15582CE258EC0AF0A60E99
:10072000146E0D0E156E000E166EDECF17F0DDCFB7
:1007300018F0196A14501724F36E15501820F46E2F
:1007400016501920F86EF4CFF7FFF3CFF6FF08002C
:10075000F550E66EDECFE6FFDDCFE6FF24EC09F0D4
:10076000E552E552E5520400DF2A010E01E3DB2ADF
:10077000CBD7E66A010EE66E000EE66E010EE66E5F
:1007800010DFE552E552E552E552F3CFFCF0F4CF2D
:10079000FDF0FE0EDB5003E00001FC6BFD6BFCC0C6
:1007A000F3FFFDC0F4FF00D0020EE15C02E2E16A5B
:1007B000E552E16EE552E7CFD9FF1200D9CFE6FF4F
:1007C000E1CFD9FFE652926A896A936A8A6A946A8B
:1007D0008B6A956A8C6A966A8D680101006B810E3E
:1007E000E66EE66A7C0EE66E82EC08F0E552E552B3
:1007F000E552810EE66EE66AFC0EE66E46EC08F007
:10080000E552E552E552970EE66EF0EC09F0E5523E
:100810007AC0E6FF7BC0E6FFD4EC09F0E552E55272
:10082000D08E9F8AA58A600EE66EAE0EE66E0A0E28
:10083000E66EE66A3DDEE552E552E552E552760E99
:10084000E66E110EE66E000EE66EF2EC08F0E55272
:10085000E552E5529EAA04D097EC09F0DF6EFAD774
:10086000A4AA04D078EC09F0DF6EFAD7F28AF296E7
:10087000F298F096F098F09AF29CF28EE66A10DF09
:10088000E552F3CF14F0F4CF15F014C0E6FF15C015
:10089000E6FFB6EC09F0E552E5520F0E816E7E0ED2
:1008A000E66E000EE66E3EDEE552E55200016EC0D9
:1008B00014F06FC015F070C016F071C017F06E2BF9
:1008C000000E6F2370237123D8901750000A08E69A
:1008D000B80E145C880E1558000E1658000E1758E6
:1008E00001E28FD06AC014F06BC015F06CC016F036
:1008F0006DC017F00E0E1416156A166A176A14509A
:10090000816E0001615115E000016A516B116C119B
:100910006D110FE06AC06AF06BC06BF06CC06CF0D8
:100920006DC06DF00001D8906A376B376C376D374A
:1009300025D000016A516B116C116D111FE06AC066
:100940006AF06BC06BF06CC06CF06DC06DF0020EA5
:100950000B6E0C6A0D6A0E6A6AC006F06BC007F077
:100960006CC008F06DC009F0D4EC05F006C06AF068
:1009700007C06BF008C06CF009C06DF0D8900001A2
:100980006D51000A08E6020E6A5D000E6B59000EFA
:100990006C59000E6D590AE20001020E6A6F6B6B12
:1009A0006C6B6D6B0001010E616F17D000016D352E
:1009B000000E6D1909E6D880080E6A55000E6B55B9
:1009C000000E6C55000E6D5508E20001080E6A6FAE
:1009D0006B6B6C6B6D6B0001616B00016E6B6F6B11
:1009E000706B716B0400000167510BE0F29E7E0E8C
:1009F000E66E000EE66E96DDE552E552F28E0001DF
:100A0000676B040053D7E552E552E7CFD9FF1200D8
:100A1000EA6AFA25E96EFB51EA22000EE926020E87
:100A2000EA221200EA6AFA25E96EFB51EA22210E57
:100A3000E926020EEA221200A66FA76BA86B060E2B
:100A4000A96FAA6B0001010E696FA388120056EC12
:100A500005F007C020F008C021F009C022F00AC04C
:100A600023F01200E66EE66AE66A22DDE552E55200
:100A7000E552E5521200FAC0E9FFFBC0EAFFFA2B8B
:100A8000000EFB231200210EFA25E96E020EFB2157
:100A9000EA6E12000001BCDFE552E750EF6E120073
:0C0AA000040EB6DFEF6A050E08EF05F04B
:040AAC00019E05D0D2
:100AB000019E09AE02D0096C018E09C003F0026AE2
:100AC000136A126A860E046E056A4BEF06F0016A1D
:100AD00087EC06F09FEC06F001B62FEF06F001A2BE
:100AE00005D001B82FEF06F036EF06F001AA05D0C9
:100AF00001B02FEF06F036EF06F001B002D001A8EA
:100B000002D042EF06F0056A0F500A24046EE86A2C
:100B100005227E0E045EE86A055A126A136A026AAA
:100B2000036A0E500902F4CF03F0F3CF02F00D5028
:100B30000902F3501326F4500222000E03220E5035
:100B40000802F3501326F4500222000E03220C5028
:100B50000902F3501226F4501322000E022203223F
:100B60000D500802F3501226F4501322000E0222F8
:100B700003220E500702F3501226F4501322000EE7
:100B8000022203220C500802F4501226000E1322F7
:100B9000022203220D500702F4501226000E1322E7
:100BA000022203224BEF06F0006AE86A0EAEE1EF84
:100BB00005F00B6C0C1E0D1E0E1E0C220D220E22BB
:100BC000001E09AEECEF05F0066C071E081E091E9C
:100BD000072208220922001E54EC09F009BE03EF87
:100BE00006F000AE000C066C071E081E091EE86A1F
:100BF000072208220922026C031E041E051E03227E
:100C000004220522000C00BEF3EF05F00188FF0C62
:100C1000016A87EC06F001B612EF06F001A20AD0D5
:100C200001B403D07F0E096E19D0800E096E16D064
:100C3000096A14D001B0FCD7870E0A60F1D77E0E86
:100C40000A64F6D7860E0A5C04E0D89009320A2AB4
:100C5000F9D701A403D0096C09AEEAD712007F0EC0
:100C60000A6EFF0E096E086E076E12007F0E01BE3F
:100C7000FF0E0A6E02D07F0E0A6E800E096E086AA1
:100C8000076AF3D701AE04D0800E0A6E096AF7D75F
:100C90000A6A096AF4D70350021013101210F8E020
:100CA00005BEF0D703BE0CD004500510EBE0D89081
:100CB00012361336023603360406D8A00506F2D7DC
:100CC0000550D4E10428D2E012AE11D07F0E1214E8
:100CD00002E113A00CD0132AE86A0222032207E3E0
:100CE000D880033202321332042A0428BFE00450B1
:100CF000C9E013C007F002C008F00334096E0430E5
:100D00000A6E09320A9E01BE0A8E35EF06F00936D8
:100D10000A3602E30184017E06E101800A6A096A5B
:100D2000086A076A12000A2803E0D8800932120014
:100D3000D890093202E101821200018612000E36BB
:100D40000F3602E3018C017E06E101880F6A0E6A0C
:100D50000D6A0C6A12000F2803E0D8800E321200D0
:100D6000D8900E32EAE1018A120008C012F0085051
:100D70000D02F4CF07F0F3CF06F009500E02F4CFC6
:100D800009F0F3CF08F00D02F3500726F4500822C3
:100D9000E86A092212500E02F3500726F450082286
:060DA000E86A0922000CC4
:0A0DA6002056312E3033203837324A
:100DB000322056617269616E20746F7563682D739D
:100DC000637265656E20636F6E7665727465722EF0
:100DD00020467265642042726F6F6B732C204D69E0
:100DE00063726F6368697020496E632E0000002192
:100DF00010422063308440A550C660E77008812906
:100E0000914AA16BB18CC1ADD1CEE1EFF13112109D
:100E10000273325222B5529442F772D66239931855
:100E2000837BB35AA3BDD39CC3FFF3DEE3622443A9
:100E30003420040114E664C774A44485546AA54BA5
:100E4000B528850995EEE5CFF5ACC58DD55336723D
:100E50002611163006D776F6669556B4465BB77AF5
:100E6000A719973887DFF7FEE79DD7BCC7C448E5C9
:100E7000588668A7784008611802282338CCC9ED45
:100E8000D98EE9AFF9488969990AA92BB9F55AD4DD
:100E90004AB77A966A711A500A333A122AFDDBDC95
:100EA000CBBFFB9EEB799B588B3BBB1AABA66C87E9
:100EB0007CE44CC55C222C033C600C411CAEED8FE5
:100EC000FDECCDCDDD2AAD0BBD688D499D977EB67D
:100ED0006ED55EF44E133E322E511E700E9FFFBE35
:100EE000EFDDDFFCCF1BBF3AAF599F788F8891A908
:100EF00081CAB1EBA10CD12DC14EF16FE18010A1DF
:100F000000C230E3200450254046706760B98398E2
:100F100093FBA3DAB33DC31CD37FE35EF3B102902E
:100F200012F322D2323542145277625672EAB5CBAE
:100F3000A5A89589856EF54FE52CD50DC5E234C37E
:100F400024A01481046674476424540544DBA7FA82
:100F5000B79987B8975FE77EF71DC73CD7D326F2CE
:100F6000369106B01657667676154634564CD96DCE
:100F7000C90EF92FE9C899E9898AB9ABA94458651E
:100F80004806782768C018E1088238A3287DCB5C22
:100F9000DB3FEB1EFBF98BD89BBBAB9ABB754A546E
:100FA0005A376A167AF10AD01AB32A923A2EFD0FEE
:100FB000ED6CDD4DCDAABD8BADE89DC98D267C07BE
:100FC0006C645C454CA23C832CE01CC10C1FEF3EC2
:100FD000FF5DCF7CDF9BAFBABFD98FF89F176E360E
:0D0FE0007E554E745E932EB23ED10EF01E73
:020FEE000E0EE5
:100FF000F66E000EF76E000EF86E0E010900F55049
:10100000056F0900F550066F03E1056701D03DD07B
:101010000900F550006F0900F550016F0900F55007
:10102000026F09000900F550E96E0900F550EA6EFB
:10103000090009000900F550036F0900F550046F1D
:1010400009000900F6CF07FEF7CF08FEF8CF09FE2A
:1010500000CEF6FF01CEF7FF02CEF8FF0E010353DC
:1010600002E1045307E00900F550EE6E0307F8E2D1
:101070000407F9D707CEF6FF08CEF7FF09CEF8FF31
:0C1080000E010507000E065BBFD7120032
:04108C00D9CFE6FFD3
:10109000DACFE6FFE1CFD9FFE2CFDAFFBA6AA66A7C
:1010A000FD0EDBB0BA88DBA202D0BA8CA68CDBB412
:1010B000BA8EDBA602D0A68801D0A68ADBA802D011
:1010C000BA8401D0BA94DBBAA686DBAC02D0A38A7C
:1010D00001D0A39ADBAE02D0A38801D0A398FB0E67
:1010E000DB507B6EFC0EDBCF15F015C014F0156ADB
:1010F00014507C6EBA8AA68EE552E5CFDAFFE7CFB0
:04110000D9FF120001
:0C110400D9CFE6FFDACFE6FFE1CFD9FF3C
:10111000E2CFDAFFAC6AAB6AFD0EDBB0AC88DBA2D3
:1011200002D0AC8CAB8CDBB4AC8EDBA602D0AB882F
:1011300001D0AB8ADBB8AC84DBBAAB86DBAC02D0C7
:101140009D8A01D09D9ADBAE02D09D8801D09D98EA
:10115000FB0EDB50AF6EFC0EDBCF15F015C014F0AC
:10116000156A14507D6EAC8AAB8EE552E5CFDAFF7E
:06117000E7CFD9FF1200D9
:0A1176000A0D56617269616E207463
:101180006F7563682D73637265656E20636F6E762D
:1011900065727465722E20467265642042726F6FAC
:1011A0006B732C204D6963726F6368697020496EA0
:1011B000632E20536174204A756C20372030373AF3
:1011C00030373A30372032303037200A0D0031378F
:1011D0003A34373A3534004A616E203235203230A5
:0311E000313500A6
:0C11E400D9CFE6FFDACFE6FFE1CFD9FF5C
:1011F000E2CFDAFFBAA2FED7FB0EDBCFF6FFFC0E82
:10120000DBCFF7FFFD0EDBCFF8FF0800F550E66EF1
:101210000CEC0AF0E552D950FB0FE96EFF0EDA2014
:10122000EA6EEFCFF6FFEE2AEFCFF7FF000EEE22C9
:10123000EFCFF8FFEE220800F550DCE1E552E5CFF4
:08124000DAFFE7CFD9FF12002D
:08124800D9CFE6FFDACFE6FF83
:10125000E1CFD9FFE2CFDAFFFD0EDBCF15F015C0ED
:1012600014F0030E1514756EFF0EE76EFC0EDBCF47
:1012700014F0E7501416156A1450746EFB0EDB5010
:10128000736E7F9E7F9C7F84F29E550E7E6EAA0EAB
:101290007E6E7F827FB2FED7F28E7F94E552E5CFDD
:0812A000DAFFE7CFD9FF1200CD
:0812A800056A046A036A026A88
:1012B000200EE76ED8900636073608360936023615
:1012C0000336043605360B50025C0C5003580D50A3
:1012D00004580E50055809E30B50025E0C50035A97
:1012E0000D50045A0E50055A062AE72EE4D7120074
:1012F000D9CFE6FFDACFE6FFE1CFD9FFE2CFDAFFC1
:10130000E652F20E0E010A17A6AC03D00A91A6B05F
:101310000A81A6B40A85A6B20A877A50DF6EDF502A
:0E132000E552E552E5CFDAFFE7CFD9FF120024
:02132E00D9CF15
:10133000E6FFDACFE6FFE1CFD9FFE2CFDAFFE652F0
:10134000F20E0E010B17ABAC03D00B91ABB00B81BF
:10135000ABB40B85ABB20B87AE50DF6EDF50E552FE
:0C136000E552E5CFDAFFE7CFD9FF12001D
:04136C00FE0EE3CFBF
:10137000FEF0FF0EE3CFFFF01200FFC009F0FEC049
:1013800008F0350E0D6E450E0E6EB5EC06F0062A11
:10139000E86A0722079E07C0FFF006C0FEF0FEC005
:0813A000F3FFFFC0F4FF12008F
:0813A800D9CFE6FFDACFE6FF22
:1013B000E1CFD9FFE2CFDAFFE652E652FC0EDBCFF7
:1013C000DEFFDBCFDDFF010EDB50D76EDF50D66EC8
:1013D000E552E552E552E5CFDAFFE7CFD9FF12003B
:1013E000D9CFE6FFDACFE6FFE1CFD9FFE2CFDAFFD0
:1013F000FD0EDB507F0BD56ED76AD66AF294FD0ED8
:10140000DBAE02D0F28A01D0F29AD58EE552E5CF5A
:08141000DAFFE7CFD9FF12005B
:08141800D9CFE6FFDACFE6FFB1
:10142000E1CFD9FFE2CFDAFFBAAC04D0BA900E0117
:101430000AB3BA80FD0EDB50796EE552E5CFDAFFD4
:06144000E7CFD9FF120006
:0A144600D9CFE6FFDACFE6FFE1CFD1
:10145000D9FFE2CFDAFFACAC04D0AC900E010BB3F5
:10146000AC80FD0EDB50AD6EE552E5CFDAFFE7CF85
:04147000D9FF12008E
:0C147400410EF36E00EE00F00E0E01D8E9
:101480001200EA6002D0EE6AFCD7F350E960120065
:04149000EE6AFCD72D
:0C1494001DEE00F02DEE00F0F86A019C47
:1014A000F7EC07F003EC00F0DEEC03F0FBD71200E2
:0614B0007FB2FED712001E
:0214B600010033
:0814B80000010000000000002B
:1014C000000000000000000000003333F33F000084
:1014D000E03F6A67775E0D0D0D0D0D3C2B4426290C
:1014E000443D2A37554D0085083030303030555353
:1014F00078F6FF0401FF0F30555379F6FFC300FF64
:101500000F3055537A01000E00FF0030554531363B
:10151000303030303030554E313730303030303080
:1015200000000000000000000000000000000000BB
:1015300000000000000000000000000000000000AB
:101540000000000000000000D71100CE11000000D4
:0615500000000000000095
:020000040030CA
:010000005DA2
:0100010002FC
:010002007F7E
:010003002AD2
:010005008971
:010006009168
:010008000FE8
:01000900C036
:01000A000FE6
:01000B00E014
:01000C000FE4
:01000D0040B2
:00000001FF
