:04000000FEEFFFF020
:10370000000001020304050607080C1014182030FD
:1037100040500100436E000E426EBBEC1CF0416E47
:10372000040E4118D8B497EF1BF099EF1BF0AAEFE5
:103730001BF04304D8B49FEF1BF0A1EF1BF0AAEFDE
:103740001BF0040E4318D8A4A8EF1BF0AAEF1BF03F
:10375000CAEF1BF0010103514318F80B4318036F24
:10376000BDEF1BF01DA9B7EF1BF0B9EF1BF0BDEFCC
:103770001BF0020E426ECCEF1BF00239E832070B51
:103780004318D8A4C6EF1BF0C8EF1BF0B2EF1BF034
:10379000CCEF1BF0010E426E42501200000EC26EC2
:1037A000000EC16E000EBE6E000EBF6E000EC06E2B
:1037B000070ECA6EEF0EC66EC768C868C9680401F6
:1037C000186910690869070E206F0069000E196FEB
:1037D000000E216F000E096F000E016F000E116FB9
:1037E000000E226F000E026F000E0A6F000E126FA5
:1037F000000E1A6F03690B6913691B69070E236FAB
:1038000004690C6914691C690F0E246F1200010110
:10381000018F040E8AEC1BF00009D8A412EF1CF0F3
:1038200014EF1CF030EF1CF0000E01014C6F380E4D
:103830004D6F000E4E6F000E4F6FE00E006F870E43
:10384000016F000E026F62EC1CF098EC1CF0A2EC11
:103850001CF0C1EC1CF04CEC1CF0000E8AEC1BF0D0
:103860001200800EF66E390EF76E000EF86E09002B
:103870006100D4F344F509006100D4F345F501EE8D
:1038800001F1400EEE6AE806FDE1000EF86E370E1B
:10389000F76E0001B5EF1CF0000E416E4150020DB5
:1038A000450EF324D96E050EF420DA6E000EDF6E9D
:1038B000412A4150D8B45FEF1CF061EF1CF04EEF8D
:1038C0001CF01200090E0101046F090E056F1C0E99
:1038D000066F000E076F030E086F030E096F0E0EC2
:1038E0000A6F000E0B6F0F0E0D6F020E0E6F12009F
:1038F000000E0001606F000E616F000E626F000E1F
:10390000636F000E646F000E656F000E666F000E31
:10391000676F000E686F1200700E0001AD6F000E31
:10392000AF6F000EB36F020EB16F000EB06F1200DA
:10393000800E01015C6F040E5D6F600E5E6FE70E1E
:103940005F6F1200000E0101686F040E696F600E58
:103950006A6FE70E6B6F120078EC1CF0CEEC1BF078
:103960008CEC1CF007EC1CF01200ACEC1CF0B7EF78
:103970001CF0FEEFFFF001010239E832070B1200E4
:04398000020012002F
:020000040001F9
:04FFFC0031EF1CF0D5
:020000040020DA
:10000000FF0FFF0FFF0FFF0FFF0FFF0FFF0FFF0F80
:10001000FF0FFF0FFF0FFF0FFF0FFF0FFF0FFF0F70
:10002000FF0FFF0FFF0FFF0FFF0FFF0FFF0FFF0F60
:10003000FF0FFF0FFF0FFF0FFF0FFF0FFF0FFF0F50
:020000040030CA
:10000000FCFFFFFF9FFFFFFFFFFFFFFFFFFFFFFF63
:10001000FFFFFFFFFFFFFFFFFFFFFFFFFFFFFFFFF0
:03002000FFFFFFE0
:00000001FF
